:020000040000FA
:0600000028EF25F01200BC
:020006001200E6
:060008007FEF22F0120060
:02000E000000F0
:020010000000EE
:060018000AEF22F01200C5
:02001E000800D8
:100020005C4B0000000F000028000000554B000052
:10003000F801000007000000194B0000BC0100009F
:100040003C000000C3410000FF010000010000006F
:100050000E000000620F000004000000B84A00001B
:100060008000000061000000A84A0000480F000066
:1000700010000000884A0000280F00002000000047
:1000800096EC0DF00101FB51070A24E0010A1EE085
:10009000030A18E0010A12E0070A0CE0010A06E070
:1000A000030A1CE1BF0EE66E410E1BD0BB0EE66ECE
:1000B000410E17D0B70EE66E410E13D0B30EE66EAA
:1000C000410E0FD0AF0EE66E410E0BD0AB0EE66EBA
:1000D000410E07D0A70EE66E410E03D0A30EE66ECA
:1000E000410EE66EE66AE66A0BEC10F0E552E55268
:1000F000E552E5520A0E046E266EFAC121F0EAECD2
:1001000022F021C000F0016A026A036A00AE03D047
:1001100001680268036800C0E6FF01C0E6FF02C094
:10012000E6FF03C0E6FF040EE66EE66AE4EC0EF0BE
:10013000056E060EE15E0550FAC121F00A0E266E2C
:10014000EAEC22F01DC000F0016A026A036A00AE08
:1001500003D001680268036800C0E6FF01C0E6FF43
:1001600002C0E6FF03C0E6FF050EE66EE66AE4ECB9
:100170000EF0046E060EE15E0450A10EE66E410E16
:10018000E66E060EE66EE66A0BEC10F0E552E552FE
:10019000E552E5520A0E046E266EF9C121F0EAEC32
:1001A00022F021C000F0016A026A036A00AE03D0A7
:1001B00001680268036800C0E6FF01C0E6FF02C0F4
:1001C000E6FF03C0E6FF070EE66EE66AE4EC0EF01B
:1001D000056E060EE15E0550F9C121F00A0E266E8D
:1001E000EAEC22F01DC000F0016A026A036A00AE68
:1001F00003D001680268036800C0E6FF01C0E6FFA3
:1002000002C0E6FF03C0E6FF080EE66EE66AE4EC15
:100210000EF0046E060EE15E0450A10EE66E410E75
:10022000E66E090EE66EE66A0BEC10F0E552E5525A
:10023000E552E5520A0E046E266EF8C121F0EAEC92
:1002400022F021C000F0016A026A036A00AE03D006
:1002500001680268036800C0E6FF01C0E6FF02C053
:10026000E6FF03C0E6FF0A0EE66EE66AE4EC0EF077
:10027000056E060EE15E0550F8C121F00A0E266EED
:10028000EAEC22F01DC000F0016A026A036A00AEC7
:1002900003D001680268036800C0E6FF01C0E6FF02
:1002A00002C0E6FF03C0E6FF0B0EE66EE66AE4EC72
:1002B0000EF0046E060EE15E04500101FD510C0AC1
:1002C00042E0070A3CE0010A36E0030A30E0010A96
:1002D0002AE00F0A24E0010A1EE0030A18E0010ADE
:1002E00012E0070A0CE0010A06E0030A30E19D0E65
:1002F000E66E410E2FD0990EE66E410E2BD0950E74
:10030000E66E410E27D0910EE66E410E23D08D0E83
:10031000E66E410E1FD0890EE66E410E1BD0850E93
:10032000E66E410E17D0810EE66E410E13D07D0EA3
:10033000E66E410E0FD0790EE66E410E0BD0750EB3
:10034000E66E410E07D0710EE66E410E03D0A30E8D
:10035000E66E410EE66E020EE66E010EE66E0BECE8
:1003600010F0E552E552E552E5526F0EE66E410E91
:10037000E66E050EE66E010EE66E0BEC10F0E55231
:10038000E552E552E5520A0E046E266EFCC121F0DC
:10039000EAEC22F021C000F0016A026A036A00AEB2
:1003A00003D001680268036800C0E6FF01C0E6FFF1
:1003B00002C0E6FF03C0E6FF060EE66E010EE66E23
:1003C000E4EC0EF0056E060EE15E0550FCC121F076
:1003D0000A0E266EEAEC22F01DC000F0016A026AE5
:1003E000036A00AE03D001680268036800C0E6FF3C
:1003F00001C0E6FF02C0E6FF03C0E6FF070EE66E9F
:10040000010EE66EE4EC0EF0046E060EE15E0450A2
:100410006F0EE66E410EE66E080EE66E010EE66E9B
:100420000BEC10F0E552E552E552E552140EE66E83
:10043000E66AE66AE66A090EE66E010EE66EE4EC2E
:100440000EF0006E060EE15E00500A0E046E266E7F
:10045000FEC121F0EAEC22F021C000F0016A026A3C
:10046000036A00AE03D001680268036800C0E6FFBB
:1004700001C0E6FF02C0E6FF03C0E6FF0B0EE66E1A
:10048000010EE66EE4EC0EF0056E060EE15E055020
:10049000FEC121F00A0E266EEAEC22F01DC000F02B
:1004A000016A026A036A00AE03D001680268036849
:1004B00000C0E6FF01C0E6FF02C0E6FF03C0E6FFA2
:1004C0000C0EE66E010EE66EE4EC0EF0046E060E07
:1004D000E15E0450120096EC0DF0030E0101C0190C
:1004E00001E1C15142E0020EC01901E1C15129E010
:1004F000010EC01901E1C15114E0C05143E1C151E5
:1005000041E1600EE66E410EE66EE66AE66A0BECCD
:1005100010F0E552E552E552E552510EE66E410EFD
:100520001FD0410EE66E410EE66EE66AE66A0BECFF
:1005300010F0E552E552E552E552320EE66E410EFC
:100540000FD0270EE66E410EE66EE66AE66A0BEC09
:1005500010F0E552E552E552E5521A0EE66E410EF4
:10056000E66EE66A010EE66E06D00B0EE66E410EF2
:10057000E66EE66AE66A0BEC10F0E552E552E552EB
:10058000E5521200C06BC16B120096EC0DF0070E25
:100590000101C01901E1C15101E199D0060EC01954
:1005A00001E1C15101E17FD0050EC01901E1C15146
:1005B0006AE0040EC01901E1C15155E0030EC019F3
:1005C00001E1C15140E0020EC01901E1C1512BE02F
:1005D000010EC01901E1C15116E0C05101E084D003
:1005E000C15101E081D0FB0EE66E400EE66EE66A78
:1005F000E66A0BEC10F0E552E552E552E552EE0EDC
:10060000E66E400E5FD0E00EE66E400EE66EE66AE5
:10061000E66A0BEC10F0E552E552E552E552D20ED7
:10062000E66E400E4FD0C40EE66E400EE66EE66AF1
:10063000E66A0BEC10F0E552E552E552E552B60ED3
:10064000E66E400E3FD0A90EE66E400EE66EE66AFC
:10065000E66A0BEC10F0E552E552E552E5529C0ECD
:10066000E66E400E2FD08F0EE66E400EE66EE66A06
:10067000E66A0BEC10F0E552E552E552E552820EC7
:10068000E66E400E1FD0740EE66E400EE66EE66A11
:10069000E66A0BEC10F0E552E552E552E552660EC3
:1006A000E66E400E0FD0580EE66E400EE66EE66A1D
:1006B000E66A0BEC10F0E552E552E552E5524A0EBF
:1006C000E66E400EE66EE66A010EE66E06D03B0E62
:1006D000E66E400EE66EE66AE66A0BEC10F0E55256
:1006E000E552E552E5521200C06BC16B120096EC68
:1006F0000DF0330EE66E400EE66EE66AE66A0BEC2F
:1007000010F0E552E552E552E552BEC100F0BFC11E
:1007100001F0026A036A01AE02D00268036800C0F9
:10072000E6FF01C0E6FF02C0E6FF03C0E6FF070EDA
:10073000E66EE66AE4EC0EF0046E060EE15E04502E
:100740002B0EE66E400EE66EE66A010EE66E0BECD0
:1007500010F0E552E552E552E552120096EC0DF02C
:10076000010104510101EA5D010105510101EB594B
:1007700027E2250EE66E400EE66EE66AE66A0BECB0
:1007800010F0E552E552E552E55204C100F005C112
:1007900001F0026A036A04C1E6FF05C1E6FF02C078
:1007A000E6FF03C0E6FF060EE66EE66A36EC10F0E2
:1007B000046E060EE15E04501D0EE66E400E1FD163
:1007C000010108510101EC5D010109510101ED59DF
:1007D00027E2160EE66E400EE66EE66AE66A0BEC5F
:1007E00010F0E552E552E552E55208C100F009C1AA
:1007F00001F0026A036A08C1E6FF09C1E6FF02C010
:10080000E6FF03C0E6FF060EE66EE66A36EC10F081
:10081000046E060EE15E04500D0EE66E400EEFD043
:10082000010106510101EE5D010107510101EF597E
:1008300027E2070EE66E400EE66EE66AE66A0BEC0D
:1008400010F0E552E552E552E55206C100F007C14D
:1008500001F0026A036A06C1E6FF07C1E6FF02C0B3
:10086000E6FF03C0E6FF060EE66EE66A36EC10F021
:10087000046E060EE15E0450FF0EE66E3F0EBFD022
:1008800001010A510101F05D01010B510101F15912
:1008900027E2F80EE66E3F0EE66EE66AE66A0BECBD
:1008A00010F0E552E552E552E5520AC100F00BC1E5
:1008B00001F0026A036A0AC1E6FF0BC1E6FF02C04B
:1008C000E6FF03C0E6FF060EE66EE66A36EC10F0C1
:1008D000046E060EE15E0450EF0EE66E3F0E8FD002
:1008E00001010C510101F25D01010D510101F359AA
:1008F00027E2E80EE66E3F0EE66EE66AE66A0BEC6D
:1009000010F0E552E552E552E5520CC100F00DC180
:1009100001F0026A036A0CC1E6FF0DC1E6FF02C0E6
:10092000E6FF03C0E6FF060EE66EE66A36EC10F060
:10093000046E060EE15E0450DF0EE66E3F0E5FD0E1
:1009400001010E510101F45D01010F510101F55941
:1009500027E2D80EE66E3F0EE66EE66AE66A0BEC1C
:1009600010F0E552E552E552E5520EC100F00FC11C
:1009700001F0026A036A0EC1E6FF0FC1E6FF02C082
:10098000E6FF03C0E6FF060EE66EE66A36EC10F000
:10099000046E060EE15E0450CF0EE66E3F0E2FD0C1
:1009A000010110510101F65D010111510101F759D9
:1009B0002BE2070EE66E400EE66EE66AE66A0BEC88
:1009C00010F0E552E552E552E55210C100F011C1B8
:1009D00001F0026A036A10C1E6FF11C1E6FF02C01E
:1009E000E6FF03C0E6FF060EE66EE66A36EC10F0A0
:1009F000046E060EE15E0450C50EE66E3F0EE66E16
:100A0000E66A010EE66E06D0B60EE66E3F0EE66EA4
:100A1000E66AE66A0BEC10F0E552E552E552E55263
:100A200012000F010A510B1104E11251131101E1DF
:100A3000010C000C010E0101C425C46F000EC5217C
:100A4000C56F0A0E256E266AC4C120F0C5C121F00B
:100A500004EC23F01CC0C4F11DC0C5F1050E01015A
:100A6000C5AF02D0D89003D0C45D000EC55910E2C6
:100A7000D8DF00090DE0B30EE66E3F0EE66E040E01
:100A8000E66EE66A0BEC10F0E552E552E552E552EF
:100A90000F01000ED8800055000E015511E30A0E1B
:100AA000005D000E015923E300CF00F001CF01F0FB
:100AB0000001016A010E0016001819E1015017E14A
:100AC0000101FA29FA6F170EE76EFA19E8AE02D0A3
:100AD000FA3503D0E750D880FA5501E2FA6BFAC133
:100AE000E6FF020EE66EC2EC21F0E552E5520F0180
:100AF000000ED8800255000E035511E30A0E025D68
:100B0000000E03591BE302CF00F003CF01F00001F8
:100B1000016A010E0016001811E101500FE10101F8
:100B2000FA05FA6FE83402E3170EFA6FFAC1E6FF2E
:100B3000020EE66EC2EC21F0E552E5521200010E03
:100B40000101C425C46F000EC521C56F0A0E256EB4
:100B5000266AC4C120F0C5C121F004EC23F01CC0FA
:100B6000C4F11DC0C5F1050E0101C5AF02D0D8907A
:100B700003D0C45D000EC55910E253DF00090DE03B
:100B8000B30EE66E3F0EE66E070EE66EE66A0BECFF
:100B900010F0E552E552E552E5520F01000ED88003
:100BA0000055000E015511E30A0E005D000E0159BB
:100BB00023E300CF00F001CF01F00001016A010E34
:100BC0000016001819E1015017E10101F929F96F28
:100BD0003B0EE76EF919E8AE02D0F93503D0E750C5
:100BE000D880F95501E2F96BF9C1E6FF010EE66E16
:100BF000C2EC21F0E552E5520F01000ED8800255FB
:100C0000000E035511E30A0E025D000E03591BE3AB
:100C100002CF00F003CF01F00001016A010E0016BF
:100C2000001811E101500FE10101F905F96FE834F5
:100C300002E33B0EF96FF9C1E6FF010EE66EC2EC6E
:100C400021F0E552E5521200010E0101C425C46FE6
:100C5000000EC521C56F0A0E256E266AC4C120F09C
:100C6000C5C121F004EC23F01CC0C4F11DC0C5F1C6
:100C7000050E0101C5AF02D0D89003D0C45D000EAF
:100C8000C5590FE2CEDE00090CE0B30EE66E3F0E52
:100C9000E66EE66AE66A0BEC10F0E552E552E552C4
:100CA000E5520F01000ED8800055000E015511E3EA
:100CB0000A0E005D000E015924E300CF00F001CFC1
:100CC00001F00001016A010E001600181AE101503E
:100CD00018E10101FB29FB6F070EE76EFB19E8AE77
:100CE00002D0FB3503D0E750D880FB5502E2010E5D
:100CF000FB6FFBC1E6FF030EE66EC2EC21F0E5528E
:100D0000E5520F01000ED8800255000E035511E385
:100D10000A0E025D000E035923E302CF00F003CF59
:100D200001F00001016A010E0016001819E10150DE
:100D300017E10101FB05FB6F010EE76EFB19E8AE41
:100D400002D0E73402D0E750FB5D02E2070EFB6FF2
:100D5000FBC1E6FF030EE66EC2EC21F0E552E55260
:100D60001200010E0101C425C46F000EC521C56F1C
:100D70000A0E256E266AC4C120F0C5C121F004EC1C
:100D800023F01CC0C4F11DC0C5F1050E0101C5AFA3
:100D900002D0D89003D0C45D000EC55911E241DEE7
:100DA00000090EE0B30EE66E3F0EE66E060EE66E2E
:100DB000010EE66E0BEC10F0E552E552E552E552FD
:100DC0000F01000ED8800055000E015511E30A0EE8
:100DD000005D000E015924E300CF00F001CF01F0C7
:100DE0000001016A010E001600181AE1015018E115
:100DF0000101FC29FC6F1F0EE76EFC19E8AE02D062
:100E0000FC3503D0E750D880FC5502E2010EFC6FA0
:100E1000FCC1E6FF040EE66EC2EC21F0E552E5529D
:100E20000F01000ED8800255000E035511E30A0E83
:100E3000025D000E035923E302CF00F003CF01F05F
:100E40000001016A010E0016001819E1015017E1B6
:100E50000101FC05FC6F010EE76EFC19E8AE02D043
:100E6000E73402D0E750FC5D02E21F0EFC6FFCC1CC
:100E7000E6FF040EE66EC2EC21F0E552E5521200E8
:100E8000010E0101C425C46F000EC521C56F0A0EF5
:100E9000256E266AC4C120F0C5C121F004EC23F000
:100EA0001CC0C4F11DC0C5F1050E0101C5AF02D0C3
:100EB000D89003D0C45D000EC55911E2B2DD00091F
:100EC0000EE0B30EE66E3F0EE66E020EE66E010E0B
:100ED000E66E0BEC10F0E552E552E552E5520F01DB
:100EE000000ED8800055000E015511E30A0E005D7A
:100EF000000E015924E300CF00F001CF01F0000102
:100F0000016A010E001600181AE1015018E10101F2
:100F1000FD29FD6F0C0EE76EFD19E8AE02D0FD3520
:100F200003D0E750D880FD5502E2010EFD6FFDC1F0
:100F3000E6FF050EE66EC2EC21F0E552E5520F0128
:100F4000000ED8800255000E035511E30A0E025D13
:100F5000000E035923E302CF00F003CF01F000019C
:100F6000016A010E0016001819E1015017E1010194
:100F7000FD05FD6F010EE76EFD19E8AE02D0E73406
:100F800002D0E750FD5D02E20C0EFD6FFDC1E6FFF1
:100F9000050EE66EC2EC21F0E552E5521200010E9C
:100FA0000101C425C46F000EC521C56F0A0E256E50
:100FB000266AC4C120F0C5C121F004EC23F01CC096
:100FC000C4F11DC0C5F1050E0101C5AF02D0D89016
:100FD00003D0C45D000EC55911E223DD00090EE007
:100FE000B30EE66E3F0EE66E0B0EE66E010EE66E7B
:100FF0000BEC10F0E552E552E552E5520F01000E00
:10100000D8800055000E015511E30A0E005D000E58
:10101000015923E300CF00F001CF01F00001016A84
:10102000010E0016001819E1015017E10101FE2917
:10103000FE6F630EE76EFE19E8AE02D0FE3503D0F8
:10104000E750D880FE5501E2FE6BFEC1E6FF060EBA
:10105000E66EC2EC21F0E552E5520F01000ED88099
:101060000255000E035511E30A0E025D000E0359EE
:101070001BE302CF00F003CF01F00001016A010E73
:101080000016001811E101500FE10101FE05FE6F8D
:10109000E83402E3630EFE6FFEC1E6FF060EE66E65
:1010A000C2EC21F0E552E552120096EC0DF0C3ECD3
:1010B00023F0110E0101C21901E1C35101E1ABD0CE
:1010C000100EC21901E1C35101E18BD00F0EC219FC
:1010D00001E1C3516CE00E0EC21901E1C3514DE0B4
:1010E0000D0EC21901E1C3512DE00C0EC21901E130
:1010F000C3510CE0C25101E1C35101E0120040ECC8
:1011000000F00C0E0101C26FC36B120040EC00F046
:1011100091DC0F010A0E045D000E055901E295D025
:1011200004CF00F005CF01F00001016A010E0016A6
:10113000001807E1015001E088D00D0E0101C26FD7
:10114000C36B120040EC00F0FADC0F010A0E045DE4
:10115000000E055901E279D004CF00F005CF01F06F
:101160000001016A010E0016001806E101506DE150
:101170000E0E0101C26FC36B120040EC00F064DD83
:101180000F010A0E045D000E05595FE304CF00F065
:1011900005CF01F00001016A010E0016001806E1FA
:1011A000015053E10F0E0101C26FC36B1200D9DD74
:1011B00040EC00F00F010A0E045D000E055945E3F6
:1011C00004CF00F005CF01F00001016A010E001606
:1011D000001806E1015039E1100E0101C26FC36B26
:1011E00012004EDE40EC00F00F010A0E045D000E0E
:1011F00005592BE304CF00F005CF01F00001016A8F
:10120000010E0016001806E101501FE1110E010148
:10121000C26FC36B1200C3DE40EC00F00F010A0E78
:10122000045D000E055911E304CF00F005CF01F075
:101230000001016A010E0016001806E1015005E1E7
:0C1240000C0E0101C26FC36B1200120003
:04124C00D9CFE6FF11
:10125000E1CFD9FF040EE126DE6ADD6ADECF00F0C1
:10126000DDCF01F0026A036A01AE02D002680368B2
:10127000D950FB0FE96EFF0EDA20EA6EEE50005CEB
:10128000EE500158EE500258EE5003581DE2020E87
:10129000DB6A030EDB6A020EDBCF00F0030EDBCF4E
:1012A00001F0D890015004E6050E005C000E0158D4
:1012B00006E2020EDB2A030EEEE3DB2AECD7DF2A7E
:1012C000010ECCE3DB2ACAD7040EE15C02E2E16A3C
:1012D000E552E16EE552E7CFD9FF1200D9CFE6FF24
:1012E000E1CFD9FF040EE126DE6ADD6ADECF00F031
:1012F000DDCF01F0026A036A01AE02D00268036822
:10130000D950FB0FE96EFF0EDA20EA6EEE50005C5A
:10131000EE500158EE500258EE5003581DE2020EF6
:10132000DB6A030EDB6A020EDBCF00F0030EDBCFBD
:1013300001F0D890015004E6EE0E005C000E01585A
:1013400006E2020EDB2A030EEEE3DB2AECD7DF2AED
:10135000010ECCE3DB2ACAD7040EE15C02E2E16AAB
:10136000E552E16EE552E7CFD9FF1200D9CFE6FF93
:10137000E1CFD9FF0F0E8116FE0EDB50F00B81126C
:101380008186010EE66EE66AE66AE66AA7DFE55246
:10139000E552E552E5528196010EE66EE66AE66A8E
:1013A000E66A9CDFE552E552E552E5520F0E8116E2
:1013B000FE0EDB38F00B81128186010EE66EE66AC6
:1013C000E66AE66A8BDFE552E552E552E552819620
:1013D000010EE66EE66AE66AE66A80DFE552E552ED
:1013E000E552E552E552E7CFD9FF1200D9CFE6FF2B
:1013F000E1CFD9FFE652190EE66EE66AE66AE66AC2
:101400006DDFE552E552E552E5520F0E8116F80EFA
:1014100081160F0E8116300E81128186010EE66E46
:10142000E66AE66AE66A5ADFE552E552E552E552B7
:101430008196010EE66EE66AE66AE66A4FDFE552DD
:10144000E552E552E5520F0E8116300E811281866B
:10145000010EE66EE66AE66AE66A40DFE552E552AC
:10146000E552E5528196010EE66EE66AE66AE66AA4
:1014700035DFE552E552E552E5520F0E8116300E8A
:1014800081128186010EE66EE66AE66AE66A26DF6A
:10149000E552E552E552E5528196010EE66EE66AA6
:1014A000E66AE66A1BDFE552E552E552E5520F0EA9
:1014B0008116818A8186010EE66EE66AE66AE66A30
:1014C0000DDFE552E552E552E5528196010EE66EDA
:1014D000E66AE66AE66A02DFE552E552E552E5525F
:1014E000280EE66E43DFE5520C0EE66E3FDFE55256
:1014F000E552E552E7CFD9FF1200D9CFE6FFE1CFA1
:10150000D9FF020EE126DF6A010EDB6A81940F0E1D
:10151000E66EE66AE66AE66A99DEE552E552E5526B
:10152000E5520F0E81128186E66EE66AE66AE66A89
:101530008DDEE552E552E552E5520F0E8114E76E5D
:10154000010EE7CFDBFF81960F0EE66EE66AE66AD4
:10155000E66A7CDEE552E552E552E5520F0E811255
:101560008186E66EE66AE66AE66A70DEE552E55274
:10157000E552E5520F0E8114DF6E010EDB50DF12D3
:101580008196010EE66EE66AE66AE66A5FDEE5527D
:10159000E552E552E552DF50006E020EE15C02E2D8
:1015A000E16AE552E16E0050E552E7CFD9FF120043
:1015B000D9CFE6FFE1CFD9FFE652DF6A9EDFDF6ECB
:1015C000DFBEFCD7DF50E552E552E7CFD9FF12006E
:1015D000D9CFE6FFE1CFD9FF0F0E8116FE0EDB500B
:1015E00081128186050EE66EE66AE66AE66A2EDEFE
:1015F000E552E552E552E5528196050EE66EE66A41
:10160000E66AE66A23DEE552E552E552E552E55226
:10161000E7CFD9FF1200D9CFE6FFE1CFD9FF819400
:10162000050EE66EE66AE66AE66A10DEE552E55207
:10163000E552E552FE0EDBCFE6FFCADFE552FE0EB5
:10164000DB38F00BE66EC4DFE552E552E7CFD9FF99
:101650001200D9CFE6FFE1CFD9FF8184050EE66EF7
:10166000E66AE66AE66AF2DDE552E552E552E552DF
:10167000FE0EDBCFE6FFACDFE552FE0EDB38F00BF3
:10168000E66EA6DFE5528194E552E7CFD9FF12005E
:10169000D9CFE6FFE1CFD9FFFE0EDBCFE6FFD9DFE2
:1016A000E552E552E7CFD9FF1200D9CFE6FFE1CFEF
:1016B000D9FFFE0EDBCFE6FFCCDFE552E552E7CFE8
:1016C000D9FF1200D9CFE6FFE1CFD9FFFD0EDBCF66
:1016D000F6FFFE0EDBCFF7FF0800F5500FE0FD0E22
:1016E000DBCFF6FFDB2AFE0EDBCFF7FF01E3DB2AC1
:1016F0000800F550E66ED9DFE552E8D7E552E7CFAE
:10170000D9FF1200D9CFE6FFE1CFD9FFE652FD0E97
:10171000DB500F0B006EFE0EDB50010B400DF35043
:101720000024DF6E7F0EDF14800FDF6EDFCFE6FF59
:1017300072DFE552E552E552E7CFD9FF1200010E04
:10174000E66E69DFE552E66AE66ADCDFE552E552FD
:101750001200D9CFE6FFE1CFD9FF050EE126010E39
:10176000F36EDB6E020EDB6A030EDB6A040EDB6ACD
:10177000DF6ADFCF00F0016A00BE0168FB0EDBCF3D
:1017800002F0FC0EDBCF03F001500318E8AE02D0EC
:10179000033404D00250005C035001582DE2FD0ECA
:1017A000DBCF00F0FE0EDBCF01F0026A036A01AE70
:1017B00002D002680368D950010FE96EDACFEAFF60
:1017C00000C023F001C024F002C025F003C026F0C1
:1017D000EECF1EF0EECF1FF0EECF20F0EFCF21F0D6
:1017E00089EC24F01DC0EDFF1CC0EDFF1BC0EDFF18
:1017F0001AC0EFFFDF2ABDD7010EDBCF00F0020ECB
:10180000DBCF01F0030EDBCF02F0040EDBCF03F0E1
:1018100000C01EF001C01FF002C020F003C021F084
:10182000050EE15C02E2E16AE552E16EE552E7CFC6
:10183000D9FF1200D9CFE6FFE1CFD9FF020EE12692
:10184000DF6AFB0EDBCF00F0FC0EDBCF01F0FD0EFC
:10185000DBCF02F0FE0EDBCF03F0005001100210D0
:10186000031005E1300EE66E20DFE552F4D0D950CA
:10187000FB0FE96EFF0EDA20EA6ED890030EEB50F4
:10188000000A08E6000EEE5C000EEE58000EEE5860
:10189000000EEE5815E22D0EE66E07DFE552D95028
:1018A000FB0FE96EFF0EDA20EA6E000EEE6CEF1E03
:1018B000EE22EF1EEE22EF1EEF22ED52ED52ED5220
:1018C000DE52070EDD6E010EDBCF00F0000EE76E7C
:1018D0000018E8AE02D0003403D0E750D88000549E
:1018E00001E3B9D0010EDB04046E056A04BE05688D
:1018F00004C0E6FF05C0E6FF0A0EE66EE66A29DFD1
:10190000E552E552E552E5521EC000F01FC001F05D
:1019100020C002F021C003F01EC023F01FC024F03D
:1019200020C025F021C026F0FB0EDBCF1EF0FC0E00
:10193000DBCF1FF0FD0EDBCF20F0FE0EDBCF21F062
:10194000C1EC24F01E501F102010211041E0010EA8
:10195000DF6EDB04086E096A08BE096808C0E6FF8E
:1019600009C0E6FF0A0EE66EE66AF3DEE552E552CE
:10197000E552E5521EC004F01FC005F020C006F07D
:1019800021C007F01EC023F01FC024F020C025F0A6
:1019900021C026F0FB0EDBCF1EF0FC0EDBCF1FF0CC
:1019A000FD0EDBCF20F0FE0EDBCF21F0C1EC24F0EA
:1019B0001EC000F01FC001F020C002F021C003F0E3
:1019C000300E0026000E012202220322005003D016
:1019D000DF5004E0300EE66E68DEE552010EDB04F7
:1019E000046E056A04BE056804C0E6FF05C0E6FF94
:1019F0000A0EE66EE66AADDEE552E552E552E552C4
:101A00001EC000F01FC001F020C002F021C003F092
:101A1000D950FB0FE96EFF0EDA20EA6E1EC023F0EC
:101A20001FC024F020C025F021C026F0EECF1EF00C
:101A3000EECF1FF0EECF20F0EFCF21F0C1EC24F07D
:101A40001DC0EDFF1CC0EDFF1BC0EDFF1AC0EFFF76
:101A5000010EDB0638D7020EE15C02E2E16AE552D4
:101A6000E16EE552E7CFD9FF1200D9CFE6FFE1CF13
:101A7000D9FFFD0EDBCFE6FFFE0EDBCFE6FF42DE39
:101A8000E552E552D950F90FE96EFF0EDA20EA6E01
:101A9000EECFE6FFEECFE6FFEECFE6FFEFCFE6FFBD
:101AA000C9DEE552E552E552E552E552E7CFD9FFEE
:101AB0001200D9CFE6FFE1CFD9FFFD0EDBCFE6FF65
:101AC000FE0EDBCFE6FF1EDEE552E552FB0EDBCF5E
:101AD000E6FFFC0EDBCFE6FFF5DDE552E552E55211
:101AE000E7CFD9FF1200D9CFE6FFE1CFD9FFFBC086
:101AF00000F0FCC001F0040ED89000360136E80674
:101B0000FBE1C10E0026000E012200500001FD2560
:101B1000E96E0150FE21EA6EFE0EDBCFEFFFFD2BDA
:101B2000000EFE23E552E7CFD9FF1200D9CFE6FF22
:101B3000E1CFD9FFE652DF6ADFCF00F0100EE76E8B
:101B40000018E8AE02D0E73402D0E750005C18E29B
:101B5000DFCFE9FFEA6AE9BEEA68C10EE926000EB6
:101B6000EA22200EEF6EDFCFE9FFEA6AE9BEEA68FB
:101B7000D10EE926000EEA22200EEF6EDF2ADCD716
:101B8000E552E552E7CFD9FF1200D9CFE6FFE1CF0A
:101B9000D9FFE6520001C051030A52E0010A36E0C3
:101BA000030A1AE0010A67E1E66AE66AABDDE5527C
:101BB000E552DF6A080EDF5C0CE2DF50EA6AC10F13
:101BC000E96E000EEA22EF50E66E6FDDE552DF2A85
:101BD000F1D70001010E32D0080EE66EE66A92DD02
:101BE000E552E552DF6A080EDF5C0DE2080EDF24E5
:101BF000EA6AC10FE96E000EEA22EF50E66E55DD8B
:101C0000E552DF2AF0D70001020E18D0E66A010E75
:101C1000E66E78DDE552E552DF6A080EDF5C0CE225
:101C2000DF50EA6AD10FE96E000EEA22EF50E66E4D
:101C30003CDDE552DF2AF1D70001030EC06F1CD056
:101C4000080EE66E010EE66E5DDDE552E552DF6AD6
:101C5000080EDF5C0DE2080EDF24EA6AD10FE96EA0
:101C6000000EEA22EF50E66E20DDE552DF2AF0D7C3
:101C70000001C06B01D0C06BE552E552E7CFD9FF40
:101C80001200D9CFE6FFE1CFD9FFE6520001C051E3
:101C9000010A1BE0010A32E1E66AE66A33DDE55239
:101CA000E552DF6A100EDF5C0CE2DF50EA6AC10F1A
:101CB000E96E000EEA22EF50E66EF7DCE552DF2A0D
:101CC000F1D70001010EC06F1AD0E66A010EE66E70
:101CD00019DDE552E552DF6A100EDF5C0CE2DF50E1
:101CE000EA6AD10FE96E000EEA22EF50E66EDDDC03
:101CF000E552DF2AF1D70001C06B01D0C06BE5527D
:101D0000E552E7CFD9FF1200D9CFE6FFE1CFD9FFE7
:101D1000E652E66AE66AF6DCE552E552DF6A100E44
:101D2000DF5C0CE2DF50EA6AC10FE96E000EEA22C6
:101D3000EF50E66EBADCE552DF2AF1D7E66A010E13
:101D4000E66EE0DCE552E552DF6A100EDF5C0CE285
:101D5000DF50EA6AD10FE96E000EEA22EF50E66E1C
:101D6000A4DCE552DF2AF1D7E552E552E7CFD9FFEF
:101D70001200D9CFE6FFE1CFD9FFFE0EDB50010BF9
:101D80000001FB6FFC6BFD0EDB500F0BFD6FFE6B5C
:101D9000FBC000F0FCC001F0040ED8900036013604
:101DA000E806FBE1C10E0026000E012200500001F2
:101DB000FD25E96E0150FE21EA6EFC0EDBCFEFFF40
:101DC000E552E7CFD9FF1200D9CFE6FFE1CFD9FF27
:101DD000020EE126DF6AFE0EDB50010B0001FB6FF5
:101DE000FC6BFD0EDB500F0BFD6FFE6BF90EDBCFB6
:101DF00000F0FA0EDBCF01F0FB0EDBCF02F0FC0EA1
:101E0000DBCF03F0005001100210031005E1300E8B
:101E1000E66E69DEE552F5D0D950F90FE96EFF0E96
:101E2000DA20EA6ED890030EEB50000A08E6000EA6
:101E3000EE5C000EEE58000EEE58000EEE5815E265
:101E40002D0EE66E50DEE552D950F90FE96EFF0E09
:101E5000DA20EA6E000EEE6CEF1EEE22EF1EEE228E
:101E6000EF1EEF22ED52ED52ED52DE52070EDD6E07
:101E7000010EDBCF00F0000EE76E0018E8AE02D0D6
:101E8000003403D0E750D880005401E3BAD0010EEB
:101E9000DB04046E056A04BE056804C0E6FF05C0E5
:101EA000E6FF0A0EE66EE66A54DCE552E552E552BC
:101EB000E5521EC000F01FC001F020C002F021C09A
:101EC00003F01EC023F01FC024F020C025F021C065
:101ED00026F0F90EDBCF1EF0FA0EDBCF1FF0FB0E63
:101EE000DBCF20F0FC0EDBCF21F0C1EC24F01E5044
:101EF0001F102010211041E0010EDF6EDB04086E80
:101F0000096A08BE096808C0E6FF09C0E6FF0A0EB4
:101F1000E66EE66A1EDCE552E552E552E5521EC069
:101F200004F01FC005F020C006F021C007F01EC05D
:101F300023F01FC024F020C025F021C026F0F90EA8
:101F4000DBCF1EF0FA0EDBCF1FF0FB0EDBCF20F055
:101F5000FC0EDBCF21F0C1EC24F01EC000F01FC04E
:101F600001F020C002F021C003F0300E0026000E68
:101F7000012202220322005003D0DF5004E0300E81
:101F8000E66EB1DDE552010EDB04046E056A04BEA7
:101F9000056804C0E6FF05C0E6FF0A0EE66EE66AC5
:101FA000A9EC0BF0E552E552E552E5521EC000F0F7
:101FB0001FC001F020C002F021C003F0D950F90F7A
:101FC000E96EFF0EDA20EA6E1EC023F01FC024F077
:101FD00020C025F021C026F0EECF1EF0EECF1FF07E
:101FE000EECF20F0EFCF21F0C1EC24F01DC0EDFFCB
:101FF0001CC0EDFF1BC0EDFF1AC0EFFF010EDB069A
:1020000037D7020EE15C02E2E16AE552E16EE55289
:10201000E7CFD9FF1200D9CFE6FFE1CFD9FFFE0EFF
:10202000DB50010B0001FB6FFC6BFD0EDB500F0B57
:10203000FD6FFE6BFB0EDBCFF6FFFC0EDBCFF7FF79
:102040000800F5500FE0FB0EDBCFF6FFDB2AFC0E9D
:10205000DBCFF7FF01E3DB2A0800F550E66E43DD36
:10206000E552E8D7E552E7CFD9FF1200D9CFE6FF16
:10207000E1CFD9FF050EE126D9CFE9FFDACFEAFF9C
:10208000F90EDBCFEEFFFA0EDBCFEEFFFB0EDBCF60
:10209000EEFFFC0EDBCFEEFFD9CFE9FFDACFEAFF90
:1020A000EECF00F0EECF01F0EECF02F0EFCF03F075
:1020B000E80E236E030E246E256A266A00C01EF009
:1020C00001C01FF002C020F003C021F057EC23F044
:1020D0001EC000F01FC001F020C002F021C003F0BC
:1020E0001EC0E6FF1FC0E6FF20C0E6FF21C0E6FFDE
:1020F000FD0EDBCFE6FFFE0EDBCFE6FF65DE046EF6
:10210000060EE15E0450D9CFE9FFDACFEAFFEECF49
:102110001EF0EECF1FF0EECF20F0EFCF21F0E80E53
:10212000236E030E246E256A266A57EC23F01AC02C
:10213000DEFF1BC0DEFF1CC0DEFF1DC0DDFFDD5269
:10214000DD52D9CFE9FFDACFEAFFEECF00F0EECFD4
:1021500001F0EECF02F0EFCF03F0640E236E246A9D
:10216000256A266A00C01EF001C01FF002C020F0E0
:1021700003C021F057EC23F01EC000F01FC001F097
:1021800020C002F021C003F01EC0E6FF1FC0E6FF22
:1021900020C0E6FF21C0E6FFFD0EDB28E66EFE0E46
:1021A000DBCFE6FF11DE046E060EE15E0450D9CFF0
:1021B000E9FFDACFEAFFEECF1EF0EECF1FF0EECF51
:1021C00020F0EFCF21F0640E236E246A256A266A80
:1021D00057EC23F01AC0DEFF1BC0DEFF1CC0DEFF81
:1021E0001DC0DDFFDD52DD52480EE66E3F0EE66E8D
:1021F000FD0EDB50020FE66EFE0EDBCFE6FF0BDFBF
:10220000E552E552E552E552D9CFE9FFDACFEAFFD0
:10221000EECF00F0EECF01F0EECF02F0EFCF03F003
:102220000A0E236E246A256A266A00C01EF001C0C9
:102230001FF002C020F003C021F057EC23F01EC0B5
:1022400000F01FC001F020C002F021C003F01EC04A
:10225000E6FF1FC0E6FF20C0E6FF21C0E6FFFD0E3F
:10226000DB50030FE66EFE0EDBCFE6FFADDD046E46
:10227000060EE15E0450D9CFE9FFDACFEAFFEECFD8
:102280001EF0EECF1FF0EECF20F0EFCF21F0E80EE2
:10229000236E030E246E256A266A57EC23F01AC0BB
:1022A000DEFF1BC0DEFF1CC0DEFF1DC0DDFFDD52F8
:1022B000DD52D9CFE9FFDACFEAFFEECF00F0EECF63
:1022C00001F0EECF02F0EFCF03F00A0E236E246A86
:1022D000256A266A00C01EF001C01FF002C020F06F
:1022E00003C021F057EC23F01AC000F01BC001F02E
:1022F0001CC002F01DC003F01AC0E6FF1BC0E6FFC1
:102300001CC0E6FF1DC0E6FFFD0EDB50040FE66EAD
:10231000FE0EDBCFE6FF58DD046E060EE15E0450D4
:10232000050EE15C02E2E16AE552E16EE552E7CFBB
:04233000D9FF1200BF
:0C233400D9CFE6FFE1CFD9FF020EE12671
:10234000DE6ADD6A66D82CEC21F09FEC0BF096EC8F
:102350000DF0000EE66EE66A9ED8E552E552E80EF4
:10236000E66E030EE66E11D8E552E5528BEC23F0D3
:102370000F013351FDE0336B90EC1BF0C9EC1DF005
:1023800066D9CDD9C5EC0DF0F3D7D9CFE6FFE1CFB3
:10239000D9FF040EE126DE6ADD6ADECF00F0DDCF74
:1023A00001F0FD0EDBCF02F0FE0EDBCF03F001509B
:1023B0000318E8AE02D0033404D00250005C03508E
:1023C00001581DE2020EDB6A030EDB6A020EDBCF50
:1023D00000F0030EDBCF01F0D890015004E6EE0EC2
:1023E000005C000E015806E2020EDB2A030EEEE34B
:1023F000DB2AECD7DF2A010ED0E3DB2ACED7040E8E
:10240000E15C02E2E16AE552E16EE552E7CFD9FF15
:102410001200936A926AF6EC09F0956A836A02ECFC
:1024200022F0E80EE66E030EE66EAFDFE552E552EF
:10243000570EE66E120EE66EF9EC18F0E552E55214
:10244000AE0EE66E240EE66E9BEC19F0E552E552F8
:10245000660EE66EB70EE66E5CEC1AF0E552E552DB
:10246000020EE66EE66A37EC1BF0E552E5520A0E04
:10247000E66EE66A49EC1BF0E552E552320EE66E76
:10248000E66A68EC1BF0E552E5528BEC1BF02BEC96
:1024900016F043EF24F0D9CFE6FFE1CFD9FFFE0ECF
:1024A000DBCF01F0800E01141AE1FD0EDBCF02F04C
:1024B000FE0EDBCF03F0033404E202500708000EE7
:1024C00003540DE3FD0EDBCFE9FFFE0EDBCFEAFF89
:1024D000480EE9260F0EEA22EF508310836EE55274
:1024E000E7CFD9FF1200D9CFE6FFE1CFD9FFFE0E2B
:1024F000DBCF01F0800E01141AE1FD0EDBCF02F0FC
:10250000FE0EDBCF03F0033404E202500708000E96
:1025100003540DE3FD0EDBCFE9FFFE0EDBCFEAFF38
:10252000480EE9260F0EEA22EF1C8314836EE55253
:10253000E7CFD9FF1200D9CFE6FFE1CFD9FFFD0EDB
:10254000DBCFE9FFFE0EDBCFEAFF500EE9260F0ED0
:10255000EA22EF0415E1FD0EDBCFE6FFFE0EDBCF36
:10256000E6FFC1DFE552E552FD0EDBCFE9FFFE0ECF
:10257000DBCFEAFF500EE9260F0EEA22EF6A15D0F4
:10258000FD0EDBCFE6FFFE0EDBCFE6FF84DFE5527C
:10259000E552FD0EDBCFE9FFFE0EDBCFEAFF500E6A
:1025A000E9260F0EEA22010EEF6EE552E7CFD9FFC2
:1025B0001200D9CFE6FFE1CFD9FF020EE126DE6A95
:1025C000DD6ADECF00F0DDCF01F0013404E200501F
:1025D0000708000E015421E3DECFE6FFDDCFE6FF62
:1025E0005ADFE552E552F40EE66E010EE66ECDDEE0
:1025F000E552E552DECFE6FFDDCFE6FF74DFE552C0
:10260000E552F40EE66E010EE66EBFDEE552E552CF
:10261000DF2A010ED6E3DB2AD4D7020EE15C02E208
:10262000E16AE552E16EE552E7CFD9FF12000F01F2
:10263000010E021903E1035101E1010C000C0F012D
:10264000010E001903E1015101E1010C000CD9CF89
:10265000E6FFE1CFD9FF020EE126DE6ADD6ADECFBA
:1026600000F0DDCF01F0D890015004E6070E005CC9
:10267000000E01584AE2E66A4AEC24F0E552F3CF34
:1026800000F0F4CF01F0026A036A01AE02D00268E2
:102690000368DECFE9FFDDCFEAFFD890E936EA36FE
:1026A000D890E936EA36920EE926010EEA2200C0F9
:1026B000EEFF01C0EEFF02C0EEFF03C0EEFFDECF73
:1026C000E9FFDDCFEAFFD890E936EA36D890E9365F
:1026D000EA36920EE926010EEA22EECF00F0EFCFA5
:1026E00001F0DECFE9FFDDCFEAFFD890E936EA3628
:1026F000E10EE926000EEA2200C0EEFF01C0EDFF68
:10270000DF2A010EACE3DB2AAAD7020EE15C02E26B
:10271000E16AE552E16EE552E7CFD9FF1200D9CF69
:10272000E6FFE1CFD9FF040EE126010E01010025ED
:10273000006F000E0121016F280E256E266A00C170
:1027400020F001C121F002EC25F01CC000F11DC0F9
:1027500001F101011C501D1001E064D2C6C100F05E
:10276000C7C101F0026A036A0101C6510101DC5DC3
:102770000C6EDD510101C7550D6E0E6A0F6AE1C086
:1027800008F0E2C009F00A6A0B6AE1C01EF0E2C07C
:102790001FF00AC020F00BC021F00CC023F0246E03
:1027A0000EC025F00FC026F089EC24F01AC004F00A
:1027B0001BC005F01CC006F01DC007F02368030E07
:1027C000246E256A266A1AC01EF01BC01FF01CC0AA
:1027D00020F01DC021F057EC23F01EC004F01FC0F4
:1027E00005F020C006F021C007F01E5000261F5043
:1027F0000122205002222150032200C004F101C016
:1028000005F1E3C01EF0E4C01FF0206A216A100E3B
:10281000236E270E246E256A266A89EC24F01AC0DE
:102820001EF01BC01FF01CC020F01DC021F023684B
:10283000030E246E256A266A57EC23F01EC006F1AB
:102840001FC007F1E5C01EF0E6C01FF0206A216A34
:10285000D00E236E070E246E256A266A89EC24F0BA
:102860001AC01EF01BC01FF01CC020F01DC021F0BC
:102870002368030E246E256A266A57EC23F01EC0D7
:1028800008F11FC009F1E7C000F0E8C001F0026ADA
:10289000036AA00E236E0F0E246E256A266AE7C017
:1028A0001EF0E8C01FF002C020F003C021F089EC48
:1028B00024F01AC000F01BC001F01CC002F01DC0C3
:1028C00003F02368030E246E256A266A1AC01EF0E0
:1028D0001BC01FF01CC020F01DC021F057EC23F0DE
:1028E0001EC000F01FC001F020C002F021C003F0A4
:1028F000E80E0026030E0122000E0222032200C071
:102900000AF101C00BF1E9C000F0EAC001F0026A6F
:10291000036A400E236E1F0E246E256A266AE9C0E4
:102920001EF0EAC01FF002C020F003C021F089ECC5
:1029300024F01AC000F01BC001F01CC002F01DC042
:1029400003F02368030E246E256A266A1AC01EF05F
:102950001BC01FF01CC020F01DC021F057EC23F05D
:102960001EC000F01FC001F020C002F021C003F023
:10297000D00E0026070E0122000E0222032200C004
:102980000CF101C00DF1D4C104F0D5C105F0066A07
:10299000076A0101D6510101DA5D146EDB510101B4
:1029A000D755156E166A176A0101D4510101D85D19
:1029B000106ED9510101D555116E126A136A0101C9
:1029C000D6510001EB5D0C6EEC510101D7550D6E37
:1029D0000E6A0F6A0CC01EF01F6E0EC020F00FC0F2
:1029E00021F010C023F011C024F012C025F013C054
:1029F00026F089EC24F01AC008F01BC009F01CC0B6
:102A00000AF01DC00BF01AC01EF01BC01FF01CC046
:102A100020F01DC021F014C023F015C024F016C012
:102A200025F017C026F057EC23F004501E24006E4A
:102A300005501F20016E06502020026E07502120F5
:102A4000036E00C00EF101C00FF1EDC01EF0EEC02C
:102A50001FF0206A216AA00E236E8C0E246E256A58
:102A6000266A89EC24F01AC01EF01BC01FF01CC09F
:102A700020F01DC021F02368030E246E256A266A0B
:102A800057EC23F01EC010F11FC011F19A0EE66E34
:102A90003F0EE66EACEC16F0E552E55204C100F0D4
:102AA00005C101F0026A036A04C1E6FF05C1E6FF41
:102AB00002C0E6FF03C0E6FF5EEC18F0E552E55207
:102AC000E552E552910EE66E3F0EE66EACEC16F066
:102AD000E552E55206C100F007C101F0026A036A3F
:102AE00006C1E6FF07C1E6FF02C0E6FF03C0E6FF3E
:102AF0005EEC18F0E552E552E552E552850EE66EC1
:102B00003F0EE66EACEC16F0E552E55208C100F05F
:102B100009C101F0026A036A08C1E6FF09C1E6FFC4
:102B200002C0E6FF03C0E6FF5EEC18F0E552E55296
:102B3000E552E552790EE66E3F0EE66EACEC16F00D
:102B4000E552E5520EC100F00FC101F0026A036ABE
:102B50000EC1E6FF0FC1E6FF02C0E6FF03C0E6FFBD
:102B60005EEC18F0E552E552E552E552700EE66E65
:102B70003F0EE66EACEC16F0E552E5520AC100F0ED
:102B80000BC101F0026A036A0AC1E6FF0BC1E6FF4E
:102B900002C0E6FF03C0E6FF5EEC18F0E552E55226
:102BA000E552E552640EE66E3F0EE66EACEC16F0B2
:102BB000E552E5520CC100F00DC101F0026A036A52
:102BC0000CC1E6FF0DC1E6FF02C0E6FF03C0E6FF51
:102BD0005EEC18F0E552E552E552E552570EE66E0E
:102BE0003F0EE66EACEC16F0E552E55210C100F077
:102BF00011C101F0026A036A10C1E6FF11C1E6FFCC
:102C000002C0E6FF03C0E6FF5EEC18F0E552E552B5
:102C1000E552E5524E0EE66E3F0EE66EACEC16F057
:102C2000E552E552040EE15C02E2E16AE552E16E32
:102C3000E552E7CFD9FF1200FADC000904E076C1C3
:102C4000D6F177C1D7F1FBDC000904E076C1DAF1F7
:062C500077C1DBF1120068
:0A2C5600B06A810EAF6EAC8AAC9438
:102C6000B886AC98AB8EAB889E9A9D8A9F9A949CAE
:102C7000948E1200D9CFE6FFE1CFD9FF040EE126F2
:102C8000DE6ADD6ADECF00F0DDCF01F0FD0EDBCFC6
:102C900002F0FE0EDBCF03F001500318E8AE02D0C5
:102CA000033404D00250005C035001581DE2020EB0
:102CB000DB6A030EDB6A020EDBCF00F0030EDBCF14
:102CC00001F0D890015004E6EE0E005C000E0158B1
:102CD00006E2020EDB2A030EEEE3DB2AECD7DF2A44
:102CE000010ED0E3DB2ACED7040EE15C02E2E16AFA
:102CF000E552E16EE552E7CFD9FF1200D9CFE6FFEA
:102D0000E1CFD9FF9EA8FED7FE0EDB50AD6E9E9898
:102D1000E552E7CFD9FF1200D9CFE6FFE1CFD9FFC7
:102D2000FD0EDBCFE9FFFE0EDBCFEAFFEF5010E038
:102D3000FD0EDBCFE9FFFE0EDBCFEAFFEF50E66EC4
:102D4000DDDFE552FD0EDB2AFE0EEAE3DB2AE8D7E3
:102D5000E552E7CFD9FF1200D9CFE6FFE1CFD9FF87
:102D6000FD0EDBCFF6FFFE0EDBCFF7FF0800F550C0
:102D700015E0FD0EDBCFF6FFFE0EDBCFF7FF080000
:102D8000F550E66EBBDFE552FD0EDBCFF6FFDB2A2A
:102D9000FE0EDBCFF7FFE4E3DB2AE2D7E552E7CF15
:102DA000D9FF1200D9CFE6FFE1CFD9FF050EE1260A
:102DB000010EF36EDB6E020EDB6A030EDB6A040E9D
:102DC000DB6ADF6ADFCF00F0016A00BE0168FB0E3C
:102DD000DBCF02F0FC0EDBCF03F001500318E8AEAE
:102DE00002D0033404D00250005C035001582DE29D
:102DF000FD0EDBCF00F0FE0EDBCF01F0026A036AAE
:102E000001AE02D002680368D950010FE96EDACF33
:102E1000EAFF00C023F001C024F002C025F003C087
:102E200026F0EECF1EF0EECF1FF0EECF20F0EFCF6A
:102E300021F089EC24F01DC0EDFF1CC0EDFF1BC08C
:102E4000EDFF1AC0EFFFDF2ABDD7010EDBCF00F088
:102E5000020EDBCF01F0030EDBCF02F0040EDBCF5E
:102E600003F000C01EF001C01FF002C020F003C03C
:102E700021F0050EE15C02E2E16AE552E16EE55205
:102E8000E7CFD9FF1200D9CFE6FFE1CFD9FF020E7D
:102E9000E126DF6AFB0EDBCF00F0FC0EDBCF01F09A
:102EA000FD0EDBCF02F0FE0EDBCF03F00050011071
:102EB0000210031005E1300EE66E20DFE552F4D07B
:102EC000D950FB0FE96EFF0EDA20EA6ED890030EA0
:102ED000EB50000A08E6000EEE5C000EEE58000E05
:102EE000EE58000EEE5815E22D0EE66E07DFE552A5
:102EF000D950FB0FE96EFF0EDA20EA6E000EEE6C81
:102F0000EF1EEE22EF1EEE22EF1EEF22ED52ED52EB
:102F1000ED52DE520A0EDD6E010EDBCF00F0000E28
:102F2000E76E0018E8AE02D0003403D0E750D88036
:102F3000005401E3B9D0010EDB04046E056A04BE3F
:102F4000056804C0E6FF05C0E6FF0A0EE66EE66A05
:102F500029DFE552E552E552E5521EC000F01FC0E0
:102F600001F020C002F021C003F01EC023F01FC0FA
:102F700024F020C025F021C026F0FB0EDBCF1EF090
:102F8000FC0EDBCF1FF0FD0EDBCF20F0FE0EDBCF03
:102F900021F0C1EC24F01E501F102010211041E040
:102FA000010EDF6EDB04086E096A08BE096808C0FE
:102FB000E6FF09C0E6FF0A0EE66EE66AF3DEE552BA
:102FC000E552E552E5521EC004F01FC005F020C0D6
:102FD00006F021C007F01EC023F01FC024F020C05F
:102FE00025F021C026F0FB0EDBCF1EF0FC0EDBCF60
:102FF0001FF0FD0EDBCF20F0FE0EDBCF21F0C1EC89
:1030000024F01EC000F01FC001F020C002F021C05B
:1030100003F0300E0026000E01220222032200508F
:1030200003D0DF5004E0300EE66E68DEE552010E9C
:10303000DB04046E056A04BE056804C0E6FF05C033
:10304000E6FF0A0EE66EE66AADDEE552E552E552AF
:10305000E5521EC000F01FC001F020C002F021C0E8
:1030600003F0D950FB0FE96EFF0EDA20EA6E1EC0A6
:1030700023F01FC024F020C025F021C026F0EECFA1
:103080001EF0EECF1FF0EECF20F0EFCF21F0C1EC1D
:1030900024F01DC0EDFF1CC0EDFF1BC0EDFF1AC0EA
:1030A000EFFF010EDB0638D7020EE15C02E2E16AB7
:1030B000E552E16EE552E7CFD9FF1200D9CFE6FF26
:1030C000E1CFD9FFFB0EDBCF00F0FC0EDBCF01F030
:1030D000FD0EDBCF02F0FE0EDBCF03F0640E236E9D
:1030E000246A256A266A00C01EF001C01FF002C0D3
:1030F00020F003C021F057EC23F01EC000F01FC0E9
:1031000001F020C002F021C003F01EC0E6FF1FC086
:10311000E6FF20C0E6FF21C0E6FFB5DEE552E5523E
:10312000E552E5522E0EE66EE9DDE552FB0EDBCFF1
:1031300000F0FC0EDBCF01F0FD0EDBCF02F0FE0E47
:10314000DBCF03F0640E236E246A256A266A00C072
:103150001EF001C01FF002C020F003C021F057ECA8
:1031600023F01AC000F01BC001F01CC002F01DC00B
:1031700003F01AC0E6FF1BC0E6FF1CC0E6FF1DC03F
:10318000E6FF81DEE552E552E552E552E552E7CF32
:10319000D9FF1200D9CFE6FFE1CFD9FFE652AE50FA
:1031A000DF6E4A0EE66E3F0EE66EE66A010EE66ED2
:1031B0000BEC10F0E552E552E552E552DFCF00F09E
:1031C000016A026A036A00C0E6FF01C0E6FF02C0AE
:1031D000E6FF03C0E6FFE66A010EE66EE4EC0EF0E1
:1031E000046E060EE15E0450E552E552E7CFD9FFCA
:0231F0001200CB
:0E31F200D9CFE6FFE1CFD9FFD59EFD0EDBCF92
:1032000028FFFE0EDBCF29FFD59C03680468056A02
:1032100028CF06F029CF07F0086A0650035C006E3D
:1032200007500458016E08500558026E246A010EBA
:10323000256E266A00C01FF001C020F002C021F0F8
:103240002AEC23F01B50D66E03680468056A28CF69
:1032500006F029CF07F0086A0650035C006E07509D
:103260000458016E08500558026E246A010E256E3E
:10327000266A00C01FF001C020F002C021F02AEC35
:1032800023F01FC000F020C001F021C002F01F5049
:10329000D76ED59AD586F28AF294F184D58EE5520E
:1032A000E7CFD9FF1200D59E120003680468056AB3
:1032B00028CF06F029CF07F0086A0650035C006E9D
:1032C00007500458016E08500558026E246A010E1A
:1032D000256E266A00C01FF001C020F002C021F058
:1032E0002AEC23F01B50D66E03680468056A28CFC9
:1032F00006F029CF07F0086A0650035C006E0750FD
:103300000458016E08500558026E246A010E256E9D
:10331000266A00C01FF001C020F002C021F02AEC94
:1033200023F01FC000F020C001F021C002F01F50A8
:10333000D76ED58E1200D9CFE6FFE1CFD9FFCD9061
:10334000FD0EDBCF2AFFFE0EDBCF2BFF03680468E8
:10335000056A2ACF06F02BCF07F0086A0650035CF7
:10336000006E07500458016E08500558026E246A1A
:10337000010E256E266A00C01FF001C020F002C0B9
:1033800021F02AEC23F01F50CF6E03680468056A11
:103390002ACF06F02BCF07F0086A0650035C006EB8
:1033A00007500458016E08500558026E246A010E39
:1033B000256E266A00C01FF001C020F002C021F077
:1033C0002AEC23F01BC000F01CC001F01DC002F06D
:1033D0001B50CE6E9D809E909F90CD8ECD8CCD98B3
:1033E000CD9ACD96CD92CD80E552E7CFD9FF120090
:1033F00003680468056A2ACF06F02BCF07F0086A35
:103400000650035C006E07500458016E08500558C2
:10341000026E246A010E256E266A00C01FF001C0EC
:1034200020F002C021F02AEC23F01F50CF6E036879
:103430000468056A2ACF06F02BCF07F0086A065009
:10344000035C006E07500458016E08500558026E68
:10345000246A010E256E266A00C01FF001C020F00C
:1034600002C021F02AEC23F01BC000F01CC001F0C8
:103470001DC002F01B50CE6ECD801200CD90120008
:10348000D9CFE6FFE1CFD9FFCA94CC6AFE0EDB505C
:103490000F012C6F2D6BCB6E9D829E929F92CA90D6
:1034A000CA92CA84E552E7CFD9FF12002CCFCBFFD6
:1034B000CA841200CA941200D9CFE6FFE1CFD9FF27
:1034C000B190FD0EDBCF2EFFFE0EDBCF2FFF03688A
:1034D0000468056A2ECF06F02FCF07F0086A065061
:1034E000035C006E07500458016E08500558026EC8
:1034F000246A010E256E266A00C01FF001C020F06C
:1035000002C021F02AEC23F01F50B36E0368046858
:10351000056A2ECF06F02FCF07F0086A0650035C2D
:10352000006E07500458016E08500558026E246A58
:10353000010E256E266A00C01FF001C020F002C0F7
:1035400021F02AEC23F01BC000F01CC001F01DC0CC
:1035500002F01B50B26EA082A192A292B18EB198DD
:10356000B19AB192B180E552E7CFD9FF120003685A
:103570000468056A2ECF06F02FCF07F0086A0650C0
:10358000035C006E07500458016E08500558026E27
:10359000246A010E256E266A00C01FF001C020F0CB
:1035A00002C021F02AEC23F01B50B26E03680468BD
:1035B000056A2ECF06F02FCF07F0086A0650035C8D
:1035C000006E07500458016E08500558026E246AB8
:1035D000010E256E266A00C01FF001C020F002C057
:1035E00021F02AEC23F01FC000F020C001F021C020
:1035F00002F01F50B36EB1801200B19012000F01A3
:10360000382B000E39234051385D4151395904E3BC
:10361000386B396B010E306F12000F013A2B000E20
:103620003B2342513A5D43513B5904E33A6B3B6BB8
:10363000010E316F12000F013C2B000E3D2344514F
:103640003C5D45513D5904E33C6B3D6B010E326FCF
:1036500012000F013E2B000E3F2346513E5D4751A5
:103660003F5904E33E6B3F6B010E336F1200D9CF1D
:10367000E6FFE1CFD9FFFD0EDBCF40FFFE0EDBCF33
:1036800041FF0F01386B396B306BE552E7CFD9FF43
:103690001200D9CFE6FFE1CFD9FFFD0EDBCF42FF0D
:1036A000FE0EDBCF43FF050E256E266A42CF20F0CB
:1036B00043CF21F004EC23F020C042FF21C043FFA0
:1036C0000F013A6B3B6B316BE552E7CFD9FF12002C
:1036D000D9CFE6FFE1CFD9FFFD0EDBCF46FFFE0ECF
:1036E000DBCF47FF0A0E256E266A46CF20F047CF74
:1036F00021F004EC23F020C046FF21C047FF0F015A
:0E3700003E6B3F6B336BE552E7CFD9FF1200F3
:02370E000F0E9C
:10371000946E82681200CF0E9414946E8268120028
:10372000D9CFE6FFE1CFD9FF040EE126DE6ADD6ADC
:10373000DECF00F0DDCF01F0D890015004E6040E9A
:10374000005C000E015801E390D0DECFE9FFDDCF31
:10375000EAFF200EE9260F0EEA22EF1C826E020E0F
:10376000DB6A030EDB6A020EDBCF00F0030EDBCF59
:1037700001F0D890015004E6040E005C000E0158E0
:103780006EE2020EDBCFE9FF030EDBCFEAFF240E71
:10379000E9260F0EEA22EF5082143FE1DECF04F05B
:1037A000DDCF05F0D89004360536D89004360536BE
:1037B000020EDB500424E96E030EDB500520EA6E96
:1037C000D890E936EA36000EE9260F0EEA22EECF4F
:1037D00002F0EFCF03F0010E0226000E0322DECF2F
:1037E00000F0DDCF01F0D89000360136D8900036D9
:1037F0000136020EDB500024E96E030EDB5001207F
:10380000EA6ED890E936EA36000EE9260F0EEA2273
:1038100002C0EEFF03C0EDFF1BD0DECF00F0DDCF16
:1038200001F0D89000360136D89000360136020EED
:10383000DB500024E96E030EDB500120EA6ED890C5
:10384000E936EA36000EE9260F0EEA22EE6AED6A44
:10385000020EDB2A030E01E286D7DB2A84D7DF2A99
:10386000010E01E265D7DB2A63D7040EE15C02E2B8
:10387000E16AE552E16EE552E7CFD9FF1200D9CFF8
:10388000E6FFE1CFD9FF040EE126DE6ADD6ADECF76
:1038900000F0DDCF01F0D890015004E6020E005C8C
:1038A000000E015801E394D0DECFE9FFDDCFEAFF3F
:1038B000200EE9260F0EEA22EF1C8214826E0F0EF4
:1038C0008210826E020EDB6A030EDB6A020EDBCF11
:1038D00000F0030EDBCF01F0D890015004E6040E97
:1038E000005C000E01586EE2020EDBCFE9FF030E12
:1038F000DBCFEAFF240EE9260F0EEA22EF508214F6
:103900003FE1DECF04F0DDCF05F0D8900436053678
:10391000D89004360536020EDB500424E96E030EFF
:10392000DB500520EA6ED890E936EA36000EE9262B
:103930000F0EEA22EECF02F0EFCF03F0010E0226C7
:10394000000E0322DECF00F0DDCF01F0D89000366C
:103950000136D89000360136020EDB500024E96EA5
:10396000030EDB500120EA6ED890E936EA36000EED
:10397000E9260F0EEA2202C0EEFF03C0EDFF1BD0C6
:10398000DECF00F0DDCF01F0D89000360136D890C0
:1039900000360136020EDB500024E96E030EDB50C8
:1039A0000120EA6ED890E936EA36000EE9260F0EBD
:1039B000EA22EE6AED6A020EDB2A030E01E286D7E6
:1039C000DB2A84D7DF2A010E01E261D7DB2A5FD729
:1039D000040EE15C02E2E16AE552E16EE552E7CFF6
:1039E000D9FF1200D9CFE6FFE1CFD9FF040EE126BF
:1039F000DE6ADD6ADECF00F0DDCF01F0FD0EDBCF49
:103A000002F0FE0EDBCF03F001500318E8AE02D047
:103A1000033404D00250005C035001581DE2020E32
:103A2000DB6A030EDB6A020EDBCF00F0030EDBCF96
:103A300001F0D890015004E6EE0E005C000E015833
:103A400006E2020EDB2A030EEEE3DB2AECD7DF2AC6
:103A5000010ED0E3DB2ACED7040EE15C02E2E16A7C
:103A6000E552E16EE552E7CFD9FF1200D9CFE6FF6C
:103A7000E1CFD9FF040EE126DE6ADD6ADECF00F079
:103A8000DDCF01F0D890015004E6040E005C000E7A
:103A9000015875E2DECFE9FFDDCFEAFF200EE9260F
:103AA0000F0EEA22EF1C826E020EDB6A030EDB6A47
:103AB000020EDBCF00F0030EDBCF01F0D8900150F7
:103AC00004E6040E005C000E01584AE2DECF00F06E
:103AD000DDCF01F0D89000360136D890003601369F
:103AE000020EDB500024E96E030EDB500120EA6E6B
:103AF000D890E936EA36000EE9260F0EEA22EE6A81
:103B0000ED6A020EDBCFE9FF030EDBCFEAFF240EE6
:103B1000E9260F0EEA22EF5082141CE1DECF00F0FE
:103B2000DDCF01F0D89000360136D890003601364E
:103B3000020EDB500024E96E030EDB500120EA6E1A
:103B4000D890E936EA36000EE9260F0EEA22010E79
:103B5000EE6EED6A020EDB2A030EAAE3DB2AA8D77B
:103B60008250816EE80EE66E030EE66E3BDFE55294
:103B7000E552DF2A010E01E281D7DB2A7FD7040E4E
:103B8000E15C02E2E16AE552E16EE552E7CFD9FF7E
:023B9000120021
:0E3B9200060E0101BC1901E1BD5101E1D1D1C6
:103BA000050EBC1901E1BD5101E1AED1040EBC19F5
:103BB00001E1BD5101E165D1030EBC1901E1BD5127
:103BC00001E1FED0020EBC1901E1BD5147E0010E3A
:103BD000BC1901E1BD510AE0BC5101E1BD5101E058
:103BE0001200010EBC6FBD6BC3EF23F0C3EC23F0DA
:103BF00040EC00F00F010A0E045D000E055914E3BD
:103C000004CF00F00001016A010E001600180CE15B
:103C100001500AE10101C06BC16B020E0101BC6FD2
:103C2000BD6B0F01046B056B0F010A0E065D000EE4
:103C3000075901E288D106CF00F00001016A010EA8
:103C4000001600180AE1015001E07DD1060E0101C5
:103C5000BC6FBD6B0F01066B076B12000F010A0EE4
:103C6000025D000E035914E302CF00F00001016A67
:103C7000010E001600180CE101500AE10101C06BB1
:103C8000C16B010E0101BC6FBD6B0F01026B036BB9
:103C90000F010A0E045D000E055914E304CF00F075
:103CA0000001016A010E001600180CE101500AE142
:103CB0000101C06BC16B030E0101BC6FBD6B0F0135
:103CC000046B056B0F010A0E065D000E075914E325
:103CD00006CF00F00001016A010E001600180CE189
:103CE00001500AE10101C06BC16B040E0101BC6F00
:103CF000BD6B0F01066B076B0F010A0E085D000E0E
:103D0000095914E308CF00F00001016A010E001602
:103D100000180CE101500AE10101C06BC16B050EF6
:103D20000101BC6FBD6B0F01086B096B0F010A0E1F
:103D30000A5D000E0B5914E30ACF00F00001016A7E
:103D4000010E001600180CE101500AE10101C06BE0
:103D5000C16B060E0101BC6FBD6B0F01086B096BD7
:103D60000F010A0E005D000E015928E300CF00F09C
:103D70000001016A010E0016001820E101501EE149
:103D8000010E0101C025C06F000EC121C16F040EDC
:103D9000256E266AC0C120F0C1C121F004EC23F0D9
:103DA0001CC0C0F11DC0C1F101011C501D1003E178
:103DB000010EC06FC16B0F01006B016B6BEF02F066
:103DC0000F010A0E005D000E015928E300CF00F03C
:103DD0000001016A010E0016001820E101501EE1E9
:103DE000010E0101C025C06F000EC121C16F080E78
:103DF000256E266AC0C120F0C1C121F004EC23F079
:103E00001CC0C0F11DC0C1F101011C501D1003E117
:103E1000010EC06FC16B0F01006B016B0F010A0E29
:103E2000025D000E035911E302CF00F00001016AA8
:103E3000010E0016001809E1015007E1040E01010E
:103E4000BC6FBD6B0F01026B036B0F010A0E045DAB
:103E5000000E055914E304CF00F00001016A010EC1
:103E6000001600180CE101500AE1020E0101BC6FBE
:103E7000BD6B0101C06BC16B0F01046B056BC5EF1E
:103E800002F077EC03F00F010A0E025D000E0359F9
:103E900011E302CF00F00001016A010E00160018C4
:103EA00009E1015007E10101BE2B000EBF230F0104
:103EB000026B036B0F010A0E045D000E055943E30C
:103EC00004CF00F00001016A010E001600181BE18A
:103ED000015039E1C0C1E9FFC1C1EAFFE906000EA6
:103EE000EA5AD890E936EA36EA0EE926010EEA22C5
:103EF000BEC1EEFFBFC1EDFF030E0101BC6FBD6B84
:103F00000F01046B056B1200AEEC03F00F010A0EFB
:103F1000045D000E055917E304CF00F00001016AAB
:103F2000010E001600180CE101500DE1020E010116
:103F3000BC6FBD6B0101C06BC16B0F01046B056BE6
:083F4000120055EC08F012001C
:083F48002E0020202000206D56
:103F5000332F68200D0A00206D672F6C20464C4FD0
:103F6000573D2000206D672F6C204E4F333D2000C1
:103F70002043204E48343D2000206D672F6C205494
:103F80004D503D2000206D672F6C204353423D2053
:103F9000002070482053533D200032302E30342E04
:103FA00031362030393A31323A3037202070483DAE
:103FB0002020002020004B484F4E472043414E48D0
:103FC0002042414F00464C4F572043414F20005460
:103FD0004D502043414F2000544D503D2020004E75
:103FE0004F332043414F20004E4F333D2020004EA1
:103FF00048342043414F20004E48343D2020005398
:10400000532043414F200053533D202000434F4451
:104010002043414F2000434F443D20200050482082
:1040200043414F200050483D202000332E20536153
:10403000766500496E7075743A20002D3E534554E4
:1040400020464C4F5720542E48002D3E53455420B7
:104050004E4F3320542E48002020534554204E48C4
:104060003420542E48002020534554204E4F3320F6
:10407000542E48002D3E534554204E483420542E93
:1040800048002D3E53455420535320542E480020C1
:104090002053455420504820542E4800202053459A
:1040A0005420535320542E48002D3E534554205045
:1040B0004820542E48002D3E53455420434F442061
:1040C000542E4800202053455420544D5020542E47
:1040D0004800202053455420434F4420542E48008C
:1040E0002D3E53455420544D5020542E48002A2A2A
:1040F0002A2A4D4F44452A2A2A2A00205345542073
:104100005448524553484F4C442000352E204144DA
:104110004A5553542054494D4500342E20534545AB
:1041200020414C41524D00332E20534554204144F0
:104130004300322E205345542054482E484F4C44BF
:1041400000312E20444953504C41592054494D458B
:10415000002A2A2A2A2A2A2A2A2A2A2A2A2A2A0013
:104160002A2A2A2A204D454E55202A2A2A2A00206A
:1041700000444543004E4F56004F435400534550B2
:1041800000415547004A554C004A554E004D415993
:1041900000415052004D415200464542004A414EB6
:1041A000003A0045525200534154004652490054CF
:1041B00048550057454400545545004D4F4E005357
:0341C000554E0059
:0141C30000FB
:0C41C400D9CFE6FFE1CFD9FF020EE126C3
:1041D000FE0EDB500F0BDF6EFE0EDB380F0B0A0DF1
:1041E000010EF3CFDBFFDB50DF24006E020EE15C3B
:1041F00002E2E16AE552E16E0050E552E7CFD9FFF5
:104200001200D9CFE6FFE1CFD9FF020EE1260A0E58
:10421000006E266EFE0EDBCF21F036EC25F01D5031
:10422000DF6E0A0E006E266EFE0EDBCF21F036EC3E
:1042300025F02150100D010EF3CFDBFFDB50DF2402
:10424000006E020EE15C02E2E16AE552E16E0050AE
:10425000E552E7CFD9FF1200949694981200D9CF77
:10426000E6FFE1CFD9FFE652DF6AFE0EDB50DF5CEE
:1042700002E2DF2AFAD7E552E552E7CFD9FF120072
:1042800082A8000C010C0101FF5102E082888286A5
:1042900082988296010EFF6F120082988286828831
:1042A0000101FF6B1200D9CFE6FFE1CFD9FF020E6B
:1042B000E126DF6ADFCF00F0080EE76E0018E8AEF7
:1042C00002D0E73402D0E750005C0FE2FE0EDBBE06
:1042D00002D0829801D0828882868296DB50020DBD
:1042E000FE0EF3CFDBFFDF2AE5D794888286C8DF96
:1042F000E76E010EE7CFDBFF82969498DB50006EED
:10430000020EE15C02E2E16AE552E16E0050E55224
:10431000E7CFD9FF1200D9CFE6FFE1CFD9FF020ED8
:10432000E126DF6A9488010EDB6ADBCF00F0080E1D
:10433000E76E0018E8AE02D0E73402D0E750005C28
:104340000BE282869DDF006EDF50E8240010DF6EF6
:104350008296010EDB2AE9D79498FE0EDB5002E02C
:10436000828801D0829882868296DF50006E020E8B
:10437000E15C02E2E16AE552E16E0050E552E7CF0E
:10438000D9FF1200D9CFE6FFE1CFD9FF7CDFD00EF5
:10439000E66E89DFE552FE0EDBCFE6FF84DFE552F5
:1043A000FD0EDBCFE6FF2DDFE552E66E7CDFE5524A
:1043B00074DFE552E7CFD9FF1200D9CFE6FFE1CF96
:1043C000D9FFE65260DFD00EE66E6DDFE552FE0EDD
:1043D000DBCFE6FF68DFE55256DFD10EE66E63DF26
:1043E000E552010EE66E97DFE552DF6EDFCFE6FFA6
:1043F000E9DEE552DF6E51DFDF50E552E552E7CFEF
:04440000D9FF1200CE
:0C440400F28ED08EF28C1200F19CF2922D
:10441000F2881200D8CFE4FFE0CFE4FFE46EDACFF9
:10442000E4FFE2CFDAFFE9CFE4FFEACFE4FFF6CF23
:10443000E4FFF7CFE4FFF5CFE4FFF3CFE4FFF4CFE1
:10444000E4FFFACFE4FF00EE18F0100EE80403E3F7
:10445000EECFE4FFFBD700EE00F0180EE80403E314
:10446000EECFE4FFFBD7E652F2A407D053EC19F0ED
:10447000F29455EC19F0FFEC1AF09EA007D03EEC38
:104480001AF09E90F8EC19F00DEC1BF0A1A207D0E9
:10449000FDEC1AF0A192B7EC1AF029EC1BF0F2B285
:1044A000F2929EAA03D09E9ACAEC18F0E55200EE52
:1044B00017F0180EE80403E3E5CFEDFFFBD700EE9D
:1044C00027F0100EE80403E3E5CFEDFFFBD7E5CFBF
:1044D000FAFFE5CFF4FFE5CFF3FFE5CFF5FFE5CF3A
:1044E000F7FFE5CFF6FFE5CFEAFFE5CFE9FFE5CF40
:1044F000DAFFE550E5CFE0FFE5CFD8FF1000DACFD7
:10450000E4FFE2CFDAFFE9CFE4FFEACFE4FFF6CF42
:10451000E4FFF7CFE4FFF5CFE4FFF3CFE4FFF4CF00
:10452000E4FFFACFE4FF00EE18F0100EE80403E316
:10453000EECFE4FFFBD700EE00F0180EE80403E333
:10454000EECFE4FFFBD7E652F2A407D053EC19F00C
:10455000F29455EC19F0FFEC1AF09EA007D03EEC57
:104560001AF09E90F8EC19F00DEC1BF0A1A207D008
:10457000FDEC1AF0A192B7EC1AF029EC1BF0F2B2A4
:10458000F2929EAA03D09E9ACAEC18F0E55200EE71
:1045900017F0180EE80403E3E5CFEDFFFBD700EEBC
:1045A00027F0100EE80403E3E5CFEDFFFBD7E5CFDE
:1045B000FAFFE5CFF4FFE5CFF3FFE5CFF5FFE5CF59
:1045C000F7FFE5CFF6FFE5CFEAFFE5CFE9FFE5CF5F
:0445D000DAFF1100FD
:0C45D400186A26AEF0EF22F0266C181ECC
:1045E00021AEF5EF22F0216C181E36EC25F021BE2D
:1045F000FFEF22F018AE000C216C1D6C000C18BEF1
:10460000FCEF22F01988FF0C186A26AE0DEF23F09C
:10461000256C261EE86A2622181E21AE15EF23F00F
:10462000206C211EE86A2122181E02EC25F021BE12
:1046300025EF23F018AE000C206C211EE86A212221
:104640001C6C1D1EE86A1D22000C18BE1CEF23F016
:104650001988FF0C186A26AE35EF23F0246C251E4E
:10466000261EE86A25222622181E21AE3FEF23F0DF
:104670001F6C201E211EE86A20222122181EE5EC54
:1046800024F021BE52EF23F018AE000C1F6C201E48
:10469000211EE86A202221221B6C1C1E1D1E1C22CA
:1046A0001D22000C18BE46EF23F01988FF0C186A73
:1046B000E86A26AE64EF23F0236C241E251E261E16
:1046C000242225222622181E21AE6FEF23F01E6C15
:1046D0001F1E201E211E1F2220222122181EC1EC77
:1046E00024F021BE86EF23F018AE000C1E6C1F1EB6
:1046F000201E211EE86A1F22202221221A6C1B1E66
:104700001C1E1D1E1B221C221D22000C18BE76EF33
:0647100023F01988FF0CE4
:0A471600F8C1E6FFE66AC2EC21F0EC
:10472000E552E552F9C1E6FF010EE66EC2EC21F05A
:10473000E552E552FAC1E6FF020EE66EC2EC21F048
:10474000E552E552FBC1E6FF030EE66EC2EC21F036
:10475000E552E552FCC1E6FF040EE66EC2EC21F024
:10476000E552E552FDC1E6FF050EE66EC2EC21F012
:10477000E552E552FEC1E6FF060EE66EC2EC21F000
:10478000E552E5521200E66ADDEC21F0E552010146
:10479000F86F010EE66EDDEC21F0E5520101F96FD4
:1047A000020EE66EDDEC21F0E5520101FA6F030E18
:1047B000E66EDDEC21F0E5520101FB6F040EE66EC2
:1047C000DDEC21F0E5520101FC6F050EE66EDDEC3B
:1047D00021F0E5520101FD6F060EE66EDDEC21F0E1
:0847E000E5520101FE6F120019
:0847E8001E0EF66E000EF76EC6
:1047F000000EF86E0F010900F5505D6F0900F550CD
:104800005E6F03E15D6701D03DD00900F550586F40
:104810000900F550596F0900F5505A6F0900090059
:10482000F550E96E0900F550EA6E0900090009002B
:10483000F5505B6F0900F5505C6F09000900F6CF79
:104840005FFFF7CF60FFF8CF61FF58CFF6FF59CF7A
:10485000F7FF5ACFF8FF0F015B5302E15C5307E00B
:104860000900F550EE6E5B07F8E25C07F9D75FCF01
:10487000F6FF60CFF7FF61CFF8FF0F015D07000E75
:064880005E5BBFD71200D1
:0A4886000F0E926E0B0EC16E040EB1
:10489000C06E1200D9CFE6FFE1CFD9FF020EE126AC
:1048A000FE0EDB50040DF350C26EC280C282C2B253
:1048B000FED7C450DE6EDD6ADECF02F0DDCF03F03E
:1048C000D89002360336D89002360336060EC3CF90
:1048D000E7FF070B04E0E742E79EE806FCE1E7504C
:1048E0000224006E000E032000C0DEFFDD6EDECF6E
:1048F00000F0DDCF01F000C0F3FF01C0F4FF020EB5
:10490000E15C02E2E16AE552E16EE552E7CFD9FFF0
:02491000120093
:0E4912001E502302F3CF1AF0F4CF1BF0240244
:10492000F3501B26000EF4201C6E1E502502F3507F
:104930001C26000EF4201D6E1E502602F3501D266C
:104940001F502302F3501B26F4501C22000E1D2280
:104950001F502402F3501C26F4501D221F50250224
:10496000F3501D2620502302F3501C26F4501D2224
:1049700020502402F3501D2621502302F3501D26FF
:02498000120023
:0E4982001D6A1C6A1B6A1A6A200EE76ED89026
:104990001E361F36203621361A361B361C361D367B
:1049A00023501A5C24501B5825501C5826501D5863
:1049B00009E323501A5E24501B5A25501C5A2650D6
:0A49C0001D5A1E2AE72EE4D712004C
:0649CA001D6A1C6A1B6A55
:1049D000180EE76ED8901F36203621361B361C364F
:1049E0001D3624501B5C25501C5826501D5807E3CB
:1049F00024501B5E25501C5A26501D5A1F2AE72E94
:044A0000EAD71200DF
:0C4A04001D6A1C6A100EE76ED890203668
:104A100021361C361D3625501C5C26501D5805E3DA
:104A200025501C5E26501D5A202AE72EF0D7120072
:104A3000800EF36E00EE00F00F0E01D81200EA6057
:104A400002D0EE6AFCD7F350E9601200EE6AFCD7A0
:104A50001EEE00F02EEE00F0F86A199CF4EC23F044
:0C4A600003EC00F09AEC11F0FBD7120000
:044A6C001D6A080EA9
:104A7000E76ED89021361D3626501D5C02E31D6E70
:084A8000212AE72EF7D71200EE
:084A8800000000000000000026
:104A90000000000000000000000000000000000016
:084AA00001000100010001000A
:084AA800010204081020408007
:084AB0000000000000000000FE
:084AB8000000000000000000F6
:104AC00010101010101010101818181818181818A6
:104AD0001C1C1C1C1C1C1C1C1E1E1E1E1E1E1E1E06
:104AE0001F1F1F1F1F1F1F1F0000000000000000CE
:104AF00000000000000000000000000000000000B6
:104B000000000000000000000000000000000000A5
:094B10000000000000000000009C
:074B19000000000000000095
:104B20000000009001000000000000E803D0070032
:104B300000C40900008813FF03E803E803102720DE
:104B40004E88131027A08C200300000000E803D03B
:054B5000070000000059
:074B55001E0211050C0C16F5
:044B5C000000000055
:104B60000000000000000000000000000000000045
:104B70000000000000000000000000001020408045
:044B80000102040822
:020000040030CA
:0100010002FC
:0100020003FA
:010003001EDE
:010005008179
:010006008178
:010008000FE8
:01000900C036
:01000A000FE6
:01000B00E014
:01000C000FE4
:01000D0040B2
:00000001FF
