:020000040000FA
:0600000013EF1EF01200D8
:020006001200E6
:060008006AEF1BF012007C
:02000E000000F0
:020010000000EE
:06001800F5EF1AF01200E2
:02001E000800D8
:100020002E3D0000000F000028000000273D0000CA
:10003000580F000007000000EF3C0000BC0100006A
:1000400038000000D9350000FE010000010000006A
:100050000E0000005F0F0000040000008E3C000056
:1000600080000000610000007E3C0000480F00009E
:10007000100000005E3C0000280F0000200000007F
:10008000D9CFE6FFE1CFD9FF040EE126DE6ADD6AB3
:10009000DECF10F0DDCF11F0126A136A11AE02D07C
:1000A00012681368D950FB0FE96EFF0EDA20EA6E72
:1000B000EE50105CEE501158EE501258EE5013589E
:1000C0001DE2020EDB6A030EDB6A020EDBCF10F0CC
:1000D000030EDBCF11F0D890115004E6050E105C32
:1000E000000E115806E2020EDB2A030EEEE3DB2AB5
:1000F000ECD7DF2A010ECCE3DB2ACAD7040EE15C81
:1001000002E2E16AE552E16EE552E7CFD9FF120063
:10011000D9CFE6FFE1CFD9FF040EE126DE6ADD6A22
:10012000DECF10F0DDCF11F0126A136A11AE02D0EB
:1001300012681368D950FB0FE96EFF0EDA20EA6EE1
:10014000EE50105CEE501158EE501258EE5013580D
:100150001DE2020EDB6A030EDB6A020EDBCF10F03B
:10016000030EDBCF11F0D890115004E6EE0E105CB8
:10017000000E115806E2020EDB2A030EEEE3DB2A24
:10018000ECD7DF2A010ECCE3DB2ACAD7040EE15CF0
:1001900002E2E16AE552E16EE552E7CFD9FF1200D3
:1001A000D9CFE6FFE1CFD9FF0F0E8116FE0EDB504F
:1001B000F00B81128186010EE66EE66AE66AE66A57
:1001C000A7DFE552E552E552E5528196010EE66E53
:1001D000E66AE66AE66A9CDFE552E552E552E552D8
:1001E0000F0E8116FE0EDB38F00B81128186010E98
:1001F000E66EE66AE66AE66A8BDFE552E552E552AC
:10020000E5528196010EE66EE66AE66AE66A80DFEE
:10021000E552E552E552E552E552E7CFD9FF12002B
:10022000D9CFE6FFE1CFD9FFE652190EE66EE66AB6
:10023000E66AE66A6DDFE552E552E552E5520F0ED9
:100240008116F80E81160F0E8116300E81128186EE
:10025000010EE66EE66AE66AE66A5ADFE552E552A4
:10026000E552E5528196010EE66EE66AE66AE66AB6
:100270004FDFE552E552E552E5520F0E8116300E82
:1002800081128186010EE66EE66AE66AE66A40DF62
:10029000E552E552E552E5528196010EE66EE66AB8
:1002A000E66AE66A35DFE552E552E552E5520F0EA1
:1002B0008116300E81128186010EE66EE66AE66ACC
:1002C000E66A26DFE552E552E552E5528196010ED7
:1002D000E66EE66AE66AE66A1BDFE552E552E5523B
:1002E000E5520F0E8116818A8186010EE66EE66A5E
:1002F000E66AE66A0DDFE552E552E552E55281967F
:10030000010EE66EE66AE66AE66A02DFE552E5524B
:10031000E552E552280EE66E43DFE5520C0EE66E1E
:100320003FDFE552E552E552E7CFD9FF1200D9CFC2
:10033000E6FFE1CFD9FF020EE126DF6A010EDB6A9C
:1003400081940F0EE66EE66AE66AE66A99DEE55289
:10035000E552E552E5520F0E81128186E66EE66A9D
:10036000E66AE66A8DDEE552E552E552E5520F0E89
:100370008114E76E010EE7CFDBFF81960F0EE66E6C
:10038000E66AE66AE66A7CDEE552E552E552E55247
:100390000F0E81128186E66EE66AE66AE66A70DE14
:1003A000E552E552E552E5520F0E8114DF6E010E63
:1003B000DB50DF128196010EE66EE66AE66AE66AB7
:1003C0005FDEE552E552E552E552DF50106E020E57
:1003D000E15C02E2E16AE552E16E1050E552E7CFDE
:1003E000D9FF1200D9CFE6FFE1CFD9FFE652DF6A8D
:1003F0009EDFDF6EDFBEFCD7DF50E552E552E7CF70
:10040000D9FF1200D9CFE6FFE1CFD9FF0F0E811639
:10041000FE0EDB5081128186050EE66EE66AE66A04
:10042000E66A2EDEE552E552E552E5528196050E6A
:10043000E66EE66AE66AE66A23DEE552E552E552D2
:10044000E552E552E7CFD9FF1200D9CFE6FFE1CF61
:10045000D9FF8194050EE66EE66AE66AE66A10DE6A
:10046000E552E552E552E552FE0EDBCFE6FFCADF6C
:10047000E552FE0EDB38F00BE66EC4DFE552E552C6
:10048000E7CFD9FF1200D9CFE6FFE1CFD9FF8184B2
:10049000050EE66EE66AE66AE66AF2DDE552E552C8
:1004A000E552E552FE0EDBCFE6FFACDFE552FE0E75
:1004B000DB38F00BE66EA6DFE5528194E552E7CF1C
:1004C000D9FF1200D9CFE6FFE1CFD9FFFE0EDBCF77
:1004D000E6FFD9DFE552E552E7CFD9FF1200D9CFC9
:1004E000E6FFE1CFD9FFFE0EDBCFE6FFCCDFE55222
:1004F000E552E7CFD9FF1200D9CFE6FFE1CFD9FF10
:10050000FD0EDBCFF6FFFE0EDBCFF7FF0800F55048
:100510000FE0FD0EDBCFF6FFDB2AFE0EDBCFF7FF91
:1005200001E3DB2A0800F550E66ED9DFE552E8D793
:10053000E552E7CFD9FF1200D9CFE6FFE1CFD9FFCF
:10054000E652FD0EDB500F0B106EFE0EDB50010B62
:10055000400DF3501024DF6E7F0EDF14800FDF6E2E
:10056000DFCFE6FF72DFE552E552E552E7CFD9FF74
:100570001200010EE66E69DFE552E66AE66ADCDF2C
:10058000E552E5521200D9CFE6FFE1CFD9FF050EC3
:10059000E126010EF36EDB6E020EDB6A030EDB6AF0
:1005A000040EDB6ADF6ADFCF10F0116A10BE11683B
:1005B000FB0EDBCF12F0FC0EDBCF13F01150131843
:1005C000E8AE02D0133404D01250105C135011580E
:1005D0002DE2FD0EDBCF10F0FE0EDBCF11F0126A24
:1005E000136A11AE02D012681368D950010FE96E78
:1005F000DACFEAFF10C00BF011C00CF012C00DF002
:1006000013C00EF0EECF06F0EECF07F0EECF08F0FD
:10061000EFCF09F074EC1DF005C0EDFF04C0EDFF55
:1006200003C0EDFF02C0EFFFDF2ABDD7010EDBCF15
:1006300010F0020EDBCF11F0030EDBCF12F0040E30
:10064000DBCF13F010C006F011C007F012C008F0A5
:1006500013C009F0050EE15C02E2E16AE552E16EC9
:10066000E552E7CFD9FF1200D9CFE6FFE1CFD9FF9E
:10067000020EE126DF6AFB0EDBCF10F0FC0EDBCFB3
:1006800011F0FD0EDBCF12F0FE0EDBCF13F0105099
:1006900011101210131005E1300EE66E20DFE55246
:1006A000F4D0D950FB0FE96EFF0EDA20EA6ED89035
:1006B000030EEB50000A08E6000EEE5C000EEE584A
:1006C000000EEE58000EEE5815E22D0EE66E07DF16
:1006D000E552D950FB0FE96EFF0EDA20EA6E000EEC
:1006E000EE6CEF1EEE22EF1EEE22EF1EEF22ED5219
:1006F000ED52ED52DE52070EDD6E010EDBCF10F033
:10070000000EE76E1018E8AE02D0103403D0E750A8
:10071000D880105401E3B9D0010EDB04146E156AC1
:1007200014BE156814C0E6FF15C0E6FF0A0EE66E9B
:10073000E66A29DFE552E552E552E55206C010F0BF
:1007400007C011F008C012F009C013F006C00BF08A
:1007500007C00CF008C00DF009C00EF0FB0EDBCF97
:1007600006F0FC0EDBCF07F0FD0EDBCF08F0FE0E2F
:10077000DBCF09F0ACEC1DF0065007100810091093
:1007800041E0010EDF6EDB04186E196A18BE1968AD
:1007900018C0E6FF19C0E6FF0A0EE66EE66AF3DE51
:1007A000E552E552E552E55206C014F007C015F0D7
:1007B00008C016F009C017F006C00BF007C00CF017
:1007C00008C00DF009C00EF0FB0EDBCF06F0FC0EEA
:1007D000DBCF07F0FD0EDBCF08F0FE0EDBCF09F01C
:1007E000ACEC1DF006C010F007C011F008C012F00C
:1007F00009C013F0300E1026000E1122122213220F
:10080000105003D0DF5004E0300EE66E68DEE55293
:10081000010EDB04146E156A14BE156814C0E6FFE1
:1008200015C0E6FF0A0EE66EE66AADDEE552E55259
:10083000E552E55206C010F007C011F008C012F0F2
:1008400009C013F0D950FB0FE96EFF0EDA20EA6EF3
:1008500006C00BF007C00CF008C00DF009C00EF088
:10086000EECF06F0EECF07F0EECF08F0EFCF09F0B5
:10087000ACEC1DF005C0EDFF04C0EDFF03C0EDFFC3
:1008800002C0EFFF010EDB0638D7020EE15C02E288
:10089000E16AE552E16EE552E7CFD9FF1200D9CF08
:1008A000E6FFE1CFD9FFFD0EDBCFE6FFFE0EDBCF8B
:1008B000E6FF42DEE552E552D950F90FE96EFF0E30
:1008C000DA20EA6EEECFE6FFEECFE6FFEECFE6FFF0
:1008D000EFCFE6FFC9DEE552E552E552E552E552BB
:1008E000E7CFD9FF1200D9CFE6FFE1CFD9FFFD0E48
:1008F000DBCFE6FFFE0EDBCFE6FF1EDEE552E55264
:10090000FB0EDBCFE6FFFC0EDBCFE6FFF5DDE552AD
:10091000E552E552E7CFD9FF1200D9CFE6FFE1CF8C
:10092000D9FFFBC010F0FCC011F0040ED8901036B7
:100930001136E806FBE1C10E1026000E1122105000
:100940000001FD25E96E1150FE21EA6EFE0EDBCF9F
:10095000EFFFFD2B000EFE23E552E7CFD9FF12007B
:10096000D9CFE6FFE1CFD9FFE652DF6ADFCF10F043
:10097000100EE76E1018E8AE02D0E73402D0E75050
:10098000105C18E2DFCFE9FFEA6AE9BEEA68C10E4F
:10099000E926000EEA22200EEF6EDFCFE9FFEA6AB9
:1009A000E9BEEA68D10EE926000EEA22200EEF6EBB
:1009B000DF2ADCD7E552E552E7CFD9FF1200D9CFC5
:1009C000E6FFE1CFD9FFE6520001C051030A52E031
:1009D000010A36E0030A1AE0010A67E1E66AE66AFC
:1009E000ABDDE552E552DF6A080EDF5C0CE2DF505A
:1009F000EA6AC10FE96E000EEA22EF50E66E6FDD83
:100A0000E552DF2AF1D70001010E32D0080EE66E62
:100A1000E66A92DDE552E552DF6A080EDF5C0DE220
:100A2000080EDF24EA6AC10FE96E000EEA22EF50D9
:100A3000E66E55DDE552DF2AF0D70001020E18D030
:100A4000E66A010EE66E78DDE552E552DF6A080ED1
:100A5000DF5C0CE2DF50EA6AD10FE96E000EEA2299
:100A6000EF50E66E3CDDE552DF2AF1D70001030EC0
:100A7000C06F1CD0080EE66E010EE66E5DDDE5521D
:100A8000E552DF6A080EDF5C0DE2080EDF24EA6A39
:100A9000D10FE96E000EEA22EF50E66E20DDE5523E
:100AA000DF2AF0D70001C06B01D0C06BE552E552E0
:100AB000E7CFD9FF1200D9CFE6FFE1CFD9FFE65249
:100AC0000001C051010A1BE0010A32E1E66AE66A50
:100AD00033DDE552E552DF6A100EDF5C0CE2DF50D9
:100AE000EA6AC10FE96E000EEA22EF50E66EF7DC0B
:100AF000E552DF2AF1D70001010EC06F1AD0E66A75
:100B0000010EE66E19DDE552E552DF6A100EDF5C7C
:100B10000CE2DF50EA6AD10FE96E000EEA22EF50D4
:100B2000E66EDDDCE552DF2AF1D70001C06B01D0B3
:100B3000C06BE552E552E7CFD9FF1200D9CFE6FFEF
:100B4000E1CFD9FFE652E66AE66AF6DCE552E55205
:100B5000DF6A100EDF5C0CE2DF50EA6AC10FE96E5B
:100B6000000EEA22EF50E66EBADCE552DF2AF1D73A
:100B7000E66A010EE66EE0DCE552E552DF6A100E31
:100B8000DF5C0CE2DF50EA6AD10FE96E000EEA2268
:100B9000EF50E66EA4DCE552DF2AF1D7E552E552CC
:100BA000E7CFD9FF1200D9CFE6FFE1CFD9FFFE0E84
:100BB000DB50010B0001FB6FFC6BFD0EDB500F0BDC
:100BC000FD6FFE6BFBC010F0FCC011F0040ED8905E
:100BD00010361136E806FBE1C10E1026000E112278
:100BE00010500001FD25E96E1150FE21EA6EFC0E49
:100BF000DBCFEFFFE552E7CFD9FF1200D9CFE6FFF9
:100C0000E1CFD9FF020EE126DF6AFE0EDB50010BB9
:100C10000001FB6FFC6BFD0EDB500F0BFD6FFE6BDD
:100C2000F90EDBCF10F0FA0EDBCF11F0FB0EDBCFAD
:100C300012F0FC0EDBCF13F0105011101210131035
:100C400005E1300EE66E69DEE552F5D0D950F90FB8
:100C5000E96EFF0EDA20EA6ED890030EEB50000A20
:100C600008E6000EEE5C000EEE58000EEE58000E88
:100C7000EE5815E22D0EE66E50DEE552D950F90F12
:100C8000E96EFF0EDA20EA6E000EEE6CEF1EEE2229
:100C9000EF1EEE22EF1EEF22ED52ED52ED52DE522C
:100CA000070EDD6E010EDBCF10F0000EE76E1018A0
:100CB000E8AE02D0103403D0E750D880105401E3DE
:100CC000BAD0010EDB04146E156A14BE156814C088
:100CD000E6FF15C0E6FF0A0EE66EE66A54DCE55252
:100CE000E552E552E55206C010F007C011F008C009
:100CF00012F009C013F006C00BF007C00CF008C0DA
:100D00000DF009C00EF0F90EDBCF06F0FA0EDBCFC6
:100D100007F0FB0EDBCF08F0FC0EDBCF09F0ACECEC
:100D20001DF0065007100810091041E0010EDF6E9B
:100D3000DB04186E196A18BE196818C0E6FF19C0DE
:100D4000E6FF0A0EE66EE66A1EDCE552E552E55263
:100D5000E55206C014F007C015F008C016F009C02F
:100D600017F006C00BF007C00CF008C00DF009C06A
:100D70000EF0F90EDBCF06F0FA0EDBCF07F0FB0E1C
:100D8000DBCF08F0FC0EDBCF09F0ACEC1DF006C0A9
:100D900010F007C011F008C012F009C013F0300EB7
:100DA0001026000E112212221322105003D0DF5001
:100DB00004E0300EE66EB1DDE552010EDB04146E88
:100DC000156A14BE156814C0E6FF15C0E6FF0A0ECA
:100DD000E66EE66AC3EC02F0E552E552E552E552F2
:100DE00006C010F007C011F008C012F009C013F0DF
:100DF000D950F90FE96EFF0EDA20EA6E06C00BF04B
:100E000007C00CF008C00DF009C00EF0EECF06F0E0
:100E1000EECF07F0EECF08F0EFCF09F0ACEC1DF00D
:100E200005C0EDFF04C0EDFF03C0EDFF02C0EFFF02
:100E3000010EDB0637D7020EE15C02E2E16AE55201
:100E4000E16EE552E7CFD9FF1200D9CFE6FFE1CF3F
:100E5000D9FFFE0EDB50010B0001FB6FFC6BFD0E9A
:100E6000DB500F0BFD6FFE6BFB0EDBCFF6FFFC0EB6
:100E7000DBCFF7FF0800F5500FE0FB0EDBCFF6FFEE
:100E8000DB2AFC0EDBCFF7FF01E3DB2A0800F5507D
:100E9000E66E43DDE552E8D7E552E7CFD9FF120011
:100EA000D9CFE6FFE1CFD9FF050EE126D9CFE9FF83
:100EB000DACFEAFFF90EDBCFEEFFFA0EDBCFEEFF63
:100EC000FB0EDBCFEEFFFC0EDBCFEEFFD9CFE9FF51
:100ED000DACFEAFFEECF10F0EECF11F0EECF12F046
:100EE000EFCF13F0E80E0B6E030E0C6E0D6A0E6A58
:100EF00010C006F011C007F012C008F013C009F0CE
:100F000042EC1CF006C010F007C011F008C012F04F
:100F100009C013F006C0E6FF07C0E6FF08C0E6FF01
:100F200009C0E6FFFD0EDBCFE6FFFE0EDBCFE6FFDE
:100F300065DE146E060EE15E1450D9CFE9FFDACFFC
:100F4000EAFFEECF06F0EECF07F0EECF08F0EFCFDE
:100F500009F0E80E0B6E030E0C6E0D6A0E6A42EC81
:100F60001CF002C0DEFF03C0DEFF04C0DEFF05C0D0
:100F7000DDFFDD52DD52D9CFE9FFDACFEAFFEECF58
:100F800010F0EECF11F0EECF12F0EFCF13F0640EB1
:100F90000B6E0C6A0D6A0E6A10C006F011C007F0E5
:100FA00012C008F013C009F042EC1CF006C010F0AB
:100FB00007C011F008C012F009C013F006C0E6FF28
:100FC00007C0E6FF08C0E6FF09C0E6FFFD0EDB280C
:100FD000E66EFE0EDBCFE6FF11DE146E060EE15E5E
:100FE0001450D9CFE9FFDACFEAFFEECF06F0EECF0B
:100FF00007F0EECF08F0EFCF09F0640E0B6E0C6A2D
:101000000D6A0E6A42EC1CF002C0DEFF03C0DEFF78
:1010100004C0DEFF05C0DDFFDD52DD52B60EE66E18
:10102000330EE66EFD0EDB50020FE66EFE0EDBCFDA
:10103000E6FF0BDFE552E552E552E552D9CFE9FF75
:10104000DACFEAFFEECF10F0EECF11F0EECF12F0D4
:10105000EFCF13F00A0E0B6E0C6A0D6A0E6A10C009
:1010600006F011C007F012C008F013C009F042ECFE
:101070001CF006C010F007C011F008C012F009C043
:1010800013F006C0E6FF07C0E6FF08C0E6FF09C090
:10109000E6FFFD0EDB50030FE66EFE0EDBCFE6FF34
:1010A000ADDD146E060EE15E1450D9CFE9FFDACF44
:1010B000EAFFEECF06F0EECF07F0EECF08F0EFCF6D
:1010C00009F0E80E0B6E030E0C6E0D6A0E6A42EC10
:1010D0001CF002C0DEFF03C0DEFF04C0DEFF05C05F
:1010E000DDFFDD52DD52D9CFE9FFDACFEAFFEECFE7
:1010F00010F0EECF11F0EECF12F0EFCF13F00A0E9A
:101100000B6E0C6A0D6A0E6A10C006F011C007F073
:1011100012C008F013C009F042EC1CF002C010F03D
:1011200003C011F004C012F005C013F002C0E6FFC6
:1011300003C0E6FF04C0E6FF05C0E6FFFD0EDB507E
:10114000040FE66EFE0EDBCFE6FF58DD146E060ED2
:10115000E15E1450050EE15C02E2E16AE552E16EE7
:08116000E552E7CFD9FF1200B0
:08116800B0EC04F0CB0EE66EC2
:10117000350EE66EE66AE66A25EC07F0E552E552C2
:10118000E552E5520A0E146E0E6E5ACF09F0D5ECF8
:101190001BF009C010F0116A126A136A10AE03D076
:1011A00011681268136810C0E6FF11C0E6FF12C094
:1011B000E6FF13C0E6FFE66A010EE66EFEEC05F000
:1011C000156E060EE15E15505ACF09F00A0E0E6E2E
:1011D000D5EC1BF005C010F0116A126A136A10AE4C
:1011E00003D011681268136810C0E6FF11C0E6FF53
:1011F00012C0E6FF13C0E6FF010EE66EE66EFEECDF
:1012000005F0146E060EE15E14500A0E146E0E6E9A
:1012100059CF09F0D5EC1BF009C010F0116A126A21
:10122000136A10AE03D011681268136810C0E6FF8D
:1012300011C0E6FF12C0E6FF13C0E6FF060EE66E21
:10124000010EE66EFEEC05F0156E060EE15E155021
:1012500059CF09F00A0E0E6ED5EC1BF005C010F048
:10126000116A126A136A10AE03D01168126813680B
:1012700010C0E6FF11C0E6FF12C0E6FF13C0E6FF94
:10128000070EE66E010EE66EFEEC05F0146E060E1D
:10129000E15E14500A0E146E0E6E58CF09F0D5ECB4
:1012A0001BF009C010F0116A126A136A10AE03D065
:1012B00011681268136810C0E6FF11C0E6FF12C083
:1012C000E6FF13C0E6FF0C0EE66E010EE66EFEECC6
:1012D00005F0156E060EE15E155058CF09F00A0EA6
:1012E0000E6ED5EC1BF005C010F0116A126A136A7D
:1012F00010AE03D011681268136810C0E6FF11C069
:10130000E6FF12C0E6FF13C0E6FF0D0EE66E010E0B
:10131000E66EFEEC05F0146E060EE15E145012004F
:10132000B0EC04F0020E0101C01901E1C15129E045
:10133000010EC01901E1C15114E0C0513CE1C1519D
:101340003AE1BC0EE66E350EE66EE66AE66A25EC1C
:1013500007F0E552E552E552E552AD0EE66E350E68
:101360001FD09D0EE66E350EE66EE66AE66A25EC47
:1013700007F0E552E552E552E5528E0EE66E350E67
:101380000FD0830EE66E350EE66EE66AE66A25EC51
:1013900007F0E552E552E552E552760EE66E350E5F
:1013A000E66EE66A010EE66E25EC07F0E552E552C0
:1013B000E552E5521200C06BC16B1200B0EC04F0B4
:1013C000070E0101C01901E1C15101E199D0060EDA
:1013D000C01901E1C15101E17FD0050EC01901E141
:1013E000C1516AE0040EC01901E1C15155E0030E7C
:1013F000C01901E1C15140E0020EC01901E1C15123
:101400002BE0010EC01901E1C15116E0C05101E00D
:1014100084D0C15101E081D0660EE66E350EE66ED5
:10142000E66AE66A25EC07F0E552E552E552E55238
:10143000590EE66E350E5FD04B0EE66E350EE66E3B
:10144000E66AE66A25EC07F0E552E552E552E55218
:101450003D0EE66E350E4FD02F0EE66E350EE66E63
:10146000E66AE66A25EC07F0E552E552E552E552F8
:10147000210EE66E350E3FD0140EE66E350EE66E8A
:10148000E66AE66A25EC07F0E552E552E552E552D8
:10149000070EE66E350E2FD0FA0EE66E340EE66EAF
:1014A000E66AE66A25EC07F0E552E552E552E552B8
:1014B000ED0EE66E340E1FD0DF0EE66E340EE66ED5
:1014C000E66AE66A25EC07F0E552E552E552E55298
:1014D000D10EE66E340E0FD0C30EE66E340EE66EFD
:1014E000E66AE66A25EC07F0E552E552E552E55278
:1014F000B50EE66E340EE66EE66A010EE66E06D0B6
:10150000A60EE66E340EE66EE66AE66A25EC07F095
:10151000E552E552E552E5521200C06BC16B120074
:10152000B0EC04F09E0EE66E340EE66EE66AE66AF5
:1015300025EC07F0E552E552E552E552BEC110F048
:10154000BFC111F0126A136A11AE02D0126813689B
:1015500010C0E6FF11C0E6FF12C0E6FF13C0E6FFB1
:10156000070EE66EE66AFEEC05F0146E060EE15E0E
:101570001450960EE66E340EE66EE66A010EE66EC6
:1015800025EC07F0E552E552E552E5521200B0ECC9
:1015900004F0010104510101E65D01010551010161
:1015A000E75927E2900EE66E340EE66EE66AE66ACA
:1015B00025EC07F0E552E552E552E55204C110F082
:1015C00005C111F0126A136A04C1E6FF05C1E6FF06
:1015D00012C0E6FF13C0E6FF060EE66EE66A50ECA8
:1015E00007F0146E060EE15E1450880EE66E340E9F
:1015F0001FD1010108510101E85D010109510101FB
:10160000E95927E2810EE66E340EE66EE66AE66A76
:1016100025EC07F0E552E552E552E55208C110F01D
:1016200009C111F0126A136A08C1E6FF09C1E6FF99
:1016300012C0E6FF13C0E6FF060EE66EE66A50EC47
:1016400007F0146E060EE15E1450780EE66E340E4E
:10165000EFD0010106510101EA5D010107510101CD
:10166000EB5927E2720EE66E340EE66EE66AE66A23
:1016700025EC07F0E552E552E552E55206C110F0BF
:1016800007C111F0126A136A06C1E6FF07C1E6FF3F
:1016900012C0E6FF13C0E6FF060EE66EE66A50ECE7
:1016A00007F0146E060EE15E14506A0EE66E340EFC
:1016B000BFD001010A510101EC5D01010B51010193
:1016C000ED5927E2630EE66E340EE66EE66AE66AD0
:1016D00025EC07F0E552E552E552E5520AC110F05B
:1016E0000BC111F0126A136A0AC1E6FF0BC1E6FFD3
:1016F00012C0E6FF13C0E6FF060EE66EE66A50EC87
:1017000007F0146E060EE15E14505A0EE66E340EAB
:101710008FD001010C510101EE5D01010D5101015C
:10172000EF5927E2530EE66E340EE66EE66AE66A7D
:1017300025EC07F0E552E552E552E5520CC110F0F8
:101740000DC111F0126A136A0CC1E6FF0DC1E6FF6C
:1017500012C0E6FF13C0E6FF060EE66EE66A50EC26
:1017600007F0146E060EE15E14504A0EE66E340E5B
:101770005FD001010E510101F05D01010F51010126
:10178000F15927E2430EE66E340EE66EE66AE66A2B
:1017900025EC07F0E552E552E552E5520EC110F096
:1017A0000FC111F0126A136A0EC1E6FF0FC1E6FF06
:1017B00012C0E6FF13C0E6FF060EE66EE66A50ECC6
:1017C00007F0146E060EE15E14503A0EE66E340E0B
:1017D0002FD0010110510101F25D010111510101F0
:1017E000F3592BE2720EE66E340EE66EE66AE66A96
:1017F00025EC07F0E552E552E552E55210C110F034
:1018000011C111F0126A136A10C1E6FF11C1E6FF9F
:1018100012C0E6FF13C0E6FF060EE66EE66A50EC65
:1018200007F0146E060EE15E1450300EE66E340EB4
:10183000E66EE66A010EE66E06D0210EE66E340E06
:10184000E66EE66AE66A25EC07F0E552E552E552F7
:04185000E55212004B
:0C185400D9CFE6FFE1CFD9FF020EE1265C
:10186000DE6ADD6A6CD805EC19F0B9EC02F0B0EC78
:1018700004F0000EE66EE66AA4D8E552E552E80EE2
:10188000E66E030EE66E17D8E552E55276EC1CF0D4
:101890000F01330509E1E1EC14F0320EE66EE66A61
:1018A000B9EC14F0E552E5521AEC17F066D9CDD92F
:1018B000DFEC04F0EDD7D9CFE6FFE1CFD9FF040E7E
:1018C000E126DE6ADD6ADECF10F0DDCF11F0FD0E1D
:1018D000DBCF12F0FE0EDBCF13F011501318E8AE81
:1018E00002D0133404D01250105C135011581DE272
:1018F000020EDB6A030EDB6A020EDBCF10F0030E72
:10190000DBCF11F0D890115004E6EE0E105C000E03
:10191000115806E2020EDB2A030EEEE3DB2AECD7B7
:10192000DF2A010ED0E3DB2ACED7040EE15C02E20F
:10193000E16AE552E16EE552E7CFD9FF1200936A02
:10194000926A10EC01F0956A836AEDEC1AF0E80EE9
:10195000E66E030EE66EAFDFE552E552570EE66E19
:10196000120EE66E4AEC12F0E552E552AE0EE66E4D
:10197000240EE66EECEC12F0E552E552660EE66ED1
:10198000B70EE66EADEC13F0E552E552020EE66ED0
:10199000E66A88EC14F0E552E5520A0EE66EE66A55
:1019A0009AEC14F0E552E552320EE66EE66AB9ECB6
:1019B00014F0E552E552DCEC14F07CEC0FF02EEF65
:1019C0001DF0D9CFE6FFE1CFD9FFFE0EDBCF11F03E
:1019D000800E11141AE1FD0EDBCF12F0FE0EDBCFEC
:1019E00013F0133404E212500708000E13540DE3F1
:1019F000FD0EDBCFE9FFFE0EDBCFEAFF480EE92646
:101A00000F0EEA22EF508310836EE552E7CFD9FF25
:101A10001200D9CFE6FFE1CFD9FFFE0EDBCF11F0E8
:101A2000800E11141AE1FD0EDBCF12F0FE0EDBCF9B
:101A300013F0133404E212500708000E13540DE3A0
:101A4000FD0EDBCFE9FFFE0EDBCFEAFF480EE926F5
:101A50000F0EEA22EF1C8314836EE552E7CFD9FF05
:101A60001200D9CFE6FFE1CFD9FFFD0EDBCFE9FFB2
:101A7000FE0EDBCFEAFF500EE9260F0EEA22EF043E
:101A800015E1FD0EDBCFE6FFFE0EDBCFE6FFC1DF8B
:101A9000E552E552FD0EDBCFE9FFFE0EDBCFEAFF9C
:101AA000500EE9260F0EEA22EF6A15D0FD0EDBCFAD
:101AB000E6FFFE0EDBCFE6FF84DFE552E552FD0ECA
:101AC000DBCFE9FFFE0EDBCFEAFF500EE9260F0E5B
:101AD000EA22010EEF6EE552E7CFD9FF1200D9CF0F
:101AE000E6FFE1CFD9FF020EE126DE6ADD6ADECF36
:101AF00010F0DDCF11F0113404E210500708000E91
:101B0000115421E3DECFE6FFDDCFE6FF5ADFE552D9
:101B1000E552F40EE66E010EE66ECDDEE552E552BC
:101B2000DECFE6FFDDCFE6FF74DFE552E552F40ECF
:101B3000E66E010EE66EBFDEE552E552DF2A010ECB
:101B4000D6E3DB2AD4D7020EE15C02E2E16AE55279
:101B5000E16EE552E7CFD9FF12000F01010E021925
:101B600003E1035101E1010C000C0F01010E00190A
:101B700003E1015101E1010C000CD9CFE6FFE1CFF7
:101B8000D9FF020EE126DE6ADD6ADECF10F0DDCF7E
:101B900011F0D890115004E6070E105C000E115899
:101BA0004AE2E66A35EC1DF0E552F3CF10F0F4CFCF
:101BB00011F0126A136A11AE02D012681368DECFF8
:101BC000E9FFDDCFEAFFD890E936EA36D890E9366A
:101BD000EA36920EE926010EEA2210C0EEFF11C08D
:101BE000EEFF12C0EEFF13C0EEFFDECFE9FFDDCF48
:101BF000EAFFD890E936EA36D890E936EA36920E0E
:101C0000E926010EEA22EECF10F0EFCF11F0DECF81
:101C1000E9FFDDCFEAFFD890E936EA36E10EE926A2
:101C2000000EEA2210C0EEFF11C0EDFFDF2A010E08
:101C3000ACE3DB2AAAD7020EE15C02E2E16AE552DC
:101C4000E16EE552E7CFD9FF1200D9CFE6FFE1CF31
:101C5000D9FF040EE126010E01010025006F000EE0
:101C60000121016F280E0D6E0E6A00C108F001C13E
:101C700009F0EDEC1DF004C000F105C001F1010117
:101C80000450051001E01FD1C2C110F0C3C111F012
:101C9000126A136A0101C2510101D85D1C6ED9514B
:101CA0000101C3551D6E1E6A1F6AE1C018F0E2C033
:101CB00019F01A6A1B6AE1C006F0E2C007F01AC008
:101CC00008F01BC009F01CC00BF00C6E1EC00DF01C
:101CD0001FC00EF074EC1DF002C014F003C015F02C
:101CE00004C016F005C017F00B68030E0C6E0D6AE9
:101CF0000E6A02C006F003C007F004C008F005C079
:101D000009F042EC1CF006C014F007C015F008C042
:101D100016F009C017F0065010260750112208507F
:101D200012220950132210C004F111C005F1080E4F
:101D3000E66E340EE66EFDEC0FF0E552E55204C19E
:101D400010F005C111F0126A136A04C1E6FF05C163
:101D5000E6FF12C0E6FF13C0E6FFAFEC11F0E5525C
:101D6000E552E552E552FF0EE66E330EE66EFDECEF
:101D70000FF0E552E55206C110F007C111F0126AEA
:101D8000136A06C1E6FF07C1E6FF12C0E6FF13C0F3
:101D9000E6FFAFEC11F0E552E552E552E552F30EE5
:101DA000E66E330EE66EFDEC0FF0E552E55208C12B
:101DB00010F009C111F0126A136A08C1E6FF09C1E7
:101DC000E6FF12C0E6FF13C0E6FFAFEC11F0E552EC
:101DD000E552E552E552E70EE66E330EE66EFDEC97
:101DE0000FF0E552E5520EC110F00FC111F0126A6A
:101DF000136A0EC1E6FF0FC1E6FF12C0E6FF13C073
:101E0000E6FFAFEC11F0E552E552E552E552DE0E89
:101E1000E66E330EE66EFDEC0FF0E552E5520AC1B8
:101E200010F00BC111F0126A136A0AC1E6FF0BC170
:101E3000E6FF12C0E6FF13C0E6FFAFEC11F0E5527B
:101E4000E552E552E552D20EE66E330EE66EFDEC3B
:101E50000FF0E552E5520CC110F00DC111F0126AFD
:101E6000136A0CC1E6FF0DC1E6FF12C0E6FF13C006
:101E7000E6FFAFEC11F0E552E552E552E552C50E32
:101E8000E66E330EE66EFDEC0FF0E552E55210C142
:101E900010F011C111F0126A136A10C1E6FF11C1EE
:101EA000E6FF12C0E6FF13C0E6FFAFEC11F0E5520B
:101EB000E552E552E552BC0EE66E330EE66EFDECE1
:101EC0000FF0E552E552040EE15C02E2E16AE552F0
:101ED000E16EE552E7CFD9FF12003FDE000904E0D2
:101EE00076C1D2F177C1D3F140DE000904E076C1BA
:081EF000D6F177C1D7F1120011
:081EF800B06A810EAF6EAC8AE6
:101F0000AC94B886AC98AB8EAB889E9A9D8A9F9A0B
:101F1000949C948E1200D9CFE6FFE1CFD9FF040E36
:101F2000E126DE6ADD6ADECF10F0DDCF11F0FD0EB6
:101F3000DBCF12F0FE0EDBCF13F011501318E8AE1A
:101F400002D0133404D01250105C135011581DE20B
:101F5000020EDB6A030EDB6A020EDBCF10F0030E0B
:101F6000DBCF11F0D890115004E6EE0E105C000E9D
:101F7000115806E2020EDB2A030EEEE3DB2AECD751
:101F8000DF2A010ED0E3DB2ACED7040EE15C02E2A9
:101F9000E16AE552E16EE552E7CFD9FF1200D9CFF1
:101FA000E6FFE1CFD9FF9EA8FED7FE0EDB50AD6E57
:101FB0009E98E552E7CFD9FF1200D9CFE6FFE1CFD7
:101FC000D9FFFD0EDBCFE9FFFE0EDBCFEAFFEF50BE
:101FD00010E0FD0EDBCFE9FFFE0EDBCFEAFFEF5096
:101FE000E66EDDDFE552FD0EDB2AFE0EEAE3DB2ABC
:101FF000E8D7E552E7CFD9FF1200D9CFE6FFE1CF0E
:10200000D9FFFD0EDBCFF6FFFE0EDBCFF7FF08009A
:10201000F55015E0FD0EDBCFF6FFFE0EDBCFF7FF30
:102020000800F550E66EBBDFE552FD0EDBCFF6FF94
:10203000DB2AFE0EDBCFF7FFE4E3DB2AE2D7E55233
:10204000E7CFD9FF1200D9CFE6FFE1CFD9FF050EC8
:10205000E126010EF36EDB6E020EDB6A030EDB6A15
:10206000040EDB6ADF6ADFCF10F0116A10BE116860
:10207000FB0EDBCF12F0FC0EDBCF13F01150131868
:10208000E8AE02D0133404D01250105C1350115833
:102090002DE2FD0EDBCF10F0FE0EDBCF11F0126A49
:1020A000136A11AE02D012681368D950010FE96E9D
:1020B000DACFEAFF10C00BF011C00CF012C00DF027
:1020C00013C00EF0EECF06F0EECF07F0EECF08F023
:1020D000EFCF09F074EC1DF005C0EDFF04C0EDFF7B
:1020E00003C0EDFF02C0EFFFDF2ABDD7010EDBCF3B
:1020F00010F0020EDBCF11F0030EDBCF12F0040E56
:10210000DBCF13F010C006F011C007F012C008F0CA
:1021100013C009F0050EE15C02E2E16AE552E16EEE
:10212000E552E7CFD9FF1200D9CFE6FFE1CFD9FFC3
:10213000020EE126DF6AFB0EDBCF10F0FC0EDBCFD8
:1021400011F0FD0EDBCF12F0FE0EDBCF13F01050BE
:1021500011101210131005E1300EE66E20DFE5526B
:10216000F4D0D950FB0FE96EFF0EDA20EA6ED8905A
:10217000030EEB50000A08E6000EEE5C000EEE586F
:10218000000EEE58000EEE5815E22D0EE66E07DF3B
:10219000E552D950FB0FE96EFF0EDA20EA6E000E11
:1021A000EE6CEF1EEE22EF1EEE22EF1EEF22ED523E
:1021B000ED52ED52DE520A0EDD6E010EDBCF10F055
:1021C000000EE76E1018E8AE02D0103403D0E750CE
:1021D000D880105401E3B9D0010EDB04146E156AE7
:1021E00014BE156814C0E6FF15C0E6FF0A0EE66EC1
:1021F000E66A29DFE552E552E552E55206C010F0E5
:1022000007C011F008C012F009C013F006C00BF0AF
:1022100007C00CF008C00DF009C00EF0FB0EDBCFBC
:1022200006F0FC0EDBCF07F0FD0EDBCF08F0FE0E54
:10223000DBCF09F0ACEC1DF00650071008100910B8
:1022400041E0010EDF6EDB04186E196A18BE1968D2
:1022500018C0E6FF19C0E6FF0A0EE66EE66AF3DE76
:10226000E552E552E552E55206C014F007C015F0FC
:1022700008C016F009C017F006C00BF007C00CF03C
:1022800008C00DF009C00EF0FB0EDBCF06F0FC0E0F
:10229000DBCF07F0FD0EDBCF08F0FE0EDBCF09F041
:1022A000ACEC1DF006C010F007C011F008C012F031
:1022B00009C013F0300E1026000E11221222132234
:1022C000105003D0DF5004E0300EE66E68DEE552B9
:1022D000010EDB04146E156A14BE156814C0E6FF07
:1022E00015C0E6FF0A0EE66EE66AADDEE552E5527F
:1022F000E552E55206C010F007C011F008C012F018
:1023000009C013F0D950FB0FE96EFF0EDA20EA6E18
:1023100006C00BF007C00CF008C00DF009C00EF0AD
:10232000EECF06F0EECF07F0EECF08F0EFCF09F0DA
:10233000ACEC1DF005C0EDFF04C0EDFF03C0EDFFE8
:1023400002C0EFFF010EDB0638D7020EE15C02E2AD
:10235000E16AE552E16EE552E7CFD9FF1200D9CF2D
:10236000E6FFE1CFD9FFFB0EDBCF10F0FC0EDBCF99
:1023700011F0FD0EDBCF12F0FE0EDBCF13F0640E7A
:102380000B6E0C6A0D6A0E6A10C006F011C007F0E1
:1023900012C008F013C009F042EC1CF006C010F0A7
:1023A00007C011F008C012F009C013F006C0E6FF24
:1023B00007C0E6FF08C0E6FF09C0E6FFB5DEE5524C
:1023C000E552E552E5522E0EE66EE9DDE552FB0ED2
:1023D000DBCF10F0FC0EDBCF11F0FD0EDBCF12F0E7
:1023E000FE0EDBCF13F0640E0B6E0C6A0D6A0E6AE4
:1023F00010C006F011C007F012C008F013C009F0B9
:1024000042EC1CF002C010F003C011F004C012F046
:1024100005C013F002C0E6FF03C0E6FF04C0E6FFFC
:1024200005C0E6FF81DEE552E552E552E552E55290
:10243000E7CFD9FF1200D9CFE6FFE1CFD9FFE652AF
:10244000AE50DF6EB80EE66E330EE66EE66A010E33
:10245000E66E25EC07F0E552E552E552E552DFCF96
:1024600010F0116A126A136A10C0E6FF11C0E6FF8D
:1024700012C0E6FF13C0E6FFE66A010EE66EFEEC50
:1024800005F0146E060EE15E1450E552E552E7CFFA
:04249000D9FF12005E
:0C249400D9CFE6FFE1CFD9FFD59EFD0EA9
:1024A000DBCF28FFFE0EDBCF29FFD59C1368146815
:1024B000156A28CF16F029CF17F0186A1650135C4A
:1024C000106E17501458116E18501558126E0C6A71
:1024D000010E0D6E0E6A10C007F011C008F012C098
:1024E00009F015EC1CF00350D66E13681468156AD9
:1024F00028CF16F029CF17F0186A1650135C106E0B
:1025000017501458116E18501558126E0C6A010E9F
:102510000D6E0E6A10C007F011C008F012C009F06D
:1025200015EC1CF007C010F008C011F009C012F043
:102530000750D76ED59AD586F28AF294F184D58E5B
:10254000E552E7CFD9FF1200D59E12001368146838
:10255000156A28CF16F029CF17F0186A1650135CA9
:10256000106E17501458116E18501558126E0C6AD0
:10257000010E0D6E0E6A10C007F011C008F012C0F7
:1025800009F015EC1CF00350D66E13681468156A38
:1025900028CF16F029CF17F0186A1650135C106E6A
:1025A00017501458116E18501558126E0C6A010EFF
:1025B0000D6E0E6A10C007F011C008F012C009F0CD
:1025C00015EC1CF007C010F008C011F009C012F0A3
:1025D0000750D76ED58E1200D9CFE6FFE1CFD9FFD5
:1025E000CD90FD0EDBCF2AFFFE0EDBCF2BFF136855
:1025F0001468156A2ACF16F02BCF17F0186A1650F8
:10260000135C106E17501458116E18501558126E36
:102610000C6A010E0D6E0E6A10C007F011C008F0B2
:1026200012C009F015EC1CF00750CF6E1368146847
:10263000156A2ACF16F02BCF17F0186A1650135CC4
:10264000106E17501458116E18501558126E0C6AEF
:10265000010E0D6E0E6A10C007F011C008F012C016
:1026600009F015EC1CF003C010F004C011F005C017
:1026700012F00350CE6E9D809E909F90CD8ECD8C9B
:10268000CD98CD9ACD96CD92CD80E552E7CFD9FFAA
:10269000120013681468156A2ACF16F02BCF17F0B2
:1026A000186A1650135C106E17501458116E18509B
:1026B0001558126E0C6A010E0D6E0E6A10C007F0EE
:1026C00011C008F012C009F015EC1CF00750CF6ED5
:1026D00013681468156A2ACF16F02BCF17F0186A02
:1026E0001650135C106E17501458116E1850155870
:1026F000126E0C6A010E0D6E0E6A10C007F011C04A
:1027000008F012C009F015EC1CF003C010F004C072
:1027100011F005C012F00350CE6ECD801200CD90A6
:102720001200D9CFE6FFE1CFD9FFCA94CC6AFE0EE2
:10273000DB500F012C6F2D6BCB6E9D829E929F9272
:10274000CA90CA92CA84E552E7CFD9FF12002CCFB3
:10275000CBFFCA841200CA941200D9CFE6FFE1CFA2
:10276000D9FFB190FD0EDBCF2EFFFE0EDBCF2FFF8A
:1027700013681468156A2ECF16F02FCF17F0186A59
:102780001650135C106E17501458116E18501558CF
:10279000126E0C6A010E0D6E0E6A10C007F011C0A9
:1027A00008F012C009F015EC1CF00750B36E136866
:1027B0001468156A2ECF16F02FCF17F0186A16502E
:1027C000135C106E17501458116E18501558126E75
:1027D0000C6A010E0D6E0E6A10C007F011C008F0F1
:1027E00012C009F015EC1CF003C010F004C011F089
:1027F00005C012F00350B26EA082A192A292B18ED7
:10280000B198B19AB192B180E552E7CFD9FF1200E9
:1028100013681468156A2ECF16F02FCF17F0186AB8
:102820001650135C106E17501458116E185015582E
:10283000126E0C6A010E0D6E0E6A10C007F011C008
:1028400008F012C009F015EC1CF00350B26E1368CA
:102850001468156A2ECF16F02FCF17F0186A16508D
:10286000135C106E17501458116E18501558126ED4
:102870000C6A010E0D6E0E6A10C007F011C008F050
:1028800012C009F015EC1CF007C010F008C011F0E0
:1028900009C012F00750B36EB1801200B19012005F
:1028A0000F01382B000E39234051385D4151395901
:1028B00004E3386B396B010E306F12000F013A2BB5
:1028C000000E3B2342513A5D43513B5904E33A6BBE
:1028D0003B6B010E316F12000F013C2B000E3D23AC
:1028E00044513C5D45513D5904E33C6B3D6B010E49
:1028F000326F12000F013E2B000E3F2346513E5D0A
:1029000047513F5904E33E6B3F6B010E336F12009A
:10291000D9CFE6FFE1CFD9FFFD0EDBCF40FFFE0EA2
:10292000DBCF41FF0F01386B396B306BE552E7CFDE
:10293000D9FF1200D9CFE6FFE1CFD9FFFD0EDBCFE3
:1029400042FFFE0EDBCF43FF050E0D6E0E6A42CF37
:1029500008F043CF09F0EFEC1BF008C042FF09C0BC
:1029600043FF0F013A6B3B6B316BE552E7CFD9FF69
:102970001200D9CFE6FFE1CFD9FFFD0EDBCF46FF36
:10298000FE0EDBCF47FF0A0E0D6E0E6A46CF08F033
:1029900047CF09F0EFEC1BF008C046FF09C047FF26
:1029A0000F013E6B3F6B336BE552E7CFD9FF12004F
:1029B0000F0E946E82681200CF0E9414946E82688B
:1029C0001200D9CFE6FFE1CFD9FF040EE126DE6A7F
:1029D000DD6ADECF10F0DDCF11F0D890115004E6A3
:1029E000040E105C000E115801E390D0DECFE9FF19
:1029F000DDCFEAFF200EE9260F0EEA22EF1C826EE1
:102A0000020EDB6A030EDB6A020EDBCF10F0030E50
:102A1000DBCF11F0D890115004E6040E105C000ECC
:102A200011586EE2020EDBCFE9FF030EDBCFEAFFA7
:102A3000240EE9260F0EEA22EF5082143FE1DECF8A
:102A400014F0DDCF15F0D89014361536D890143622
:102A50001536020EDB501424E96E030EDB501520F0
:102A6000EA6ED890E936EA36000EE9260F0EEA2221
:102A7000EECF12F0EFCF13F0010E1226000E13224C
:102A8000DECF10F0DDCF11F0D89010361136D8908F
:102A900010361136020EDB501024E96E030EDB50A7
:102AA0001120EA6ED890E936EA36000EE9260F0EBC
:102AB000EA2212C0EEFF13C0EDFF1BD0DECF10F0F4
:102AC000DDCF11F0D89010361136D890103611366F
:102AD000020EDB501024E96E030EDB501120EA6E6B
:102AE000D890E936EA36000EE9260F0EEA22EE6AA1
:102AF000ED6A020EDB2A030E01E286D7DB2A84D7B9
:102B0000DF2A010E01E265D7DB2A63D7040EE15C00
:102B100002E2E16AE552E16EE552E7CFD9FF120029
:102B2000D9CFE6FFE1CFD9FF040EE126DE6ADD6AE8
:102B3000DECF10F0DDCF11F0D890115004E6020E78
:102B4000105C000E115801E394D0DECFE9FFDDCF19
:102B5000EAFF200EE9260F0EEA22EF1C8214826E95
:102B60000F0E8210826E020EDB6A030EDB6A020E0B
:102B7000DBCF10F0030EDBCF11F0D890115004E63C
:102B8000040E105C000E11586EE2020EDBCFE9FF5E
:102B9000030EDBCFEAFF240EE9260F0EEA22EF50E8
:102BA00082143FE1DECF14F0DDCF15F0D89014365B
:102BB0001536D89014361536020EDB501424E96E03
:102BC000030EDB501520EA6ED890E936EA36000E87
:102BD000E9260F0EEA22EECF12F0EFCF13F0010E2E
:102BE0001226000E1322DECF10F0DDCF11F0D890A8
:102BF00010361136D89010361136020EDB501024E4
:102C0000E96E030EDB501120EA6ED890E936EA3601
:102C1000000EE9260F0EEA2212C0EEFF13C0EDFFF0
:102C20001BD0DECF10F0DDCF11F0D890103611366A
:102C3000D89010361136020EDB501024E96E030EC8
:102C4000DB501120EA6ED890E936EA36000EE9260C
:102C50000F0EEA22EE6AED6A020EDB2A030E01E293
:102C600086D7DB2A84D7DF2A010E01E261D7DB2A6F
:102C70005FD7040EE15C02E2E16AE552E16EE552E3
:102C8000E7CFD9FF1200D9CFE6FFE1CFD9FF040E7D
:102C9000E126DE6ADD6ADECF10F0DDCF11F0FD0E39
:102CA000DBCF12F0FE0EDBCF13F011501318E8AE9D
:102CB00002D0133404D01250105C135011581DE28E
:102CC000020EDB6A030EDB6A020EDBCF10F0030E8E
:102CD000DBCF11F0D890115004E6EE0E105C000E20
:102CE000115806E2020EDB2A030EEEE3DB2AECD7D4
:102CF000DF2A010ED0E3DB2ACED7040EE15C02E22C
:102D0000E16AE552E16EE552E7CFD9FF1200D9CF73
:102D1000E6FFE1CFD9FF040EE126DE6ADD6ADECFF1
:102D200010F0DDCF11F0D890115004E6040E105CC5
:102D3000000E115875E2DECFE9FFDDCFEAFF200E6D
:102D4000E9260F0EEA22EF1C826E020EDB6A030EEA
:102D5000DB6A020EDBCF10F0030EDBCF11F0D89050
:102D6000115004E6040E105C000E11584AE2DECF4A
:102D700010F0DDCF11F0D89010361136D890103603
:102D80001136020EDB501024E96E030EDB501120C9
:102D9000EA6ED890E936EA36000EE9260F0EEA22EE
:102DA000EE6AED6A020EDBCFE9FF030EDBCFEAFF2E
:102DB000240EE9260F0EEA22EF5082141CE1DECF2A
:102DC00010F0DDCF11F0D89010361136D8901036B3
:102DD0001136020EDB501024E96E030EDB50112079
:102DE000EA6ED890E936EA36000EE9260F0EEA229E
:102DF000010EEE6EED6A020EDB2A030EAAE3DB2A59
:102E0000A8D78250816EE80EE66E030EE66E3BDFB9
:102E1000E552E552DF2A010E01E281D7DB2A7FD796
:102E2000040EE15C02E2E16AE552E16EE552E7CFB1
:042E3000D9FF1200B4
:0C2E3400050E0101BC1901E1BD5101E1D6
:102E40007DD1040EBC1901E1BD5101E134D1030E65
:102E5000BC1901E1BD5101E1CDD0020EBC1901E167
:102E6000BD5130E0010EBC1901E1BD510AE0BC5179
:102E700001E1BD5101E01200010EBC6FBD6BAEEF70
:102E80001CF0AEEC1CF0B4EC08F00F010A0E045D6F
:102E9000000E055901E26ED104CF10F00001116A55
:102EA000010E101610180DE1115001E063D101015F
:102EB000C06BC16B020E0101BC6FBD6B0F01046BD7
:102EC000056B12000F010A0E025D000E035914E398
:102ED00002CF10F00001116A010E101610180CE15B
:102EE00011500AE10101C06BC16B010E0101BC6F01
:102EF000BD6B0F01026B036B0F010A0E045D000E28
:102F0000055914E304CF10F00001116A010E1016E8
:102F100010180CE111500AE10101C06BC16B030EE6
:102F20000101BC6FBD6B0F01046B056B0F010A0E35
:102F3000065D000E075914E306CF10F00001116A78
:102F4000010E101610180CE111500AE10101C06BBE
:102F5000C16B040E0101BC6FBD6B0F01066B076BEB
:102F60000F010A0E085D000E095914E308CF10F096
:102F70000001116A010E101610180CE111500AE13F
:102F80000101C06BC16B050E0101BC6FBD6B0F0170
:102F9000086B096B0F010A0E005D000E015928E352
:102FA00000CF10F00001116A010E1016101820E178
:102FB00011501EE1010E0101C025C06F000EC1219C
:102FC000C16F030E0D6E0E6AC0C108F0C1C109F0D9
:102FD000EFEC1BF004C0C0F105C0C1F101010450C9
:102FE000051003E1010EC06FC16B0F01006B016B97
:102FF00090EF09F00F010A0E005D000E015928E361
:1030000000CF10F00001116A010E1016101820E117
:1030100011501EE1010E0101C025C06F000EC1213B
:10302000C16F080E0D6E0E6AC0C108F0C1C109F073
:10303000EFEC1BF004C0C0F105C0C1F10101045068
:10304000051003E1010EC06FC16B0F01006B016B36
:103050000F010A0E025D000E035911E302CF10F0BA
:103060000001116A010E1016101809E1115007E154
:10307000040E0101BC6FBD6B0F01026B036B0F01EE
:103080000A0E045D000E055914E304CF10F0000190
:10309000116A010E101610180CE111500AE1020E0F
:1030A0000101BC6FBD6B0101C06BC16B0F01046BF3
:1030B000056BDEEF09F090EC0AF00F010A0E025DDD
:1030C000000E035911E302CF10F00001116A010E46
:1030D0001016101809E1115007E10101BE2B000E76
:1030E000BF230F01026B036B0F010A0E045D000E7C
:1030F000055940E304CF10F00001116A010E1016CB
:1031000010181BE1115036E1C0C1E9FFC1C1EAFF4F
:10311000E906000EEA5AD890E936EA36E60EE926C4
:10312000010EEA22BEC1EEFFBFC1EDFF030E010199
:10313000BC6FBD6B0F01046B056B1200C7EC0AF08E
:103140000F010A0E045D000E055914E304CF10F0C0
:103150000001116A010E101610180CE111500AE15D
:10316000020E0101BC6FBD6B0101C06BC16B0F0191
:06317000046B056B120068
:0A317600D9CFE6FFE1CFD9FF020E2A
:10318000E126FE0EDB500F0BDF6EFE0EDB380F0B61
:103190000A0D010EF3CFDBFFDB50DF24106E020EB1
:1031A000E15C02E2E16AE552E16E1050E552E7CFE0
:1031B000D9FF1200D9CFE6FFE1CFD9FF020EE126F9
:1031C0000A0E106E0E6EFE0EDBCF09F021EC1EF023
:1031D0000550DF6E0A0E106E0E6EFE0EDBCF09F08C
:1031E00021EC1EF00950100D010EF3CFDBFFDB5078
:1031F000DF24106E020EE15C02E2E16AE552E16E4C
:103200001050E552E7CFD9FF12009496949812001F
:10321000D9CFE6FFE1CFD9FFE652DF6AFE0EDB50E1
:10322000DF5C02E2DF2AFAD7E552E552E7CFD9FFA9
:10323000120082A8000C010C0101FE5102E08288FC
:10324000828682988296010EFE6F12008298828694
:1032500082880101FE6B1200D9CFE6FFE1CFD9FFD2
:10326000020EE126DF6ADFCF10F0080EE76E1018BD
:10327000E8AE02D0E73402D0E750105C0FE2FE0E59
:10328000DBBE02D0829801D0828882868296DB5093
:10329000020DFE0EF3CFDBFFDF2AE5D7948882868E
:1032A000C8DFE76E010EE7CFDBFF82969498DB5014
:1032B000106E020EE15C02E2E16AE552E16E10502E
:1032C000E552E7CFD9FF1200D9CFE6FFE1CFD9FF12
:1032D000020EE126DF6A9488010EDB6ADBCF10F074
:1032E000080EE76E1018E8AE02D0E73402D0E750BF
:1032F000105C0BE282869DDF106EDF50E824101018
:10330000DF6E8296010EDB2AE9D79498FE0EDB5021
:1033100002E0828801D0829882868296DF50106E09
:10332000020EE15C02E2E16AE552E16E1050E55204
:10333000E7CFD9FF1200D9CFE6FFE1CFD9FF7CDF7D
:10334000D00EE66E89DFE552FE0EDBCFE6FF84DFAE
:10335000E552FD0EDBCFE6FF2DDFE552E66E7CDFAA
:10336000E55274DFE552E7CFD9FF1200D9CFE6FF6F
:10337000E1CFD9FFE65260DFD00EE66E6DDFE55299
:10338000FE0EDBCFE6FF68DFE55256DFD10EE66EBC
:1033900063DFE552010EE66E97DFE552DF6EDFCFA9
:1033A000E6FFE9DEE552DF6E51DFDF50E552E55220
:0633B000E7CFD9FF120077
:0A33B6002E0020202000206D332F90
:1033C00068200D0A00206D672F6C20464C4F573D3A
:1033D0002000206D672F6C204E4F333D200020438E
:1033E000204E48343D2000206D672F6C20544D50F6
:1033F0003D2000206D672F6C204353423D2000206C
:1034000070482053533D200032302E30342E313658
:103410002030393A31323A3037202070483D202070
:10342000004B484F4E472043414E482042414F00F9
:10343000464C4F572043414F2000544D50204341AC
:103440004F2000544D503D2020004E4F332043412B
:103450004F20004E4F333D2020004E483420434142
:103460004F20004E48343D20200053532043414F0D
:10347000200053533D202000434F442043414F2020
:1034800000434F443D20200050482043414F20003E
:1034900050483D202000332E205361766500496E50
:1034A0007075743A20002D3E53455420464C4F57BA
:1034B00020542E48002D3E534554204E4F33205467
:1034C0002E48002020534554204E483420542E4886
:1034D000002020534554204E4F3320542E48002DB9
:1034E0003E534554204E483420542E48002D3E5320
:1034F000455420535320542E480020205345542037
:10350000504820542E480020205345542053532027
:10351000542E48002D3E53455420504820542E48E8
:10352000002D3E53455420434F4420542E48002044
:103530002053455420544D5020542E4800202053F1
:10354000455420434F4420542E48002D3E534554AB
:1035500020544D5020542E48002A2A2A2A4D4F44E8
:10356000452A2A2A2A0020534554205448524553BC
:10357000484F4C442000342E2053454520414C41B7
:10358000524D00332E205345542041444300322EE7
:10359000205345542054482E484F4C4400312E208F
:1035A000444953504C41592054494D45002A2A2A38
:1035B0002A2A2A2A2A2A2A2A2A2A2A002A2A2A2A95
:1035C000204D454E55202A2A2A2A004820203A20FC
:0935D000204D20203A2020530078
:0135D90000F1
:0635DA00F28ED08EF28C8F
:1035E0001200F19CF292F2881200D8CFE4FFE0CFF3
:1035F000E4FFE46EDACFE4FFE2CFDAFFE9CFE4FFE5
:10360000EACFE4FFF6CFE4FFF7CFE4FFF5CFE4FF26
:10361000F3CFE4FFF4CFE4FFFACFE4FF00EE00F0D5
:10362000100EE80403E3EECFE4FFFBD700EE10F04A
:10363000100EE80403E3EECFE4FFFBD7E652F2A45A
:1036400007D0A4EC12F0F294A6EC12F050EC14F0B7
:103650009EA007D08FEC13F09E9049EC13F05EEC27
:1036600014F0A1A207D04EEC14F0A19208EC14F0D3
:103670007AEC14F0F2B2F2929EAA03D09E9A1BEC5E
:1036800012F0E55200EE1FF0100EE80403E3E5CF60
:10369000EDFFFBD700EE0FF0100EE80403E3E5CFDB
:1036A000EDFFFBD7E5CFFAFFE5CFF4FFE5CFF3FF62
:1036B000E5CFF5FFE5CFF7FFE5CFF6FFE5CFEAFF72
:1036C000E5CFE9FFE5CFDAFFE550E5CFE0FFE5CF55
:1036D000D8FF1000DACFE4FFE2CFDAFFE9CFE4FF52
:1036E000EACFE4FFF6CFE4FFF7CFE4FFF5CFE4FF46
:1036F000F3CFE4FFF4CFE4FFFACFE4FF00EE00F0F5
:10370000100EE80403E3EECFE4FFFBD700EE10F069
:10371000100EE80403E3EECFE4FFFBD7E652F2A479
:1037200007D0A4EC12F0F294A6EC12F050EC14F0D6
:103730009EA007D08FEC13F09E9049EC13F05EEC46
:1037400014F0A1A207D04EEC14F0A19208EC14F0F2
:103750007AEC14F0F2B2F2929EAA03D09E9A1BEC7D
:1037600012F0E55200EE1FF0100EE80403E3E5CF7F
:10377000EDFFFBD700EE0FF0100EE80403E3E5CFFA
:10378000EDFFFBD7E5CFFAFFE5CFF4FFE5CFF3FF81
:10379000E5CFF5FFE5CFF7FFE5CFF6FFE5CFEAFF91
:0A37A000E5CFE9FFE5CFDAFF1100E5
:0637AA00006A0EAEDBEF29
:1037B0001BF00E6C001E09AEE0EF1BF0096C001E42
:1037C00021EC1EF009BEEAEF1BF000AE000C096C04
:1037D000056C000C00BEE7EF1BF00188FF0C006ACF
:1037E0000EAEF8EF1BF00D6C0E1EE86A0E22001EE6
:1037F00009AE00EF1CF0086C091EE86A0922001EE1
:10380000EDEC1DF009BE10EF1CF000AE000C086CD2
:10381000091EE86A0922046C051EE86A0522000CEC
:1038200000BE07EF1CF00188FF0C006A0EAE20EF0F
:103830001CF00C6C0D1E0E1EE86A0D220E22001EDE
:1038400009AE2AEF1CF0076C081E091EE86A082260
:103850000922001ED0EC1DF009BE3DEF1CF000AEA9
:10386000000C076C081E091EE86A08220922036C76
:10387000041E051E04220522000C00BE31EF1CF0C0
:103880000188FF0C006AE86A0EAE4FEF1CF00B6C6B
:103890000C1E0D1E0E1E0C220D220E22001E09AE45
:1038A0005AEF1CF0066C071E081E091E072208228C
:1038B0000922001EACEC1DF009BE71EF1CF000AE39
:1038C000000C066C071E081E091EE86A0722082263
:1038D0000922026C031E041E051E03220422052277
:0C38E000000C00BE61EF1CF00188FF0C22
:0438EC0058CFE6FFCC
:1038F000E66A9BEC19F0E552E55259CFE6FF010E5E
:10390000E66E9BEC19F0E552E5525ACFE6FF020E47
:10391000E66E9BEC19F0E552E5525BCFE6FF030E35
:10392000E66E9BEC19F0E552E5525CCFE6FF040E23
:10393000E66E9BEC19F0E552E5525DCFE6FF050E11
:10394000E66E9BEC19F0E552E5525ECFE6FF060EFF
:10395000E66E9BEC19F0E552E5521200E66AB6EC11
:1039600019F0E5520F01586F010EE66EB6EC19F032
:10397000E5520F01596F020EE66EB6EC19F0E552F2
:103980000F015A6F030EE66EB6EC19F0E5520F0107
:103990005B6F040EE66EB6EC19F0E5520F015C6F3A
:1039A000050EE66EB6EC19F0E5520F015D6F060EDE
:0E39B000E66EB6EC19F0E5520F015E6F1200E4
:0239BE001E0EDB
:1039C000F66E000EF76E000EF86E01010900F5505C
:1039D000F96F0900F550FA6F03E1F96701D03DD0A6
:1039E0000900F550F46F0900F550F56F0900F55026
:1039F000F66F09000900F550E96E0900F550EA6E0E
:103A0000090009000900F550F76F0900F550F86F3B
:103A100009000900F6CFFBF1F7CFFCF1F8CFFDF17B
:103A2000F4C1F6FFF5C1F7FFF6C1F8FF0101F75346
:103A300002E1F85307E00900F550EE6EF707F8E2EF
:103A4000F807F9D7FBC1F6FFFCC1F7FFFDC1F8FF8E
:0C3A50000101F907000EFA5BBFD712005D
:043A5C000F0E926E49
:103A60000B0EC16E040EC06E1200D9CFE6FFE1CF7F
:103A7000D9FF020EE126FE0EDB50040DF350C26E9C
:103A8000C280C282C2B2FED7C450DE6EDD6ADECF13
:103A900012F0DDCF13F0D89012361336D8901236CC
:103AA0001336060EC3CFE7FF070B04E0E742E79E9D
:103AB000E806FCE1E7501224106E000E132010C03F
:103AC000DEFFDD6EDECF10F0DDCF11F010C0F3FFB2
:103AD00011C0F4FF020EE15C02E2E16AE552E16E20
:083AE000E552E7CFD9FF120007
:083AE80006500B02F3CF02F0BF
:103AF000F4CF03F00C02F3500326000EF420046E02
:103B000006500D02F3500426000EF420056E0650F8
:103B10000E02F350052607500B02F3500326F45013
:103B20000422000E052207500C02F3500426F45024
:103B3000052207500D02F350052608500B02F350E2
:103B40000426F450052208500C02F35005260950B3
:083B50000B02F35005261200E0
:083B5800056A046A036A026AAF
:103B6000200EE76ED890063607360836093602363C
:103B70000336043605360B50025C0C5003580D50CA
:103B800004580E50055809E30B50025E0C50035ABE
:103B90000D50045A0E50055A062AE72EE4D712009B
:103BA000056A046A036A180EE76ED890073608366D
:103BB00009360336043605360C50035C0D500458A4
:103BC0000E50055807E30C50035E0D50045A0E507A
:0A3BD000055A072AE72EEAD7120073
:063BDA00056A046A100EEA
:103BE000E76ED89008360936043605360D50045C69
:103BF0000E50055805E30D50045E0E50055A082A74
:063C0000E72EF0D71200D0
:0A3C0600800EF36E00EE00F00F0ECA
:103C100001D81200EA6002D0EE6AFCD7F350E960E6
:063C20001200EE6AFCD761
:0A3C26001EEE00F02EEE00F0F86A2A
:103C3000019CDFEC1CF003EC00F02AEC0CF0FBD74D
:023C4000120070
:0E3C4200056A080EE76ED890093605360E505A
:0E3C5000055C02E3056E092AE72EF7D7120085
:023C5E00000064
:103C60000000000000000000000000000000000054
:0E3C7000000000000000010001000100010042
:023C7E00010241
:0E3C800004081020408000000000000000003A
:023C8E00000034
:103C90000000000000001010101010101010181874
:103CA0001818181818181C1C1C1C1C1C1C1C1E1E68
:103CB0001E1E1E1E1E1E1F1F1F1F1F1F1F1F000058
:103CC00000000000000000000000000000000000F4
:103CD00000000000000000000000000000000000E4
:0F3CE000000000000000000000000000000000D5
:013CEF0000D4
:103CF00000000000009001000000000000E803D078
:103D0000070000C40900008813FF03E803E803105C
:103D100027204E88131027A08C200300000000E805
:073D200003D00700000000C2
:073D27001E02110C0C0C162A
:023D2E00000093
:103D30000000000000000000000000000000000083
:103D40000000000000000000000000000000102043
:063D50004080010204089E
:020000040030CA
:0100010002FC
:0100020003FA
:010003001EDE
:010005008179
:010006008178
:010008000FE8
:01000900C036
:01000A000FE6
:01000B00E014
:01000C000FE4
:01000D0040B2
:00000001FF
