:020000040000FA
:0600000019EF29F01200C7
:020006001200E6
:0600080070EF26F012006B
:02000E000000F0
:020010000000EE
:06001800FBEF25F01200D1
:02001E000800D8
:100020007C530000BE010000280000007553000052
:100030002002000007000000FB52000080000000CA
:100040007A000000A5490000FE0000000100000049
:100050000E000000FA000000040000009A520000A8
:10006000000F0000610000008A520000610F0000D4
:10007000100000006A520000000200002000000092
:1000800068EC10F002012351070A24E0010A1EE087
:10009000030A18E0010A12E0070A0CE0010A06E070
:1000A000030A1CE1A10EE66E490E1BD09D0EE66E02
:1000B000490E17D0990EE66E490E13D0950EE66ED6
:1000C000490E0FD0910EE66E490E0BD08D0EE66EE6
:1000D000490E07D0890EE66E490E03D0850EE66EF6
:1000E000490EE66EE66AE66ADDEC12F0E552E5528C
:1000F000E552E5520A0E146E0E6E22C209F0DBECD8
:1001000026F009C010F0116A126A136A10AE03D00B
:1001100011681268136810C0E6FF11C0E6FF12C034
:10012000E6FF13C0E6FF040EE66EE66AB6EC11F0D9
:10013000156E060EE15E155022C209F00A0E0E6E13
:10014000DBEC26F005C010F0116A126A136A10AEDB
:1001500003D011681268136810C0E6FF11C0E6FFF3
:1001600012C0E6FF13C0E6FF050EE66EE66AB6ECC7
:1001700011F0146E060EE15E1450830EE66E490E09
:10018000E66E060EE66EE66ADDEC12F0E552E5522A
:10019000E552E5520A0E146E0E6E21C209F0DBEC38
:1001A00026F009C010F0116A126A136A10AE03D06B
:1001B00011681268136810C0E6FF11C0E6FF12C094
:1001C000E6FF13C0E6FF070EE66EE66AB6EC11F036
:1001D000156E060EE15E155021C209F00A0E0E6E74
:1001E000DBEC26F005C010F0116A126A136A10AE3B
:1001F00003D011681268136810C0E6FF11C0E6FF53
:1002000012C0E6FF13C0E6FF080EE66EE66AB6EC23
:1002100011F0146E060EE15E1450830EE66E490E68
:10022000E66E090EE66EE66ADDEC12F0E552E55286
:10023000E552E5520A0E146E0E6E20C209F0DBEC98
:1002400026F009C010F0116A126A136A10AE03D0CA
:1002500011681268136810C0E6FF11C0E6FF12C0F3
:10026000E6FF13C0E6FF0A0EE66EE66AB6EC11F092
:10027000156E060EE15E155020C209F00A0E0E6ED4
:10028000DBEC26F005C010F0116A126A136A10AE9A
:1002900003D011681268136810C0E6FF11C0E6FFB2
:1002A00012C0E6FF13C0E6FF0B0EE66EE66AB6EC80
:1002B00011F0146E060EE15E1450020125510C0A75
:1002C00042E0070A3CE0010A36E0030A30E0010A96
:1002D0002AE00F0A24E0010A1EE0030A18E0010ADE
:1002E00012E0070A0CE0010A06E0030A30E17F0E83
:1002F000E66E490E2FD07B0EE66E490E2BD0770EA0
:10030000E66E490E27D0730EE66E490E23D06F0EAF
:10031000E66E490E1FD06B0EE66E490E1BD0670EBF
:10032000E66E490E17D0630EE66E490E13D05F0ECF
:10033000E66E490E0FD05B0EE66E490E0BD0570EDF
:10034000E66E490E07D0530EE66E490E03D0850EB9
:10035000E66E490EE66E020EE66E010EE66EDDEC0E
:1003600012F0E552E552E552E552510EE66E490EA5
:10037000E66E050EE66E010EE66EDDEC12F0E5525D
:10038000E552E552E5520A0E146E0E6E24C209F0D3
:10039000DBEC26F009C010F0116A126A136A10AE85
:1003A00003D011681268136810C0E6FF11C0E6FFA1
:1003B00012C0E6FF13C0E6FF060EE66E010EE66E03
:1003C000B6EC11F0156E060EE15E155024C209F070
:1003D0000A0E0E6EDBEC26F005C010F0116A126AF0
:1003E000136A10AE03D011681268136810C0E6FFDC
:1003F00011C0E6FF12C0E6FF13C0E6FF070EE66E6F
:10040000010EE66EB6EC11F0146E060EE15E1450AD
:10041000510EE66E490EE66E080EE66E010EE66EB1
:10042000DDEC12F0E552E552E552E552140EE66EAF
:10043000E66AE66AE66A090EE66E010EE66EB6EC5C
:1004400011F0106E060EE15E10500A0E146E0E6E64
:1004500026C209F0DBEC26F009C010F0116A126A1E
:10046000136A10AE03D011681268136810C0E6FF5B
:1004700011C0E6FF12C0E6FF13C0E6FF0B0EE66EEA
:10048000010EE66EB6EC11F0156E060EE15E15502B
:1004900026C209F00A0E0E6EDBEC26F005C010F045
:1004A000116A126A136A10AE03D0116812681368D9
:1004B00010C0E6FF11C0E6FF12C0E6FF13C0E6FF62
:1004C0000C0EE66E010EE66EB6EC11F0146E060E22
:1004D000E15E1450120068EC10F0030E0001861962
:1004E00001E187513EE0020E861901E1875129E0C2
:1004F000010E861901E1875114E086514CE18751C4
:100500004AE1420EE66E490EE66EE66AE66ADDEC08
:1005100012F0E552E552E552E552330EE66E490E11
:100520002FD0230EE66E490EE66EE66AE66ADDEC33
:1005300012F0E552E552E552E552140EE66E490E10
:100540001FD0050EE66E490EE66EE66AE66ADDEC41
:1005500012F0E552E552E552E552FA0EE66E480E0B
:100560000FD0EB0EE66E480EE66EE66AE66ADDEC4C
:1005700012F0E552E552E552E552DE0EE66E480E07
:10058000E66EE66A010EE66EDDEC12F0E552E5522B
:10059000E552E5521200866B876B120068EC10F092
:1005A000070E0001861901E1875101E199D0060E7D
:1005B000861901E1875101E17FD0050E861901E11D
:1005C00087516AE0040E861901E1875155E0030E58
:1005D000861901E1875140E0020E861901E1875139
:1005E0002BE0010E861901E1875116E0865101E0EA
:1005F00084D0875101E081D0CE0EE66E480EE66EC3
:10060000E66AE66ADDEC12F0E552E552E552E552A3
:10061000C10EE66E480E5FD0B30EE66E480EE66E73
:10062000E66AE66ADDEC12F0E552E552E552E55283
:10063000A50EE66E480E4FD0970EE66E480EE66E9B
:10064000E66AE66ADDEC12F0E552E552E552E55263
:10065000890EE66E480E3FD07C0EE66E480EE66EC2
:10066000E66AE66ADDEC12F0E552E552E552E55243
:100670006F0EE66E480E2FD0620EE66E480EE66EE6
:10068000E66AE66ADDEC12F0E552E552E552E55223
:10069000550EE66E480E1FD0470EE66E480EE66E0B
:1006A000E66AE66ADDEC12F0E552E552E552E55203
:1006B000390EE66E480E0FD02B0EE66E480EE66E33
:1006C000E66AE66ADDEC12F0E552E552E552E552E3
:1006D0001D0EE66E480EE66EE66A010EE66E06D068
:1006E0000E0EE66E480EE66EE66AE66ADDEC12F085
:1006F000E552E552E552E5521200866B876B120017
:1007000068EC10F0070E0001861901E1875101E144
:1007100099D0060E861901E1875101E17FD0050EBF
:10072000861901E187516AE0040E861901E18751BB
:1007300055E0030E861901E1875140E0020E86194B
:1007400001E187512BE0010E861901E1875116E086
:10075000865101E084D0875101E081D0FD0EE66E24
:10076000470EE66EE66AE66ADDEC12F0E552E55207
:10077000E552E552EC0EE66E470E5FD0DE0EE66EF9
:10078000470EE66EE66AE66ADDEC12F0E552E552E7
:10079000E552E552D00EE66E470E4FD0C20EE66E21
:1007A000470EE66EE66AE66ADDEC12F0E552E552C7
:1007B000E552E552B40EE66E470E3FD0A70EE66E48
:1007C000470EE66EE66AE66ADDEC12F0E552E552A7
:1007D000E552E5529A0EE66E470E2FD08D0EE66E6C
:1007E000470EE66EE66AE66ADDEC12F0E552E55287
:1007F000E552E552800EE66E470E1FD0720EE66E91
:10080000470EE66EE66AE66ADDEC12F0E552E55266
:10081000E552E552640EE66E470E0FD0560EE66EB8
:10082000470EE66EE66AE66ADDEC12F0E552E55246
:10083000E552E552480EE66E470EE66EE66A010E98
:10084000E66E06D0390EE66E470EE66EE66AE66A9A
:10085000DDEC12F0E552E552E552E5521200866BEE
:10086000876B120068EC10F0310EE66E470EE66EF4
:10087000E66AE66ADDEC12F0E552E552E552E55231
:1008800084C010F085C011F0126A136A11AE02D054
:100890001268136810C0E6FF11C0E6FF12C0E6FF41
:1008A00013C0E6FF070EE66EE66AB6EC11F0146EB2
:1008B000060EE15E1450290EE66E470EE66EE66AFD
:1008C000010EE66EDDEC12F0E552E552E552E5521E
:1008D000120068EC10F0010106510001D05D010129
:1008E00007510001D15927E2230EE66E470EE66E4E
:1008F000E66AE66ADDEC12F0E552E552E552E552B1
:1009000006C110F007C111F0126A136A06C1E6FFB2
:1009100007C1E6FF12C0E6FF13C0E6FF060EE66E53
:10092000E66A08EC13F0146E060EE15E14501B0E1E
:10093000E66E470E1FD101010A510001D25D01018F
:100940000B510001D35927E2140EE66E470EE66EF6
:10095000E66AE66ADDEC12F0E552E552E552E55250
:100960000AC110F00BC111F0126A136A0AC1E6FF46
:100970000BC1E6FF12C0E6FF13C0E6FF060EE66EEF
:10098000E66A08EC13F0146E060EE15E14500B0ECE
:10099000E66E470EEFD0010108510001D45D010160
:1009A00009510001D55927E2050EE66E470EE66EA5
:1009B000E66AE66ADDEC12F0E552E552E552E552F0
:1009C00008C110F009C111F0126A136A08C1E6FFEC
:1009D00009C1E6FF12C0E6FF13C0E6FF060EE66E91
:1009E000E66A08EC13F0146E060EE15E1450FD0E7C
:1009F000E66E460EBFD001010C510001D65D01012B
:100A00000D510001D75927E2F60EE66E460EE66E4E
:100A1000E66AE66ADDEC12F0E552E552E552E5528F
:100A20000CC110F00DC111F0126A136A0CC1E6FF7F
:100A30000DC1E6FF12C0E6FF13C0E6FF060EE66E2C
:100A4000E66A08EC13F0146E060EE15E1450ED0E2B
:100A5000E66E460E8FD001010E510001D85D0101F6
:100A60000F510001D95927E2E60EE66E460EE66EFA
:100A7000E66AE66ADDEC12F0E552E552E552E5522F
:100A80000EC110F00FC111F0126A136A0EC1E6FF19
:100A90000FC1E6FF12C0E6FF13C0E6FF060EE66ECA
:100AA000E66A08EC13F0146E060EE15E1450DD0EDB
:100AB000E66E460E5FD0010110510001DA5D0101C2
:100AC00011510001DB5927E2D60EE66E460EE66EA6
:100AD000E66AE66ADDEC12F0E552E552E552E552CF
:100AE00010C110F011C111F0126A136A10C1E6FFB3
:100AF00011C1E6FF12C0E6FF13C0E6FF060EE66E68
:100B0000E66A08EC13F0146E060EE15E1450CD0E8A
:100B1000E66E460E2FD0010112510001DC5D01018D
:100B200013510001DD592BE2050EE66E470EE66E0D
:100B3000E66AE66ADDEC12F0E552E552E552E5526E
:100B400012C110F013C111F0126A136A12C1E6FF4C
:100B500013C1E6FF12C0E6FF13C0E6FF060EE66E05
:100B6000E66A08EC13F0146E060EE15E1450C30E34
:100B7000E66E460EE66EE66A010EE66E06D0B40E2E
:100B8000E66E460EE66EE66AE66ADDEC12F0E552C7
:100B9000E552E552E552120068EC10F00001010E3A
:100BA00080191CE181511AE1B20EE66E460EE66E26
:100BB000040EE66EE66ADDEC12F0E552E552E5520F
:100BC000E552B20EE66E460EE66E050EE66EE66A7B
:100BD000DDEC12F0E552E552E552E55201010A0E54
:100BE000BE5D000EBF5924E3BEC110F00001116AC2
:100BF000010E101610181CE111501AE102012229F1
:100C0000226F170EE76E2219E8AE02D0223503D00C
:100C1000E750D880225501E2226B22C2E6FF020E85
:100C2000E66EB3EC25F0E552E5520101BE6BBF6BF9
:100C300001010A0EC05D000EC1591CE3C0C110F0D5
:100C40000001116A010E1016101814E1115012E182
:100C500002012205226FE83402E3170E226F22C23E
:100C6000E6FF020EE66EB3EC25F0E552E552010117
:100C7000C06BC16B120068EC10F00001010E80190E
:100C80001CE181511AE1B20EE66E460EE66E070EC9
:100C9000E66EE66ADDEC12F0E552E552E552E55209
:100CA000B20EE66E460EE66E080EE66EE66ADDEC05
:100CB00012F0E552E552E552E55201010A0EBE5D21
:100CC000000EBF5924E3BEC110F00001116A010EED
:100CD000101610181CE111501AE102012129216F90
:100CE0003B0EE76E2119E8AE02D0213503D0E75064
:100CF000D880215501E2216B21C2E6FF010EE66E8C
:100D0000B3EC25F0E552E5520101BE6BBF6B01016A
:100D10000A0EC05D000EC1591CE3C0C110F00001F5
:100D2000116A010E1016101814E1115012E102019F
:100D30002105216FE83402E33B0E216F21C2E6FF5B
:100D4000010EE66EB3EC25F0E552E5520101C06BF1
:100D5000C16B120068EC10F00001010E801928E14F
:100D6000815126E1B20EE66E460EE66EE66AE66A4E
:100D7000DDEC12F0E552E552E552E552B20EE66EB8
:100D8000460EE66E010EE66EE66ADDEC12F0E55206
:100D9000E552E552E552B20EE66E460EE66E020EE2
:100DA000E66EE66ADDEC12F0E552E552E552E552F8
:100DB00001010A0EBE5D000EBF5925E3BEC110F051
:100DC0000001116A010E101610181DE111501BE1EF
:100DD00002012329236F070EE76E2319E8AE02D024
:100DE000233503D0E750D880235502E2010E236F4C
:100DF00023C2E6FF030EE66EB3EC25F0E552E552A2
:100E00000101BE6BBF6B01010A0EC05D000EC1592E
:100E100024E3C0C110F00001116A010E1016101871
:100E20001CE111501AE102012305236F010EE76E48
:100E30002319E8AE02D0E73402D0E750235D02E286
:100E4000070E236F23C2E6FF030EE66EB3EC25F018
:100E5000E552E5520101C06BC16B120068EC10F065
:100E60000001010E80191EE181511CE1B20EE66EF7
:100E7000460EE66E060EE66E010EE66EDDEC12F034
:100E8000E552E552E552E552B20EE66E460EE66ECA
:100E9000070EE66E010EE66EDDEC12F0E552E5524D
:100EA000E552E55201010A0EBE5D000EBF5925E371
:100EB000BEC110F00001116A010E101610181DE1DC
:100EC00011501BE102012429246F1F0EE76E241923
:100ED000E8AE02D0243503D0E750D880245502E292
:100EE000010E246F24C2E6FF040EE66EB3EC25F07B
:100EF000E552E5520101BE6BBF6B01010A0EC05DF8
:100F0000000EC15924E3C0C110F00001116A010EA6
:100F1000101610181CE111501AE102012405246F6B
:100F2000010EE76E2419E8AE02D0E73402D0E75094
:100F3000245D02E21F0E246F24C2E6FF040EE66E5B
:100F4000B3EC25F0E552E5520101C06BC16B120014
:100F500068EC10F00001010E80192CE181512AE1AA
:100F6000B20EE66E460EE66E020EE66E010EE66EFE
:100F7000DDEC12F0E552E552E552E552B20EE66EB6
:100F8000460EE66E030EE66E010EE66EDDEC12F026
:100F9000E552E552E552E552B20EE66E460EE66EB9
:100FA000040EE66E010EE66EDDEC12F0E552E5523F
:100FB000E552E55201010A0EBE5D000EBF5925E360
:100FC000BEC110F00001116A010E101610181DE1CB
:100FD00011501BE102012529256F0C0EE76E251922
:100FE000E8AE02D0253503D0E750D880255502E27F
:100FF000010E256F25C2E6FF050EE66EB3EC25F067
:10100000E552E5520101BE6BBF6B01010A0EC05DE6
:10101000000EC15924E3C0C110F00001116A010E95
:10102000101610181CE111501AE102012505256F58
:10103000010EE76E2519E8AE02D0E73402D0E75082
:10104000255D02E20C0E256F25C2E6FF050EE66E59
:10105000B3EC25F0E552E5520101C06BC16B120003
:1010600068EC10F00001010E80191EE181511CE1B5
:10107000B20EE66E460EE66E0B0EE66E010EE66EE4
:10108000DDEC12F0E552E552E552E552B20EE66EA5
:10109000460EE66E0C0EE66E010EE66EDDEC12F00C
:1010A000E552E552E552E55201010A0EBE5D000E21
:1010B000BF5924E3BEC110F00001116A010E1016E1
:1010C00010181CE111501AE102012629266F630E47
:1010D000E76E2619E8AE02D0263503D0E750D88057
:1010E000265501E2266B26C2E6FF060EE66EB3EC3D
:1010F00025F0E552E5520101BE6BBF6B01010A0EFE
:10110000C05D000EC1591CE3C0C110F00001116A9E
:10111000010E1016101814E1115012E102012605FB
:10112000266FE83402E3630E266F26C2E6FF060E42
:10113000E66EB3EC25F0E552E5520101C06BC16BE0
:10114000120068EC10F0B4EC27F0110E00018819C1
:1011500001E1895101E1BCD0100E881901E18951EA
:1011600001E199D00F0E881901E1895101E176D092
:101170000D0E881901E1895154E00C0E881901E126
:10118000895130E00E0E881901E189510CE0885137
:1011900001E1895101E0120040EC00F00E0E000167
:1011A000886F896B120040EC00F0D4DD01010A0E5B
:1011B000C45D000EC55901E2A8D0C4C110F0C5C17C
:1011C00011F00001116A010E101610180AE11150F9
:1011D00001E09BD00C0E0001886F896B0101C46B8C
:1011E000C56B120040EC00F0D7DC01010A0EC45DB3
:1011F000000EC55901E289D0C4C110F0C5C111F07B
:101200000001116A010E101610180AE1115001E0D8
:101210007CD00D0E0001886F896B0101C46BC56B1A
:10122000120040EC00F027DD01010A0EC45D000E43
:10123000C5596BE3C4C110F0C5C111F00001116ABA
:10124000010E1016101809E111505FE10F0E000198
:10125000886F896B0101C46BC56B120040EC00F014
:10126000FDDD01010A0EC45D000EC5594EE3C4C187
:1012700010F0C5C111F00001116A010E101610180E
:1012800009E1115042E1100E0001886F896B0101E4
:10129000C46BC56B120040EC00F05ADE01010A0E6F
:1012A000C45D000EC55931E3C4C110F0C5C111F0D1
:1012B0000001116A010E1016101809E1115025E104
:1012C000110E0001886F896B0101C46BC56B1200A0
:1012D00040EC00F0C5DE01010A0EC45D000EC559E8
:1012E00014E3C4C110F0C5C111F00001116A010E70
:1012F0001016101809E1115008E10E0E0001886F58
:10130000896B0101C46BC56B12001200070E00014E
:101310008A1901E18B5101E194D0060E8A1901E18D
:101320008B5101E17ED0050E8A1901E18B5152E00B
:10133000040E8A1901E18B513DE0030E8A1901E187
:101340008B5129E0020E8A1901E18B5115E0010E43
:101350008A1901E18B5101E012000201222B170EC4
:10136000E76E2219E8AE02D0223503D0E750D880CC
:1013700022556AE2226B12000201212B3B0EE76E1E
:101380002119E8AE02D0213503D0E750D88021558D
:101390005BE2216B12000201202B3B0EE76E20194D
:1013A000E8AE02D0203503D0E750D88020554CE27B
:1013B000206B12000201232B070EE76E2319E8AE03
:1013C00002D0233503D0E750D88023553DE2010EEB
:1013D000236F120002012429246F106E116A10BEBF
:1013E000116802012505E96EEA6AE9BEEA68D8904B
:1013F000E936EA36940EE926000EEA22EECF12F024
:10140000EFCF13F013501118E8AE02D0113404D00E
:101410001050125C1150135817E20201010E246F94
:1014200012000201252B0C0EE76E2519E8AE02D042
:10143000253503D0E750D880255506E2010E256FEB
:1014400012000201262B12001200070E00018A1959
:1014500001E18B516FE0060E8A1901E18B515BE0CF
:10146000050E8A1901E18B5139E0040E8A1901E158
:101470008B5125E0030E8A1901E18B5119E0020E10
:101480008A1901E18B510DE0010E8A1901E18B519E
:1014900001E0120002012207223552E3170E226FEB
:1014A00012000201210721354BE33B0E216F120090
:1014B00002012007203544E33B0E206F1200020199
:1014C0002307010EE76E2319E8AE02D0E73402D0FD
:1014D000E750235D35E2070E236F12000201240559
:1014E000246F010EE76E2419E8AE02D0E73402D073
:1014F000E750245D25E202012505E96EEA6AE9BEAE
:10150000EA68D890E936EA36940EE926000EEA2217
:10151000EFCF24F2120002012507010EE76E251914
:10152000E8AE02D0E73402D0E750255D09E20C0EA8
:10153000256F120002012607263502E3266B1200F2
:10154000120068EC10F00A0E146E0E6E22C209F042
:10155000DBEC26F009C010F0116A126A136A10AEB3
:1015600003D011681268136810C0E6FF11C0E6FFCF
:1015700012C0E6FF13C0E6FF050EE66EE66AB6ECA3
:1015800011F0156E060EE15E155022C209F00A0E2A
:101590000E6EDBEC26F005C010F0116A126A136AB9
:1015A00010AE03D011681268136810C0E6FF11C0B6
:1015B000E6FF12C0E6FF13C0E6FF060EE66EE66A1F
:1015C000B6EC11F0146E060EE15E14500001010E2F
:1015D0008A1922E18B5120E10001010E80191CE1E2
:1015E00081511AE1B20EE66E460EE66E050EE66E0B
:1015F000E66ADDEC12F0E552E552E552E552B20E34
:10160000E66E460EE66E060EE66EE66ADDEC12F05B
:10161000E552E552E552E552830EE66E490EE66E5E
:10162000070EE66EE66ADDEC12F0E552E552E55291
:10163000E5520A0E146E0E6E21C209F0DBEC26F0A4
:1016400009C010F0116A126A136A10AE03D0116853
:101650001268136810C0E6FF11C0E6FF12C0E6FF73
:1016600013C0E6FF080EE66EE66AB6EC11F0156EE2
:10167000060EE15E155021C209F00A0E0E6EDBEC7B
:1016800026F005C010F0116A126A136A10AE03D07A
:1016900011681268136810C0E6FF11C0E6FF12C09F
:1016A000E6FF13C0E6FF090EE66EE66AB6EC11F03F
:1016B000146E060EE15E14500001020E8A1922E13A
:1016C0008B5120E10001010E80191CE181511AE1CA
:1016D000B20EE66E460EE66E080EE66EE66ADDECCB
:1016E00012F0E552E552E552E552B20EE66E460EB4
:1016F000E66E090EE66EE66ADDEC12F0E552E552A2
:10170000E552E552120001010A0EBE5D000EBF59FE
:1017100027E3BEC110F0116A010E1016101820E167
:1017200011501EE1010E00018A258A6F000E8B21E7
:101730008B6F080E0D6E0E6A8AC008F08BC009F020
:10174000F5EC26F004C08AF005C08BF000010450CF
:10175000051003E18A2B000E8B230101BE6BBF6BCA
:101760000A0EC45D000EC5590EE3C4C110F000019D
:10177000116A010E1016101806E1115004E1C6DDC1
:101780000101C46BC56B01010A0EC65D000EC7598D
:101790000EE3C6C110F00001116A010E10161018F8
:1017A00006E1115004E151DE0101C66BC76B010176
:1017B0000A0EC05D000EC15918E3C0C110F000014F
:1017C000116A010E1016101810E111500EE122C21C
:1017D00000F121C201F1010E0001826F836B000153
:1017E0008E6F8F6B0101C06BC16BABDE97EF10F09A
:1017F000D9CFE6FFE1CFD9FF040EE126DE6ADD6A2C
:10180000DECF10F0DDCF11F0126A136A11AE02D0F4
:1018100012681368D950FB0FE96EFF0EDA20EA6EEA
:10182000EE50105CEE501158EE501258EE50135816
:101830001DE2020EDB6A030EDB6A020EDBCF10F044
:10184000030EDBCF11F0D890115004E6050E105CAA
:10185000000E115806E2020EDB2A030EEEE3DB2A2D
:10186000ECD7DF2A010ECCE3DB2ACAD7040EE15CF9
:1018700002E2E16AE552E16EE552E7CFD9FF1200DC
:10188000D9CFE6FFE1CFD9FF040EE126DE6ADD6A9B
:10189000DECF10F0DDCF11F0126A136A11AE02D064
:1018A00012681368D950FB0FE96EFF0EDA20EA6E5A
:1018B000EE50105CEE501158EE501258EE50135886
:1018C0001DE2020EDB6A030EDB6A020EDBCF10F0B4
:1018D000030EDBCF11F0D890115004E6EE0E105C31
:1018E000000E115806E2020EDB2A030EEEE3DB2A9D
:1018F000ECD7DF2A010ECCE3DB2ACAD7040EE15C69
:1019000002E2E16AE552E16EE552E7CFD9FF12004B
:10191000D9CFE6FFE1CFD9FF0F0E8116FE0EDB50C7
:10192000F00B81128186010EE66EE66AE66AE66ACF
:10193000A7DFE552E552E552E5528196010EE66ECB
:10194000E66AE66AE66A9CDFE552E552E552E55250
:101950000F0E8116FE0EDB38F00B81128186010E10
:10196000E66EE66AE66AE66A8BDFE552E552E55224
:10197000E5528196010EE66EE66AE66AE66A80DF67
:10198000E552E552E552E552E552E7CFD9FF1200A4
:10199000D9CFE6FFE1CFD9FFE652190EE66EE66A2F
:1019A000E66AE66A6DDFE552E552E552E5520F0E52
:1019B0008116F80E81160F0E8116300E8112818667
:1019C000010EE66EE66AE66AE66A5ADFE552E5521D
:1019D000E552E5528196010EE66EE66AE66AE66A2F
:1019E0004FDFE552E552E552E5520F0E8116300EFB
:1019F00081128186010EE66EE66AE66AE66A40DFDB
:101A0000E552E552E552E5528196010EE66EE66A30
:101A1000E66AE66A35DFE552E552E552E5520F0E19
:101A20008116300E81128186010EE66EE66AE66A44
:101A3000E66A26DFE552E552E552E5528196010E4F
:101A4000E66EE66AE66AE66A1BDFE552E552E552B3
:101A5000E5520F0E8116818A8186010EE66EE66AD6
:101A6000E66AE66A0DDFE552E552E552E5528196F7
:101A7000010EE66EE66AE66AE66A02DFE552E552C4
:101A8000E552E552280EE66E43DFE5520C0EE66E97
:101A90003FDFE552E552E552E7CFD9FF1200D9CF3B
:101AA000E6FFE1CFD9FF020EE126DF6A010EDB6A15
:101AB00081940F0EE66EE66AE66AE66A99DEE55202
:101AC000E552E552E5520F0E81128186E66EE66A16
:101AD000E66AE66A8DDEE552E552E552E5520F0E02
:101AE0008114E76E010EE7CFDBFF81960F0EE66EE5
:101AF000E66AE66AE66A7CDEE552E552E552E552C0
:101B00000F0E81128186E66EE66AE66AE66A70DE8C
:101B1000E552E552E552E5520F0E8114DF6E010EDB
:101B2000DB50DF128196010EE66EE66AE66AE66A2F
:101B30005FDEE552E552E552E552DF50106E020ECF
:101B4000E15C02E2E16AE552E16E1050E552E7CF56
:101B5000D9FF1200D9CFE6FFE1CFD9FFE652DF6A05
:101B60009EDFDF6EDFBEFCD7DF50E552E552E7CFE8
:101B7000D9FF1200D9CFE6FFE1CFD9FF0F0E8116B2
:101B8000FE0EDB5081128186050EE66EE66AE66A7D
:101B9000E66A2EDEE552E552E552E5528196050EE3
:101BA000E66EE66AE66AE66A23DEE552E552E5524B
:101BB000E552E552E7CFD9FF1200D9CFE6FFE1CFDA
:101BC000D9FF8194050EE66EE66AE66AE66A10DEE3
:101BD000E552E552E552E552FE0EDBCFE6FFCADFE5
:101BE000E552FE0EDB38F00BE66EC4DFE552E5523F
:101BF000E7CFD9FF1200D9CFE6FFE1CFD9FF81842B
:101C0000050EE66EE66AE66AE66AF2DDE552E55240
:101C1000E552E552FE0EDBCFE6FFACDFE552FE0EED
:101C2000DB38F00BE66EA6DFE5528194E552E7CF94
:101C3000D9FF1200D9CFE6FFE1CFD9FFFE0EDBCFEF
:101C4000E6FFD9DFE552E552E7CFD9FF1200D9CF41
:101C5000E6FFE1CFD9FFFE0EDBCFE6FFCCDFE5529A
:101C6000E552E7CFD9FF1200D9CFE6FFE1CFD9FF88
:101C7000FD0EDBCFF6FFFE0EDBCFF7FF0800F550C1
:101C80000FE0FD0EDBCFF6FFDB2AFE0EDBCFF7FF0A
:101C900001E3DB2A0800F550E66ED9DFE552E8D70C
:101CA000E552E7CFD9FF1200D9CFE6FFE1CFD9FF48
:101CB000E652FD0EDB500F0B106EFE0EDB50010BDB
:101CC000400DF3501024DF6E7F0EDF14800FDF6EA7
:101CD000DFCFE6FF72DFE552E552E552E7CFD9FFED
:101CE0001200010EE66E69DFE552E66AE66ADCDFA5
:101CF000E552E5521200D9CFE6FFE1CFD9FF050E3C
:101D0000E126010EF36EDB6E020EDB6A030EDB6A68
:101D1000040EDB6ADF6ADFCF10F0116A10BE1168B3
:101D2000FB0EDBCF12F0FC0EDBCF13F011501318BB
:101D3000E8AE02D0133404D01250105C1350115886
:101D40002DE2FD0EDBCF10F0FE0EDBCF11F0126A9C
:101D5000136A11AE02D012681368D950010FE96EF0
:101D6000DACFEAFF10C00BF011C00CF012C00DF07A
:101D700013C00EF0EECF06F0EECF07F0EECF08F076
:101D8000EFCF09F07AEC28F005C0EDFF04C0EDFFBD
:101D900003C0EDFF02C0EFFFDF2ABDD7010EDBCF8E
:101DA00010F0020EDBCF11F0030EDBCF12F0040EA9
:101DB000DBCF13F010C006F011C007F012C008F01E
:101DC00013C009F0050EE15C02E2E16AE552E16E42
:101DD000E552E7CFD9FF1200D9CFE6FFE1CFD9FF17
:101DE000020EE126DF6AFB0EDBCF10F0FC0EDBCF2C
:101DF00011F0FD0EDBCF12F0FE0EDBCF13F0105012
:101E000011101210131005E1300EE66E20DFE552BE
:101E1000F4D0D950FB0FE96EFF0EDA20EA6ED890AD
:101E2000030EEB50000A08E6000EEE5C000EEE58C2
:101E3000000EEE58000EEE5815E22D0EE66E07DF8E
:101E4000E552D950FB0FE96EFF0EDA20EA6E000E64
:101E5000EE6CEF1EEE22EF1EEE22EF1EEF22ED5291
:101E6000ED52ED52DE52070EDD6E010EDBCF10F0AB
:101E7000000EE76E1018E8AE02D0103403D0E75021
:101E8000D880105401E3B9D0010EDB04146E156A3A
:101E900014BE156814C0E6FF15C0E6FF0A0EE66E14
:101EA000E66A29DFE552E552E552E55206C010F038
:101EB00007C011F008C012F009C013F006C00BF003
:101EC00007C00CF008C00DF009C00EF0FB0EDBCF10
:101ED00006F0FC0EDBCF07F0FD0EDBCF08F0FE0EA8
:101EE000DBCF09F0B2EC28F00650071008100910FB
:101EF00041E0010EDF6EDB04186E196A18BE196826
:101F000018C0E6FF19C0E6FF0A0EE66EE66AF3DEC9
:101F1000E552E552E552E55206C014F007C015F04F
:101F200008C016F009C017F006C00BF007C00CF08F
:101F300008C00DF009C00EF0FB0EDBCF06F0FC0E62
:101F4000DBCF07F0FD0EDBCF08F0FE0EDBCF09F094
:101F5000B2EC28F006C010F007C011F008C012F073
:101F600009C013F0300E1026000E11221222132287
:101F7000105003D0DF5004E0300EE66E68DEE5520C
:101F8000010EDB04146E156A14BE156814C0E6FF5A
:101F900015C0E6FF0A0EE66EE66AADDEE552E552D2
:101FA000E552E55206C010F007C011F008C012F06B
:101FB00009C013F0D950FB0FE96EFF0EDA20EA6E6C
:101FC00006C00BF007C00CF008C00DF009C00EF001
:101FD000EECF06F0EECF07F0EECF08F0EFCF09F02E
:101FE000B2EC28F005C0EDFF04C0EDFF03C0EDFF2B
:101FF00002C0EFFF010EDB0638D7020EE15C02E201
:10200000E16AE552E16EE552E7CFD9FF1200D9CF80
:10201000E6FFE1CFD9FFFD0EDBCFE6FFFE0EDBCF03
:10202000E6FF42DEE552E552D950F90FE96EFF0EA8
:10203000DA20EA6EEECFE6FFEECFE6FFEECFE6FF68
:10204000EFCFE6FFC9DEE552E552E552E552E55233
:10205000E7CFD9FF1200D9CFE6FFE1CFD9FFFD0EC0
:10206000DBCFE6FFFE0EDBCFE6FF1EDEE552E552DC
:10207000FB0EDBCFE6FFFC0EDBCFE6FFF5DDE55226
:10208000E552E552E7CFD9FF1200D9CFE6FFE1CF05
:10209000D9FF7BCF10F07CCF11F0040ED890103612
:1020A0001136E806FBE1410E10260F0E11221050EA
:1020B0000F017D25E96E11507E21EA6EFE0EDBCF09
:1020C000EFFF7D2B000E7E23E552E7CFD9FF1200F4
:1020D000D9CFE6FFE1CFD9FFE652DF6ADFCF10F0BC
:1020E000100EE76E1018E8AE02D0E73402D0E750C9
:1020F000105C18E2DFCFE9FFEA6AE9BEEA68410E48
:10210000E9260F0EEA22200EEF6EDFCFE9FFEA6A22
:10211000E9BEEA68510EE9260F0EEA22200EEF6EA4
:10212000DF2ADCD7E552E552E7CFD9FF1200D9CF3D
:10213000E6FFE1CFD9FFE6520F014051030A52E01A
:10214000010A36E0030A1AE0010A67E1E66AE66A74
:10215000ABDDE552E552DF6A080EDF5C0CE2DF50D2
:10216000EA6A410FE96E0F0EEA22EF50E66E6FDD6C
:10217000E552DF2AF1D70F01010E32D0080EE66ECC
:10218000E66A92DDE552E552DF6A080EDF5C0DE299
:10219000080EDF24EA6A410FE96E0F0EEA22EF50C3
:1021A000E66E55DDE552DF2AF0D70F01020E18D09A
:1021B000E66A010EE66E78DDE552E552DF6A080E4A
:1021C000DF5C0CE2DF50EA6A510FE96E0F0EEA2283
:1021D000EF50E66E3CDDE552DF2AF1D70F01030E2A
:1021E000406F1CD0080EE66E010EE66E5DDDE55216
:1021F000E552DF6A080EDF5C0DE2080EDF24EA6AB2
:10220000510FE96E0F0EEA22EF50E66E20DDE55227
:10221000DF2AF0D70F01406B01D0406BE552E55249
:10222000E7CFD9FF1200D9CFE6FFE1CFD9FFE652C1
:102230000F014051010A1BE0010A32E1E66AE66A39
:1022400033DDE552E552DF6A100EDF5C0CE2DF5051
:10225000EA6A410FE96E0F0EEA22EF50E66EF7DCF4
:10226000E552DF2AF1D70F01010E406F1AD0E66A5E
:10227000010EE66E19DDE552E552DF6A100EDF5CF5
:102280000CE2DF50EA6A510FE96E0F0EEA22EF50BE
:10229000E66EDDDCE552DF2AF1D70F01406B01D09D
:1022A000406BE552E552E7CFD9FF1200D9CFE6FFE8
:1022B000E1CFD9FFE652E66AE66AF6DCE552E5527E
:1022C000DF6A100EDF5C0CE2DF50EA6A410FE96E54
:1022D0000F0EEA22EF50E66EBADCE552DF2AF1D7A4
:1022E000E66A010EE66EE0DCE552E552DF6A100EAA
:1022F000DF5C0CE2DF50EA6A510FE96E0F0EEA2252
:10230000EF50E66EA4DCE552DF2AF1D7E552E55244
:10231000E7CFD9FF1200D9CFE6FFE1CFD9FFFE0EFC
:10232000DB50010B0F017B6F7C6BFD0EDB500F0B45
:102330007D6F7E6B7BCF10F07CCF11F0040ED890B8
:1023400010361136E806FBE1410E10260F0E112261
:1023500010500F017D25E96E11507E21EA6EFC0EB2
:10236000DBCFEFFFE552E7CFD9FF1200D9CFE6FF71
:10237000E1CFD9FF020EE126DF6AFE0EDB50010B32
:102380000F017B6F7C6BFD0EDB500F0B7D6F7E6B47
:10239000F90EDBCF10F0FA0EDBCF11F0FB0EDBCF26
:1023A00012F0FC0EDBCF13F01050111012101310AE
:1023B00005E1300EE66E69DEE552F5D0D950F90F31
:1023C000E96EFF0EDA20EA6ED890030EEB50000A99
:1023D00008E6000EEE5C000EEE58000EEE58000E01
:1023E000EE5815E22D0EE66E50DEE552D950F90F8B
:1023F000E96EFF0EDA20EA6E000EEE6CEF1EEE22A2
:10240000EF1EEE22EF1EEF22ED52ED52ED52DE52A4
:10241000070EDD6E010EDBCF10F0000EE76E101818
:10242000E8AE02D0103403D0E750D880105401E356
:10243000BAD0010EDB04146E156A14BE156814C000
:10244000E6FF15C0E6FF0A0EE66EE66A54DCE552CA
:10245000E552E552E55206C010F007C011F008C081
:1024600012F009C013F006C00BF007C00CF008C052
:102470000DF009C00EF0F90EDBCF06F0FA0EDBCF3F
:1024800007F0FB0EDBCF08F0FC0EDBCF09F0B2EC5F
:1024900028F0065007100810091041E0010EDF6E09
:1024A000DB04186E196A18BE196818C0E6FF19C057
:1024B000E6FF0A0EE66EE66A1EDCE552E552E552DC
:1024C000E55206C014F007C015F008C016F009C0A8
:1024D00017F006C00BF007C00CF008C00DF009C0E3
:1024E0000EF0F90EDBCF06F0FA0EDBCF07F0FB0E95
:1024F000DBCF08F0FC0EDBCF09F0B2EC28F006C011
:1025000010F007C011F008C012F009C013F0300E2F
:102510001026000E112212221322105003D0DF5079
:1025200004E0300EE66EB1DDE552010EDB04146E00
:10253000156A14BE156814C0E6FF15C0E6FF0A0E42
:10254000E66EE66A7BEC0EF0E552E552E552E552A6
:1025500006C010F007C011F008C012F009C013F057
:10256000D950F90FE96EFF0EDA20EA6E06C00BF0C3
:1025700007C00CF008C00DF009C00EF0EECF06F059
:10258000EECF07F0EECF08F0EFCF09F0B2EC28F075
:1025900005C0EDFF04C0EDFF03C0EDFF02C0EFFF7B
:1025A000010EDB0637D7020EE15C02E2E16AE5527A
:1025B000E16EE552E7CFD9FF1200D9CFE6FFE1CFB8
:1025C000D9FFFE0EDB50010B0F017B6F7C6BFD0E04
:1025D000DB500F0B7D6F7E6BFB0EDBCFF6FFFC0E2F
:1025E000DBCFF7FF0800F5500FE0FB0EDBCFF6FF67
:1025F000DB2AFC0EDBCFF7FF01E3DB2A0800F550F6
:10260000E66E43DDE552E8D7E552E7CFD9FF120089
:10261000D9CFE6FFE1CFD9FF050EE126D9CFE9FFFB
:10262000DACFEAFFF90EDBCFEEFFFA0EDBCFEEFFDB
:10263000FB0EDBCFEEFFFC0EDBCFEEFFD9CFE9FFC9
:10264000DACFEAFFEECF10F0EECF11F0EECF12F0BE
:10265000EFCF13F0E80E0B6E030E0C6E0D6A0E6AD0
:1026600010C006F011C007F012C008F013C009F046
:1026700048EC27F006C010F007C011F008C012F0B7
:1026800009C013F006C0E6FF07C0E6FF08C0E6FF7A
:1026900009C0E6FFFD0EDBCFE6FFFE0EDBCFE6FF57
:1026A00065DE146E060EE15E1450D9CFE9FFDACF75
:1026B000EAFFEECF06F0EECF07F0EECF08F0EFCF57
:1026C00009F0E80E0B6E030E0C6E0D6A0E6A48ECF4
:1026D00027F002C0DEFF03C0DEFF04C0DEFF05C03E
:1026E000DDFFDD52DD52D9CFE9FFDACFEAFFEECFD1
:1026F00010F0EECF11F0EECF12F0EFCF13F0640E2A
:102700000B6E0C6A0D6A0E6A10C006F011C007F05D
:1027100012C008F013C009F048EC27F006C010F012
:1027200007C011F008C012F009C013F006C0E6FFA0
:1027300007C0E6FF08C0E6FF09C0E6FFFD0EDB2884
:10274000E66EFE0EDBCFE6FF11DE146E060EE15ED6
:102750001450D9CFE9FFDACFEAFFEECF06F0EECF83
:1027600007F0EECF08F0EFCF09F0640E0B6E0C6AA5
:102770000D6A0E6A48EC27F002C0DEFF03C0DEFFE0
:1027800004C0DEFF05C0DDFFDD52DD52260EE66E21
:10279000460EE66EFD0EDB50020FE66EFE0EDBCF40
:1027A000E6FF0BDFE552E552E552E552D9CFE9FFEE
:1027B000DACFEAFFEECF10F0EECF11F0EECF12F04D
:1027C000EFCF13F00A0E0B6E0C6A0D6A0E6A10C082
:1027D00006F011C007F012C008F013C009F048EC71
:1027E00027F006C010F007C011F008C012F009C0B1
:1027F00013F006C0E6FF07C0E6FF08C0E6FF09C009
:10280000E6FFFD0EDB50030FE66EFE0EDBCFE6FFAC
:10281000ADDD146E060EE15E1450D9CFE9FFDACFBC
:10282000EAFFEECF06F0EECF07F0EECF08F0EFCFE5
:1028300009F0E80E0B6E030E0C6E0D6A0E6A48EC82
:1028400027F002C0DEFF03C0DEFF04C0DEFF05C0CC
:10285000DDFFDD52DD52D9CFE9FFDACFEAFFEECF5F
:1028600010F0EECF11F0EECF12F0EFCF13F00A0E12
:102870000B6E0C6A0D6A0E6A10C006F011C007F0EC
:1028800012C008F013C009F048EC27F002C010F0A5
:1028900003C011F004C012F005C013F002C0E6FF3F
:1028A00003C0E6FF04C0E6FF05C0E6FFFD0EDB50F7
:1028B000040FE66EFE0EDBCFE6FF58DD146E060E4B
:1028C000E15E1450050EE15C02E2E16AE552E16E60
:0828D000E552E7CFD9FF120029
:0828D800D9CFE6FFE1CFD9FFE3
:1028E000020EE126DE6ADD6A6CD81DEC25F071EC83
:1028F0000EF068EC10F0000EE66EE66AA4D8E55221
:10290000E552E80EE66E030EE66E17D8E552E55284
:102910007CEC27F002010B51FDE00B6B0001010E76
:10292000D8808057000E8157DAEC20F043EC18F085
:1029300066D952DA97EC10F0EDD7D9CFE6FFE1CFA8
:10294000D9FF040EE126DE6ADD6ADECF10F0DDCFAE
:1029500011F0FD0EDBCF12F0FE0EDBCF13F01150A5
:102960001318E8AE02D0133404D01250105C135088
:1029700011581DE2020EDB6A030EDB6A020EDBCF8A
:1029800010F0030EDBCF11F0D890115004E6EE0EDC
:10299000105C000E115806E2020EDB2A030EEEE375
:1029A000DB2AECD7DF2A010ED0E3DB2ACED7040ED8
:1029B000E15C02E2E16AE552E16EE552E7CFD9FF60
:1029C0001200936A926AC8EC0CF0956A836AF3EC81
:1029D00025F0E80EE66E030EE66EAFDFE552E55237
:1029E000570EE66E120EE66E43EC1EF0E552E5520F
:1029F000AE0EE66E240EE66EE5EC1EF0E552E552F4
:102A0000660EE66EB70EE66EA6EC1FF0E552E552D6
:102A1000020EE66EE66A81EC20F0E552E5520A0EFF
:102A2000E66EE66A93EC20F0E552E552320EE66E71
:102A3000E66AB2EC20F0E552E552D5EC20F075ECF8
:102A40001BF034EF28F0D9CFE6FFE1CFD9FFFE0E1F
:102A5000DBCF11F0800E11141AE1FD0EDBCF12F066
:102A6000FE0EDBCF13F0133404E212500708000E01
:102A700013540DE3FD0EDBCFE9FFFE0EDBCFEAFFC3
:102A8000610EE9260F0EEA22EF508310836EE552A5
:102A9000E7CFD9FF1200D9CFE6FFE1CFD9FFFE0E75
:102AA000DBCF11F0800E11141AE1FD0EDBCF12F016
:102AB000FE0EDBCF13F0133404E212500708000EB1
:102AC00013540DE3FD0EDBCFE9FFFE0EDBCFEAFF73
:102AD000610EE9260F0EEA22EF1C8314836EE55285
:102AE000E7CFD9FF1200D9CFE6FFE1CFD9FFFD0E26
:102AF000DBCFE9FFFE0EDBCFEAFF690EE9260F0E02
:102B0000EA22EF0415E1FD0EDBCFE6FFFE0EDBCF80
:102B1000E6FFC1DFE552E552FD0EDBCFE9FFFE0E19
:102B2000DBCFEAFF690EE9260F0EEA22EF6A15D025
:102B3000FD0EDBCFE6FFFE0EDBCFE6FF84DFE552C6
:102B4000E552FD0EDBCFE9FFFE0EDBCFEAFF690E9B
:102B5000E9260F0EEA22010EEF6EE552E7CFD9FF0C
:102B60001200D9CFE6FFE1CFD9FF020EE126DE6ADF
:102B7000DD6ADECF10F0DDCF11F0113404E2105029
:102B80000708000E115421E3DECFE6FFDDCFE6FF9C
:102B90005ADFE552E552F40EE66E010EE66ECDDE2A
:102BA000E552E552DECFE6FFDDCFE6FF74DFE5520A
:102BB000E552F40EE66E010EE66EBFDEE552E5521A
:102BC000DF2A010ED6E3DB2AD4D7020EE15C02E253
:102BD000E16AE552E16EE552E7CFD9FF120001014B
:102BE000010EC01903E1C15101E1010C000C01010A
:102BF000010EBE1903E1BF5101E1010C000CD9CF58
:102C0000E6FFE1CFD9FF020EE126DE6ADD6ADECF04
:102C100010F0DDCF11F0D890115004E6070E105CD3
:102C2000000E115801E3CED0DFCFE6FF3BEC28F0D9
:102C3000E552F3CF10F0F4CF11F0126A136A11AE1F
:102C400002D012681368DECFE9FFDDCFEAFFD8902B
:102C5000E936EA36D890E936EA36940EE926010ECE
:102C6000EA2210C0EEFF11C0EEFF12C0EEFF13C04B
:102C7000EEFFDECFE9FFDDCFEAFFD890E936EA3696
:102C8000D890E936EA36940EE926010EEA22EECF14
:102C900010F0EFCF11F0DECFE9FFDDCFEAFFD890E3
:102CA000E936EA36E60EE926010EEA2210C0EEFF0A
:102CB00011C0EDFFDECFE9FFDDCFEAFFD890E936A6
:102CC000EA36E60EE926010EEA22EECF10F0EFCF4B
:102CD00011F0DECFE9FFDDCFEAFFD890E936EA3622
:102CE000DE0EE926000EEA22EECF12F0EFCF13F04F
:102CF0001050125C115013581EE2DECFE9FFDDCFF9
:102D0000EAFFD890E936EA36DE0EE926000EEA221E
:102D1000EECF10F0EFCF11F0DECFE9FFDDCFEAFF0D
:102D2000D890E936EA36E60EE926010EEA2210C00E
:102D3000EEFF11C0EDFFDECFE9FFDDCFEAFFD89057
:102D4000E936EA36E60EE926010EEA22EECF10F069
:102D5000EFCF11F0DECFE9FFDDCFEAFFD890E93603
:102D6000EA36EC0EE926000EEA22EECF12F0EFCFA3
:102D700013F01250105C135011581EE2DECFE9FF21
:102D8000DDCFEAFFD890E936EA36EC0EE926000EF0
:102D9000EA22EECF10F0EFCF11F0DECFE9FFDDCF6A
:102DA000EAFFD890E936EA36E60EE926010EEA2275
:102DB00010C0EEFF11C0EDFFDF2A010E01E227D7A0
:102DC000DB2A25D7020EE15C02E2E16AE552E16E00
:102DD000E552E7CFD9FF1200D9CFE6FFE1CFD9FF07
:102DE000040EE126010E01010225026F000E0321EF
:102DF000036F280E0D6E0E6A02C108F003C109F0C0
:102E0000F3EC28F004C002F105C003F10101045005
:102E1000051001E01FD1ACC010F0ADC011F0126A76
:102E2000136A0001AC510001C25D1C6EC351000168
:102E3000AD551D6E1E6A1F6AE6C118F0E7C119F094
:102E40001A6A1B6AE6C106F0E7C107F01AC008F06B
:102E50001BC009F01CC00BF00C6E1EC00DF01FC093
:102E60000EF07AEC28F002C014F003C015F004C094
:102E700016F005C017F00B68030E0C6E0D6A0E6A93
:102E800002C006F003C007F004C008F005C009F056
:102E900048EC27F006C014F007C015F008C016F083
:102EA00009C017F0065010260750112208501222B0
:102EB0000950132210C006F111C007F1780EE66E1A
:102EC000460EE66EF6EC1BF0E552E55206C110F038
:102ED00007C111F0126A136A06C1E6FF07C1E6FFD7
:102EE00012C0E6FF13C0E6FFA8EC1DF0E552E55264
:102EF000E552E5526F0EE66E460EE66EF6EC1BF0FE
:102F0000E552E55208C110F009C111F0126A136AC6
:102F100008C1E6FF09C1E6FF12C0E6FF13C0E6FFE5
:102F2000A8EC1DF0E552E552E552E552630EE66E5F
:102F3000460EE66EF6EC1BF0E552E5520AC110F0C3
:102F40000BC111F0126A136A0AC1E6FF0BC1E6FF5A
:102F500012C0E6FF13C0E6FFA8EC1DF0E552E552F3
:102F6000E552E552570EE66E460EE66EF6EC1BF0A5
:102F7000E552E55210C110F011C111F0126A136A46
:102F800010C1E6FF11C1E6FF12C0E6FF13C0E6FF65
:102F9000A8EC1DF0E552E552E552E5524E0EE66E04
:102FA000460EE66EF6EC1BF0E552E5520CC110F051
:102FB0000DC111F0126A136A0CC1E6FF0DC1E6FFE4
:102FC00012C0E6FF13C0E6FFA8EC1DF0E552E55283
:102FD000E552E552420EE66E460EE66EF6EC1BF04A
:102FE000E552E5520EC110F00FC111F0126A136ADA
:102FF0000EC1E6FF0FC1E6FF12C0E6FF13C0E6FFF9
:10300000A8EC1DF0E552E552E552E552350EE66EAC
:10301000460EE66EF6EC1BF0E552E55212C110F0DA
:1030200013C111F0126A136A12C1E6FF13C1E6FF61
:1030300012C0E6FF13C0E6FFA8EC1DF0E552E55212
:10304000E552E5522C0EE66E460EE66EF6EC1BF0EF
:10305000E552E552040EE15C02E2E16AE552E16EFE
:10306000E552E7CFD9FF1200BADD000904E078C1CC
:10307000BCF079C1BDF0BBDD000904E078C1C0F04F
:0630800079C1C1F012004D
:0A308600080E0001821901E18351D8
:1030900001E1A9D2070E821901E1835101E184D235
:1030A000060E821901E1835101E15FD2050E8219FA
:1030B00001E1835101E1D6D1040E821901E183516E
:1030C00001E16BD1030E821901E1835101E146D187
:1030D000020E821901E1835101E174D0010E8219BF
:1030E00001E183510BE0825101E0FCD2835101E008
:1030F000F9D2010E826F836BB4EF27F0B4EC27F0A6
:1031000001010A0EC25D000EC35914E3C2C110F0E2
:103110000001116A010E101610180CE111500AE19D
:103120000001866B876B020E0001826F836B0101C9
:10313000C26BC36B010100510201225D40E101013C
:1031400001510201215D3BE1140E0201E76E2019DD
:10315000E8AE02D0203503D0E750D88020552FE3C9
:103160000001010E8E192BE18F5129E168EC10F05E
:10317000A10EE66E460EE66E040EE66EE66ADDEC25
:1031800012F0E552E552E552E5520001010E8019B8
:103190000FE181510DE1910EE66E460EE66EE66A94
:1031A000010EE66EDDEC12F0E552E552E552E55215
:1031B0000201205106E100018E6B8F6B120040EC82
:1031C00000F0120001010A0EC05D000EC15914E3A7
:1031D000C0C110F00001116A010E101610180CE1A8
:1031E00011500AE10001866B876B010E0001826FAE
:1031F000836B0101C06BC16B01010A0EC25D000E41
:10320000C35914E3C2C110F00001116A010E101677
:1032100010180CE111500AE10001866B876B030E58
:103220000001826F836B0101C26BC36B01010A0E47
:10323000C45D000EC55914E3C4C110F00001116A49
:10324000010E101610180CE111500AE10001866BF6
:10325000876B040E0001826F836B0101C46BC56B29
:1032600001010A0EC85D000EC95914E3C8C110F06F
:103270000001116A010E101610180CE111500AE13C
:103280000001866B876B050E0001826F836B010165
:10329000C86BC96B01010A0ECA5D000ECB5914E35D
:1032A000CAC110F00001116A010E101610180CE1CD
:1032B00011500AE10001866B876B060E0001826FD8
:1032C000836B0101CA6BCB6B01010A0ECC5D000E52
:1032D000CD5914E3CCC110F00001116A010E101693
:1032E00010180CE111500AE10001866B876B070E84
:1032F0000001826F836B0101CC6BCD6B01010A0E63
:10330000BE5D000EBF5928E3BEC110F00001116A76
:10331000010E1016101820E111501EE1010E0001DF
:103320008625866F000E8721876F040E0D6E0E6A4C
:1033300086C008F087C009F0F5EC26F004C086F0DE
:1033400005C087F000010450051003E1010E866FEF
:10335000876B0101BE6BBF6B6BEF02F0A1EC08F055
:1033600001010A0EC25D000EC35901E2BDD1C2C106
:1033700010F00001116A010E101610180DE1115025
:1033800001E0B2D1020E0001826F836B0001866BF7
:10339000876B0101C26BC36B120001010A0EBE5D97
:1033A000000EBF5928E3BEC110F00001116A010EE2
:1033B0001016101820E111501EE1010E00018625A3
:1033C000866F000E8721876F080E0D6E0E6A86C00D
:1033D00008F087C009F0F5EC26F004C086F005C0BF
:1033E00087F000010450051003E1010E866F876B22
:1033F0000101BE6BBF6B01010A0EC45D000EC55911
:1034000015E3C4C110F00001116A010E1016101866
:103410000DE111500BE1010E00018C6F8D6B080E58
:103420000001826F836B0101C46BC56B01010A0E41
:10343000C25D000EC35914E3C2C110F00001116A4D
:10344000010E101610180CE111500AE1020E0001D5
:10345000826F836B0001866B876B0101C26BC36B4C
:10346000CEEF02F080EC03F001010A0EC25D000E07
:10347000C35914E3C2C110F00001116A010E101605
:1034800010180CE111500AE1020E0001826F836BEB
:103490000001866B876B0101C26BC36B01010A0ED1
:1034A000BE5D000EBF5928E3BEC110F00001116AD5
:1034B000010E1016101820E111501EE1010E00013E
:1034C0008625866F000E8721876F080E0D6E0E6AA7
:1034D00086C008F087C009F0F5EC26F004C086F03D
:1034E00005C087F000010450051003E1010E866F4E
:1034F000876B0101BE6BBF6B01010A0EC45D000E3C
:10350000C55915E3C4C110F00001116A010E10166F
:1035100010180DE111500BE1010E0001906F916B3D
:10352000080E0001826F836B0101C46BC56B010142
:103530000A0EC65D000EC75901E2D6D0C6C110F012
:103540000001116A010E101610180EE1115001E071
:10355000CBD0010E0001926F936B080E0001826FB9
:10356000836B0101C66BC76B120069EC04F00101AB
:103570000A0EC25D000EC35901E2B6D0C2C110F0FE
:103580000001116A010E101610180DE1115001E032
:10359000ABD0020E0001826F836B0001866B876BDC
:1035A0000101C26BC36B120083EC0BF001010A0E28
:1035B000C25D000EC35901E297D0C2C110F00001F4
:1035C000116A010E101610180DE1115001E08CD097
:1035D000020E0001826F836B0001866B876B010115
:1035E000C26BC36B120032EC04F001010A0EBE5D27
:1035F000000EBF5911E3BEC110F00001116A010EA7
:103600001016101809E1115007E10001842B000E7B
:1036100085230101BE6BBF6B01010A0EC45D000E64
:10362000C55962E3C4C110F00001116A010E101601
:10363000101857E1115058E10001010E8C1916E1E4
:103640008D5114E186C0E9FF87C0EAFFE906000E4C
:10365000EA5AD890E936EA36D00EE926000EEA2278
:1036600084C0EEFF85C0EDFF8C6B8D6B0001010EF9
:10367000901916E1915114E186C0E9FF87C0EAFF75
:10368000E906000EEA5AD890E936EA36DE0EE92657
:10369000000EEA2284C0EEFF85C0EDFF906B916BB7
:1036A0000001010E921916E1935114E186C0E9FF61
:1036B00087C0EAFFE906000EEA5AD890E936EA36F2
:1036C000EC0EE926000EEA2284C0EEFF85C0EDFF75
:1036D000926B936B020E0001826F836B0101C46BCE
:0A36E000C56B1200826B836B1200B1
:0636EA00B06A810EAF6E14
:1036F000AC8AAC94B886AC98AB8EAB889E9A9D8A07
:103700009F9A949C948E1200D9CFE6FFE1CFD9FF07
:10371000040EE126DE6ADD6ADECF10F0DDCF11F0A7
:10372000FD0EDBCF12F0FE0EDBCF13F0115013189D
:10373000E8AE02D0133404D01250105C135011586C
:103740001DE2020EDB6A030EDB6A020EDBCF10F015
:10375000030EDBCF11F0D890115004E6EE0E105C92
:10376000000E115806E2020EDB2A030EEEE3DB2AFE
:10377000ECD7DF2A010ED0E3DB2ACED7040EE15CC2
:1037800002E2E16AE552E16EE552E7CFD9FF1200AD
:10379000D9CFE6FFE1CFD9FF9EA8FED7FE0EDB50C2
:1037A000AD6E9E98E552E7CFD9FF1200D9CFE6FF64
:1037B000E1CFD9FFFD0EDBCFE9FFFE0EDBCFEAFF45
:1037C000EF5010E0FD0EDBCFE9FFFE0EDBCFEAFF8E
:1037D000EF50E66EDDDFE552FD0EDB2AFE0EEAE37A
:1037E000DB2AE8D7E552E7CFD9FF1200D9CFE6FFB1
:1037F000E1CFD9FFFD0EDBCFF6FFFE0EDBCFF7FFEB
:103800000800F55015E0FD0EDBCFF6FFFE0EDBCF16
:10381000F7FF0800F550E66EBBDFE552FD0EDBCF8B
:10382000F6FFDB2AFE0EDBCFF7FFE4E3DB2AE2D76D
:10383000E552E7CFD9FF1200D9CFE6FFE1CFD9FF9C
:10384000050EE126010EF36EDB6E020EDB6A030E3F
:10385000DB6A040EDB6ADF6ADFCF10F0116A10BE8C
:103860001168FB0EDBCF12F0FC0EDBCF13F0115012
:103870001318E8AE02D0133404D01250105C135069
:1038800011582DE2FD0EDBCF10F0FE0EDBCF11F054
:10389000126A136A11AE02D012681368D950010F70
:1038A000E96EDACFEAFF10C00BF011C00CF012C0C5
:1038B0000DF013C00EF0EECF06F0EECF07F0EECF16
:1038C00008F0EFCF09F07AEC28F005C0EDFF04C056
:1038D000EDFF03C0EDFF02C0EFFFDF2ABDD7010EF1
:1038E000DBCF10F0020EDBCF11F0030EDBCF12F0B6
:1038F000040EDBCF13F010C006F011C007F012C0A9
:1039000008F013C009F0050EE15C02E2E16AE5523D
:10391000E16EE552E7CFD9FF1200D9CFE6FFE1CF44
:10392000D9FF020EE126DF6AFB0EDBCF10F0FC0EA2
:10393000DBCF11F0FD0EDBCF12F0FE0EDBCF13F06C
:10394000105011101210131005E1300EE66E20DF3A
:10395000E552F4D0D950FB0FE96EFF0EDA20EA6E83
:10396000D890030EEB50000A08E6000EEE5C000E45
:10397000EE58000EEE58000EEE5815E22D0EE66ED3
:1039800007DFE552D950FB0FE96EFF0EDA20EA6E31
:10399000000EEE6CEF1EEE22EF1EEE22EF1EEF2267
:1039A000ED52ED52ED52DE520A0EDD6E010EDBCF0E
:1039B00010F0000EE76E1018E8AE02D0103403D0FD
:1039C000E750D880105401E3B9D0010EDB04146E27
:1039D000156A14BE156814C0E6FF15C0E6FF0A0E8E
:1039E000E66EE66A29DFE552E552E552E55206C089
:1039F00010F007C011F008C012F009C013F006C0A3
:103A00000BF007C00CF008C00DF009C00EF0FB0E63
:103A1000DBCF06F0FC0EDBCF07F0FD0EDBCF08F0AE
:103A2000FE0EDBCF09F0B2EC28F0065007100810AC
:103A3000091041E0010EDF6EDB04186E196A18BE32
:103A4000196818C0E6FF19C0E6FF0A0EE66EE66ABE
:103A5000F3DEE552E552E552E55206C014F007C028
:103A600015F008C016F009C017F006C00BF007C02B
:103A70000CF008C00DF009C00EF0FB0EDBCF06F015
:103A8000FC0EDBCF07F0FD0EDBCF08F0FE0EDBCF28
:103A900009F0B2EC28F006C010F007C011F008C021
:103AA00012F009C013F0300E1026000E112212225F
:103AB0001322105003D0DF5004E0300EE66E68DEB3
:103AC000E552010EDB04146E156A14BE156814C0AD
:103AD000E6FF15C0E6FF0A0EE66EE66AADDEE552C9
:103AE000E552E552E55206C010F007C011F008C0DB
:103AF00012F009C013F0D950FB0FE96EFF0EDA2067
:103B0000EA6E06C00BF007C00CF008C00DF009C04B
:103B10000EF0EECF06F0EECF07F0EECF08F0EFCFCD
:103B200009F0B2EC28F005C0EDFF04C0EDFF03C0C2
:103B3000EDFF02C0EFFF010EDB0638D7020EE15C9D
:103B400002E2E16AE552E16EE552E7CFD9FF1200E9
:103B5000D9CFE6FFE1CFD9FFFB0EDBCF10F0FC0E93
:103B6000DBCF11F0FD0EDBCF12F0FE0EDBCF13F03A
:103B7000640E0B6E0C6A0D6A0E6A10C006F011C05E
:103B800007F012C008F013C009F048EC27F006C097
:103B900010F007C011F008C012F009C013F006C001
:103BA000E6FF07C0E6FF08C0E6FF09C0E6FFB5DE96
:103BB000E552E552E552E5522E0EE66EE9DDE5529C
:103BC000FB0EDBCF10F0FC0EDBCF11F0FD0EDBCFD8
:103BD00012F0FE0EDBCF13F0640E0B6E0C6A0D6A52
:103BE0000E6A10C006F011C007F012C008F013C032
:103BF00009F048EC27F002C010F003C011F004C037
:103C000012F005C013F002C0E6FF03C0E6FF04C0D7
:103C1000E6FF05C0E6FF81DEE552E552E552E552DA
:103C2000E552E7CFD9FF1200D9CFE6FFE1CFD9FFA8
:103C3000E652AE50DF6E280EE66E460EE66EE66A7F
:103C4000010EE66EDDEC12F0E552E552E552E5526A
:103C5000DFCF10F0116A126A136A10C0E6FF11C0BC
:103C6000E6FF12C0E6FF13C0E6FFE66A010EE66E4D
:103C7000B6EC11F0146E060EE15E1450E552E552FA
:063C8000E7CFD9FF12009E
:0A3C8600D9CFE6FFE1CFD9FFD59EAC
:103C9000FD0EDBCF00F2FE0EDBCF01F2D59C1368E8
:103CA0001468156A00C216F001C217F0186A16509F
:103CB000135C106E17501458116E18501558126E70
:103CC0000C6A010E0D6E0E6A10C007F011C008F0EC
:103CD00012C009F01BEC27F00350D66E136814686D
:103CE000156A00C216F001C217F0186A1650135C6C
:103CF000106E17501458116E18501558126E0C6A29
:103D0000010E0D6E0E6A10C007F011C008F012C04F
:103D100009F01BEC27F007C010F008C011F009C033
:103D200012F00750D76ED59AD586F28AF294F184B4
:103D3000D58EE552E7CFD9FF1200D59E1200136849
:103D40001468156A00C216F001C217F0186A1650FE
:103D5000135C106E17501458116E18501558126ECF
:103D60000C6A010E0D6E0E6A10C007F011C008F04B
:103D700012C009F01BEC27F00350D66E13681468CC
:103D8000156A00C216F001C217F0186A1650135CCB
:103D9000106E17501458116E18501558126E0C6A88
:103DA000010E0D6E0E6A10C007F011C008F012C0AF
:103DB00009F01BEC27F007C010F008C011F009C093
:103DC00012F00750D76ED58E1200D9CFE6FFE1CFA3
:103DD000D9FFCD90FD0EDBCF02F2FE0EDBCF03F25A
:103DE00013681468156A02C216F003C217F0186A45
:103DF0001650135C106E17501458116E1850155849
:103E0000126E0C6A010E0D6E0E6A10C007F011C022
:103E100008F012C009F01BEC27F00750CF6E1368B2
:103E20001468156A02C216F003C217F0186A165019
:103E3000135C106E17501458116E18501558126EEE
:103E40000C6A010E0D6E0E6A10C007F011C008F06A
:103E500012C009F01BEC27F003C010F004C011F0F1
:103E600005C012F00350CE6E9D809E909F90CD8E27
:103E7000CD8CCD98CD9ACD96CD92CD80E552E7CF21
:103E8000D9FF120013681468156A02C216F003C243
:103E900017F0186A1650135C106E17501458116EF4
:103EA00018501558126E0C6A010E0D6E0E6A10C075
:103EB00007F011C008F012C009F01BEC27F0075002
:103EC000CF6E13681468156A02C216F003C217F0A9
:103ED000186A1650135C106E17501458116E185053
:103EE0001558126E0C6A010E0D6E0E6A10C007F0A6
:103EF00011C008F012C009F01BEC27F003C010F04D
:103F000004C011F005C012F00350CE6ECD80120037
:103F1000CD901200D9CFE6FFE1CFD9FFCA94CC6A89
:103F2000FE0EDB500201046F056BCB6E9D829E92EC
:103F30009F92CA90CA92CA84E552E7CFD9FF120075
:103F400004C2CBFFCA841200CA941200D9CFE6FF84
:103F5000E1CFD9FFB190FD0EDBCF06F2FE0EDBCF35
:103F600007F213681468156A06C216F007C217F044
:103F7000186A1650135C106E17501458116E1850B2
:103F80001558126E0C6A010E0D6E0E6A10C007F005
:103F900011C008F012C009F01BEC27F00750B36EF7
:103FA00013681468156A06C216F007C217F0186A7B
:103FB0001650135C106E17501458116E1850155887
:103FC000126E0C6A010E0D6E0E6A10C007F011C061
:103FD00008F012C009F01BEC27F003C010F004C079
:103FE00011F005C012F00350B26EA082A192A2920D
:103FF000B18EB198B19AB192B180E552E7CFD9FFB5
:10400000120013681468156A06C216F007C217F08A
:10401000186A1650135C106E17501458116E185011
:104020001558126E0C6A010E0D6E0E6A10C007F064
:1040300011C008F012C009F01BEC27F00350B26E5B
:1040400013681468156A06C216F007C217F0186ADA
:104050001650135C106E17501458116E18501558E6
:10406000126E0C6A010E0D6E0E6A10C007F011C0C0
:1040700008F012C009F01BEC27F007C010F008C0D0
:1040800011F009C012F00750B36EB1801200B19068
:1040900012000201102B000E11231851105D19514E
:1040A000115904E3106B116B010E086F120002012D
:1040B000122B000E13231A51125D1B51135904E3E6
:1040C000126B136B010E096F12000201142B000E0C
:1040D00015231C51145D1D51155904E3146B156B08
:1040E000010E0A6F12000201162B000E17231E513B
:1040F000165D1F51175904E3166B176B010E0B6FFA
:104100001200D9CFE6FFE1CFD9FFFD0EDBCF18F2C9
:10411000FE0EDBCF19F20201106B116B086BE5523A
:10412000E7CFD9FF1200D9CFE6FFE1CFD9FFFD0ECF
:10413000DBCF1AF2FE0EDBCF1BF2050E0D6E0E6A00
:104140001AC208F01BC209F0F5EC26F008C01AF2FA
:1041500009C01BF20201126B136B096BE552E7CF2A
:10416000D9FF1200D9CFE6FFE1CFD9FFFD0EDBCF9B
:104170001EF2FE0EDBCF1FF20A0E0D6E0E6A1EC27D
:1041800008F01FC209F0F5EC26F008C01EF209C0C5
:104190001FF20201166B176B0B6BE552E7CFD9FFCD
:0241A00012000B
:0E41A2000F0E946E82681200CF0E9414946E6D
:1041B00082681200D9CFE6FFE1CFD9FF040EE126D5
:1041C000DE6ADD6ADECF10F0DDCF11F0D89011503D
:1041D00004E6040E105C000E115801E390D0DECF0F
:1041E000E9FFDDCFEAFFDE0EE926010EEA22EF1C31
:1041F000826E020EDB6A030EDB6A020EDBCF10F06A
:10420000030EDBCF11F0D890115004E6040E105CC1
:10421000000E11586EE2020EDBCFE9FF030EDBCF7A
:10422000EAFFE20EE926010EEA22EF5082143FE196
:10423000DECF14F0DDCF15F0D89014361536D890B7
:1042400014361536020EDB501424E96E030EDB50D3
:104250001520EA6ED890E936EA36BE0EE926010E40
:10426000EA22EECF12F0EFCF13F0010E1226000E6D
:104270001322DECF10F0DDCF11F0D89010361136BA
:10428000D89010361136020EDB501024E96E030E62
:10429000DB501120EA6ED890E936EA36BE0EE926E8
:1042A000010EEA2212C0EEFF13C0EDFF1BD0DECFDD
:1042B00010F0DDCF11F0D89010361136D8901036AE
:1042C0001136020EDB501024E96E030EDB50112074
:1042D000EA6ED890E936EA36BE0EE926010EEA22E9
:1042E000EE6AED6A020EDB2A030E01E286D7DB2AB4
:1042F00084D7DF2A010E01E265D7DB2A63D7040EDB
:10430000E15C02E2E16AE552E16EE552E7CFD9FFF6
:104310001200D9CFE6FFE1CFD9FF040EE126DE6A15
:10432000DD6ADECF10F0DDCF11F0D890115004E639
:10433000020E105C000E115801E394D0DECFE9FFAD
:10434000DDCFEAFFDE0EE926010EEA22EF1C821421
:10435000826E0F0E8210826E020EDB6A030EDB6A23
:10436000020EDBCF10F0030EDBCF11F0D89011500E
:1043700004E6040E105C000E11586EE2020EDBCF54
:10438000E9FF030EDBCFEAFFE20EE926010EEA2287
:10439000EF5082143FE1DECF14F0DDCF15F0D8905E
:1043A00014361536D89014361536020EDB50142408
:1043B000E96E030EDB501520EA6ED890E936EA3636
:1043C000BE0EE926010EEA22EECF12F0EFCF13F077
:1043D000010E1226000E1322DECF10F0DDCF11F0F9
:1043E000D89010361136D89010361136020EDB50A8
:1043F0001024E96E030EDB501120EA6ED890E936E6
:10440000EA36BE0EE926010EEA2212C0EEFF13C004
:10441000EDFF1BD0DECF10F0DDCF11F0D8901036BD
:104420001136D89010361136020EDB501024E96E8A
:10443000030EDB501120EA6ED890E936EA36BE0E44
:10444000E926010EEA22EE6AED6A020EDB2A030E6D
:1044500001E286D7DB2A84D7DF2A010E01E261D789
:10446000DB2A5FD7040EE15C02E2E16AE552E16E0D
:10447000E552E7CFD9FF1200D9CFE6FFE1CFD9FF50
:10448000040EE126DE6ADD6ADECF10F0DDCF11F02A
:10449000FD0EDBCF12F0FE0EDBCF13F01150131820
:1044A000E8AE02D0133404D01250105C13501158EF
:1044B0001DE2020EDB6A030EDB6A020EDBCF10F098
:1044C000030EDBCF11F0D890115004E6EE0E105C15
:1044D000000E115806E2020EDB2A030EEEE3DB2A81
:1044E000ECD7DF2A010ED0E3DB2ACED7040EE15C45
:1044F00002E2E16AE552E16EE552E7CFD9FF120030
:10450000D9CFE6FFE1CFD9FF040EE126DE6ADD6AEE
:10451000DECF10F0DDCF11F0D890115004E6040E7C
:10452000105C000E115875E2DECFE9FFDDCFEAFF27
:10453000DE0EE926010EEA22EF1C826E020EDB6A15
:10454000030EDB6A020EDBCF10F0030EDBCF11F09F
:10455000D890115004E6040E105C000E11584AE287
:10456000DECF10F0DDCF11F0D89010361136D89094
:1045700010361136020EDB501024E96E030EDB50AC
:104580001120EA6ED890E936EA36BE0EE926010E11
:10459000EA22EE6AED6A020EDBCFE9FF030EDBCF03
:1045A000EAFFE20EE926010EEA22EF5082141CE136
:1045B000DECF10F0DDCF11F0D89010361136D89044
:1045C00010361136020EDB501024E96E030EDB505C
:1045D0001120EA6ED890E936EA36BE0EE926010EC1
:1045E000EA22010EEE6EED6A020EDB2A030EAAE34A
:1045F000DB2AA8D78250816EE80EE66E030EE66EC7
:104600003BDFE552E552DF2A010E01E281D7DB2ACA
:104610007FD7040EE15C02E2E16AE552E16EE55209
:06462000E7CFD9FF1200F4
:0A4626002E0020202000206D332F0D
:1046300068200D0A00206D672F6C20464C4F573DB7
:104640002000206D672F6C204E4F333D200020430B
:10465000204E48343D2000206D672F6C20544D5073
:104660003D2000206D672F6C204353423D200020E9
:1046700070482053533D200032302E30342E3136D6
:104680002030393A31323A3037202070483D2020EE
:10469000002A2A2A2A2A2A2A2A2A2A2A2A2A2A2AA4
:1046A0000044454E2047494F2054554F492043412F
:1046B00059005F004B484F4E472043414E4820422F
:1046C000414F00464C4F572043414F2000544D501E
:1046D0002043414F2000544D503D2020004E4F3389
:1046E0002043414F20004E4F333D2020004E4834A0
:1046F0002043414F20004E48343D2020005353209A
:1047000043414F200053533D202000434F4420435A
:10471000414F2000434F443D20200050482043415A
:104720004F200050483D202000332E2053617665F5
:1047300000496E7075743A20002D3E534554204652
:104740004C4F5720414443002D3E534554204E4F7B
:104750003320414443002020534554204E48342008
:10476000414443002020534554204E4F33204144C0
:1047700043002D3E534554204E48342041444300CD
:104780002D3E534554205353204144430020205391
:104790004554205048204144430020205345542094
:1047A000535320414443002D3E534554205048204C
:1047B000414443002D3E53455420434F442041443F
:1047C0004300202053455420544D50204144430081
:1047D000202053455420434F4420414443002D3E64
:1047E00053455420544D502041444300333A204D0A
:1047F00041582020202020343A4D494E002020539B
:10480000455420414443204D4F44452020002D3E37
:1048100053455420464C4F5720542E48002D3E53AC
:104820004554204E4F3320542E48002020534554E9
:10483000204E483420542E48002020534554204E0A
:104840004F3320542E48002D3E534554204E4834BB
:1048500020542E48002D3E53455420535320542EAF
:104860004800202053455420504820542E48002012
:104870002053455420535320542E48002D3E534579
:104880005420504820542E48002D3E534554204378
:104890004F4420542E4800202053455420544D505E
:1048A00020542E4800202053455420434F44205488
:1048B0002E48002D3E53455420544D5020542E4830
:1048C000002A2A2A2A4D4F44452A2A2A2A00205300
:1048D0004554205448524553484F4C442000362EEE
:1048E0002053455420414C41524D00352E20534514
:1048F00045205741524E494E4700342E20534554CF
:104900002041444300332E205345542054482E4820
:104910004F4C4400322E2041444A555354205449B0
:104920004D4500312E20444953504C4159205449A3
:104930004D45002A2A2A2A2A2A2A2A2A2A2A2A2AC3
:104940002A002A2A2A2A204D454E55202A2A2A2A78
:10495000002000444543004E4F56004F435400533F
:10496000455000415547004A554C004A554E004DB0
:10497000415900415052004D415200464542004AC3
:10498000414E003A004552520053415400465249AC
:10499000005448550057454400545545004D4F4E6E
:0549A0000053554E001C
:0149A5000011
:0A49A600D9CFE6FFE1CFD9FF020EE2
:1049B000E126FE0EDB500F0BDF6EFE0EDB380F0B19
:1049C0000A0D010EF3CFDBFFDB50DF24106E020E69
:1049D000E15C02E2E16AE552E16E1050E552E7CF98
:1049E000D9FF1200D9CFE6FFE1CFD9FF020EE126B1
:1049F0000A0E106E0E6EFE0EDBCF09F027EC29F0CA
:104A00000550DF6E0A0E106E0E6EFE0EDBCF09F043
:104A100027EC29F00950100D010EF3CFDBFFDB501E
:104A2000DF24106E020EE15C02E2E16AE552E16E03
:104A30001050E552E7CFD9FF1200949694981200D7
:104A4000D9CFE6FFE1CFD9FFE652DF6AFE0EDB5099
:104A5000DF5C02E2DF2AFAD7E552E552E7CFD9FF61
:104A6000120082A8000C010C0001FE5102E08288B5
:104A7000828682988296010EFE6F1200829882864C
:104A800082880001FE6B1200D9CFE6FFE1CFD9FF8B
:104A9000020EE126DF6ADFCF10F0080EE76E101875
:104AA000E8AE02D0E73402D0E750105C0FE2FE0E11
:104AB000DBBE02D0829801D0828882868296DB504B
:104AC000020DFE0EF3CFDBFFDF2AE5D79488828646
:104AD000C8DFE76E010EE7CFDBFF82969498DB50CC
:104AE000106E020EE15C02E2E16AE552E16E1050E6
:104AF000E552E7CFD9FF1200D9CFE6FFE1CFD9FFCA
:104B0000020EE126DF6A9488010EDB6ADBCF10F02B
:104B1000080EE76E1018E8AE02D0E73402D0E75076
:104B2000105C0BE282869DDF106EDF50E8241010CF
:104B3000DF6E8296010EDB2AE9D79498FE0EDB50D9
:104B400002E0828801D0829882868296DF50106EC1
:104B5000020EE15C02E2E16AE552E16E1050E552BC
:104B6000E7CFD9FF1200D9CFE6FFE1CFD9FF7CDF35
:104B7000D00EE66E89DFE552FE0EDBCFE6FF84DF66
:104B8000E552FD0EDBCFE6FF2DDFE552E66E7CDF62
:104B9000E55274DFE552E7CFD9FF1200D9CFE6FF27
:104BA000E1CFD9FFE65260DFD00EE66E6DDFE55251
:104BB000FE0EDBCFE6FF68DFE55256DFD10EE66E74
:104BC00063DFE552010EE66E97DFE552DF6EDFCF61
:104BD000E6FFE9DEE552DF6E51DFDF50E552E552D8
:064BE000E7CFD9FF12002F
:0A4BE600F28ED08EF28C1200F19CCA
:104BF000F292F2881200D8CFE4FFE0CFE4FFE46E37
:104C0000DACFE4FFE2CFDAFFE9CFE4FFEACFE4FF57
:104C1000F6CFE4FFF7CFE4FFF5CFE4FFF3CFE4FFF7
:104C2000F4CFE4FFFACFE4FF00EE00F0100EE8044A
:104C300003E3EECFE4FFFBD700EE10F0100EE80424
:104C400003E3EECFE4FFFBD7E652F2A407D09DECDE
:104C50001EF0F2949FEC1EF049EC20F09EA007D0CD
:104C600088EC1FF09E9042EC1FF057EC20F0A1A2C0
:104C700007D047EC20F0A19201EC20F073EC20F07B
:104C8000F2B2F2929EAA03D09E9A14EC1EF0E55264
:104C900000EE1FF0100EE80403E3E5CFEDFFFBD7B5
:104CA00000EE0FF0100EE80403E3E5CFEDFFFBD7B5
:104CB000E5CFFAFFE5CFF4FFE5CFF3FFE5CFF5FF52
:104CC000E5CFF7FFE5CFF6FFE5CFEAFFE5CFE9FF58
:104CD000E5CFDAFFE550E5CFE0FFE5CFD8FF1000E4
:104CE000DACFE4FFE2CFDAFFE9CFE4FFEACFE4FF77
:104CF000F6CFE4FFF7CFE4FFF5CFE4FFF3CFE4FF17
:104D0000F4CFE4FFFACFE4FF00EE00F0100EE80469
:104D100003E3EECFE4FFFBD700EE10F0100EE80443
:104D200003E3EECFE4FFFBD7E652F2A407D09DECFD
:104D30001EF0F2949FEC1EF049EC20F09EA007D0EC
:104D400088EC1FF09E9042EC1FF057EC20F0A1A2DF
:104D500007D047EC20F0A19201EC20F073EC20F09A
:104D6000F2B2F2929EAA03D09E9A14EC1EF0E55283
:104D700000EE1FF0100EE80403E3E5CFEDFFFBD7D4
:104D800000EE0FF0100EE80403E3E5CFEDFFFBD7D4
:104D9000E5CFFAFFE5CFF4FFE5CFF3FFE5CFF5FF71
:104DA000E5CFF7FFE5CFF6FFE5CFEAFFE5CFE9FF77
:064DB000E5CFDAFF11005F
:0A4DB600006A0EAEE1EF26F00E6C6D
:104DC000001E09AEE6EF26F0096C001E27EC29F064
:104DD00009BEF0EF26F000AE000C096C056C000C6B
:104DE00000BEEDEF26F00188FF0C006A0EAEFEEF6C
:104DF00026F00D6C0E1EE86A0E22001E09AE06EFAC
:104E000027F0086C091EE86A0922001EF3EC28F05E
:104E100009BE16EF27F000AE000C086C091EE86A08
:104E20000922046C051EE86A0522000C00BE0DEF85
:104E300027F00188FF0C006A0EAE26EF27F00C6CFD
:104E40000D1E0E1EE86A0D220E22001E09AE30EF66
:104E500027F0076C081E091EE86A08220922001EB6
:104E6000D6EC28F009BE43EF27F000AE000C076C2B
:104E7000081E091EE86A08220922036C041E051E8A
:104E800004220522000C00BE37EF27F00188FF0C3A
:104E9000006AE86A0EAE55EF27F00B6C0C1E0D1E73
:104EA0000E1E0C220D220E22001E09AE60EF27F00E
:104EB000066C071E081E091E072208220922001E72
:104EC000B2EC28F009BE77EF27F000AE000C066CBC
:104ED000071E081E091EE86A072208220922026C22
:104EE000031E041E051E032204220522000C00BE20
:084EF00067EF27F00188FF0CB9
:084EF80020C2E6FFE66AB3ECFC
:104F000025F0E552E55221C2E6FF010EE66EB3EC54
:104F100025F0E552E55222C2E6FF020EE66EB3EC42
:104F200025F0E552E55223C2E6FF030EE66EB3EC30
:104F300025F0E552E55224C2E6FF040EE66EB3EC1E
:104F400025F0E552E55225C2E6FF050EE66EB3EC0C
:104F500025F0E552E55226C2E6FF060EE66EB3ECFA
:104F600025F0E552E5521200E66ACEEC25F0E55256
:104F70000201206F010EE66ECEEC25F0E552020133
:104F8000216F020EE66ECEEC25F0E5520201226F93
:104F9000030EE66ECEEC25F0E5520201236F040EFF
:104FA000E66ECEEC25F0E5520201246F050EE66EAA
:104FB000CEEC25F0E5520201256F060EE66ECEEC32
:0A4FC00025F0E5520201266F1200F1
:064FCA001E0EF66E000E43
:104FD000F76E000EF86E0F010900F550766F0900AC
:104FE000F550776F03E1766701D03DD00900F550A9
:104FF000716F0900F550726F0900F550736F090069
:105000000900F550E96E0900F550EA6E0900090043
:105010000900F550746F0900F550756F090009001B
:10502000F6CF78FFF7CF79FFF8CF7AFF71CFF6FF91
:1050300072CFF7FF73CFF8FF0F01745302E175537E
:1050400007E00900F550EE6E7407F8E27507F9D72E
:1050500078CFF6FF79CFF7FF7ACFF8FF0F01760709
:08506000000E775BBFD71200C0
:085068000F0E926E0B0EC16EDB
:10507000040EC06E1200D9CFE6FFE1CFD9FF020EB9
:10508000E126FE0EDB50040DF350C26EC280C282D8
:10509000C2B2FED7C450DE6EDD6ADECF12F0DDCFC5
:1050A00013F0D89012361336D89012361336060EF7
:1050B000C3CFE7FF070B04E0E742E79EE806FCE109
:1050C000E7501224106E000E132010C0DEFFDD6EBC
:1050D000DECF10F0DDCF11F010C0F3FF11C0F4FFF0
:1050E000020EE15C02E2E16AE552E16EE552E7CFD1
:0450F000D9FF1200D2
:0C50F40006500B02F3CF02F0F4CF03F0E3
:105100000C02F3500326000EF420046E06500D022C
:10511000F3500426000EF420056E06500E02F350E4
:10512000052607500B02F3500326F4500422000E0C
:10513000052207500C02F3500426F45005220750B4
:105140000D02F350052608500B02F3500426F450CC
:10515000052208500C02F350052609500B02F350AB
:04516000052612000E
:0C516400056A046A036A026A200EE76E06
:10517000D890063607360836093602360336043626
:1051800005360B50025C0C5003580D5004580E505D
:10519000055809E30B50025E0C50035A0D50045A97
:0C51A0000E50055A062AE72EE4D7120034
:0451AC00056A046A22
:1051B000036A180EE76ED8900736083609360336AC
:1051C000043605360C50035C0D5004580E5005583B
:1051D00007E30C50035E0D50045A0E50055A072A7F
:0651E000E72EEAD71200E1
:0A51E600056A046A100EE76ED89007
:1051F00008360936043605360D50045C0E50055845
:1052000005E30D50045E0E50055A082AE72EF0D72C
:0252100012008A
:0E521200800EF36E00EE00F00F0E01D81200B9
:10522000EA6002D0EE6AFCD7F350E9601200EE6A41
:02523000FCD7A9
:0E5232001EEE00F02EEE00F0F86A019CE5EC96
:0E52400027F003EC00F06CEC14F0FBD712002A
:02524E00056AEF
:10525000080EE76ED890093605360E50055C02E35D
:0A526000056E092AE72EF7D71200A9
:06526A000000000000003E
:10527000000000000000000000000000000000002E
:0A5280000000010001000100010020
:06528A00010204081020DF
:0A5290004080000000000000000054
:06529A000000000000000E
:1052A00000001010101010101010181818181818EE
:1052B00018181C1C1C1C1C1C1C1C1E1E1E1E1E1E2A
:1052C0001E1E1F1F1F1F1F1F1F1F000000000000AA
:1052D00000000000000000000000000000000000CE
:1052E00000000000000000000000000000000000BE
:0B52F0000000000000000000000000B3
:0552FB000000000000AE
:105300000000000000000000000000000000001F7E
:10531000001C001F001E001F001E001F001F001E9B
:10532000001F001E001F009001000000000000E8A8
:1053300003D0070000C40900008813FF03E803E856
:10534000031027204E88131027A08C200300000094
:1053500000E803D00700000000D007D007D007E81E
:1053600003D007D007D007000000000000000000B5
:05537000000000000038
:075375001E0211050C0C16CD
:04537C00000000002D
:10538000000000000000000000000000000000001D
:10539000000000000000000000000000102040801D
:0453A00001020408FA
:020000040030CA
:0100010002FC
:0100020003FA
:010003001EDE
:010005008179
:010006008178
:010008000FE8
:01000900C036
:01000A000FE6
:01000B00E014
:01000C000FE4
:01000D0040B2
:00000001FF
