:020000040000FA
:060000001AEF3DF01200B2
:020006001200E6
:0600080071EF3AF0120056
:02000E000000F0
:020010000000EE
:0100120000ED
:020013000000EB
:06001800FCEF39F01200BC
:02001E000A00D6
:10002000047C0000C802000028000000FD7B0000E6
:10003000DA03000007000000EF7B0000F002000080
:100040000E00000013000000FE020000020000008D
:10005000117B000000010000DE0000001200000023
:10006000E5030000010000000E000000E1030000B5
:1000700004000000B07A0000000F000061000000E2
:100080009E7A0000C8030000120000007E7A000083
:08009000DE0100002000000069
:080098000301DD51070A24E019
:1000A000010A1EE0030A18E0010A12E0070A0CE048
:1000B000010A06E0030A1CE1EE0EE66E610E1BD09B
:1000C000EA0EE66E610E17D0E60EE66E610E13D0F4
:1000D000E20EE66E610E0FD0DE0EE66E610E0BD004
:1000E000DA0EE66E610E07D0D60EE66E610E03D014
:1000F000D20EE66E610EE66EE66AE66A77EC25F0F1
:10010000E552E552E552E5520A0E046E2A6EDCC352
:1001100025F0DCEC3AF025C000F0016A026A036ABF
:1001200000AE03D001680268036800C0E6FF01C0AA
:10013000E6FF02C0E6FF03C0E6FF040EE66EE66AD5
:1001400050EC24F0056E060EE15E0550DCC325F090
:100150000A0E2A6EDCEC3AF021C000F0016A026A55
:10016000036A00AE03D001680268036800C0E6FFBE
:1001700001C0E6FF02C0E6FF03C0E6FF050EE66E23
:10018000E66A50EC24F0046E060EE15E0450D00ED8
:10019000E66E610EE66E060EE66EE66A77EC25F018
:1001A000E552E552E552E5520A0E046E2A6EDBC3B3
:1001B00025F0DCEC3AF025C000F0016A026A036A1F
:1001C00000AE03D001680268036800C0E6FF01C00A
:1001D000E6FF02C0E6FF03C0E6FF070EE66EE66A32
:1001E00050EC24F0056E060EE15E0550DBC325F0F1
:1001F0000A0E2A6EDCEC3AF021C000F0016A026AB5
:10020000036A00AE03D001680268036800C0E6FF1D
:1002100001C0E6FF02C0E6FF03C0E6FF080EE66E7F
:10022000E66A50EC24F0046E060EE15E0450D00E37
:10023000E66E610EE66E090EE66EE66A77EC25F074
:10024000E552E552E552E5520A0E046E2A6EDAC313
:1002500025F0DCEC3AF025C000F0016A026A036A7E
:1002600000AE03D001680268036800C0E6FF01C069
:10027000E6FF02C0E6FF03C0E6FF0A0EE66EE66A8E
:1002800050EC24F0056E060EE15E0550DAC325F051
:100290000A0E2A6EDCEC3AF021C000F0016A026A14
:1002A000036A00AE03D001680268036800C0E6FF7D
:1002B00001C0E6FF02C0E6FF03C0E6FF0B0EE66EDC
:1002C000E66A50EC24F0046E060EE15E0450030171
:1002D000DF510C0A42E0070A3CE0010A36E0030A5B
:1002E00030E0010A2AE00F0A24E0010A1EE0030AB6
:1002F00018E0010A12E0070A0CE0010A06E0030A0E
:1003000030E1CC0EE66E610E2FD0C80EE66E610EA7
:100310002BD0C40EE66E610E27D0C00EE66E610EC5
:1003200023D0BC0EE66E610E1FD0B80EE66E610ED5
:100330001BD0B40EE66E610E17D0B00EE66E610EE5
:1003400013D0AC0EE66E610E0FD0A80EE66E610EF5
:100350000BD0A40EE66E610E07D0A00EE66E610E05
:1003600003D0D20EE66E610EE66E020EE66E010E50
:10037000E66E77EC25F0E552E552E552E5529E0E29
:10038000E66E610EE66E050EE66E010EE66E77EC29
:1003900025F0E552E552E552E5520A0E046E2A6E4A
:1003A000DEC325F0DCEC3AF025C000F0016A026AF9
:1003B000036A00AE03D001680268036800C0E6FF6C
:1003C00001C0E6FF02C0E6FF03C0E6FF060EE66ED0
:1003D000010EE66E50EC24F0056E060EE15E05504F
:1003E000DEC325F00A0E2A6EDCEC3AF021C000F0E4
:1003F000016A026A036A00AE03D0016802680368FA
:1004000000C0E6FF01C0E6FF02C0E6FF03C0E6FF52
:10041000070EE66E010EE66E50EC24F0046E060E3A
:10042000E15E04509E0EE66E610EE66E080EE66E0C
:10043000010EE66E77EC25F0E552E552E552E55205
:10044000140EE66EE66AE66AE66A090EE66E010ECC
:10045000E66E50EC24F0006E060EE15E00500A0ECF
:10046000046E2A6EE0C325F0DCEC3AF025C000F003
:10047000016A026A036A00AE03D001680268036879
:1004800000C0E6FF01C0E6FF02C0E6FF03C0E6FFD2
:100490000B0EE66E010EE66E50EC24F0056E060EB5
:1004A000E15E0550E0C325F00A0E2A6EDCEC3AF05E
:1004B00021C000F0016A026A036A00AE03D001683D
:1004C0000268036800C0E6FF01C0E6FF02C0E6FF65
:1004D00003C0E6FF0C0EE66E010EE66E50EC24F053
:1004E000046E060EE15E0450120002EC23F0070ECB
:1004F0000101121901E1135101E199D0060E1219FF
:1005000001E1135101E17FD0050E121901E11351F0
:100510006AE0040E121901E1135155E0030E12199D
:1005200001E1135140E0020E121901E113512BE0D9
:10053000010E121901E1135116E0125101E084D0AD
:10054000135101E081D08D0EE66E610EE66EE66A13
:10055000E66A77EC25F0E552E552E552E5527C0E6D
:10056000E66E610E5FD06B0EE66E610EE66EE66AB9
:10057000E66A77EC25F0E552E552E552E5525A0E6F
:10058000E66E610E4FD0490EE66E610EE66EE66ACB
:10059000E66A77EC25F0E552E552E552E552380E71
:1005A000E66E610E3FD0270EE66E610EE66EE66ADD
:1005B000E66A77EC25F0E552E552E552E552160E73
:1005C000E66E610E2FD0050EE66E610EE66EE66AEF
:1005D000E66A77EC25F0E552E552E552E552F40E75
:1005E000E66E600E1FD0E30EE66E600EE66EE66A03
:1005F000E66A77EC25F0E552E552E552E552D20E77
:10060000E66E600E0FD0C10EE66E600EE66EE66A14
:10061000E66A77EC25F0E552E552E552E552B00E78
:10062000E66E600EE66EE66A010EE66E06D09F0E7E
:10063000E66E600EE66EE66AE66A77EC25F0E55255
:10064000E552E552E5521200126B136B120002ECF8
:1006500023F0070E0101041901E1055101E199D0D0
:10066000060E041901E1055101E17FD0050E0419C0
:1006700001E105516AE0040E041901E1055155E05C
:10068000030E041901E1055140E0020E041901E1D5
:1006900005512BE0010E041901E1055116E004514A
:1006A00001E084D0055101E081D08E0EE66E600E2F
:1006B000E66EE66AE66A77EC25F0E552E552E55229
:1006C000E5527D0EE66E600E5FD06C0EE66E600E3B
:1006D000E66EE66AE66A77EC25F0E552E552E55209
:1006E000E5525B0EE66E600E4FD04A0EE66E600E6F
:1006F000E66EE66AE66A77EC25F0E552E552E552E9
:10070000E552390EE66E600E3FD0280EE66E600EA2
:10071000E66EE66AE66A77EC25F0E552E552E552C8
:10072000E552170EE66E600E2FD0060EE66E600ED6
:10073000E66EE66AE66A77EC25F0E552E552E552A8
:10074000E552F50EE66E5F0E1FD0E40EE66E5F0E0C
:10075000E66EE66AE66A77EC25F0E552E552E55288
:10076000E552D30EE66E5F0E0FD0C20EE66E5F0E40
:10077000E66EE66AE66A77EC25F0E552E552E55268
:10078000E552B10EE66E5F0EE66EE66A010EE66EAB
:1007900006D0A00EE66E5F0EE66EE66AE66A77ECBD
:1007A00025F0E552E552E552E5521200046B056B67
:1007B000120002EC23F0070E0101041901E10551BA
:1007C00001E199D0060E041901E1055101E17FD044
:1007D000050E041901E105516AE0040E041901E156
:1007E000055155E0030E041901E1055140E0020EE8
:1007F000041901E105512BE0010E041901E1055135
:1008000016E0045101E084D0055101E081D08F0E43
:10081000E66E5F0EE66EE66AE66A77EC25F0E55274
:10082000E552E552E5527E0EE66E5F0E5FD06D0E2C
:10083000E66E5F0EE66EE66AE66A77EC25F0E55254
:10084000E552E552E5525C0EE66E5F0E4FD04B0E60
:10085000E66E5F0EE66EE66AE66A77EC25F0E55234
:10086000E552E552E5523A0EE66E5F0E3FD0290E94
:10087000E66E5F0EE66EE66AE66A77EC25F0E55214
:10088000E552E552E552180EE66E5F0E2FD0070EC8
:10089000E66E5F0EE66EE66AE66A77EC25F0E552F4
:1008A000E552E552E552F60EE66E5E0E1FD0E50EFD
:1008B000E66E5E0EE66EE66AE66A77EC25F0E552D5
:1008C000E552E552E552D40EE66E5E0E0FD0C30E31
:1008D000E66E5E0EE66EE66AE66A77EC25F0E552B5
:1008E000E552E552E552B20EE66E5E0EE66EE66A3F
:1008F000010EE66E06D0A10EE66E5E0EE66EE66AAC
:10090000E66A77EC25F0E552E552E552E552120031
:10091000046B056B1200D9CFE6FFE1CFD9FF02ECE3
:1009200023F0010E01013A253A6F000E3B213B6F87
:100930000A0E296E2A6A3AC124F03BC125F0F6EC72
:100940003AF020C03AF121C03BF1D950FD0FE96ED9
:10095000FF0EDA20EA6E010EEE1801E03BD2ED50F8
:1009600001E038D202EC23F0FB0EDBCFE9FFFC0EF6
:10097000DBCFEAFFD890E936EA36F00EE926020E20
:10098000EA22EECFE6FFEFCFE6FFE66AE66A77EC13
:1009900025F0E552E552E552E552990EE66E5E0EFF
:1009A000E66E040EE66EE66A77EC25F0E552E55257
:1009B000E552E552FB0EDBCFE9FFFC0EDBCFEAFF91
:1009C000D890E936EA36A60EE926010EEA22EECFE5
:1009D00000F0EFCF01F0026A036A00C0E6FF01C039
:1009E000E6FF02C0E6FF03C0E6FF0B0EE66EE66A16
:1009F00050EC24F0046E060EE15E0450050E010179
:100A00003BAF02D0D89003D03A5D000E3B5927E2AD
:100A100036EC3DF0000923E0D950F90FE96EFF0EE6
:100A2000DA20EA6EEE50ED101AE1FB0EDBCFE9FFA3
:100A3000FC0EDBCFEAFFD890E936EA36A60EE926AF
:100A4000010EEA22EECF00F0EFCF01F0100E005CB5
:100A5000270E015804E3930EE66E5E0E92D0050E4B
:100A600001013BAF02D0D89003D03A5D000E3B5954
:100A700027E236EC3DF0000923E0D950F90FE96E8A
:100A8000FF0EDA20EA6EEE50ED101AE1FB0EDBCF1E
:100A9000E9FFFC0EDBCFEAFFD890E936EA36A60E76
:100AA000E926010EEA22EECF00F0EFCF01F0E80ECA
:100AB000005C030E015804E38E0EE66E5E0E61D0FC
:100AC000050E01013BAF02D0D89003D03A5D000E75
:100AD0003B5927E236EC3DF0000923E0D950F90FED
:100AE000E96EFF0EDA20EA6EEE50ED101AE1FB0E11
:100AF000DBCFE9FFFC0EDBCFEAFFD890E936EA3620
:100B0000A60EE926010EEA22EECF00F0EFCF01F0AB
:100B1000640E005C000E015804E38A0EE66E5E0E61
:100B200030D0050E01013BAF02D0D89003D03A5D22
:100B3000000E3B5930E236EC3DF000092CE0D95074
:100B4000F90FE96EFF0EDA20EA6EEE50ED1023E1A8
:100B5000FB0EDBCFE9FFFC0EDBCFEAFFD890E936D6
:100B6000EA36A60EE926010EEA22EECF00F0EFCF1C
:100B700001F0000E005C000E01580DE3870EE66EDA
:100B80005E0EE66E0B0EE66EE66A77EC25F0E55239
:100B9000E552E552E552FB0EDBCFE9FFFC0EDBCF61
:100BA000EAFFD890E936EA36F00EE926020EEA228C
:100BB000EECFE6FFEFCFE6FFE66A010EE66E77ECDA
:100BC00025F0E552E552E552E5527F0EE66E5E0EE7
:100BD000E66E040EE66E010EE66E77EC25F0E55249
:100BE000E552E552E552FB0EDBCFE9FFFC0EDBCF11
:100BF000EAFFD890E936EA36B40EE926010EEA2279
:100C0000EECF00F0EFCF01F0026A036A00C0E6FF0A
:100C100001C0E6FF02C0E6FF03C0E6FF0B0EE66E72
:100C2000010EE66E50EC24F0046E060EE15E0450F8
:100C3000050E01013BAF02D0D89003D03A5D000E03
:100C40003B5929E236EC3DF0000925E0D950F90F77
:100C5000E96EFF0EDA20EA6E010EEE181CE1ED508F
:100C60001AE1FB0EDBCFE9FFFC0EDBCFEAFFD890E9
:100C7000E936EA36B40EE926010EEA22EECF00F09C
:100C8000EFCF01F0100E005C270E015804E3930E25
:100C9000E66E5E0E94D0050E01013BAF02D0D890F7
:100CA00003D03A5D000E3B5929E236EC3DF00009D5
:100CB00025E0D950F90FE96EFF0EDA20EA6E010E39
:100CC000EE181CE1ED501AE1FB0EDBCFE9FFFC0E44
:100CD000DBCFEAFFD890E936EA36B40EE926010EFA
:100CE000EA22EECF00F0EFCF01F0E80E005C030E39
:100CF000015804E38E0EE66E5E0E61D0050E010112
:100D00003BAF02D0D89003D03A5D000E3B5925E2AC
:100D100036EC3DF0000921E0D950F90FE96EFF0EE5
:100D2000DA20EA6E010EEE1818E1ED5016E1FB0E26
:100D3000DBCFE9FFFC0EDBCFEAFFD890E936EA36DD
:100D4000B40EE926010EEA22EECF00F0EFCF01F05B
:100D5000640E005C000E01582FE2050E01013BAF4E
:100D600002D0D89003D03A5D000E3B5933E236EC06
:100D70003DF000092FE0D950F90FE96EFF0EDA209F
:100D8000EA6E010EEE1826E1ED5024E1FB0EDBCFFA
:100D9000E9FFFC0EDBCFEAFFD890E936EA36B40E65
:100DA000E926010EEA22EECF00F0EFCF01F0000EAF
:100DB000005C000E01580EE38A0EE66E5E0EE66ED3
:100DC0000B0EE66E010EE66E77EC25F0E552E5526D
:100DD000E552E552D950FD0FE96EFF0EDA20EA6EBA
:100DE000020EEE1801E03FD2ED5001E03CD202ECE1
:100DF00023F0FB0EDBCFE9FFFC0EDBCFEAFFD89040
:100E0000E936EA36F00EE926020EEA22EECFE6FFD8
:100E1000EFCFE6FFE66AE66A77EC25F0E552E552A9
:100E2000E552E552760EE66E5E0EE66E040EE66E56
:100E3000E66A77EC25F0E552E552E552E552FB0E05
:100E4000DBCFE9FFFC0EDBCFEAFFD890E936EA36CC
:100E5000C20EE926010EEA22EECF00F0EFCF01F03C
:100E6000026A036A00C0E6FF01C0E6FF02C0E6FFB7
:100E700003C0E6FF0B0EE66EE66A50EC24F0046E4B
:100E8000060EE15E0450050E01013BAF02D0D89082
:100E900003D03A5D000E3B5927E236EC3DF00009E5
:100EA00023E0D950F90FE96EFF0EDA20EA6EEE501A
:100EB000ED101AE1FB0EDBCFE9FFFC0EDBCFEAFF02
:100EC000D890E936EA36C20EE926010EEA22EECFC4
:100ED00000F0EFCF01F0100E005C270E015804E384
:100EE000930EE66E5E0E92D0050E01013BAF02D06E
:100EF000D89003D03A5D000E3B5927E236EC3DF026
:100F0000000923E0D950F90FE96EFF0EDA20EA6EEE
:100F1000EE50ED101AE1FB0EDBCFE9FFFC0EDBCF4C
:100F2000EAFFD890E936EA36C20EE926010EEA2237
:100F3000EECF00F0EFCF01F0E80E005C030E015899
:100F400004E38E0EE66E5E0E61D0050E01013BAF2E
:100F500002D0D89003D03A5D000E3B5927E236EC20
:100F60003DF0000923E0D950F90FE96EFF0EDA20B9
:100F7000EA6EEE50ED101AE1FB0EDBCFE9FFFC0E3E
:100F8000DBCFEAFFD890E936EA36C20EE926010E39
:100F9000EA22EECF00F0EFCF01F0640E005C000E0D
:100FA000015804E38A0EE66E5E0E30D0050E010194
:100FB0003BAF02D0D89003D03A5D000E3B5930E2EF
:100FC00036EC3DF000092CE0D950F90FE96EFF0E28
:100FD000DA20EA6EEE50ED1023E1FB0EDBCFE9FFE5
:100FE000FC0EDBCFEAFFD890E936EA36C20EE926DE
:100FF000010EEA22EECF00F0EFCF01F0000E005C10
:10100000000E01580DE3870EE66E5E0EE66E0B0EC7
:10101000E66EE66A77EC25F0E552E552E552E552D8
:10102000FB0EDBCFE9FFFC0EDBCFEAFFD890E93601
:10103000EA36F00EE926020EEA22EECFE6FFEFCF07
:10104000E6FFE66A010EE66E77EC25F0E552E55222
:10105000E552E5526D0EE66E5E0EE66E040EE66E2D
:10106000010EE66E77EC25F0E552E552E552E552C9
:10107000FB0EDBCFE9FFFC0EDBCFEAFFD890E936B1
:10108000EA36D00EE926010EEA22EECF00F0EFCFCD
:1010900001F0026A036A00C0E6FF01C0E6FF02C079
:1010A000E6FF03C0E6FF0B0EE66E010EE66E50ECA7
:1010B00024F0046E060EE15E0450050E01013BAF04
:1010C00002D0D89003D03A5D000E3B5929E236ECAD
:1010D0003DF0000925E0D950F90FE96EFF0EDA2046
:1010E000EA6E010EEE181CE1ED501AE1FB0EDBCFAB
:1010F000E9FFFC0EDBCFEAFFD890E936EA36D00EE6
:10110000E926010EEA22EECF00F0EFCF01F0100E3B
:10111000005C270E015804E3930EE66E5E0E98D035
:10112000050E01013BAF02D0D89003D03A5D000E0E
:101130003B5929E236EC3DF0000925E0D950F90F82
:10114000E96EFF0EDA20EA6E010EEE181CE1ED509A
:101150001AE1FB0EDBCFE9FFFC0EDBCFEAFFD890F4
:10116000E936EA36D00EE926010EEA22EECF00F08B
:10117000EFCF01F0E80E005C030E015804E38E0E81
:10118000E66E5E0E65D0050E01013BAF02D0D89031
:1011900003D03A5D000E3B5929E236EC3DF00009E0
:1011A00025E0D950F90FE96EFF0EDA20EA6E010E44
:1011B000EE181CE1ED501AE1FB0EDBCFE9FFFC0E4F
:1011C000DBCFEAFFD890E936EA36D00EE926010EE9
:1011D000EA22EECF00F0EFCF01F0640E005C000ECB
:1011E000015804E38A0EE66E5E0E32D0050E010150
:1011F0003BAF02D0D89003D03A5D000E3B5933E2AA
:1012000036EC3DF000092FE0D950F90FE96EFF0EE2
:10121000DA20EA6E010EEE1826E1ED5024E1FB0E15
:10122000DBCFE9FFFC0EDBCFEAFFD890E936EA36E8
:10123000D00EE926010EEA22EECF00F0EFCF01F04A
:10124000000E005C000E01580EE3870EE66E5E0E87
:10125000E66E0B0EE66E010EE66E77EC25F0E552BB
:10126000E552E552E552E552E7CFD9FF120002EC14
:1012700023F001011051111170E1000184510101AD
:10128000A65D000185510101A75927E2670EE66EB0
:101290005E0EE66EE66AE66A77EC25F0E552E55208
:1012A000E552E55284C000F085C001F0026A036A8D
:1012B00084C0E6FF85C0E6FF02C0E6FF03C0E6FF8C
:1012C000060EE66EE66AA2EC25F0046E060EE15EFE
:1012D00004505F0EE66E5E0E2FD00101B451000186
:1012E000845D0101B551000185592BE2670EE66E60
:1012F0005E0EE66EE66AE66A77EC25F0E552E552A8
:10130000E552E55284C000F085C001F0026A036A2C
:1013100084C0E6FF85C0E6FF02C0E6FF03C0E6FF2B
:10132000060EE66EE66AA2EC25F0046E060EE15E9D
:101330000450560EE66E5E0EE66EE66A010EE66E2E
:1013400006D04B0EE66E5E0EE66EE66AE66A77EC57
:1013500025F0E552E552E552E5520101010E101962
:1013600072E1115170E1000186510101A85D000197
:1013700087510101A95927E2450EE66E5E0EE66E21
:10138000E66AE66A77EC25F0E552E552E552E55269
:1013900086C000F087C001F0026A036A86C0E6FFDB
:1013A00087C0E6FF02C0E6FF03C0E6FF060EE66E5A
:1013B000E66AA2EC25F0046E060EE15E04503D0ED6
:1013C000E66E5E0E2FD00101B6510001865D01016F
:1013D000B751000187592BE2450EE66E5E0EE66EB0
:1013E000E66AE66A77EC25F0E552E552E552E55209
:1013F00086C000F087C001F0026A036A86C0E6FF7B
:1014000087C0E6FF02C0E6FF03C0E6FF060EE66EF9
:10141000E66AA2EC25F0046E060EE15E0450340E7E
:10142000E66E5E0EE66EE66A010EE66E06D0290EE8
:10143000E66E5E0EE66EE66AE66A77EC25F0E55249
:10144000E552E552E5520101020E101972E1115107
:1014500070E1000188510101AA5D0001895101017B
:10146000AB5927E2220EE66E5E0EE66EE66AE66A8B
:1014700077EC25F0E552E552E552E55288C000F0E0
:1014800089C001F0026A036A88C0E6FF89C0E6FFEE
:1014900002C0E6FF03C0E6FF060EE66EE66AA2ECB7
:1014A00025F0046E060EE15E0450190EE66E5E0E27
:1014B0002FD00101B8510001885D0101B95100012F
:1014C00089592BE2220EE66E5E0EE66EE66AE66A49
:1014D00077EC25F0E552E552E552E55288C000F080
:1014E00089C001F0026A036A88C0E6FF89C0E6FF8E
:1014F00002C0E6FF03C0E6FF060EE66EE66AA2EC57
:1015000025F0046E060EE15E04500F0EE66E5E0ED0
:10151000E66EE66A010EE66E06D0030EE66E5E0E1D
:10152000E66EE66AE66A77EC25F0E552E552E552AA
:10153000E5520101030E101972E1115170E1000131
:101540008A510101AC5D00018B510101AD5927E2C7
:10155000FC0EE66E5D0EE66EE66AE66A77EC25F056
:10156000E552E552E552E5528AC000F08BC001F029
:10157000026A036A8AC0E6FF8BC0E6FF02C0E6FF8C
:1015800003C0E6FF060EE66EE66AA2EC25F0046EE6
:10159000060EE15E0450F30EE66E5D0E2FD00101E3
:1015A000BA5100018A5D0101BB5100018B592BE248
:1015B000FC0EE66E5D0EE66EE66AE66A77EC25F0F6
:1015C000E552E552E552E5528AC000F08BC001F0C9
:1015D000026A036A8AC0E6FF8BC0E6FF02C0E6FF2C
:1015E00003C0E6FF060EE66EE66AA2EC25F0046E86
:1015F000060EE15E0450E90EE66E5D0EE66EE66AEA
:10160000010EE66E06D0DD0EE66E5D0EE66EE66A53
:10161000E66A77EC25F0E552E552E552E552010124
:10162000040E101972E1115170E100018C51010199
:10163000AE5D00018D510101AF5927E2D60EE66E75
:101640005D0EE66EE66AE66A77EC25F0E552E55255
:10165000E552E5528CC000F08DC001F0026A036AC9
:101660008CC0E6FF8DC0E6FF02C0E6FF03C0E6FFC8
:10167000060EE66EE66AA2EC25F0046E060EE15E4A
:101680000450CD0EE66E5D0E2FD00101BC5100015D
:101690008C5D0101BD5100018D592BE2D60EE66E25
:1016A0005D0EE66EE66AE66A77EC25F0E552E552F5
:1016B000E552E5528CC000F08DC001F0026A036A69
:1016C0008CC0E6FF8DC0E6FF02C0E6FF03C0E6FF68
:1016D000060EE66EE66AA2EC25F0046E060EE15EEA
:1016E0000450C30EE66E5D0EE66EE66A010EE66E0F
:1016F00006D0B70EE66E5D0EE66EE66AE66A77EC39
:1017000025F0E552E552E552E5520101050E1019AA
:1017100072E1115170E100018E510101B05D0001D3
:101720008F510101B15927E2B00EE66E5D0EE66EF3
:10173000E66AE66A77EC25F0E552E552E552E552B5
:101740008EC000F08FC001F0026A036A8EC0E6FF0F
:101750008FC0E6FF02C0E6FF03C0E6FF060EE66E9E
:10176000E66AA2EC25F0046E060EE15E0450A70EB8
:10177000E66E5D0E2FD00101BE5100018E5D0101AC
:10178000BF5100018F592BE2B00EE66E5D0EE66E82
:10179000E66AE66A77EC25F0E552E552E552E55255
:1017A0008EC000F08FC001F0026A036A8EC0E6FFAF
:1017B0008FC0E6FF02C0E6FF03C0E6FF060EE66E3E
:1017C000E66AA2EC25F0046E060EE15E04509D0E62
:1017D000E66E5D0EE66EE66A010EE66E06D0910ECE
:1017E000E66E5D0EE66EE66AE66A77EC25F0E55297
:1017F000E552E552E5520101060E101972E1115150
:1018000070E1000190510101B25D000191510101AF
:10181000B35927E2450EE66E5E0EE66EE66AE66AAC
:1018200077EC25F0E552E552E552E55290C000F024
:1018300091C001F0026A036A90C0E6FF91C0E6FF22
:1018400002C0E6FF03C0E6FF060EE66EE66AA2EC03
:1018500025F0046E060EE15E0450860EE66E5D0E07
:101860002FD00101C0510001905D0101C151000163
:1018700091592BE2450EE66E5E0EE66EE66AE66A6A
:1018800077EC25F0E552E552E552E55290C000F0C4
:1018900091C001F0026A036A90C0E6FF91C0E6FFC2
:1018A00002C0E6FF03C0E6FF060EE66EE66AA2ECA3
:1018B00025F0046E060EE15E04507C0EE66E5D0EB1
:1018C000E66EE66A010EE66E06D06F0EE66E5D0EFF
:1018D000E66EE66AE66A77EC25F0E552E552E552F7
:1018E000E5520101E7051CE1880EE66E130EE66E77
:1018F00024EC36F0E552E552010E01011025106F7F
:10190000000E1121116F070E296E2A6A10C124F0F2
:1019100011C125F0F6EC3AF020C010F121C011F110
:1019200012000201050ED25D000ED35923E3D2C28C
:1019300000F0016A010E001600181CE101501AE1C6
:101940000301DC29DC6F170EE76EDC19E8AE02D06C
:10195000DC3503D0E750D880DC5501E2DC6BDCC31A
:10196000E6FF020EE66EB4EC39F0E552E5520201F4
:10197000D26BD36B050ED45D000ED5591CE3D4C2D7
:1019800000F00001016A010E0016001814E1015078
:1019900012E10301DC05DC6FE83402E3170EDC6FB3
:1019A000DCC3E6FF020EE66EB4EC39F0E552E55218
:1019B0000201D46BD56B12000201050ED25D000E40
:1019C000D35923E3D2C200F0016A010E00160018B9
:1019D0001CE101501AE10301DB29DB6F3B0EE76ECE
:1019E000DB19E8AE02D0DB3503D0E750D880DB55F9
:1019F00001E2DB6BDBC3E6FF010EE66EB4EC39F00F
:101A0000E552E5520201D26BD36B050ED45D000E98
:101A1000D5591CE3D4C200F00001016A010E001682
:101A2000001814E1015012E10301DB05DB6FE8341B
:101A300002E33B0EDB6FDBC3E6FF010EE66EB4ECA8
:101A400039F0E552E5520201D46BD56B1200020168
:101A5000050ED25D000ED35924E3D2C200F0016A14
:101A6000010E001600181DE101501BE10301DD29E4
:101A7000DD6F070EE76EDD19E8AE02D0DD3503D06D
:101A8000E750D880DD5502E2010EDD6FDDC3E6FFD1
:101A9000030EE66EB4EC39F0E552E5520201D26B6A
:101AA000D36B050ED45D000ED55924E3D4C200F0EB
:101AB0000001016A010E001600181CE101501AE134
:101AC0000301DD05DD6F010EE76EDD19E8AE02D022
:101AD000E73402D0E750DD5D02E2070EDD6FDDC3C3
:101AE000E6FF030EE66EB4EC39F0E552E552020172
:101AF000D46BD56B12000201050ED25D000ED359D6
:101B000024E3D2C200F0016A010E001600181DE1A4
:101B100001501BE10301DE29DE6F1F0EE76EDE19A7
:101B2000E8AE02D0DE3503D0E750D880DE5502E2C1
:101B3000010EDE6FDEC3E6FF040EE66EB4EC39F094
:101B4000E552E5520201D26BD36B050ED45D000E57
:101B5000D55924E3D4C200F00001016A010E001639
:101B600000181CE101501AE10301DE05DE6F010ED1
:101B7000E76EDE19E8AE02D0E73402D0E750DE5D52
:101B800002E21F0EDE6FDEC3E6FF040EE66EB4EC6B
:101B900039F0E552E5520201D46BD56B1200020117
:101BA000050ED25D000ED35924E3D2C200F0016AC3
:101BB000010E001600181DE101501BE10301DF2991
:101BC000DF6F0C0EE76EDF19E8AE02D0DF3503D011
:101BD000E750D880DF5502E2010EDF6FDFC3E6FF7A
:101BE000050EE66EB4EC39F0E552E5520201D26B17
:101BF000D36B050ED45D000ED55924E3D4C200F09A
:101C00000001016A010E001600181CE101501AE1E2
:101C10000301DF05DF6F010EE76EDF19E8AE02D0CA
:101C2000E73402D0E750DF5D02E20C0EDF6FDFC366
:101C3000E6FF050EE66EB4EC39F0E552E55202011E
:101C4000D46BD56B12000201050ED25D000ED35984
:101C500023E3D2C200F0016A010E001600181CE155
:101C600001501AE10301E029E06F630EE76EE0190D
:101C7000E8AE02D0E03503D0E750D880E05501E26D
:101C8000E06BE0C3E6FF060EE66EB4EC39F0E55219
:101C9000E5520201D26BD36B050ED45D000ED5590F
:101CA0001CE3D4C200F00001016A010E0016001806
:101CB00014E1015012E10301E005E06FE83402E3B2
:101CC000630EE06FE0C3E6FF060EE66EB4EC39F09B
:101CD000E552E5520201D46BD56B120002EC23F001
:101CE000B5EC3BF0010E01013A253A6F000E3B21A5
:101CF0003B6F0A0E296E2A6A3AC124F03BC125F0D7
:101D0000F6EC3AF020C03AF121C03BF1110E01018E
:101D1000061901E1075101E149D10F0E061901E150
:101D2000075101E10AD1100E061901E1075101E145
:101D3000C9D00D0E061901E1075101E189D00C0E41
:101D4000061901E107514AE00E0E061901E107519B
:101D50000CE0065101E1075101E012004CEC00F0EB
:101D60000E0E0101066F076B120071DE4CEC00F0E5
:101D7000050E01013BAF02D0D89003D03A5D000EB2
:101D80003B5910E236EC3DF000090CE08A0EE66E9D
:101D90005E0EE66EE66AE66A77EC25F0E552E552FD
:101DA000E552E5520201050ED05D000ED15901E267
:101DB00036D1D0C200F0D1C201F00001016A010E9B
:101DC000001600180AE1015001E029D10C0E0101B2
:101DD000066F076B0201D06BD16B1200A2DD4CECD9
:101DE00000F0050E01013BAF02D0D89003D03A5D60
:101DF000000E3B5911E236EC3DF000090DE0870E74
:101E0000E66E5E0EE66E040EE66EE66A77EC25F090
:101E1000E552E552E552E5520201050ED05D000E95
:101E2000D15901E2FCD0D0C200F0D1C201F00001D2
:101E3000016A010E001600180AE1015001E0EFD01E
:101E40000D0E0101066F076B0201D06BD16B120002
:101E5000B3DD4CEC00F0050E01013BAF02D0D89091
:101E600003D03A5D000E3B5911E236EC3DF000091B
:101E70000DE0870EE66E5E0EE66E070EE66EE66A13
:101E800077EC25F0E552E552E552E5520201050EE8
:101E9000D05D000ED15901E2C2D0D0C200F0D1C253
:101EA00001F00001016A010E001600180AE101505C
:101EB00001E0B5D0100E0101066F076B0201D06B77
:101EC000D16B12006CDE4CEC00F0050E01013BAF53
:101ED00002D0D89003D03A5D000E3B5912E236ECA6
:101EE0003DF000090EE08A0EE66E5E0EE66E020E12
:101EF000E66E010EE66E77EC25F0E552E552E5520E
:101F0000E5520201050ED05D000ED15901E287D0E5
:101F1000D0C200F0D1C201F00001016A010E00162A
:101F200000180AE1015001E07AD00F0E0101066F9E
:101F3000076B0201D06BD16B1200DDDD4CEC00F0C1
:101F4000050E01013BAF02D0D89003D03A5D000EE0
:101F50003B5912E236EC3DF000090EE0870EE66ECA
:101F60005E0EE66E060EE66E010EE66E77EC25F06E
:101F7000E552E552E552E5520201050ED05D000E34
:101F8000D1594DE3D0C200F0D1C201F00001016A85
:101F9000010E0016001809E1015041E1110E010186
:101FA000066F076B0201D06BD16B12004CDE4CEC5C
:101FB00000F0050E01013BAF02D0D89003D03A5D8E
:101FC000000E3B5912E236EC3DF000090EE0870EA0
:101FD000E66E5E0EE66E0B0EE66E010EE66E77ECBA
:101FE00025F0E552E552E552E5520201050ED05DBD
:101FF000000ED15914E3D0C200F0D1C201F00001AB
:10200000016A010E0016001809E1015008E10E0EE8
:102010000101066F076B0201D06BD16B1200120039
:1020200002EC23F0010E01013A253A6F000E3B212C
:102030003B6F0A0E296E2A6A3AC124F03BC125F093
:10204000F6EC3AF020C03AF121C03BF10A0E046EE2
:102050002A6E36C125F0DCEC3AF025C000F0016AAA
:10206000026A036A00AE03D001680268036800C018
:10207000E6FF01C0E6FF02C0E6FF03C0E6FF020E76
:10208000E66EE66A50EC24F0056E060EE15E055041
:1020900036C125F00A0E2A6EDCEC3AF021C000F0C1
:1020A000016A026A036A00AE03D00168026803682D
:1020B00000C0E6FF01C0E6FF02C0E6FF03C0E6FF86
:1020C000030EE66EE66A50EC24F0046E060EE15E46
:1020D0000450050E01013BAF02D0D89003D03A5D09
:1020E000000E3B5922E236EC3DF000091EE00101F2
:1020F000085109111AE16D0EE66E5D0EE66E020ED4
:10210000E66EE66A77EC25F0E552E552E552E552D7
:102110006D0EE66E5D0EE66E030EE66EE66A77EC19
:1021200025F0E552E552E552E552D00EE66E610E1D
:10213000E66E040EE66EE66A77EC25F0E552E552AF
:10214000E552E5520A0E046E2A6E37C125F0DCEC2A
:102150003AF025C000F0016A026A036A00AE03D0BB
:1021600001680268036800C0E6FF01C0E6FF02C024
:10217000E6FF03C0E6FF050EE66EE66A50EC24F0CB
:10218000056E060EE15E055037C125F00A0E2A6E77
:10219000DCEC3AF021C000F0016A026A036A00AE8A
:1021A00003D001680268036800C0E6FF01C0E6FFD3
:1021B00002C0E6FF03C0E6FF060EE66EE66A50ECDC
:1021C00024F0046E060EE15E0450050E01013BAFE3
:1021D00002D0D89003D03A5D000E3B5924E236EC91
:1021E0003DF0000920E00101010E08191CE1095130
:1021F0001AE16D0EE66E5D0EE66E050EE66EE66A9F
:1022000077EC25F0E552E552E552E5526D0EE66EAB
:102210005D0EE66E060EE66EE66A77EC25F0E55298
:10222000E552E552E5526A0EE66E5D0EE66E070E69
:10223000E66EE66A77EC25F0E552E552E552E552A6
:102240000A0E046E2A6E38C125F0DCEC3AF025C087
:1022500000F0016A026A036A00AE03D001680268F6
:10226000036800C0E6FF01C0E6FF02C0E6FF03C04E
:10227000E6FF090EE66EE66A50EC24F0056E060EE7
:10228000E15E055038C125F00A0E2A6EDCEC3AF00A
:1022900021C000F0016A026A036A00AE03D001683F
:1022A0000268036800C0E6FF01C0E6FF02C0E6FF67
:1022B00003C0E6FF0A0EE66EE66A50EC24F0046EF8
:1022C000060EE15E0450050E01013BAF02D0D8902E
:1022D00003D03A5D000E3B5924E236EC3DF0000994
:1022E00020E00101020E08191CE109511AE16D0EEE
:1022F000E66E5D0EE66E090EE66EE66A77EC25F098
:10230000E552E552E552E5526D0EE66E5D0EE66E63
:102310000A0EE66EE66A77EC25F0E552E552E552E4
:10232000E552D00EE66E610EE66E0B0EE66EE66AC4
:1023300077EC25F0E552E552E552E5520A0E046EBF
:102340002A6E39C125F0DCEC3AF025C000F0016AB4
:10235000026A036A00AE03D001680268036800C025
:10236000E6FF01C0E6FF02C0E6FF03C0E6FF0C0E79
:10237000E66EE66A50EC24F0056E060EE15E05504E
:1023800039C125F00A0E2A6EDCEC3AF021C000F0CB
:10239000016A026A036A00AE03D00168026803683A
:1023A00000C0E6FF01C0E6FF02C0E6FF03C0E6FF93
:1023B0000D0EE66EE66A50EC24F0046E060EE15E49
:1023C0000450050E01013BAF02D0D89003D03A5D16
:1023D000000E3B5924E236EC3DF0000920E00101FB
:1023E000030E08191CE109511AE16D0EE66E5D0E2F
:1023F000E66E0C0EE66EE66A77EC25F0E552E552E5
:10240000E552E5526D0EE66E5D0EE66E0D0EE66E61
:10241000E66A77EC25F0E552E552E552E552590EB1
:10242000E66E5D0EE66EE66A010EE66E77EC25F06E
:10243000E552E552E552E55212000201050EC85D73
:10244000000EC95920E3C8C200F0016A010E00164F
:10245000001819E1015017E1010E01010825086F6C
:10246000000E0921096F040E296E2A6A08C124F0A2
:1024700009C125F0F6EC3AF020C008F121C009F1BD
:102480000201C86BC96B050ED85D000ED9594BE32C
:10249000D8C200F00001016A010E0016001843E1E5
:1024A000015041E10101085109110AE101013629F8
:1024B000006E256E180E2A6EDCEC3AF021C036F163
:1024C0000101010E08190CE109510AE10101372946
:1024D000006E256E3C0E2A6EDCEC3AF021C037F11E
:1024E0000101020E08190CE109510AE10101382924
:1024F000006E256E180E2A6EDCEC3AF021C038F121
:102500000101030E08190CE109510AE10101392901
:10251000006E256E3C0E2A6EDCEC3AF021C039F1DB
:102520000201D86BD96B0201050EDA5D000EDB5992
:102530003FE3DAC200F00001016A010E0016001844
:1025400037E1015035E101010851091102E10101B2
:1025500036070101010E081904E1095102E10101E8
:1025600037070101020E081904E1095102E10101D6
:1025700038070101030E081904E1095102E10101C4
:1025800039070101363502E3170E366F0101383580
:1025900002E3170E386F0101373502E33B0E376F48
:1025A0000101393502E33B0E396F0201DA6BDB6B57
:1025B0000201050ED05D000ED15911E3D0C200F02A
:1025C0000001016A010E0016001809E1015007E13F
:1025D000010E0101006F016B0201D06BD16B10EF96
:1025E00010F002EC23F001010E510F1148E1550EDD
:1025F000E66E5D0EE66EE66AE66A77EC25F0E55279
:10260000E552E552E55284C000F085C001F0026A4F
:10261000036A84C0E6FF85C0E6FF02C0E6FF03C090
:10262000E6FF030EE66EE66AA2EC25F0046E060EE7
:10263000E15E0450510EE66E5D0EE66EE66A010E36
:10264000E66E77EC25F0E552E552E552E55286C09C
:1026500000F087C001F0026A036A86C0E6FF87C007
:10266000E6FF02C0E6FF03C0E6FF030EE66E010EC2
:10267000E66EA2EC25F0046E060EE15E0450010148
:10268000010E0E194AE10F5148E14C0EE66E5D0E47
:10269000E66EE66AE66A77EC25F0E552E552E55229
:1026A000E55288C000F089C001F0026A036A88C060
:1026B000E6FF89C0E6FF02C0E6FF03C0E6FF040EA6
:1026C000E66EE66AA2EC25F0046E060EE15E0450AA
:1026D000470EE66E5D0EE66EE66A010EE66E77EC7C
:1026E00025F0E552E552E552E5528AC000F08BC074
:1026F00001F0026A036A8AC0E6FF8BC0E6FF02C0EF
:10270000E6FF03C0E6FF040EE66E010EE66EA2ECE5
:1027100025F0046E060EE15E04500101020E0E1952
:102720004AE10F5148E1420EE66E5D0EE66EE66A42
:10273000E66A77EC25F0E552E552E552E5528CC0A9
:1027400000F08DC001F0026A036A8CC0E6FF8DC004
:10275000E6FF02C0E6FF03C0E6FF040EE66EE66A8F
:10276000A2EC25F0046E060EE15E04503D0EE66E0E
:102770005D0EE66EE66A010EE66E77EC25F0E55238
:10278000E552E552E5528EC000F08FC001F0026ABA
:10279000036A8EC0E6FF8FC0E6FF02C0E6FF03C0FB
:1027A000E6FF040EE66E010EE66EA2EC25F0046E66
:1027B000060EE15E04500101030E0E1925E10F51D2
:1027C00023E1370EE66E5D0EE66EE66AE66A77ECAA
:1027D00025F0E552E552E552E55290C000F091C077
:1027E00001F0026A036A90C0E6FF91C0E6FF02C0F2
:1027F000E6FF03C0E6FF050EE66EE66AA2EC25F0F2
:10280000046E060EE15E04500101E7051CE1100EA6
:10281000E66E270EE66E24EC36F0E552E552010E28
:1028200001010E250E6F000E0F210F6F040E296E91
:102830002A6A0EC124F00FC125F0F6EC3AF020C050
:102840000EF121C00FF11200D9CFE6FFE1CFD9FF81
:1028500002EC23F0FD0EDBCFE9FFFE0EDBCFEAFF3B
:10286000D890E936EA36F00EE926020EEA22EECFDB
:10287000E6FFEFCFE6FFE66AE66A77EC25F0E55281
:10288000E552E552E552D00EE66E610EE66E030E9D
:10289000E66EE66A77EC25F0E552E552E552E55240
:1028A000FB0EDBCF00F0FC0EDBCF01F0026A036A07
:1028B00001AE02D00268036800C0E6FF01C0E6FF77
:1028C00002C0E6FF03C0E6FF040EE66EE66AA2EC75
:1028D00025F0046E060EE15E0450320EE66E5D0ECB
:1028E000E66E0B0EE66EE66A77EC25F0E552E552F1
:1028F000E552E5522E0EE66E5D0EE66EE66A010EBC
:10290000E66E77EC25F0E552E552E552E552F90E18
:10291000DBCF00F0FA0EDBCF01F0026A036A01AEF2
:1029200002D00268036800C0E6FF01C0E6FF02C0F3
:10293000E6FF03C0E6FF030EE66E010EE66EA2ECB4
:1029400025F0046E060EE15E0450F70EDBCF00F0BA
:10295000F80EDBCF01F0026A036A01AE02D0026812
:10296000036800C0E6FF01C0E6FF02C0E6FF03C047
:10297000E6FF0A0EE66E010EE66EA2EC25F0046E8E
:10298000060EE15E0450E552E7CFD9FF120002ECDB
:1029900023F0070E0101041901E1055101E199D06D
:1029A000060E041901E1055101E17FD0050E04195D
:1029B00001E105516AE0040E041901E1055155E0F9
:1029C000030E041901E1055140E0020E041901E172
:1029D00005512BE0010E041901E1055116E00451E7
:1029E00001E084D0055101E081D01D0EE66E5D0E40
:1029F000E66EE66AE66A77EC25F0E552E552E552C6
:102A0000E5520C0EE66E5D0E5FD0FB0EE66E5C0EC0
:102A1000E66EE66AE66A77EC25F0E552E552E552A5
:102A2000E552EA0EE66E5C0E4FD0D90EE66E5C0EF5
:102A3000E66EE66AE66A77EC25F0E552E552E55285
:102A4000E552C80EE66E5C0E3FD0B70EE66E5C0E29
:102A5000E66EE66AE66A77EC25F0E552E552E55265
:102A6000E552A60EE66E5C0E2FD0950EE66E5C0E5D
:102A7000E66EE66AE66A77EC25F0E552E552E55245
:102A8000E552840EE66E5C0E1FD0730EE66E5C0E91
:102A9000E66EE66AE66A77EC25F0E552E552E55225
:102AA000E552620EE66E5C0E0FD0510EE66E5C0EC5
:102AB000E66EE66AE66A77EC25F0E552E552E55205
:102AC000E552400EE66E5C0EE66EE66A010EE66EBC
:102AD00006D02F0EE66E5C0EE66EE66AE66A77ECCE
:102AE00025F0E552E552E552E5521200046B056B04
:022AF0001200D2
:0E2AF200D9CFE6FFE1CFD9FF020EE126DE6A62
:102B0000DD6AB3D81EEC39F00BEC21F002EC23F0B7
:102B1000000EE66EE66A14D9E552E552E80EE66E5E
:102B2000030EE66E5ED8E552E5527DEC3BF08294F2
:102B3000BBD94EDAE2DAA6EC19F03BEC1AF071DB05
:102B4000D0EC1AF0010136510301DC5D0AE101010C
:102B500037510301DB5D05E1000EE66EE66AC8D879
:102B60000ED0010138510301DC5D0BE10101395147
:102B70000301DB5D06E1000EE66EE66AE1D8E55290
:102B8000E5520101E9052AE1320EE66EE66A43EC00
:102B900036F0E552E5526BEC36F08250040B1AE049
:102BA0000201050ECA5D000ECB5914E3CAC200F043
:102BB000CBC201F00001016A010E001600180AE103
:102BC000015008E18294010E0301D86FD96B020114
:102BD000CA6BCB6B06EC27F065EC1BF031EC23F0F5
:102BE000A6D7D9CFE6FFE1CFD9FF040EE126DE6AF2
:102BF000DD6ADECF00F0DDCF01F0FD0EDBCF02F0AD
:102C0000FE0EDBCF03F001500318E8AE02D0033410
:102C100004D00250005C035001581DE2020EDB6A32
:102C2000030EDB6A020EDBCF00F0030EDBCF01F0F8
:102C3000D890015004E6EE0E005C000E015806E24A
:102C4000020EDB2A030EEEE3DB2AECD7DF2A010EAD
:102C5000D0E3DB2ACED7040EE15C02E2E16AE55262
:102C6000E16EE552E7CFD9FF1200936A926A946A47
:102C700062EC1FF0956A836AF4EC39F0E80EE66EB8
:102C8000030EE66EAEDFE552E552570EE66E120E0B
:102C9000E66ED4EC33F0E552E552AE0EE66E240E4D
:102CA000E66E76EC34F0E552E552660EE66EB70E4F
:102CB000E66E37EC35F0E552E552020EE66EE66A56
:102CC00012EC36F0E552E5520A0EE66EE66A24ECA6
:102CD00036F0E552E552320EE66EE66A43EC36F027
:102CE000E552E55266EC36F006EC31F035EF3CF09B
:102CF000D9CFE6FFE1CFD9FFFE0EDBCF01F0800E8A
:102D000001141AE1FD0EDBCF02F0FE0EDBCF03F063
:102D1000033404E202500708000E03540DE3FD0ED5
:102D2000DBCFE9FFFE0EDBCFEAFFC80EE926030E7C
:102D3000EA22EF508310836EE552E7CFD9FF1200ED
:102D4000D9CFE6FFE1CFD9FFFE0EDBCF01F0800E39
:102D500001141AE1FD0EDBCF02F0FE0EDBCF03F013
:102D6000033404E202500708000E03540DE3FD0E85
:102D7000DBCFE9FFFE0EDBCFEAFFC80EE926030E2C
:102D8000EA22EF1C8314836EE552E7CFD9FF1200CD
:102D9000D9CFE6FFE1CFD9FFFD0EDBCFE9FFFE0E75
:102DA000DBCFEAFFD00EE926030EEA22EF0415E19D
:102DB000FD0EDBCFE6FFFE0EDBCFE6FFC1DFE55207
:102DC000E552FD0EDBCFE9FFFE0EDBCFEAFFD00EB2
:102DD000E926030EEA22EF6A15D0FD0EDBCFE6FFEF
:102DE000FE0EDBCFE6FF84DFE552E552FD0EDBCFC2
:102DF000E9FFFE0EDBCFEAFFD00EE926030EEA2242
:102E0000010EEF6EE552E7CFD9FF1200D9CFE6FFF2
:102E1000E1CFD9FF020EE126DE6ADD6ADECF00F0E7
:102E2000DDCF01F0013404E200500708000E015428
:102E300021E3DECFE6FFDDCFE6FF5ADFE552E552C4
:102E4000F40EE66E010EE66ECCDEE552E552DECF04
:102E5000E6FFDDCFE6FF74DFE552E552F40EE66EE5
:102E6000010EE66EBEDEE552E552DF2A010ED6E324
:102E7000DB2AD4D7020EE15C02E2E16AE552E16EA0
:102E8000E552E7CFD9FF12000201010ECA1903E192
:102E9000CB5101E1010C000C0201010EC81903E144
:102EA000C95101E1010C000CD9CFE6FFE1CFD9FFF8
:102EB000020EE126E66A3CEC3CF0E552F3CF58F115
:102EC000F4CF59F101015A6B5B6B59AF02D05A69CB
:102ED0005B697BC1E9FFEA6AE9BEEA68D890E93636
:102EE000EA36920EE926000EEA2258C1EEFF59C1D9
:102EF000EDFF01017B29006E256E320E2A6EDCEC9F
:102F00003AF021C07BF121C074F101013C6B3D6BB3
:102F10003E6B3F6BDE6ADD6ADECF00F0DDCF01F095
:102F2000D890015004E6320E005C000E01582FE2EA
:102F300074C1E9FFEA6AE9BEEA68D890E936EA3680
:102F4000920EE926000EEA22EECF00F0EFCF01F05C
:102F5000026A036A3C0EE96E010EEA6EEE5000242E
:102F600001013C6FEE5001203D6FEE5002203E6F9C
:102F7000EE5003203F6F0101745103E1310E746F75
:102F800001D07407DF2A010EC7E3DB2AC5D7320E52
:102F9000276E286A296A2A6A3CC122F03DC123F0C3
:102FA0003EC124F03FC125F0B3EC3CF022C03CF11F
:102FB00023C03DF124C03EF125C03FF1020EE15C8B
:102FC00002E2E16AE552E16EE552E7CFD9FF120075
:102FD000D9CFE6FFE1CFD9FF020EE126010EE66E62
:102FE0003CEC3CF0E552F3CF5CF1F4CF5DF1010134
:102FF0005E6B5F6B5DAF02D05E695F697CC1E9FFAC
:10300000EA6AE9BEEA68D890E936EA36000EE926AF
:10301000020EEA225CC1EEFF5DC1EDFF01017C29D9
:10302000006E256E320E2A6EDCEC3AF021C07CF187
:1030300021C075F10101406B416B426B436BDE6A4D
:10304000DD6ADECF00F0DDCF01F0D890015004E65C
:10305000320E005C000E01582FE275C1E9FFEA6AEA
:10306000E9BEEA68D890E936EA36000EE926020E93
:10307000EA22EECF00F0EFCF01F0026A036A400EC1
:10308000E96E010EEA6EEE5000240101406FEE5031
:103090000120416FEE500220426FEE500320436F3B
:1030A0000101755103E1310E756F01D07507DF2AFB
:1030B000010EC7E3DB2AC5D7320E276E286A296ABC
:1030C0002A6A40C122F041C123F042C124F043C129
:1030D00025F0B3EC3CF022C040F123C041F124C004
:1030E00042F125C043F1020EE15C02E2E16AE552E1
:1030F000E16EE552E7CFD9FF1200D9CFE6FFE1CF6D
:10310000D9FF020EE126E66E3CEC3CF0E552F3CF2F
:1031100060F1F4CF61F10101626B636B61AF02D0CA
:10312000626963697DC1E9FFEA6AE9BEEA68D8902D
:10313000E936EA36640EE926020EEA2260C1EEFFA5
:1031400061C1EDFF01017D29006E256E320E2A6EF0
:10315000DCEC3AF021C07DF121C076F10101446B35
:10316000456B466B476BDE6ADD6ADECF00F0DDCF74
:1031700001F0D890015004E6320E005C000E0158B8
:103180002FE276C1E9FFEA6AE9BEEA68D890E9363B
:10319000EA36640EE926020EEA22EECF00F0EFCF07
:1031A00001F0026A036A440EE96E010EEA6EEE5007
:1031B00000240101446FEE500120456FEE500220C3
:1031C000466FEE500320476F0101765103E1310E47
:1031D000766F01D07607DF2A010EC7E3DB2AC5D759
:1031E000320E276E286A296A2A6A44C122F045C134
:1031F00023F046C124F047C125F0B3EC3CF022C0D7
:1032000044F123C045F124C046F125C047F1020E28
:10321000E15C02E2E16AE552E16EE552E7CFD9FFF7
:103220001200D9CFE6FFE1CFD9FF020EE126030E4F
:10323000E66E3CEC3CF0E552F3CF64F1F4CF65F17F
:103240000101666B676B65AF02D0666967697EC115
:10325000E9FFEA6AE9BEEA68D890E936EA36000E84
:10326000E926040EEA2264C1EEFF65C1EDFF01010B
:103270007E29006E256E320E2A6EDCEC3AF021C0FB
:103280007EF121C077F10101486B496B4A6B4B6BB2
:10329000DE6ADD6ADECF00F0DDCF01F0D8900150AC
:1032A00004E6320E005C000E01582FE277C1E9FF00
:1032B000EA6AE9BEEA68D890E936EA36000EE926FD
:1032C000040EEA22EECF00F0EFCF01F0026A036AAB
:1032D000480EE96E010EEA6EEE5000240101486FBF
:1032E000EE500120496FEE5002204A6FEE5003204D
:1032F0004B6F0101775103E1310E776F01D07707F2
:10330000DF2A010EC7E3DB2AC5D7320E276E286AF3
:10331000296A2A6A48C122F049C123F04AC124F02F
:103320004BC125F0B3EC3CF022C048F123C049F179
:1033300024C04AF125C04BF1020EE15C02E2E16AD1
:10334000E552E16EE552E7CFD9FF1200D9CFE6FF93
:10335000E1CFD9FF020EE126040EE66E3CEC3CF014
:10336000E552F3CF68F1F4CF69F101016A6B6B6B41
:1033700069AF02D06A696B697FC1E9FFEA6AE9BE99
:10338000EA68D890E936EA36640EE926040EEA22A5
:1033900068C1EEFF69C1EDFF01017F29006E256E56
:1033A000320E2A6EDCEC3AF021C07FF121C078F1B8
:1033B00001014C6B4D6B4E6B4F6BDE6ADD6ADECFED
:1033C00000F0DDCF01F0D890015004E6320E005C31
:1033D000000E01582FE278C1E9FFEA6AE9BEEA6807
:1033E000D890E936EA36640EE926040EEA22EECFDA
:1033F00000F0EFCF01F0026A036A4C0EE96E010E95
:10340000EA6EEE50002401014C6FEE5001204D6F2A
:10341000EE5002204E6FEE5003204F6F01017851A5
:1034200003E1310E786F01D07807DF2A010EC7E380
:10343000DB2AC5D7320E276E286A296A2A6A4CC150
:1034400022F04DC123F04EC124F04FC125F0B3EC62
:103450003CF022C04CF123C04DF124C04EF125C0F8
:103460004FF1020EE15C02E2E16AE552E16EE552E3
:10347000E7CFD9FF1200D9CFE6FFE1CFD9FF020E87
:10348000E126050EE66E3CEC3CF0E552F3CF6CF124
:10349000F4CF6DF101016E6B6F6B6DAF02D06E6991
:1034A0006F6980C1E9FFEA6AE9BEEA68D890E93647
:1034B000EA36000EE926030EEA226CC1EEFF6DC16A
:1034C000EDFF01018029006E256E320E2A6EDCECC4
:1034D0003AF021C080F121C079F10101506B516BAC
:1034E000526B536BDE6ADD6ADECF00F0DDCF01F098
:1034F000D890015004E6320E005C000E01582FE215
:1035000079C1E9FFEA6AE9BEEA68D890E936EA36A5
:10351000000EE926030EEA22EECF00F0EFCF01F015
:10352000026A036A500EE96E010EEA6EEE50002444
:103530000101506FEE500120516FEE500220526F8A
:10354000EE500320536F0101795103E1310E796F81
:1035500001D07907DF2A010EC7E3DB2AC5D7320E77
:10356000276E286A296A2A6A50C122F051C123F0C5
:1035700052C124F053C125F0B3EC3CF022C050F10D
:1035800023C051F124C052F125C053F1020EE15C79
:1035900002E2E16AE552E16EE552E7CFD9FF12009F
:1035A000D9CFE6FFE1CFD9FF020EE126060EE66E87
:1035B0003CEC3CF0E552F3CF70F1F4CF71F1010136
:1035C000726B736B71AF02D07269736981C1E9FF6D
:1035D000EA6AE9BEEA68D890E936EA36640EE92676
:1035E000030EEA2270C1EEFF71C1EDFF01018129D6
:1035F000006E256E320E2A6EDCEC3AF021C081F1AD
:1036000021C07AF10101546B556B566B576BDE6A22
:10361000DD6ADECF00F0DDCF01F0D890015004E686
:10362000320E005C000E01582FE27AC1E9FFEA6A0F
:10363000E9BEEA68D890E936EA36640EE926030E58
:10364000EA22EECF00F0EFCF01F0026A036A540ED7
:10365000E96E010EEA6EEE5000240101546FEE5047
:103660000120556FEE500220566FEE500320576F29
:1036700001017A5103E1310E7A6F01D07A07DF2A16
:10368000010EC7E3DB2AC5D7320E276E286A296AE6
:103690002A6A54C122F055C123F056C124F057C103
:1036A00025F0B3EC3CF022C054F123C055F124C006
:1036B00056F125C057F1020EE15C02E2E16AE552E3
:1036C000E16EE552E7CFD9FF1200D9CFE6FFE1CF97
:1036D000D9FF040EE126010E00018025806F000E47
:1036E0008121816F280E296E2A6A80C024F081C052
:1036F00025F0F4EC3CF020C080F021C081F0000106
:103700002050211001E0F3D282C100F083C101F00A
:10371000026A036A010182510101985D086E9951A4
:1037200001018355096E0A6A0B6A3CC122F03DC152
:1037300023F03EC124F03FC125F008C027F0286ED9
:103740000AC029F00BC02AF07BEC3CF01EC004F04C
:103750001FC005F020C006F021C007F02768030E47
:10376000286E296A2A6A1EC022F01FC023F020C0DA
:1037700024F021C025F049EC3BF022C004F023C026
:1037800005F024C006F025C007F022500026235083
:103790000122245002222550032200C084F001C0DF
:1037A00085F040C122F041C123F042C124F043C161
:1037B00025F0100E276E270E286E296A2A6A7BECE8
:1037C0003CF01EC022F01FC023F020C024F021C016
:1037D00025F02768030E286E296A2A6A49EC3BF017
:1037E00022C086F023C087F044C122F045C123F0F7
:1037F00046C124F047C125F0D00E276E070E286E73
:10380000296A2A6A7BEC3CF01EC022F01FC023F01C
:1038100020C024F021C025F02768030E286E296AF5
:103820002A6A49EC3BF022C088F023C089F090C19D
:1038300004F091C105F0066A076A01019251010185
:10384000965D186E975101019355196E1A6A1B6A9D
:10385000010190510101945D146E95510101915542
:10386000156E166A176A92C110F093C111F0126AB0
:10387000136A10500101485D0C6E115049590D6ECC
:1038800012504A590E6E13504B590F6E0CC022F055
:103890000DC023F00EC024F0256E14C027F015C013
:1038A00028F016C029F017C02AF07BEC3CF01EC0AF
:1038B00008F01FC009F020C00AF021C00BF01EC0A4
:1038C00022F01FC023F020C024F021C025F018C032
:1038D00027F019C028F01AC029F01BC02AF049ECC3
:1038E0003BF004502224006E05502320016E065048
:1038F0002420026E07502520036E00C08EF001C008
:103900008FF04CC100F04DC101F04EC102F04FC12B
:1039100003F0A00E276E0F0E286E296A2A6A4CC18A
:1039200022F04DC123F04EC124F04FC125F07BECB5
:103930003CF01EC000F01FC001F020C002F021C00A
:1039400003F02768030E286E296A2A6A1EC022F037
:103950001FC023F020C024F021C025F049EC3BF02B
:1039600022C000F023C001F024C002F025C003F003
:10397000E80E0026030E0122000E0222032200C0E0
:103980008AF001C08BF050C100F051C101F052C16A
:1039900002F053C103F0400E276E1F0E286E296AF5
:1039A0002A6A50C122F051C123F052C124F053C100
:1039B00025F07BEC3CF01EC000F01FC001F020C0E1
:1039C00002F021C003F02768030E286E296A2A6AD4
:1039D0001EC022F01FC023F020C024F021C025F01B
:1039E00049EC3BF022C000F023C001F024C002F0FB
:1039F00025C003F0D00E0026070E0122000E022281
:103A0000032200C08CF001C08DF054C122F055C1DA
:103A100023F056C124F057C125F0A00E276E8C0E5E
:103A2000286E296A2A6A7BEC3CF01EC022F01FC077
:103A300023F020C024F021C025F02768030E286E53
:103A4000296A2A6A49EC3BF022C090F023C091F029
:103A5000000184510101A65D000185510101A759B2
:103A600075E30101B4510001845D0101B55100010C
:103A700085596CE3000186510101A85D0001875161
:103A80000101A95963E30101B6510001865D0101FD
:103A9000B751000187595AE3000188510101AA5D1D
:103AA000000189510101AB5951E30101B8510001F5
:103AB000885D0101B9510001895948E300018A512B
:103AC0000101AC5D00018B510101AD593FE30101E2
:103AD000BA5100018A5D0101BB5100018B5936E3E7
:103AE00000018C510101AE5D00018D510101AF5902
:103AF0002DE30101BC5100018C5D0101BD510001AC
:103B00008D5924E300018E510101B05D00018F51F8
:103B10000101B1591BE30101BE5100018E5D01019C
:103B2000BF5100018F5912E3000190510101B25DB4
:103B3000000191510101B35909E30101C051000194
:103B4000905D0101C1510001915905E20301D85175
:103B5000D91101E18284F40EE66E5B0EE66E87EC0D
:103B600031F0E552E55284C000F085C001F0026AF0
:103B7000036A84C0E6FF85C0E6FF02C0E6FF03C01B
:103B8000E6FF39EC33F0E552E552E552E552EB0E33
:103B9000E66E5B0EE66E87EC31F0E552E55286C0CC
:103BA00000F087C001F0026A036A86C0E6FF87C0A2
:103BB000E6FF02C0E6FF03C0E6FF39EC33F0E55252
:103BC000E552E552E552DF0EE66E5B0EE66E87ECDF
:103BD00031F0E552E55288C000F089C001F0026A78
:103BE000036A88C0E6FF89C0E6FF02C0E6FF03C0A3
:103BF000E6FF39EC33F0E552E552E552E552D30EDB
:103C0000E66E5B0EE66E87EC31F0E552E5528EC053
:103C100000F08FC001F0026A036A8EC0E6FF8FC019
:103C2000E6FF02C0E6FF03C0E6FF39EC33F0E552E1
:103C3000E552E552E552CA0EE66E5B0EE66E87EC83
:103C400031F0E552E5528AC000F08BC001F0026A03
:103C5000036A8AC0E6FF8BC0E6FF02C0E6FF03C02E
:103C6000E6FF39EC33F0E552E552E552E552BE0E7F
:103C7000E66E5B0EE66E87EC31F0E552E5528CC0E5
:103C800000F08DC001F0026A036A8CC0E6FF8DC0AF
:103C9000E6FF02C0E6FF03C0E6FF39EC33F0E55271
:103CA000E552E552E552B10EE66E5B0EE66E87EC2C
:103CB00031F0E552E55290C000F091C001F0026A87
:103CC000036A90C0E6FF91C0E6FF02C0E6FF03C0B2
:103CD000E6FF39EC33F0E552E552E552E552A80E25
:103CE000E66E5B0EE66E87EC31F0E552E552040EAF
:103CF000E15C02E2E16AE552E16EE552E7CFD9FF0D
:103D0000120044EC17F0000904E03CC192F13DC1FF
:103D100093F14CEC17F0000904E03CC196F13DC171
:043D200097F1120005
:0C3D2400D9CFE6FFE1CFD9FF040EE12665
:103D3000DE6ADD6ADECF00F0DDCF01F0026A036AE1
:103D400001AE02D002680368D950FB0FE96EFF0E86
:103D5000DA20EA6EEE50005CEE500158EE50025848
:103D6000EE5003581DE2020EDB6A030EDB6A020E00
:103D7000DBCF00F0030EDBCF01F0D890015004E65A
:103D8000050E005C000E015806E2020EDB2A030E4F
:103D9000EEE3DB2AECD7DF2A010ECCE3DB2ACAD71D
:103DA000040EE15C02E2E16AE552E16EE552E7CF22
:103DB000D9FF1200D9CFE6FFE1CFD9FF040EE126EB
:103DC000DE6ADD6ADECF00F0DDCF01F0026A036A51
:103DD00001AE02D002680368D950FB0FE96EFF0EF6
:103DE000DA20EA6EEE50005CEE500158EE500258B8
:103DF000EE5003581DE2020EDB6A030EDB6A020E70
:103E0000DBCF00F0030EDBCF01F0D890015004E6C9
:103E1000EE0E005C000E015806E2020EDB2A030ED5
:103E2000EEE3DB2AECD7DF2A010ECCE3DB2ACAD78C
:103E3000040EE15C02E2E16AE552E16EE552E7CF91
:103E4000D9FF1200D9CFE6FFE1CFD9FF0F0E8116BF
:103E5000FE0EDB50F00B81128186010EE66EE66AE3
:103E6000E66AE66AA7DFE552E552E552E552819639
:103E7000010EE66EE66AE66AE66A9CDFE552E55206
:103E8000E552E5520F0E8116FE0EDB38F00B811263
:103E90008186010EE66EE66AE66AE66A8BDFE55227
:103EA000E552E552E5528196010EE66EE66AE66A53
:103EB000E66A80DFE552E552E552E552E552E7CF8A
:103EC000D9FF1200D9CFE6FFE1CFD9FFE652190E94
:103ED000E66EE66AE66AE66A6DDFE552E552E552AD
:103EE000E5520F0E8116F80E81160F0E8116300E58
:103EF00081128186010EE66EE66AE66AE66A5ADF9C
:103F0000E552E552E552E5528196010EE66EE66A0B
:103F1000E66AE66A4FDFE552E552E552E5520F0EDA
:103F20008116300E81128186010EE66EE66AE66A1F
:103F3000E66A40DFE552E552E552E5528196010E10
:103F4000E66EE66AE66AE66A35DFE552E552E55274
:103F5000E5520F0E8116300E81128186010EE66E3B
:103F6000E66AE66AE66A26DFE552E552E552E55280
:103F70008196010EE66EE66AE66AE66A1BDFE552A6
:103F8000E552E552E5520F0E8116818A8186010EB7
:103F9000E66EE66AE66AE66A0DDFE552E552E5524C
:103FA000E5528196010EE66EE66AE66AE66A02DF8F
:103FB000E552E552E552E552280EE66E43DFE55242
:103FC0000C0EE66E3FDFE552E552E552E7CFD9FF32
:103FD0001200D9CFE6FFE1CFD9FF020EE126DF6A5A
:103FE000010EDB6A81940F0EE66EE66AE66AE66A07
:103FF00099DEE552E552E552E5520F0E81128186B7
:10400000E66EE66AE66AE66A8DDEE552E552E5525C
:10401000E5520F0E8114E76E010EE7CFDBFF8196AC
:104020000F0EE66EE66AE66AE66A7CDEE552E55267
:10403000E552E5520F0E81128186E66EE66AE66A67
:10404000E66A70DEE552E552E552E5520F0E811444
:10405000DF6E010EDB50DF128196010EE66EE66A1E
:10406000E66AE66A5FDEE552E552E552E552DF5068
:10407000006E020EE15C02E2E16AE552E16E005080
:10408000E552E7CFD9FF1200D9CFE6FFE1CFD9FF44
:10409000E652DF6A9EDFDF6EDFBEFCD7DF50E552FF
:1040A000E552E7CFD9FF1200D9CFE6FFE1CFD9FF24
:1040B0000F0E8116FE0EDB5081128186050EE66E14
:1040C000E66AE66AE66A2EDEE552E552E552E55218
:1040D0008196050EE66EE66AE66AE66A23DEE5523A
:1040E000E552E552E552E552E7CFD9FF1200D9CFAC
:1040F000E6FFE1CFD9FF8194050EE66EE66AE66A37
:10410000E66A10DEE552E552E552E552FE0EDBCFDF
:10411000E6FFCADFE552FE0EDB38F00BE66EC4DFC9
:10412000E552E552E7CFD9FF1200D9CFE6FFE1CF44
:10413000D9FF8184050EE66EE66AE66AE66AF2DD7C
:10414000E552E552E552E552FE0EDBCFE6FFACDF6D
:10415000E552FE0EDB38F00BE66EA6DFE5528194E9
:10416000E552E7CFD9FF1200D9CFE6FFE1CFD9FF63
:10417000FE0EDBCFE6FFD9DFE552E552E7CFD9FFF0
:104180001200D9CFE6FFE1CFD9FFFE0EDBCFE6FF6D
:10419000CCDFE552E552E7CFD9FF1200D9CFE6FFD9
:1041A000E1CFD9FFFD0EDBCFF6FFFE0EDBCFF7FF31
:1041B0000800F5500FE0FD0EDBCFF6FFDB2AFE0E08
:1041C000DBCFF7FF01E3DB2A0800F550E66ED9DF0D
:1041D000E552E8D7E552E7CFD9FF1200D9CFE6FF85
:1041E000E1CFD9FFE652FD0EDB500F0B006EFE0E45
:1041F000DB50010B400DF3500024DF6E7F0EDF1407
:10420000800FDF6EDFCFE6FF72DFE552E552E55249
:10421000E7CFD9FF1200010EE66E69DFE552E66ACC
:10422000E66ADCDFE552E5521200D9CFE6FFE1CFC6
:10423000D9FF050EE126010EF36EDB6E020EDB6A7E
:10424000030EDB6A040EDB6ADF6ADFCF00F0016A6F
:1042500000BE0168FB0EDBCF02F0FC0EDBCF03F0EB
:1042600001500318E8AE02D0033404D00250005CC1
:10427000035001582DE2FD0EDBCF00F0FE0EDBCF28
:1042800001F0026A036A01AE02D002680368D950E5
:10429000010FE96EDACFEAFF00C027F001C028F075
:1042A00002C029F003C02AF0EECF22F0EECF23F0B7
:1042B000EECF24F0EFCF25F07BEC3CF021C0EDFFFA
:1042C00020C0EDFF1FC0EDFF1EC0EFFFDF2ABDD7EE
:1042D000010EDBCF00F0020EDBCF01F0030EDBCFCF
:1042E00002F0040EDBCF03F000C022F001C023F087
:1042F00002C024F003C025F0050EE15C02E2E16A91
:10430000E552E16EE552E7CFD9FF1200D9CFE6FFC3
:10431000E1CFD9FF020EE126DF6AFB0EDBCF00F012
:10432000FC0EDBCF01F0FD0EDBCF02F0FE0EDBCF8B
:1043300003F0005001100210031005E1300EE66E8C
:1043400020DFE552F4D0D950FB0FE96EFF0EDA20E2
:10435000EA6ED890030EEB50000A08E6000EEE5C01
:10436000000EEE58000EEE58000EEE5815E22D0E1F
:10437000E66E07DFE552D950FB0FE96EFF0EDA203B
:10438000EA6E000EEE6CEF1EEE22EF1EEE22EF1E26
:10439000EF22ED52ED52ED52DE52070EDD6E010EB0
:1043A000DBCF00F0000EE76E0018E8AE02D000345C
:1043B00003D0E750D880005401E3B9D0010EDB04EC
:1043C000046E056A04BE056804C0E6FF05C0E6FF8A
:1043D0000A0EE66EE66A29DFE552E552E552E5523D
:1043E00022C000F023C001F024C002F025C003F079
:1043F00022C027F023C028F024C029F025C02AF0CD
:10440000FB0EDBCF22F0FC0EDBCF23F0FD0EDBCF6B
:1044100024F0FE0EDBCF25F0B3EC3CF0225023104D
:104420002410251041E0010EDF6EDB04086E096ADE
:1044300008BE096808C0E6FF09C0E6FF0A0EE66E7E
:10444000E66AF3DEE552E552E552E55222C004F099
:1044500023C005F024C006F025C007F022C027F0D5
:1044600023C028F024C029F025C02AF0FB0EDBCFA2
:1044700022F0FC0EDBCF23F0FD0EDBCF24F0FE0E8E
:10448000DBCF25F0B3EC3CF022C000F023C001F0FC
:1044900024C002F025C003F0300E0026000E0122D9
:1044A00002220322005003D0DF5004E0300EE66EFB
:1044B00068DEE552010EDB04046E056A04BE056881
:1044C00004C0E6FF05C0E6FF0A0EE66EE66AADDE52
:1044D000E552E552E552E55222C000F023C001F05A
:1044E00024C002F025C003F0D950FB0FE96EFF0E87
:1044F000DA20EA6E22C027F023C028F024C029F079
:1045000025C02AF0EECF22F0EECF23F0EECF24F03C
:10451000EFCF25F0B3EC3CF021C0EDFF20C0EDFF64
:104520001FC0EDFF1EC0EFFF010EDB0638D7020EE5
:10453000E15C02E2E16AE552E16EE552E7CFD9FFC4
:104540001200D9CFE6FFE1CFD9FFFD0EDBCFE6FFAA
:10455000FE0EDBCFE6FF42DEE552E552D950F90F01
:10456000E96EFF0EDA20EA6EEECFE6FFEECFE6FF51
:10457000EECFE6FFEFCFE6FFC9DEE552E552E552AA
:10458000E552E552E7CFD9FF1200D9CFE6FFE1CFE0
:10459000D9FFFD0EDBCFE6FFFE0EDBCFE6FF1EDE12
:1045A000E552E552FB0EDBCFE6FFFC0EDBCFE6FF6C
:1045B000F5DDE552E552E552E7CFD9FF1200D9CF3C
:1045C000E6FFE1CFD9FF7BCF00F07CCF01F0040EF6
:1045D000D89000360136E806FBE1410E00260F0EAA
:1045E000012200500F017D25E96E01507E21EA6E07
:1045F000FE0EDBCFEFFF7D2B000E7E23E552E7CFD3
:10460000D9FF1200D9CFE6FFE1CFD9FFE652DF6A2A
:10461000DFCF00F0100EE76E0018E8AE02D0E734EE
:1046200002D0E750005C18E2DFCFE9FFEA6AE9BE9A
:10463000EA68410EE9260F0EEA22200EEF6EDFCF68
:10464000E9FFEA6AE9BEEA68510EE9260F0EEA229E
:10465000200EEF6EDF2ADCD7E552E552E7CFD9FF17
:104660001200D9CFE6FFE1CFD9FFE6520F0140514A
:10467000030A52E0010A36E0030A1AE0010A67E180
:10468000E66AE66AABDDE552E552DF6A080EDF5CFA
:104690000CE2DF50EA6A410FE96E0F0EEA22EF509A
:1046A000E66E6FDDE552DF2AF1D70F01010E32D041
:1046B000080EE66EE66A92DDE552E552DF6A080E04
:1046C000DF5C0DE2080EDF24EA6A410FE96E0F0E8F
:1046D000EA22EF50E66E55DDE552DF2AF0D70F01F2
:1046E000020E18D0E66A010EE66E78DDE552E5525C
:1046F000DF6A080EDF5C0CE2DF50EA6A510FE96EF8
:104700000F0EEA22EF50E66E3CDDE552DF2AF1D7CC
:104710000F01030E406F1CD0080EE66E010EE66E10
:104720005DDDE552E552DF6A080EDF5C0DE2080E42
:10473000DF24EA6A510FE96E0F0EEA22EF50E66EAF
:1047400020DDE552DF2AF0D70F01406B01D0406B2E
:10475000E552E552E7CFD9FF1200D9CFE6FFE1CF0E
:10476000D9FFE6520F014051010A1BE0010A32E174
:10477000E66AE66A33DDE552E552DF6A100EDF5C79
:104780000CE2DF50EA6A410FE96E0F0EEA22EF50A9
:10479000E66EF7DCE552DF2AF1D70F01010E406F1C
:1047A0001AD0E66A010EE66E19DDE552E552DF6ABF
:1047B000100EDF5C0CE2DF50EA6A510FE96E0F0E5B
:1047C000EA22EF50E66EDDDCE552DF2AF1D70F0179
:1047D000406B01D0406BE552E552E7CFD9FF1200A4
:1047E000D9CFE6FFE1CFD9FFE652E66AE66AF6DC0A
:1047F000E552E552DF6A100EDF5C0CE2DF50EA6A38
:10480000410FE96E0F0EEA22EF50E66EBADCE55278
:10481000DF2AF1D7E66A010EE66EE0DCE552E552EA
:10482000DF6A100EDF5C0CE2DF50EA6A510FE96EBE
:104830000F0EEA22EF50E66EA4DCE552DF2AF1D734
:10484000E552E552E7CFD9FF1200D9CFE6FFE1CF1D
:10485000D9FFFE0EDB50010B0F017B6F7C6BFD0E51
:10486000DB500F0B7D6F7E6B7BCF00F07CCF01F0B8
:10487000040ED89000360136E806FBE1410E002612
:104880000F0E012200500F017D25E96E01507E219F
:10489000EA6EFC0EDBCFEFFFE552E7CFD9FF120047
:1048A000D9CFE6FFE1CFD9FF020EE126DF6AFE0E87
:1048B000DB50010B0F017B6F7C6BFD0EDB500F0B90
:1048C0007D6F7E6BF90EDBCF00F0FA0EDBCF01F0CF
:1048D000FB0EDBCF02F0FC0EDBCF03F0005001102B
:1048E0000210031005E1300EE66E69DEE552F5D0E8
:1048F000D950F90FE96EFF0EDA20EA6ED890030E58
:10490000EB50000A08E6000EEE5C000EEE58000EBA
:10491000EE58000EEE5815E22D0EE66E50DEE55212
:10492000D950F90FE96EFF0EDA20EA6E000EEE6C38
:10493000EF1EEE22EF1EEE22EF1EEF22ED52ED52A1
:10494000ED52DE52070EDD6E010EDBCF00F0000EE1
:10495000E76E0018E8AE02D0003403D0E750D880EC
:10496000005401E3BAD0010EDB04046E056A04BEF4
:10497000056804C0E6FF05C0E6FF0A0EE66EE66ABB
:1049800054DCE552E552E552E55222C000F023C066
:1049900001F024C002F025C003F022C027F023C09C
:1049A00028F024C029F025C02AF0F90EDBCF22F030
:1049B000FA0EDBCF23F0FB0EDBCF24F0FC0EDBCFB7
:1049C00025F0B3EC3CF0225023102410251041E0D8
:1049D000010EDF6EDB04086E096A08BE096808C0B4
:1049E000E6FF09C0E6FF0A0EE66EE66A1EDCE55247
:1049F000E552E552E55222C004F023C005F024C080
:104A000006F025C007F022C027F023C028F024C0FC
:104A100029F025C02AF0F90EDBCF22F0FA0EDBCF09
:104A200023F0FB0EDBCF24F0FC0EDBCF25F0B3EC44
:104A30003CF022C000F023C001F024C002F025C0E9
:104A400003F0300E0026000E012202220322005045
:104A500003D0DF5004E0300EE66EB1DDE552010E0A
:104A6000DB04046E056A04BE056804C0E6FF05C0E9
:104A7000E6FF0A0EE66EE66A15EC21F0E552E55215
:104A8000E552E55222C000F023C001F024C002F03C
:104A900025C003F0D950F90FE96EFF0EDA20EA6E57
:104AA00022C027F023C028F024C029F025C02AF016
:104AB000EECF22F0EECF23F0EECF24F0EFCF25F0B3
:104AC000B3EC3CF021C0EDFF20C0EDFF1FC0EDFFB7
:104AD0001EC0EFFF010EDB0637D7020EE15C02E2DB
:104AE000E16AE552E16EE552E7CFD9FF1200D9CF76
:104AF000E6FFE1CFD9FFFE0EDB50010B0F017B6F0C
:104B00007C6BFD0EDB500F0B7D6F7E6BFB0EDBCFE6
:104B1000F6FFFC0EDBCFF7FF0800F5500FE0FB0EB1
:104B2000DBCFF6FFDB2AFC0EDBCFF7FF01E3DB2A4E
:104B30000800F550E66E43DDE552E8D7E552E7CFD1
:104B4000D9FF1200D9CFE6FFE1CFD9FF050EE1264C
:104B5000D9CFE9FFDACFEAFFF90EDBCFEEFFFA0E8D
:104B6000DBCFEEFFFB0EDBCFEEFFFC0EDBCFEEFF6D
:104B7000D9CFE9FFDACFEAFFEECF00F0EECF01F0B8
:104B8000EECF02F0EFCF03F0E80E276E030E286E93
:104B9000296A2A6A00C022F001C023F002C024F072
:104BA00003C025F049EC3BF022C000F023C001F027
:104BB00024C002F025C003F022C0E6FF23C0E6FFB8
:104BC00024C0E6FF25C0E6FFFD0EDBCFE6FFFE0EAC
:104BD000DBCFE6FF65DE046E060EE15E0450D9CF42
:104BE000E9FFDACFEAFFEECF22F0EECF23F0EECFEF
:104BF00024F0EFCF25F0E80E276E030E286E296A09
:104C00002A6A49EC3BF01EC0DEFF1FC0DEFF20C059
:104C1000DEFF21C0DDFFDD52DD52D9CFE9FFDACF63
:104C2000EAFFEECF00F0EECF01F0EECF02F0EFCFD3
:104C300003F0640E276E286A296A2A6A00C022F0EF
:104C400001C023F002C024F003C025F049EC3BF082
:104C500022C000F023C001F024C002F025C003F000
:104C600022C0E6FF23C0E6FF24C0E6FF25C0E6FF22
:104C7000FD0EDB28E66EFE0EDBCFE6FF11DE046ED6
:104C8000060EE15E0450D9CFE9FFDACFEAFFEECF9E
:104C900022F0EECF23F0EECF24F0EFCF25F0640E1C
:104CA000276E286A296A2A6A49EC3BF01EC0DEFF9B
:104CB0001FC0DEFF20C0DEFF21C0DDFFDD52DD5260
:104CC000A20EE66E5B0EE66EFD0EDB50020FE66E88
:104CD000FE0EDBCFE6FF0BDFE552E552E552E55273
:104CE000D9CFE9FFDACFEAFFEECF00F0EECF01F047
:104CF000EECF02F0EFCF03F00A0E276E286A296A82
:104D00002A6A00C022F001C023F002C024F003C0D0
:104D100025F049EC3BF022C000F023C001F024C094
:104D200002F025C003F022C0E6FF23C0E6FF24C046
:104D3000E6FF25C0E6FFFD0EDB50030FE66EFE0E1C
:104D4000DBCFE6FFADDD046E060EE15E0450D9CF89
:104D5000E9FFDACFEAFFEECF22F0EECF23F0EECF7D
:104D600024F0EFCF25F0E80E276E030E286E296A97
:104D70002A6A49EC3BF01EC0DEFF1FC0DEFF20C0E8
:104D8000DEFF21C0DDFFDD52DD52D9CFE9FFDACFF2
:104D9000EAFFEECF00F0EECF01F0EECF02F0EFCF62
:104DA00003F00A0E276E286A296A2A6A00C022F0D8
:104DB00001C023F002C024F003C025F049EC3BF011
:104DC0001EC000F01FC001F020C002F021C003F09F
:104DD0001EC0E6FF1FC0E6FF20C0E6FF21C0E6FFC1
:104DE000FD0EDB50040FE66EFE0EDBCFE6FF58DD56
:104DF000046E060EE15E0450050EE15C02E2E16A1B
:0C4E0000E552E16EE552E7CFD9FF120049
:044E0C000A0E010188
:104E1000001901E1015102E124EF2DF0090E001902
:104E200001E1015102E134EF2BF0080E001901E11C
:104E3000015101E1EDD3070E001901E1015101E13A
:104E400073D3060E001901E1015101E146D3050EAD
:104E5000001901E1015101E119D3040E001901E12A
:104E6000015101E18BD2030E001901E1015101E171
:104E7000FDD1020E001901E1015101E16CD1010ED9
:104E8000001901E1015136E0005102E0CEEF2DF0B2
:104E9000015102E0CEEF2DF002EC23F0F1EC12F024
:104EA0000201050ECC5D000ECD5902E2D0EF2DF0CF
:104EB000CCC200F00001016A010E0016001819E1D1
:104EC000015002E0D0EF2DF0010E0101006F016BE7
:104ED000500EE66EC30EE66E24EC36F0E552E55257
:104EE0000101126B136B0101046B056B0201CC6BAA
:104EF000CD6B120002EC23F00201050ED05D000E16
:104F0000D1591DE3D0C200F00001016A010E001664
:104F1000001815E1015013E10101010E12190FE112
:104F200013510DE101010E690F690101046B056B5D
:104F3000020E0101006F016B0201D06BD16B020107
:104F4000050ED05D000ED1591DE3D0C200F0000166
:104F5000016A010E0016001815E1015013E101016C
:104F6000020E12190FE113510DE101010C690D69D7
:104F70000101046B056B030E0101006F016B02015F
:104F8000D06BD16B0201050ED05D000ED1591DE32F
:104F9000D0C200F00001016A010E0016001815E1F0
:104FA000015013E10101030E12190FE113510DE13C
:104FB00001010A690B69040E0101006F016B010117
:104FC000046B056B0201D06BD16B0201050ED05D45
:104FD000000ED15917E3D0C200F00001016A010EA2
:104FE000001600180FE101500DE10101040E121925
:104FF00009E1135107E1050E0101006F016B020188
:10500000D06BD16B0201050ED05D000ED15921E3AA
:10501000D0C200F00001016A010E0016001819E16B
:10502000015017E10101050E121913E1135111E1AD
:10503000640EE66EE66A24EC36F0E552E5520101B4
:10504000106B116B060E0101006F016B0201D06B3A
:10505000D16B0201050ED05D000ED15917E3D0C20D
:1050600000F00001016A010E001600180FE1015066
:105070000DE10101060E121909E1135107E1070EB6
:105080000101006F016B0201D06BD16B0201050EB3
:10509000D05D000ED15917E3D0C200F00001016AC3
:1050A000010E001600180FE101500DE10101070E7D
:1050B000121909E1135107E1080E0101006F016B9C
:1050C0000201D06BD16B0201050EC85D000EC959FB
:1050D00030E3C8C200F00001016A010E001600189A
:1050E00028E1015026E1010E01011225126F000E88
:1050F0001321136F080E296E2A6A12C124F013C1FE
:1051000025F0F6EC3AF020C012F121C013F10101B4
:105110002050211003E1010E126F136B500EE66E4A
:10512000C30EE66E24EC36F0E552E5520201C86B80
:10513000C96B0101E7050DE101010E6B0F6B640EF8
:10514000E66EE66A24EC36F0E552E5520101006BAA
:10515000016B75EF02F002EC23F0C7EC14F00201D2
:10516000050EC85D000EC9593CE3C8C200F000013D
:10517000016A010E0016001834E1015032E1010EFF
:1051800001010E250E6F000E0F210F6F070E296E05
:105190002A6A0EC124F00FC125F0F6EC3AF020C0C7
:1051A0000EF121C00FF1010E01010425046F000E64
:1051B0000521056F080E296E2A6A04C124F005C175
:1051C00025F0F6EC3AF020C004F121C005F1010110
:1051D0002050211003E1010E046F056B0201C86B22
:1051E000C96B0201050ED05D000ED15915E3D0C286
:1051F00000F00001016A010E001600180DE10150D7
:105200000BE10101800E0F1507E10A0E0101006F8D
:10521000016B0201D06BD16B0201050ECC5D000E5B
:10522000CD5902E2D0EF2DF0CCC200F00001016AAE
:10523000010E0016001819E1015002E0D0EF2DF028
:10524000010E0101006F016B500EE66EC30EE66E9B
:1052500024EC36F0E552E5520101126B136B0101AB
:10526000046B056B0201CC6BCD6B12000201050EC5
:10527000C85D000EC9593CE3C8C200F00001016AD4
:10528000010E0016001834E1015032E1010E010157
:105290000C250C6F000E0D210D6F080E296E2A6A69
:1052A0000CC124F00DC125F0F6EC3AF020C00CF151
:1052B00021C00DF1010E01010425046F000E05212E
:1052C000056F080E296E2A6A04C124F005C125F075
:1052D000F6EC3AF020C004F121C005F101012050A4
:1052E000211003E1010E046F056B0201C86BC96B4D
:1052F0000201050ED05D000ED15919E3D0C200F0B5
:105300000001016A010E0016001811E101500FE1C1
:105310000101800E0D150BE1010E0101FE6FFF6B07
:10532000090E0101006F016B0201D06BD16B02010C
:10533000050ECC5D000ECD591FE3CCC200F000017C
:10534000016A010E0016001817E1015015E1010E67
:105350000101006F016B500EE66EC30EE66E24EC89
:1053600036F0E552E5520101126B136B0101046B3B
:10537000056B0201CC6BCD6B27EF03F00201050E2C
:10538000C85D000EC9593CE3C8C200F00001016AC3
:10539000010E0016001834E1015032E1010E010146
:1053A0000A250A6F000E0B210B6F080E296E2A6A60
:1053B0000AC124F00BC125F0F6EC3AF020C00AF146
:1053C00021C00BF1010E01010425046F000E05211F
:1053D000056F080E296E2A6A04C124F005C125F064
:1053E000F6EC3AF020C004F121C005F10101205093
:1053F000211003E1010E046F056B0201C86BC96B3C
:105400000201050ECC5D000ECD591FE3CCC200F0A9
:105410000001016A010E0016001817E1015015E1A4
:10542000010E0101006F016B500EE66EC30EE66EB9
:1054300024EC36F0E552E5520101126B136B0101C9
:10544000046B056B0201CC6BCD6B0201050ED05DC8
:10545000000ED15919E3D0C200F00001016A010E1B
:105460000016001811E101500FE10101800E0B152B
:105470000BE1020E0101FE6FFF6B090E0101006FCF
:10548000016B0201D26BD36BD9EF03F00201050E61
:10549000CC5D000ECD591FE3CCC200F00001016AC3
:1054A000010E0016001817E1015015E1010E01016F
:1054B000006F016B500EE66EC30EE66E24EC36F004
:1054C000E552E5520101126B136B0101046B056B90
:1054D0000201CC6BCD6B1DEF12F00201050ECC5D0D
:1054E000000ECD591FE3CCC200F00001016A010E8D
:1054F0000016001817E1015015E1010E0101006FBF
:10550000016B500EE66EC30EE66E24EC36F0E552EB
:10551000E5520101126B136B0101046B056B020173
:10552000CC6BCD6B37EF09F002EC23F0B5EC3BF020
:105530000201050ECC5D000ECD591FE3CCC200F078
:105540000001016A010E0016001817E1015015E173
:10555000010E0101006F016B500EE66EC30EE66E88
:1055600024EC36F0E552E5520101126B136B010198
:10557000046B056B0201CC6BCD6B0101365103014D
:10558000DC5D43E1010137510301DB5D3EE1010ECA
:1055900001013A253A6F000E3B213B6F0A0E296E3E
:1055A0002A6A3AC124F03BC125F0F6EC3AF020C05B
:1055B0003AF121C03BF102EC23F0050E01013BAFB3
:1055C00002D0D89003D03A5D000E3B5920E236EC71
:1055D0003DF000091CE01E0EE66E5C0EE66EE66A0B
:1055E000E66A77EC25F0E552E552E552E5520D0EFC
:1055F000E66E5C0EE66EE66A010EE66E77EC25F06E
:10560000E552E552E552E55212004CEC00F0120072
:1056100002EC23F06EEC0EF00201050ECC5D000EE4
:10562000CD5901E2BDD2CCC200F00001016A010EE9
:105630000016001818E1015001E0B2D2010E01017C
:10564000006F016B500EE66EC30EE66E24EC36F072
:10565000E552E5520101126B136B0101046B056BFE
:105660000201CC6BCD6B12000101010EFE1901E0AD
:10567000C7D0FF5101E0C4D0FEC2E6FFFFC2E6FF83
:105680000CC1E6FF0DC1E6FFFEC1E6FFFFC1E6FF6C
:105690008BEC04F0006E060EE15E00500201050E78
:1056A000D25D000ED35932E3D2C200F00001016A8C
:1056B000010E001600182AE1015028E10201FE51F6
:1056C000FF110EE10CC1E9FF0DC1EAFFD890E936E8
:1056D000EA36A60EE926010EEA22EE2A000EEF2295
:1056E000010EFE1910E1FF510EE10CC1E9FF0DC1E1
:1056F000EAFFD890E936EA36B40EE926010EEA222E
:10570000EE2A000EEF220201D26BD36B0201050ECE
:10571000D45D000ED55974E3D4C200F00001016AD3
:10572000010E001600186CE101506AE10201FE5101
:10573000FF110EE10CC1E9FF0DC1EAFFD890E93677
:10574000EA36A60EE926010EEA22EE06000EEF5A10
:10575000010EFE1910E1FF510EE10CC1E9FF0DC170
:10576000EAFFD890E936EA36B40EE926010EEA22BD
:10577000EE06000EEF5A0CC1E9FF0DC1EAFFD8900A
:10578000E936EA36A60EE926010EEA22EECF00F04F
:10579000EFCF01F0000E005C000E01580DE20CC1CD
:1057A000E9FF0DC1EAFFD890E936EA36A60EE926F0
:1057B000010EEA22EE6AED6A0CC1E9FF0DC1EAFFB3
:1057C000D890E936EA36B40EE926010EEA22EECF89
:1057D00000F0EFCF01F0000E005C000E01580DE26A
:1057E0000CC1E9FF0DC1EAFFD890E936EA36B40EE4
:1057F000E926010EEA22EE6AED6A0201D46BD56B4E
:105800000101020EFE1901E0C7D0FF5101E0C4D032
:10581000FEC2E6FFFFC2E6FF0AC1E6FF0BC1E6FFDC
:10582000FEC1E6FFFFC1E6FF8BEC04F0006E060E42
:10583000E15E00500201050ED25D000ED35932E345
:10584000D2C200F00001016A010E001600182AE120
:10585000015028E10201FE51FF110EE10AC1E9FFEA
:105860000BC1EAFFD890E936EA36C20EE926010EEE
:10587000EA22EE2A000EEF22010EFE1910E1FF517E
:105880000EE10AC1E9FF0BC1EAFFD890E936EA361A
:10589000D00EE926010EEA22EE2A000EEF220201C6
:1058A000D26BD36B0201050ED45D000ED55974E3A3
:1058B000D4C200F00001016A010E001600186CE16C
:1058C00001506AE10201FE51FF110EE10AC1E9FF38
:1058D0000BC1EAFFD890E936EA36C20EE926010E7E
:1058E000EA22EE06000EEF5A010EFE1910E1FF51FA
:1058F0000EE10AC1E9FF0BC1EAFFD890E936EA36AA
:10590000D00EE926010EEA22EE06000EEF5A0AC179
:10591000E9FF0BC1EAFFD890E936EA36A60EE92680
:10592000010EEA22EECF00F0EFCF01F0000E005C96
:10593000000E01580DE20AC1E9FF0BC1EAFFD89041
:10594000E936EA36C20EE926010EEA22EE6AED6A6F
:105950000AC1E9FF0BC1EAFFD890E936EA36B40E76
:10596000E926010EEA22EECF00F0EFCF01F0000EA3
:10597000005C000E01580DE20AC1E9FF0BC1EAFF0D
:10598000D890E936EA36D00EE926010EEA22EE6A10
:10599000ED6A0201D46BD56B0201050EC85D000EE5
:1059A000C95921E3C8C200F00001016A010E0016C6
:1059B000001819E1015017E1010E0201FE25FE6FEA
:1059C000000EFF21FF6F020E296E2A6AFEC224F02C
:1059D000FFC225F0F6EC3AF020C0FEF221C0FFF243
:1059E0000201C86BC96B0201050ECC5D000ECD59DA
:1059F00001E2D6D0CCC200F00001016A010E00160F
:105A0000001821E1015001E0CBD0010E0101006F2F
:105A1000016B500EE66EC30EE66E24EC36F0E552D6
:105A2000E5520101126B136B0101046B056B01015F
:105A30000C6B0D6B01010A6B0B6B0201FE6BFF6BB4
:105A40000201CC6BCD6B1200060E01010E1901E1B3
:105A50000F5171E0050E0E1901E10F515EE0040EC9
:105A60000E1901E10F514BE0030E0E1901E10F5128
:105A700038E0020E0E1901E10F5125E0010E0E195A
:105A800001E10F5112E00E516BE10F5169E182C14A
:105A9000E6FF83C1E6FF98C1E6FF99C1E6FF84C037
:105AA000E6FF85C0E6FF000E53D086C1E6FF87C142
