:020000040000FA
:060000009DEF25F0120047
:020006001200E6
:06000800F4EF22F01200EB
:02000E000000F0
:020010000000EE
:0100120000ED
:060018007FEF22F0120050
:02001E000800D8
:10002000624C0000580F0000280000005B4C0000EC
:10003000F801000007000000034C0000000F000062
:100040005800000012000000FF0100000100000045
:100050000E0000000002000004000000A24B00009F
:100060008000000061000000924B0000DE010000F3
:1000700010000000724B0000BE01000020000000D4
:10008000EBEC0EF00101FB51070A24E0010A1EE02F
:10009000030A18E0010A12E0070A0CE0010A06E070
:1000A000030A1CE1AA0EE66E420E1BD0A60EE66EF7
:1000B000420E17D0A20EE66E420E13D09E0EE66ED2
:1000C000420E0FD09A0EE66E420E0BD0960EE66EE2
:1000D000420E07D0920EE66E420E03D08E0EE66EF2
:1000E000420EE66EE66AE66A60EC11F0E552E55211
:1000F000E552E5520A0E146E0E6EFAC109F05FEC7D
:1001000023F009C010F0116A126A136A10AE03D00E
:1001100011681268136810C0E6FF11C0E6FF12C034
:10012000E6FF13C0E6FF040EE66EE66A39EC10F057
:10013000156E060EE15E1550FAC109F00A0E0E6E3C
:100140005FEC23F005C010F0116A126A136A10AE5A
:1001500003D011681268136810C0E6FF11C0E6FFF3
:1001600012C0E6FF13C0E6FF050EE66EE66A39EC44
:1001700010F0146E060EE15E14508C0EE66E420E08
:10018000E66E060EE66EE66A60EC11F0E552E552A8
:10019000E552E5520A0E146E0E6EF9C109F05FECDD
:1001A00023F009C010F0116A126A136A10AE03D06E
:1001B00011681268136810C0E6FF11C0E6FF12C094
:1001C000E6FF13C0E6FF070EE66EE66A39EC10F0B4
:1001D000156E060EE15E1550F9C109F00A0E0E6E9D
:1001E0005FEC23F005C010F0116A126A136A10AEBA
:1001F00003D011681268136810C0E6FF11C0E6FF53
:1002000012C0E6FF13C0E6FF080EE66EE66A39ECA0
:1002100010F0146E060EE15E14508C0EE66E420E67
:10022000E66E090EE66EE66A60EC11F0E552E55204
:10023000E552E5520A0E146E0E6EF8C109F05FEC3D
:1002400023F009C010F0116A126A136A10AE03D0CD
:1002500011681268136810C0E6FF11C0E6FF12C0F3
:10026000E6FF13C0E6FF0A0EE66EE66A39EC10F010
:10027000156E060EE15E1550F8C109F00A0E0E6EFD
:100280005FEC23F005C010F0116A126A136A10AE19
:1002900003D011681268136810C0E6FF11C0E6FFB2
:1002A00012C0E6FF13C0E6FF0B0EE66EE66A39ECFD
:1002B00010F0146E060EE15E14500101FD510C0A9F
:1002C00042E0070A3CE0010A36E0030A30E0010A96
:1002D0002AE00F0A24E0010A1EE0030A18E0010ADE
:1002E00012E0070A0CE0010A06E0030A30E1880E7A
:1002F000E66E420E2FD0840EE66E420E2BD0800E9C
:10030000E66E420E27D07C0EE66E420E23D0780EAB
:10031000E66E420E1FD0740EE66E420E1BD0700EBB
:10032000E66E420E17D06C0EE66E420E13D0680ECB
:10033000E66E420E0FD0640EE66E420E0BD0600EDB
:10034000E66E420E07D05C0EE66E420E03D08E0EB5
:10035000E66E420EE66E020EE66E010EE66E60EC92
:1003600011F0E552E552E552E5525A0EE66E420EA4
:10037000E66E050EE66E010EE66E60EC11F0E552DB
:10038000E552E552E5520A0E146E0E6EFCC109F0FC
:100390005FEC23F009C010F0116A126A136A10AE04
:1003A00003D011681268136810C0E6FF11C0E6FFA1
:1003B00012C0E6FF13C0E6FF060EE66E010EE66E03
:1003C00039EC10F0156E060EE15E1550FCC109F017
:1003D0000A0E0E6E5FEC23F005C010F0116A126A6F
:1003E000136A10AE03D011681268136810C0E6FFDC
:1003F00011C0E6FF12C0E6FF13C0E6FF070EE66E6F
:10040000010EE66E39EC10F0146E060EE15E14502B
:100410005A0EE66E420EE66E080EE66E010EE66EAF
:1004200060EC11F0E552E552E552E552140EE66E2D
:10043000E66AE66AE66A090EE66E010EE66E39ECD9
:1004400010F0106E060EE15E10500A0E146E0E6E65
:10045000FEC109F05FEC23F009C010F0116A126AC6
:10046000136A10AE03D011681268136810C0E6FF5B
:1004700011C0E6FF12C0E6FF13C0E6FF0B0EE66EEA
:10048000010EE66E39EC10F0156E060EE15E1550A9
:10049000FEC109F00A0E0E6E5FEC23F005C010F0ED
:1004A000116A126A136A10AE03D0116812681368D9
:1004B00010C0E6FF11C0E6FF12C0E6FF13C0E6FF62
:1004C0000C0EE66E010EE66E39EC10F0146E060EA0
:1004D000E15E14501200EBEC0EF0030E0F01041954
:1004E00001E1055142E0020E041901E1055129E044
:1004F000010E041901E1055114E0045143E10551D5
:1005000041E14B0EE66E420EE66EE66AE66A60EC8C
:1005100011F0E552E552E552E5523C0EE66E420E10
:100520001FD02C0EE66E420EE66EE66AE66A60ECBE
:1005300011F0E552E552E552E5521D0EE66E420E0F
:100540000FD0120EE66E420EE66EE66AE66A60ECC8
:1005500011F0E552E552E552E552050EE66E420E07
:10056000E66EE66A010EE66E06D0F60EE66E410E07
:10057000E66EE66AE66A60EC11F0E552E552E55295
:10058000E5521200046B056B1200EBEC0EF0070E47
:100590000F01041901E1055101E199D0060E04197A
:1005A00001E1055101E17FD0050E041901E105517A
:1005B0006AE0040E041901E1055155E0030E041927
:1005C00001E1055140E0020E041901E105512BE063
:1005D000010E041901E1055116E0045101E084D037
:1005E000055101E081D0E60EE66E410EE66EE66A48
:1005F000E66A60EC11F0E552E552E552E552D90E9B
:10060000E66E410E5FD0CB0EE66E410EE66EE66AF8
:10061000E66A60EC11F0E552E552E552E552BD0E96
:10062000E66E410E4FD0AF0EE66E410EE66EE66A04
:10063000E66A60EC11F0E552E552E552E552A10E92
:10064000E66E410E3FD0940EE66E410EE66EE66A0F
:10065000E66A60EC11F0E552E552E552E552870E8C
:10066000E66E410E2FD07A0EE66E410EE66EE66A19
:10067000E66A60EC11F0E552E552E552E5526D0E86
:10068000E66E410E1FD05F0EE66E410EE66EE66A24
:10069000E66A60EC11F0E552E552E552E552510E82
:1006A000E66E410E0FD0430EE66E410EE66EE66A30
:1006B000E66A60EC11F0E552E552E552E552350E7E
:1006C000E66E410EE66EE66A010EE66E06D0260E76
:1006D000E66E410EE66EE66AE66A60EC11F0E552FF
:1006E000E552E552E5521200046B056B1200EBEC8B
:1006F0000EF01E0EE66E410EE66EE66AE66A60ECED
:1007000011F0E552E552E552E55202CF10F003CF69
:1007100011F0126A136A11AE02D01268136810C089
:10072000E6FF11C0E6FF12C0E6FF13C0E6FF070EAA
:10073000E66EE66A39EC10F0146E060EE15E1450B7
:10074000160EE66E410EE66EE66A010EE66E60EC8F
:1007500011F0E552E552E552E5521200EBEC0EF0D5
:10076000010106510F014A5D010107510F014B596B
:1007700027E2100EE66E410EE66EE66AE66A60EC6F
:1007800011F0E552E552E552E55206C110F007C1FD
:1007900011F0126A136A06C1E6FF07C1E6FF12C034
:1007A000E6FF13C0E6FF060EE66EE66A8BEC11F07C
:1007B000146E060EE15E1450080EE66E410E1FD157
:1007C00001010A510F014C5D01010B510F014D59FF
:1007D00027E2010EE66E410EE66EE66AE66A60EC1E
:1007E00011F0E552E552E552E5520AC110F00BC195
:1007F00011F0126A136A0AC1E6FF0BC1E6FF12C0CC
:10080000E6FF13C0E6FF060EE66EE66A8BEC11F01B
:10081000146E060EE15E1450F80EE66E400EEFD038
:10082000010108510F014E5D010109510F014F599E
:1008300027E2F20EE66E400EE66EE66AE66A60ECCD
:1008400011F0E552E552E552E55208C110F009C138
:1008500011F0126A136A08C1E6FF09C1E6FF12C06F
:10086000E6FF13C0E6FF060EE66EE66A8BEC11F0BB
:10087000146E060EE15E1450EA0EE66E400EBFD016
:1008800001010C510F01505D01010D510F01515932
:1008900027E2E30EE66E400EE66EE66AE66A60EC7C
:1008A00011F0E552E552E552E5520CC110F00DC1D0
:1008B00011F0126A136A0CC1E6FF0DC1E6FF12C007
:1008C000E6FF13C0E6FF060EE66EE66A8BEC11F05B
:1008D000146E060EE15E1450DA0EE66E400E8FD0F6
:1008E00001010E510F01525D01010F510F015359CA
:1008F00027E2D30EE66E400EE66EE66AE66A60EC2C
:1009000011F0E552E552E552E5520EC110F00FC16B
:1009100011F0126A136A0EC1E6FF0FC1E6FF12C0A2
:10092000E6FF13C0E6FF060EE66EE66A8BEC11F0FA
:10093000146E060EE15E1450CA0EE66E400E5FD0D5
:10094000010110510F01545D010111510F01555961
:1009500027E2C30EE66E400EE66EE66AE66A60ECDB
:1009600011F0E552E552E552E55210C110F011C107
:1009700011F0126A136A10C1E6FF11C1E6FF12C03E
:10098000E6FF13C0E6FF060EE66EE66A8BEC11F09A
:10099000146E060EE15E1450BA0EE66E400E2FD0B5
:1009A000010112510F01565D010113510F015759F9
:1009B0002BE2F20EE66E400EE66EE66AE66A60EC48
:1009C00011F0E552E552E552E55212C110F013C1A3
:1009D00011F0126A136A12C1E6FF13C1E6FF12C0DA
:1009E000E6FF13C0E6FF060EE66EE66A8BEC11F03A
:1009F000146E060EE15E1450B00EE66E400EE66E0A
:100A0000E66A010EE66E06D0A10EE66E400EE66EB8
:100A1000E66AE66A60EC11F0E552E552E552E5520D
:100A200012000F016251631104E16A516B1101E17F
:100A3000010C000C010E0F010825086F000E0921A2
:100A4000096F0A0E0D6E0E6A08CF08F009CF09F083
:100A500079EC23F004C008FF05C009FF050E0F0163
:100A600009AF02D0D89003D0085D000E095910E2FA
:100A7000D8DF00090DE09E0EE66E400EE66E040E15
:100A8000E66EE66A60EC11F0E552E552E552E55299
:100A90000F01050E585D000E595923E358CF10F091
:100AA00059CF11F00001116A010E1016101819E14A
:100AB000115017E10101FA29FA6F170EE76EFA19C2
:100AC000E8AE02D0FA3503D0E750D880FA5501E2FB
:100AD000FA6BFAC1E6FF020EE66E37EC22F0E55241
:100AE000E5520F010A0E5A5D000E5B591BE35ACF07
:100AF00010F05BCF11F00001116A010E10161018F2
:100B000011E111500FE10101FA05FA6FE83402E337
:100B1000170EFA6FFAC1E6FF020EE66E37EC22F00E
:100B2000E552E5521200010E0F010825086F000E74
:100B30000921096F0A0E0D6E0E6A08CF08F009CF61
:100B400009F079EC23F004C008FF05C009FF050E89
:100B50000F0109AF02D0D89003D0085D000E0959EB
:100B600010E25FDF00090DE09E0EE66E400EE66EBD
:100B7000070EE66EE66A60EC11F0E552E552E552CA
:100B8000E5520F010A0E585D000E595923E358CF64
:100B900010F059CF11F00001116A010E1016101853
:100BA00019E1115017E10101F929F96F3B0EE76EC8
:100BB000F919E8AE02D0F93503D0E750D880F955DD
:100BC00001E2F96BF9C1E6FF010EE66E37EC22F0A7
:100BD000E552E5520F010A0E5A5D000E5B591BE308
:100BE0005ACF10F05BCF11F00001116A010E101600
:100BF000101811E111500FE10101F905F96FE83406
:100C000002E33B0EF96FF9C1E6FF010EE66E37EC29
:100C100022F0E552E5521200010E0F010825086F7F
:100C2000000E0921096F0A0E0D6E0E6A08CF08F03A
:100C300009CF09F079EC23F004C008FF05C009FFD3
:100C4000050E0F0109AF02D0D89003D0085D000E49
:100C500009590FE2E6DE00090CE09A0EE66E400E3E
:100C6000E66EE66AE66A60EC11F0E552E552E5529E
:100C7000E5520F010A0E585D000E595924E358CF72
:100C800010F059CF11F00001116A010E1016101862
:100C90001AE1115018E10101FB29FB6F070EE76E05
:100CA000FB19E8AE02D0FB3503D0E750D880FB55E6
:100CB00002E2010EFB6FFBC1E6FF030EE66E37ECAE
:100CC00022F0E552E5520F010A0E5A5D000E5B5903
:100CD00023E35ACF10F05BCF11F00001116A010E2F
:100CE0001016101819E1115017E10101FB05FB6FF7
:100CF000010EE76EFB19E8AE02D0E73402D0E750F0
:100D0000FB5D02E2070EFB6FFBC1E6FF030EE66E22
:100D100037EC22F0E552E5521200010E0F010825D2
:100D2000086F000E0921096F0A0E0D6E0E6A08CFBA
:100D300008F009CF09F079EC23F004C008FF05C0E2
:100D400009FF050E0F0109AF02D0D89003D0085D4E
:100D5000000E095911E265DE00090EE09E0EE66EF6
:100D6000400EE66E060EE66E010EE66E60EC11F0C9
:100D7000E552E552E552E5520F010A0E585D000EAC
:100D8000595924E358CF10F059CF11F00001116ADE
:100D9000010E101610181AE1115018E10101FC297A
:100DA000FC6F1F0EE76EFC19E8AE02D0FC3503D0D5
:100DB000E750D880FC5502E2010EFC6FFCC1E6FF53
:100DC000040EE66E37EC22F0E552E5520F010A0EF2
:100DD0005A5D000E5B5923E35ACF10F05BCF11F040
:100DE0000001116A010E1016101819E1115017E1D7
:100DF0000101FC05FC6F010EE76EFC19E8AE02D0A4
:100E0000E73402D0E750FC5D02E21F0EFC6FFCC12C
:100E1000E6FF040EE66E37EC22F0E552E5521200D2
:100E2000010E0F010825086F000E0921096F0A0E37
:100E30000D6E0E6A08CF08F009CF09F079EC23F0A7
:100E400004C008FF05C009FF050E0F0109AF02D05D
:100E5000D89003D0085D000E095911E2E2DD0009C7
:100E60000EE09A0EE66E400EE66E020EE66E010E83
:100E7000E66E60EC11F0E552E552E552E5520F01E5
:100E80000A0E585D000E595924E358CF10F059CF7F
:100E900011F00001116A010E101610181AE111501C
:100EA00018E10101FD29FD6F0C0EE76EFD19E8AE9A
:100EB00002D0FD3503D0E750D880FD5502E2010E87
:100EC000FD6FFDC1E6FF050EE66E37EC22F0E55240
:100ED000E5520F010A0E5A5D000E5B5923E35ACF0B
:100EE00010F05BCF11F00001116A010E10161018FE
:100EF00019E1115017E10101FD05FD6F010EE76ECB
:100F0000FD19E8AE02D0E73402D0E750FD5D02E201
:100F10000C0EFD6FFDC1E6FF050EE66E37EC22F00C
:100F2000E552E5521200010E0F010825086F000E70
:100F30000921096F0A0E0D6E0E6A08CF08F009CF5D
:100F400009F079EC23F004C008FF05C009FF050E85
:100F50000F0109AF02D0D89003D0085D000E0959E7
:100F600011E25FDD00090EE09E0EE66E400EE66EB9
:100F70000B0EE66E010EE66E60EC11F0E552E552E6
:100F8000E552E5520F010A0E585D000E595923E350
:100F900058CF10F059CF11F00001116A010E101650
:100FA000101819E1115017E10101FE29FE6F630EBF
:100FB000E76EFE19E8AE02D0FE3503D0E750D880C8
:100FC000FE5501E2FE6BFEC1E6FF060EE66E37EC53
:100FD00022F0E552E5520F010A0E5A5D000E5B59F0
:100FE0001BE35ACF10F05BCF11F00001116A010E24
:100FF0001016101811E111500FE10101FE05FE6FEE
:10100000E83402E3630EFE6FFEC1E6FF060EE66EF5
:1010100037EC22F0E552E5521200EBEC0EF038EC22
:1010200024F0110E0F01061901E1075101E1ABD0C7
:10103000100E061901E1075101E18BD00F0E0619C0
:1010400001E107516CE00D0E061901E107514DE079
:101050000C0E061901E107512DE00E0E061901E1F3
:1010600007510CE0065101E1075101E0120040EC8C
:1010700000F00E0E0F01066F076B120040EC00F03F
:10108000CBDD0F010A0E5C5D000E5D5901E295D0CB
:101090005CCF10F05DCF11F00001116A010E101647
:1010A000101807E1115001E088D00C0E0F01066FF7
:1010B000076B120040EC00F0BDDC0F010A0E5C5D16
:1010C000000E5D5901E279D05CCF10F05DCF11F0D8
:1010D0000001116A010E1016101806E111506DE1A1
:1010E0000D0E0F01066F076B120040EC00F01BDDC8
:1010F0000F010A0E5C5D000E5D595FE35CCF10F0DE
:101100005DCF11F00001116A010E1016101806E1F2
:10111000115053E10F0E0F01066F076B1200FDDD3A
:1011200040EC00F00F010A0E5C5D000E5D5945E3D6
:101130005CCF10F05DCF11F00001116A010E1016A6
:10114000101806E1115039E1100E0F01066F076B00
:10115000120066DE40EC00F00F010A0E5C5D000E2E
:101160005D592BE35CCF10F05DCF11F00001116AE7
:10117000010E1016101806E111501FE1110E0F019B
:10118000066F076B1200CFDE40EC00F00F010A0E75
:101190005C5D000E5D5911E35CCF10F05DCF11F086
:1011A0000001116A010E1016101806E1115005E138
:1011B0000E0E0F01066F076B12001200070E0F01D3
:1011C0000A1901E10B5101E194D0060E0A1901E15F
:1011D0000B5101E17ED0050E0A1901E10B5152E0DD
:1011E000040E0A1901E10B513DE0030E0A1901E159
:1011F0000B5129E0020E0A1901E10B5115E0010E15
:101200000A1901E10B5101E012000101FA2B170E3E
:10121000E76EFA19E8AE02D0FA3503D0E750D8806D
:10122000FA556AE2FA6B12000101F92B3B0EE76EE8
:10123000F919E8AE02D0F93503D0E750D880F95556
:101240005BE2F96B12000101F82B3B0EE76EF81917
:10125000E8AE02D0F83503D0E750D880F8554CE21C
:10126000F86B12000101FB2B070EE76EFB19E8AECD
:1012700002D0FB3503D0E750D880FB553DE2010E8C
:10128000FB6F12000101FC29FC6F106E116A10BE89
:1012900011680101FD05E96EEA6AE9BEEA68D890C5
:1012A000E936EA360E0EE9260F0EEA22EECF12F0EC
:1012B000EFCF13F013501118E8AE02D0113404D060
:1012C0001050125C1150135817E20101010EFC6F0F
:1012D00012000101FD2B0C0EE76EFD19E8AE02D0E5
:1012E000FD3503D0E750D880FD5506E2010EFD6FB5
:1012F00012000101FE2B12001200070E0F010A1945
:1013000001E10B516FE0060E0A1901E10B515BE0A0
:10131000050E0A1901E10B5139E0040E0A1901E129
:101320000B5125E0030E0A1901E10B5119E0020EE1
:101330000A1901E10B510DE0010E0A1901E10B51EF
:1013400001E012000101FA07FA3552E3170EFA6FB5
:1013500012000101F907F9354BE33B0EF96F12005A
:101360000101F807F83544E33B0EF86F1200010164
:10137000FB07010EE76EFB19E8AE02D0E73402D09E
:10138000E750FB5D35E2070EFB6F12000101FC0523
:10139000FC6F010EE76EFC19E8AE02D0E73402D014
:1013A000E750FC5D25E20101FD05E96EEA6AE9BE50
:1013B000EA68D890E936EA360E0EE9260F0EEA22E0
:1013C000EFCFFCF112000101FD07010EE76EFD19E0
:1013D000E8AE02D0E73402D0E750FD5D09E20C0E22
:1013E000FD6F12000101FE07FE3502E3FE6B1200E5
:1013F00012000F010A0E585D000E595927E358CF0D
:1014000010F0116A010E1016101820E111501EE1A3
:10141000010E0F010A250A6F000E0B210B6F080E3B
:101420000D6E0E6A0ACF08F00BCF09F079EC23F0AD
:1014300004C00AFF05C00BFF0F010450051003E1B3
:101440000A2B000E0B230F01586B596B0A0E645DBB
:10145000000E65590EE364CF10F00001116A010E11
:101460001016101806E1115004E1A8DE0F01646B9C
:10147000656B0F010A0E605D000E61590EE360CFCF
:1014800010F00001116A010E1016101806E111503B
:1014900004E133DF0F01606B616B0F010A0E5A5DCF
:1014A000000E5B5918E35ACF10F00001116A010ECB
:1014B0001016101810E111500EE1FAC100F1F9C137
:1014C00001F1010E0F01006F016B0F010C6F0D6B2D
:1014D0000F015A6B5B6BEBEC0EF0890EE66E400E63
:1014E000E66EE66AE66A60EC11F0E552E552E55216
:0614F000E5521AEF0FF0B7
:0A14F600D9CFE6FFE1CFD9FF040EC5
:10150000E126DE6ADD6ADECF10F0DDCF11F0126A6F
:10151000136A11AE02D012681368D950FB0FE96E3E
:10152000FF0EDA20EA6EEE50105CEE501158EE50CD
:101530001258EE5013581DE2020EDB6A030EDB6AEE
:10154000020EDBCF10F0030EDBCF11F0D89011505C
:1015500004E6050E105C000E115806E2020EDB2AAE
:10156000030EEEE3DB2AECD7DF2A010ECCE3DB2A05
:10157000CAD7040EE15C02E2E16AE552E16EE5528F
:10158000E7CFD9FF1200D9CFE6FFE1CFD9FF040E94
:10159000E126DE6ADD6ADECF10F0DDCF11F0126ADF
:1015A000136A11AE02D012681368D950FB0FE96EAE
:1015B000FF0EDA20EA6EEE50105CEE501158EE503D
:1015C0001258EE5013581DE2020EDB6A030EDB6A5E
:1015D000020EDBCF10F0030EDBCF11F0D8901150CC
:1015E00004E6EE0E105C000E115806E2020EDB2A35
:1015F000030EEEE3DB2AECD7DF2A010ECCE3DB2A75
:10160000CAD7040EE15C02E2E16AE552E16EE552FE
:10161000E7CFD9FF1200D9CFE6FFE1CFD9FF0F0EF8
:101620008116FE0EDB50F00B81128186010EE66EF4
:10163000E66AE66AE66AA7DFE552E552E552E55258
:101640008196010EE66EE66AE66AE66A9CDFE5527E
:10165000E552E552E5520F0E8116FE0EDB38F00B17
:1016600081128186010EE66EE66AE66AE66A8BDF23
:10167000E552E552E552E5528196010EE66EE66AC4
:10168000E66AE66A80DFE552E552E552E552E55248
:10169000E7CFD9FF1200D9CFE6FFE1CFD9FFE6525D
:1016A000190EE66EE66AE66AE66A6DDFE552E55215
:1016B000E552E5520F0E8116F80E81160F0E8116B7
:1016C000300E81128186010EE66EE66AE66AE66AEF
:1016D0005ADFE552E552E552E5528196010EE66E7B
:1016E000E66AE66AE66A4FDFE552E552E552E55200
:1016F0000F0E8116300E81128186010EE66EE66AAB
:10170000E66AE66A40DFE552E552E552E552819627
:10171000010EE66EE66AE66AE66A35DFE552E552F4
:10172000E552E5520F0E8116300E81128186010EB0
:10173000E66EE66AE66AE66A26DFE552E552E552BB
:10174000E5528196010EE66EE66AE66AE66A1BDFFE
:10175000E552E552E552E5520F0E8116818A8186E7
:10176000010EE66EE66AE66AE66A0DDFE552E552CC
:10177000E552E5528196010EE66EE66AE66AE66A91
:1017800002DFE552E552E552E552280EE66E43DFF0
:10179000E5520C0EE66E3FDFE552E552E552E7CF2B
:1017A000D9FF1200D9CFE6FFE1CFD9FF020EE12623
:1017B000DF6A010EDB6A81940F0EE66EE66AE66A66
:1017C000E66A99DEE552E552E552E5520F0E8112C6
:1017D0008186E66EE66AE66AE66A8DDEE552E552E5
:1017E000E552E5520F0E8114E76E010EE7CFDBFFE5
:1017F00081960F0EE66EE66AE66AE66A7CDEE552E0
:10180000E552E552E5520F0E81128186E66EE66AD8
:10181000E66AE66A70DEE552E552E552E5520F0EE1
:101820008114DF6E010EDB50DF128196010EE66E31
:10183000E66AE66AE66A5FDEE552E552E552E5529F
:10184000DF50106E020EE15C02E2E16AE552E16EE9
:101850001050E552E7CFD9FF1200D9CFE6FFE1CF14
:10186000D9FFE652DF6A9EDFDF6EDFBEFCD7DF50B6
:10187000E552E552E7CFD9FF1200D9CFE6FFE1CF1D
:10188000D9FF0F0E8116FE0EDB5081128186050EE8
:10189000E66EE66AE66AE66A2EDEE552E552E55253
:1018A000E5528196050EE66EE66AE66AE66A23DE92
:1018B000E552E552E552E552E552E7CFD9FF120075
:1018C000D9CFE6FFE1CFD9FF8194050EE66EE66A37
:1018D000E66AE66A10DEE552E552E552E552FE0E92
:1018E000DBCFE6FFCADFE552FE0EDB38F00BE66E1B
:1018F000C4DFE552E552E7CFD9FF1200D9CFE6FFAA
:10190000E1CFD9FF8184050EE66EE66AE66AE66AF3
:10191000F2DDE552E552E552E552FE0EDBCFE6FF81
:10192000ACDFE552FE0EDB38F00BE66EA6DFE552CB
:101930008194E552E7CFD9FF1200D9CFE6FFE1CF7E
:10194000D9FFFE0EDBCFE6FFD9DFE552E552E7CF48
:10195000D9FF1200D9CFE6FFE1CFD9FFFE0EDBCFD2
:10196000E6FFCCDFE552E552E7CFD9FF1200D9CF31
:10197000E6FFE1CFD9FFFD0EDBCFF6FFFE0EDBCF9A
:10198000F7FF0800F5500FE0FD0EDBCFF6FFDB2A76
:10199000FE0EDBCFF7FF01E3DB2A0800F550E66E11
:1019A000D9DFE552E8D7E552E7CFD9FF1200D9CF0A
:1019B000E6FFE1CFD9FFE652FD0EDB500F0B106EB4
:1019C000FE0EDB50010B400DF3501024DF6E7F0E36
:1019D000DF14800FDF6EDFCFE6FF72DFE552E552E6
:1019E000E552E7CFD9FF1200010EE66E69DFE5523E
:1019F000E66AE66ADCDFE552E5521200D9CFE6FF7F
:101A0000E1CFD9FF050EE126010EF36EDB6E020E6B
:101A1000DB6A030EDB6A040EDB6ADF6ADFCF10F0DD
:101A2000116A10BE1168FB0EDBCF12F0FC0EDBCF8B
:101A300013F011501318E8AE02D0133404D0125032
:101A4000105C135011582DE2FD0EDBCF10F0FE0E8E
:101A5000DBCF11F0126A136A11AE02D0126813685C
:101A6000D950010FE96EDACFEAFF10C00BF011C0B8
:101A70000CF012C00DF013C00EF0EECF06F0EECF5A
:101A800007F0EECF08F0EFCF09F0FEEC24F005C030
:101A9000EDFF04C0EDFF03C0EDFF02C0EFFFDF2A42
:101AA000BDD7010EDBCF10F0020EDBCF11F0030E1D
:101AB000DBCF12F0040EDBCF13F010C006F011C024
:101AC00007F012C008F013C009F0050EE15C02E255
:101AD000E16AE552E16EE552E7CFD9FF1200D9CFB6
:101AE000E6FFE1CFD9FF020EE126DF6AFB0EDBCF76
:101AF00010F0FC0EDBCF11F0FD0EDBCF12F0FE0E6E
:101B0000DBCF13F0105011101210131005E1300E3E
:101B1000E66E20DFE552F4D0D950FB0FE96EFF0EE0
:101B2000DA20EA6ED890030EEB50000A08E6000EA9
:101B3000EE5C000EEE58000EEE58000EEE5815E268
:101B40002D0EE66E07DFE552D950FB0FE96EFF0E52
:101B5000DA20EA6E000EEE6CEF1EEE22EF1EEE2291
:101B6000EF1EEF22ED52ED52ED52DE52070EDD6E0A
:101B7000010EDBCF10F0000EE76E1018E8AE02D0B9
:101B8000103403D0E750D880105401E3B9D0010ECF
:101B9000DB04146E156A14BE156814C0E6FF15C088
:101BA000E6FF0A0EE66EE66A29DFE552E552E552E7
:101BB000E55206C010F007C011F008C012F009C0CD
:101BC00013F006C00BF007C00CF008C00DF009C000
:101BD0000EF0FB0EDBCF06F0FC0EDBCF07F0FD0EA8
:101BE000DBCF08F0FE0EDBCF09F036EC25F0065017
:101BF00007100810091041E0010EDF6EDB04186EBB
:101C0000196A18BE196818C0E6FF19C0E6FF0A0E67
:101C1000E66EE66AF3DEE552E552E552E55206C0AD
:101C200014F007C015F008C016F009C017F006C080
:101C30000BF007C00CF008C00DF009C00EF0FB0E51
:101C4000DBCF06F0FC0EDBCF07F0FD0EDBCF08F09C
:101C5000FE0EDBCF09F036EC25F006C010F007C011
:101C600011F008C012F009C013F0300E1026000E5B
:101C7000112212221322105003D0DF5004E0300E44
:101C8000E66E68DEE552010EDB04146E156A14BEC2
:101C9000156814C0E6FF15C0E6FF0A0EE66EE66A98
:101CA000ADDEE552E552E552E55206C010F007C040
:101CB00011F008C012F009C013F0D950FB0FE96E03
:101CC000FF0EDA20EA6E06C00BF007C00CF008C069
:101CD0000DF009C00EF0EECF06F0EECF07F0EECF1C
:101CE00008F0EFCF09F036EC25F005C0EDFF04C099
:101CF000EDFF03C0EDFF02C0EFFF010EDB0638D79A
:101D0000020EE15C02E2E16AE552E16EE552E7CFE4
:101D1000D9FF1200D9CFE6FFE1CFD9FFFD0EDBCF0F
:101D2000E6FFFE0EDBCFE6FF42DEE552E552D9507C
:101D3000F90FE96EFF0EDA20EA6EEECFE6FFEECF86
:101D4000E6FFEECFE6FFEFCFE6FFC9DEE552E55254
:101D5000E552E552E552E7CFD9FF1200D9CFE6FFB1
:101D6000E1CFD9FFFD0EDBCFE6FFFE0EDBCFE6FFB6
:101D70001EDEE552E552FB0EDBCFE6FFFC0EDBCFAD
:101D8000E6FFF5DDE552E552E552E7CFD9FF120057
:101D9000D9CFE6FFE1CFD9FFFBC010F0FCC011F0B6
:101DA000040ED89010361136E806FBE1C10E10265D
:101DB000000E112210500001FD25E96E1150FE2188
:101DC000EA6EFE0EDBCFEFFFFD2B000EFE23E55289
:101DD000E7CFD9FF1200D9CFE6FFE1CFD9FFE65216
:101DE000DF6ADFCF10F0100EE76E1018E8AE02D0F9
:101DF000E73402D0E750105C18E2DFCFE9FFEA6A6F
:101E0000E9BEEA68C10EE926000EEA22200EEF6E56
:101E1000DFCFE9FFEA6AE9BEEA68D10EE926000EE3
:101E2000EA22200EEF6EDF2ADCD7E552E552E7CF3B
:101E3000D9FF1200D9CFE6FFE1CFD9FFE65200016A
:101E4000C051030A52E0010A36E0030A1AE0010A0F
:101E500067E1E66AE66AABDDE552E552DF6A080E45
:101E6000DF5C0CE2DF50EA6AC10FE96E000EEA2285
:101E7000EF50E66E6FDDE552DF2AF1D70001010E6B
:101E800032D0080EE66EE66A92DDE552E552DF6A70
:101E9000080EDF5C0DE2080EDF24EA6AC10FE96E6E
:101EA000000EEA22EF50E66E55DDE552DF2AF0D74C
:101EB0000001020E18D0E66A010EE66E78DDE552EA
:101EC000E552DF6A080EDF5C0CE2DF50EA6AD10FF0
:101ED000E96E000EEA22EF50E66E3CDDE552DF2AA5
:101EE000F1D70001030EC06F1CD0080EE66E010E84
:101EF000E66E5DDDE552E552DF6A080EDF5C0DE25D
:101F0000080EDF24EA6AD10FE96E000EEA22EF50D4
:101F1000E66E20DDE552DF2AF0D70001C06B01D06C
:101F2000C06BE552E552E7CFD9FF1200D9CFE6FFEB
:101F3000E1CFD9FFE6520001C051010A1BE0010ABE
:101F400032E1E66AE66A33DDE552E552DF6A100EF9
:101F5000DF5C0CE2DF50EA6AC10FE96E000EEA2294
:101F6000EF50E66EF7DCE552DF2AF1D70001010EF3
:101F7000C06F1AD0E66A010EE66E19DDE552E55231
:101F8000DF6A100EDF5C0CE2DF50EA6AD10FE96E07
:101F9000000EEA22EF50E66EDDDCE552DF2AF1D7D3
:101FA0000001C06B01D0C06BE552E552E7CFD9FF0D
:101FB0001200D9CFE6FFE1CFD9FFE652E66AE66A22
:101FC000F6DCE552E552DF6A100EDF5C0CE2DF5012
:101FD000EA6AC10FE96E000EEA22EF50E66EBADC43
:101FE000E552DF2AF1D7E66A010EE66EE0DCE55243
:101FF000E552DF6A100EDF5C0CE2DF50EA6AD10FB7
:10200000E96E000EEA22EF50E66EA4DCE552DF2A0C
:10201000F1D7E552E552E7CFD9FF1200D9CFE6FF5D
:10202000E1CFD9FFFE0EDB50010B0001FB6FFC6B13
:10203000FD0EDB500F0BFD6FFE6BFBC010F0FCC004
:1020400011F0040ED89010361136E806FBE1C10EEF
:102050001026000E112210500001FD25E96E1150CE
:10206000FE21EA6EFC0EDBCFEFFFE552E7CFD9FF92
:102070001200D9CFE6FFE1CFD9FF020EE126DF6AD9
:10208000FE0EDB50010B0001FB6FFC6BFD0EDB5005
:102090000F0BFD6FFE6BF90EDBCF10F0FA0EDBCFEE
:1020A00011F0FB0EDBCF12F0FC0EDBCF13F0105063
:1020B00011101210131005E1300EE66E69DEE552C4
:1020C000F5D0D950F90FE96EFF0EDA20EA6ED890FC
:1020D000030EEB50000A08E6000EEE5C000EEE5810
:1020E000000EEE58000EEE5815E22D0EE66E50DE94
:1020F000E552D950F90FE96EFF0EDA20EA6E000EB4
:10210000EE6CEF1EEE22EF1EEE22EF1EEF22ED52DE
:10211000ED52ED52DE52070EDD6E010EDBCF10F0F8
:10212000000EE76E1018E8AE02D0103403D0E7506E
:10213000D880105401E3BAD0010EDB04146E156A86
:1021400014BE156814C0E6FF15C0E6FF0A0EE66E61
:10215000E66A54DCE552E552E552E55206C010F05D
:1021600007C011F008C012F009C013F006C00BF050
:1021700007C00CF008C00DF009C00EF0F90EDBCF5F
:1021800006F0FA0EDBCF07F0FB0EDBCF08F0FC0EFB
:10219000DBCF09F036EC25F00650071008100910C7
:1021A00041E0010EDF6EDB04186E196A18BE196873
:1021B00018C0E6FF19C0E6FF0A0EE66EE66A1EDCEE
:1021C000E552E552E552E55206C014F007C015F09D
:1021D00008C016F009C017F006C00BF007C00CF0DD
:1021E00008C00DF009C00EF0F90EDBCF06F0FA0EB4
:1021F000DBCF07F0FB0EDBCF08F0FC0EDBCF09F0E6
:1022000036EC25F006C010F007C011F008C012F03F
:1022100009C013F0300E1026000E112212221322D4
:10222000105003D0DF5004E0300EE66EB1DDE55211
:10223000010EDB04146E156A14BE156814C0E6FFA7
:1022400015C0E6FF0A0EE66EE66AFEEC0CF0E552FB
:10225000E552E552E55206C010F007C011F008C083
:1022600012F009C013F0D950F90FE96EFF0EDA2011
:10227000EA6E06C00BF007C00CF008C00DF009C0F4
:102280000EF0EECF06F0EECF07F0EECF08F0EFCF76
:1022900009F036EC25F005C0EDFF04C0EDFF03C0EA
:1022A000EDFF02C0EFFF010EDB0637D7020EE15C47
:1022B00002E2E16AE552E16EE552E7CFD9FF120092
:1022C000D9CFE6FFE1CFD9FFFE0EDB50010B0001B5
:1022D000FB6FFC6BFD0EDB500F0BFD6FFE6BFB0EFF
:1022E000DBCFF6FFFC0EDBCFF7FF0800F5500FE069
:1022F000FB0EDBCFF6FFDB2AFC0EDBCFF7FF01E3A3
:10230000DB2A0800F550E66E43DDE552E8D7E552DA
:10231000E7CFD9FF1200D9CFE6FFE1CFD9FF050EF5
:10232000E126D9CFE9FFDACFEAFFF90EDBCFEEFFE6
:10233000FA0EDBCFEEFFFB0EDBCFEEFFFC0EDBCFAA
:10234000EEFFD9CFE9FFDACFEAFFEECF10F0EECF04
:1023500011F0EECF12F0EFCF13F0E80E0B6E030E7C
:102360000C6E0D6A0E6A10C006F011C007F012C0A4
:1023700008F013C009F0CCEC23F006C010F007C041
:1023800011F008C012F009C013F006C0E6FF07C044
:10239000E6FF08C0E6FF09C0E6FFFD0EDBCFE6FF63
:1023A000FE0EDBCFE6FF65DE146E060EE15E145016
:1023B000D9CFE9FFDACFEAFFEECF06F0EECF07F094
:1023C000EECF08F0EFCF09F0E80E0B6E030E0C6EA7
:1023D0000D6A0E6ACCEC23F002C0DEFF03C0DEFF04
:1023E00004C0DEFF05C0DDFFDD52DD52D9CFE9FFBD
:1023F000DACFEAFFEECF10F0EECF11F0EECF12F011
:10240000EFCF13F0640E0B6E0C6A0D6A0E6A10C0EB
:1024100006F011C007F012C008F013C009F0CCECB0
:1024200023F006C010F007C011F008C012F009C078
:1024300013F006C0E6FF07C0E6FF08C0E6FF09C0CC
:10244000E6FFFD0EDB28E66EFE0EDBCFE6FF11DEBB
:10245000146E060EE15E1450D9CFE9FFDACFEAFF21
:10246000EECF06F0EECF07F0EECF08F0EFCF09F099
:10247000640E0B6E0C6A0D6A0E6ACCEC23F002C07F
:10248000DEFF03C0DEFF04C0DEFF05C0DDFFDD525E
:10249000DD521E0EE66E400EE66EFD0EDB50020FA4
:1024A000E66EFE0EDBCFE6FF0BDFE552E552E552AE
:1024B000E552D9CFE9FFDACFEAFFEECF10F0EECF49
:1024C00011F0EECF12F0EFCF13F00A0E0B6E0C6A84
:1024D0000D6A0E6A10C006F011C007F012C008F0B5
:1024E00013C009F0CCEC23F006C010F007C011F0C7
:1024F00008C012F009C013F006C0E6FF07C0E6FFEF
:1025000008C0E6FF09C0E6FFFD0EDB50030FE66ED4
:10251000FE0EDBCFE6FFADDD146E060EE15E14505D
:10252000D9CFE9FFDACFEAFFEECF06F0EECF07F022
:10253000EECF08F0EFCF09F0E80E0B6E030E0C6E35
:102540000D6A0E6ACCEC23F002C0DEFF03C0DEFF92
:1025500004C0DEFF05C0DDFFDD52DD52D9CFE9FF4B
:10256000DACFEAFFEECF10F0EECF11F0EECF12F09F
:10257000EFCF13F00A0E0B6E0C6A0D6A0E6A10C0D4
:1025800006F011C007F012C008F013C009F0CCEC3F
:1025900023F002C010F003C011F004C012F005C017
:1025A00013F002C0E6FF03C0E6FF04C0E6FF05C06B
:1025B000E6FFFD0EDB50040FE66EFE0EDBCFE6FFFE
:1025C00058DD146E060EE15E1450050EE15C02E269
:0E25D000E16AE552E16EE552E7CFD9FF120055
:0225DE00D9CF53
:1025E000E6FFE1CFD9FF020EE126DE6ADD6A66D89A
:1025F000A1EC21F0F4EC0CF0EBEC0EF0000EE66E2A
:10260000E66A9ED8E552E552E80EE66E030EE66EE7
:1026100011D8E552E55200EC24F00101C951FDE06A
:10262000C96BBDEC1BF0F6EC1DF066D9EAD91AECCB
:102630000FF0F3D7D9CFE6FFE1CFD9FF040EE126A3
:10264000DE6ADD6ADECF10F0DDCF11F0FD0EDBCFEC
:1026500012F0FE0EDBCF13F011501318E8AE02D0CB
:10266000133404D01250105C135011581DE2020EA6
:10267000DB6A030EDB6A020EDBCF10F0030EDBCF4A
:1026800011F0D890115004E6EE0E105C000E1158B7
:1026900006E2020EDB2A030EEEE3DB2AECD7DF2A8A
:1026A000010ED0E3DB2ACED7040EE15C02E2E16A40
:1026B000E552E16EE552E7CFD9FF1200936A926AC4
:1026C0004BEC0BF0956A836A77EC22F0E80EE66E2D
:1026D000030EE66EAFDFE552E552570EE66E120EC0
:1026E000E66E26EC19F0E552E552AE0EE66E240ECB
:1026F000E66EC8EC19F0E552E552660EE66EB70ECE
:10270000E66E89EC1AF0E552E552020EE66EE66AD4
:1027100064EC1BF0E552E5520A0EE66EE66A76ECD2
:102720001BF0E552E552320EE66EE66A95EC1BF0C0
:10273000E552E552B8EC1BF058EC16F0B8EF24F077
:10274000D9CFE6FFE1CFD9FFFE0EDBCF11F0800E2F
:1027500011141AE1FD0EDBCF12F0FE0EDBCF13F0E9
:10276000133404E212500708000E13540DE3FD0E5B
:10277000DBCFE9FFFE0EDBCFEAFFDE0EE926010E1E
:10278000EA22EF508310836EE552E7CFD9FF1200A3
:10279000D9CFE6FFE1CFD9FFFE0EDBCF11F0800EDF
:1027A00011141AE1FD0EDBCF12F0FE0EDBCF13F099
:1027B000133404E212500708000E13540DE3FD0E0B
:1027C000DBCFE9FFFE0EDBCFEAFFDE0EE926010ECE
:1027D000EA22EF1C8314836EE552E7CFD9FF120083
:1027E000D9CFE6FFE1CFD9FFFD0EDBCFE9FFFE0E2B
:1027F000DBCFEAFFE60EE926010EEA22EF0415E13F
:10280000FD0EDBCFE6FFFE0EDBCFE6FFC1DFE552BC
:10281000E552FD0EDBCFE9FFFE0EDBCFEAFFE60E51
:10282000E926010EEA22EF6A15D0FD0EDBCFE6FFA6
:10283000FE0EDBCFE6FF84DFE552E552FD0EDBCF77
:10284000E9FFFE0EDBCFEAFFE60EE926010EEA22E3
:10285000010EEF6EE552E7CFD9FF1200D9CFE6FFA8
:10286000E1CFD9FF020EE126DE6ADD6ADECF10F08D
:10287000DDCF11F0113404E210500708000E11549E
:1028800021E3DECFE6FFDDCFE6FF5ADFE552E5527A
:10289000F40EE66E010EE66ECDDEE552E552DECFB9
:1028A000E6FFDDCFE6FF74DFE552E552F40EE66E9B
:1028B000010EE66EBFDEE552E552DF2A010ED6E3D9
:1028C000DB2AD4D7020EE15C02E2E16AE552E16E56
:1028D000E552E7CFD9FF12000F01010E5A1903E1AB
:1028E0005B5101E1010C000C0F01010E581903E1CD
:1028F000595101E1010C000CD9CFE6FFE1CFD9FF1E
:10290000020EE126B7C1E9FFEA6AE9BEEA68D8909B
:10291000E936EA36140EE926010EEA2294C1EEFFEA
:1029200095C1EDFF0101B729106E096E320E0E6ED2
:102930005FEC23F005C0B7F105C0B0F10101786B81
:10294000796B7A6B7B6BDE6ADD6ADECF10F0DDCFF0
:1029500011F0D890115004E6320E105C000E1158A0
:102960002FE2B0C1E9FFEA6AE9BEEA68D890E93629
:10297000EA36140EE926010EEA22EECF10F0EFCF70
:1029800011F0126A136A780EE96E010EEA6EEE50CB
:1029900010240101786FEE501120796FEE50122053
:1029A0007A6FEE5013207B6F0101B05103E1310EBD
:1029B000B06F01D0B007DF2A010EC7E3DB2AC5D70D
:1029C000320E0B6E0C6A0D6A0E6A78C106F079C180
:1029D00007F07AC108F07BC109F036EC25F006C09B
:1029E00078F107C079F108C07AF109C07BF1020ED5
:1029F000E15C02E2E16AE552E16EE552E7CFD9FF20
:102A00001200D9CFE6FFE1CFD9FF040EE126010E77
:102A100001010225026F000E0321036F280E0D6EC7
:102A20000E6A02C108F003C109F077EC25F004C07A
:102A300002F105C003F101010450051001E01FD1AE
:102A400026CF10F027CF11F0126A136A0F0126511A
:102A50000F013C5D1C6E3D510F0127551D6E1E6A16
:102A60001F6AE1C018F0E2C019F01A6A1B6AE1C0DF
:102A700006F0E2C007F01AC008F01BC009F01CC045
:102A80000BF00C6E1EC00DF01FC00EF0FEEC24F01B
:102A900002C014F003C015F004C016F005C017F012
:102AA0000B68030E0C6E0D6A0E6A02C006F003C0BE
:102AB00007F004C008F005C009F0CCEC23F006C014
:102AC00014F007C015F008C016F009C017F0065042
:102AD000102607501122085012220950132210C04C
:102AE00006F111C007F1700EE66E400EE66ED9ECED
:102AF00016F0E552E55206C110F007C111F0126A56
:102B0000136A06C1E6FF07C1E6FF12C0E6FF13C065
:102B1000E6FF8BEC18F0E552E552E552E552670E00
:102B2000E66E400EE66ED9EC16F0E552E55208C1AD
:102B300010F009C111F0126A136A08C1E6FF09C159
:102B4000E6FF12C0E6FF13C0E6FF8BEC18F0E5527B
:102B5000E552E552E5525B0EE66E400EE66ED9ECAC
:102B600016F0E552E5520AC110F00BC111F0126ADD
:102B7000136A0AC1E6FF0BC1E6FF12C0E6FF13C0ED
:102B8000E6FF8BEC18F0E552E552E552E5524F0EA8
:102B9000E66E400EE66ED9EC16F0E552E55210C135
:102BA00010F011C111F0126A136A10C1E6FF11C1D1
:102BB000E6FF12C0E6FF13C0E6FF8BEC18F0E5520B
:102BC000E552E552E552460EE66E400EE66ED9EC51
:102BD00016F0E552E5520CC110F00DC111F0126A69
:102BE000136A0CC1E6FF0DC1E6FF12C0E6FF13C079
:102BF000E6FF8BEC18F0E552E552E552E5523A0E4D
:102C0000E66E400EE66ED9EC16F0E552E5520EC1C6
:102C100010F00FC111F0126A136A0EC1E6FF0FC166
:102C2000E6FF12C0E6FF13C0E6FF8BEC18F0E5529A
:102C3000E552E552E5522D0EE66E400EE66ED9ECF9
:102C400016F0E552E55212C110F013C111F0126AEC
:102C5000136A12C1E6FF13C1E6FF12C0E6FF13C0FC
:102C6000E6FF8BEC18F0E552E552E552E552240EF2
:102C7000E66E400EE66ED9EC16F0E552E552040E13
:102C8000E15C02E2E16AE552E16EE552E7CFD9FF8D
:102C9000120022DE000904E078C136FF79C137FF57
:102CA00023DE000904E078C13AFF79C13BFF12003E
:102CB000B06A810EAF6EAC8AAC94B886AC98AB8E1D
:102CC000AB889E9A9D8A9F9A949C948E1200D9CF2D
:102CD000E6FFE1CFD9FF040EE126DE6ADD6ADECF32
:102CE00010F0DDCF11F0FD0EDBCF12F0FE0EDBCFCA
:102CF00013F011501318E8AE02D0133404D0125060
:102D0000105C135011581DE2020EDB6A030EDB6AE1
:102D1000020EDBCF10F0030EDBCF11F0D890115074
:102D200004E6EE0E105C000E115806E2020EDB2ADD
:102D3000030EEEE3DB2AECD7DF2A010ED0E3DB2A19
:102D4000CED7040EE15C02E2E16AE552E16EE552A3
:102D5000E7CFD9FF1200D9CFE6FFE1CFD9FF9EA878
:102D6000FED7FE0EDB50AD6E9E98E552E7CFD9FF41
:102D70001200D9CFE6FFE1CFD9FFFD0EDBCFE9FF8F
:102D8000FE0EDBCFEAFFEF5010E0FD0EDBCFE9FFD8
:102D9000FE0EDBCFEAFFEF50E66EDDDFE552FD0E03
:102DA000DB2AFE0EEAE3DB2AE8D7E552E7CFD9FFBC
:102DB0001200D9CFE6FFE1CFD9FFFD0EDBCFF6FF42
:102DC000FE0EDBCFF7FF0800F55015E0FD0EDBCF60
:102DD000F6FFFE0EDBCFF7FF0800F550E66EBBDF17
:102DE000E552FD0EDBCFF6FFDB2AFE0EDBCFF7FF51
:102DF000E4E3DB2AE2D7E552E7CFD9FF1200D9CFCF
:102E0000E6FFE1CFD9FF050EE126010EF36EDB6E82
:102E1000020EDB6A030EDB6A040EDB6ADF6ADFCFB9
:102E200010F0116A10BE1168FB0EDBCF12F0FC0E21
:102E3000DBCF13F011501318E8AE02D0133404D0D6
:102E40001250105C135011582DE2FD0EDBCF10F024
:102E5000FE0EDBCF11F0126A136A11AE02D01268B7
:102E60001368D950010FE96EDACFEAFF10C00BF0FA
:102E700011C00CF012C00DF013C00EF0EECF06F032
:102E8000EECF07F0EECF08F0EFCF09F0FEEC24F024
:102E900005C0EDFF04C0EDFF03C0EDFF02C0EFFF72
:102EA000DF2ABDD7010EDBCF10F0020EDBCF11F011
:102EB000030EDBCF12F0040EDBCF13F010C006F0D0
:102EC00011C007F012C008F013C009F0050EE15C54
:102ED00002E2E16AE552E16EE552E7CFD9FF120066
:102EE000D9CFE6FFE1CFD9FF020EE126DF6AFB0E64
:102EF000DBCF10F0FC0EDBCF11F0FD0EDBCF12F0BC
:102F0000FE0EDBCF13F0105011101210131005E15C
:102F1000300EE66E20DFE552F4D0D950FB0FE96E9B
:102F2000FF0EDA20EA6ED890030EEB50000A08E696
:102F3000000EEE5C000EEE58000EEE58000EEE583D
:102F400015E22D0EE66E07DFE552D950FB0FE96E54
:102F5000FF0EDA20EA6E000EEE6CEF1EEE22EF1E80
:102F6000EE22EF1EEF22ED52ED52ED52DE520A0E2E
:102F7000DD6E010EDBCF10F0000EE76E1018E8AE2C
:102F800002D0103403D0E750D880105401E3B9D0F8
:102F9000010EDB04146E156A14BE156814C0E6FF3A
:102FA00015C0E6FF0A0EE66EE66A29DFE552E55235
:102FB000E552E55206C010F007C011F008C012F04B
:102FC00009C013F006C00BF007C00CF008C00DF0EC
:102FD00009C00EF0FB0EDBCF06F0FC0EDBCF07F0D6
:102FE000FD0EDBCF08F0FE0EDBCF09F036EC25F04E
:102FF000065007100810091041E0010EDF6EDB04D7
:10300000186E196A18BE196818C0E6FF19C0E6FFE5
:103010000A0EE66EE66AF3DEE552E552E552E55247
:1030200006C014F007C015F008C016F009C017F06C
:1030300006C00BF007C00CF008C00DF009C00EF080
:10304000FB0EDBCF06F0FC0EDBCF07F0FD0EDBCF77
:1030500008F0FE0EDBCF09F036EC25F006C010F0CC
:1030600007C011F008C012F009C013F0300E10268E
:10307000000E112212221322105003D0DF5004E060
:10308000300EE66E68DEE552010EDB04146E156A42
:1030900014BE156814C0E6FF15C0E6FF0A0EE66E02
:1030A000E66AADDEE552E552E552E55206C010F0A3
:1030B00007C011F008C012F009C013F0D950FB0F7F
:1030C000E96EFF0EDA20EA6E06C00BF007C00CF0C6
:1030D00008C00DF009C00EF0EECF06F0EECF07F0FD
:1030E000EECF08F0EFCF09F036EC25F005C0EDFF8C
:1030F00004C0EDFF03C0EDFF02C0EFFF010EDB06D1
:1031000038D7020EE15C02E2E16AE552E16EE55277
:10311000E7CFD9FF1200D9CFE6FFE1CFD9FFFB0EF1
:10312000DBCF10F0FC0EDBCF11F0FD0EDBCF12F089
:10313000FE0EDBCF13F0640E0B6E0C6A0D6A0E6A86
:1031400010C006F011C007F012C008F013C009F05B
:10315000CCEC23F006C010F007C011F008C012F04C
:1031600009C013F006C0E6FF07C0E6FF08C0E6FF8F
:1031700009C0E6FFB5DEE552E552E552E5522E0EF6
:10318000E66EE9DDE552FB0EDBCF10F0FC0EDBCF87
:1031900011F0FD0EDBCF12F0FE0EDBCF13F0640E4C
:1031A0000B6E0C6A0D6A0E6A10C006F011C007F0B3
:1031B00012C008F013C009F0CCEC23F002C010F0EC
:1031C00003C011F004C012F005C013F002C0E6FF06
:1031D00003C0E6FF04C0E6FF05C0E6FF81DEE5525E
:1031E000E552E552E552E552E7CFD9FF1200D9CFBB
:1031F000E6FFE1CFD9FFE652AE50DF6E200EE66E5D
:10320000400EE66EE66A010EE66E60EC11F0E552E5
:10321000E552E552E552DFCF10F0116A126A136AE7
:1032200010C0E6FF11C0E6FF12C0E6FF13C0E6FFC4
:10323000E66A010EE66E39EC10F0146E060EE15EE1
:0C3240001450E552E552E7CFD9FF120010
:04324C00D9CFE6FFF1
:10325000E1CFD9FFD59EFD0EDBCFBEF1FE0EDBCF59
:10326000BFF1D59C13681468156ABEC116F0BFC1C2
:1032700017F0186A1650135C106E17501458116E20
:1032800018501558126E0C6A010E0D6E0E6A10C0A1
:1032900007F011C008F012C009F09FEC23F00350B2
:1032A000D66E13681468156ABEC116F0BFC117F058
:1032B000186A1650135C106E17501458116E18507F
:1032C0001558126E0C6A010E0D6E0E6A10C007F0D2
:1032D00011C008F012C009F09FEC23F007C010F0F5
:1032E00008C011F009C012F00750D76ED59AD586E4
:1032F000F28AF294F184D58EE552E7CFD9FF12001D
:10330000D59E120013681468156ABEC116F0BFC1BD
:1033100017F0186A1650135C106E17501458116E7F
:1033200018501558126E0C6A010E0D6E0E6A10C000
:1033300007F011C008F012C009F09FEC23F0035011
:10334000D66E13681468156ABEC116F0BFC117F0B7
:10335000186A1650135C106E17501458116E1850DE
:103360001558126E0C6A010E0D6E0E6A10C007F031
:1033700011C008F012C009F09FEC23F007C010F054
:1033800008C011F009C012F00750D76ED58E120098
:10339000D9CFE6FFE1CFD9FFCD90FD0EDBCFC0F155
:1033A000FE0EDBCFC1F113681468156AC0C116F0B8
:1033B000C1C117F0186A1650135C106E17501458DC
:1033C000116E18501558126E0C6A010E0D6E0E6AB1
:1033D00010C007F011C008F012C009F09FEC23F0F4
:1033E0000750CF6E13681468156AC0C116F0C1C1CA
:1033F00017F0186A1650135C106E17501458116E9F
:1034000018501558126E0C6A010E0D6E0E6A10C01F
:1034100007F011C008F012C009F09FEC23F003C0C0
:1034200010F004C011F005C012F00350CE6E9D8064
:103430009E909F90CD8ECD8CCD98CD9ACD96CD92ED
:10344000CD80E552E7CFD9FF120013681468156AE2
:10345000C0C116F0C1C117F0186A1650135C106E87
:1034600017501458116E18501558126E0C6A010E30
:103470000D6E0E6A10C007F011C008F012C009F0FE
:103480009FEC23F00750CF6E13681468156AC0C113
:1034900016F0C1C117F0186A1650135C106E175061
:1034A0001458116E18501558126E0C6A010E0D6EDC
:1034B0000E6A10C007F011C008F012C009F09FECAE
:1034C00023F003C010F004C011F005C012F0035047
:1034D000CE6ECD801200CD901200D9CFE6FFE1CFA5
:1034E000D9FFCA94CC6AFE0EDB500101C26FC36BD8
:1034F000CB6E9D829E929F92CA90CA92CA84E552D8
:10350000E7CFD9FF1200C2C1CBFFCA841200CA9410
:103510001200D9CFE6FFE1CFD9FFB190FD0EDBCF8E
:10352000C4F1FE0EDBCFC5F113681468156AC4C17F
:1035300016F0C5C117F0186A1650135C106E1750BC
:103540001458116E18501558126E0C6A010E0D6E3B
:103550000E6A10C007F011C008F012C009F09FEC0D
:1035600023F00750B36E13681468156AC4C116F0CF
:10357000C5C117F0186A1650135C106E1750145816
:10358000116E18501558126E0C6A010E0D6E0E6AEF
:1035900010C007F011C008F012C009F09FEC23F032
:1035A00003C010F004C011F005C012F00350B26E59
:1035B000A082A192A292B18EB198B19AB192B1803B
:1035C000E552E7CFD9FF120013681468156AC4C129
:1035D00016F0C5C117F0186A1650135C106E17501C
:1035E0001458116E18501558126E0C6A010E0D6E9B
:1035F0000E6A10C007F011C008F012C009F09FEC6D
:1036000023F00350B26E13681468156AC4C116F033
:10361000C5C117F0186A1650135C106E1750145875
:10362000116E18501558126E0C6A010E0D6E0E6A4E
:1036300010C007F011C008F012C009F09FEC23F091
:1036400007C010F008C011F009C012F00750B36EA7
:10365000B1801200B19012000101CE2B000ECF23D9
:10366000D651CE5DD751CF5904E3CE6BCF6B010E4F
:10367000C66F12000101D02B000ED123D851D05DAE
:10368000D951D15904E3D06BD16B010EC76F120031
:103690000101D22B000ED323DA51D25DDB51D35975
:1036A00004E3D26BD36B010EC86F12000101D42B5F
:1036B000000ED523DC51D45DDD51D55904E3D46B24
:1036C000D56B010EC96F1200D9CFE6FFE1CFD9FF4C
:1036D000FD0EDBCFD6F1FE0EDBCFD7F10101CE6BB5
:1036E000CF6BC66BE552E7CFD9FF1200D9CFE6FF0B
:1036F000E1CFD9FFFD0EDBCFD8F1FE0EDBCFD9F144
:10370000050E0D6E0E6AD8C108F0D9C109F079EC2A
:1037100023F008C0D8F109C0D9F10101D06BD16BF9
:10372000C76BE552E7CFD9FF1200D9CFE6FFE1CF53
:10373000D9FFFD0EDBCFDCF1FE0EDBCFDDF10A0E93
:103740000D6E0E6ADCC108F0DDC109F079EC23F0E2
:1037500008C0DCF109C0DDF10101D46BD56BC96B88
:08376000E552E7CFD9FF12008A
:083768000F0E946E826812003E
:10377000CF0E9414946E82681200D9CFE6FFE1CF89
:10378000D9FF040EE126DE6ADD6ADECF10F0DDCF60
:1037900011F0D890115004E6040E105C000E115880
:1037A00001E390D0DECFE9FFDDCFEAFF780EE92616
:1037B0000F0EEA22EF1C826E020EDB6A030EDB6A3A
:1037C000020EDBCF10F0030EDBCF11F0D8901150BA
:1037D00004E6040E105C000E11586EE2020EDBCF00
:1037E000E9FF030EDBCFEAFF7C0EE9260F0EEA228B
:1037F000EF5082143FE1DECF14F0DDCF15F0D8900A
:1038000014361536D89014361536020EDB501424B3
:10381000E96E030EDB501520EA6ED890E936EA36E1
:10382000580EE9260F0EEA22EECF12F0EFCF13F07A
:10383000010E1226000E1322DECF10F0DDCF11F0A4
:10384000D89010361136D89010361136020EDB5053
:103850001024E96E030EDB501120EA6ED890E93691
:10386000EA36580EE9260F0EEA2212C0EEFF13C008
:10387000EDFF1BD0DECF10F0DDCF11F0D890103669
:103880001136D89010361136020EDB501024E96E36
:10389000030EDB501120EA6ED890E936EA36580E56
:1038A000E9260F0EEA22EE6AED6A020EDB2A030E0B
:1038B00001E286D7DB2A84D7DF2A010E01E265D731
:1038C000DB2A63D7040EE15C02E2E16AE552E16EB5
:1038D000E552E7CFD9FF1200D9CFE6FFE1CFD9FFFC
:1038E000040EE126DE6ADD6ADECF10F0DDCF11F0D6
:1038F000D890115004E6020E105C000E115801E33E
:1039000094D0DECFE9FFDDCFEAFF780EE9260F0E77
:10391000EA22EF1C8214826E0F0E8210826E020E5B
:10392000DB6A030EDB6A020EDBCF10F0030EDBCF87
:1039300011F0D890115004E6040E105C000E1158DE
:103940006EE2020EDBCFE9FF030EDBCFEAFF7C0E57
:10395000E9260F0EEA22EF5082143FE1DECF14F089
:10396000DDCF15F0D89014361536D89014361536AC
:10397000020EDB501424E96E030EDB501520EA6EB4
:10398000D890E936EA36580EE9260F0EEA22EECF35
:1039900012F0EFCF13F0010E1226000E1322DECF2D
:1039A00010F0DDCF11F0D89010361136D8901036C7
:1039B0001136020EDB501024E96E030EDB5011208D
:1039C000EA6ED890E936EA36580EE9260F0EEA225A
:1039D00012C0EEFF13C0EDFF1BD0DECF10F0DDCF25
:1039E00011F0D89010361136D89010361136020EDC
:1039F000DB501024E96E030EDB501120EA6ED890E4
:103A0000E936EA36580EE9260F0EEA22EE6AED6A2A
:103A1000020EDB2A030E01E286D7DB2A84D7DF2AD7
:103A2000010E01E261D7DB2A5FD7040EE15C02E2FE
:103A3000E16AE552E16EE552E7CFD9FF1200D9CF36
:103A4000E6FFE1CFD9FF040EE126DE6ADD6ADECFB4
:103A500010F0DDCF11F0FD0EDBCF12F0FE0EDBCF4C
:103A600013F011501318E8AE02D0133404D01250E2
:103A7000105C135011581DE2020EDB6A030EDB6A64
:103A8000020EDBCF10F0030EDBCF11F0D8901150F7
:103A900004E6EE0E105C000E115806E2020EDB2A60
:103AA000030EEEE3DB2AECD7DF2A010ED0E3DB2A9C
:103AB000CED7040EE15C02E2E16AE552E16EE55226
:103AC000E7CFD9FF1200D9CFE6FFE1CFD9FF040E2F
:103AD000E126DE6ADD6ADECF10F0DDCF11F0D8908E
:103AE000115004E6040E105C000E115875E2DECF92
:103AF000E9FFDDCFEAFF780EE9260F0EEA22EF1C80
:103B0000826E020EDB6A030EDB6A020EDBCF10F060
:103B1000030EDBCF11F0D890115004E6040E105CB8
:103B2000000E11584AE2DECF10F0DDCF11F0D89030
:103B300010361136D89010361136020EDB50102494
:103B4000E96E030EDB501120EA6ED890E936EA36B2
:103B5000580EE9260F0EEA22EE6AED6A020EDBCF5E
:103B6000E9FF030EDBCFEAFF7C0EE9260F0EEA2207
:103B7000EF5082141CE1DECF10F0DDCF11F0D890B1
:103B800010361136D89010361136020EDB50102444
:103B9000E96E030EDB501120EA6ED890E936EA3662
:103BA000580EE9260F0EEA22010EEE6EED6A020EA5
:103BB000DB2A030EAAE3DB2AA8D78250816EE80E27
:103BC000E66E030EE66E3BDFE552E552DF2A010E9C
:103BD00001E281D7DB2A7FD7040EE15C02E2E16AD1
:0C3BE000E552E16EE552E7CFD9FF12007C
:043BEC00070E0F01B0
:103BF000001901E1015101E1F5D1060E001901E1C1
:103C0000015101E1D2D1050E001901E1015101E19B
:103C1000AFD1040E001901E1015101E165D1030E9C
:103C2000001901E1015101E1FED0020E001901E18C
:103C3000015147E0010E001901E101510AE0005174
:103C400001E1015101E01200010E006F016B38EF3C
:103C500024F038EC24F040EC00F00F010A0E5C5D1B
:103C6000000E5D5914E35CCF10F00001116A010EE3
:103C7000101610180CE111500AE10F01046B056BCE
:103C8000020E0F01006F016B0F015C6B5D6B0F018A
:103C90000A0E5E5D000E5F5901E2C0D15ECF10F0EA
:103CA0000001116A010E101610180AE1115001E00E
:103CB000B5D1060E0F01006F016B0F015E6B5F6BDC
:103CC00012000F010A0E5A5D000E5B5914E35ACF21
:103CD00010F00001116A010E101610180CE11150BD
:103CE0000AE10F01046B056B010E0F01006F016B00
:103CF0000F015A6B5B6B0F010A0E5C5D000E5D5984
:103D000014E35CCF10F00001116A010E10161018B8
:103D10000CE111500AE10F01046B056B030E0F015A
:103D2000006F016B0F015C6B5D6B0F010A0E5E5D36
:103D3000000E5F5914E35ECF10F00001116A010E0E
:103D4000101610180CE111500AE10F01046B056BFD
:103D5000040E0F01006F016B0F015E6B5F6B0F01B3
:103D60000A0E605D000E615914E360CF10F000018F
:103D7000116A010E101610180CE111500AE10F0122
:103D8000046B056B050E0F01006F016B0F01606B7B
:103D9000616B0F010A0E625D000E635914E362CF7E
:103DA00010F00001116A010E101610180CE11150EC
:103DB0000AE10F01046B056B060E0F01006F016B2A
:103DC0000F01606B616B0F010A0E585D000E5959AF
:103DD00028E358CF10F00001116A010E10161018D8
:103DE00020E111501EE1010E0F010425046F000EA9
:103DF0000521056F040E0D6E0E6A04CF08F005CF85
:103E000009F079EC23F004C004FF05C005FF0F01A1
:103E10000450051003E1010E046F056B0F01586B90
:103E2000596B6BEF02F00F010A0E585D000E5959E5
:103E300028E358CF10F00001116A010E1016101877
:103E400020E111501EE1010E0F010425046F000E48
:103E50000521056F080E0D6E0E6A04CF08F005CF20
:103E600009F079EC23F004C004FF05C005FF0F0141
:103E70000450051003E1010E046F056B0F01586B30
:103E8000596B0F010A0E5A5D000E5B5911E35ACFB0
:103E900010F00001116A010E1016101809E11150FE
:103EA00007E1040E0F01006F016B0F015A6B5B6B92
:103EB0000F010A0E5C5D000E5D5914E35CCF10F03B
:103EC0000001116A010E101610180CE111500AE1E0
:103ED000020E0F01006F016B0F01046B056B0F01E8
:103EE0005C6B5D6BC5EF02F077EC03F00F010A0E1F
:103EF0005A5D000E5B5911E35ACF10F00001116AB0
:103F0000010E1016101809E1115007E10F01022BE4
:103F1000000E03230F015A6B5B6B0F010A0E5C5DF1
:103F2000000E5D5901E27AD05CCF10F00001116AF9
:103F3000010E101610181BE1115070E104CFE9FFBB
:103F400005CFEAFFE906000EEA5AD890E936EA36CC
:103F50004A0EE9260F0EEA2202CFEEFF03CFEDFF55
:103F6000030E0F01006F016B0F015C6B5D6B1200A4
:103F7000AEEC03F00F010A0E5C5D000E5D594EE3DE
:103F80005CCF10F00001116A010E101610180CE140
:103F9000115044E1020E0F01006F016B0F01046B21
:103FA000056B0F015C6B5D6B12000DEC08F00F01EF
:103FB0000A0E5E5D000E5F5931E35ECF10F0000126
:103FC000116A010E101610180CE1115027E1020EB3
:103FD0000F01006F016B0F01046B056B0F015E6B2E
:103FE0005F6B1200F9EC09F00F010A0E5C5D000E28
:103FF0005D5914E35CCF10F00001116A010E101638
:1040000010180CE111500AE1020E0F01006F016B54
:0E4010000F01046B056B0F015C6B5D6B120002
:02401E002E0072
:1040200020202000206D332F68200D0A00206D67AE
:104030002F6C20464C4F573D2000206D672F6C2081
:104040004E4F333D20002043204E48343D20002079
:104050006D672F6C20544D503D2000206D672F6CF4
:10406000204353423D20002070482053533D200000
:1040700032302E30342E31362030393A31323A3027
:1040800037202070483D2020004D6F692064617406
:104090002062616F2074687563002020200020205A
:1040A000004B484F4E472043414E482042414F006D
:1040B000464C4F572043414F2000544D5020434120
:1040C0004F2000544D503D2020004E4F332043419F
:1040D0004F20004E4F333D2020004E4834204341B6
:1040E0004F20004E48343D20200053532043414F81
:1040F000200053533D202000434F442043414F2094
:1041000000434F443D20200050482043414F2000B1
:1041100050483D202000332E205361766500496EC3
:104120007075743A20002D3E53455420464C4F572D
:1041300020542E48002D3E534554204E4F332054DA
:104140002E48002020534554204E483420542E48F9
:10415000002020534554204E4F3320542E48002D2C
:104160003E534554204E483420542E48002D3E5393
:10417000455420535320542E4800202053455420AA
:10418000504820542E48002020534554205353209B
:10419000542E48002D3E53455420504820542E485C
:1041A000002D3E53455420434F4420542E480020B8
:1041B0002053455420544D5020542E480020205365
:1041C000455420434F4420542E48002D3E5345541F
:1041D00020544D5020542E48002A2A2A2A4D4F445C
:1041E000452A2A2A2A002053455420544852455330
:1041F000484F4C442000352E2041444A555354200A
:1042000054494D4500342E2053454520414C4152E0
:104210004D00332E205345542041444300322E207C
:104220005345542054482E484F4C4400312E2044CE
:104230004953504C41592054494D45002A2A2A2AB5
:104240002A2A2A2A2A2A2A2A2A2A002A2A2A2A2002
:104250004D454E55202A2A2A2A0020004445430075
:104260004E4F56004F4354005345500041554700B0
:104270004A554C004A554E004D415900415052009C
:104280004D415200464542004A414E003A004552D7
:104290005200534154004652490054485500574576
:0E42A0004400545545004D4F4E0053554E00FE
:0242AE00D9CF66
:1042B000E6FFE1CFD9FF020EE126FE0EDB500F0B29
:1042C000DF6EFE0EDB380F0B0A0D010EF3CFDBFFA6
:1042D000DB50DF24106E020EE15C02E2E16AE5527F
:1042E000E16E1050E552E7CFD9FF1200D9CFE6FFBB
:1042F000E1CFD9FF020EE1260A0E106E0E6EFE0E01
:10430000DBCF09F0ABEC25F00550DF6E0A0E106E26
:104310000E6EFE0EDBCF09F0ABEC25F00950100D50
:10432000010EF3CFDBFFDB50DF24106E020EE15CE9
:1043300002E2E16AE552E16E1050E552E7CFD9FFA3
:104340001200949694981200D9CFE6FFE1CFD9FFDE
:10435000E652DF6AFE0EDB50DF5C02E2DF2AFAD7AC
:10436000E552E552E7CFD9FF120082A8000C010CFC
:104370000101FF5102E08288828682988296010EB6
:10438000FF6F12008298828682880101FF6B120003
:10439000D9CFE6FFE1CFD9FF020EE126DF6ADFCFFA
:1043A00010F0080EE76E1018E8AE02D0E73402D025
:1043B000E750105C0FE2FE0EDBBE02D0829801D007
:1043C000828882868296DB50020DFE0EF3CFDBFFE1
:1043D000DF2AE5D794888286C8DFE76E010EE7CF33
:1043E000DBFF82969498DB50106E020EE15C02E2D5
:1043F000E16AE552E16E1050E552E7CFD9FF1200B5
:10440000D9CFE6FFE1CFD9FF020EE126DF6A94881B
:10441000010EDB6ADBCF10F0080EE76E1018E8AE75
:1044200002D0E73402D0E750105C0BE282869DDFB9
:10443000106EDF50E8241010DF6E8296010EDB2A2A
:10444000E9D79498FE0EDB5002E0828801D0829872
:1044500082868296DF50106E020EE15C02E2E16A13
:10446000E552E16E1050E552E7CFD9FF1200D9CFE7
:10447000E6FFE1CFD9FF7CDFD00EE66E89DFE552A3
:10448000FE0EDBCFE6FF84DFE552FD0EDBCFE6FF5D
:104490002DDFE552E66E7CDFE55274DFE552E7CFB3
:1044A000D9FF1200D9CFE6FFE1CFD9FFE65260DF96
:1044B000D00EE66E6DDFE552FE0EDBCFE6FF68DF65
:1044C000E55256DFD10EE66E63DFE552010EE66E71
:1044D00097DFE552DF6EDFCFE6FFE9DEE552DF6E04
:0E44E00051DFDF50E552E552E7CFD9FF120061
:0244EE00F28E4C
:1044F000D08EF28C1200F19CF292F2881200D8CF8A
:10450000E4FFE0CFE4FFE46EDACFE4FFE2CFDAFFCE
:10451000E9CFE4FFEACFE4FFF6CFE4FFF7CFE4FF13
:10452000F5CFE4FFF3CFE4FFF4CFE4FFFACFE4FFED
:1045300000EE00F0100EE80403E3EECFE4FFFBD73B
:1045400000EE10F0100EE80403E3EECFE4FFFBD71B
:10455000E652F2A407D080EC19F0F29482EC19F044
:104560002CEC1BF09EA007D06BEC1AF09E9025EC73
:104570001AF03AEC1BF0A1A207D02AEC1BF0A19292
:10458000E4EC1AF056EC1BF0F2B2F2929EAA03D0C1
:104590009E9AF7EC18F0E55200EE1FF0100EE804BA
:1045A00003E3E5CFEDFFFBD700EE0FF0100EE804BC
:1045B00003E3E5CFEDFFFBD7E5CFFAFFE5CFF4FF4F
:1045C000E5CFF3FFE5CFF5FFE5CFF7FFE5CFF6FF4A
:1045D000E5CFEAFFE5CFE9FFE5CFDAFFE550E5CF2C
:1045E000E0FFE5CFD8FF1000DACFE4FFE2CFDAFF3B
:1045F000E9CFE4FFEACFE4FFF6CFE4FFF7CFE4FF33
:10460000F5CFE4FFF3CFE4FFF4CFE4FFFACFE4FF0C
:1046100000EE00F0100EE80403E3EECFE4FFFBD75A
:1046200000EE10F0100EE80403E3EECFE4FFFBD73A
:10463000E652F2A407D080EC19F0F29482EC19F063
:104640002CEC1BF09EA007D06BEC1AF09E9025EC92
:104650001AF03AEC1BF0A1A207D02AEC1BF0A192B1
:10466000E4EC1AF056EC1BF0F2B2F2929EAA03D0E0
:104670009E9AF7EC18F0E55200EE1FF0100EE804D9
:1046800003E3E5CFEDFFFBD700EE0FF0100EE804DB
:1046900003E3E5CFEDFFFBD7E5CFFAFFE5CFF4FF6E
:1046A000E5CFF3FFE5CFF5FFE5CFF7FFE5CFF6FF69
:0E46B000E5CFEAFFE5CFE9FFE5CFDAFF110025
:0246BE00006A90
:1046C0000EAE65EF23F00E6C001E09AE6AEF23F00C
:1046D000096C001EABEC25F009BE74EF23F000AEB0
:1046E000000C096C056C000C00BE71EF23F0018812
:1046F000FF0C006A0EAE82EF23F00D6C0E1EE86A0E
:104700000E22001E09AE8AEF23F0086C091EE86A2B
:104710000922001E77EC25F009BE9AEF23F000AEC7
:10472000000C086C091EE86A0922046C051EE86A80
:104730000522000C00BE91EF23F00188FF0C006AF7
:104740000EAEAAEF23F00C6C0D1E0E1EE86A0D22B1
:104750000E22001E09AEB4EF23F0076C081E091EDE
:10476000E86A08220922001E5AEC25F009BEC7EFAC
:1047700023F000AE000C076C081E091EE86A082230
:104780000922036C041E051E04220522000C00BE33
:10479000BBEF23F00188FF0C006AE86A0EAED9EF88
:1047A00023F00B6C0C1E0D1E0E1E0C220D220E2271
:1047B000001E09AEE4EF23F0066C071E081E091E5A
:1047C000072208220922001E36EC25F009BEFBEF65
:1047D00023F000AE000C066C071E081E091EE86AD6
:1047E000072208220922026C031E041E051E032252
:1047F00004220522000C00BEEBEF23F00188FF0C21
:10480000F8C1E6FFE66A37EC22F0E552E552F9C15D
:10481000E6FF010EE66E37EC22F0E552E552FAC1F2
:10482000E6FF020EE66E37EC22F0E552E552FBC1E0
:10483000E6FF030EE66E37EC22F0E552E552FCC1CE
:10484000E6FF040EE66E37EC22F0E552E552FDC1BC
:10485000E6FF050EE66E37EC22F0E552E552FEC1AA
:10486000E6FF060EE66E37EC22F0E552E552120046
:10487000E66A52EC22F0E5520101F86F010EE66E95
:1048800052EC22F0E5520101F96F020EE66E52EC95
:1048900022F0E5520101FA6F030EE66E52EC22F0AF
:1048A000E5520101FB6F040EE66E52EC22F0E55278
:1048B0000101FC6F050EE66E52EC22F0E55201019B
:1048C000FD6F060EE66E52EC22F0E5520101FE6F1E
:0248D0001200D4
:0E48D2001E0EF66E000EF76E000EF86E01015F
:1048E0000900F550F36F0900F550F46F03E1F36729
:1048F00001D03DD00900F550EE6F0900F550EF6F83
:104900000900F550F06F09000900F550E96E090043
:10491000F550EA6E090009000900F550F16F090031
:10492000F550F26F09000900F6CFF5F1F7CFF6F177
:10493000F8CFF7F1EEC1F6FFEFC1F7FFF0C1F8FFD6
:104940000101F15302E1F25307E00900F550EE6E68
:10495000F107F8E2F207F9D7F5C1F6FFF6C1F7FF64
:10496000F7C1F8FF0101F307000EF45BBFD7120097
:104970000F0E926E0B0EC16E040EC06E1200D9CFD8
:10498000E6FFE1CFD9FF020EE126FE0EDB50040D5B
:10499000F350C26EC280C282C2B2FED7C450DE6E75
:1049A000DD6ADECF12F0DDCF13F0D8901236133669
:1049B000D89012361336060EC3CFE7FF070B04E07C
:1049C000E742E79EE806FCE1E7501224106E000E75
:1049D000132010C0DEFFDD6EDECF10F0DDCF11F052
:1049E00010C0F3FF11C0F4FF020EE15C02E2E16AC5
:0C49F000E552E16EE552E7CFD9FF12005E
:0449FC0006500B0254
:104A0000F3CF02F0F4CF03F00C02F3500326000EB4
:104A1000F420046E06500D02F3500426000EF4201C
:104A2000056E06500E02F350052607500B02F35098
:104A30000326F4500422000E052207500C02F35006
:104A40000426F450052207500D02F35005260850A5
:104A50000B02F3500426F450052208500C02F350C8
:0C4A6000052609500B02F3500526120039
:044A6C00056A046A69
:104A7000036A026A200EE76ED890063607360836BB
:104A8000093602360336043605360B50025C0C50EC
:104A900003580D5004580E50055809E30B50025EA0
:104AA0000C50035A0D50045A0E50055A062AE72E90
:044AB000E4D7120035
:0C4AB400056A046A036A180EE76ED890C9
:104AC0000736083609360336043605360C50035CC3
:104AD0000D5004580E50055807E30C50035E0D505E
:0E4AE000045A0E50055A072AE72EEAD7120094
:024AEE00056A57
:104AF000046A100EE76ED89008360936043605367B
:104B00000D50045C0E50055805E30D50045E0E5028
:0A4B1000055A082AE72EF0D712001C
:064B1A00800EF36E00EEB8
:104B200000F00F0E01D81200EA6002D0EE6AFCD746
:0A4B3000F350E9601200EE6AFCD7B2
:064B3A001EEE00F02EEE5D
:104B400000F0F86A019C69EC24F003EC00F0EFEC53
:064B500012F0FBD7120079
:0A4B5600056A080EE76ED8900936D4
:104B600005360E50055C02E3056E092AE72EF7D7DD
:024B7000120031
:0E4B7200000000000000000000000000000035
:104B80000000000000000000000001000100010022
:024B9000010022
:0E4B9200010204081020408000000000000016
:024BA000000013
:0E4BA2000000000000000000101010101010A5
:104BB000101018181818181818181C1C1C1C1C1C6D
:104BC0001C1C1E1E1E1E1E1E1E1E1F1F1F1F1F1F03
:104BD0001F1F000000000000000000000000000097
:104BE00000000000000000000000000000000000C5
:104BF00000000000000000000000000000000000B5
:034C0000000000B1
:0D4C030000000000000000000000000000A4
:104C1000001F001C001F001E001F001E001F001FA1
:104C2000001E001F001E001F009001000000000079
:104C300000E803D0070000C40900008813FF03E860
:104C400003E8031027204E88131027A08C200300B0
:0B4C5000000000E803D0070000000097
:054C5B001E0211050C12
:024C60000C1630
:0E4C6200000000000000000000000000000044
:104C70000000000000000000000000000000000034
:0A4C8000000010204080010204082B
:020000040030CA
:0100010002FC
:0100020003FA
:010003001EDE
:010005008179
:010006008178
:010008000FE8
:01000900C036
:01000A000FE6
:01000B00E014
:01000C000FE4
:01000D0040B2
:00000001FF
