:020000040000FA
:0600000057EF29F0120089
:020006001200E6
:06000800AEEF26F012002D
:02000E000000F0
:020010000000EE
:0600180039EF26F0120092
:02001E000800D8
:100020000E540000BE01000028000000075400002C
:10003000200200000700000089530000800000003B
:100040007E000000214A0000FE00000001000000C8
:100050000E000000270200000400000028530000EA
:10006000000F00006100000018530000610F000045
:1000700010000000F8520000000200002000000004
:1000800002012351070A24E0010A1EE0030A18E0D6
:10009000010A12E0070A0CE0010A06E0030A1CE16B
:1000A0001D0EE66E4A0E1BD0190EE66E4A0E17D0D4
:1000B000150EE66E4A0E13D0110EE66E4A0E0FD0E4
:1000C0000D0EE66E4A0E0BD0090EE66E4A0E07D0F4
:1000D000050EE66E4A0E03D0010EE66E4A0EE66E7F
:1000E000E66AE66A11EC12F0E552E552E552E55295
:1000F0000A0E146E0E6E22C209F019EC27F009C028
:1001000010F0116A126A136A10AE03D011681268F7
:10011000136810C0E6FF11C0E6FF12C0E6FF13C06F
:10012000E6FF040EE66EE66AEAEC10F0156E060EC7
:10013000E15E155022C209F00A0E0E6E19EC27F08E
:1001400005C010F0116A126A136A10AE03D011686C
:100150001268136810C0E6FF11C0E6FF12C0E6FF88
:1001600013C0E6FF050EE66EE66AEAEC10F0146EC8
:10017000060EE15E1450FF0EE66E490EE66E060EA8
:10018000E66EE66A11EC12F0E552E552E552E552F0
:100190000A0E146E0E6E21C209F019EC27F009C088
:1001A00010F0116A126A136A10AE03D01168126857
:1001B000136810C0E6FF11C0E6FF12C0E6FF13C0CF
:1001C000E6FF070EE66EE66AEAEC10F0156E060E24
:1001D000E15E155021C209F00A0E0E6E19EC27F0EF
:1001E00005C010F0116A126A136A10AE03D01168CC
:1001F0001268136810C0E6FF11C0E6FF12C0E6FFE8
:1002000013C0E6FF080EE66EE66AEAEC10F0146E24
:10021000060EE15E1450FF0EE66E490EE66E090E04
:10022000E66EE66A11EC12F0E552E552E552E5524F
:100230000A0E146E0E6E20C209F019EC27F009C0E8
:1002400010F0116A126A136A10AE03D011681268B6
:10025000136810C0E6FF11C0E6FF12C0E6FF13C02E
:10026000E6FF0A0EE66EE66AEAEC10F0156E060E80
:10027000E15E155020C209F00A0E0E6E19EC27F04F
:1002800005C010F0116A126A136A10AE03D011682B
:100290001268136810C0E6FF11C0E6FF12C0E6FF47
:1002A00013C0E6FF0B0EE66EE66AEAEC10F0146E81
:1002B000060EE15E1450020125510C0A42E0070AC5
:1002C0003CE0010A36E0030A30E0010A2AE00F0AA6
:1002D00024E0010A1EE0030A18E0010A12E0070AFE
:1002E0000CE0010A06E0030A30E1FB0EE66E490E5F
:1002F0002FD0F70EE66E490E2BD0F30EE66E490EA8
:1003000027D0EF0EE66E490E23D0EB0EE66E490EB7
:100310001FD0E70EE66E490E1BD0E30EE66E490EC7
:1003200017D0DF0EE66E490E13D0DB0EE66E490ED7
:100330000FD0D70EE66E490E0BD0D30EE66E490EE7
:1003400007D0CF0EE66E490E03D0010EE66E4A0EC0
:10035000E66E020EE66E010EE66E11EC12F0E5524C
:10036000E552E552E552CD0EE66E490EE66E050EFB
:10037000E66E010EE66E11EC12F0E552E552E55222
:10038000E5520A0E146E0E6E24C209F019EC27F025
:1003900009C010F0116A126A136A10AE03D0116816
:1003A0001268136810C0E6FF11C0E6FF12C0E6FF36
:1003B00013C0E6FF060EE66E010EE66EEAEC10F0E4
:1003C000156E060EE15E155024C209F00A0E0E6E7F
:1003D00019EC27F005C010F0116A126A136A10AE0A
:1003E00003D011681268136810C0E6FF11C0E6FF61
:1003F00012C0E6FF13C0E6FF070EE66E010EE66EC2
:10040000EAEC10F0146E060EE15E1450CD0EE66EAE
:10041000490EE66E080EE66E010EE66E11EC12F065
:10042000E552E552E552E552140EE66EE66AE66ADA
:10043000E66A090EE66E010EE66EEAEC10F0106E4A
:10044000060EE15E10500A0E146E0E6E26C209F002
:1004500019EC27F009C010F0116A126A136A10AE85
:1004600003D011681268136810C0E6FF11C0E6FFE0
:1004700012C0E6FF13C0E6FF0B0EE66E010EE66E3D
:10048000EAEC10F0156E060EE15E155026C209F07A
:100490000A0E0E6E19EC27F005C010F0116A126AF0
:1004A000136A10AE03D011681268136810C0E6FF1B
:1004B00011C0E6FF12C0E6FF13C0E6FF0C0EE66EA9
:1004C000010EE66EEAEC10F0146E060EE15E1450BA
:1004D00012009CEC0FF0060E0001841901E1855119
:1004E00001E17FD0050E841901E185516AE0040E17
:1004F000841901E1855155E0030E841901E185510C
:1005000040E0020E841901E185512BE0010E8419AF
:1005100001E1855116E0845101E07DD0855101E073
:100520007AD0BE0EE66E490EE66EE66AE66A11EC19
:1005300012F0E552E552E552E552AF0EE66E490E75
:100540005FD09E0EE66E490EE66EE66AE66A11EC34
:1005500012F0E552E552E552E5528F0EE66E490E75
:100560004FD07F0EE66E490EE66EE66AE66A11EC43
:1005700012F0E552E552E552E5526E0EE66E490E76
:100580003FD05E0EE66E490EE66EE66AE66A11EC54
:1005900012F0E552E552E552E552540EE66E490E70
:1005A0002FD0450EE66E490EE66EE66AE66A11EC5D
:1005B00012F0E552E552E552E552350EE66E490E6F
:1005C0001FD0250EE66E490EE66EE66AE66A11EC6D
:1005D00012F0E552E552E552E552150EE66E490E6F
:1005E0000FD0050EE66E490EE66EE66AE66A11EC7D
:1005F00012F0E552E552E552E552F50EE66E480E70
:10060000E66EE66A010EE66E11EC12F0E552E55276
:10061000E552E5521200846B856B12009CEC0FF0E2
:10062000070E0001841901E1855101E199D0060E00
:10063000841901E1855101E17FD0050E841901E1A2
:1006400085516AE0040E841901E1855155E0030EDD
:10065000841901E1855140E0020E841901E18551C0
:100660002BE0010E841901E1855116E0845101E06F
:1006700084D0855101E081D0E40EE66E480EE66E2E
:10068000E66AE66A11EC12F0E552E552E552E552EF
:10069000D30EE66E480E5FD0C20EE66E480EE66ED2
:1006A000E66AE66A11EC12F0E552E552E552E552CF
:1006B000B10EE66E480E4FD0A00EE66E480EE66E06
:1006C000E66AE66A11EC12F0E552E552E552E552AF
:1006D0008F0EE66E480E3FD07E0EE66E480EE66E3A
:1006E000E66AE66A11EC12F0E552E552E552E5528F
:1006F0006D0EE66E480E2FD05C0EE66E480EE66E6E
:10070000E66AE66A11EC12F0E552E552E552E5526E
:100710004B0EE66E480E1FD03A0EE66E480EE66EA1
:10072000E66AE66A11EC12F0E552E552E552E5524E
:10073000290EE66E480E0FD0180EE66E480EE66ED5
:10074000E66AE66A11EC12F0E552E552E552E5522E
:10075000070EE66E480EE66EE66A010EE66E06D0FD
:10076000F60EE66E470EE66EE66AE66A11EC12F0E9
:10077000E552E552E552E5521200846B856B12009A
:100780009CEC0FF0070E0001841901E1855101E195
:1007900099D0060E841901E1855101E17FD0050E43
:1007A000841901E185516AE0040E841901E1855143
:1007B00055E0030E841901E1855140E0020E8419D1
:1007C00001E185512BE0010E841901E1855116E00C
:1007D000845101E084D0855101E081D0E50EE66EC0
:1007E000470EE66EE66AE66A11EC12F0E552E55253
:1007F000E552E552D40EE66E470E5FD0C30EE66EAC
:10080000470EE66EE66AE66A11EC12F0E552E55232
:10081000E552E552B20EE66E470E4FD0A10EE66EDF
:10082000470EE66EE66AE66A11EC12F0E552E55212
:10083000E552E552900EE66E470E3FD07F0EE66E13
:10084000470EE66EE66AE66A11EC12F0E552E552F2
:10085000E552E5526E0EE66E470E2FD05D0EE66E47
:10086000470EE66EE66AE66A11EC12F0E552E552D2
:10087000E552E5524C0EE66E470E1FD03B0EE66E7B
:10088000470EE66EE66AE66A11EC12F0E552E552B2
:10089000E552E5522A0EE66E470E0FD0190EE66EAF
:1008A000470EE66EE66AE66A11EC12F0E552E55292
:1008B000E552E552080EE66E470EE66EE66A010E58
:1008C000E66E06D0F70EE66E460EE66EE66AE66A5D
:1008D00011EC12F0E552E552E552E5521200846B3C
:1008E000856B12009CEC0FF0EF0EE66E460EE66E86
:1008F000E66AE66A11EC12F0E552E552E552E5527D
:1009000082C010F083C011F0126A136A11AE02D0D7
:100910001268136810C0E6FF11C0E6FF12C0E6FFC0
:1009200013C0E6FF070EE66EE66AEAEC10F0146EFE
:10093000060EE15E1450E70EE66E460EE66EE66ABF
:10094000010EE66E11EC12F0E552E552E552E55269
:1009500012009CEC0FF0010106510001D45D010171
:1009600007510001D55927E2E10EE66E460EE66E0C
:10097000E66AE66A11EC12F0E552E552E552E552FC
:1009800006C110F007C111F0126A136A06C1E6FF32
:1009900007C1E6FF12C0E6FF13C0E6FF060EE66ED3
:1009A000E66A3CEC12F0146E060EE15E1450D90EAD
:1009B000E66E460E1FD101010A510001D65D01010C
:1009C0000B510001D75927E2D20EE66E460EE66EB5
:1009D000E66AE66A11EC12F0E552E552E552E5529C
:1009E0000AC110F00BC111F0126A136A0AC1E6FFC6
:1009F0000BC1E6FF12C0E6FF13C0E6FF060EE66E6F
:100A0000E66A3CEC12F0146E060EE15E1450C90E5C
:100A1000E66E460EEFD0010108510001D85D0101DC
:100A200009510001D95927E2C30EE66E460EE66E63
:100A3000E66AE66A11EC12F0E552E552E552E5523B
:100A400008C110F009C111F0126A136A08C1E6FF6B
:100A500009C1E6FF12C0E6FF13C0E6FF060EE66E10
:100A6000E66A3CEC12F0146E060EE15E1450BB0E0A
:100A7000E66E460EBFD001010C510001DA5D0101A6
:100A80000D510001DB5927E2B40EE66E460EE66E0C
:100A9000E66AE66A11EC12F0E552E552E552E552DB
:100AA0000CC110F00DC111F0126A136A0CC1E6FFFF
:100AB0000DC1E6FF12C0E6FF13C0E6FF060EE66EAC
:100AC000E66A3CEC12F0146E060EE15E1450AB0EBA
:100AD000E66E460E8FD001010E510001DC5D010172
:100AE0000F510001DD5927E2A40EE66E460EE66EB8
:100AF000E66AE66A11EC12F0E552E552E552E5527B
:100B00000EC110F00FC111F0126A136A0EC1E6FF98
:100B10000FC1E6FF12C0E6FF13C0E6FF060EE66E49
:100B2000E66A3CEC12F0146E060EE15E14509B0E69
:100B3000E66E460E5FD0010110510001DE5D01013D
:100B400011510001DF5927E2940EE66E460EE66E63
:100B5000E66AE66A11EC12F0E552E552E552E5521A
:100B600010C110F011C111F0126A136A10C1E6FF32
:100B700011C1E6FF12C0E6FF13C0E6FF060EE66EE7
:100B8000E66A3CEC12F0146E060EE15E14508B0E19
:100B9000E66E460E2FD0010112510001E05D010109
:100BA00013510001E1592BE2C30EE66E460EE66ECC
:100BB000E66AE66A11EC12F0E552E552E552E552BA
:100BC00012C110F013C111F0126A136A12C1E6FFCC
:100BD00013C1E6FF12C0E6FF13C0E6FF060EE66E85
:100BE000E66A3CEC12F0146E060EE15E1450810EC3
:100BF000E66E460EE66EE66A010EE66E06D0720EF0
:100C0000E66E460EE66EE66AE66A11EC12F0E55212
:100C1000E552E552E55212000101050EBE5D000EDF
:100C2000BF5923E3BEC110F0116A010E101610184F
:100C30001CE111501AE102012229226F170EE76E02
:100C40002219E8AE02D0223503D0E750D8802255D1
:100C500001E2226B22C2E6FF020EE66EF1EC25F005
:100C6000E552E5520101BE6BBF6B050EC05D000E83
:100C7000C1591CE3C0C110F00001116A010E101629
:100C8000101814E1115012E102012205226FE8341C
:100C900002E3170E226F22C2E6FF020EE66EF1ECAF
:100CA00025F0E552E5520101C06BC16B1200010154
:100CB000050EBE5D000EBF5923E3BEC110F0116AE0
:100CC000010E101610181CE111501AE10201212921
:100CD000216F3B0EE76E2119E8AE02D0213503D01B
:100CE000E750D880215501E2216B21C2E6FF010EB9
:100CF000E66EF1EC25F0E552E5520101BE6BBF6BEB
:100D0000050EC05D000EC1591CE3C0C110F000010A
:100D1000116A010E1016101814E1115012E10201AF
:100D20002105216FE83402E33B0E216F21C2E6FF6B
:100D3000010EE66EF1EC25F0E552E5520101C06BC3
:100D4000C16B12000101050EBE5D000EBF5924E308
:100D5000BEC110F0116A010E101610181DE11150DD
:100D60001BE102012329236F070EE76E2319E8AE6A
:100D700002D0233503D0E750D880235502E2010E7C
:100D8000236F23C2E6FF030EE66EF1EC25F0E55279
:100D9000E5520101BE6BBF6B050EC05D000EC1596F
:100DA00024E3C0C110F00001116A010E10161018E2
:100DB0001CE111501AE102012305236F010EE76EB9
:100DC0002319E8AE02D0E73402D0E750235D02E2F7
:100DD000070E236F23C2E6FF030EE66EF1EC25F04B
:100DE000E552E5520101C06BC16B12000101050E15
:100DF000BE5D000EBF5924E3BEC110F0116A010EA2
:100E0000101610181DE111501BE102012429246F56
:100E10001F0EE76E2419E8AE02D0243503D0E75048
:100E2000D880245502E2010E246F24C2E6FF040E8E
:100E3000E66EF1EC25F0E552E5520101BE6BBF6BA9
:100E4000050EC05D000EC15924E3C0C110F00001C1
:100E5000116A010E101610181CE111501AE102015E
:100E60002405246F010EE76E2419E8AE02D0E734A2
:100E700002D0E750245D02E21F0E246F24C2E6FF79
:100E8000040EE66EF1EC25F0E552E5520101C06B6F
:100E9000C16B12000101050EBE5D000EBF5924E3B7
:100EA000BEC110F0116A010E101610181DE111508C
:100EB0001BE102012529256F0C0EE76E2519E8AE0E
:100EC00002D0253503D0E750D880255502E2010E27
:100ED000256F25C2E6FF050EE66EF1EC25F0E55222
:100EE000E5520101BE6BBF6B050EC05D000EC1591E
:100EF00024E3C0C110F00001116A010E1016101891
:100F00001CE111501AE102012505256F010EE76E63
:100F10002519E8AE02D0E73402D0E750255D02E2A1
:100F20000C0E256F25C2E6FF050EE66EF1EC25F0EE
:100F3000E552E5520101C06BC16B12000101050EC3
:100F4000BE5D000EBF5923E3BEC110F0116A010E51
:100F5000101610181CE111501AE102012629266F03
:100F6000630EE76E2619E8AE02D0263503D0E750AF
:100F7000D880265501E2266B26C2E6FF060EE66EF5
:100F8000F1EC25F0E552E5520101BE6BBF6B050E99
:100F9000C05D000EC1591CE3C0C110F00001116A10
:100FA000010E1016101814E1115012E1020126056D
:100FB000266FE83402E3630E266F26C2E6FF060EB4
:100FC000E66EF1EC25F0E552E5520101C06BC16B14
:100FD00012009CEC0FF0F2EC27F0010E0001AE25A0
:100FE000AE6F000EAF21AF6F0A0E0D6E0E6AAEC06F
:100FF00008F0AFC009F033EC27F004C0AEF005C034
:10100000AFF0110E0001861901E1875101E149D1CC
:101010000F0E861901E1875101E10AD1100E8619E0
:1010200001E1875101E1C9D00D0E861901E1875117
:1010300001E189D00C0E861901E187514AE00E0EBC
:10104000861901E187510CE0865101E1875101E0E9
:10105000120040EC00F00E0E0001866F876B12004C
:1010600071DE40EC00F0050E0001AFAF02D0D89069
:1010700003D0AE5D000EAF5910E273EC29F0000909
:101080000CE06E0EE66E460EE66EE66AE66A11EC5F
:1010900012F0E552E552E552E5520101050EC65D3A
:1010A000000EC75901E236D1C6C110F0C7C111F018
:1010B0000001116A010E101610180AE1115001E02A
:1010C00029D10C0E0001866F876B0101C66BC76BBF
:1010D0001200A2DD40EC00F0050E0001AFAF02D01F
:1010E000D89003D0AE5D000EAF5911E273EC29F039
:1010F00000090DE06B0EE66E460EE66E040EE66E1F
:10110000E66A11EC12F0E552E552E552E5520101B2
:10111000050EC65D000EC75901E2FCD0C6C110F035
:10112000C7C111F00001116A010E101610180AE172
:10113000115001E0EFD00D0E0001866F876B0101A9
:10114000C66BC76B1200B3DD40EC00F0050E00016A
:10115000AFAF02D0D89003D0AE5D000EAF5911E210
:1011600073EC29F000090DE06B0EE66E460EE66E9C
:10117000070EE66EE66A11EC12F0E552E552E55212
:10118000E5520101050EC65D000EC75901E2C2D04D
:10119000C6C110F0C7C111F00001116A010E10168E
:1011A00010180AE1115001E0B5D0100E0001866F51
:1011B000876B0101C66BC76B12006CDE40EC00F060
:1011C000050E0001AFAF02D0D89003D0AE5D000E87
:1011D000AF5912E273EC29F000090EE06E0EE66ED4
:1011E000460EE66E020EE66E010EE66E11EC12F091
:1011F000E552E552E552E5520101050EC65D000ECD
:10120000C75901E287D0C6C110F0C7C111F0000173
:10121000116A010E101610180AE1115001E07AD07F
:101220000F0E0001866F876B0101C66BC76B120042
:10123000DDDD40EC00F0050E0001AFAF02D0D8902C
:1012400003D0AE5D000EAF5912E273EC29F0000935
:101250000EE06B0EE66E460EE66E060EE66E010EB4
:10126000E66E11EC12F0E552E552E552E55201014D
:10127000050EC65D000EC7594DE3C6C110F0C7C1CB
:1012800011F00001116A010E1016101809E1115039
:1012900041E1110E0001866F876B0101C66BC76BC0
:1012A00012004CDE40EC00F0050E0001AFAF02D0A2
:1012B000D89003D0AE5D000EAF5912E273EC29F066
:1012C00000090EE06B0EE66E460EE66E0B0EE66E45
:1012D000010EE66E11EC12F0E552E552E552E552D0
:1012E0000101050EC65D000EC75914E3C6C110F01A
:1012F000C7C111F00001116A010E1016101809E1A2
:10130000115008E10E0E0001866F876B0101C66B5C
:10131000C76B120012009CEC0FF0010E0001AE250D
:10132000AE6F000EAF21AF6F0A0E0D6E0E6AAEC02B
:1013300008F0AFC009F033EC27F004C0AEF005C0F0
:10134000AFF00A0E146E0E6E00C109F019EC27F012
:1013500009C010F0116A126A136A10AE03D0116846
:101360001268136810C0E6FF11C0E6FF12C0E6FF66
:1013700013C0E6FF050EE66EE66AEAEC10F0156EA5
:10138000060EE15E155000C109F00A0E0E6E19EC52
:1013900027F005C010F0116A126A136A10AE03D06C
:1013A00011681268136810C0E6FF11C0E6FF12C092
:1013B000E6FF13C0E6FF060EE66EE66AEAEC10F002
:1013C000146E060EE15E1450050E0001AFAF02D0A0
:1013D000D89003D0AE5D000EAF5922E273EC29F035
:1013E00000091EE00001885189111AE1690EE66EBC
:1013F000460EE66E050EE66EE66A11EC12F0E55258
:10140000E552E552E552690EE66E460EE66E060EB0
:10141000E66EE66A11EC12F0E552E552E552E5524D
:10142000FF0EE66E490EE66E070EE66EE66A11ECFA
:1014300012F0E552E552E552E5520A0E146E0E6EB8
:1014400001C109F019EC27F009C010F0116A126A05
:10145000136A10AE03D011681268136810C0E6FF5B
:1014600011C0E6FF12C0E6FF13C0E6FF080EE66EED
:10147000E66AEAEC10F0156E060EE15E155001C149
:1014800009F00A0E0E6E19EC27F005C010F0116A73
:10149000126A136A10AE03D011681268136810C084
:1014A000E6FF11C0E6FF12C0E6FF13C0E6FF090E1B
:1014B000E66EE66AEAEC10F0146E060EE15E145079
:1014C000050E0001AFAF02D0D89003D0AE5D000E84
:1014D000AF5924E273EC29F0000920E00001010E6D
:1014E00088191CE189511AE1690EE66E460EE66E16
:1014F000080EE66EE66A11EC12F0E552E552E5528E
:10150000E552690EE66E460EE66E090EE66EE66A76
:1015100011EC12F0E552E552E552E55212000101DC
:10152000050EBE5D000EBF5920E3BEC110F0116A6A
:10153000010E1016101819E1115017E1010E0001EB
:101540008825886F000E8921896F020E0D6E0E6A44
:1015500088C008F089C009F033EC27F004C088F097
:1015600005C089F00101BE6BBF6B050EC85D000EA2
:10157000C9592BE3C8C110F00001116A010E101601
:10158000101823E1115021E10001885189110AE16D
:1015900001010029106E096E180E0E6E19EC27F06D
:1015A00005C000F10001010E88190CE189510AE122
:1015B00001010129106E096E3C0E0E6E19EC27F028
:1015C00005C001F10101C86BC96B0101050ECA5DBF
:1015D000000ECB5925E3CAC110F00001116A010EBB
:1015E000101610181DE111501BE1000188518911DE
:1015F00002E1010100070001010E881904E189518F
:1016000002E1010101070101003502E3170E006F3D
:101610000101013502E33B0E016F0101CA6BCB6B87
:101620000101050EC05D000EC15914E3C0C110F0E8
:101630000001116A010E101610180CE111500AE198
:10164000010E0001806F816B0001906F916B0101B1
:08165000C06BC16B8BEF09F0C8
:08165800D9CFE6FFE1CFD9FF75
:10166000040EE126DE6ADD6ADECF10F0DDCF11F078
:10167000126A136A11AE02D012681368D950FB0FB8
:10168000E96EFF0EDA20EA6EEE50105CEE50115853
:10169000EE501258EE5013581DE2020EDB6A030E94
:1016A000DB6A020EDBCF10F0030EDBCF11F0D89017
:1016B000115004E6050E105C000E115806E2020EF1
:1016C000DB2A030EEEE3DB2AECD7DF2A010ECCE3A4
:1016D000DB2ACAD7040EE15C02E2E16AE552E16E60
:1016E000E552E7CFD9FF1200D9CFE6FFE1CFD9FF0E
:1016F000040EE126DE6ADD6ADECF10F0DDCF11F0E8
:10170000126A136A11AE02D012681368D950FB0F27
:10171000E96EFF0EDA20EA6EEE50105CEE501158C2
:10172000EE501258EE5013581DE2020EDB6A030E03
:10173000DB6A020EDBCF10F0030EDBCF11F0D89086
:10174000115004E6EE0E105C000E115806E2020E77
:10175000DB2A030EEEE3DB2AECD7DF2A010ECCE313
:10176000DB2ACAD7040EE15C02E2E16AE552E16ECF
:10177000E552E7CFD9FF1200D9CFE6FFE1CFD9FF7D
:101780000F0E8116FE0EDB50F00B81128186010ECA
:10179000E66EE66AE66AE66AA7DFE552E552E552DA
:1017A000E5528196010EE66EE66AE66AE66A9CDF1D
:1017B000E552E552E552E5520F0E8116FE0EDB387A
:1017C000F00B81128186010EE66EE66AE66AE66A31
:1017D0008BDFE552E552E552E5528196010EE66E49
:1017E000E66AE66AE66A80DFE552E552E552E552CE
:1017F000E552E7CFD9FF1200D9CFE6FFE1CFD9FFFD
:10180000E652190EE66EE66AE66AE66A6DDFE552B2
:10181000E552E552E5520F0E8116F80E81160F0EB5
:101820008116300E81128186010EE66EE66AE66A46
:10183000E66A5ADFE552E552E552E5528196010E1D
:10184000E66EE66AE66AE66A4FDFE552E552E55281
:10185000E5520F0E8116300E81128186010EE66E62
:10186000E66AE66AE66A40DFE552E552E552E5528D
:101870008196010EE66EE66AE66AE66A35DFE552B3
:10188000E552E552E5520F0E8116300E8112818627
:10189000010EE66EE66AE66AE66A26DFE552E55282
:1018A000E552E5528196010EE66EE66AE66AE66A60
:1018B0001BDFE552E552E552E5520F0E8116818A93
:1018C0008186010EE66EE66AE66AE66A0DDFE5529B
:1018D000E552E552E5528196010EE66EE66AE66A49
:1018E000E66A02DFE552E552E552E552280EE66E61
:1018F00043DFE5520C0EE66E3FDFE552E552E5525E
:10190000E7CFD9FF1200D9CFE6FFE1CFD9FF020E12
:10191000E126DF6A010EDB6A81940F0EE66EE66A4D
:10192000E66AE66A99DEE552E552E552E5520F0EA7
:1019300081128186E66EE66AE66AE66A8DDEE55227
:10194000E552E552E5520F0E8114E76E010EE7CF26
:10195000DBFF81960F0EE66EE66AE66AE66A7CDEDB
:10196000E552E552E552E5520F0E81128186E66E90
:10197000E66AE66AE66A70DEE552E552E552E5524D
:101980000F0E8114DF6E010EDB50DF128196010E07
:10199000E66EE66AE66AE66A5FDEE552E552E55221
:1019A000E552DF50106E020EE15C02E2E16AE552A0
:1019B000E16E1050E552E7CFD9FF1200D9CFE6FF14
:1019C000E1CFD9FFE652DF6A9EDFDF6EDFBEFCD7D4
:1019D000DF50E552E552E7CFD9FF1200D9CFE6FF3D
:1019E000E1CFD9FF0F0E8116FE0EDB5081128186EA
:1019F000050EE66EE66AE66AE66A2EDEE552E55216
:101A0000E552E5528196050EE66EE66AE66AE66AFA
:101A100023DEE552E552E552E552E552E7CFD9FF24
:101A20001200D9CFE6FFE1CFD9FF8194050EE66E13
:101A3000E66AE66AE66A10DEE552E552E552E552EC
:101A4000FE0EDBCFE6FFCADFE552FE0EDB38F00B01
:101A5000E66EC4DFE552E552E7CFD9FF1200D9CFD9
:101A6000E6FFE1CFD9FF8184050EE66EE66AE66AFD
:101A7000E66AF2DDE552E552E552E552FE0EDBCFB5
:101A8000E6FFACDFE552FE0EDB38F00BE66EA6DFBC
:101A9000E5528194E552E7CFD9FF1200D9CFE6FF96
:101AA000E1CFD9FFFE0EDBCFE6FFD9DFE552E552ED
:101AB000E7CFD9FF1200D9CFE6FFE1CFD9FFFE0E65
:101AC000DBCFE6FFCCDFE552E552E7CFD9FF1200CE
:101AD000D9CFE6FFE1CFD9FFFD0EDBCFF6FFFE0E3B
:101AE000DBCFF7FF0800F5500FE0FD0EDBCFF6FF70
:101AF000DB2AFE0EDBCFF7FF01E3DB2A0800F550FF
:101B0000E66ED9DFE552E8D7E552E7CFD9FF1200FC
:101B1000D9CFE6FFE1CFD9FFE652FD0EDB500F0B28
:101B2000106EFE0EDB50010B400DF3501024DF6EE3
:101B30007F0EDF14800FDF6EDFCFE6FF72DFE5522E
:101B4000E552E552E7CFD9FF1200010EE66E69DFDC
:101B5000E552E66AE66ADCDFE552E5521200D9CFCB
:101B6000E6FFE1CFD9FF050EE126010EF36EDB6E35
:101B7000020EDB6A030EDB6A040EDB6ADF6ADFCF6C
:101B800010F0116A10BE1168FB0EDBCF12F0FC0ED4
:101B9000DBCF13F011501318E8AE02D0133404D089
:101BA0001250105C135011582DE2FD0EDBCF10F0D7
:101BB000FE0EDBCF11F0126A136A11AE02D012686A
:101BC0001368D950010FE96EDACFEAFF10C00BF0AD
:101BD00011C00CF012C00DF013C00EF0EECF06F0E5
:101BE000EECF07F0EECF08F0EFCF09F0B8EC28F019
:101BF00005C0EDFF04C0EDFF03C0EDFF02C0EFFF25
:101C0000DF2ABDD7010EDBCF10F0020EDBCF11F0C3
:101C1000030EDBCF12F0040EDBCF13F010C006F082
:101C200011C007F012C008F013C009F0050EE15C06
:101C300002E2E16AE552E16EE552E7CFD9FF120018
:101C4000D9CFE6FFE1CFD9FF020EE126DF6AFB0E16
:101C5000DBCF10F0FC0EDBCF11F0FD0EDBCF12F06E
:101C6000FE0EDBCF13F0105011101210131005E10F
:101C7000300EE66E20DFE552F4D0D950FB0FE96E4E
:101C8000FF0EDA20EA6ED890030EEB50000A08E649
:101C9000000EEE5C000EEE58000EEE58000EEE58F0
:101CA00015E22D0EE66E07DFE552D950FB0FE96E07
:101CB000FF0EDA20EA6E000EEE6CEF1EEE22EF1E33
:101CC000EE22EF1EEF22ED52ED52ED52DE52070EE4
:101CD000DD6E010EDBCF10F0000EE76E1018E8AEDF
:101CE00002D0103403D0E750D880105401E3B9D0AB
:101CF000010EDB04146E156A14BE156814C0E6FFED
:101D000015C0E6FF0A0EE66EE66A29DFE552E552E7
:101D1000E552E55206C010F007C011F008C012F0FD
:101D200009C013F006C00BF007C00CF008C00DF09E
:101D300009C00EF0FB0EDBCF06F0FC0EDBCF07F088
:101D4000FD0EDBCF08F0FE0EDBCF09F0F0EC28F043
:101D5000065007100810091041E0010EDF6EDB0489
:101D6000186E196A18BE196818C0E6FF19C0E6FF98
:101D70000A0EE66EE66AF3DEE552E552E552E552FA
:101D800006C014F007C015F008C016F009C017F01F
:101D900006C00BF007C00CF008C00DF009C00EF033
:101DA000FB0EDBCF06F0FC0EDBCF07F0FD0EDBCF2A
:101DB00008F0FE0EDBCF09F0F0EC28F006C010F0C2
:101DC00007C011F008C012F009C013F0300E102641
:101DD000000E112212221322105003D0DF5004E013
:101DE000300EE66E68DEE552010EDB04146E156AF5
:101DF00014BE156814C0E6FF15C0E6FF0A0EE66EB5
:101E0000E66AADDEE552E552E552E55206C010F055
:101E100007C011F008C012F009C013F0D950FB0F31
:101E2000E96EFF0EDA20EA6E06C00BF007C00CF078
:101E300008C00DF009C00EF0EECF06F0EECF07F0AF
:101E4000EECF08F0EFCF09F0F0EC28F005C0EDFF81
:101E500004C0EDFF03C0EDFF02C0EFFF010EDB0683
:101E600038D7020EE15C02E2E16AE552E16EE5522A
:101E7000E7CFD9FF1200D9CFE6FFE1CFD9FFFD0EA2
:101E8000DBCFE6FFFE0EDBCFE6FF42DEE552E5529A
:101E9000D950F90FE96EFF0EDA20EA6EEECFE6FFB9
:101EA000EECFE6FFEECFE6FFEFCFE6FFC9DEE5526D
:101EB000E552E552E552E552E7CFD9FF1200D9CFFE
:101EC000E6FFE1CFD9FFFD0EDBCFE6FFFE0EDBCF55
:101ED000E6FF1EDEE552E552FB0EDBCFE6FFFC0E11
:101EE000DBCFE6FFF5DDE552E552E552E7CFD9FF5E
:101EF0001200D9CFE6FFE1CFD9FF7BCF10F07CCF26
:101F000011F0040ED89010361136E806FBE1410EB0
:101F100010260F0E112210500F017D25E96E115071
:101F20007E21EA6EFE0EDBCFEFFF7D2B000E7E23BF
:101F3000E552E7CFD9FF1200D9CFE6FFE1CFD9FFB5
:101F4000E652DF6ADFCF10F0100EE76E1018E8AE31
:101F500002D0E73402D0E750105C18E2DFCFE9FF8F
:101F6000EA6AE9BEEA68410EE9260F0EEA22200E6F
:101F7000EF6EDFCFE9FFEA6AE9BEEA68510EE926B3
:101F80000F0EEA22200EEF6EDF2ADCD7E552E55273
:101F9000E7CFD9FF1200D9CFE6FFE1CFD9FFE65254
:101FA0000F014051030A52E0010A36E0030A1AE029
:101FB000010A67E1E66AE66AABDDE552E552DF6AEF
:101FC000080EDF5C0CE2DF50EA6A410FE96E0F0E8B
:101FD000EA22EF50E66E6FDDE552DF2AF1D70F01FE
:101FE000010E32D0080EE66EE66A92DDE552E55249
:101FF000DF6A080EDF5C0DE2080EDF24EA6A410F9B
:10200000E96E0F0EEA22EF50E66E55DDE552DF2A4B
:10201000F0D70F01020E18D0E66A010EE66E78DDE9
:10202000E552E552DF6A080EDF5C0CE2DF50EA6A37
:10203000510FE96E0F0EEA22EF50E66E3CDDE552DD
:10204000DF2AF1D70F01030E406F1CD0080EE66E99
:10205000010EE66E5DDDE552E552DF6A080EDF5CDB
:102060000DE2080EDF24EA6A510FE96E0F0EEA2234
:10207000EF50E66E20DDE552DF2AF0D70F01406B0E
:1020800001D0406BE552E552E7CFD9FF1200D9CF1E
:10209000E6FFE1CFD9FFE6520F014051010A1BE0F4
:1020A000010A32E1E66AE66A33DDE552E552DF6AAB
:1020B000100EDF5C0CE2DF50EA6A410FE96E0F0E92
:1020C000EA22EF50E66EF7DCE552DF2AF1D70F0186
:1020D000010E406F1AD0E66A010EE66E19DDE55278
:1020E000E552DF6A100EDF5C0CE2DF50EA6A510F46
:1020F000E96E0F0EEA22EF50E66EDDDCE552DF2AD4
:10210000F1D70F01406B01D0406BE552E552E7CFAC
:10211000D9FF1200D9CFE6FFE1CFD9FFE652E66A38
:10212000E66AF6DCE552E552DF6A100EDF5C0CE28F
:10213000DF50EA6A410FE96E0F0EEA22EF50E66EB9
:10214000BADCE552DF2AF1D7E66A010EE66EE0DC82
:10215000E552E552DF6A100EDF5C0CE2DF50EA6AFE
:10216000510FE96E0F0EEA22EF50E66EA4DCE55245
:10217000DF2AF1D7E552E552E7CFD9FF1200D9CFD8
:10218000E6FFE1CFD9FFFE0EDB50010B0F017B6FA5
:102190007C6BFD0EDB500F0B7D6F7E6B7BCF10F0E9
:1021A0007CCF11F0040ED89010361136E806FBE112
:1021B000410E10260F0E112210500F017D25E96EE1
:1021C00011507E21EA6EFC0EDBCFEFFFE552E7CF28
:1021D000D9FF1200D9CFE6FFE1CFD9FF020EE126E9
:1021E000DF6AFE0EDB50010B0F017B6F7C6BFD0E77
:1021F000DB500F0B7D6F7E6BF90EDBCF10F0FA0E0C
:10220000DBCF11F0FB0EDBCF12F0FC0EDBCF13F0B7
:10221000105011101210131005E1300EE66E69DE39
:10222000E552F5D0D950F90FE96EFF0EDA20EA6ECB
:10223000D890030EEB50000A08E6000EEE5C000E8C
:10224000EE58000EEE58000EEE5815E22D0EE66E1A
:1022500050DEE552D950F90FE96EFF0EDA20EA6E32
:10226000000EEE6CEF1EEE22EF1EEE22EF1EEF22AE
:10227000ED52ED52ED52DE52070EDD6E010EDBCF58
:1022800010F0000EE76E1018E8AE02D0103403D044
:10229000E750D880105401E3BAD0010EDB04146E6D
:1022A000156A14BE156814C0E6FF15C0E6FF0A0ED5
:1022B000E66EE66A54DCE552E552E552E55206C0A8
:1022C00010F007C011F008C012F009C013F006C0EA
:1022D0000BF007C00CF008C00DF009C00EF0F90EAD
:1022E000DBCF06F0FA0EDBCF07F0FB0EDBCF08F0FA
:1022F000FC0EDBCF09F0F0EC28F0065007100810B8
:10230000091041E0010EDF6EDB04186E196A18BE79
:10231000196818C0E6FF19C0E6FF0A0EE66EE66A05
:102320001EDCE552E552E552E55206C014F007C046
:1023300015F008C016F009C017F006C00BF007C072
:102340000CF008C00DF009C00EF0F90EDBCF06F05E
:10235000FA0EDBCF07F0FB0EDBCF08F0FC0EDBCF75
:1023600009F0F0EC28F006C010F007C011F008C02A
:1023700012F009C013F0300E1026000E11221222A6
:102380001322105003D0DF5004E0300EE66EB1DDB2
:10239000E552010EDB04146E156A14BE156814C0F4
:1023A000E6FF15C0E6FF0A0EE66EE66AAFEC0DF03A
:1023B000E552E552E552E55206C010F007C011F0B3
:1023C00008C012F009C013F0D950F90FE96EFF0EE2
:1023D000DA20EA6E06C00BF007C00CF008C00DF062
:1023E00009C00EF0EECF06F0EECF07F0EECF08F00A
:1023F000EFCF09F0F0EC28F005C0EDFF04C0EDFFD1
:1024000003C0EDFF02C0EFFF010EDB0637D7020E5F
:10241000E15C02E2E16AE552E16EE552E7CFD9FF05
:102420001200D9CFE6FFE1CFD9FFFE0EDB50010B42
:102430000F017B6F7C6BFD0EDB500F0B7D6F7E6B96
:10244000FB0EDBCFF6FFFC0EDBCFF7FF0800F550ED
:102450000FE0FB0EDBCFF6FFDB2AFC0EDBCFF7FF36
:1024600001E3DB2A0800F550E66E43DDE552E8D7CC
:10247000E552E7CFD9FF1200D9CFE6FFE1CFD9FF70
:10248000050EE126D9CFE9FFDACFEAFFF90EDBCF5F
:10249000EEFFFA0EDBCFEEFFFB0EDBCFEEFFFC0E06
:1024A000DBCFEEFFD9CFE9FFDACFEAFFEECF10F0B6
:1024B000EECF11F0EECF12F0EFCF13F0E80E0B6E6F
:1024C000030E0C6E0D6A0E6A10C006F011C007F004
:1024D00012C008F013C009F086EC27F006C010F017
:1024E00007C011F008C012F009C013F006C0E6FFE3
:1024F00007C0E6FF08C0E6FF09C0E6FFFD0EDBCF20
:10250000E6FFFE0EDBCFE6FF65DE146E060EE15E33
:102510001450D9CFE9FFDACFEAFFEECF06F0EECFC5
:1025200007F0EECF08F0EFCF09F0E80E0B6E030EC8
:102530000C6E0D6A0E6A86EC27F002C0DEFF03C047
:10254000DEFF04C0DEFF05C0DDFFDD52DD52D9CF66
:10255000E9FFDACFEAFFEECF10F0EECF11F0EECFC9
:1025600012F0EFCF13F0640E0B6E0C6A0D6A0E6A58
:1025700010C006F011C007F012C008F013C009F037
:1025800086EC27F006C010F007C011F008C012F06A
:1025900009C013F006C0E6FF07C0E6FF08C0E6FF6B
:1025A00009C0E6FFFD0EDB28E66EFE0EDBCFE6FF80
:1025B00011DE146E060EE15E1450D9CFE9FFDACFBA
:1025C000EAFFEECF06F0EECF07F0EECF08F0EFCF48
:1025D00009F0640E0B6E0C6A0D6A0E6A86EC27F029
:1025E00002C0DEFF03C0DEFF04C0DEFF05C0DDFF6A
:1025F000DD52DD52DC0EE66E450EE66EFD0EDB5062
:10260000020FE66EFE0EDBCFE6FF0BDFE552E55272
:10261000E552E552D9CFE9FFDACFEAFFEECF10F06D
:10262000EECF11F0EECF12F0EFCF13F00A0E0B6EDB
:102630000C6A0D6A0E6A10C006F011C007F012C0D5
:1026400008F013C009F086EC27F006C010F007C0B0
:1026500011F008C012F009C013F006C0E6FF07C071
:10266000E6FF08C0E6FF09C0E6FFFD0EDB50030FE2
:10267000E66EFE0EDBCFE6FFADDD146E060EE15E0C
:102680001450D9CFE9FFDACFEAFFEECF06F0EECF54
:1026900007F0EECF08F0EFCF09F0E80E0B6E030E57
:1026A0000C6E0D6A0E6A86EC27F002C0DEFF03C0D6
:1026B000DEFF04C0DEFF05C0DDFFDD52DD52D9CFF5
:1026C000E9FFDACFEAFFEECF10F0EECF11F0EECF58
:1026D00012F0EFCF13F00A0E0B6E0C6A0D6A0E6A41
:1026E00010C006F011C007F012C008F013C009F0C6
:1026F00086EC27F002C010F003C011F004C012F005
:1027000005C013F002C0E6FF03C0E6FF04C0E6FF09
:1027100005C0E6FFFD0EDB50040FE66EFE0EDBCFBC
:10272000E6FF58DD146E060EE15E1450050EE15C06
:1027300002E2E16AE552E16EE552E7CFD9FF12000D
:10274000D9CFE6FFE1CFD9FF020EE126DE6ADD6ACE
:102750006CD85BEC25F0A5EC0DF09CEC0FF0000EB6
:10276000E66EE66AA4D8E552E552E80EE66E030E80
:10277000E66E17D8E552E552BAEC27F002010B05D8
:102780000DE1320EE66EE66A5DEC20F0E552E552B0
:1027900085EC20F077EC17F066D952DACBEC0FF02D
:1027A000EDD7D9CFE6FFE1CFD9FF040EE126DE6AEF
:1027B000DD6ADECF10F0DDCF11F0FD0EDBCF12F0C1
:1027C000FE0EDBCF13F011501318E8AE02D0133415
:1027D00004D01250105C135011581DE2020EDB6A37
:1027E000030EDB6A020EDBCF10F0030EDBCF11F01D
:1027F000D890115004E6EE0E105C000E115806E25F
:10280000020EDB2A030EEEE3DB2AECD7DF2A010EF1
:10281000D0E3DB2ACED7040EE15C02E2E16AE552A6
:10282000E16EE552E7CFD9FF1200936A926AFCECA1
:102830000BF0956A836A31EC26F0E80EE66E030E23
:10284000E66EAFDFE552E552570EE66E120EE66E0B
:10285000EEEC1DF0E552E552AE0EE66E240EE66E8D
:1028600090EC1EF0E552E552660EE66EB70EE66E8F
:1028700051EC1FF0E552E552020EE66EE66A2CECD2
:1028800020F0E552E5520A0EE66EE66A3EEC20F0D4
:10289000E552E552320EE66EE66A5DEC20F0E55256
:1028A000E55280EC20F020EC1BF072EF28F0D9CF3D
:1028B000E6FFE1CFD9FFFE0EDBCF11F0800E111441
:1028C0001AE1FD0EDBCF12F0FE0EDBCF13F0133456
:1028D00004E212500708000E13540DE3FD0EDBCF87
:1028E000E9FFFE0EDBCFEAFF610EE9260F0EEA22BA
:1028F000EF508310836EE552E7CFD9FF1200D9CF96
:10290000E6FFE1CFD9FFFE0EDBCF11F0800E1114F0
:102910001AE1FD0EDBCF12F0FE0EDBCF13F0133405
:1029200004E212500708000E13540DE3FD0EDBCF36
:10293000E9FFFE0EDBCFEAFF610EE9260F0EEA2269
:10294000EF1C8314836EE552E7CFD9FF1200D9CF75
:10295000E6FFE1CFD9FFFD0EDBCFE9FFFE0EDBCFB7
:10296000EAFF690EE9260F0EEA22EF0415E1FD0EDB
:10297000DBCFE6FFFE0EDBCFE6FFC1DFE552E5521F
:10298000FD0EDBCFE9FFFE0EDBCFEAFF690EE92685
:102990000F0EEA22EF6A15D0FD0EDBCFE6FFFE0E2A
:1029A000DBCFE6FF84DFE552E552FD0EDBCFE9FF2A
:1029B000FE0EDBCFEAFF690EE9260F0EEA22010EBA
:1029C000EF6EE552E7CFD9FF1200D9CFE6FFE1CF96
:1029D000D9FF020EE126DE6ADD6ADECF10F0DDCF20
:1029E00011F0113404E210500708000E115421E3D5
:1029F000DECFE6FFDDCFE6FF5ADFE552E552F40E0B
:102A0000E66E010EE66ECDDEE552E552DECFE6FF64
:102A1000DDCFE6FF74DFE552E552F40EE66E010EFF
:102A2000E66EBFDEE552E552DF2A010ED6E3DB2A71
:102A3000D4D7020EE15C02E2E16AE552E16EE552B2
:102A4000E7CFD9FF12000101010EC01903E1C15106
:102A500001E1010C000C0101010EBE1903E1BF519F
:102A600001E1010C000CD9CFE6FFE1CFD9FF020E46
:102A7000E126DE6ADD6ADECF10F0DDCF11F0D890FE
:102A8000115004E6070E105C000E115801E3CED081
:102A9000DFCFE6FF79EC28F0E552F3CF10F0F4CF6A
:102AA00011F0126A136A11AE02D012681368DECFF9
:102AB000E9FFDDCFEAFFD890E936EA36D890E9366B
:102AC000EA36940EE926010EEA2210C0EEFF11C08C
:102AD000EEFF12C0EEFF13C0EEFFDECFE9FFDDCF49
:102AE000EAFFD890E936EA36D890E936EA36940E0D
:102AF000E926010EEA22EECF10F0EFCF11F0DECF83
:102B0000E9FFDDCFEAFFD890E936EA36E60EE9269E
:102B1000010EEA2210C0EEFF11C0EDFFDECFE9FF8B
:102B2000DDCFEAFFD890E936EA36E60EE926010E57
:102B3000EA22EECF10F0EFCF11F0DECFE9FFDDCFCC
:102B4000EAFFD890E936EA36E20EE926000EEA22DC
:102B5000EECF12F0EFCF13F01050125C115013585B
:102B60001EE2DECFE9FFDDCFEAFFD890E936EA3694
:102B7000E20EE926000EEA22EECF10F0EFCF11F0C0
:102B8000DECFE9FFDDCFEAFFD890E936EA36E60E80
:102B9000E926010EEA2210C0EEFF11C0EDFFDECFE4
:102BA000E9FFDDCFEAFFD890E936EA36E60EE926FE
:102BB000010EEA22EECF10F0EFCF11F0DECFE9FFE9
:102BC000DDCFEAFFD890E936EA36F00EE926000EAE
:102BD000EA22EECF12F0EFCF13F01250105C135038
:102BE00011581EE2DECFE9FFDDCFEAFFD890E936CB
:102BF000EA36F00EE926000EEA22EECF10F0EFCF13
:102C000011F0DECFE9FFDDCFEAFFD890E936EA36F2
:102C1000E60EE926010EEA2210C0EEFF11C0EDFF1C
:102C2000DF2A010E01E227D7DB2A25D7020EE15C5D
:102C300002E2E16AE552E16EE552E7CFD9FF120008
:102C4000D9CFE6FFE1CFD9FF040EE126010E010145
:102C50000225026F000E0321036F280E0D6E0E6A0F
:102C600002C108F003C109F031EC29F004C002F1FF
:102C700005C003F101010450051001E01FD1B0C0EF
:102C800010F0B1C011F0126A136A0001B0510001D6
:102C9000C65D1C6EC7510001B1551D6E1E6A1F6ACC
:102CA000E6C118F0E7C119F01A6A1B6AE6C106F01E
:102CB000E7C107F01AC008F01BC009F01CC00BF0F8
:102CC0000C6E1EC00DF01FC00EF0B8EC28F002C054
:102CD00014F003C015F004C016F005C017F00B681F
:102CE000030E0C6E0D6A0E6A02C006F003C007F0F8
:102CF00004C008F005C009F086EC27F006C014F007
:102D000007C015F008C016F009C017F006501026CD
:102D100007501122085012220950132210C006F148
:102D200011C007F12E0EE66E460EE66EA1EC1BF00A
:102D3000E552E55206C110F007C111F0126A136A9C
:102D400006C1E6FF07C1E6FF12C0E6FF13C0E6FFBB
:102D500053EC1DF0E552E552E552E552250EE66EC4
:102D6000460EE66EA1EC1BF0E552E55208C110F0EC
:102D700009C111F0126A136A08C1E6FF09C1E6FF32
:102D800012C0E6FF13C0E6FF53EC1DF0E552E5521A
:102D9000E552E552190EE66E460EE66EA1EC1BF00A
:102DA000E552E5520AC110F00BC111F0126A136A24
:102DB0000AC1E6FF0BC1E6FF12C0E6FF13C0E6FF43
:102DC00053EC1DF0E552E552E552E5520D0EE66E6C
:102DD000460EE66EA1EC1BF0E552E55210C110F074
:102DE00011C111F0126A136A10C1E6FF11C1E6FFAA
:102DF00012C0E6FF13C0E6FF53EC1DF0E552E552AA
:102E0000E552E552040EE66E460EE66EA1EC1BF0AE
:102E1000E552E5520CC110F00DC111F0126A136AAF
:102E20000CC1E6FF0DC1E6FF12C0E6FF13C0E6FFCE
:102E300053EC1DF0E552E552E552E552F80EE66E10
:102E4000450EE66EA1EC1BF0E552E5520EC110F006
:102E50000FC111F0126A136A0EC1E6FF0FC1E6FF3F
:102E600012C0E6FF13C0E6FF53EC1DF0E552E55239
:102E7000E552E552EB0EE66E450EE66EA1EC1BF058
:102E8000E552E55212C110F013C111F0126A136A33
:102E900012C1E6FF13C1E6FF12C0E6FF13C0E6FF52
:102EA00053EC1DF0E552E552E552E552E20EE66EB6
:102EB000450EE66EA1EC1BF0E552E552040EE15C16
:102EC00002E2E16AE552E16EE552E7CFD9FF120076
:102ED000BADD000904E078C1C0F079C1C1F0BBDD02
:0E2EE000000904E078C1C4F079C1C5F0120009
:022EEE00080ECC
:102EF0000001801901E1815101E129D3070E8019F8
:102F000001E1815101E107D3060E801901E18151F0
:102F100001E1E5D2050E801901E1815101E12DD2D7
:102F2000040E801901E1815101E1C5D1030E801920
:102F300001E1815101E19ED1020E801901E181512F
:102F400001E17CD0010E801901E181510BE080513B
:102F500001E073D3815101E070D3010E806F816B6A
:102F6000F2EF27F09CEC0FF0F2EC27F00101050ED8
:102F7000C25D000EC35917E3C2C110F00001116A0F
:102F8000010E101610180FE111500DE10001846BB5
:102F9000856B00018C6B8D6B020E0001806F816B65
:102FA0000101C26BC36B010100510201225D43E1CB
:102FB000010101510201215D3EE1010E0001AE253A
:102FC000AE6F000EAF21AF6F0A0E0D6E0E6AAEC06F
:102FD00008F0AFC009F033EC27F004C0AEF005C034
:102FE000AFF09CEC0FF0050E0001AFAF02D0D8900F
:102FF00003D0AE5D000EAF5920E273EC29F000095A
:103000001CE0580EE66E460EE66EE66AE66A11ECC5
:1030100012F0E552E552E552E552470EE66E460ED5
:10302000E66EE66A010EE66E11EC12F0E552E5522C
:10303000E552E552120040EC00F012009CEC0FF05B
:103040000101050EC65D000EC7591DE3C6C110F093
:103050000001116A010E1016101815E1115013E14C
:103060000001010E8C190FE18D510DE10001846BFF
:10307000856B00018C6B8D6B010E0001806F816B85
:103080000101C66BC76B0101050EC65D000EC75975
:103090001DE3C6C110F00001116A010E10161018D0
:1030A00015E1115013E10001020E8C190FE18D5151
:1030B0000DE10001846B856B00018C6B8D6B030E41
:1030C0000001806F816B0101C66BC76B0101050EAA
:1030D000C65D000EC7591AE3C6C110F00001116A9F
:1030E000010E1016101812E1115010E10001030E2C
:1030F0008C190CE18D510AE10001846B856B040E83
:103100000001806F816B0101C66BC76B0101050E69
:10311000C65D000EC7591DE3C6C110F00001116A5B
:10312000010E1016101815E1115013E10001040EE4
:103130008C190FE18D510DE10001846B856B00014D
:103140008C6B8D6B050E0001806F816B0101C66B6E
:10315000C76B0101050EC65D000EC7591DE3C6C150
:1031600010F00001116A010E1016101815E111502F
:1031700013E10001050E8C190FE18D510DE10001E5
:10318000846B856B00018C6B8D6B060E0001806F6C
:10319000816B0101C66BC76B0101050EC65D000E98
:1031A000C7591DE3C6C110F00001116A010E1016C7
:1031B000101815E1115013E10001060E8C190FE1F2
:1031C0008D510DE10001846B856B00018C6B8D6B63
:1031D000070E0001806F816B0101C66BC76B010197
:1031E000050EBE5D000EBF5943E3BEC110F00001E5
:1031F000116A010E101610183BE1115039E1010E51
:1032000000018C258C6F000E8D218D6F070E0D6EC9
:103210000E6A8CC008F08DC009F033EC27F004C0B2
:103220008CF005C08DF0010E00018425846F000E26
:103230008521856F070E0D6E0E6A84C008F085C06B
:1032400009F033EC27F004C084F005C085F00001DC
:103250000450051003E1010E846F856B00018C5151
:103260008D1103E1010E8C6F8D6B0101BE6BBF6B85
:1032700069EF02F09CEC0FF0E9EC07F00101050E9C
:10328000C25D000EC35901E2DAD1C2C110F00001E3
:10329000116A010E101610180DE1115001E0CFD186
:1032A000020E0001806F816B0001846B856B010150
:1032B000C26BC36B12000101050EBE5D000EBF594B
:1032C00028E3BEC110F00001116A010E101610189B
:1032D00020E111501EE1010E00018425846F000ED3
:1032E0008521856F080E0D6E0E6A84C008F085C0BA
:1032F00009F033EC27F004C084F005C085F000012C
:103300000450051003E1010E846F856B0101BE6B53
:10331000BF6B0101050EC65D000EC75915E3C6C19E
:1033200010F00001116A010E101610180DE1115075
:103330000BE1010E00018E6F8F6B080E0001806F94
:10334000816B0101C66BC76B0101050EC25D000EEA
:10335000C35911E3C2C110F00001116A010E101629
:10336000101809E1115007E1020E0001806F816B16
:103370000001846B856B0EEF03F00101050EBE5D4D
:10338000000EBF593CE3BEC110F00001116A010EEE
:103390001016101834E1115032E1010E00018A2597
:1033A0008A6F000E8B218B6F080E0D6E0E6A8AC01D
:1033B00008F08BC009F033EC27F004C08AF005C098
:1033C0008BF0010E00018425846F000E8521856F2E
:1033D000080E0D6E0E6A84C008F085C009F033EC4B
:1033E00027F004C084F005C085F0000104500510EA
:1033F00003E1010E846F856B0101BE6BBF6B0101A0
:10340000050EC25D000EC35914E3C2C110F00001E5
:10341000116A010E101610180CE111500AE1020E8B
:103420000001806F816B0001846B856B0101C26BB1
:10343000C36B0101050EC85D000EC95924E3C8C164
:1034400010F00001116A010E101610181CE1115045
:103450001AE1010E0001926F936B8AC0E9FF8BC0E5
:10346000EAFFD890E936EA36E20EE926000EEA22B3
:10347000EECF82F0EDCF83F0080E0001806F816BFC
:103480000101C86BC96B0101050ECA5D000ECB5965
:1034900024E3CAC110F00001116A010E10161018C1
:1034A0001CE111501AE1010E0001946F956B8AC066
:1034B000E9FF8BC0EAFFD890E936EA36F00EE9263C
:1034C000000EEA22EECF82F0EDCF83F0080E00016D
:1034D000806F816B0101CA6BCB6BC0EF03F0010100
:1034E000050EC25D000EC35914E3C2C110F0000105
:1034F000116A010E101610180CE111500AE1020EAB
:103500000001806F816B0001846B856B0101C26BD0
:10351000C36BA9EF04F00101050EC25D000EC35993
:1035200014E3C2C110F00001116A010E1016101848
:103530000CE111500AE1020E0001806F816B000165
:10354000846B856B0101C26BC36B8FEF0AF072EC69
:1035500004F00101050EBE5D000EBF5911E3BEC1AE
:1035600010F00001116A010E1016101809E1115037
:1035700007E10001822B000E83230101BE6BBF6BAC
:103580000101050EC65D000EC75959E3C6C110F012
:103590000001116A010E101610184EE111504FE192
:1035A0000001010E8E1913E18F5111E18AC0E9FF6C
:1035B0008BC0EAFFD890E936EA36D40EE926000E31
:1035C000EA2282C0EEFF83C0EDFF8E6B8F6B00019D
:1035D000010E921913E1935111E18AC0E9FF8BC0EA
:1035E000EAFFD890E936EA36E20EE926000EEA2232
:1035F00082C0EEFF83C0EDFF926B936B0001010E62
:10360000941913E1955111E18AC0E9FF8BC0EAFFDB
:10361000D890E936EA36F00EE926000EEA2282C09A
:10362000EEFF83C0EDFF946B956B020E0001806F7F
:10363000816B0101C66BC76B1200806B816B12003E
:10364000B06A810EAF6EAC8AAC94B886AC98AB8E83
:10365000AB889E9A9D8A9F9A949C948E1200D9CF93
:10366000E6FFE1CFD9FF040EE126DE6ADD6ADECF98
:1036700010F0DDCF11F0FD0EDBCF12F0FE0EDBCF30
:1036800013F011501318E8AE02D0133404D01250C6
:10369000105C135011581DE2020EDB6A030EDB6A48
:1036A000020EDBCF10F0030EDBCF11F0D8901150DB
:1036B00004E6EE0E105C000E115806E2020EDB2A44
:1036C000030EEEE3DB2AECD7DF2A010ED0E3DB2A80
:1036D000CED7040EE15C02E2E16AE552E16EE5520A
:1036E000E7CFD9FF1200D9CFE6FFE1CFD9FF9EA8DF
:1036F000FED7FE0EDB50AD6E9E98E552E7CFD9FFA8
:103700001200D9CFE6FFE1CFD9FFFD0EDBCFE9FFF5
:10371000FE0EDBCFEAFFEF5010E0FD0EDBCFE9FF3E
:10372000FE0EDBCFEAFFEF50E66EDDDFE552FD0E69
:10373000DB2AFE0EEAE3DB2AE8D7E552E7CFD9FF22
:103740001200D9CFE6FFE1CFD9FFFD0EDBCFF6FFA8
:10375000FE0EDBCFF7FF0800F55015E0FD0EDBCFC6
:10376000F6FFFE0EDBCFF7FF0800F550E66EBBDF7D
:10377000E552FD0EDBCFF6FFDB2AFE0EDBCFF7FFB7
:10378000E4E3DB2AE2D7E552E7CFD9FF1200D9CF35
:10379000E6FFE1CFD9FF050EE126010EF36EDB6EE9
:1037A000020EDB6A030EDB6A040EDB6ADF6ADFCF20
:1037B00010F0116A10BE1168FB0EDBCF12F0FC0E88
:1037C000DBCF13F011501318E8AE02D0133404D03D
:1037D0001250105C135011582DE2FD0EDBCF10F08B
:1037E000FE0EDBCF11F0126A136A11AE02D012681E
:1037F0001368D950010FE96EDACFEAFF10C00BF061
:1038000011C00CF012C00DF013C00EF0EECF06F098
:10381000EECF07F0EECF08F0EFCF09F0B8EC28F0CC
:1038200005C0EDFF04C0EDFF03C0EDFF02C0EFFFD8
:10383000DF2ABDD7010EDBCF10F0020EDBCF11F077
:10384000030EDBCF12F0040EDBCF13F010C006F036
:1038500011C007F012C008F013C009F0050EE15CBA
:1038600002E2E16AE552E16EE552E7CFD9FF1200CC
:10387000D9CFE6FFE1CFD9FF020EE126DF6AFB0ECA
:10388000DBCF10F0FC0EDBCF11F0FD0EDBCF12F022
:10389000FE0EDBCF13F0105011101210131005E1C3
:1038A000300EE66E20DFE552F4D0D950FB0FE96E02
:1038B000FF0EDA20EA6ED890030EEB50000A08E6FD
:1038C000000EEE5C000EEE58000EEE58000EEE58A4
:1038D00015E22D0EE66E07DFE552D950FB0FE96EBB
:1038E000FF0EDA20EA6E000EEE6CEF1EEE22EF1EE7
:1038F000EE22EF1EEF22ED52ED52ED52DE520A0E95
:10390000DD6E010EDBCF10F0000EE76E1018E8AE92
:1039100002D0103403D0E750D880105401E3B9D05E
:10392000010EDB04146E156A14BE156814C0E6FFA0
:1039300015C0E6FF0A0EE66EE66A29DFE552E5529B
:10394000E552E55206C010F007C011F008C012F0B1
:1039500009C013F006C00BF007C00CF008C00DF052
:1039600009C00EF0FB0EDBCF06F0FC0EDBCF07F03C
:10397000FD0EDBCF08F0FE0EDBCF09F0F0EC28F0F7
:10398000065007100810091041E0010EDF6EDB043D
:10399000186E196A18BE196818C0E6FF19C0E6FF4C
:1039A0000A0EE66EE66AF3DEE552E552E552E552AE
:1039B00006C014F007C015F008C016F009C017F0D3
:1039C00006C00BF007C00CF008C00DF009C00EF0E7
:1039D000FB0EDBCF06F0FC0EDBCF07F0FD0EDBCFDE
:1039E00008F0FE0EDBCF09F0F0EC28F006C010F076
:1039F00007C011F008C012F009C013F0300E1026F5
:103A0000000E112212221322105003D0DF5004E0C6
:103A1000300EE66E68DEE552010EDB04146E156AA8
:103A200014BE156814C0E6FF15C0E6FF0A0EE66E68
:103A3000E66AADDEE552E552E552E55206C010F009
:103A400007C011F008C012F009C013F0D950FB0FE5
:103A5000E96EFF0EDA20EA6E06C00BF007C00CF02C
:103A600008C00DF009C00EF0EECF06F0EECF07F063
:103A7000EECF08F0EFCF09F0F0EC28F005C0EDFF35
:103A800004C0EDFF03C0EDFF02C0EFFF010EDB0637
:103A900038D7020EE15C02E2E16AE552E16EE552DE
:103AA000E7CFD9FF1200D9CFE6FFE1CFD9FFFB0E58
:103AB000DBCF10F0FC0EDBCF11F0FD0EDBCF12F0F0
:103AC000FE0EDBCF13F0640E0B6E0C6A0D6A0E6AED
:103AD00010C006F011C007F012C008F013C009F0C2
:103AE00086EC27F006C010F007C011F008C012F0F5
:103AF00009C013F006C0E6FF07C0E6FF08C0E6FFF6
:103B000009C0E6FFB5DEE552E552E552E5522E0E5C
:103B1000E66EE9DDE552FB0EDBCF10F0FC0EDBCFED
:103B200011F0FD0EDBCF12F0FE0EDBCF13F0640EB2
:103B30000B6E0C6A0D6A0E6A10C006F011C007F019
:103B400012C008F013C009F086EC27F002C010F094
:103B500003C011F004C012F005C013F002C0E6FF6C
:103B600003C0E6FF04C0E6FF05C0E6FF81DEE552C4
:103B7000E552E552E552E552E7CFD9FF1200D9CF21
:103B8000E6FFE1CFD9FFE652AE50DF6EDE0EE66E05
:103B9000450EE66EE66A010EE66E11EC12F0E55295
:103BA000E552E552E552DFCF10F0116A126A136A4E
:103BB00010C0E6FF11C0E6FF12C0E6FF13C0E6FF2B
:103BC000E66A010EE66EEAEC10F0146E060EE15E97
:0C3BD0001450E552E552E7CFD9FF120077
:043BDC00D9CFE6FF58
:103BE000E1CFD9FFD59EFD0EDBCF00F2FE0EDBCF7D
:103BF00001F2D59C13681468156A00C216F001C260
:103C000017F0186A1650135C106E17501458116E86
:103C100018501558126E0C6A010E0D6E0E6A10C007
:103C200007F011C008F012C009F059EC27F003505A
:103C3000D66E13681468156A00C216F001C217F038
:103C4000186A1650135C106E17501458116E1850E5
:103C50001558126E0C6A010E0D6E0E6A10C007F038
:103C600011C008F012C009F059EC27F007C010F09D
:103C700008C011F009C012F00750D76ED59AD5864A
:103C8000F28AF294F184D58EE552E7CFD9FF120083
:103C9000D59E120013681468156A00C216F001C29E
:103CA00017F0186A1650135C106E17501458116EE6
:103CB00018501558126E0C6A010E0D6E0E6A10C067
:103CC00007F011C008F012C009F059EC27F00350BA
:103CD000D66E13681468156A00C216F001C217F098
:103CE000186A1650135C106E17501458116E185045
:103CF0001558126E0C6A010E0D6E0E6A10C007F098
:103D000011C008F012C009F059EC27F007C010F0FC
:103D100008C011F009C012F00750D76ED58E1200FE
:103D2000D9CFE6FFE1CFD9FFCD90FD0EDBCF02F278
:103D3000FE0EDBCF03F213681468156A02C216F098
:103D400003C217F0186A1650135C106E17501458FF
:103D5000116E18501558126E0C6A010E0D6E0E6A17
:103D600010C007F011C008F012C009F059EC27F09C
:103D70000750CF6E13681468156A02C216F003C2AA
:103D800017F0186A1650135C106E17501458116E05
:103D900018501558126E0C6A010E0D6E0E6A10C086
:103DA00007F011C008F012C009F059EC27F003C069
:103DB00010F004C011F005C012F00350CE6E9D80CB
:103DC0009E909F90CD8ECD8CCD98CD9ACD96CD9254
:103DD000CD80E552E7CFD9FF120013681468156A49
:103DE00002C216F003C217F0186A1650135C106E68
:103DF00017501458116E18501558126E0C6A010E97
:103E00000D6E0E6A10C007F011C008F012C009F064
:103E100059EC27F00750CF6E13681468156A02C278
:103E200016F003C217F0186A1650135C106E175084
:103E30001458116E18501558126E0C6A010E0D6E42
:103E40000E6A10C007F011C008F012C009F059EC5A
:103E500027F003C010F004C011F005C012F00350A9
:103E6000CE6ECD801200CD901200D9CFE6FFE1CF0B
:103E7000D9FFCA94CC6AFE0EDB500201046F056BB9
:103E8000CB6E9D829E929F92CA90CA92CA84E5523E
:103E9000E7CFD9FF120004C2CBFFCA841200CA9434
:103EA0001200D9CFE6FFE1CFD9FFB190FD0EDBCFF5
:103EB00006F2FE0EDBCF07F213681468156A06C21D
:103EC00016F007C217F0186A1650135C106E1750E0
:103ED0001458116E18501558126E0C6A010E0D6EA2
:103EE0000E6A10C007F011C008F012C009F059ECBA
:103EF00027F00750B36E13681468156A06C216F0EF
:103F000007C217F0186A1650135C106E1750145839
:103F1000116E18501558126E0C6A010E0D6E0E6A55
:103F200010C007F011C008F012C009F059EC27F0DA
:103F300003C010F004C011F005C012F00350B26EBF
:103F4000A082A192A292B18EB198B19AB192B180A1
:103F5000E552E7CFD9FF120013681468156A06C24C
:103F600016F007C217F0186A1650135C106E17503F
:103F70001458116E18501558126E0C6A010E0D6E01
:103F80000E6A10C007F011C008F012C009F059EC19
:103F900027F00350B26E13681468156A06C216F053
:103FA00007C217F0186A1650135C106E1750145899
:103FB000116E18501558126E0C6A010E0D6E0E6AB5
:103FC00010C007F011C008F012C009F059EC27F03A
:103FD00007C010F008C011F009C012F00750B36E0E
:103FE000B1801200B19012000201102B000E1123BB
:103FF0001851105D1951115904E3106B116B010E2A
:10400000086F12000201122B000E13231A51125DC9
:104010001B51135904E3126B136B010E096F12004D
:104020000201142B000E15231C51145D1D5115594E
:1040300004E3146B156B010E0A6F12000201162BBC
:10404000000E17231E51165D1F51175904E3166BFE
:10405000176B010E0B6F1200D9CFE6FFE1CFD9FF2E
:10406000FD0EDBCF18F2FE0EDBCF19F20201106B52
:10407000116B086BE552E7CFD9FF1200D9CFE6FFED
:10408000E1CFD9FFFD0EDBCF1AF2FE0EDBCF1BF224
:10409000050E0D6E0E6A1AC208F01BC209F033EC51
:1040A00027F008C01AF209C01BF20201126B136B51
:1040B000096BE552E7CFD9FF1200D9CFE6FFE1CF78
:1040C000D9FFFD0EDBCF1EF2FE0EDBCF1FF20A0E74
:1040D0000D6E0E6A1EC208F01FC209F033EC27F005
:1040E00008C01EF209C01FF20201166B176B0B6BA2
:0840F000E552E7CFD9FF1200F1
:0840F8000F0E946E82681200A5
:10410000CF0E9414946E82681200D9CFE6FFE1CFEF
:10411000D9FF040EE126DE6ADD6ADECF10F0DDCFC6
:1041200011F0D890115004E6040E105C000E1158E6
:1041300001E390D0DECFE9FFDDCFEAFFDE0EE92616
:10414000010EEA22EF1C826E020EDB6A030EDB6AAE
:10415000020EDBCF10F0030EDBCF11F0D890115020
:1041600004E6040E105C000E11586EE2020EDBCF66
:10417000E9FF030EDBCFEAFFE20EE926010EEA2299
:10418000EF5082143FE1DECF14F0DDCF15F0D89070
:1041900014361536D89014361536020EDB5014241A
:1041A000E96E030EDB501520EA6ED890E936EA3648
:1041B000BE0EE926010EEA22EECF12F0EFCF13F089
:1041C000010E1226000E1322DECF10F0DDCF11F00B
:1041D000D89010361136D89010361136020EDB50BA
:1041E0001024E96E030EDB501120EA6ED890E936F8
:1041F000EA36BE0EE926010EEA2212C0EEFF13C017
:10420000EDFF1BD0DECF10F0DDCF11F0D8901036CF
:104210001136D89010361136020EDB501024E96E9C
:10422000030EDB501120EA6ED890E936EA36BE0E56
:10423000E926010EEA22EE6AED6A020EDB2A030E7F
:1042400001E286D7DB2A84D7DF2A010E01E265D797
:10425000DB2A63D7040EE15C02E2E16AE552E16E1B
:10426000E552E7CFD9FF1200D9CFE6FFE1CFD9FF62
:10427000040EE126DE6ADD6ADECF10F0DDCF11F03C
:10428000D890115004E6020E105C000E115801E3A4
:1042900094D0DECFE9FFDDCFEAFFDE0EE926010E86
:1042A000EA22EF1C8214826E0F0E8210826E020EC2
:1042B000DB6A030EDB6A020EDBCF10F0030EDBCFEE
:1042C00011F0D890115004E6040E105C000E115845
:1042D0006EE2020EDBCFE9FF030EDBCFEAFFE20E58
:1042E000E926010EEA22EF5082143FE1DECF14F0FE
:1042F000DDCF15F0D89014361536D8901436153613
:10430000020EDB501424E96E030EDB501520EA6E1A
:10431000D890E936EA36BE0EE926010EEA22EECF43
:1043200012F0EFCF13F0010E1226000E1322DECF93
:1043300010F0DDCF11F0D89010361136D89010362D
:104340001136020EDB501024E96E030EDB501120F3
:10435000EA6ED890E936EA36BE0EE926010EEA2268
:1043600012C0EEFF13C0EDFF1BD0DECF10F0DDCF8B
:1043700011F0D89010361136D89010361136020E42
:10438000DB501024E96E030EDB501120EA6ED8904A
:10439000E936EA36BE0EE926010EEA22EE6AED6A39
:1043A000020EDB2A030E01E286D7DB2A84D7DF2A3E
:1043B000010E01E261D7DB2A5FD7040EE15C02E265
:1043C000E16AE552E16EE552E7CFD9FF1200D9CF9D
:1043D000E6FFE1CFD9FF040EE126DE6ADD6ADECF1B
:1043E00010F0DDCF11F0FD0EDBCF12F0FE0EDBCFB3
:1043F00013F011501318E8AE02D0133404D0125049
:10440000105C135011581DE2020EDB6A030EDB6ACA
:10441000020EDBCF10F0030EDBCF11F0D89011505D
:1044200004E6EE0E105C000E115806E2020EDB2AC6
:10443000030EEEE3DB2AECD7DF2A010ED0E3DB2A02
:10444000CED7040EE15C02E2E16AE552E16EE5528C
:10445000E7CFD9FF1200D9CFE6FFE1CFD9FF040E95
:10446000E126DE6ADD6ADECF10F0DDCF11F0D890F4
:10447000115004E6040E105C000E115875E2DECFF8
:10448000E9FFDDCFEAFFDE0EE926010EEA22EF1C8E
:10449000826E020EDB6A030EDB6A020EDBCF10F0C7
:1044A000030EDBCF11F0D890115004E6040E105C1F
:1044B000000E11584AE2DECF10F0DDCF11F0D89097
:1044C00010361136D89010361136020EDB501024FB
:1044D000E96E030EDB501120EA6ED890E936EA3619
:1044E000BE0EE926010EEA22EE6AED6A020EDBCF6D
:1044F000E9FF030EDBCFEAFFE20EE926010EEA2216
:10450000EF5082141CE1DECF10F0DDCF11F0D89017
:1045100010361136D89010361136020EDB501024AA
:10452000E96E030EDB501120EA6ED890E936EA36C8
:10453000BE0EE926010EEA22010EEE6EED6A020EB3
:10454000DB2A030EAAE3DB2AA8D78250816EE80E8D
:10455000E66E030EE66E3BDFE552E552DF2A010E02
:1045600001E281D7DB2A7FD7040EE15C02E2E16A37
:10457000E552E16EE552E7CFD9FF1200D9CFE6FF51
:10458000E1CFD9FFFD0EDBCFE9FFFE0EDBCFEAFF67
:10459000D890E936EA36BE0EE926010EEA22010E6F
:1045A000D880EE54000EED5413E2FD0EDBCFE9FF90
:1045B000FE0EDBCFEAFFD890E936EA36BE0EE926DA
:1045C000010EEA22EE2A000EEF22010EF36E01D058
:0C45D000F36AF46AE552E7CFD9FF12004D
:0445DC002E0020206D
:1045E0002000206D332F68200D0A00206D672F6C8E
:1045F00020464C4F573D2000206D672F6C204E4FBA
:10460000333D20002043204E48343D2000206D677C
:104610002F6C20544D503D2000206D672F6C20439F
:1046200053423D20002070482053533D200032303B
:104630002E30342E31362030393A31323A3037206C
:104640002070483D2020002A2A2A2A2A2A2A2A2A9B
:104650002A2A2A2A2A2A2A0044454E2047494F203E
:1046600054554F4920434159005F005F5F005F5F31
:104670005F004B484F4E472043414E482042414F38
:1046800000464C4F572043414F2000544D5020438B
:10469000414F2000544D503D2020004E4F332043C9
:1046A000414F20004E4F333D2020004E48342043E0
:1046B000414F20004E48343D2020005353204341B9
:1046C0004F200053533D202000434F442043414F8F
:1046D0002000434F443D20200050482043414F20BC
:1046E0000050483D202000342E205361766500495B
:1046F0006E7075743A200053455420464C4F572035
:104700004144432020203E00534554204E4F332047
:10471000414443202020203E00534554204E48343D
:1047200020414443202020202000534554204E4F58
:104730003320414443202020202000534554204E64
:10474000483420414443202020203E00534554203B
:1047500053532041444320202020203E0053455401
:104760002050482041444320202020202000534551
:104770005420535320414443202020202020005324
:1047800045542050482041444320202020203E0012
:1047900053455420434F4420414443202020203E91
:1047A0000053455420544D502041444320202020A4
:1047B000200053455420434F4420414443202020AF
:1047C00020200053455420544D5020414443202084
:1047D00020203E00353A204D415820202020203610
:1047E0003A4D494E00202053455420414443204D2A
:1047F0004F444520200053455420464C4F572054E9
:104800002E482020203E00534554204E4F33205444
:104810002E48202020203E00534554204E4834206E
:10482000542E48202020202000534554204E4F3342
:1048300020542E48202020202000534554204E484C
:104840003420542E48202020203E0053455420532D
:104850005320542E4820202020203E005345542031
:10486000504820542E48202020202020005345541A
:1048700020535320542E4820202020202000534530
:104880005420504820542E4820202020203E005301
:10489000455420434F4420542E48202020203E00E1
:1048A00053455420544D5020542E48202020202081
:1048B0000053455420434F4420542E4820202020AC
:1048C000200053455420544D5020542E4820202081
:1048D000203E002020202020204D4F444520202035
:1048E0002020200020534554205448524553484F1F
:1048F0004C44202000362E53455420414C41524D0B
:104900002020203E00352E534545205741524E4928
:104910004E47202000362E53455420414C41524DE5
:104920002020202000352E534545205741524E4926
:104930004E47203E00342E5345542041444320200E
:104940002020203E00332E5345542054482E484FFB
:104950004C442000342E5345542041444300332E10
:104960005345542054482E484F4C44203E00322E8C
:1049700041444A5553542054494D4520203E00316E
:104980002E444953504C41592054494D4520003242
:104990002E41444A5553542054494D452000312E50
:1049A000444953504C41592054494D45203E002A1A
:1049B0002A2A2A2A2A2A2A2A2A2A2A2A2A002A2A81
:1049C0002A2A204D454E55202A2A2A2A0020004412
:1049D0004543004E4F56004F43540053455000414D
:1049E0005547004A554C004A554E004D415900412B
:1049F0005052004D415200464542004A414E003A55
:104A00000045525200534154004652490054485503
:104A10000057454400545545004D4F4E0053554EE8
:014A20000095
:014A21000094
:0E4A2200D9CFE6FFE1CFD9FF020EE126FE0E4E
:104A3000DB500F0BDF6EFE0EDB380F0B0A0D010E85
:104A4000F3CFDBFFDB50DF24106E020EE15C02E2ED
:104A5000E16AE552E16E1050E552E7CFD9FF12004E
:104A6000D9CFE6FFE1CFD9FF020EE1260A0E106E84
:104A70000E6EFE0EDBCF09F065EC29F00550DF6EFF
:104A80000A0E106E0E6EFE0EDBCF09F065EC29F0FB
:104A90000950100D010EF3CFDBFFDB50DF24106E49
:104AA000020EE15C02E2E16AE552E16E1050E5526D
:104AB000E7CFD9FF1200949694981200D9CFE6FF61
:104AC000E1CFD9FFE652DF6AFE0EDB50DF5C02E287
:104AD000DF2AFAD7E552E552E7CFD9FF120082A8C4
:104AE000000C010C0001FE5102E08288828682984F
:104AF0008296010EFE6F12008298828682880001E3
:104B0000FE6B1200D9CFE6FFE1CFD9FF020EE126FE
:104B1000DF6ADFCF10F0080EE76E1018E8AE02D0A3
:104B2000E73402D0E750105C0FE2FE0EDBBE02D08D
:104B3000829801D0828882868296DB50020DFE0E1A
:104B4000F3CFDBFFDF2AE5D794888286C8DFE76EE4
:104B5000010EE7CFDBFF82969498DB50106E020EB9
:104B6000E15C02E2E16AE552E16E1050E552E7CF06
:104B7000D9FF1200D9CFE6FFE1CFD9FF020EE1261F
:104B8000DF6A9488010EDB6ADBCF10F0080EE76E57
:104B90001018E8AE02D0E73402D0E750105C0BE208
:104BA00082869DDF106EDF50E8241010DF6E829643
:104BB000010EDB2AE9D79498FE0EDB5002E08288D2
:104BC00001D0829882868296DF50106E020EE15CE0
:104BD00002E2E16AE552E16E1050E552E7CFD9FFFB
:104BE0001200D9CFE6FFE1CFD9FF7CDFD00EE66E11
:104BF00089DFE552FE0EDBCFE6FF84DFE552FD0ED6
:104C0000DBCFE6FF2DDFE552E66E7CDFE55274DF99
:104C1000E552E7CFD9FF1200D9CFE6FFE1CFD9FFA8
:104C2000E65260DFD00EE66E6DDFE552FE0EDBCFA2
:104C3000E6FF68DFE55256DFD10EE66E63DFE55230
:104C4000010EE66E97DFE552DF6EDFCFE6FFE9DEAD
:104C5000E552DF6E51DFDF50E552E552E7CFD9FF75
:024C6000120040
:0E4C6200F28ED08EF28C1200F19CF292F2884B
:104C70001200D8CFE4FFE0CFE4FFE46EDACFE4FF28
:104C8000E2CFDAFFE9CFE4FFEACFE4FFF6CFE4FFBB
:104C9000F7CFE4FFF5CFE4FFF3CFE4FFF4CFE4FF79
:104CA000FACFE4FF00EE00F0100EE80403E3EECFCD
:104CB000E4FFFBD700EE10F0100EE80403E3EECFA4
:104CC000E4FFFBD7E652F2A407D048EC1EF0F294C2
:104CD0004AEC1EF0F4EC1FF09EA007D033EC1FF05E
:104CE0009E90EDEC1EF002EC20F0A1A207D0F2ECB9
:104CF0001FF0A192ACEC1FF01EEC20F0F2B2F29289
:104D00009EAA03D09E9ABFEC1DF0E55200EE1FF064
:104D1000100EE80403E3E5CFEDFFFBD700EE0FF044
:104D2000100EE80403E3E5CFEDFFFBD7E5CFFAFF74
:104D3000E5CFF4FFE5CFF3FFE5CFF5FFE5CFF7FFD4
:104D4000E5CFF6FFE5CFEAFFE5CFE9FFE5CFDAFFF4
:104D5000E550E5CFE0FFE5CFD8FF1000DACFE4FF64
:104D6000E2CFDAFFE9CFE4FFEACFE4FFF6CFE4FFDA
:104D7000F7CFE4FFF5CFE4FFF3CFE4FFF4CFE4FF98
:104D8000FACFE4FF00EE00F0100EE80403E3EECFEC
:104D9000E4FFFBD700EE10F0100EE80403E3EECFC3
:104DA000E4FFFBD7E652F2A407D048EC1EF0F294E1
:104DB0004AEC1EF0F4EC1FF09EA007D033EC1FF07D
:104DC0009E90EDEC1EF002EC20F0A1A207D0F2ECD8
:104DD0001FF0A192ACEC1FF01EEC20F0F2B2F292A8
:104DE0009EAA03D09E9ABFEC1DF0E55200EE1FF084
:104DF000100EE80403E3E5CFEDFFFBD700EE0FF064
:104E0000100EE80403E3E5CFEDFFFBD7E5CFFAFF93
:104E1000E5CFF4FFE5CFF3FFE5CFF5FFE5CFF7FFF3
:104E2000E5CFF6FFE5CFEAFFE5CFE9FFE5CFDAFF13
:024E300011006F
:0E4E3200006A0EAE1FEF27F00E6C001E09AED8
:104E400024EF27F0096C001E65EC29F009BE2EEF57
:104E500027F000AE000C096C056C000C00BE2BEFB7
:104E600027F00188FF0C006A0EAE3CEF27F00D6CB6
:104E70000E1EE86A0E22001E09AE44EF27F0086CF1
:104E8000091EE86A0922001E31EC29F009BE54EF20
:104E900027F000AE000C086C091EE86A0922046CB9
:104EA000051EE86A0522000C00BE4BEF27F00188C2
:104EB000FF0C006A0EAE64EF27F00C6C0D1E0E1E88
:104EC000E86A0D220E22001E09AE6EEF27F0076C75
:104ED000081E091EE86A08220922001E14EC29F0A7
:104EE00009BE81EF27F000AE000C076C081E091EFA
:104EF000E86A08220922036C041E051E042205220A
:104F0000000C00BE75EF27F00188FF0C006AE86A0C
:104F10000EAE93EF27F00B6C0C1E0D1E0E1E0C2216
:104F20000D220E22001E09AE9EEF27F0066C071E12
:104F3000081E091E072208220922001EF0EC28F094
:104F400009BEB5EF27F000AE000C066C071E081E68
:104F5000091EE86A072208220922026C031E041EA9
:104F6000051E032204220522000C00BEA5EF27F037
:044F70000188FF0CA9
:0C4F740020C2E6FFE66AF1EC25F0E552F1
:104F8000E55221C2E6FF010EE66EF1EC25F0E55296
:104F9000E55222C2E6FF020EE66EF1EC25F0E55284
:104FA000E55223C2E6FF030EE66EF1EC25F0E55272
:104FB000E55224C2E6FF040EE66EF1EC25F0E55260
:104FC000E55225C2E6FF050EE66EF1EC25F0E5524E
:104FD000E55226C2E6FF060EE66EF1EC25F0E5523C
:104FE000E5521200E66A0CEC26F0E5520201206F51
:104FF000010EE66E0CEC26F0E5520201216F020E66
:10500000E66E0CEC26F0E5520201226F030EE66E0E
:105010000CEC26F0E5520201236F040EE66E0CEC58
:1050200026F0E5520201246F050EE66E0CEC26F028
:10503000E5520201256F060EE66E0CEC26F0E552F5
:065040000201266F1200C0
:0A5046001E0EF66E000EF76E000E4F
:10505000F86E0F010900F550766F0900F550776F73
:1050600003E1766701D03DD00900F550716F09006A
:10507000F550726F0900F550736F09000900F55083
:10508000E96E0900F550EA6E090009000900F550C3
:10509000746F0900F550756F09000900F6CF78FFAD
:1050A000F7CF79FFF8CF7AFF71CFF6FF72CFF7FF16
:1050B00073CFF8FF0F01745302E1755307E0090045
:1050C000F550EE6E7407F8E27507F9D778CFF6FF62
:1050D00079CFF7FF7ACFF8FF0F017607000E775BE5
:0450E000BFD7120024
:0C50E4000F0E926E0B0EC16E040EC06E1B
:1050F0001200D9CFE6FFE1CFD9FF020EE126FE0E66
:10510000DB50040DF350C26EC280C282C2B2FED721
:10511000C450DE6EDD6ADECF12F0DDCF13F0D89022
:1051200012361336D89012361336060EC3CFE7FF69
:10513000070B04E0E742E79EE806FCE1E750122493
:10514000106E000E132010C0DEFFDD6EDECF10F0FB
:10515000DDCF11F010C0F3FF11C0F4FF020EE15CCF
:1051600002E2E16AE552E16EE552E7CFD9FF1200B3
:1051700006500B02F3CF02F0F4CF03F00C02F35011
:105180000326000EF420046E06500D02F350042690
:10519000000EF420056E06500E02F350052607504F
:1051A0000B02F3500326F4500422000E0522075090
:1051B0000C02F3500426F450052207500D02F35060
:1051C000052608500B02F3500426F450052208501F
:1051D0000C02F350052609500B02F350052612006D
:1051E000056A046A036A026A200EE76ED8900636E2
:1051F00007360836093602360336043605360B50B4
:10520000025C0C5003580D5004580E50055809E329
:105210000B50025E0C50035A0D50045A0E50055AA2
:08522000062AE72EE4D7120074
:08522800056A046A036A180E0E
:10523000E76ED89007360836093603360436053649
:105240000C50035C0D5004580E50055807E30C50E9
:10525000035E0D50045A0E50055A072AE72EEAD76E
:0252600012003A
:0E526200056A046A100EE76ED8900836093609
:10527000043605360D50045C0E50055805E30D50FC
:0E528000045E0E50055A082AE72EF0D71200E1
:02528E00800E90
:10529000F36E00EE00F00F0E01D81200EA6002D0AB
:0E52A000EE6AFCD7F350E9601200EE6AFCD70C
:0252AE001EEEF2
:1052B00000F02EEE00F0F86A019C23EC28F003ECDD
:0A52C00000F0A0EC13F0FBD7120081
:0652CA00056A080EE76E04
:1052D000D890093605360E50055C02E3056E092AA2
:0652E000E72EF7D71200D3
:0A52E6000101CE51CF1104E1D051B7
:0852F000D11101E1010C000CD9
:0852F8000000000000000000AE
:10530000000000000000000000000000000000009D
:08531000010001000100010091
:0853180001020408102040808E
:08532000000000000000000085
:0853280000000000000000007D
:10533000101010101010101018181818181818182D
:105340001C1C1C1C1C1C1C1C1E1E1E1E1E1E1E1E8D
:105350001F1F1F1F1F1F1F1F000000000000000055
:10536000000000000000000000000000000000003D
:10537000000000000000000000000000000000002D
:0953800000000000000000000024
:07538900000000000000001D
:105390000000000000000000000000000000001FEE
:1053A000001C001F001E001F001E001F001F001E0B
:1053B000001F001E001F0000009001000000000000
:1053C00000E803D0070000C40900008813FF03E8C9
:1053D00003E8031027204E88131027A08C20030019
:1053E000000000E803D00700000000D007D007D07D
:1053F00007E803D007D007D0070000000000000036
:0754000000000000000000A5
:075407001E0211050C0C163A
:02540E0000009C
:10541000000000000000000000000000000000008C
:10542000000000000000000000000000000010204C
:06543000408001020408A7
:020000040030CA
:0100010002FC
:0100020003FA
:010003001EDE
:010005008179
:010006008178
:010008000FE8
:01000900C036
:01000A000FE6
:01000B00E014
:01000C000FE4
:01000D0040B2
:00000001FF
