:020000040000FA
:06000000DBEF2FF01200FF
:020006001200E6
:0600080032EF2DF01200A2
:02000E000000F0
:020010000000EE
:06001800BDEF2CF0120008
:02001E000800D8
:100020006E610000D601000028000000676100003A
:10003000F8000000070000009160000000010000CF
:10004000D6000000295700007F0F000001000000CB
:100050000E000000F8020000040000003060000004
:10006000000F00006100000020600000E8020000B6
:100070001000000000600000C80200002000000026
:100080000001FB51070A24E0010A1EE0030A18E000
:10009000010A12E0070A0CE0010A06E0030A1CE16B
:1000A000250EE66E570E1BD0210EE66E570E17D0AA
:1000B0001D0EE66E570E13D0190EE66E570E0FD0BA
:1000C000150EE66E570E0BD0110EE66E570E07D0CA
:1000D0000D0EE66E570E03D0090EE66E570EE66E55
:1000E000E66AE66A6BEC13F0E552E552E552E5523A
:1000F0000A0E046E2A6EFAC025F09DEC2DF025C084
:1001000000F0016A026A036A00AE03D00168026867
:10011000036800C0E6FF01C0E6FF02C0E6FF03C0BF
:10012000E6FF040EE66EE66A44EC12F0056E060E7B
:10013000E15E0550FAC025F00A0E2A6E9DEC2DF006
:1001400021C000F0016A026A036A00AE03D00168B0
:100150000268036800C0E6FF01C0E6FF02C0E6FFD8
:1001600003C0E6FF050EE66EE66A44EC12F0046E8C
:10017000060EE15E0450070EE66E570EE66E060EA2
:10018000E66EE66A6BEC13F0E552E552E552E55295
:100190000A0E046E2A6EF9C025F09DEC2DF025C0E4
:1001A00000F0016A026A036A00AE03D001680268C7
:1001B000036800C0E6FF01C0E6FF02C0E6FF03C01F
:1001C000E6FF070EE66EE66A44EC12F0056E060ED8
:1001D000E15E0550F9C025F00A0E2A6E9DEC2DF067
:1001E00021C000F0016A026A036A00AE03D0016810
:1001F0000268036800C0E6FF01C0E6FF02C0E6FF38
:1002000003C0E6FF080EE66EE66A44EC12F0046EE8
:10021000060EE15E0450070EE66E570EE66E090EFE
:10022000E66EE66A6BEC13F0E552E552E552E552F4
:100230000A0E046E2A6EF8C025F09DEC2DF025C044
:1002400000F0016A026A036A00AE03D00168026826
:10025000036800C0E6FF01C0E6FF02C0E6FF03C07E
:10026000E6FF0A0EE66EE66A44EC12F0056E060E34
:10027000E15E0550F8C025F00A0E2A6E9DEC2DF0C7
:1002800021C000F0016A026A036A00AE03D001686F
:100290000268036800C0E6FF01C0E6FF02C0E6FF97
:1002A00003C0E6FF0B0EE66EE66A44EC12F0046E45
:1002B000060EE15E04500001FD510C0A42E0070AFF
:1002C0003CE0010A36E0030A30E0010A2AE00F0AA6
:1002D00024E0010A1EE0030A18E0010A12E0070AFE
:1002E0000CE0010A06E0030A30E1030EE66E570E49
:1002F0002FD0FF0EE66E560E2BD0FB0EE66E560E7E
:1003000027D0F70EE66E560E23D0F30EE66E560E8D
:100310001FD0EF0EE66E560E1BD0EB0EE66E560E9D
:1003200017D0E70EE66E560E13D0E30EE66E560EAD
:100330000FD0DF0EE66E560E0BD0DB0EE66E560EBD
:1003400007D0D70EE66E560E03D0090EE66E570E96
:10035000E66E020EE66E010EE66E6BEC13F0E552F1
:10036000E552E552E552D50EE66E560EE66E050EE6
:10037000E66E010EE66E6BEC13F0E552E552E552C7
:10038000E5520A0E046E2A6EFCC025F09DEC2DF09D
:1003900025C000F0016A026A036A00AE03D001685A
:1003A0000268036800C0E6FF01C0E6FF02C0E6FF86
:1003B00003C0E6FF060EE66E010EE66E44EC12F098
:1003C000056E060EE15E0550FCC025F00A0E2A6E91
:1003D0009DEC2DF021C000F0016A026A036A00AEB4
:1003E00003D001680268036800C0E6FF01C0E6FFB1
:1003F00002C0E6FF03C0E6FF070EE66E010EE66EE2
:1004000044EC12F0046E060EE15E0450D50EE66E6A
:10041000560EE66E080EE66E010EE66E6BEC13F0FD
:10042000E552E552E552E552140EE66EE66AE66ADA
:10043000E66A090EE66E010EE66E44EC12F0006EFE
:10044000060EE15E00500A0E046E2A6EFEC025F014
:100450009DEC2DF025C000F0016A026A036A00AE2F
:1004600003D001680268036800C0E6FF01C0E6FF30
:1004700002C0E6FF03C0E6FF0B0EE66E010EE66E5D
:1004800044EC12F0056E060EE15E0550FEC025F04C
:100490000A0E2A6E9DEC2DF021C000F0016A026A5E
:1004A000036A00AE03D001680268036800C0E6FF7B
:1004B00001C0E6FF02C0E6FF03C0E6FF0C0EE66ED9
:1004C000010EE66E44EC12F0046E060EE15E04507E
:1004D0001200F6EC10F0060E01010E1901E10F51A9
:1004E00001E17FD0050E0E1901E10F516AE0040E03
:1004F0000E1901E10F5155E0030E0E1901E10F51E4
:1005000040E0020E0E1901E10F512BE0010E0E1911
:1005100001E10F5116E00E5101E07DD00F5101E0D5
:100520007AD0C40EE66E560EE66EE66AE66A6BECAC
:1005300013F0E552E552E552E552B30EE66E560E63
:100540005FD0A20EE66E560EE66EE66AE66A6BECC9
:1005500013F0E552E552E552E552910EE66E560E65
:100560004FD0800EE66E560EE66EE66AE66A6BECDB
:1005700013F0E552E552E552E5526F0EE66E560E67
:100580003FD05E0EE66E560EE66EE66AE66A6BECED
:1005900013F0E552E552E552E5524D0EE66E560E69
:1005A0002FD03C0EE66E560EE66EE66AE66A6BECFF
:1005B00013F0E552E552E552E5522B0EE66E560E6B
:1005C0001FD01A0EE66E560EE66EE66AE66A6BEC11
:1005D00013F0E552E552E552E552090EE66E560E6D
:1005E0000FD0F80EE66E550EE66EE66AE66A6BEC24
:1005F00013F0E552E552E552E552E70EE66E550E70
:10060000E66EE66A010EE66E6BEC13F0E552E5521B
:10061000E552E55212000E6B0F6B1200F6EC10F073
:10062000070E0101041901E1055101E199D0060EFF
:10063000041901E1055101E17FD0050E041901E122
:1006400005516AE0040E041901E1055155E0030E5D
:10065000041901E1055140E0020E041901E10551C0
:100660002BE0010E041901E1055116E0045101E0EF
:1006700084D0055101E081D0D60EE66E550EE66EAF
:10068000E66AE66A6BEC13F0E552E552E552E55294
:10069000C50EE66E550E5FD0B40EE66E550EE66ED4
:1006A000E66AE66A6BEC13F0E552E552E552E55274
:1006B000A30EE66E550E4FD0920EE66E550EE66E08
:1006C000E66AE66A6BEC13F0E552E552E552E55254
:1006D000810EE66E550E3FD0700EE66E550EE66E3C
:1006E000E66AE66A6BEC13F0E552E552E552E55234
:1006F0005F0EE66E550E2FD04E0EE66E550EE66E70
:10070000E66AE66A6BEC13F0E552E552E552E55213
:100710003D0EE66E550E1FD02C0EE66E550EE66EA3
:10072000E66AE66A6BEC13F0E552E552E552E552F3
:100730001B0EE66E550E0FD00A0EE66E550EE66ED7
:10074000E66AE66A6BEC13F0E552E552E552E552D3
:10075000F90EE66E540EE66EE66A010EE66E06D0FF
:10076000E80EE66E540EE66EE66AE66A6BEC13F08F
:10077000E552E552E552E5521200046B056B12009A
:10078000F6EC10F0070E0101041901E1055101E139
:1007900099D0060E041901E1055101E17FD0050E43
:1007A000041901E105516AE0040E041901E1055143
:1007B00055E0030E041901E1055140E0020E041951
:1007C00001E105512BE0010E041901E1055116E08C
:1007D000045101E084D0055101E081D0D70EE66ECE
:1007E000540EE66EE66AE66A6BEC13F0E552E552EB
:1007F000E552E552C60EE66E540E5FD0B50EE66EBB
:10080000540EE66EE66AE66A6BEC13F0E552E552CA
:10081000E552E552A40EE66E540E4FD0930EE66EEE
:10082000540EE66EE66AE66A6BEC13F0E552E552AA
:10083000E552E552820EE66E540E3FD0710EE66E22
:10084000540EE66EE66AE66A6BEC13F0E552E5528A
:10085000E552E552600EE66E540E2FD04F0EE66E56
:10086000540EE66EE66AE66A6BEC13F0E552E5526A
:10087000E552E5523E0EE66E540E1FD02D0EE66E8A
:10088000540EE66EE66AE66A6BEC13F0E552E5524A
:10089000E552E5521C0EE66E540E0FD00B0EE66EBE
:1008A000540EE66EE66AE66A6BEC13F0E552E5522A
:1008B000E552E552FA0EE66E530EE66EE66A010E5A
:1008C000E66E06D0E90EE66E530EE66EE66AE66A5E
:1008D0006BEC13F0E552E552E552E5521200046B61
:1008E000056B1200F6EC10F0E10EE66E530EE66EAC
:1008F000E66AE66A6BEC13F0E552E552E552E55222
:1009000002C100F003C101F0026A036A01AE02D025
:100910000268036800C0E6FF01C0E6FF02C0E6FF10
:1009200003C0E6FF070EE66EE66A44EC12F0046EC2
:10093000060EE15E0450D90EE66E530EE66EE66AD0
:10094000010EE66E6BEC13F0E552E552E552E5520E
:100950001200F6EC10F00001865101019E5D0001CD
:10096000875101019F5927E2D30EE66E530EE66EC2
:10097000E66AE66A6BEC13F0E552E552E552E552A1
:1009800086C000F087C001F0026A036A86C0E6FFF5
:1009900087C0E6FF02C0E6FF03C0E6FF060EE66E74
:1009A000E66A96EC13F0046E060EE15E0450CB0E80
:1009B000E66E530E6FD20101AC510001865D01015C
:1009C000AD510001875927E2D30EE66E530EE66E55
:1009D000E66AE66A6BEC13F0E552E552E552E55241
:1009E00086C000F087C001F0026A036A86C0E6FF95
:1009F00087C0E6FF02C0E6FF03C0E6FF060EE66E14
:100A0000E66A96EC13F0046E060EE15E0450C20E28
:100A1000E66E530E3FD2000188510101A05D000136
:100A200089510101A15927E2BC0EE66E530EE66E14
:100A3000E66AE66A6BEC13F0E552E552E552E552E0
:100A400088C000F089C001F0026A036A88C0E6FF2E
:100A500089C0E6FF02C0E6FF03C0E6FF060EE66EB1
:100A6000E66A96EC13F0046E060EE15E0450B40ED6
:100A7000E66E530E0FD20101AE510001885D0101F7
:100A8000AF510001895927E2BC0EE66E530EE66EA7
:100A9000E66AE66A6BEC13F0E552E552E552E55280
:100AA00088C000F089C001F0026A036A88C0E6FFCE
:100AB00089C0E6FF02C0E6FF03C0E6FF060EE66E51
:100AC000E66A96EC13F0046E060EE15E0450AB0E7F
:100AD000E66E530EDFD100018A510101A25D0001D3
:100AE0008B510101A35927E2A40EE66E530EE66E68
:100AF000E66AE66A6BEC13F0E552E552E552E55220
:100B00008AC000F08BC001F0026A036A8AC0E6FF67
:100B10008BC0E6FF02C0E6FF03C0E6FF060EE66EEE
:100B2000E66A96EC13F0046E060EE15E04509B0E2E
:100B3000E66E530EAFD10101B05100018A5D010193
:100B4000B15100018B5927E2A40EE66E530EE66EFA
:100B5000E66AE66A6BEC13F0E552E552E552E552BF
:100B60008AC000F08BC001F0026A036A8AC0E6FF07
:100B70008BC0E6FF02C0E6FF03C0E6FF060EE66E8E
:100B8000E66A96EC13F0046E060EE15E0450910ED8
:100B9000E66E530E7FD100018C510101A45D00016E
:100BA0008D510101A55927E28A0EE66E530EE66EBD
:100BB000E66AE66A6BEC13F0E552E552E552E5525F
:100BC0008CC000F08DC001F0026A036A8CC0E6FFA1
:100BD0008DC0E6FF02C0E6FF03C0E6FF060EE66E2C
:100BE000E66A96EC13F0046E060EE15E0450810E88
:100BF000E66E530E4FD10101B25100018C5D01012F
:100C0000B35100018D5927E28A0EE66E530EE66E4F
:100C1000E66AE66A6BEC13F0E552E552E552E552FE
:100C20008CC000F08DC001F0026A036A8CC0E6FF40
:100C30008DC0E6FF02C0E6FF03C0E6FF060EE66ECB
:100C4000E66A96EC13F0046E060EE15E0450770E31
:100C5000E66E530E1FD100018E510101A65D000109
:100C60008F510101A75927E2700EE66E530EE66E12
:100C7000E66AE66A6BEC13F0E552E552E552E5529E
:100C80008EC000F08FC001F0026A036A8EC0E6FFDA
:100C90008FC0E6FF02C0E6FF03C0E6FF060EE66E69
:100CA000E66A96EC13F0046E060EE15E0450670EE1
:100CB000E66E530EEFD00101B45100018E5D0101CB
:100CC000B55100018F5927E2700EE66E530EE66EA5
:100CD000E66AE66A6BEC13F0E552E552E552E5523E
:100CE0008EC000F08FC001F0026A036A8EC0E6FF7A
:100CF0008FC0E6FF02C0E6FF03C0E6FF060EE66E09
:100D0000E66A96EC13F0046E060EE15E04505D0E8A
:100D1000E66E530EBFD0000190510101A85D0001A5
:100D200091510101A95927E2560EE66E530EE66E67
:100D3000E66AE66A6BEC13F0E552E552E552E552DD
:100D400090C000F091C001F0026A036A90C0E6FF13
:100D500091C0E6FF02C0E6FF03C0E6FF060EE66EA6
:100D6000E66A96EC13F0046E060EE15E04504D0E3A
:100D7000E66E530E8FD00101B6510001905D010166
:100D8000B7510001915927E2560EE66E530EE66EFA
:100D9000E66AE66A6BEC13F0E552E552E552E5527D
:100DA00090C000F091C001F0026A036A90C0E6FFB3
:100DB00091C0E6FF02C0E6FF03C0E6FF060EE66E46
:100DC000E66A96EC13F0046E060EE15E0450430EE4
:100DD000E66E530E5FD0000192510101AA5D000141
:100DE00093510101AB5927E2BC0EE66E530EE66E3D
:100DF000E66AE66A6BEC13F0E552E552E552E5521D
:100E000092C000F093C001F0026A036A92C0E6FF4C
:100E100093C0E6FF02C0E6FF03C0E6FF060EE66EE3
:100E2000E66A96EC13F0046E060EE15E0450380E8E
:100E3000E66E530E2FD00101B8510001925D010101
:100E4000B951000193592BE2BC0EE66E530EE66ECB
:100E5000E66AE66A6BEC13F0E552E552E552E552BC
:100E600092C000F093C001F0026A036A92C0E6FFEC
:100E700093C0E6FF02C0E6FF03C0E6FF060EE66E83
:100E8000E66A96EC13F0046E060EE15E04502E0E38
:100E9000E66E530EE66EE66A010EE66E06D01F0E93
:100EA000E66E530EE66EE66AE66A6BEC13F0E55208
:100EB000E552E552E55212000101050ED65D000E25
:100EC000D75923E3D6C100F0016A010E00160018BD
:100ED0001CE101501AE10001FA29FA6F170EE76EC2
:100EE000FA19E8AE02D0FA3503D0E750D880FA55A7
:100EF00001E2FA6BFAC0E6FF020EE66E75EC2CF02A
:100F0000E552E5520101D66BD76B050ED85D000E98
:100F1000D9591CE3D8C100F00001016A010E001686
:100F2000001814E1015012E10001FA05FA6FE834EB
:100F300002E3170EFA6FFAC0E6FF020EE66E75ECDA
:100F40002CF0E552E5520101D86BD96B120001017A
:100F5000050ED65D000ED75923E3D6C100F0016A15
:100F6000010E001600181CE101501AE10001F929D8
:100F7000F96F3B0EE76EF919E8AE02D0F93503D0F0
:100F8000E750D880F95501E2F96BF9C0E6FF010E90
:100F9000E66E75EC2CF0E552E5520101D66BD76B8D
:100FA000050ED85D000ED9591CE3D8C100F0000130
:100FB000016A010E0016001814E1015012E100014F
:100FC000F905F96FE83402E33B0EF96FF9C0E6FF6B
:100FD000010EE66E75EC2CF0E552E5520101D86B7E
:100FE000D96B12000101050ED65D000ED75924E31E
:100FF000D6C100F0016A010E001600181DE1015073
:101000001BE10001FB29FB6F070EE76EFB19E8AE41
:1010100002D0FB3503D0E750D880FB5502E2010E29
:10102000FB6FFBC0E6FF030EE66E75EC2CF0E5529D
:10103000E5520101D66BD76B050ED85D000ED9596C
:1010400024E3D8C100F00001016A010E0016001867
:101050001CE101501AE10001FB05FB6F010EE76E78
:10106000FB19E8AE02D0E73402D0E750FB5D02E2A4
:10107000070EFB6FFBC0E6FF030EE66E75EC2CF06F
:10108000E552E5520101D86BD96B12000101050E42
:10109000D65D000ED75924E3D6C100F0016A010ED7
:1010A000001600181DE101501BE10001FC29FC6F36
:1010B0001F0EE76EFC19E8AE02D0FC3503D0E750F6
:1010C000D880FC5502E2010EFC6FFCC0E6FF040E66
:1010D000E66E75EC2CF0E552E5520101D66BD76B4C
:1010E000050ED85D000ED95924E3D8C100F00001E7
:1010F000016A010E001600181CE101501AE10001FE
:10110000FC05FC6F010EE76EFC19E8AE02D0E73477
:1011100002D0E750FC5D02E21F0EFC6FFCC0E6FF50
:10112000040EE66E75EC2CF0E552E5520101D86B29
:10113000D96B12000101050ED65D000ED75924E3CC
:10114000D6C100F0016A010E001600181DE1015021
:101150001BE10001FD29FD6F0C0EE76EFD19E8AEE5
:1011600002D0FD3503D0E750D880FD5502E2010ED4
:10117000FD6FFDC0E6FF050EE66E75EC2CF0E55246
:10118000E5520101D66BD76B050ED85D000ED9591B
:1011900024E3D8C100F00001016A010E0016001816
:1011A0001CE101501AE10001FD05FD6F010EE76E23
:1011B000FD19E8AE02D0E73402D0E750FD5D02E24F
:1011C0000C0EFD6FFDC0E6FF050EE66E75EC2CF013
:1011D000E552E5520101D86BD96B12000101050EF1
:1011E000D65D000ED75923E3D6C100F0016A010E87
:1011F000001600181CE101501AE10001FE29FE6FE3
:10120000630EE76EFE19E8AE02D0FE3503D0E7505C
:10121000D880FE5501E2FE6BFEC0E6FF060EE66ECC
:1012200075EC2CF0E552E5520101D66BD76B050E3B
:10123000D85D000ED9591CE3D8C100F00001016A45
:10124000010E0016001814E1015012E10001FE0524
:10125000FE6FE83402E3630EFE6FFEC0E6FF060E8B
:10126000E66E75EC2CF0E552E5520101D86BD96BB6
:101270001200F6EC10F076EC2EF0010E0101322592
:10128000326F000E3321336F0A0E296E2A6A32C183
:1012900024F033C125F0B7EC2DF020C032F121C08D
:1012A00033F1110E0101061901E1075101E149D1A4
:1012B0000F0E061901E1075101E10AD1100E0619BE
:1012C00001E1075101E1C9D00D0E061901E10751F5
:1012D00001E189D00C0E061901E107514AE00E0E1A
:1012E000061901E107510CE0065101E1075101E047
:1012F000120040EC00F00E0E0101066F076B1200A9
:1013000071DE40EC00F0050E010133AF02D0D89041
:1013100003D0325D000E335910E2F7EC2FF00009D4
:101320000CE01B0EE66E530EE66EE66AE66A6BECA8
:1013300013F0E552E552E552E5520101050EDE5D7E
:10134000000EDF5901E236D1DEC100F0DFC101F04D
:101350000001016A010E001600180AE1015001E0C7
:1013600029D10C0E0101066F076B0101DE6BDF6BEB
:101370001200A2DD40EC00F0050E010133AF02D0F7
:10138000D89003D0325D000E335911E2F7EC2FF004
:1013900000090DE0180EE66E530EE66E040EE66EC2
:1013A000E66A6BEC13F0E552E552E552E5520101B5
:1013B000050EDE5D000EDF5901E2FCD0DEC100F05B
:1013C000DFC101F00001016A010E001600180AE1F8
:1013D000015001E0EFD00D0E0101066F076B010116
:1013E000DE6BDF6B1200B3DD40EC00F0050E010197
:1013F00033AF02D0D89003D0325D000E335911E2E2
:10140000F7EC2FF000090DE0180EE66E530EE66EB5
:10141000070EE66EE66A6BEC13F0E552E552E55214
:10142000E5520101050EDE5D000EDF5901E2C2D07A
:10143000DEC100F0DFC101F00001016A010E0016FB
:1014400000180AE1015001E0B5D0100E0101066F4D
:10145000076B0101DE6BDF6B12006CDE40EC00F00D
:10146000050E010133AF02D0D89003D0325D000EDB
:10147000335912E2F7EC2FF000090EE01B0EE66E76
:10148000530EE66E020EE66E010EE66E6BEC13F086
:10149000E552E552E552E5520101050EDE5D000E12
:1014A000DF5901E287D0DEC100F0DFC101F00001A9
:1014B000016A010E001600180AE1015001E07AD01D
:1014C0000F0E0101066F076B0101DE6BDF6B12006F
:1014D000DDDD40EC00F0050E010133AF02D0D89005
:1014E00003D0325D000E335912E2F7EC2FF0000901
:1014F0000EE0180EE66E530EE66E060EE66E010E58
:10150000E66E6BEC13F0E552E552E552E55201014F
:10151000050EDE5D000EDF594DE3DEC100F0DFC1D8
:1015200001F00001016A010E0016001809E10150E6
:1015300041E1110E0101066F076B0101DE6BDF6BEC
:1015400012004CDE40EC00F0050E010133AF02D07A
:10155000D89003D0325D000E335912E2F7EC2FF031
:1015600000090EE0180EE66E530EE66E0B0EE66EE8
:10157000010EE66E6BEC13F0E552E552E552E552D2
:101580000101050EDE5D000EDF5914E3DEC100F03F
:10159000DFC101F00001016A010E0016001809E127
:1015A000015008E10E0E0101066F076B0101DE6BB1
:1015B000DF6B12001200F6EC10F0010E0101322573
:1015C000326F000E3321336F0A0E296E2A6A32C140
:1015D00024F033C125F0B7EC2DF020C032F121C04A
:1015E00033F10A0E046E2A6E80C025F09DEC2DF0BA
:1015F00025C000F0016A026A036A00AE03D00168E8
:101600000268036800C0E6FF01C0E6FF02C0E6FF13
:1016100003C0E6FF050EE66EE66A44EC12F0056EC6
:10162000060EE15E055080C025F00A0E2A6E9DEC84
:101630002DF021C000F0016A026A036A00AE03D0F7
:1016400001680268036800C0E6FF01C0E6FF02C04F
:10165000E6FF03C0E6FF060EE66EE66A44EC12F013
:10166000046E060EE15E0450050E010133AF02D098
:10167000D89003D0325D000E335922E2F7EC2FF000
:1016800000091EE00101085109111AE1160EE66E6B
:10169000530EE66E050EE66EE66A6BEC13F0E5524D
:1016A000E552E552E552160EE66E530EE66E060E54
:1016B000E66EE66A6BEC13F0E552E552E552E55250
:1016C000070EE66E570EE66E070EE66EE66A6BECE8
:1016D00013F0E552E552E552E5520A0E046E2A6E09
:1016E00081C025F09DEC2DF025C000F0016A026A52
:1016F000036A00AE03D001680268036800C0E6FF19
:1017000001C0E6FF02C0E6FF03C0E6FF080EE66E7A
:10171000E66A44EC12F0056E060EE15E055081C0EB
:1017200025F00A0E2A6E9DEC2DF021C000F0016A12
:10173000026A036A00AE03D001680268036800C051
:10174000E6FF01C0E6FF02C0E6FF03C0E6FF090EA8
:10175000E66EE66A44EC12F0046E060EE15E04509A
:10176000050E010133AF02D0D89003D0325D000ED8
:10177000335924E2F7EC2FF0000920E00101010EBB
:1017800008191CE109511AE1160EE66E530EE66EB9
:10179000080EE66EE66A6BEC13F0E552E552E55290
:1017A000E552160EE66E530EE66E090EE66EE66A1A
:1017B0006BEC13F0E552E552E552E552050EE66E8C
:1017C000530EE66EE66A010EE66E6BEC13F0E55220
:1017D000E552E552E55212000101050ED65D000EFC
:1017E000D75920E3D6C100F0016A010E0016001897
:1017F00019E1015017E1010E01010825086F000EE3
:101800000921096F020E296E2A6A08C124F009C154
:1018100025F0B7EC2DF020C008F121C009F101013D
:10182000D66BD76B050EE05D000EE1592BE3E0C1EE
:1018300000F00001016A010E0016001823E10150BA
:1018400021E10101085109110AE100018029006E1E
:10185000256E180E2A6E9DEC2DF021C080F001013E
:10186000010E08190CE109510AE100018129006EFD
:10187000256E3C0E2A6E9DEC2DF021C081F00101F9
:10188000E06BE16B0101050EE25D000EE35925E31B
:10189000E2C100F00001016A010E001600181DE10E
:1018A00001501BE101010851091102E1000180070B
:1018B0000101010E081904E1095102E1000181074B
:1018C0000001803502E3170E806F0001813502E3CD
:1018D0003B0E816F0101E26BE36B0101050EDE5DE2
:1018E000000EDF5911E3DEC100F00001016A010EB4
:1018F0000016001809E1015007E1010E0101006F17
:0C190000016B0101DE6BDF6BDBEF0AF016
:04190C00D9CFE6FF4A
:10191000E1CFD9FF040EE126DE6ADD6ADECF00F0FA
:10192000DDCF01F0026A036A01AE02D002680368EB
:10193000D950FB0FE96EFF0EDA20EA6EEE50005C24
:10194000EE500158EE500258EE5003581DE2020EC0
:10195000DB6A030EDB6A020EDBCF00F0030EDBCF87
:1019600001F0D890015004E6050E005C000E01580D
:1019700006E2020EDB2A030EEEE3DB2AECD7DF2AB7
:10198000010ECCE3DB2ACAD7040EE15C02E2E16A75
:10199000E552E16EE552E7CFD9FF1200D9CFE6FF5D
:1019A000E1CFD9FF040EE126DE6ADD6ADECF00F06A
:1019B000DDCF01F0026A036A01AE02D0026803685B
:1019C000D950FB0FE96EFF0EDA20EA6EEE50005C94
:1019D000EE500158EE500258EE5003581DE2020E30
:1019E000DB6A030EDB6A020EDBCF00F0030EDBCFF7
:1019F00001F0D890015004E6EE0E005C000E015894
:101A000006E2020EDB2A030EEEE3DB2AECD7DF2A26
:101A1000010ECCE3DB2ACAD7040EE15C02E2E16AE4
:101A2000E552E16EE552E7CFD9FF1200D9CFE6FFCC
:101A3000E1CFD9FF0F0E8116FE0EDB50F00B8112A5
:101A40008186010EE66EE66AE66AE66AA7DFE5527F
:101A5000E552E552E5528196010EE66EE66AE66AC7
:101A6000E66A9CDFE552E552E552E5520F0E81161B
:101A7000FE0EDB38F00B81128186010EE66EE66AFF
:101A8000E66AE66A8BDFE552E552E552E552819659
:101A9000010EE66EE66AE66AE66A80DFE552E55226
:101AA000E552E552E552E7CFD9FF1200D9CFE6FF64
:101AB000E1CFD9FFE652190EE66EE66AE66AE66AFB
:101AC0006DDFE552E552E552E5520F0E8116F80E34
:101AD00081160F0E8116300E81128186010EE66E80
:101AE000E66AE66AE66A5ADFE552E552E552E552F1
:101AF0008196010EE66EE66AE66AE66A4FDFE55217
:101B0000E552E552E5520F0E8116300E81128186A4
:101B1000010EE66EE66AE66AE66A40DFE552E552E5
:101B2000E552E5528196010EE66EE66AE66AE66ADD
:101B300035DFE552E552E552E5520F0E8116300EC3
:101B400081128186010EE66EE66AE66AE66A26DFA3
:101B5000E552E552E552E5528196010EE66EE66ADF
:101B6000E66AE66A1BDFE552E552E552E5520F0EE2
:101B70008116818A8186010EE66EE66AE66AE66A69
:101B80000DDFE552E552E552E5528196010EE66E13
:101B9000E66AE66AE66A02DFE552E552E552E55298
:101BA000280EE66E43DFE5520C0EE66E3FDFE5528F
:101BB000E552E552E7CFD9FF1200D9CFE6FFE1CFDA
:101BC000D9FF020EE126DF6A010EDB6A81940F0E57
:101BD000E66EE66AE66AE66A99DEE552E552E552A5
:101BE000E5520F0E81128186E66EE66AE66AE66AC3
:101BF0008DDEE552E552E552E5520F0E8114E76E97
:101C0000010EE7CFDBFF81960F0EE66EE66AE66A0D
:101C1000E66A7CDEE552E552E552E5520F0E81128E
:101C20008186E66EE66AE66AE66A70DEE552E552AD
:101C3000E552E5520F0E8114DF6E010EDB50DF120C
:101C40008196010EE66EE66AE66AE66A5FDEE552B6
:101C5000E552E552E552DF50006E020EE15C02E211
:101C6000E16AE552E16E0050E552E7CFD9FF12007C
:101C7000D9CFE6FFE1CFD9FFE652DF6A9EDFDF6E04
:101C8000DFBEFCD7DF50E552E552E7CFD9FF1200A7
:101C9000D9CFE6FFE1CFD9FF0F0E8116FE0EDB5044
:101CA00081128186050EE66EE66AE66AE66A2EDE37
:101CB000E552E552E552E5528196050EE66EE66A7A
:101CC000E66AE66A23DEE552E552E552E552E55260
:101CD000E7CFD9FF1200D9CFE6FFE1CFD9FF81943A
:101CE000050EE66EE66AE66AE66A10DEE552E55241
:101CF000E552E552FE0EDBCFE6FFCADFE552FE0EEF
:101D0000DB38F00BE66EC4DFE552E552E7CFD9FFD2
:101D10001200D9CFE6FFE1CFD9FF8184050EE66E30
:101D2000E66AE66AE66AF2DDE552E552E552E55218
:101D3000FE0EDBCFE6FFACDFE552FE0EDB38F00B2C
:101D4000E66EA6DFE5528194E552E7CFD9FF120097
:101D5000D9CFE6FFE1CFD9FFFE0EDBCFE6FFD9DF1B
:101D6000E552E552E7CFD9FF1200D9CFE6FFE1CF28
:101D7000D9FFFE0EDBCFE6FFCCDFE552E552E7CF21
:101D8000D9FF1200D9CFE6FFE1CFD9FFFD0EDBCF9F
:101D9000F6FFFE0EDBCFF7FF0800F5500FE0FD0E5B
:101DA000DBCFF6FFDB2AFE0EDBCFF7FF01E3DB2AFA
:101DB0000800F550E66ED9DFE552E8D7E552E7CFE7
:101DC000D9FF1200D9CFE6FFE1CFD9FFE652FD0ED1
:101DD000DB500F0B006EFE0EDB50010B400DF3507D
:101DE0000024DF6E7F0EDF14800FDF6EDFCFE6FF93
:101DF00072DFE552E552E552E7CFD9FF1200010E3E
:101E0000E66E69DFE552E66AE66ADCDFE552E55236
:101E10001200D9CFE6FFE1CFD9FF050EE126010E72
:101E2000F36EDB6E020EDB6A030EDB6A040EDB6A06
:101E3000DF6ADFCF00F0016A00BE0168FB0EDBCF76
:101E400002F0FC0EDBCF03F001500318E8AE02D025
:101E5000033404D00250005C035001582DE2FD0E03
:101E6000DBCF00F0FE0EDBCF01F0026A036A01AEA9
:101E700002D002680368D950010FE96EDACFEAFF99
:101E800000C027F001C028F002C029F003C02AF0EA
:101E9000EECF22F0EECF23F0EECF24F0EFCF25F0FF
:101EA0003CEC2FF021C0EDFF20C0EDFF1FC0EDFF87
:101EB0001EC0EFFFDF2ABDD7010EDBCF00F0020E00
:101EC000DBCF01F0030EDBCF02F0040EDBCF03F01B
:101ED00000C022F001C023F002C024F003C025F0AE
:101EE000050EE15C02E2E16AE552E16EE552E7CF00
:101EF000D9FF1200D9CFE6FFE1CFD9FF020EE126CC
:101F0000DF6AFB0EDBCF00F0FC0EDBCF01F0FD0E35
:101F1000DBCF02F0FE0EDBCF03F000500110021009
:101F2000031005E1300EE66E20DFE552F4D0D95003
:101F3000FB0FE96EFF0EDA20EA6ED890030EEB502D
:101F4000000A08E6000EEE5C000EEE58000EEE5899
:101F5000000EEE5815E22D0EE66E07DFE552D95061
:101F6000FB0FE96EFF0EDA20EA6E000EEE6CEF1E3C
:101F7000EE22EF1EEE22EF1EEF22ED52ED52ED5259
:101F8000DE52070EDD6E010EDBCF00F0000EE76EB5
:101F90000018E8AE02D0003403D0E750D8800054D7
:101FA00001E3B9D0010EDB04046E056A04BE0568C6
:101FB00004C0E6FF05C0E6FF0A0EE66EE66A29DF0A
:101FC000E552E552E552E55222C000F023C001F08F
:101FD00024C002F025C003F022C027F023C028F05F
:101FE00024C029F025C02AF0FB0EDBCF22F0FC0E26
:101FF000DBCF23F0FD0EDBCF24F0FE0EDBCF25F090
:1020000074EC2FF0225023102410251041E0010E13
:10201000DF6EDB04086E096A08BE096808C0E6FFC7
:1020200009C0E6FF0A0EE66EE66AF3DEE552E55207
:10203000E552E55222C004F023C005F024C006F0AA
:1020400025C007F022C027F023C028F024C029F0C3
:1020500025C02AF0FB0EDBCF22F0FC0EDBCF23F0F5
:10206000FD0EDBCF24F0FE0EDBCF25F074EC2FF05D
:1020700022C000F023C001F024C002F025C003F00C
:10208000300E0026000E012202220322005003D04F
:10209000DF5004E0300EE66E68DEE552010EDB0430
:1020A000046E056A04BE056804C0E6FF05C0E6FFCD
:1020B0000A0EE66EE66AADDEE552E552E552E552FD
:1020C00022C000F023C001F024C002F025C003F0BC
:1020D000D950FB0FE96EFF0EDA20EA6E22C027F01E
:1020E00023C028F024C029F025C02AF0EECF22F02A
:1020F000EECF23F0EECF24F0EFCF25F074EC2FF0ED
:1021000021C0EDFF20C0EDFF1FC0EDFF1EC0EFFF9F
:10211000010EDB0638D7020EE15C02E2E16AE5520D
:10212000E16EE552E7CFD9FF1200D9CFE6FFE1CF4C
:10213000D9FFFD0EDBCFE6FFFE0EDBCFE6FF42DE72
:10214000E552E552D950F90FE96EFF0EDA20EA6E3A
:10215000EECFE6FFEECFE6FFEECFE6FFEFCFE6FFF6
:10216000C9DEE552E552E552E552E552E7CFD9FF27
:102170001200D9CFE6FFE1CFD9FFFD0EDBCFE6FF9E
:10218000FE0EDBCFE6FF1EDEE552E552FB0EDBCF97
:10219000E6FFFC0EDBCFE6FFF5DDE552E552E5524A
:1021A000E7CFD9FF1200D9CFE6FFE1CFD9FF7BCF30
:1021B00000F07CCF01F0040ED89000360136E8061E
:1021C000FBE1410E00260F0E012200500F017D257C
:1021D000E96E01507E21EA6EFE0EDBCFEFFF7D2B14
:1021E000000E7E23E552E7CFD9FF1200D9CFE6FFDC
:1021F000E1CFD9FFE652DF6ADFCF00F0100EE76EC5
:102200000018E8AE02D0E73402D0E750005C18E2D4
:10221000DFCFE9FFEA6AE9BEEA68410EE9260F0E60
:10222000EA22200EEF6EDFCFE9FFEA6AE9BEEA6834
:10223000510EE9260F0EEA22200EEF6EDF2ADCD7C0
:10224000E552E552E7CFD9FF1200D9CFE6FFE1CF43
:10225000D9FFE6520F014051030A52E0010A36E06D
:10226000030A1AE0010A67E1E66AE66AABDDE552B5
:10227000E552DF6A080EDF5C0CE2DF50EA6A410FCC
:10228000E96E0F0EEA22EF50E66E6FDDE552DF2AAF
:10229000F1D70F01010E32D0080EE66EE66A92DD2C
:1022A000E552E552DF6A080EDF5C0DE2080EDF241E
:1022B000EA6A410FE96E0F0EEA22EF50E66E55DD35
:1022C000E552DF2AF0D70F01020E18D0E66A010EA0
:1022D000E66E78DDE552E552DF6A080EDF5C0CE25F
:1022E000DF50EA6A510FE96E0F0EEA22EF50E66EF8
:1022F0003CDDE552DF2AF1D70F01030E406F1CD001
:10230000080EE66E010EE66E5DDDE552E552DF6A0F
:10231000080EDF5C0DE2080EDF24EA6A510FE96E59
:102320000F0EEA22EF50E66E20DDE552DF2AF0D7ED
:102330000F01406B01D0406BE552E552E7CFD9FF6A
:102340001200D9CFE6FFE1CFD9FFE6520F0140518D
:10235000010A1BE0010A32E1E66AE66A33DDE55272
:10236000E552DF6A100EDF5C0CE2DF50EA6A410FD3
:10237000E96E0F0EEA22EF50E66EF7DCE552DF2A37
:10238000F1D70F01010E406F1AD0E66A010EE66E1A
:1023900019DDE552E552DF6A100EDF5C0CE2DF501A
:1023A000EA6A510FE96E0F0EEA22EF50E66EDDDCAD
:1023B000E552DF2AF1D70F01406B01D0406BE552A7
:1023C000E552E7CFD9FF1200D9CFE6FFE1CFD9FF21
:1023D000E652E66AE66AF6DCE552E552DF6A100E7E
:1023E000DF5C0CE2DF50EA6A410FE96E0F0EEA2271
:1023F000EF50E66EBADCE552DF2AF1D7E66A010E4D
:10240000E66EE0DCE552E552DF6A100EDF5C0CE2BE
:10241000DF50EA6A510FE96E0F0EEA22EF50E66EC6
:10242000A4DCE552DF2AF1D7E552E552E7CFD9FF28
:102430001200D9CFE6FFE1CFD9FFFE0EDB50010B32
:102440000F017B6F7C6BFD0EDB500F0B7D6F7E6B86
:102450007BCF00F07CCF01F0040ED890003601361F
:10246000E806FBE1410E00260F0E012200500F018D
:102470007D25E96E01507E21EA6EFC0EDBCFEFFF79
:10248000E552E7CFD9FF1200D9CFE6FFE1CFD9FF60
:10249000020EE126DF6AFE0EDB50010B0F017B6F9F
:1024A0007C6BFD0EDB500F0B7D6F7E6BF90EDBCF6F
:1024B00000F0FA0EDBCF01F0FB0EDBCF02F0FC0EDA
:1024C000DBCF03F0005001100210031005E1300EC5
:1024D000E66E69DEE552F5D0D950F90FE96EFF0ED0
:1024E000DA20EA6ED890030EEB50000A08E6000EE0
:1024F000EE5C000EEE58000EEE58000EEE5815E29F
:102500002D0EE66E50DEE552D950F90FE96EFF0E42
:10251000DA20EA6E000EEE6CEF1EEE22EF1EEE22C7
:10252000EF1EEF22ED52ED52ED52DE52070EDD6E40
:10253000010EDBCF00F0000EE76E0018E8AE02D00F
:10254000003403D0E750D880005401E3BAD0010E24
:10255000DB04046E056A04BE056804C0E6FF05C01E
:10256000E6FF0A0EE66EE66A54DCE552E552E552F5
:10257000E55222C000F023C001F024C002F025C0C3
:1025800003F022C027F023C028F024C029F025C082
:102590002AF0F90EDBCF22F0FA0EDBCF23F0FB0E90
:1025A000DBCF24F0FC0EDBCF25F074EC2FF02250B3
:1025B00023102410251041E0010EDF6EDB04086EAD
:1025C000096A08BE096808C0E6FF09C0E6FF0A0EEE
:1025D000E66EE66A1EDCE552E552E552E55222C09F
:1025E00004F023C005F024C006F025C007F022C087
:1025F00027F023C028F024C029F025C02AF0F90EC6
:10260000DBCF22F0FA0EDBCF23F0FB0EDBCF24F082
:10261000FC0EDBCF25F074EC2FF022C000F023C0BD
:1026200001F024C002F025C003F0300E0026000E99
:10263000012202220322005003D0DF5004E0300EBA
:10264000E66EB1DDE552010EDB04046E056A04BEE0
:10265000056804C0E6FF05C0E6FF0A0EE66EE66AFE
:1026600009EC0FF0E552E552E552E55222C000F0C8
:1026700023C001F024C002F025C003F0D950F90FA7
:10268000E96EFF0EDA20EA6E22C027F023C028F0A0
:1026900024C029F025C02AF0EECF22F0EECF23F09F
:1026A000EECF24F0EFCF25F074EC2FF021C0EDFF3A
:1026B00020C0EDFF1FC0EDFF1EC0EFFF010EDB06C7
:1026C00037D7020EE15C02E2E16AE552E16EE552C3
:1026D000E7CFD9FF1200D9CFE6FFE1CFD9FFFE0E39
:1026E000DB50010B0F017B6F7C6BFD0EDB500F0B82
:1026F0007D6F7E6BFB0EDBCFF6FFFC0EDBCFF7FFB3
:102700000800F5500FE0FB0EDBCFF6FFDB2AFC0ED6
:10271000DBCFF7FF01E3DB2A0800F550E66E43DD6F
:10272000E552E8D7E552E7CFD9FF1200D9CFE6FF4F
:10273000E1CFD9FF050EE126D9CFE9FFDACFEAFFD5
:10274000F90EDBCFEEFFFA0EDBCFEEFFFB0EDBCF99
:10275000EEFFFC0EDBCFEEFFD9CFE9FFDACFEAFFC9
:10276000EECF00F0EECF01F0EECF02F0EFCF03F0AE
:10277000E80E276E030E286E296A2A6A00C022F02E
:1027800001C023F002C024F003C025F00AEC2EF0B3
:1027900022C000F023C001F024C002F025C003F0E5
:1027A00022C0E6FF23C0E6FF24C0E6FF25C0E6FF07
:1027B000FD0EDBCFE6FFFE0EDBCFE6FF65DE046E2F
:1027C000060EE15E0450D9CFE9FFDACFEAFFEECF83
:1027D00022F0EECF23F0EECF24F0EFCF25F0E80E7D
:1027E000276E030E286E296A2A6A0AEC2EF01EC094
:1027F000DEFF1FC0DEFF20C0DEFF21C0DDFFDD5297
:10280000DD52D9CFE9FFDACFEAFFEECF00F0EECF0D
:1028100001F0EECF02F0EFCF03F0640E276E286ACE
:10282000296A2A6A00C022F001C023F002C024F005
:1028300003C025F00AEC2EF022C000F023C001F006
:1028400024C002F025C003F022C0E6FF23C0E6FF4B
:1028500024C0E6FF25C0E6FFFD0EDB28E66EFE0E77
:10286000DBCFE6FF11DE046E060EE15E0450D9CF29
:10287000E9FFDACFEAFFEECF22F0EECF23F0EECF82
:1028800024F0EFCF25F0640E276E286A296A2A6AA1
:102890000AEC2EF01EC0DEFF1FC0DEFF20C0DEFFF0
:1028A00021C0DDFFDD52DD52780EE66E520EE66E7F
:1028B000FD0EDB50020FE66EFE0EDBCFE6FF0BDFF8
:1028C000E552E552E552E552D9CFE9FFDACFEAFF0A
:1028D000EECF00F0EECF01F0EECF02F0EFCF03F03D
:1028E0000A0E276E286A296A2A6A00C022F001C0EF
:1028F00023F002C024F003C025F00AEC2EF022C021
:1029000000F023C001F024C002F025C003F022C073
:10291000E6FF23C0E6FF24C0E6FF25C0E6FFFD0E6C
:10292000DB50030FE66EFE0EDBCFE6FFADDD046E7F
:10293000060EE15E0450D9CFE9FFDACFEAFFEECF11
:1029400022F0EECF23F0EECF24F0EFCF25F0E80E0B
:10295000276E030E286E296A2A6A0AEC2EF01EC022
:10296000DEFF1FC0DEFF20C0DEFF21C0DDFFDD5225
:10297000DD52D9CFE9FFDACFEAFFEECF00F0EECF9C
:1029800001F0EECF02F0EFCF03F00A0E276E286AB7
:10299000296A2A6A00C022F001C023F002C024F094
:1029A00003C025F00AEC2EF01EC000F01FC001F09D
:1029B00020C002F021C003F01EC0E6FF1FC0E6FFEA
:1029C00020C0E6FF21C0E6FFFD0EDB50040FE66EDF
:1029D000FE0EDBCFE6FF58DD046E060EE15E04500E
:1029E000050EE15C02E2E16AE552E16EE552E7CFF5
:0429F000D9FF1200F9
:0C29F400D9CFE6FFE1CFD9FF020EE126AB
:102A0000DE6ADD6A8AD8DFEC2BF0FFEC0EF0F6EC24
:102A100010F0000EE66EE66AEAD8E552E552E80EDE
:102A2000E66E030EE66E35D8E552E5523EEC2EF02A
:102A300092D925DAB9DAE1DB92EC19F049DB27EC1F
:102A40001AF0000180510001FA5D0AE10001815194
:102A50000001F95D05E1000EE66EE66AA0D804D03B
:102A6000000EE66EE66AC3D8E552E5520201D305D0
:102A70000DE1320EE66EE66AABEC26F0E552E55269
:102A8000D3EC26F066EC1DF0BCEC1AF025EC11F04E
:102A9000CFD7D9CFE6FFE1CFD9FF040EE126DE6A1A
:102AA000DD6ADECF00F0DDCF01F0FD0EDBCF02F0FE
:102AB000FE0EDBCF03F001500318E8AE02D0033462
:102AC00004D00250005C035001581DE2020EDB6A84
:102AD000030EDB6A020EDBCF00F0030EDBCF01F04A
:102AE000D890015004E6EE0E005C000E015806E29C
:102AF000020EDB2A030EEEE3DB2AECD7DF2A010EFF
:102B0000D0E3DB2ACED7040EE15C02E2E16AE552B3
:102B1000E16EE552E7CFD9FF1200936A926A56EC54
:102B20000DF0956A836AB5EC2CF0E80EE66E030EA4
:102B3000E66EAFDFE552E552570EE66E120EE66E18
:102B40003CEC24F0E552E552AE0EE66E240EE66E45
:102B5000DEEC24F0E552E552660EE66EB70EE66E48
:102B60009FEC25F0E552E552020EE66EE66A7AEC3D
:102B700026F0E552E5520A0EE66EE66A8CEC26F087
:102B8000E552E552320EE66EE66AABEC26F0E5520F
:102B9000E552CEEC26F06EEC21F0F6EF2EF0D9CF18
:102BA000E6FFE1CFD9FFFE0EDBCF01F0800E01146E
:102BB0001AE1FD0EDBCF02F0FE0EDBCF03F0033493
:102BC00004E202500708000E03540DE3FD0EDBCFB4
:102BD000E9FFFE0EDBCFEAFFE80EE926020EEA224D
:102BE000EF508310836EE552E7CFD9FF1200D9CFA3
:102BF000E6FFE1CFD9FFFE0EDBCF01F0800E01141E
:102C00001AE1FD0EDBCF02F0FE0EDBCF03F0033442
:102C100004E202500708000E03540DE3FD0EDBCF63
:102C2000E9FFFE0EDBCFEAFFE80EE926020EEA22FC
:102C3000EF1C8314836EE552E7CFD9FF1200D9CF82
:102C4000E6FFE1CFD9FFFD0EDBCFE9FFFE0EDBCFC4
:102C5000EAFFF00EE926020EEA22EF0415E1FD0E6E
:102C6000DBCFE6FFFE0EDBCFE6FFC1DFE552E5522C
:102C7000FD0EDBCFE9FFFE0EDBCFEAFFF00EE9260B
:102C8000020EEA22EF6A15D0FD0EDBCFE6FFFE0E44
:102C9000DBCFE6FF84DFE552E552FD0EDBCFE9FF37
:102CA000FE0EDBCFEAFFF00EE926020EEA22010E4D
:102CB000EF6EE552E7CFD9FF1200D9CFE6FFE1CFA3
:102CC000D9FF020EE126DE6ADD6ADECF00F0DDCF3D
:102CD00001F0013404E200500708000E015421E322
:102CE000DECFE6FFDDCFE6FF5ADFE552E552F40E18
:102CF000E66E010EE66ECDDEE552E552DECFE6FF72
:102D0000DDCFE6FF74DFE552E552F40EE66E010E0C
:102D1000E66EBFDEE552E552DF2A010ED6E3DB2A7E
:102D2000D4D7020EE15C02E2E16AE552E16EE552BF
:102D3000E7CFD9FF12000101010ED81903E1D951E3
:102D400001E1010C000C0101010ED61903E1D7517C
:102D500001E1010C000CD9CFE6FFE1CFD9FF020E53
:102D6000E126E66AFDEC2EF0E552F3CF50F1F4CF08
:102D700051F10101526B536B51AF02D0526953694B
:102D800073C1E9FFEA6AE9BEEA68D890E936EA3633
:102D9000940EE926000EEA2250C1EEFF51C1EDFF6C
:102DA00001017329006E256E320E2A6E9DEC2DF006
:102DB00021C073F121C06CF10101346B356B366BAE
:102DC000376BDE6ADD6ADECF00F0DDCF01F0D89030
:102DD000015004E6320E005C000E01582FE26CC177
:102DE000E9FFEA6AE9BEEA68D890E936EA36940E65
:102DF000E926000EEA22EECF00F0EFCF01F0026AE2
:102E0000036A340EE96E010EEA6EEE5000240101F1
:102E1000346FEE500120356FEE500220366FEE50C9
:102E20000320376F01016C5103E1310E6C6F01D04B
:102E30006C07DF2A010EC7E3DB2AC5D7320E276EE7
:102E4000286A296A2A6A34C122F035C123F036C1C2
:102E500024F037C125F074EC2FF022C034F123C0E8
:102E600035F124C036F125C037F1020EE15C02E2F3
:102E7000E16AE552E16EE552E7CFD9FF1200D9CF02
:102E8000E6FFE1CFD9FF020EE126010EE66EFDEC72
:102E90002EF0E552F3CF54F1F4CF55F10101566B0A
:102EA000576B55AF02D05669576974C1E9FFEA6A9A
:102EB000E9BEEA68D890E936EA36000EE926020E45
:102EC000EA2254C1EEFF55C1EDFF01017429006EE5
:102ED000256E320E2A6E9DEC2DF021C074F121C0BA
:102EE0006DF10101386B396B3A6B3B6BDE6ADD6A61
:102EF000DECF00F0DDCF01F0D890015004E6320EB5
:102F0000005C000E01582FE26DC1E9FFEA6AE9BEDC
:102F1000EA68D890E936EA36000EE926020EEA227F
:102F2000EECF00F0EFCF01F0026A036A380EE96ECF
:102F3000010EEA6EEE5000240101386FEE500120C0
:102F4000396FEE5002203A6FEE5003203B6F0101C3
:102F50006D5103E1310E6D6F01D06D07DF2A010E57
:102F6000C7E3DB2AC5D7320E276E286A296A2A6A88
:102F700038C122F039C123F03AC124F03BC125F019
:102F800074EC2FF022C038F123C039F124C03AF19B
:102F900025C03BF1020EE15C02E2E16AE552E16E1E
:102FA000E552E7CFD9FF1200D9CFE6FFE1CFD9FF35
:102FB000020EE126E66EFDEC2EF0E552F3CF58F15D
:102FC000F4CF59F101015A6B5B6B59AF02D05A69CA
:102FD0005B6975C1E9FFEA6AE9BEEA68D890E9363B
:102FE000EA36640EE926020EEA2258C1EEFF59C104
:102FF000EDFF01017529006E256E320E2A6E9DECE3
:103000002DF021C075F121C06EF101013C6B3D6BCB
:103010003E6B3F6BDE6ADD6ADECF00F0DDCF01F094
:10302000D890015004E6320E005C000E01582FE2E9
:103030006EC1E9FFEA6AE9BEEA68D890E936EA3685
:10304000640EE926020EEA22EECF00F0EFCF01F087
:10305000026A036A3C0EE96E010EEA6EEE5000242D
:1030600001013C6FEE5001203D6FEE5002203E6F9B
:10307000EE5003203F6F01016E5103E1310E6E6F80
:1030800001D06E07DF2A010EC7E3DB2AC5D7320E57
:10309000276E286A296A2A6A3CC122F03DC123F0C2
:1030A0003EC124F03FC125F074EC2FF022C03CF16A
:1030B00023C03DF124C03EF125C03FF1020EE15C8A
:1030C00002E2E16AE552E16EE552E7CFD9FF120074
:1030D000D9CFE6FFE1CFD9FF020EE126030EE66E5F
:1030E000FDEC2EF0E552F3CF5CF1F4CF5DF1010180
:1030F0005E6B5F6B5DAF02D05E695F6976C1E9FFB1
:10310000EA6AE9BEEA68D890E936EA36000EE926AE
:10311000040EEA225CC1EEFF5DC1EDFF01017629DC
:10312000006E256E320E2A6E9DEC2DF021C076F1D8
:1031300021C06FF10101406B416B426B436BDE6A52
:10314000DD6ADECF00F0DDCF01F0D890015004E65B
:10315000320E005C000E01582FE26FC1E9FFEA6AEF
:10316000E9BEEA68D890E936EA36000EE926040E90
:10317000EA22EECF00F0EFCF01F0026A036A400EC0
:10318000E96E010EEA6EEE5000240101406FEE5030
:103190000120416FEE500220426FEE500320436F3A
:1031A00001016F5103E1310E6F6F01D06F07DF2A0C
:1031B000010EC7E3DB2AC5D7320E276E286A296ABB
:1031C0002A6A40C122F041C123F042C124F043C128
:1031D00025F074EC2FF022C040F123C041F124C04F
:1031E00042F125C043F1020EE15C02E2E16AE552E0
:1031F000E16EE552E7CFD9FF1200D9CFE6FFE1CF6C
:10320000D9FF020EE126040EE66EFDEC2EF0E5522B
:10321000F3CF60F1F4CF61F10101626B636B61AFD9
:1032200002D06269636977C1E9FFEA6AE9BEEA68C8
:10323000D890E936EA36640EE926040EEA2260C127
:10324000EEFF61C1EDFF01017729006E256E320EA0
:103250002A6E9DEC2DF021C077F121C070F10101A3
:10326000446B456B466B476BDE6ADD6ADECF00F070
:10327000DDCF01F0D890015004E6320E005C000E64
:1032800001582FE270C1E9FFEA6AE9BEEA68D89006
:10329000E936EA36640EE926040EEA22EECF00F0A3
:1032A000EFCF01F0026A036A440EE96E010EEA6E86
:1032B000EE5000240101446FEE500120456FEE50A6
:1032C0000220466FEE500320476F0101705103E169
:1032D000310E706F01D07007DF2A010EC7E3DB2AC1
:1032E000C5D7320E276E286A296A2A6A44C122F09D
:1032F00045C123F046C124F047C125F074EC2FF0FE
:1033000022C044F123C045F124C046F125C047F155
:10331000020EE15C02E2E16AE552E16EE552E7CFBE
:10332000D9FF1200D9CFE6FFE1CFD9FF020EE12687
:10333000050EE66EFDEC2EF0E552F3CF64F1F4CF0E
:1033400065F10101666B676B65AF02D066696769FD
:1033500078C1E9FFEA6AE9BEEA68D890E936EA3658
:10336000000EE926030EEA2264C1EEFF65C1EDFFFF
:1033700001017829006E256E320E2A6E9DEC2DF02B
:1033800021C078F121C071F10101486B496B4A6B92
:103390004B6BDE6ADD6ADECF00F0DDCF01F0D89046
:1033A000015004E6320E005C000E01582FE271C19C
:1033B000E9FFEA6AE9BEEA68D890E936EA36000E23
:1033C000E926030EEA22EECF00F0EFCF01F0026A09
:1033D000036A480EE96E010EEA6EEE500024010108
:1033E000486FEE500120496FEE5002204A6FEE50B8
:1033F00003204B6F0101715103E1310E716F01D058
:103400007107DF2A010EC7E3DB2AC5D7320E276E0C
:10341000286A296A2A6A48C122F049C123F04AC1B0
:1034200024F04BC125F074EC2FF022C048F123C0EA
:1034300049F124C04AF125C04BF1020EE15C02E2E1
:10344000E16AE552E16EE552E7CFD9FF1200D9CF2C
:10345000E6FFE1CFD9FF020EE126060EE66EFDEC97
:103460002EF0E552F3CF68F1F4CF69F101016A6BF8
:103470006B6B69AF02D06A696B6979C1E9FFEA6A6F
:10348000E9BEEA68D890E936EA36640EE926030E0A
:10349000EA2268C1EEFF69C1EDFF01017929006EE2
:1034A000256E320E2A6E9DEC2DF021C079F121C0DF
:1034B00072F101014C6B4D6B4E6B4F6BDE6ADD6A36
:1034C000DECF00F0DDCF01F0D890015004E6320EDF
:1034D000005C000E01582FE272C1E9FFEA6AE9BE02
:1034E000EA68D890E936EA36640EE926030EEA2245
:1034F000EECF00F0EFCF01F0026A036A4C0EE96EE6
:10350000010EEA6EEE50002401014C6FEE500120D6
:103510004D6FEE5002204E6FEE5003204F6F0101B1
:10352000725103E1310E726F01D07207DF2A010E72
:10353000C7E3DB2AC5D7320E276E286A296A2A6AB2
:103540004CC122F04DC123F04EC124F04FC125F0F3
:1035500074EC2FF022C04CF123C04DF124C04EF189
:1035600025C04FF1020EE15C02E2E16AE552E16E34
:10357000E552E7CFD9FF1200D9CFE6FFE1CFD9FF5F
:10358000040EE126010E00018225826F000E8321C8
:10359000836F280E296E2A6A82C024F083C025F02A
:1035A000B5EC2FF020C082F021C083F00001205044
:1035B000211001E070D27AC100F07BC101F0026AF3
:1035C000036A01017A510101905D086E9151010178
:1035D0007B55096E0A6A0B6A34C122F035C123F0AB
:1035E00036C124F037C125F008C027F0286E0AC084
:1035F00029F00BC02AF03CEC2FF01EC004F01FC0D5
:1036000005F020C006F021C007F02768030E286EE1
:10361000296A2A6A1EC022F01FC023F020C024F0AD
:1036200021C025F00AEC2EF022C004F023C005F0E2
:1036300024C006F025C007F02250002623500122A6
:10364000245002222550032200C086F001C087F0DA
:1036500038C122F039C123F03AC124F03BC125F032
:10366000100E276E270E286E296A2A6A3CEC2FF06E
:103670001EC022F01FC023F020C024F021C025F07E
:103680002768030E286E296A2A6A0AEC2EF022C0E7
:1036900088F023C089F03CC122F03DC123F03EC137
:1036A00024F03FC125F0D00E276E070E286E296A40
:1036B0002A6A3CEC2FF01EC022F01FC023F020C06D
:1036C00024F021C025F02768030E286E296A2A6A93
:1036D0000AEC2EF022C08AF023C08BF088C104F0DF
:1036E00089C105F0066A076A01018A5101018E5DF0
:1036F000186E8F5101018B55196E1A6A1B6A0101F0
:10370000885101018C5D146E8D5101018955156E32
:10371000166A176A8AC110F08BC111F0126A136A17
:1037200010500101405D0C6E115041590D6E125048
:1037300042590E6E135043590F6E0CC022F00DC04B
:1037400023F00EC024F0256E14C027F015C028F019
:1037500016C029F017C02AF03CEC2FF01EC008F06C
:103760001FC009F020C00AF021C00BF01EC022F0DB
:103770001FC023F020C024F021C025F018C027F07E
:1037800019C028F01AC029F01BC02AF00AEC2EF04C
:1037900004502224006E05502320016E0650242080
:1037A000026E07502520036E00C090F001C091F01A
:1037B00044C100F045C101F046C102F047C103F029
:1037C000A00E276E0F0E286E296A2A6A44C122F0C5
:1037D00045C123F046C124F047C125F03CEC2FF051
:1037E0001EC000F01FC001F020C002F021C003F095
:1037F0002768030E286E296A2A6A1EC022F01FC09D
:1038000023F020C024F021C025F00AEC2EF022C0C5
:1038100000F023C001F024C002F025C003F0E80E40
:103820000026030E0122000E0222032200C08CF0AB
:1038300001C08DF048C100F049C101F04AC102F059
:103840004BC103F0400E276E1F0E286E296A2A6AAC
:1038500048C122F049C123F04AC124F04BC125F0F0
:103860003CEC2FF01EC000F01FC001F020C002F0A1
:1038700021C003F02768030E286E296A2A6A1EC039
:1038800022F01FC023F020C024F021C025F00AEC54
:103890002EF022C000F023C001F024C002F025C0A9
:1038A00003F0D00E0026070E0122000E0222032292
:1038B00000C08EF001C08FF04CC122F04DC123F04A
:1038C0004EC124F04FC125F0A00E276E8C0E286E3D
:1038D000296A2A6A3CEC2FF01EC022F01FC023F098
:1038E00020C024F021C025F02768030E286E296A25
:1038F0002A6A0AEC2EF022C092F023C093F0CA0E7E
:10390000E66E520EE66EEFEC21F0E552E55286C00F
:1039100000F087C001F0026A036A86C0E6FF87C034
:10392000E6FF02C0E6FF03C0E6FFA1EC23F0E5528C
:10393000E552E552E552C10EE66E520EE66EEFEC30
:1039400021F0E552E55288C000F089C001F0026A1A
:10395000036A88C0E6FF89C0E6FF02C0E6FF03C035
:10396000E6FFA1EC23F0E552E552E552E552B50E33
:10397000E66E520EE66EEFEC21F0E552E5528AC09B
:1039800000F08BC001F0026A036A8AC0E6FF8BC0B8
:10399000E6FF02C0E6FF03C0E6FFA1EC23F0E5521C
:1039A000E552E552E552A90EE66E520EE66EEFECD8
:1039B00021F0E552E55290C000F091C001F0026A9A
:1039C000036A90C0E6FF91C0E6FF02C0E6FF03C0B5
:1039D000E6FFA1EC23F0E552E552E552E552A00ED8
:1039E000E66E520EE66EEFEC21F0E552E5528CC029
:1039F00000F08DC001F0026A036A8CC0E6FF8DC042
:103A0000E6FF02C0E6FF03C0E6FFA1EC23F0E552AB
:103A1000E552E552E552940EE66E520EE66EEFEC7C
:103A200021F0E552E5528EC000F08FC001F0026A2D
:103A3000036A8EC0E6FF8FC0E6FF02C0E6FF03C048
:103A4000E6FFA1EC23F0E552E552E552E552870E80
:103A5000E66E520EE66EEFEC21F0E552E55292C0B2
:103A600000F093C001F0026A036A92C0E6FF93C0BF
:103A7000E6FF02C0E6FF03C0E6FFA1EC23F0E5523B
:103A8000E552E552E5527E0EE66E520EE66EEFEC22
:103A900021F0E552E552040EE15C02E2E16AE552F2
:103AA000E16EE552E7CFD9FF12009BEC16F000095A
:103AB00004E034C18AF135C18BF1A3EC16F00009A2
:0C3AC00004E034C18EF135C18FF112001A
:043ACC00080E0101DE
:103AD000001901E1015101E165D3070E001901E16F
:103AE000015101E140D3060E001901E1015101E14C
:103AF0001BD3050E001901E1015101E158D2040E5A
:103B0000001901E1015101E195D1030E001901E114
:103B1000015101E16ED1020E001901E1015101E1F3
:103B20007CD0010E001901E101510BE0005101E0D0
:103B3000D2D3015101E0CFD3010E006F016B76EFBC
:103B40002EF0F6EC10F076EC2EF00101050EDA5DA9
:103B5000000EDB5917E3DAC100F00001016A010E23
:103B6000001600180FE101500DE101010E6B0F6B03
:103B70000101046B056B020E0101006F016B010175
:103B8000DA6BDB6B000180510001FA5D43E100015B
:103B900081510001F95D3EE1010E01013225326FD4
:103BA000000E3321336F0A0E296E2A6A32C124F0C7
:103BB00033C125F0B7EC2DF020C032F121C033F134
:103BC000F6EC10F0050E010133AF02D0D89003D00F
:103BD000325D000E335920E2F7EC2FF000091CE0B3
:103BE000F40EE66E520EE66EE66AE66A6BEC13F0D1
:103BF000E552E552E552E552E30EE66E520EE66EF0
:103C0000E66A010EE66E6BEC13F0E552E552E55202
:103C1000E552120040EC00F01200F6EC10F0010149
:103C2000050EDE5D000EDF5917E3DEC100F0000176
:103C3000016A010E001600180FE101500DE10101AB
:103C4000010E0E1909E10F5107E1010E0101006F8C
:103C5000016B0101DE6BDF6B0101050EDE5D000E05
:103C6000DF5917E3DEC100F00001016A010E001602
:103C700000180FE101500DE10101020E0E1909E1DA
:103C80000F5107E1030E0101006F016B0101DE6BB3
:103C9000DF6B0101050EDE5D000EDF591DE3DEC1A5
:103CA00000F00001016A010E0016001815E1015034
:103CB00013E10101030E0E190FE10F510DE1010196
:103CC0000C690D690101046B056B040E0101006FA5
:103CD000016B0101DE6BDF6B0101050EDE5D000E85
:103CE000DF591DE3DEC100F00001016A010E00167C
:103CF000001815E1015013E10101040E0E190FE146
:103D00000F510DE101010A690B69050E0101006FF8
:103D1000016B0101046B056B0101DE6BDF6B0101BF
:103D2000050EDE5D000EDF5917E3DEC100F0000175
:103D3000016A010E001600180FE101500DE10101AA
:103D4000050E0E1909E10F5107E1060E0101006F82
:103D5000016B0101DE6BDF6B0101050EDE5D000E04
:103D6000DF5917E3DEC100F00001016A010E001601
:103D700000180FE101500DE10101060E0E1909E1D5
:103D80000F5107E1070E0101006F016B0101DE6BAE
:103D9000DF6B0101050ED65D000ED75928E3D6C1B1
:103DA00000F00001016A010E0016001820E1015028
:103DB0001EE1010E01010E250E6F000E0F210F6F87
:103DC000070E296E2A6A0EC124F00FC125F0B7EC48
:103DD0002DF020C00EF121C00FF101012050211063
:103DE00003E1010E0E6F0F6B0101D66BD76B69EF0C
:103DF00002F0F6EC10F039EC09F00101050EDA5D85
:103E0000000EDB5901E269D2DAC100F00001016A5B
:103E1000010E001600180DE1015001E05ED2020E05
:103E20000101006F016B01010E6B0F6B0101DA6B79
:103E3000DB6B12000101050ED65D000ED7593CE385
:103E4000D6C100F00001016A010E0016001834E12D
:103E5000015032E1010E01010C250C6F000E0D2105
:103E60000D6F080E296E2A6A0CC124F00DC125F0D1
:103E7000B7EC2DF020C00CF121C00DF1010E0101B5
:103E80000425046F000E0521056F080E296E2A6AAD
:103E900004C124F005C125F0B7EC2DF020C004F1D9
:103EA00021C005F101012050211003E1010E046F32
:103EB000056B0101D66BD76B0101050EE05D000EAD
:103EC000E15928E3E0C100F00001016A010E00168B
:103ED000001820E101501EE10101800E0D151AE1CC
:103EE000010E0101106F116B0CC1E9FF0DC1EAFF5A
:103EF000D890E936EA369E0EE926010EEA22EECF88
:103F000002F1EDCF03F1080E0101006F016B010119
:103F1000E06BE16B0101050EE25D000EE35928E361
:103F2000E2C100F00001016A010E0016001820E154
:103F300001501EE10101800E0D151AE1010E010173
:103F4000126F136B0CC1E9FF0DC1EAFFD890E9367F
:103F5000EA36AC0EE926010EEA22EECF02F1EDCFF1
:103F600003F1080E0101006F016B0101E26BE36BCD
:103F70000101050EDA5D000EDB5917E3DAC100F02E
:103F80000001016A010E001600180FE101500DE159
:103F9000020E0101006F016B01010E6B0F6B01013D
:103FA000046B056B0101DA6BDB6B0EEF03F00101B3
:103FB000050ED65D000ED7593CE3D6C100F00001D6
:103FC000016A010E0016001834E1015032E1010EC1
:103FD00001010A250A6F000E0B210B6F080E296ED6
:103FE0002A6A0AC124F00BC125F0B7EC2DF020C0DD
:103FF0000AF121C00BF1010E01010425046F000E2E
:104000000521056F080E296E2A6A04C124F005C136
:1040100025F0B7EC2DF020C004F121C005F101011D
:104020002050211003E1010E046F056B0101D66BD6
:10403000D76B0101050EDA5D000EDB5917E3DAC11B
:1040400000F00001016A010E001600180FE1015096
:104050000DE1020E0101006F016B01010E6B0F6B90
:104060000101046B056B0101DA6BDB6B0101050ECD
:10407000E05D000EE15928E3E0C100F00001016AB3
:10408000010E0016001820E101501EE10101800E12
:104090000B151AE1010E0101166F176B0AC1E9FF3A
:1040A0000BC1EAFFD890E936EA36BA0EE926010ECE
:1040B000EA22EECF02F1EDCF03F1080E0101006F0D
:1040C000016B0101E06BE16B0101050EE25D000E89
:1040D000E35928E3E2C100F00001016A010E001675
:1040E000001820E101501EE10101800E0B151AE1BC
:1040F000010E0101186F196B0AC1E9FF0BC1EAFF3C
:10410000D890E936EA36C80EE926010EEA22EECF4B
:1041100002F1EDCF03F1080E0101006F016B010107
:10412000E26BE36BC0EF03F00101050EDA5D000EF8
:10413000DB5917E3DAC100F00001016A010E001635
:1041400000180FE101500DE1020E0101006F016B3B
:1041500001010E6B0F6B0101046B056B0101DA6B42
:10416000DB6BA9EF04F00101050EDA5D000EDB59EF
:1041700017E3DAC100F00001016A010E0016001811
:104180000FE101500DE1020E0101006F016B010111
:104190000E6B0F6B0101046B056B0101DA6BDB6BBE
:1041A000ECEF0BF072EC04F00101050ED65D000E91
:1041B000D75911E3D6C100F00001016A010E0016C3
:1041C000001809E1015007E10101022B000E032351
:1041D0000101D66BD76B0101050EDE5D000EDF59C4
:1041E0006DE3DEC100F00001016A010E0016001847
:1041F00065E1015063E10101010E101913E1115154
:1042000011E10CC1E9FF0DC1EAFFD890E936EA36A9
:104210009E0EE926010EEA2202C1EEFF03C1EDFF68
:10422000106B116B0101010E121913E1135111E111
:104230000CC1E9FF0DC1EAFFD890E936EA36AC0EB1
:10424000E926010EEA2202C1EEFF03C1EDFF126B67
:10425000136B0101010E161913E1175111E10AC187
:10426000E9FF0BC1EAFFD890E936EA36BA0EE92633
:10427000010EEA2202C1EEFF03C1EDFF166B176BC0
:104280000101010E181913E1195111E10AC1E9FFE9
:104290000BC1EAFFD890E936EA36C80EE926010ECE
:1042A000EA2202C1EEFF03C1EDFF186B196B020E8B
:1042B0000101006F016B0101DE6BDF6B0101046B1B
:1042C000056B01010E6B0F6B01010C6B0D6B010196
:0C42D0000A6B0B6B1200006B016B1200FC
:0442DC00B06A810E35
:1042E000AF6EAC8AAC94B886AC98AB8EAB889E9A15
:1042F0009D8A9F9A949C948E1200D9CFE6FFE1CFBD
:10430000D9FF040EE126DE6ADD6ADECF00F0DDCFE4
:1043100001F0FD0EDBCF02F0FE0EDBCF03F001500B
:104320000318E8AE02D0033404D00250005C0350FE
:1043300001581DE2020EDB6A030EDB6A020EDBCFC0
:1043400000F0030EDBCF01F0D890015004E6EE0E32
:10435000005C000E015806E2020EDB2A030EEEE3BB
:10436000DB2AECD7DF2A010ED0E3DB2ACED7040EFE
:10437000E15C02E2E16AE552E16EE552E7CFD9FF86
:104380001200D9CFE6FFE1CFD9FF9EA8FED7FE0EDF
:10439000DB50AD6E9E98E552E7CFD9FF1200D9CF22
:1043A000E6FFE1CFD9FFFD0EDBCFE9FFFE0EDBCF4D
:1043B000EAFFEF5010E0FD0EDBCFE9FFFE0EDBCF92
:1043C000EAFFEF50E66EDDDFE552FD0EDB2AFE0E62
:1043D000EAE3DB2AE8D7E552E7CFD9FF1200D9CFCD
:1043E000E6FFE1CFD9FFFD0EDBCFF6FFFE0EDBCF00
:1043F000F7FF0800F55015E0FD0EDBCFF6FFFE0ECF
:10440000DBCFF7FF0800F550E66EBBDFE552FD0E8F
:10441000DBCFF6FFDB2AFE0EDBCFF7FFE4E3DB2A80
:10442000E2D7E552E7CFD9FF1200D9CFE6FFE1CFBF
:10443000D9FF050EE126010EF36EDB6E020EDB6A7C
:10444000030EDB6A040EDB6ADF6ADFCF00F0016A6D
:1044500000BE0168FB0EDBCF02F0FC0EDBCF03F0E9
:1044600001500318E8AE02D0033404D00250005CBF
:10447000035001582DE2FD0EDBCF00F0FE0EDBCF26
:1044800001F0026A036A01AE02D002680368D950E3
:10449000010FE96EDACFEAFF00C027F001C028F073
:1044A00002C029F003C02AF0EECF22F0EECF23F0B5
:1044B000EECF24F0EFCF25F03CEC2FF021C0EDFF44
:1044C00020C0EDFF1FC0EDFF1EC0EFFFDF2ABDD7EC
:1044D000010EDBCF00F0020EDBCF01F0030EDBCFCD
:1044E00002F0040EDBCF03F000C022F001C023F085
:1044F00002C024F003C025F0050EE15C02E2E16A8F
:10450000E552E16EE552E7CFD9FF1200D9CFE6FFC1
:10451000E1CFD9FF020EE126DF6AFB0EDBCF00F010
:10452000FC0EDBCF01F0FD0EDBCF02F0FE0EDBCF89
:1045300003F0005001100210031005E1300EE66E8A
:1045400020DFE552F4D0D950FB0FE96EFF0EDA20E0
:10455000EA6ED890030EEB50000A08E6000EEE5CFF
:10456000000EEE58000EEE58000EEE5815E22D0E1D
:10457000E66E07DFE552D950FB0FE96EFF0EDA2039
:10458000EA6E000EEE6CEF1EEE22EF1EEE22EF1E24
:10459000EF22ED52ED52ED52DE520A0EDD6E010EAB
:1045A000DBCF00F0000EE76E0018E8AE02D000345A
:1045B00003D0E750D880005401E3B9D0010EDB04EA
:1045C000046E056A04BE056804C0E6FF05C0E6FF88
:1045D0000A0EE66EE66A29DFE552E552E552E5523B
:1045E00022C000F023C001F024C002F025C003F077
:1045F00022C027F023C028F024C029F025C02AF0CB
:10460000FB0EDBCF22F0FC0EDBCF23F0FD0EDBCF69
:1046100024F0FE0EDBCF25F074EC2FF02250231097
:104620002410251041E0010EDF6EDB04086E096ADC
:1046300008BE096808C0E6FF09C0E6FF0A0EE66E7C
:10464000E66AF3DEE552E552E552E55222C004F097
:1046500023C005F024C006F025C007F022C027F0D3
:1046600023C028F024C029F025C02AF0FB0EDBCFA0
:1046700022F0FC0EDBCF23F0FD0EDBCF24F0FE0E8C
:10468000DBCF25F074EC2FF022C000F023C001F046
:1046900024C002F025C003F0300E0026000E0122D7
:1046A00002220322005003D0DF5004E0300EE66EF9
:1046B00068DEE552010EDB04046E056A04BE05687F
:1046C00004C0E6FF05C0E6FF0A0EE66EE66AADDE50
:1046D000E552E552E552E55222C000F023C001F058
:1046E00024C002F025C003F0D950FB0FE96EFF0E85
:1046F000DA20EA6E22C027F023C028F024C029F077
:1047000025C02AF0EECF22F0EECF23F0EECF24F03A
:10471000EFCF25F074EC2FF021C0EDFF20C0EDFFAE
:104720001FC0EDFF1EC0EFFF010EDB0638D7020EE3
:10473000E15C02E2E16AE552E16EE552E7CFD9FFC2
:104740001200D9CFE6FFE1CFD9FFFB0EDBCF00F09F
:10475000FC0EDBCF01F0FD0EDBCF02F0FE0EDBCF57
:1047600003F0640E276E286A296A2A6A00C022F0C4
:1047700001C023F002C024F003C025F00AEC2EF0A3
:1047800022C000F023C001F024C002F025C003F0D5
:1047900022C0E6FF23C0E6FF24C0E6FF25C0E6FFF7
:1047A000B5DEE552E552E552E5522E0EE66EE9DD44
:1047B000E552FB0EDBCF00F0FC0EDBCF01F0FD0E6F
:1047C000DBCF02F0FE0EDBCF03F0640E276E286A0B
:1047D000296A2A6A00C022F001C023F002C024F036
:1047E00003C025F00AEC2EF01EC000F01FC001F03F
:1047F00020C002F021C003F01EC0E6FF1FC0E6FF8C
:1048000020C0E6FF21C0E6FF81DEE552E552E55219
:10481000E552E552E7CFD9FF1200D9CFE6FFE1CF4D
:10482000D9FFE652AE50DF6E7A0EE66E520EE66E9D
:10483000E66A010EE66E6BEC13F0E552E552E552C6
:10484000E552DFCF00F0016A026A036A00C0E6FFAA
:1048500001C0E6FF02C0E6FF03C0E6FFE66A010E04
:10486000E66E44EC12F0046E060EE15E0450E55272
:08487000E552E7CFD9FF120069
:08487800D9CFE6FFE1CFD9FF23
:10488000D59EFD0EDBCFC8F2FE0EDBCFC9F2D59C64
:1048900003680468056AC8C206F0C9C207F0086A5E
:1048A0000650035C006E07500458016E085005580E
:1048B000026E286A010E296E2A6A00C023F001C028
:1048C00024F002C025F0DDEC2DF01F50D66E0368F9
:1048D0000468056AC8C206F0C9C207F0086A065033
:1048E000035C006E07500458016E08500558026EB4
:1048F000286A010E296E2A6A00C023F001C024F044
:1049000002C025F0DDEC2DF023C000F024C001F042
:1049100025C002F02350D76ED59AD586F28AF2943C
:10492000F184D58EE552E7CFD9FF1200D59E120053
:1049300003680468056AC8C206F0C9C207F0086ABD
:104940000650035C006E07500458016E085005586D
:10495000026E286A010E296E2A6A00C023F001C087
:1049600024F002C025F0DDEC2DF01F50D66E036858
:104970000468056AC8C206F0C9C207F0086A065092
:10498000035C006E07500458016E08500558026E13
:10499000286A010E296E2A6A00C023F001C024F0A3
:1049A00002C025F0DDEC2DF023C000F024C001F0A2
:1049B00025C002F02350D76ED58E1200D9CFE6FF66
:1049C000E1CFD9FFCD90FD0EDBCFCAF2FE0EDBCFDB
:1049D000CBF203680468056ACAC206F0CBC207F0CE
:1049E000086A0650035C006E07500458016E0850B8
:1049F0000558026E286A010E296E2A6A00C023F04B
:104A000001C024F002C025F0DDEC2DF02350CF6E64
:104A100003680468056ACAC206F0CBC207F0086AD8
:104A20000650035C006E07500458016E085005588C
:104A3000026E286A010E296E2A6A00C023F001C0A6
:104A400024F002C025F0DDEC2DF01FC000F020C0E6
:104A500001F021C002F01F50CE6E9D809E909F906D
:104A6000CD8ECD8CCD98CD9ACD96CD92CD80E55280
:104A7000E7CFD9FF120003680468056ACAC206F0CE
:104A8000CBC207F0086A0650035C006E075004585A
:104A9000016E08500558026E286A010E296E2A6AB6
:104AA00000C023F001C024F002C025F0DDEC2DF0A1
:104AB0002350CF6E03680468056ACAC206F0CBC2F1
:104AC00007F0086A0650035C006E07500458016E38
:104AD00008500558026E286A010E296E2A6A00C025
:104AE00023F001C024F002C025F0DDEC2DF01FC042
:104AF00000F020C001F021C002F01F50CE6ECD802A
:104B00001200CD901200D9CFE6FFE1CFD9FFCA94B1
:104B1000CC6AFE0EDB500201CC6FCD6BCB6E9D825A
:104B20009E929F92CA90CA92CA84E552E7CFD9FF5B
:104B30001200CCC2CBFFCA841200CA941200D9CF93
:104B4000E6FFE1CFD9FFB190FD0EDBCFCEF2FE0E36
:104B5000DBCFCFF203680468056ACEC206F0CFC28D
:104B600007F0086A0650035C006E07500458016E97
:104B700008500558026E286A010E296E2A6A00C084
:104B800023F001C024F002C025F0DDEC2DF023500D
:104B9000B36E03680468056ACEC206F0CFC207F0A0
:104BA000086A0650035C006E07500458016E0850F6
:104BB0000558026E286A010E296E2A6A00C023F089
:104BC00001C024F002C025F0DDEC2DF01FC000F084
:104BD00020C001F021C002F01F50B26EA082A1924D
:104BE000A292B18EB198B19AB192B180E552E7CF5D
:104BF000D9FF120003680468056ACEC206F0CFC26E
:104C000007F0086A0650035C006E07500458016EF6
:104C100008500558026E286A010E296E2A6A00C0E3
:104C200023F001C024F002C025F0DDEC2DF01F5070
:104C3000B26E03680468056ACEC206F0CFC207F000
:104C4000086A0650035C006E07500458016E085055
:104C50000558026E286A010E296E2A6A00C023F0E8
:104C600001C024F002C025F0DDEC2DF023C000F0DF
:104C700024C001F025C002F02350B36EB1801200B1
:104C8000B19012000201D82B000ED923E051D85D5B
:104C9000E151D95904E3D86BD96B010ED06F1200E2
:104CA0000201DA2B000EDB23E251DA5DE351DB591E
:104CB00004E3DA6BDB6B010ED16F12000201DC2B17
:104CC000000EDD23E451DC5DE551DD5904E3DC6BCE
:104CD000DD6B010ED26F12000201DE2B000EDF230E
:104CE000E651DE5DE751DF5904E3DE6BDF6B010E59
:104CF000D36F1200D9CFE6FFE1CFD9FFFD0EDBCF96
:104D0000E0F2FE0EDBCFE1F20201D86BD96BD06B83
:104D1000E552E7CFD9FF1200D9CFE6FFE1CFD9FFA7
:104D2000FD0EDBCFE2F2FE0EDBCFE3F2050E296EC5
:104D30002A6AE2C224F0E3C225F0B7EC2DF024C0C9
:104D4000E2F225C0E3F20201DA6BDB6BD16BE552D4
:104D5000E7CFD9FF1200D9CFE6FFE1CFD9FFFD0E93
:104D6000DBCFE6F2FE0EDBCFE7F20A0E296E2A6AEF
:104D7000E6C224F0E7C225F0B7EC2DF024C0E6F23D
:104D800025C0E7F20201DE6BDF6BD36BE552E7CFA4
:044D9000D9FF120035
:0C4D94000F0E946E82681200CF0E941473
:104DA000946E82681200D9CFE6FFE1CFD9FF040EDE
:104DB000E126DE6ADD6ADECF00F0DDCF01F0D890BB
:104DC000015004E6040E005C000E015801E390D08F
:104DD000DECFE9FFDDCFEAFFF60EE926010EEA227B
:104DE000EF1C826E020EDB6A030EDB6A020EDBCF63
:104DF00000F0030EDBCF01F0D890015004E6040E62
:104E0000005C000E01586EE2020EDBCFE9FF030EDC
:104E1000DBCFEAFFFA0EE926010EEA22EF508214F8
:104E20003FE1DECF04F0DDCF05F0D8900436053643
:104E3000D89004360536020EDB500424E96E030ECA
:104E4000DB500520EA6ED890E936EA36D60EE92620
:104E5000010EEA22EECF02F0EFCF03F0010E0226A0
:104E6000000E0322DECF00F0DDCF01F0D890003637
:104E70000136D89000360136020EDB500024E96E70
:104E8000030EDB500120EA6ED890E936EA36D60EE2
:104E9000E926010EEA2202C0EEFF03C0EDFF1BD09F
:104EA000DECF00F0DDCF01F0D89000360136D8908B
:104EB00000360136020EDB500024E96E030EDB5093
:104EC0000120EA6ED890E936EA36D60EE926010EC0
:104ED000EA22EE6AED6A020EDB2A030E01E286D7B1
:104EE000DB2A84D7DF2A010E01E265D7DB2A63D7EC
:104EF000040EE15C02E2E16AE552E16EE552E7CFC1
:104F0000D9FF1200D9CFE6FFE1CFD9FF040EE12689
:104F1000DE6ADD6ADECF00F0DDCF01F0D89001500F
:104F200004E6020E005C000E015801E394D0DECFCF
:104F3000E9FFDDCFEAFFF60EE926010EEA22EF1CBB
:104F40008214826E0F0E8210826E020EDB6A030ED6
:104F5000DB6A020EDBCF00F0030EDBCF01F0D8904E
:104F6000015004E6040E005C000E01586EE2020ED1
:104F7000DBCFE9FF030EDBCFEAFFFA0EE926010ED5
:104F8000EA22EF5082143FE1DECF04F0DDCF05F0DE
:104F9000D89004360536D89004360536020EDB501C
:104FA0000424E96E030EDB500520EA6ED890E93642
:104FB000EA36D60EE926010EEA22EECF02F0EFCF56
:104FC00003F0010E0226000E0322DECF00F0DDCF3B
:104FD00001F0D89000360136D89000360136020E26
:104FE000DB500024E96E030EDB500120EA6ED890FE
:104FF000E936EA36D60EE926010EEA2202C0EEFFB5
:1050000003C0EDFF1BD0DECF00F0DDCF01F0D89064
:1050100000360136D89000360136020EDB500024EF
:10502000E96E030EDB500120EA6ED890E936EA36CD
:10503000D60EE926010EEA22EE6AED6A020EDB2A9E
:10504000030E01E286D7DB2A84D7DF2A010E01E2B4
:1050500061D7DB2A5FD7040EE15C02E2E16AE55228
:10506000E16EE552E7CFD9FF1200D9CFE6FFE1CFDD
:10507000D9FF040EE126DE6ADD6ADECF00F0DDCF67
:1050800001F0FD0EDBCF02F0FE0EDBCF03F001508E
:105090000318E8AE02D0033404D00250005C035081
:1050A00001581DE2020EDB6A030EDB6A020EDBCF43
:1050B00000F0030EDBCF01F0D890015004E6EE0EB5
:1050C000005C000E015806E2020EDB2A030EEEE33E
:1050D000DB2AECD7DF2A010ED0E3DB2ACED7040E81
:1050E000E15C02E2E16AE552E16EE552E7CFD9FF09
:1050F0001200D9CFE6FFE1CFD9FF040EE126DE6A28
:10510000DD6ADECF00F0DDCF01F0D890015004E67B
:10511000040E005C000E015875E2DECFE9FFDDCF22
:10512000EAFFF60EE926010EEA22EF1C826E020E5D
:10513000DB6A030EDB6A020EDBCF00F0030EDBCF6F
:1051400001F0D890015004E6040E005C000E0158F6
:105150004AE2DECF00F0DDCF01F0D8900036013614
:10516000D89000360136020EDB500024E96E030EA3
:10517000DB500120EA6ED890E936EA36D60EE926F1
:10518000010EEA22EE6AED6A020EDBCFE9FF030EA2
:10519000DBCFEAFFFA0EE926010EEA22EF50821475
:1051A0001CE1DECF00F0DDCF01F0D89000360136F3
:1051B000D89000360136020EDB500024E96E030E53
:1051C000DB500120EA6ED890E936EA36D60EE926A1
:1051D000010EEA22010EEE6EED6A020EDB2A030ECC
:1051E000AAE3DB2AA8D78250816EE80EE66E030E92
:1051F000E66E3BDFE552E552DF2A010E01E281D780
:10520000DB2A7FD7040EE15C02E2E16AE552E16E3F
:10521000E552E7CFD9FF1200D9CFE6FFE1CFD9FFA2
:10522000FD0EDBCFE9FFFE0EDBCFEAFFD890E936BB
:10523000EA36D60EE926010EEA22010ED880EE5497
:10524000000EED5413E2FD0EDBCFE9FFFE0EDBCFC7
:10525000EAFFD890E936EA36D60EE926010EEA22B0
:10526000EE2A000EEF22010EF36E01D0F36AF46A0B
:08527000E552E7CFD9FF12005F
:085278002E0020202000206D13
:10528000332F68200D0A00206D672F6C20464C4F8D
:10529000573D2000206D672F6C204E4F333D20007E
:1052A0002043204E48343D2000206D672F6C205451
:1052B0004D503D2000206D672F6C204353423D2010
:1052C000002070482053533D200032302E30342EC1
:1052D00031362030393A31323A3037202070483D6B
:1052E0002020002A2A2A2A2A2A2A2A2A2A2A2A2A5C
:1052F0002A2A2A0044454E2047494F2054554F49F9
:105300002043415900342E536176652020322E43CC
:10531000616E63656C005F005F5F005F5F5F004B05
:10532000484F4E472043414E482042414F00464C93
:105330004F57205945552000464C4F57204D414E60
:10534000482000544D5020544841502000544D50A6
:105350002043414F2000544D503D2020004E4F33FC
:10536000205448415020004E4F332043414F2000ED
:105370004E4F333D2020004E4834205448415020A9
:10538000004E48342043414F20004E48343D2020F9
:1053900000434F4420544841502000434F44204391
:1053A000414F2000434F443D202000535320544898
:1053B0004150200053532043414F200053533D2080
:1053C000200050482054484150200050482043417C
:1053D0004F200050483D202000342E205361766538
:1053E00000496E7075743A200053455420464C4F66
:1053F00057204144432020203C0053455420544D25
:105400005020414443202020203C00534554204E4E
:105410004F33204144432020202020005345542076
:10542000544D502041444320202020200053455417
:10543000204E4F3320414443202020203C00534540
:1054400054204E483420414443202020203C005327
:10545000455420434F442041444320202020200035
:10546000534554204E4834204144432020202020DE
:105470000053455420434F442041444320202020E2
:105480003C005345542053532041444320202020C6
:10549000203C0053455420504820414443202020C4
:1054A00020202000534554205353204144432020C2
:1054B00020202020005345542050482041444320C0
:1054C000202020203C00353A204D4158202020202B
:1054D00020363A4D494E0020205345542041444344
:1054E000204D4F444520200053455420464C4F57F3
:1054F00020542E482020203C0053455420544D5029
:1055000020542E48202020203C00534554204E4F4C
:105510003320542E4820202020200053455420546E
:105520004D5020542E482020202020005345542048
:105530004E4F3320542E48202020203C0053455409
:10554000204E483420542E48202020203C00534533
:105550005420434F4420542E482020202020005324
:105560004554204E483420542E482020202020002E
:1055700053455420434F4420542E48202020203CA3
:105580000053455420535320542E482020202020DF
:105590003C0053455420504820542E4820202020C1
:1055A00020200053455420535320542E48202020BF
:1055B0002020200053455420504820542E482020BD
:1055C0002020203C00353A204D4158202020203614
:1055D0003A204D494E0020534554205448524553DB
:1055E000484F4C44202000362E53455420414C4116
:1055F000524D202020203C00352E53454520574158
:10560000524E494E4720202000362E53455420410B
:105610004C41524D202020202000352E534545205E
:105620005741524E494E4720203C00342E5345549A
:10563000204144432020202020203C00332E53458D
:10564000542054482E484F4C4420202000342E53E0
:105650004554204144432020202020202000332E88
:105660005345542054482E484F4C4420203C00328F
:105670002E41444A5553542054494D4520203C0066
:10568000312E444953504C41592054494D45202016
:1056900000322E41444A5553542054494D45202050
:1056A0002000312E444953504C41592054494D4516
:1056B000203C002A2A2A2A2A2A2A2A2A2A2A2A2A6C
:1056C0002A2A2A002A2A2A2A204D454E55202A2AEB
:1056D0002A2A2A2A002000444543004E4F56004FF4
:1056E00043540053455000415547004A554C004A29
:1056F000554E004D415900415052004D4152004617
:105700004542004A414E003A00455252005341542E
:1057100000465249005448550057454400545545E9
:09572000004D4F4E0053554E00A0
:01572900007F
:06572A00D9CFE6FFE1CF3C
:10573000D9FF020EE126FE0EDB500F0BDF6EFE0ED0
:10574000DB380F0B0A0D010EF3CFDBFFDB50DF243C
:10575000006E020EE15C02E2E16AE552E16E005089
:10576000E552E7CFD9FF1200D9CFE6FFE1CFD9FF4D
:10577000020EE1260A0E006E2A6EFE0EDBCF25F029
:10578000E9EC2FF02150DF6E0A0E006E2A6EFE0E3D
:10579000DBCF25F0E9EC2FF02550100D010EF3CFF3
:1057A000DBFFDB50DF24006E020EE15C02E2E16A07
:1057B000E552E16E0050E552E7CFD9FF1200949612
:1057C00094981200D9CFE6FFE1CFD9FFE652DF6A05
:1057D000FE0EDB50DF5C02E2DF2AFAD7E552E5522B
:1057E000E7CFD9FF120082A8000C010C0F017F51F6
:1057F00002E08288828682988296010E7F6F120074
:105800008298828682880F017F6B1200D9CFE6FFD3
:10581000E1CFD9FF020EE126DF6ADFCF00F0080EEC
:10582000E76E0018E8AE02D0E73402D0E750005C23
:105830000FE2FE0EDBBE02D0829801D08288828603
:105840008296DB50020DFE0EF3CFDBFFDF2AE5D799
:1058500094888286C8DFE76E010EE7CFDBFF829671
:105860009498DB50006E020EE15C02E2E16AE552C0
:10587000E16E0050E552E7CFD9FF1200D9CFE6FF25
:10588000E1CFD9FF020EE126DF6A9488010EDB6AC0
:10589000DBCF00F0080EE76E0018E8AE02D0E73468
:1058A00002D0E750005C0BE282869DDF006EDF5085
:1058B000E8240010DF6E8296010EDB2AE9D7949867
:1058C000FE0EDB5002E0828801D0829882868296AA
:1058D000DF50006E020EE15C02E2E16AE552E16E29
:1058E0000050E552E7CFD9FF1200D9CFE6FFE1CF54
:1058F000D9FF7CDFD00EE66E89DFE552FE0EDBCFEE
:10590000E6FF84DFE552FD0EDBCFE6FF2DDFE5523B
:10591000E66E7CDFE55274DFE552E7CFD9FF120077
:10592000D9CFE6FFE1CFD9FFE65260DFD00EE66EB9
:105930006DDFE552FE0EDBCFE6FF68DFE55256DF96
:10594000D10EE66E63DFE552010EE66E97DFE5529B
:10595000DF6EDFCFE6FFE9DEE552DF6E51DFDF50BD
:0A596000E552E552E7CFD9FF12002F
:06596A00F28ED08EF28CDB
:105970001200F19CF292F2881200D8CFE4FFE0CF3F
:10598000E4FFE46EDACFE4FFE2CFDAFFE9CFE4FF31
:10599000EACFE4FFF6CFE4FFF7CFE4FFF5CFE4FF73
:1059A000F3CFE4FFF4CFE4FFFACFE4FF00EE1CF006
:1059B000100EE80403E3EECFE4FFFBD700EE00F0A7
:1059C0001C0EE80403E3EECFE4FFFBD7E652F2A49B
:1059D00007D096EC24F0F29498EC24F042EC26F0F8
:1059E0009EA007D081EC25F09E903BEC25F050EC7A
:1059F00026F0A1A207D040EC26F0A192FAEC25F007
:105A00006CEC26F0F2B2F2929EAA03D09E9A0DECB4
:105A100024F0E55200EE1BF01C0EE80403E3E5CF92
:105A2000EDFFFBD700EE2BF0100EE80403E3E5CF0B
:105A3000EDFFFBD7E5CFFAFFE5CFF4FFE5CFF3FFAE
:105A4000E5CFF5FFE5CFF7FFE5CFF6FFE5CFEAFFBE
:105A5000E5CFE9FFE5CFDAFFE550E5CFE0FFE5CFA1
:105A6000D8FF1000DACFE4FFE2CFDAFFE9CFE4FF9E
:105A7000EACFE4FFF6CFE4FFF7CFE4FFF5CFE4FF92
:105A8000F3CFE4FFF4CFE4FFFACFE4FF00EE1CF025
:105A9000100EE80403E3EECFE4FFFBD700EE00F0C6
