:020000040000FA
:0600000018EF2EF01200C3
:020006001200E6
:060008006FEF2BF0120067
:02000E000000F0
:020010000000EE
:06001800FAEF2AF01200CD
:02001E000800D8
:10002000D85D0000C801000028000000D15D00007C
:10003000F8000000070000000B5D00000004000055
:10004000C6000000A35300007F0F00000100000065
:100050000E000000F202000004000000AA5C000094
:10006000000F0000610000009A5C0000F001000039
:10007000100000007A5C0000C802000020000000B0
:100080000001FB51070A24E0010A1EE0030A18E000
:10009000010A12E0070A0CE0010A06E0030A1CE16B
:1000A0009F0EE66E530E1BD09B0EE66E530E17D0BE
:1000B000970EE66E530E13D0930EE66E530E0FD0CE
:1000C0008F0EE66E530E0BD08B0EE66E530E07D0DE
:1000D000870EE66E530E03D0830EE66E530EE66E69
:1000E000E66AE66A0EEC12F0E552E552E552E55298
:1000F0000A0E046E2A6EFAC025F0DAEC2BF025C049
:1001000000F0016A026A036A00AE03D00168026867
:10011000036800C0E6FF01C0E6FF02C0E6FF03C0BF
:10012000E6FF040EE66EE66AE7EC10F0056E060EDA
:10013000E15E0550FAC025F00A0E2A6EDAEC2BF0CB
:1001400021C000F0016A026A036A00AE03D00168B0
:100150000268036800C0E6FF01C0E6FF02C0E6FFD8
:1001600003C0E6FF050EE66EE66AE7EC10F0046EEB
:10017000060EE15E0450810EE66E530EE66E060E2C
:10018000E66EE66A0EEC12F0E552E552E552E552F3
:100190000A0E046E2A6EF9C025F0DAEC2BF025C0A9
:1001A00000F0016A026A036A00AE03D001680268C7
:1001B000036800C0E6FF01C0E6FF02C0E6FF03C01F
:1001C000E6FF070EE66EE66AE7EC10F0056E060E37
:1001D000E15E0550F9C025F00A0E2A6EDAEC2BF02C
:1001E00021C000F0016A026A036A00AE03D0016810
:1001F0000268036800C0E6FF01C0E6FF02C0E6FF38
:1002000003C0E6FF080EE66EE66AE7EC10F0046E47
:10021000060EE15E0450810EE66E530EE66E090E88
:10022000E66EE66A0EEC12F0E552E552E552E55252
:100230000A0E046E2A6EF8C025F0DAEC2BF025C009
:1002400000F0016A026A036A00AE03D00168026826
:10025000036800C0E6FF01C0E6FF02C0E6FF03C07E
:10026000E6FF0A0EE66EE66AE7EC10F0056E060E93
:10027000E15E0550F8C025F00A0E2A6EDAEC2BF08C
:1002800021C000F0016A026A036A00AE03D001686F
:100290000268036800C0E6FF01C0E6FF02C0E6FF97
:1002A00003C0E6FF0B0EE66EE66AE7EC10F0046EA4
:1002B000060EE15E04500001FD510C0A42E0070AFF
:1002C0003CE0010A36E0030A30E0010A2AE00F0AA6
:1002D00024E0010A1EE0030A18E0010A12E0070AFE
:1002E0000CE0010A06E0030A30E17D0EE66E530ED3
:1002F0002FD0790EE66E530E2BD0750EE66E530E90
:1003000027D0710EE66E530E23D06D0EE66E530E9F
:100310001FD0690EE66E530E1BD0650EE66E530EAF
:1003200017D0610EE66E530E13D05D0EE66E530EBF
:100330000FD0590EE66E530E0BD0550EE66E530ECF
:1003400007D0510EE66E530E03D0830EE66E530EA9
:10035000E66E020EE66E010EE66E0EEC12F0E5524F
:10036000E552E552E5524F0EE66E530EE66E050E6F
:10037000E66E010EE66E0EEC12F0E552E552E55225
:10038000E5520A0E046E2A6EFCC025F0DAEC2BF062
:1003900025C000F0016A026A036A00AE03D001685A
:1003A0000268036800C0E6FF01C0E6FF02C0E6FF86
:1003B00003C0E6FF060EE66E010EE66EE7EC10F0F7
:1003C000056E060EE15E0550FCC025F00A0E2A6E91
:1003D000DAEC2BF021C000F0016A026A036A00AE79
:1003E00003D001680268036800C0E6FF01C0E6FFB1
:1003F00002C0E6FF03C0E6FF070EE66E010EE66EE2
:10040000E7EC10F0046E060EE15E04504F0EE66E4F
:10041000530EE66E080EE66E010EE66E0EEC12F05E
:10042000E552E552E552E552140EE66EE66AE66ADA
:10043000E66A090EE66E010EE66EE7EC10F0006E5D
:10044000060EE15E00500A0E046E2A6EFEC025F014
:10045000DAEC2BF025C000F0016A026A036A00AEF4
:1004600003D001680268036800C0E6FF01C0E6FF30
:1004700002C0E6FF03C0E6FF0B0EE66E010EE66E5D
:10048000E7EC10F0056E060EE15E0550FEC025F0AB
:100490000A0E2A6EDAEC2BF021C000F0016A026A23
:1004A000036A00AE03D001680268036800C0E6FF7B
:1004B00001C0E6FF02C0E6FF03C0E6FF0C0EE66ED9
:1004C000010EE66EE7EC10F0046E060EE15E0450DD
:1004D000120099EC0FF0060E0401041901E1055118
:1004E00001E17FD0050E041901E105516AE0040E17
:1004F000041901E1055155E0030E041901E105510C
:1005000040E0020E041901E105512BE0010E04192F
:1005100001E1055116E0045101E07DD0055101E0F3
:100520007AD0400EE66E530EE66EE66AE66A0EEC90
:1005300012F0E552E552E552E552310EE66E530EE9
:100540005FD0200EE66E530EE66EE66AE66A0EECAB
:1005500012F0E552E552E552E552110EE66E530EE9
:100560004FD0010EE66E530EE66EE66AE66A0EECBA
:1005700012F0E552E552E552E552F00EE66E520EEB
:100580003FD0E00EE66E520EE66EE66AE66A0EECCC
:1005900012F0E552E552E552E552D60EE66E520EE5
:1005A0002FD0C70EE66E520EE66EE66AE66A0EECD5
:1005B00012F0E552E552E552E552B70EE66E520EE4
:1005C0001FD0A70EE66E520EE66EE66AE66A0EECE5
:1005D00012F0E552E552E552E552970EE66E520EE4
:1005E0000FD0870EE66E520EE66EE66AE66A0EECF5
:1005F00012F0E552E552E552E552770EE66E520EE4
:10060000E66EE66A010EE66E0EEC12F0E552E55279
:10061000E552E5521200046B056B120099EC0FF0E5
:10062000070E0401041901E1055101E199D0060EFC
:10063000041901E1055101E17FD0050E041901E122
:1006400005516AE0040E041901E1055155E0030E5D
:10065000041901E1055140E0020E041901E10551C0
:100660002BE0010E041901E1055116E0045101E0EF
:1006700084D0055101E081D0660EE66E520EE66E22
:10068000E66AE66A0EEC12F0E552E552E552E552F2
:10069000550EE66E520E5FD0440EE66E520EE66EBA
:1006A000E66AE66A0EEC12F0E552E552E552E552D2
:1006B000330EE66E520E4FD0220EE66E520EE66EEE
:1006C000E66AE66A0EEC12F0E552E552E552E552B2
:1006D000110EE66E520E3FD0FF0EE66E510EE66E24
:1006E000E66AE66A0EEC12F0E552E552E552E55292
:1006F000ED0EE66E510E2FD0DB0EE66E510EE66E5D
:10070000E66AE66A0EEC12F0E552E552E552E55271
:10071000C90EE66E510E1FD0B80EE66E510EE66E93
:10072000E66AE66A0EEC12F0E552E552E552E55251
:10073000A70EE66E510E0FD0960EE66E510EE66EC7
:10074000E66AE66A0EEC12F0E552E552E552E55231
:10075000850EE66E510EE66EE66A010EE66E06D076
:10076000740EE66E510EE66EE66AE66A0EEC12F064
:10077000E552E552E552E5521200046B056B12009A
:1007800099EC0FF0070E0401041901E1055101E194
:1007900099D0060E041901E1055101E17FD0050E43
:1007A000041901E105516AE0040E041901E1055143
:1007B00055E0030E041901E1055140E0020E041951
:1007C00001E105512BE0010E041901E1055116E08C
:1007D000045101E084D0055101E081D0630EE66E42
:1007E000510EE66EE66AE66A0EEC12F0E552E5524C
:1007F000E552E552520EE66E510E5FD0410EE66EA6
:10080000510EE66EE66AE66A0EEC12F0E552E5522B
:10081000E552E552300EE66E510E4FD01F0EE66ED9
:10082000510EE66EE66AE66A0EEC12F0E552E5520B
:10083000E552E5520E0EE66E510E3FD0FC0EE66E0E
:10084000500EE66EE66AE66A0EEC12F0E552E552EC
:10085000E552E552EA0EE66E500E2FD0D80EE66E47
:10086000500EE66EE66AE66A0EEC12F0E552E552CC
:10087000E552E552C60EE66E500E1FD0B50EE66E7E
:10088000500EE66EE66AE66A0EEC12F0E552E552AC
:10089000E552E552A40EE66E500E0FD0930EE66EB2
:1008A000500EE66EE66AE66A0EEC12F0E552E5528C
:1008B000E552E552820EE66E500EE66EE66A010ED5
:1008C000E66E06D0710EE66E500EE66EE66AE66AD9
:1008D0000EEC12F0E552E552E552E5521200046BBF
:1008E000056B120099EC0FF0690EE66E500EE66E85
:1008F000E66AE66A0EEC12F0E552E552E552E55280
:1009000002C400F003C401F0026A036A01AE02D01F
:100910000268036800C0E6FF01C0E6FF02C0E6FF10
:1009200003C0E6FF070EE66EE66AE7EC10F0046E21
:10093000060EE15E0450610EE66E500EE66EE66A4B
:10094000010EE66E0EEC12F0E552E552E552E5526C
:10095000120099EC0FF00001865104019C5D00012A
:10096000875104019D5927E25B0EE66E500EE66E3C
:10097000E66AE66A0EEC12F0E552E552E552E552FF
:1009800086C000F087C001F0026A036A86C0E6FFF5
:1009900087C0E6FF02C0E6FF03C0E6FF060EE66E74
:1009A000E66A39EC12F0046E060EE15E0450530E56
:1009B000E66E500E1FD10001885104019E5D0001BA
:1009C000895104019F5927E24D0EE66E500EE66EE6
:1009D000E66AE66A0EEC12F0E552E552E552E5529F
:1009E00088C000F089C001F0026A036A88C0E6FF8F
:1009F00089C0E6FF02C0E6FF03C0E6FF060EE66E12
:100A0000E66A39EC12F0046E060EE15E0450450E03
:100A1000E66E500EEFD000018A510401A05D000186
:100A20008B510401A15927E23E0EE66E500EE66E90
:100A3000E66AE66A0EEC12F0E552E552E552E5523E
:100A40008AC000F08BC001F0026A036A8AC0E6FF28
:100A50008BC0E6FF02C0E6FF03C0E6FF060EE66EAF
:100A6000E66A39EC12F0046E060EE15E0450350EB3
:100A7000E66E500EBFD000018C510401A25D000152
:100A80008D510401A35927E22E0EE66E500EE66E3C
:100A9000E66AE66A0EEC12F0E552E552E552E552DE
:100AA0008CC000F08DC001F0026A036A8CC0E6FFC2
:100AB0008DC0E6FF02C0E6FF03C0E6FF060EE66E4D
:100AC000E66A39EC12F0046E060EE15E0450250E63
:100AD000E66E500E8FD000018E510401A45D00011E
:100AE0008F510401A55927E21E0EE66E500EE66EE8
:100AF000E66AE66A0EEC12F0E552E552E552E5527E
:100B00008EC000F08FC001F0026A036A8EC0E6FF5B
:100B10008FC0E6FF02C0E6FF03C0E6FF060EE66EEA
:100B2000E66A39EC12F0046E060EE15E0450150E12
:100B3000E66E500E5FD0000190510401A65D0001E9
:100B400091510401A75927E20E0EE66E500EE66E93
:100B5000E66AE66A0EEC12F0E552E552E552E5521D
:100B600090C000F091C001F0026A036A90C0E6FFF5
:100B700091C0E6FF02C0E6FF03C0E6FF060EE66E88
:100B8000E66A39EC12F0046E060EE15E0450050EC2
:100B9000E66E500E2FD0000192510401A85D0001B5
:100BA00093510401A9592BE24D0EE66E500EE66EEC
:100BB000E66AE66A0EEC12F0E552E552E552E552BD
:100BC00092C000F093C001F0026A036A92C0E6FF8F
:100BD00093C0E6FF02C0E6FF03C0E6FF060EE66E26
:100BE000E66A39EC12F0046E060EE15E0450FB0E6C
:100BF000E66E4F0EE66EE66A010EE66E06D0EC0E6D
:100C0000E66E4F0EE66EE66AE66A0EEC12F0E5520C
:100C1000E552E552E55212000101050EC85D000ED5
:100C2000C95923E3C8C100F0016A010E001600187B
:100C30001CE101501AE10001FA29FA6F170EE76E64
:100C4000FA19E8AE02D0FA3503D0E750D880FA5549
:100C500001E2FA6BFAC0E6FF020EE66EB2EC2AF091
:100C6000E552E5520101C86BC96B050ECA5D000E65
:100C7000CB591CE3CAC100F00001016A010E001645
:100C8000001814E1015012E10001FA05FA6FE8348E
:100C900002E3170EFA6FFAC0E6FF020EE66EB2EC40
:100CA0002AF0E552E5520101CA6BCB6B120001013B
:100CB000050EC85D000EC95923E3C8C100F0016AE2
:100CC000010E001600181CE101501AE10001F9297B
:100CD000F96F3B0EE76EF919E8AE02D0F93503D093
:100CE000E750D880F95501E2F96BF9C0E6FF010E33
:100CF000E66EB2EC2AF0E552E5520101C86BC96B11
:100D0000050ECA5D000ECB591CE3CAC100F00001FC
:100D1000016A010E0016001814E1015012E10001F1
:100D2000F905F96FE83402E33B0EF96FF9C0E6FF0D
:100D3000010EE66EB2EC2AF0E552E5520101CA6BF3
:100D4000CB6B12000101050EC85D000EC95924E3EA
:100D5000C8C100F0016A010E001600181DE1015023
:100D60001BE10001FB29FB6F070EE76EFB19E8AEE4
:100D700002D0FB3503D0E750D880FB5502E2010ECC
:100D8000FB6FFBC0E6FF030EE66EB2EC2AF0E55205
:100D9000E5520101C86BC96B050ECA5D000ECB5947
:100DA00024E3CAC100F00001016A010E0016001818
:100DB0001CE101501AE10001FB05FB6F010EE76E1B
:100DC000FB19E8AE02D0E73402D0E750FB5D02E247
:100DD000070EFB6FFBC0E6FF030EE66EB2EC2AF0D7
:100DE000E552E5520101CA6BCB6B12000101050E01
:100DF000C85D000EC95924E3C8C100F0016A010EA4
:100E0000001600181DE101501BE10001FC29FC6FD8
:100E10001F0EE76EFC19E8AE02D0FC3503D0E75098
:100E2000D880FC5502E2010EFC6FFCC0E6FF040E08
:100E3000E66EB2EC2AF0E552E5520101C86BC96BCF
:100E4000050ECA5D000ECB5924E3CAC100F00001B3
:100E5000016A010E001600181CE101501AE10001A0
:100E6000FC05FC6F010EE76EFC19E8AE02D0E7341A
:100E700002D0E750FC5D02E21F0EFC6FFCC0E6FFF3
:100E8000040EE66EB2EC2AF0E552E5520101CA6B9F
:100E9000CB6B12000101050EC85D000EC95924E399
:100EA000C8C100F0016A010E001600181DE10150D2
:100EB0001BE10001FD29FD6F0C0EE76EFD19E8AE88
:100EC00002D0FD3503D0E750D880FD5502E2010E77
:100ED000FD6FFDC0E6FF050EE66EB2EC2AF0E552AE
:100EE000E5520101C86BC96B050ECA5D000ECB59F6
:100EF00024E3CAC100F00001016A010E00160018C7
:100F00001CE101501AE10001FD05FD6F010EE76EC5
:100F1000FD19E8AE02D0E73402D0E750FD5D02E2F1
:100F20000C0EFD6FFDC0E6FF050EE66EB2EC2AF07A
:100F3000E552E5520101CA6BCB6B12000101050EAF
:100F4000C85D000EC95923E3C8C100F0016A010E53
:100F5000001600181CE101501AE10001FE29FE6F85
:100F6000630EE76EFE19E8AE02D0FE3503D0E750FF
:100F7000D880FE5501E2FE6BFEC0E6FF060EE66E6F
:100F8000B2EC2AF0E552E5520101C86BC96B050EBF
:100F9000CA5D000ECB591CE3CAC100F00001016A12
:100FA000010E0016001814E1015012E10001FE05C7
:100FB000FE6FE83402E3630EFE6FFEC0E6FF060E2E
:100FC000E66EB2EC2AF0E552E5520101CA6BCB6B3A
:100FD000120099EC0FF0B3EC2CF0010E0401302557
:100FE000306F000E3121316F0A0E296E2A6A30C42B
:100FF00024F031C425F0F4EC2BF020C030F421C0F3
:1010000031F4110E0401061901E1075101E149D142
:101010000F0E061901E1075101E10AD1100E061960
:1010200001E1075101E1C9D00D0E061901E1075197
:1010300001E189D00C0E061901E107514AE00E0EBC
:10104000061901E107510CE0065101E1075101E0E9
:10105000120040EC00F00E0E0401066F076B120048
:1010600071DE40EC00F0050E040131AF02D0D890E3
:1010700003D0305D000E315910E234EC2EF000093F
:101080000CE0E80EE66E4F0EE66EE66AE66A0EECDF
:1010900012F0E552E552E552E5520101050ED05D30
:1010A000000ED15901E236D1D0C100F0D1C101F01A
:1010B0000001016A010E001600180AE1015001E06A
:1010C00029D10C0E0401066F076B0101D06BD16BA7
:1010D0001200A2DD40EC00F0050E040131AF02D099
:1010E000D89003D0305D000E315911E234EC2EF06F
:1010F00000090DE0E50EE66E4F0EE66E040EE66E9C
:10110000E66A0EEC12F0E552E552E552E5520101B5
:10111000050ED05D000ED15901E2FCD0D0C100F027
:10112000D1C101F00001016A010E001600180AE1A8
:10113000015001E0EFD00D0E0401066F076B0101B5
:10114000D06BD16B1200B3DD40EC00F0050E040152
:1011500031AF02D0D89003D0305D000E315911E28A
:1011600034EC2EF000090DE0E50EE66E4F0EE66E53
:10117000070EE66EE66A0EEC12F0E552E552E55215
:10118000E5520101050ED05D000ED15901E2C2D039
:10119000D0C100F0D1C101F00001016A010E0016BA
:1011A00000180AE1015001E0B5D0100E0401066FED
:1011B000076B0101D06BD16B12006CDE40EC00F0CC
:1011C000050E040131AF02D0D89003D0305D000E7F
:1011D000315912E234EC2EF000090EE0E80EE66E12
:1011E0004F0EE66E020EE66E010EE66E0EEC12F08B
:1011F000E552E552E552E5520101050ED05D000EC3
:10120000D15901E287D0D0C100F0D1C101F0000175
:10121000016A010E001600180AE1015001E07AD0BF
:101220000F0E0401066F076B0101D06BD16B12002A
:10123000DDDD40EC00F0050E040131AF02D0D890A6
:1012400003D0305D000E315912E234EC2EF000096B
:101250000EE0E50EE66E4F0EE66E060EE66E010E31
:10126000E66E0EEC12F0E552E552E552E552010150
:10127000050ED05D000ED1594DE3D0C100F0D1C1B3
:1012800001F00001016A010E0016001809E1015089
:1012900041E1110E0401066F076B0101D06BD16BA8
:1012A00012004CDE40EC00F0050E040131AF02D01C
:1012B000D89003D0305D000E315912E234EC2EF09C
:1012C00000090EE0E50EE66E4F0EE66E0B0EE66EC2
:1012D000010EE66E0EEC12F0E552E552E552E552D3
:1012E0000101050ED05D000ED15914E3D0C100F00C
:1012F000D1C101F00001016A010E0016001809E1D8
:10130000015008E10E0E0401066F076B0101D06B5E
:10131000D16B1200120099EC0FF0010E0401302580
:10132000306F000E3121316F0A0E296E2A6A30C4E7
:1013300024F031C425F0F4EC2BF020C030F421C0AF
:1013400031F40A0E046E2A6E80C025F0DAEC2BF020
:1013500025C000F0016A026A036A00AE03D001688A
:101360000268036800C0E6FF01C0E6FF02C0E6FFB6
:1013700003C0E6FF050EE66EE66AE7EC10F0056EC8
:10138000060EE15E055080C025F00A0E2A6EDAECEA
:101390002BF021C000F0016A026A036A00AE03D09C
:1013A00001680268036800C0E6FF01C0E6FF02C0F2
:1013B000E6FF03C0E6FF060EE66EE66AE7EC10F015
:1013C000046E060EE15E0450050E040131AF02D03A
:1013D000D89003D0305D000E315922E234EC2EF06B
:1013E00000091EE00401085109111AE1E30EE66E3E
:1013F0004F0EE66E050EE66EE66A0EEC12F0E55252
:10140000E552E552E552E30EE66E4F0EE66E060E2D
:10141000E66EE66A0EEC12F0E552E552E552E55250
:10142000810EE66E530EE66E070EE66EE66A0EEC71
:1014300012F0E552E552E552E5520A0E046E2A6EAC
:1014400081C025F0DAEC2BF025C000F0016A026AB9
:10145000036A00AE03D001680268036800C0E6FFBB
:1014600001C0E6FF02C0E6FF03C0E6FF080EE66E1D
:10147000E66AE7EC10F0056E060EE15E055081C0ED
:1014800025F00A0E2A6EDAEC2BF021C000F0016A7A
:10149000026A036A00AE03D001680268036800C0F4
:1014A000E6FF01C0E6FF02C0E6FF03C0E6FF090E4B
:1014B000E66EE66AE7EC10F0046E060EE15E04509C
:1014C000050E040131AF02D0D89003D0305D000E7C
:1014D000315924E234EC2EF0000920E00401010E21
:1014E00008191CE109511AE1E30EE66E4F0EE66E93
:1014F000080EE66EE66A0EEC12F0E552E552E55291
:10150000E552E30EE66E4F0EE66E090EE66EE66AF3
:101510000EEC12F0E552E552E552E55212000101DF
:10152000050EC85D000EC95920E3C8C100F0016A6C
:10153000010E0016001819E1015017E1010E040117
:101540000825086F000E0921096F020E296E2A6A0C
:1015500008C424F009C425F0F4EC2BF020C008F4F2
:1015600021C009F40101C86BC96B050ED25D000EE4
:10157000D3592BE3D2C100F00001016A010E00161D
:10158000001823E1015021E10401085109110AE189
:1015900000018029006E256E180E2A6EDAEC2BF001
:1015A00021C080F00401010E08190CE109510AE183
:1015B00000018129006E256E3C0E2A6EDAEC2BF0BC
:1015C00021C081F00101D26BD36B0101050ED45D06
:1015D000000ED55925E3D4C100F00001016A010EC7
:1015E000001600181DE101501BE10401085109110A
:1015F00002E1000180070401010E081904E109510C
:1016000002E1000181070001803502E3170E806FBF
:101610000001813502E33B0E816F0101D46BD56B74
:101620000101050ECA5D000ECB5911E3CAC100F0DD
:101630000001016A010E0016001809E1015007E1DE
:10164000010E0401006F016B0101CA6BCB6B8BEFC4
:0216500009F09F
:0E165200D9CFE6FFE1CFD9FF040EE126DE6A14
:10166000DD6ADECF00F0DDCF01F0026A036A01AE71
:1016700002D002680368D950FB0FE96EFF0EDA2032
:10168000EA6EEE50005CEE500158EE500258EE50FB
:1016900003581DE2020EDB6A030EDB6A020EDBCF8B
:1016A00000F0030EDBCF01F0D890015004E6050EE8
:1016B000005C000E015806E2020EDB2A030EEEE388
:1016C000DB2AECD7DF2A010ECCE3DB2ACAD7040ED3
:1016D000E15C02E2E16AE552E16EE552E7CFD9FF53
:1016E0001200D9CFE6FFE1CFD9FF040EE126DE6A72
:1016F000DD6ADECF00F0DDCF01F0026A036A01AEE1
:1017000002D002680368D950FB0FE96EFF0EDA20A1
:10171000EA6EEE50005CEE500158EE500258EE506A
:1017200003581DE2020EDB6A030EDB6A020EDBCFFA
:1017300000F0030EDBCF01F0D890015004E6EE0E6E
:10174000005C000E015806E2020EDB2A030EEEE3F7
:10175000DB2AECD7DF2A010ECCE3DB2ACAD7040E42
:10176000E15C02E2E16AE552E16EE552E7CFD9FFC2
:101770001200D9CFE6FFE1CFD9FF0F0E8116FE0E82
:10178000DB50F00B81128186010EE66EE66AE66A96
:10179000E66AA7DFE552E552E552E5528196010E71
:1017A000E66EE66AE66AE66A9CDFE552E552E552D5
:1017B000E5520F0E8116FE0EDB38F00B811281868A
:1017C000010EE66EE66AE66AE66A8BDFE552E552EE
:1017D000E552E5528196010EE66EE66AE66AE66A31
:1017E00080DFE552E552E552E552E552E7CFD9FFF9
:1017F0001200D9CFE6FFE1CFD9FFE652190EE66E0F
:10180000E66AE66AE66A6DDFE552E552E552E552C0
:101810000F0E8116F80E81160F0E8116300E8112F2
:101820008186010EE66EE66AE66AE66A5ADFE552EE
:10183000E552E552E5528196010EE66EE66AE66AE9
:10184000E66A4FDFE552E552E552E5520F0E81168A
:10185000300E81128186010EE66EE66AE66AE66A5D
:1018600040DFE552E552E552E5528196010EE66E03
:10187000E66AE66AE66A35DFE552E552E552E55288
:101880000F0E8116300E81128186010EE66EE66A19
:10189000E66AE66A26DFE552E552E552E5528196B0
:1018A000010EE66EE66AE66AE66A1BDFE552E5527D
:1018B000E552E5520F0E8116818A8186010EE66E91
:1018C000E66AE66AE66A0DDFE552E552E552E55260
:1018D0008196010EE66EE66AE66AE66A02DFE55286
:1018E000E552E552E552280EE66E43DFE5520C0E56
:1018F000E66E3FDFE552E552E552E7CFD9FF120031
:10190000D9CFE6FFE1CFD9FF020EE126DF6A010E53
:10191000DB6A81940F0EE66EE66AE66AE66A99DE95
:10192000E552E552E552E5520F0E81128186E66ED0
:10193000E66AE66AE66A8DDEE552E552E552E55270
:101940000F0E8114E76E010EE7CFDBFF81960F0EBD
:10195000E66EE66AE66AE66A7CDEE552E552E55244
:10196000E5520F0E81128186E66EE66AE66AE66A45
:1019700070DEE552E552E552E5520F0E8114DF6E3E
:10198000010EDB50DF128196010EE66EE66AE66A12
:10199000E66A5FDEE552E552E552E552DF50006E41
:1019A000020EE15C02E2E16AE552E16E0050E552AE
:1019B000E7CFD9FF1200D9CFE6FFE1CFD9FFE6523A
:1019C000DF6A9EDFDF6EDFBEFCD7DF50E552E552F7
:1019D000E7CFD9FF1200D9CFE6FFE1CFD9FF0F0E35
:1019E0008116FE0EDB5081128186050EE66EE66AD8
:1019F000E66AE66A2EDEE552E552E552E552819648
:101A0000050EE66EE66AE66AE66A23DEE552E55210
:101A1000E552E552E552E7CFD9FF1200D9CFE6FFF4
:101A2000E1CFD9FF8194050EE66EE66AE66AE66AC2
:101A300010DEE552E552E552E552FE0EDBCFE6FF41
:101A4000CADFE552FE0EDB38F00BE66EC4DFE5526E
:101A5000E552E7CFD9FF1200D9CFE6FFE1CFD9FF9A
:101A60008184050EE66EE66AE66AE66AF2DDE55214
:101A7000E552E552E552FE0EDBCFE6FFACDFE55264
:101A8000FE0EDB38F00BE66EA6DFE5528194E552E0
:101A9000E7CFD9FF1200D9CFE6FFE1CFD9FFFE0E85
:101AA000DBCFE6FFD9DFE552E552E7CFD9FF1200E1
:101AB000D9CFE6FFE1CFD9FFFE0EDBCFE6FFCCDFCB
:101AC000E552E552E7CFD9FF1200D9CFE6FFE1CFCB
:101AD000D9FFFD0EDBCFF6FFFE0EDBCFF7FF0800D0
:101AE000F5500FE0FD0EDBCFF6FFDB2AFE0EDBCF5D
:101AF000F7FF01E3DB2A0800F550E66ED9DFE55277
:101B0000E8D7E552E7CFD9FF1200D9CFE6FFE1CF02
:101B1000D9FFE652FD0EDB500F0B006EFE0EDB50C0
:101B2000010B400DF3500024DF6E7F0EDF14800F99
:101B3000DF6EDFCFE6FF72DFE552E552E552E7CF19
:101B4000D9FF1200010EE66E69DFE552E66AE66A29
:101B5000DCDFE552E5521200D9CFE6FFE1CFD9FF35
:101B6000050EE126010EF36EDB6E020EDB6A030E3C
:101B7000DB6A040EDB6ADF6ADFCF00F0016A00BEB9
:101B80000168FB0EDBCF02F0FC0EDBCF03F001504F
:101B90000318E8AE02D0033404D00250005C0350B6
:101BA00001582DE2FD0EDBCF00F0FE0EDBCF01F081
:101BB000026A036A01AE02D002680368D950010FBD
:101BC000E96EDACFEAFF00C027F001C028F002C0BA
:101BD00029F003C02AF0EECF22F0EECF23F0EECFB3
:101BE00024F0EFCF25F079EC2DF021C0EDFF20C0DF
:101BF000EDFF1FC0EDFF1EC0EFFFDF2ABDD7010EB6
:101C0000DBCF00F0020EDBCF01F0030EDBCF02F0E2
:101C1000040EDBCF03F000C022F001C023F002C0AD
:101C200024F003C025F0050EE15C02E2E16AE55212
:101C3000E16EE552E7CFD9FF1200D9CFE6FFE1CF41
:101C4000D9FF020EE126DF6AFB0EDBCF00F0FC0EAF
:101C5000DBCF01F0FD0EDBCF02F0FE0EDBCF03F099
:101C6000005001100210031005E1300EE66E20DF77
:101C7000E552F4D0D950FB0FE96EFF0EDA20EA6E80
:101C8000D890030EEB50000A08E6000EEE5C000E42
:101C9000EE58000EEE58000EEE5815E22D0EE66ED0
:101CA00007DFE552D950FB0FE96EFF0EDA20EA6E2E
:101CB000000EEE6CEF1EEE22EF1EEE22EF1EEF2264
:101CC000ED52ED52ED52DE52070EDD6E010EDBCF0E
:101CD00000F0000EE76E0018E8AE02D0003403D02A
:101CE000E750D880005401E3B9D0010EDB04046E44
:101CF000056A04BE056804C0E6FF05C0E6FF0A0EDB
:101D0000E66EE66A29DFE552E552E552E55222C069
:101D100000F023C001F024C002F025C003F022C06F
:101D200027F023C028F024C029F025C02AF0FB0E9C
:101D3000DBCF22F0FC0EDBCF23F0FD0EDBCF24F057
:101D4000FE0EDBCF25F0B1EC2DF022502310241035
:101D5000251041E0010EDF6EDB04086E096A08BE43
:101D6000096808C0E6FF09C0E6FF0A0EE66EE66AEB
:101D7000F3DEE552E552E552E55222C004F023C0FD
:101D800005F024C006F025C007F022C027F023C0CC
:101D900028F024C029F025C02AF0FB0EDBCF22F06A
:101DA000FC0EDBCF23F0FD0EDBCF24F0FE0EDBCFED
:101DB00025F0B1EC2DF022C000F023C001F024C0CA
:101DC00002F025C003F0300E0026000E0122022290
:101DD0000322005003D0DF5004E0300EE66E68DED0
:101DE000E552010EDB04046E056A04BE056804C0FA
:101DF000E6FF05C0E6FF0A0EE66EE66AADDEE552D6
:101E0000E552E552E55222C000F023C001F024C0A3
:101E100002F025C003F0D950FB0FE96EFF0EDA2067
:101E2000EA6E22C027F023C028F024C029F025C084
:101E30002AF0EECF22F0EECF23F0EECF24F0EFCF5A
:101E400025F0B1EC2DF021C0EDFF20C0EDFF1FC04B
:101E5000EDFF1EC0EFFF010EDB0638D7020EE15C7E
:101E600002E2E16AE552E16EE552E7CFD9FF1200E6
:101E7000D9CFE6FFE1CFD9FFFD0EDBCFE6FFFE0EA7
:101E8000DBCFE6FF42DEE552E552D950F90FE96EAD
:101E9000FF0EDA20EA6EEECFE6FFEECFE6FFEECFE2
:101EA000E6FFEFCFE6FFC9DEE552E552E552E55227
:101EB000E552E7CFD9FF1200D9CFE6FFE1CFD9FF36
:101EC000FD0EDBCFE6FFFE0EDBCFE6FF1EDEE552AA
:101ED000E552FB0EDBCFE6FFFC0EDBCFE6FFF5DDC8
:101EE000E552E552E552E7CFD9FF1200D9CFE6FF20
:101EF000E1CFD9FF7BCF00F07CCF01F0040ED8906A
:101F000000360136E806FBE1410E00260F0E0122E5
:101F100000500F017D25E96E01507E21EA6EFE0E14
:101F2000DBCFEFFF7D2B000E7E23E552E7CFD9FFFD
:101F30001200D9CFE6FFE1CFD9FFE652DF6ADFCF4B
:101F400000F0100EE76E0018E8AE02D0E73402D0C1
:101F5000E750005C18E2DFCFE9FFEA6AE9BEEA6811
:101F6000410EE9260F0EEA22200EEF6EDFCFE9FFC9
:101F7000EA6AE9BEEA68510EE9260F0EEA22200E4F
:101F8000EF6EDF2ADCD7E552E552E7CFD9FF12002A
:101F9000D9CFE6FFE1CFD9FFE6520F014051030A46
:101FA00052E0010A36E0030A1AE0010A67E1E66A34
:101FB000E66AABDDE552E552DF6A080EDF5C0CE253
:101FC000DF50EA6A410FE96E0F0EEA22EF50E66E2B
:101FD0006FDDE552DF2AF1D70F01010E32D0080E76
:101FE000E66EE66A92DDE552E552DF6A080EDF5CD6
:101FF0000DE2080EDF24EA6A410FE96E0F0EEA22B5
:10200000EF50E66E55DDE552DF2AF0D70F01020EE4
:1020100018D0E66A010EE66E78DDE552E552DF6A19
:10202000080EDF5C0CE2DF50EA6A510FE96E0F0E1A
:10203000EA22EF50E66E3CDDE552DF2AF1D70F01D0
:10204000030E406F1CD0080EE66E010EE66E5DDDDD
:10205000E552E552DF6A080EDF5C0DE2080EDF2470
:10206000EA6A510FE96E0F0EEA22EF50E66E20DDAC
:10207000E552DF2AF0D70F01406B01D0406BE552EB
:10208000E552E7CFD9FF1200D9CFE6FFE1CFD9FF64
:10209000E6520F014051010A1BE0010A32E1E66AF3
:1020A000E66A33DDE552E552DF6A100EDF5C0CE2D2
:1020B000DF50EA6A410FE96E0F0EEA22EF50E66E3A
:1020C000F7DCE552DF2AF1D70F01010E406F1AD07D
:1020D000E66A010EE66E19DDE552E552DF6A100E82
:1020E000DF5C0CE2DF50EA6A510FE96E0F0EEA2264
:1020F000EF50E66EDDDCE552DF2AF1D70F01406BD1
:1021000001D0406BE552E552E7CFD9FF1200D9CF9D
:10211000E6FFE1CFD9FFE652E66AE66AF6DCE55271
:10212000E552DF6A100EDF5C0CE2DF50EA6A410F15
:10213000E96E0F0EEA22EF50E66EBADCE552DF2AB6
:10214000F1D7E66A010EE66EE0DCE552E552DF6AA1
:10215000100EDF5C0CE2DF50EA6A510FE96E0F0EE1
:10216000EA22EF50E66EA4DCE552DF2AF1D7E55211
:10217000E552E7CFD9FF1200D9CFE6FFE1CFD9FF73
:10218000FE0EDB50010B0F017B6F7C6BFD0EDB50F5
:102190000F0B7D6F7E6B7BCF00F07CCF01F0040EC8
:1021A000D89000360136E806FBE1410E00260F0EFE
:1021B000012200500F017D25E96E01507E21EA6E5B
:1021C000FC0EDBCFEFFFE552E7CFD9FF1200D9CFEE
:1021D000E6FFE1CFD9FF020EE126DF6AFE0EDB50FB
:1021E000010B0F017B6F7C6BFD0EDB500F0B7D6FC6
:1021F0007E6BF90EDBCF00F0FA0EDBCF01F0FB0EA9
:10220000DBCF02F0FC0EDBCF03F000500110021018
:10221000031005E1300EE66E69DEE552F5D0D950C7
:10222000F90FE96EFF0EDA20EA6ED890030EEB503C
:10223000000A08E6000EEE5C000EEE58000EEE58A6
:10224000000EEE5815E22D0EE66E50DEE552D95026
:10225000F90FE96EFF0EDA20EA6E000EEE6CEF1E4B
:10226000EE22EF1EEE22EF1EEF22ED52ED52ED5266
:10227000DE52070EDD6E010EDBCF00F0000EE76EC2
:102280000018E8AE02D0003403D0E750D8800054E4
:1022900001E3BAD0010EDB04046E056A04BE0568D2
:1022A00004C0E6FF05C0E6FF0A0EE66EE66A54DCEF
:1022B000E552E552E552E55222C000F023C001F09C
:1022C00024C002F025C003F022C027F023C028F06C
:1022D00024C029F025C02AF0F90EDBCF22F0FA0E37
:1022E000DBCF23F0FB0EDBCF24F0FC0EDBCF25F0A1
:1022F000B1EC2DF0225023102410251041E0010EE6
:10230000DF6EDB04086E096A08BE096808C0E6FFD4
:1023100009C0E6FF0A0EE66EE66A1EDCE552E552EB
:10232000E552E55222C004F023C005F024C006F0B7
:1023300025C007F022C027F023C028F024C029F0D0
:1023400025C02AF0F90EDBCF22F0FA0EDBCF23F006
:10235000FB0EDBCF24F0FC0EDBCF25F0B1EC2DF033
:1023600022C000F023C001F024C002F025C003F019
:10237000300E0026000E012202220322005003D05C
:10238000DF5004E0300EE66EB1DDE552010EDB04F5
:10239000046E056A04BE056804C0E6FF05C0E6FFDA
:1023A0000A0EE66EE66AACEC0DF0E552E552E55237
:1023B000E55222C000F023C001F024C002F025C085
:1023C00003F0D950F90FE96EFF0EDA20EA6E22C051
:1023D00027F023C028F024C029F025C02AF0EECF32
:1023E00022F0EECF23F0EECF24F0EFCF25F0B1ECCA
:1023F0002DF021C0EDFF20C0EDFF1FC0EDFF1EC07E
:10240000EFFF010EDB0637D7020EE15C02E2E16A64
:10241000E552E16EE552E7CFD9FF1200D9CFE6FFD2
:10242000E1CFD9FFFE0EDB50010B0F017B6F7C6B00
:10243000FD0EDB500F0B7D6F7E6BFB0EDBCFF6FFCF
:10244000FC0EDBCFF7FF0800F5500FE0FB0EDBCFF3
:10245000F6FFDB2AFC0EDBCFF7FF01E3DB2A0800E7
:10246000F550E66E43DDE552E8D7E552E7CFD9FFF8
:102470001200D9CFE6FFE1CFD9FF050EE126D9CF73
:10248000E9FFDACFEAFFF90EDBCFEEFFFA0EDBCF82
:10249000EEFFFB0EDBCFEEFFFC0EDBCFEEFFD9CF66
:1024A000E9FFDACFEAFFEECF00F0EECF01F0EECF9A
:1024B00002F0EFCF03F0E80E276E030E286E296AB4
:1024C0002A6A00C022F001C023F002C024F003C039
:1024D00025F047EC2CF022C000F023C001F024C00E
:1024E00002F025C003F022C0E6FF23C0E6FF24C0AF
:1024F000E6FF25C0E6FFFD0EDBCFE6FFFE0EDBCFDD
:10250000E6FF65DE046E060EE15E0450D9CFE9FFFA
:10251000DACFEAFFEECF22F0EECF23F0EECF24F0B9
:10252000EFCF25F0E80E276E030E286E296A2A6A7F
:1025300047EC2CF01EC0DEFF1FC0DEFF20C0DEFF18
:1025400021C0DDFFDD52DD52D9CFE9FFDACFEAFF4E
:10255000EECF00F0EECF01F0EECF02F0EFCF03F0C0
:10256000640E276E286A296A2A6A00C022F001C018
:1025700023F002C024F003C025F047EC2CF022C069
:1025800000F023C001F024C002F025C003F022C0F7
:10259000E6FF23C0E6FF24C0E6FF25C0E6FFFD0EF0
:1025A000DB28E66EFE0EDBCFE6FF11DE046E060EC4
:1025B000E15E0450D9CFE9FFDACFEAFFEECF22F097
:1025C000EECF23F0EECF24F0EFCF25F0640E276E90
:1025D000286A296A2A6A47EC2CF01EC0DEFF1FC059
:1025E000DEFF20C0DEFF21C0DDFFDD52DD52560ED2
:1025F000E66E4F0EE66EFD0EDB50020FE66EFE0E2F
:10260000DBCFE6FF0BDFE552E552E552E552D9CFCD
:10261000E9FFDACFEAFFEECF00F0EECF01F0EECF28
:1026200002F0EFCF03F00A0E276E286A296A2A6AA1
:1026300000C022F001C023F002C024F003C025F046
:1026400047EC2CF022C000F023C001F024C002F0BF
:1026500025C003F022C0E6FF23C0E6FF24C0E6FF4A
:1026600025C0E6FFFD0EDB50030FE66EFE0EDBCF4E
:10267000E6FFADDD046E060EE15E0450D9CFE9FF42
:10268000DACFEAFFEECF22F0EECF23F0EECF24F048
:10269000EFCF25F0E80E276E030E286E296A2A6A0E
:1026A00047EC2CF01EC0DEFF1FC0DEFF20C0DEFFA7
:1026B00021C0DDFFDD52DD52D9CFE9FFDACFEAFFDD
:1026C000EECF00F0EECF01F0EECF02F0EFCF03F04F
:1026D0000A0E276E286A296A2A6A00C022F001C001
:1026E00023F002C024F003C025F047EC2CF01EC0FC
:1026F00000F01FC001F020C002F021C003F01EC096
:10270000E6FF1FC0E6FF20C0E6FF21C0E6FFFD0E8A
:10271000DB50040FE66EFE0EDBCFE6FF58DD046EE5
:10272000060EE15E0450050EE15C02E2E16AE5524C
:0A273000E16EE552E7CFD9FF120079
:06273A00D9CFE6FFE1CF5C
:10274000D9FF020EE126DE6ADD6A86D81CEC2AF08B
:10275000A2EC0DF099EC0FF0000EE66EE66ABED822
:10276000E552E552E80EE66E030EE66E31D8E5520C
:10277000E5527BEC2CF08ED921DAB5DADDDB31ECD9
:1027800018F045DBC6EC18F00401010E121907E140
:10279000135105E1030EE66EE66AA0D804D0030EDD
:1027A000E66EE66AC3D8E552E5520201D3050DE1B3
:1027B000320EE66EE66A1AEC25F0E552E55242EC7E
:1027C00025F005EC1CF05BEC19F0C8EC0FF0D3D74A
:1027D000D9CFE6FFE1CFD9FF040EE126DE6ADD6A3C
:1027E000DECF00F0DDCF01F0FD0EDBCF02F0FE0EFC
:1027F000DBCF03F001500318E8AE02D0033404D05D
:102800000250005C035001581DE2020EDB6A030E09
:10281000DB6A020EDBCF00F0030EDBCF01F0D890B5
:10282000015004E6EE0E005C000E015806E2020EB6
:10283000DB2A030EEEE3DB2AECD7DF2A010ED0E31E
:10284000DB2ACED7040EE15C02E2E16AE552E16EDA
:10285000E552E7CFD9FF1200936A926AF9EC0BF0C8
:10286000956A836AF2EC2AF0E80EE66E030EE66ED5
:10287000AFDFE552E552570EE66E120EE66EABEC98
:1028800022F0E552E552AE0EE66E240EE66E4DECF9
:1028900023F0E552E552660EE66EB70EE66E0EECDC
:1028A00024F0E552E552020EE66EE66AE9EC24F009
:1028B000E552E5520A0EE66EE66AFBEC24F0E552BC
:1028C000E552320EE66EE66A1AEC25F0E552E55264
:1028D0003DEC25F0DDEC1FF033EF2DF0D9CFE6FF16
:1028E000E1CFD9FFFE0EDBCF01F0800E01141AE11B
:1028F000FD0EDBCF02F0FE0EDBCF03F0033404E26B
:1029000002500708000E03540DE3FD0EDBCFE9FF74
:10291000FE0EDBCFEAFFF00EE926010EEA22EF50B1
:102920008310836EE552E7CFD9FF1200D9CFE6FFBF
:10293000E1CFD9FFFE0EDBCF01F0800E01141AE1CA
:10294000FD0EDBCF02F0FE0EDBCF03F0033404E21A
:1029500002500708000E03540DE3FD0EDBCFE9FF24
:10296000FE0EDBCFEAFFF00EE926010EEA22EF1C95
:102970008314836EE552E7CFD9FF1200D9CFE6FF6B
:10298000E1CFD9FFFD0EDBCFE9FFFE0EDBCFEAFF83
:10299000F80EE926010EEA22EF0415E1FD0EDBCF69
:1029A000E6FFFE0EDBCFE6FFC1DFE552E552FD0E8E
:1029B000DBCFE9FFFE0EDBCFEAFFF80EE926010EC2
:1029C000EA22EF6A15D0FD0EDBCFE6FFFE0EDBCF6D
:1029D000E6FF84DFE552E552FD0EDBCFE9FFFE0E98
:1029E000DBCFEAFFF80EE926010EEA22010EEF6EB8
:1029F000E552E7CFD9FF1200D9CFE6FFE1CFD9FFEB
:102A0000020EE126DE6ADD6ADECF00F0DDCF01F0E6
:102A1000013404E200500708000E015421E3DECF28
:102A2000E6FFDDCFE6FF5ADFE552E552F40EE66E33
:102A3000010EE66ECDDEE552E552DECFE6FFDDCFDC
:102A4000E6FF74DFE552E552F40EE66E010EE66E27
:102A5000BFDEE552E552DF2A010ED6E3DB2AD4D7EA
:102A6000020EE15C02E2E16AE552E16EE552E7CF77
:102A7000D9FF12000101010ECA1903E1CB5101E196
:102A8000010C000C0101010EC81903E1C95101E15B
:102A9000010C000CD9CFE6FFE1CFD9FF020EE126F1
:102AA000E66A3AEC2DF0E552F3CF4EF4F4CF4FF452
:102AB0000401506B516B4FAF02D05069516971C422
:102AC000E9FFEA6AE9BEEA68D890E936EA36940E88
:102AD000E926000EEA224EC4EEFF4FC4EDFF0401CA
:102AE0007129006E256E320E2A6EDAEC2BF021C0B1
:102AF00071F421C06AF40401326B336B346B356BB3
:102B0000DE6ADD6ADECF00F0DDCF01F0D890015043
:102B100004E6320E005C000E01582FE26AC4E9FFA1
:102B2000EA6AE9BEEA68D890E936EA36940EE92600
:102B3000000EEA22EECF00F0EFCF01F0026A036A46
:102B4000320EE96E040EEA6EEE5000240401326F7C
:102B5000EE500120336FEE500220346FEE50032010
:102B6000356F04016A5103E1310E6A6F01D06A07C3
:102B7000DF2A010EC7E3DB2AC5D7320E276E286A8B
:102B8000296A2A6A32C422F033C423F034C424F000
:102B900035C425F0B1EC2DF022C032F423C033F45B
:102BA00024C034F425C035F4020EE15C02E2E16A8F
:102BB000E552E16EE552E7CFD9FF1200D9CFE6FF2B
:102BC000E1CFD9FF020EE126010EE66E3AEC2DF0C0
:102BD000E552F3CF52F4F4CF53F40401546B556B28
:102BE00053AF02D05469556972C4E9FFEA6AE9BE7D
:102BF000EA68D890E936EA36000EE926010EEA22A4
:102C000052C4EEFF53C4EDFF04017229006E256E1D
:102C1000320E2A6EDAEC2BF021C072F421C06BF474
:102C20000401366B376B386B396BDE6ADD6ADECFD9
:102C300000F0DDCF01F0D890015004E6320E005CC8
:102C4000000E01582FE26BC4E9FFEA6AE9BEEA68A8
:102C5000D890E936EA36000EE926010EEA22EECFD8
:102C600000F0EFCF01F0026A036A360EE96E040E3F
:102C7000EA6EEE5000240401366FEE500120376FEB
:102C8000EE500220386FEE500320396F04016B5173
:102C900003E1310E6B6F01D06B07DF2A010EC7E332
:102CA000DB2AC5D7320E276E286A296A2A6A36C4FB
:102CB00022F037C423F038C424F039C425F0B1EC35
:102CC0002DF022C036F423C037F424C038F425C0D8
:102CD00039F4020EE15C02E2E16AE552E16EE5528E
:102CE000E7CFD9FF1200D9CFE6FFE1CFD9FF020E1F
:102CF000E126E66E3AEC2DF0E552F3CF56F4F4CF30
:102D000057F40401586B596B57AF02D05869596991
:102D100073C4E9FFEA6AE9BEEA68D890E936EA36A0
:102D2000640EE926010EEA2256C4EEFF57C4EDFFF9
:102D300004017329006E256E320E2A6EDAEC2BF038
:102D400021C073F421C06CF404013A6B3B6B3C6B03
:102D50003D6BDE6ADD6ADECF00F0DDCF01F0D8909A
:102D6000015004E6320E005C000E01582FE26CC4E4
:102D7000E9FFEA6AE9BEEA68D890E936EA36640E05
:102D8000E926010EEA22EECF00F0EFCF01F0026A51
:102D9000036A3A0EE96E040EEA6EEE500024040156
:102DA0003A6FEE5001203B6FEE5002203C6FEE5028
:102DB00003203D6F04016C5103E1310E6C6F01D0B3
:102DC0006C07DF2A010EC7E3DB2AC5D7320E276E58
:102DD000286A296A2A6A3AC422F03BC423F03CC418
:102DE00024F03DC425F0B1EC2DF022C03AF423C00C
:102DF0003BF424C03CF425C03DF4020EE15C02E249
:102E0000E16AE552E16EE552E7CFD9FF1200D9CF72
:102E1000E6FFE1CFD9FF020EE126030EE66E3AECA3
:102E20002DF0E552F3CF5AF4F4CF5BF404015C6B60
:102E30005D6B5BAF02D05C695D6974C4E9FFEA6AEF
:102E4000E9BEEA68D890E936EA36000EE926030EB4
:102E5000EA225AC4EEFF5BC4EDFF04017429006E40
:102E6000256E320E2A6EDAEC2BF021C074F421C0EC
:102E70006DF404013E6B3F6B406B416BDE6ADD6AB3
:102E8000DECF00F0DDCF01F0D890015004E6320E25
:102E9000005C000E01582FE26DC4E9FFEA6AE9BE4A
:102EA000EA68D890E936EA36000EE926030EEA22EF
:102EB000EECF00F0EFCF01F0026A036A3E0EE96E3A
:102EC000040EEA6EEE50002404013E6FEE50012025
:102ED0003F6FEE500220406FEE500320416F04011F
:102EE0006D5103E1310E6D6F01D06D07DF2A010EC8
:102EF000C7E3DB2AC5D7320E276E286A296A2A6AF9
:102F00003EC422F03FC423F040C424F041C425F065
:102F1000B1EC2DF022C03EF423C03FF424C040F4B5
:102F200025C041F4020EE15C02E2E16AE552E16E85
:102F3000E552E7CFD9FF1200D9CFE6FFE1CFD9FFA5
:102F4000020EE126040EE66E3AEC2DF0E552F3CFC8
:102F50005EF4F4CF5FF40401606B616B5FAF02D08D
:102F60006069616975C4E9FFEA6AE9BEEA68D890F8
:102F7000E936EA36640EE926030EEA225EC4EEFF65
:102F80005FC4EDFF04017529006E256E320E2A6EB6
:102F9000DAEC2BF021C075F421C06EF40401426B11
:102FA000436B446B456BDE6ADD6ADECF00F0DDCF3C
:102FB00001F0D890015004E6320E005C000E01587A
:102FC0002FE26EC4E9FFEA6AE9BEEA68D890E93602
:102FD000EA36640EE926030EEA22EECF00F0EFCFC8
:102FE00001F0026A036A420EE96E040EEA6EEE50C8
:102FF00000240401426FEE500120436FEE50022086
:10300000446FEE500320456F04016E5103E1310E11
:103010006E6F01D06E07DF2A010EC7E3DB2AC5D72A
:10302000320E276E286A296A2A6A42C422F043C4F3
:1030300023F044C424F045C425F0B1EC2DF022C0A7
:1030400042F423C043F424C044F425C045F4020EE6
:10305000E15C02E2E16AE552E16EE552E7CFD9FFB9
:103060001200D9CFE6FFE1CFD9FF020EE126050E0F
:10307000E66E3AEC2DF0E552F3CF62F4F4CF63F450
:103080000401646B656B63AF02D06469656976C4E3
:10309000E9FFEA6AE9BEEA68D890E936EA36000E46
:1030A000E926020EEA2262C4EEFF63C4EDFF0401CA
:1030B0007629006E256E320E2A6EDAEC2BF021C0D6
:1030C00076F421C06FF40401466B476B486B496B83
:1030D000DE6ADD6ADECF00F0DDCF01F0D89001506E
:1030E00004E6320E005C000E01582FE26FC4E9FFC7
:1030F000EA6AE9BEEA68D890E936EA36000EE926BF
:10310000020EEA22EECF00F0EFCF01F0026A036A6E
:10311000460EE96E040EEA6EEE5000240401466F7E
:10312000EE500120476FEE500220486FEE50032012
:10313000496F04016F5103E1310E6F6F01D06F07CA
:10314000DF2A010EC7E3DB2AC5D7320E276E286AB5
:10315000296A2A6A46C422F047C423F048C424F0EE
:1031600049C425F0B1EC2DF022C046F423C047F449
:1031700024C048F425C049F4020EE15C02E2E16A91
:10318000E552E16EE552E7CFD9FF1200D9CFE6FF55
:10319000E1CFD9FF020EE126060EE66E3AEC2DF0E5
:1031A000E552F3CF66F4F4CF67F40401686B696B02
:1031B00067AF02D06869696977C4E9FFEA6AE9BE66
:1031C000EA68D890E936EA36640EE926020EEA2269
:1031D00066C4EEFF67C4EDFF04017729006E256E1B
:1031E000320E2A6EDAEC2BF021C077F421C070F495
:1031F00004014A6B4B6B4C6B4D6BDE6ADD6ADECFB4
:1032000000F0DDCF01F0D890015004E6320E005CF2
:10321000000E01582FE270C4E9FFEA6AE9BEEA68CD
:10322000D890E936EA36640EE926020EEA22EECF9D
:1032300000F0EFCF01F0026A036A4A0EE96E040E55
:10324000EA6EEE50002404014A6FEE5001204B6FED
:10325000EE5002204C6FEE5003204D6F0401705170
:1032600003E1310E706F01D07007DF2A010EC7E352
:10327000DB2AC5D7320E276E286A296A2A6A4AC411
:1032800022F04BC423F04CC424F04DC425F0B1EC23
:103290002DF022C04AF423C04BF424C04CF425C0C6
:1032A0004DF4020EE15C02E2E16AE552E16EE552A4
:1032B000E7CFD9FF1200D9CFE6FFE1CFD9FF040E47
:1032C000E126010E00018225826F000E8321836FAB
:1032D000280E296E2A6A82C024F083C025F0F2EC01
:1032E0002DF020C082F021C083F000012050211079
:1032F00001E070D278C400F079C401F0026A036A78
:103300000401785104018E5D086E8F5104017955D6
:10331000096E0A6A0B6A32C422F033C423F034C443
:1033200024F035C425F008C027F0286E0AC029F023
:103330000BC02AF079EC2DF01EC004F01FC005F080
:1033400020C006F021C007F02768030E286E296A06
:103350002A6A1EC022F01FC023F020C024F021C022
:1033600025F047EC2CF022C004F023C005F024C067
:1033700006F025C007F022500026235001222450D9
:1033800002222550032200C086F001C087F036C417
:1033900022F037C423F038C424F039C425F0100ECD
:1033A000276E270E286E296A2A6A79EC2DF01EC036
:1033B00022F01FC023F020C024F021C025F0276890
:1033C000030E286E296A2A6A47EC2CF022C088F086
:1033D00023C089F03AC422F03BC423F03CC424F05B
:1033E0003DC425F0D00E276E070E286E296A2A6A82
:1033F00079EC2DF01EC022F01FC023F020C024F075
:1034000021C025F02768030E286E296A2A6A47EC36
:103410002CF022C08AF023C08BF086C404F087C44D
:1034200005F0066A076A0401885104018C5D186E74
:103430008D5104018955196E1A6A1B6A040186515F
:1034400004018A5D146E8B5104018755156E166A4E
:10345000176A88C410F089C411F0126A136A1050F8
:1034600004013E5D0C6E11503F590D6E12504059D3
:103470000E6E135041590F6E0CC022F00DC023F098
:103480000EC024F0256E14C027F015C028F016C019
:1034900029F017C02AF079EC2DF01EC008F01FC0EB
:1034A00009F020C00AF021C00BF01EC022F01FC09E
:1034B00023F020C024F021C025F018C027F019C047
:1034C00028F01AC029F01BC02AF047EC2CF0045059
:1034D0002224006E05502320016E06502420026E27
:1034E00007502520036E00C090F001C091F042C447
:1034F00000F043C401F044C402F045C403F0A00E40
:10350000276E0F0E286E296A2A6A42C422F043C42D
:1035100023F044C424F045C425F079EC2DF01EC0FE
:1035200000F01FC001F020C002F021C003F02768A6
:10353000030E286E296A2A6A1EC022F01FC023F0DB
:1035400020C024F021C025F047EC2CF022C000F070
:1035500023C001F024C002F025C003F0E80E0026CD
:10356000030E0122000E0222032200C08CF001C0D3
:103570008DF046C400F047C401F048C402F049C4CD
:1035800003F0400E276E1F0E286E296A2A6A46C471
:1035900022F047C423F048C424F049C425F079EC54
:1035A0002DF01EC000F01FC001F020C002F021C0AD
:1035B00003F02768030E286E296A2A6A1EC022F0CB
:1035C0001FC023F020C024F021C025F047EC2CF0D0
:1035D00022C000F023C001F024C002F025C003F097
:1035E000D00E0026070E0122000E0222032200C088
:1035F0008EF001C08FF04AC422F04BC423F04CC4BB
:1036000024F04DC425F0A00E276E8C0E286E296A7A
:103610002A6A79EC2DF01EC022F01FC023F020C0D2
:1036200024F021C025F02768030E286E296A2A6A33
:1036300047EC2CF022C092F023C093F0A80EE66E67
:103640004F0EE66E5EEC20F0E552E55286C000F0CB
:1036500087C001F0026A036A86C0E6FF87C0E6FF02
:1036600002C0E6FF03C0E6FF10EC22F0E552E5528F
:10367000E552E5529F0EE66E4F0EE66E5EEC20F0D0
:10368000E552E55288C000F089C001F0026A036A81
:1036900088C0E6FF89C0E6FF02C0E6FF03C0E6FF80
:1036A00010EC22F0E552E552E552E552930EE66E3B
:1036B0004F0EE66E5EEC20F0E552E5528AC000F057
:1036C0008BC001F0026A036A8AC0E6FF8BC0E6FF86
:1036D00002C0E6FF03C0E6FF10EC22F0E552E5521F
:1036E000E552E552870EE66E4F0EE66E5EEC20F078
:1036F000E552E55290C000F091C001F0026A036A01
:1037000090C0E6FF91C0E6FF02C0E6FF03C0E6FFFF
:1037100010EC22F0E552E552E552E5527E0EE66EDF
:103720004F0EE66E5EEC20F0E552E5528CC000F0E4
:103730008DC001F0026A036A8CC0E6FF8DC0E6FF0F
:1037400002C0E6FF03C0E6FF10EC22F0E552E552AE
:10375000E552E552720EE66E4F0EE66E5EEC20F01C
:10376000E552E5528EC000F08FC001F0026A036A94
:103770008EC0E6FF8FC0E6FF02C0E6FF03C0E6FF93
:1037800010EC22F0E552E552E552E552650EE66E88
:103790004F0EE66E5EEC20F0E552E55292C000F06E
:1037A00093C001F0026A036A92C0E6FF93C0E6FF8D
:1037B00002C0E6FF03C0E6FF10EC22F0E552E5523E
:1037C000E552E5525C0EE66E4F0EE66E5EEC20F0C2
:1037D000E552E552040EE15C02E2E16AE552E16E77
:1037E000E552E7CFD9FF12003AEC15F0000904E0EA
:1037F00032C488F433C489F442EC15F0000904E0C3
:0A38000032C48CF433C48DF41200BE
:06380A00080E0401001984
:1038100001E1015101E152D3070E001901E101510B
:1038200001E130D3060E001901E1015101E10ED38F
:10383000050E001901E1015101E156D2040E0019F3
:1038400001E1015101E1CBD1030E001901E1015168
:1038500001E1A4D1020E001901E1015101E182D080
:10386000010E001901E101510BE0005101E0A2D36A
:10387000015101E09FD3010E006F016BB3EF2CF0FB
:1038800099EC0FF0B3EC2CF00101050ECC5D000EAD
:10389000CD5917E3CCC100F00001016A010E0016FA
:1038A00000180FE101500DE10401046B056B0401E8
:1038B0000E6B0F6B020E0401006F016B0101CC6BEC
:1038C000CD6B000180510001FA5D46E1000181519C
:1038D0000001F95D41E1010E0401126F136B040157
:1038E0003025306F000E3121316F0A0E296E2A6AA1
:1038F00030C424F031C425F0F4EC2BF020C030F4B7
:1039000021C031F499EC0FF0050E040131AF02D063
:10391000D89003D0305D000E315923E234EC2EF004
:1039200000091FE0D20EE66E4F0EE66EE66AE66A0A
:103930000EEC12F0E552E552E552E552C10EE66E8C
:103940004F0EE66EE66A010EE66E0EEC12F0E552E0
:10395000E552E552E55212000401126B136B40EC84
:1039600000F0120099EC0FF00101050ED05D000E81
:10397000D1591DE3D0C100F00001016A010E00160B
:10398000001815E1015013E10401010E0E190FE1B9
:103990000F510DE10401046B056B04010E6B0F6BFD
:1039A000010E0401006F016B0101D06BD16B0101AD
:1039B000050ED05D000ED1591DE3D0C100F000010D
:1039C000016A010E0016001815E1015013E104010F
:1039D000020E0E190FE10F510DE10401046B056B8E
:1039E00004010E6B0F6B030E0401006F016B0101EC
:1039F000D06BD16B0101050ED05D000ED1591AE3D9
:103A0000D0C100F00001016A010E0016001812E199
:103A1000015010E10401030E0E190CE10F510AE1EF
:103A20000401046B056B040E0401006F016B0101BE
:103A3000D06BD16B0101050ED05D000ED1591DE395
:103A4000D0C100F00001016A010E0016001815E156
:103A5000015013E10401040E0E190FE10F510DE1A5
:103A60000401046B056B04010E6B0F6B050E040162
:103A7000006F016B0101D06BD16B0101050ED05DB0
:103A8000000ED1591DE3D0C100F00001016A010E02
:103A90000016001815E1015013E10401050E0E197E
:103AA0000FE10F510DE10401046B056B04010E6B76
:103AB0000F6B060E0401006F016B0101D06BD16B1F
:103AC0000101050ED05D000ED1591DE3D0C100F0FB
:103AD0000001016A010E0016001815E1015013E102
:103AE0000401060E0E190FE10F510DE10401046BE4
:103AF000056B04010E6B0F6B070E0401006F016B69
:103B00000101D06BD16B0101050EC85D000EC959D2
:103B100043E3C8C100F00001016A010E001600185D
:103B20003BE1015039E1010E04010E250E6F000E3C
:103B30000F210F6F070E296E2A6A0EC424F00FC4DE
:103B400025F0F4EC2BF020C00EF421C00FF4010E90
:103B500004010425046F000E0521056F070E296E70
:103B60002A6A04C424F005C425F0F4EC2BF020C02C
:103B700004F421C005F404012050211003E1010EDA
:103B8000046F056B04010E510F1103E1010E0E6F5E
:103B90000F6B0101C86BC96B69EF02F099EC0FF074
:103BA000E9EC07F00101050ECC5D000ECD5901E2F4
:103BB00003D2CCC100F00001016A010E001600180A
:103BC0000DE1015001E0F8D1020E0401006F016B1C
:103BD0000401046B056B0101CC6BCD6B120001017C
:103BE000050EC85D000EC9593CE3C8C100F00001D4
:103BF000016A010E0016001834E1015032E1010E95
:103C000004010C250C6F000E0D210D6F080E296E9E
:103C10002A6A0CC424F00DC425F0F4EC2BF020C06B
:103C20000CF421C00DF4010E04010425046F000EF4
:103C30000521056F080E296E2A6A04C424F005C404
:103C400025F0F4EC2BF020C004F421C005F40401AD
:103C50002050211003E1010E046F056B0101C86BB8
:103C6000C96B0101050ED05D000ED15924E3D0C10E
:103C700000F00001016A010E001600181CE101505D
:103C80001AE1010E0401106F116B0CC4E9FF0DC4A1
:103C9000EAFFD890E936EA369C0EE926040EEA22BD
:103CA000EECF02F4EDCF03F4080E0401006F016BB8
:103CB0000101D06BD16B0101050ECC5D000ECD5919
:103CC00011E3CCC100F00001016A010E00160018DA
:103CD00009E1015007E1020E0401006F016B0401CC
:103CE000046B056B0EEF03F00101050EC85D000EBD
:103CF000C9593CE3C8C100F00001016A010E001679
:103D0000001834E1015032E1010E04010A250A6F66
:103D1000000E0B210B6F080E296E2A6A0AC424F0CC
:103D20000BC425F0F4EC2BF020C00AF421C00BF4F6
:103D3000010E04010425046F000E0521056F080E15
:103D4000296E2A6A04C424F005C425F0F4EC2BF093
:103D500020C004F421C005F404012050211003E127
:103D6000010E046F056B0101C86BC96B0101050EE3
:103D7000CC5D000ECD5914E3CCC100F00001016A06
:103D8000010E001600180CE101500AE1020E0401B8
:103D9000006F016B0401046B056B0101CC6BCD6BF3
:103DA0000101050ED25D000ED35924E3D2C100F00B
:103DB0000001016A010E001600181CE101501AE111
:103DC000010E0401146F156B0AC4E9FF0BC4EAFF6E
:103DD000D890E936EA36AA0EE926040EEA22EECF9A
:103DE00002F4EDCF03F4080E0401006F016B010132
:103DF000D26BD36B0101050ED45D000ED55924E3BF
:103E0000D4C100F00001016A010E001600181CE187
:103E100001501AE1010E0401166F176B0AC4E9FF85
:103E20000BC4EAFFD890E936EA36B80EE926040E4C
:103E3000EA22EECF02F4EDCF03F4080E0401006F86
:103E4000016B0101D46BD56BC0EF03F00101050ECE
:103E5000CC5D000ECD5914E3CCC100F00001016A25
:103E6000010E001600180CE101500AE1020E0401D7
:103E7000006F016B0401046B056B0101CC6BCD6B12
:103E8000A9EF04F00101050ECC5D000ECD5914E33D
:103E9000CCC100F00001016A010E001600180CE10F
:103EA00001500AE1020E0401006F016B0401046B72
:103EB000056B0101CC6BCD6B8FEF0AF072EC04F057
:103EC0000101050EC85D000EC95911E3C8C100F01B
:103ED0000001016A010E0016001809E1015007E116
:103EE0000401022B000E03230101C86BC96B010101
:103EF000050ED05D000ED15956E3D0C100F000018F
:103F0000016A010E001600184EE101504CE1040157
:103F1000010E101913E1115111E10CC4E9FF0DC498
:103F2000EAFFD890E936EA369C0EE926040EEA222A
:103F300002C4EEFF03C4EDFF106B116B0401010E10
:103F4000141913E1155111E10AC4E9FF0BC4EAFF8A
:103F5000D890E936EA36AA0EE926040EEA2202C40F
:103F6000EEFF03C4EDFF146B156B0401010E16196F
:103F700013E1175111E10AC4E9FF0BC4EAFFD8901D
:103F8000E936EA36B80EE926040EEA2202C4EEFF4C
:103F900003C4EDFF166B176B020E0401006F016B7B
:103FA0000101D06BD16B04010C6B0D6B04010A6B2A
:0A3FB0000B6B1200006B016B120096
:063FBA00B06A810EAF6E3B
:103FC000AC8AAC94B886AC98AB8EAB889E9A9D8A2E
:103FD0009F9A949C948E1200D9CFE6FFE1CFD9FF2F
:103FE000040EE126DE6ADD6ADECF00F0DDCF01F0EF
:103FF000FD0EDBCF02F0FE0EDBCF03F00150031805
:10400000E8AE02D0033404D00250005C03500158E3
:104010001DE2020EDB6A030EDB6A020EDBCF00F04C
:10402000030EDBCF01F0D890015004E6EE0E005CE9
:10403000000E015806E2020EDB2A030EEEE3DB2A35
:10404000ECD7DF2A010ED0E3DB2ACED7040EE15CE9
:1040500002E2E16AE552E16EE552E7CFD9FF1200D4
:10406000D9CFE6FFE1CFD9FF9EA8FED7FE0EDB50E9
:10407000AD6E9E98E552E7CFD9FF1200D9CFE6FF8B
:10408000E1CFD9FFFD0EDBCFE9FFFE0EDBCFEAFF6C
:10409000EF5010E0FD0EDBCFE9FFFE0EDBCFEAFFB5
:1040A000EF50E66EDDDFE552FD0EDB2AFE0EEAE3A1
:1040B000DB2AE8D7E552E7CFD9FF1200D9CFE6FFD8
:1040C000E1CFD9FFFD0EDBCFF6FFFE0EDBCFF7FF12
:1040D0000800F55015E0FD0EDBCFF6FFFE0EDBCF3E
:1040E000F7FF0800F550E66EBBDFE552FD0EDBCFB3
:1040F000F6FFDB2AFE0EDBCFF7FFE4E3DB2AE2D795
:10410000E552E7CFD9FF1200D9CFE6FFE1CFD9FFC3
:10411000050EE126010EF36EDB6E020EDB6A030E66
:10412000DB6A040EDB6ADF6ADFCF00F0016A00BEE3
:104130000168FB0EDBCF02F0FC0EDBCF03F0015079
:104140000318E8AE02D0033404D00250005C0350E0
:1041500001582DE2FD0EDBCF00F0FE0EDBCF01F0AB
:10416000026A036A01AE02D002680368D950010FE7
:10417000E96EDACFEAFF00C027F001C028F002C0E4
:1041800029F003C02AF0EECF22F0EECF23F0EECFDD
:1041900024F0EFCF25F079EC2DF021C0EDFF20C009
:1041A000EDFF1FC0EDFF1EC0EFFFDF2ABDD7010EE0
:1041B000DBCF00F0020EDBCF01F0030EDBCF02F00D
:1041C000040EDBCF03F000C022F001C023F002C0D8
:1041D00024F003C025F0050EE15C02E2E16AE5523D
:1041E000E16EE552E7CFD9FF1200D9CFE6FFE1CF6C
:1041F000D9FF020EE126DF6AFB0EDBCF00F0FC0EDA
:10420000DBCF01F0FD0EDBCF02F0FE0EDBCF03F0C3
:10421000005001100210031005E1300EE66E20DFA1
:10422000E552F4D0D950FB0FE96EFF0EDA20EA6EAA
:10423000D890030EEB50000A08E6000EEE5C000E6C
:10424000EE58000EEE58000EEE5815E22D0EE66EFA
:1042500007DFE552D950FB0FE96EFF0EDA20EA6E58
:10426000000EEE6CEF1EEE22EF1EEE22EF1EEF228E
:10427000ED52ED52ED52DE520A0EDD6E010EDBCF35
:1042800000F0000EE76E0018E8AE02D0003403D054
:10429000E750D880005401E3B9D0010EDB04046E6E
:1042A000056A04BE056804C0E6FF05C0E6FF0A0E05
:1042B000E66EE66A29DFE552E552E552E55222C094
:1042C00000F023C001F024C002F025C003F022C09A
:1042D00027F023C028F024C029F025C02AF0FB0EC7
:1042E000DBCF22F0FC0EDBCF23F0FD0EDBCF24F082
:1042F000FE0EDBCF25F0B1EC2DF022502310241060
:10430000251041E0010EDF6EDB04086E096A08BE6D
:10431000096808C0E6FF09C0E6FF0A0EE66EE66A15
:10432000F3DEE552E552E552E55222C004F023C027
:1043300005F024C006F025C007F022C027F023C0F6
:1043400028F024C029F025C02AF0FB0EDBCF22F094
:10435000FC0EDBCF23F0FD0EDBCF24F0FE0EDBCF17
:1043600025F0B1EC2DF022C000F023C001F024C0F4
:1043700002F025C003F0300E0026000E01220222BA
:104380000322005003D0DF5004E0300EE66E68DEFA
:10439000E552010EDB04046E056A04BE056804C024
:1043A000E6FF05C0E6FF0A0EE66EE66AADDEE55200
:1043B000E552E552E55222C000F023C001F024C0CE
:1043C00002F025C003F0D950FB0FE96EFF0EDA2092
:1043D000EA6E22C027F023C028F024C029F025C0AF
:1043E0002AF0EECF22F0EECF23F0EECF24F0EFCF85
:1043F00025F0B1EC2DF021C0EDFF20C0EDFF1FC076
:10440000EDFF1EC0EFFF010EDB0638D7020EE15CA8
:1044100002E2E16AE552E16EE552E7CFD9FF120010
:10442000D9CFE6FFE1CFD9FFFB0EDBCF00F0FC0ECA
:10443000DBCF01F0FD0EDBCF02F0FE0EDBCF03F091
:10444000640E276E286A296A2A6A00C022F001C019
:1044500023F002C024F003C025F047EC2CF022C06A
:1044600000F023C001F024C002F025C003F022C0F8
:10447000E6FF23C0E6FF24C0E6FF25C0E6FFB5DE69
:10448000E552E552E552E5522E0EE66EE9DDE552C3
:10449000FB0EDBCF00F0FC0EDBCF01F0FD0EDBCF1F
:1044A00002F0FE0EDBCF03F0640E276E286A296A45
:1044B0002A6A00C022F001C023F002C024F003C029
:1044C00025F047EC2CF01EC000F01FC001F020C00A
:1044D00002F021C003F01EC0E6FF1FC0E6FF20C0AF
:1044E000E6FF21C0E6FF81DEE552E552E552E552E6
:1044F000E552E7CFD9FF1200D9CFE6FFE1CFD9FFD0
:10450000E652AE50DF6E580EE66E4F0EE66EE66A6D
:10451000010EE66E0EEC12F0E552E552E552E55260
:10452000DFCF00F0016A026A036A00C0E6FF01C043
:10453000E6FF02C0E6FF03C0E6FFE66A010EE66E94
:10454000E7EC10F0046E060EE15E0450E552E55211
:06455000E7CFD9FF1200C5
:0A455600D9CFE6FFE1CFD9FFD59ED3
:10456000FD0EDBCFC8F2FE0EDBCFC9F2D59C03688F
:104570000468056AC8C206F0C9C207F0086A065096
:10458000035C006E07500458016E08500558026E17
:10459000286A010E296E2A6A00C023F001C024F0A7
:1045A00002C025F01AEC2CF01F50D66E0368046888
:1045B000056AC8C206F0C9C207F0086A0650035C63
:1045C000006E07500458016E08500558026E286AA4
:1045D000010E296E2A6A00C023F001C024F002C037
:1045E00025F01AEC2CF023C000F024C001F025C007
:1045F00002F02350D76ED59AD586F28AF294F184D0
:10460000D58EE552E7CFD9FF1200D59E1200036880
:104610000468056AC8C206F0C9C207F0086A0650F5
:10462000035C006E07500458016E08500558026E76
:10463000286A010E296E2A6A00C023F001C024F006
:1046400002C025F01AEC2CF01F50D66E03680468E7
:10465000056AC8C206F0C9C207F0086A0650035CC2
:10466000006E07500458016E08500558026E286A03
:10467000010E296E2A6A00C023F001C024F002C096
:1046800025F01AEC2CF023C000F024C001F025C066
:1046900002F02350D76ED58E1200D9CFE6FFE1CFBE
:1046A000D9FFCD90FD0EDBCFCAF2FE0EDBCFCBF2F1
:1046B00003680468056ACAC206F0CBC207F0086A3C
:1046C0000650035C006E07500458016E08500558F0
:1046D000026E286A010E296E2A6A00C023F001C00A
:1046E00024F002C025F01AEC2CF02350CF6E0368A2
:1046F0000468056ACAC206F0CBC207F0086A065011
:10470000035C006E07500458016E08500558026E95
:10471000286A010E296E2A6A00C023F001C024F025
:1047200002C025F01AEC2CF01FC000F020C001F0F0
:1047300021C002F01F50CE6E9D809E909F90CD8E26
:10474000CD8CCD98CD9ACD96CD92CD80E552E7CF48
:10475000D9FF120003680468056ACAC206F0CBC21A
:1047600007F0086A0650035C006E07500458016E9B
:1047700008500558026E286A010E296E2A6A00C088
:1047800023F001C024F002C025F01AEC2CF02350D5
:10479000CF6E03680468056ACAC206F0CBC207F090
:1047A000086A0650035C006E07500458016E0850FA
:1047B0000558026E286A010E296E2A6A00C023F08D
:1047C00001C024F002C025F01AEC2CF01FC000F04C
:1047D00020C001F021C002F01F50CE6ECD8012002B
:1047E000CD901200D9CFE6FFE1CFD9FFCA94CC6AB1
:1047F000FE0EDB500201CC6FCD6BCB6E9D829E9284
:104800009F92CA90CA92CA84E552E7CFD9FF12009C
:10481000CCC2CBFFCA841200CA941200D9CFE6FFE3
:10482000E1CFD9FFB190FD0EDBCFCEF2FE0EDBCF94
:10483000CFF203680468056ACEC206F0CFC207F063
:10484000086A0650035C006E07500458016E085059
:104850000558026E286A010E296E2A6A00C023F0EC
:1048600001C024F002C025F01AEC2CF02350B36EE6
:1048700003680468056ACEC206F0CFC207F0086A72
:104880000650035C006E07500458016E085005582E
:10489000026E286A010E296E2A6A00C023F001C048
:1048A00024F002C025F01AEC2CF01FC000F020C04C
:1048B00001F021C002F01F50B26EA082A192A2921C
:1048C000B18EB198B19AB192B180E552E7CFD9FFDC
:1048D000120003680468056ACEC206F0CFC207F072
:1048E000086A0650035C006E07500458016E0850B9
:1048F0000558026E286A010E296E2A6A00C023F04C
:1049000001C024F002C025F01AEC2CF01F50B26E4A
:1049100003680468056ACEC206F0CFC207F0086AD1
:104920000650035C006E07500458016E085005588D
:10493000026E286A010E296E2A6A00C023F001C0A7
:1049400024F002C025F01AEC2CF023C000F024C0A3
:1049500001F025C002F02350B36EB1801200B19077
:1049600012000201D82B000ED923E051D85DE1518D
:10497000D95904E3D86BD96B010ED06F1200020134
:10498000DA2B000EDB23E251DA5DE351DB5904E35D
:10499000DA6BDB6B010ED16F12000201DC2B000E13
:1049A000DD23E451DC5DE551DD5904E3DC6BDD6BB7
:1049B000010ED26F12000201DE2B000EDF23E65142
:1049C000DE5DE751DF5904E3DE6BDF6B010ED36F71
:1049D0001200D9CFE6FFE1CFD9FFFD0EDBCFE0F229
:1049E000FE0EDBCFE1F20201D86BD96BD06BE55242
:1049F000E7CFD9FF1200D9CFE6FFE1CFD9FFFD0EF7
:104A0000DBCFE2F2FE0EDBCFE3F2050E296E2A6A5F
:104A1000E2C224F0E3C225F0F4EC2BF024C0E2F271
:104A200025C0E3F20201DA6BDB6BD16BE552E7CF15
:104A3000D9FF1200D9CFE6FFE1CFD9FFFD0EDBCFC2
:104A4000E6F2FE0EDBCFE7F20A0E296E2A6AE6C214
:104A500024F0E7C225F0F4EC2BF024C0E6F225C0E8
:104A6000E7F20201DE6BDF6BD36BE552E7CFD9FFD4
:024A7000120032
:0E4A72000F0E946E82681200CF0E9414946E94
:104A800082681200D9CFE6FFE1CFD9FF040EE126FC
:104A9000DE6ADD6ADECF00F0DDCF01F0D890015094
:104AA00004E6040E005C000E015801E390D0DECF56
:104AB000E9FFDDCFEAFFE80EE926010EEA22EF1C4E
:104AC000826E020EDB6A030EDB6A020EDBCF00F0A1
:104AD000030EDBCF01F0D890015004E6040E005C19
:104AE000000E01586EE2020EDBCFE9FF030EDBCFB2
:104AF000EAFFEC0EE926010EEA22EF5082143FE1B4
:104B0000DECF04F0DDCF05F0D89004360536D8901E
:104B100004360536020EDB500424E96E030EDB502A
:104B20000520EA6ED890E936EA36C80EE926010E6D
:104B3000EA22EECF02F0EFCF03F0010E0226000EC4
:104B40000322DECF00F0DDCF01F0D8900036013631
:104B5000D89000360136020EDB500024E96E030EB9
:104B6000DB500120EA6ED890E936EA36C80EE92615
:104B7000010EEA2202C0EEFF03C0EDFF1BD0DECF24
:104B800000F0DDCF01F0D89000360136D890003625
:104B90000136020EDB500024E96E030EDB500120CB
:104BA000EA6ED890E936EA36C80EE926010EEA2206
:104BB000EE6AED6A020EDB2A030E01E286D7DB2ADB
:104BC00084D7DF2A010E01E265D7DB2A63D7040E02
:104BD000E15C02E2E16AE552E16EE552E7CFD9FF1E
:104BE0001200D9CFE6FFE1CFD9FF040EE126DE6A3D
:104BF000DD6ADECF00F0DDCF01F0D890015004E691
:104C0000020E005C000E015801E394D0DECFE9FFF4
:104C1000DDCFEAFFE80EE926010EEA22EF1C82143E
:104C2000826E0F0E8210826E020EDB6A030EDB6A4A
:104C3000020EDBCF00F0030EDBCF01F0D890015065
:104C400004E6040E005C000E01586EE2020EDBCF9B
:104C5000E9FF030EDBCFEAFFEC0EE926010EEA22A4
:104C6000EF5082143FE1DECF04F0DDCF05F0D890A5
:104C700004360536D89004360536020EDB5004247F
:104C8000E96E030EDB500520EA6ED890E936EA366D
:104C9000C80EE926010EEA22EECF02F0EFCF03F0B4
:104CA000010E0226000E0322DECF00F0DDCF01F060
:104CB000D89000360136D89000360136020EDB500F
:104CC0000024E96E030EDB500120EA6ED890E9362D
:104CD000EA36C80EE926010EEA2202C0EEFF03C042
:104CE000EDFF1BD0DECF00F0DDCF01F0D890003615
:104CF0000136D89000360136020EDB500024E96EF2
:104D0000030EDB500120EA6ED890E936EA36C80E71
:104D1000E926010EEA22EE6AED6A020EDB2A030E94
:104D200001E286D7DB2A84D7DF2A010E01E261D7B0
:104D3000DB2A5FD7040EE15C02E2E16AE552E16E34
:104D4000E552E7CFD9FF1200D9CFE6FFE1CFD9FF77
:104D5000040EE126DE6ADD6ADECF00F0DDCF01F071
:104D6000FD0EDBCF02F0FE0EDBCF03F00150031887
:104D7000E8AE02D0033404D00250005C0350015866
:104D80001DE2020EDB6A030EDB6A020EDBCF00F0CF
:104D9000030EDBCF01F0D890015004E6EE0E005C6C
:104DA000000E015806E2020EDB2A030EEEE3DB2AB8
:104DB000ECD7DF2A010ED0E3DB2ACED7040EE15C6C
:104DC00002E2E16AE552E16EE552E7CFD9FF120057
:104DD000D9CFE6FFE1CFD9FF040EE126DE6ADD6A16
:104DE000DECF00F0DDCF01F0D890015004E6040ED4
:104DF000005C000E015875E2DECFE9FFDDCFEAFF6F
:104E0000E80EE926010EEA22EF1C826E020EDB6A32
:104E1000030EDB6A020EDBCF00F0030EDBCF01F0E6
:104E2000D890015004E6040E005C000E01584AE2DE
:104E3000DECF00F0DDCF01F0D89000360136D890FB
:104E400000360136020EDB500024E96E030EDB5003
:104E50000120EA6ED890E936EA36C80EE926010E3E
:104E6000EA22EE6AED6A020EDBCFE9FF030EDBCF2A
:104E7000EAFFEC0EE926010EEA22EF5082141CE153
:104E8000DECF00F0DDCF01F0D89000360136D890AB
:104E900000360136020EDB500024E96E030EDB50B3
:104EA0000120EA6ED890E936EA36C80EE926010EEE
:104EB000EA22010EEE6EED6A020EDB2A030EAAE371
:104EC000DB2AA8D78250816EE80EE66E030EE66EEE
:104ED0003BDFE552E552DF2A010E01E281D7DB2AF2
:104EE0007FD7040EE15C02E2E16AE552E16EE55231
:104EF000E7CFD9FF1200D9CFE6FFE1CFD9FFFD0EF2
:104F0000DBCFE9FFFE0EDBCFEAFFD890E936EA36C9
:104F1000C80EE926010EEA22010ED880EE54000EDA
:104F2000ED5413E2FD0EDBCFE9FFFE0EDBCFEAFF0F
:104F3000D890E936EA36C80EE926010EEA22EE2AB2
:104F4000000EEF22010EF36E01D0F36AF46AE5520F
:064F5000E7CFD9FF1200BB
:0A4F56002E0020202000206D332FD4
:104F600068200D0A00206D672F6C20464C4F573D7E
:104F70002000206D672F6C204E4F333D20002043D2
:104F8000204E48343D2000206D672F6C20544D503A
:104F90003D2000206D672F6C204353423D200020B0
:104FA00070482053533D200032302E30342E31369D
:104FB0002030393A31323A3037202070483D2020B5
:104FC000002A2A2A2A2A2A2A2A2A2A2A2A2A2A2A6B
:104FD0002A0044454E2047494F2054554F4920430D
:104FE0004159005F005F5F005F5F5F004B484F4EBD
:104FF000472043414E482042414F00464C4F5720E6
:1050000043414F2000544D502043414F2000544D08
:10501000503D2020004E4F332043414F20004E4F43
:10502000333D2020004E48342043414F20004E485D
:10503000343D202000434F442043414F2000434F44
:10504000443D20200053532043414F200053533D03
:1050500020200050482043414F200050483D202050
:1050600000342E205361766500496E7075743A20C5
:105070000053455420464C4F5720414443202020A4
:105080003E0053455420544D50204144432020209D
:10509000203E00534554204E4F33204144432020AE
:1050A0002020200053455420544D5020414443209B
:1050B0002020202000534554204E4F3320414443AC
:1050C000202020203E00534554204E4834204144A7
:1050D0004320202020203E0053455420434F4420AD
:1050E00041444320202020202000534554204E4896
:1050F00034204144432020202020200053455420C8
:10510000434F442041444320202020203E0053456B
:10511000542053532041444320202020203E00535C
:105120004554205048204144432020202020200086
:105130005345542053532041444320202020202015
:105140000053455420504820414443202020202033
:105150003E00353A204D41582020202020363A4D3F
:10516000494E00202053455420414443204D4F4494
:105170004520200053455420464C4F5720542E487C
:105180002020203E0053455420544D5020542E489A
:10519000202020203E00534554204E4F3320542ED3
:1051A0004820202020200053455420544D502054A6
:1051B0002E48202020202000534554204E4F3320DD
:1051C000542E48202020203E00534554204E483481
:1051D00020542E4820202020203E005345542043B8
:1051E0004F4420542E482020202020200053455496
:1051F000204E483420542E482020202020200053C8
:10520000455420434F4420542E4820202020203E47
:105210000053455420535320542E48202020202052
:105220003E0053455420504820542E482020202032
:1052300020200053455420535320542E4820202032
:105240002020200053455420504820542E48202030
:105250002020203E002020202020204D4F444520AB
:1052600020202020200020534554205448524553EC
:10527000484F4C44202000362E53455420414C4189
:10528000524D2020203E00352E5345452057415297
:105290004E494E47202000362E53455420414C4164
:1052A000524D2020202000352E5345452057415295
:1052B0004E494E47203E00342E534554204144432E
:1052C00020202020203E00332E5345542054482EC9
:1052D000484F4C442000342E534554204144430051
:1052E000332E5345542054482E484F4C44203E0002
:1052F000322E41444A5553542054494D4520203EB6
:1053000000312E444953504C41592054494D4520B9
:1053100000322E41444A5553542054494D452000F3
:10532000312E444953504C41592054494D45203E5B
:10533000002A2A2A2A2A2A2A2A2A2A2A2A2A2A0021
:105340002A2A2A2A204D454E55202A2A2A2A002078
:1053500000444543004E4F56004F435400534550C0
:1053600000415547004A554C004A554E004D4159A1
:1053700000415052004D415200464542004A414EC4
:10538000003A0045525200534154004652490054DD
:1053900048550057454400545545004D4F4E005365
:0353A000554E0067
:0153A3000009
:0C53A400D9CFE6FFE1CFD9FF020EE126D1
:1053B000FE0EDB500F0BDF6EFE0EDB380F0B0A0DFF
:1053C000010EF3CFDBFFDB50DF24006E020EE15C49
:1053D00002E2E16AE552E16E0050E552E7CFD9FF03
:1053E0001200D9CFE6FFE1CFD9FF020EE1260A0E67
:1053F000006E2A6EFE0EDBCF25F026EC2EF021503B
:10540000DF6E0A0E006E2A6EFE0EDBCF25F026EC54
:105410002EF02550100D010EF3CFDBFFDB50DF2403
:10542000006E020EE15C02E2E16AE552E16E0050BC
:10543000E552E7CFD9FF1200949694981200D9CF85
:10544000E6FFE1CFD9FFE652DF6AFE0EDB50DF5CFC
:1054500002E2DF2AFAD7E552E552E7CFD9FF120080
:1054600082A8000C010C0F017F5102E08288828625
:1054700082988296010E7F6F1200829882868288BF
:105480000F017F6B1200D9CFE6FFE1CFD9FF020EEB
:10549000E126DF6ADFCF00F0080EE76E0018E8AE05
:1054A00002D0E73402D0E750005C0FE2FE0EDBBE14
:1054B00002D0829801D0828882868296DB50020DCB
:1054C000FE0EF3CFDBFFDF2AE5D794888286C8DFA4
:1054D000E76E010EE7CFDBFF82969498DB50006EFB
:1054E000020EE15C02E2E16AE552E16E0050E55233
:1054F000E7CFD9FF1200D9CFE6FFE1CFD9FF020EE7
:10550000E126DF6A9488010EDB6ADBCF00F0080E2B
:10551000E76E0018E8AE02D0E73402D0E750005C36
:105520000BE282869DDF006EDF50E8240010DF6E04
:105530008296010EDB2AE9D79498FE0EDB5002E03A
:10554000828801D0829882868296DF50006E020E99
:10555000E15C02E2E16AE552E16E0050E552E7CF1C
:10556000D9FF1200D9CFE6FFE1CFD9FF7CDFD00E03
:10557000E66E89DFE552FE0EDBCFE6FF84DFE55203
:10558000FD0EDBCFE6FF2DDFE552E66E7CDFE55258
:1055900074DFE552E7CFD9FF1200D9CFE6FFE1CFA4
:1055A000D9FFE65260DFD00EE66E6DDFE552FE0EEB
:1055B000DBCFE6FF68DFE55256DFD10EE66E63DF34
:1055C000E552010EE66E97DFE552DF6EDFCFE6FFB4
:1055D000E9DEE552DF6E51DFDF50E552E552E7CFFD
:0455E000D9FF1200DD
:0C55E400F28ED08EF28C1200F19CF2923C
:1055F000F2881200D8CFE4FFE0CFE4FFE46EDACF08
:10560000E4FFE2CFDAFFE9CFE4FFEACFE4FFF6CF31
:10561000E4FFF7CFE4FFF5CFE4FFF3CFE4FFF4CFEF
:10562000E4FFFACFE4FF00EE1CF0100EE80403E301
:10563000EECFE4FFFBD700EE00F01C0EE80403E31E
:10564000EECFE4FFFBD7E652F2A407D005EC23F03F
:10565000F29407EC23F0B1EC24F09EA007D0F0EC1C
:1056600023F09E90AAEC23F0BFEC24F0A1A207D077
:10567000AFEC24F0A19269EC24F0DBEC24F0F2B260
:10568000F2929EAA03D09E9A7CEC22F0E55200EEA4
:105690001BF01C0EE80403E3E5CFEDFFFBD700EEA3
:1056A0002BF0100EE80403E3E5CFEDFFFBD7E5CFC9
:1056B000FAFFE5CFF4FFE5CFF3FFE5CFF5FFE5CF48
:1056C000F7FFE5CFF6FFE5CFEAFFE5CFE9FFE5CF4E
:1056D000DAFFE550E5CFE0FFE5CFD8FF1000DACFE5
:1056E000E4FFE2CFDAFFE9CFE4FFEACFE4FFF6CF51
:1056F000E4FFF7CFE4FFF5CFE4FFF3CFE4FFF4CF0F
:10570000E4FFFACFE4FF00EE1CF0100EE80403E320
:10571000EECFE4FFFBD700EE00F01C0EE80403E33D
:10572000EECFE4FFFBD7E652F2A407D005EC23F05E
:10573000F29407EC23F0B1EC24F09EA007D0F0EC3B
:1057400023F09E90AAEC23F0BFEC24F0A1A207D096
:10575000AFEC24F0A19269EC24F0DBEC24F0F2B27F
:10576000F2929EAA03D09E9A7CEC22F0E55200EEC3
:105770001BF01C0EE80403E3E5CFEDFFFBD700EEC2
:105780002BF0100EE80403E3E5CFEDFFFBD7E5CFE8
:10579000FAFFE5CFF4FFE5CFF3FFE5CFF5FFE5CF67
:1057A000F7FFE5CFF6FFE5CFEAFFE5CFE9FFE5CF6D
:0457B000DAFF11000B
:0C57B4001C6A2AAEE0EF2BF02A6C1C1ED1
:1057C00025AEE5EF2BF0256C1C1E26EC2EF025BE39
:1057D000EFEF2BF01CAE000C256C216C000C1CBEF6
:1057E000ECEF2BF01D88FF0C1C6A2AAEFDEF2BF0AE
:1057F000296C2A1EE86A2A221C1E25AE05EF2CF011
:10580000246C251EE86A25221C1EF2EC2DF025BE14
:1058100015EF2CF01CAE000C246C251EE86A252226
:10582000206C211EE86A2122000C1CBE0CEF2CF01B
:105830001D88FF0C1C6A2AAE25EF2CF0286C291E4F
:105840002A1EE86A29222A221C1E25AE2FEF2CF0E0
:10585000236C241E251EE86A242225221C1ED5EC5A
:105860002DF025BE42EF2CF01CAE000C236C241E44
:10587000251EE86A242225221F6C201E211E2022BC
:105880002122000C1CBE36EF2CF01D88FF0C1C6A78
:10589000E86A2AAE54EF2CF0276C281E291E2A1E17
:1058A000282229222A221C1E25AE5FEF2CF0226C12
:1058B000231E241E251E2322242225221C1EB1EC79
:1058C0002DF025BE76EF2CF01CAE000C226C231EB2
:1058D000241E251EE86A2322242225221E6C1F1E58
:1058E000201E211E1F2220222122000C1CBE66EF3A
:0658F0002CF01D88FF0CE6
:0A58F600F8C0E6FFE66AB2EC2AF003
:10590000E552E552F9C0E6FF010EE66EB2EC2AF070
:10591000E552E552FAC0E6FF020EE66EB2EC2AF05E
:10592000E552E552FBC0E6FF030EE66EB2EC2AF04C
:10593000E552E552FCC0E6FF040EE66EB2EC2AF03A
:10594000E552E552FDC0E6FF050EE66EB2EC2AF028
:10595000E552E552FEC0E6FF060EE66EB2EC2AF016
:10596000E552E5521200E66ACDEC2AF0E55200015C
:10597000F86F010EE66ECDEC2AF0E5520001F96FEA
:10598000020EE66ECDEC2AF0E5520001FA6F030E2E
:10599000E66ECDEC2AF0E5520001FB6F040EE66ED8
:1059A000CDEC2AF0E5520001FC6F050EE66ECDEC61
:1059B0002AF0E5520001FD6F060EE66ECDEC2AF0EE
:0859C000E5520001FE6F120028
:0859C8001E0EF66E000EF76ED4
:1059D000000EF86E02010900F550ED6F0900F55058
:1059E000EE6F03E1ED6701D03DD00900F550E86F9F
:1059F0000900F550E96F0900F550EA6F0900090048
:105A0000F550E96E0900F550EA6E09000900090039
:105A1000F550EB6F0900F550EC6F09000900F6CF67
:105A2000EFF2F7CFF0F2F8CFF1F2E8C2F6FFE9C2F9
:105A3000F7FFEAC2F8FF0201EB5302E1EC5307E083
:105A40000900F550EE6EEB07F8E2EC07F9D7EFC26C
:105A5000F6FFF0C2F7FFF1C2F8FF0201ED07000EFA
:065A6000EE5BBFD712004F
:0A5A66000F0E926E0B0EC16E040EBF
:105A7000C06E1200D9CFE6FFE1CFD9FF020EE126BA
:105A8000FE0EDB50040DF350C26EC280C282C2B261
