:020000040000FA
:06000000ADEF26F0120036
:020006001200E6
:0600080004EF24F01200D9
:02000E000000F0
:020010000000EE
:060018008FEF23F012003F
:02001E000800D8
:10002000824E0000580F0000280000007B4E0000A8
:10003000F801000007000000234E0000000F000040
:1000400058000000CD440000FF0100000100000046
:100050000E0000000002000004000000C24D00007D
:100060008000000061000000B24D0000DE010000D1
:1000700010000000924D0000BE01000020000000B2
:10008000ADEC0FF00101FB51070A24E0010A1EE06C
:10009000030A18E0010A12E0070A0CE0010A06E070
:1000A000030A1CE1C90EE66E440E1BD0C50EE66EB7
:1000B000440E17D0C10EE66E440E13D0BD0EE66E90
:1000C000440E0FD0B90EE66E440E0BD0B50EE66EA0
:1000D000440E07D0B10EE66E440E03D0AD0EE66EB0
:1000E000440EE66EE66AE66A22EC12F0E552E5524C
:1000F000E552E5520A0E146E0E6EFAC109F06FEC6D
:1001000024F009C010F0116A126A136A10AE03D00D
:1001100011681268136810C0E6FF11C0E6FF12C034
:10012000E6FF13C0E6FF040EE66EE66AFBEC10F095
:10013000156E060EE15E1550FAC109F00A0E0E6E3C
:100140006FEC24F005C010F0116A126A136A10AE49
:1001500003D011681268136810C0E6FF11C0E6FFF3
:1001600012C0E6FF13C0E6FF050EE66EE66AFBEC82
:1001700010F0146E060EE15E1450AB0EE66E440EE7
:10018000E66E060EE66EE66A22EC12F0E552E552E5
:10019000E552E5520A0E146E0E6EF9C109F06FECCD
:1001A00024F009C010F0116A126A136A10AE03D06D
:1001B00011681268136810C0E6FF11C0E6FF12C094
:1001C000E6FF13C0E6FF070EE66EE66AFBEC10F0F2
:1001D000156E060EE15E1550F9C109F00A0E0E6E9D
:1001E0006FEC24F005C010F0116A126A136A10AEA9
:1001F00003D011681268136810C0E6FF11C0E6FF53
:1002000012C0E6FF13C0E6FF080EE66EE66AFBECDE
:1002100010F0146E060EE15E1450AB0EE66E440E46
:10022000E66E090EE66EE66A22EC12F0E552E55241
:10023000E552E5520A0E146E0E6EF8C109F06FEC2D
:1002400024F009C010F0116A126A136A10AE03D0CC
:1002500011681268136810C0E6FF11C0E6FF12C0F3
:10026000E6FF13C0E6FF0A0EE66EE66AFBEC10F04E
:10027000156E060EE15E1550F8C109F00A0E0E6EFD
:100280006FEC24F005C010F0116A126A136A10AE08
:1002900003D011681268136810C0E6FF11C0E6FFB2
:1002A00012C0E6FF13C0E6FF0B0EE66EE66AFBEC3B
:1002B00010F0146E060EE15E14500101FD510C0A9F
:1002C00042E0070A3CE0010A36E0030A30E0010A96
:1002D0002AE00F0A24E0010A1EE0030A18E0010ADE
:1002E00012E0070A0CE0010A06E0030A30E1A70E5B
:1002F000E66E440E2FD0A30EE66E440E2BD09F0E5A
:10030000E66E440E27D09B0EE66E440E23D0970E69
:10031000E66E440E1FD0930EE66E440E1BD08F0E79
:10032000E66E440E17D08B0EE66E440E13D0870E89
:10033000E66E440E0FD0830EE66E440E0BD07F0E99
:10034000E66E440E07D07B0EE66E440E03D0AD0E73
:10035000E66E440EE66E020EE66E010EE66E22ECCE
:1003600012F0E552E552E552E552790EE66E440E82
:10037000E66E050EE66E010EE66E22EC12F0E55218
:10038000E552E552E5520A0E146E0E6EFCC109F0FC
:100390006FEC24F009C010F0116A126A136A10AEF3
:1003A00003D011681268136810C0E6FF11C0E6FFA1
:1003B00012C0E6FF13C0E6FF060EE66E010EE66E03
:1003C000FBEC10F0156E060EE15E1550FCC109F055
:1003D0000A0E0E6E6FEC24F005C010F0116A126A5E
:1003E000136A10AE03D011681268136810C0E6FFDC
:1003F00011C0E6FF12C0E6FF13C0E6FF070EE66E6F
:10040000010EE66EFBEC10F0146E060EE15E145069
:10041000790EE66E440EE66E080EE66E010EE66E8E
:1004200022EC12F0E552E552E552E552140EE66E6A
:10043000E66AE66AE66A090EE66E010EE66EFBEC17
:1004400010F0106E060EE15E10500A0E146E0E6E65
:10045000FEC109F06FEC24F009C010F0116A126AB5
:10046000136A10AE03D011681268136810C0E6FF5B
:1004700011C0E6FF12C0E6FF13C0E6FF0B0EE66EEA
:10048000010EE66EFBEC10F0156E060EE15E1550E7
:10049000FEC109F00A0E0E6E6FEC24F005C010F0DC
:1004A000116A126A136A10AE03D0116812681368D9
:1004B00010C0E6FF11C0E6FF12C0E6FF13C0E6FF62
:1004C0000C0EE66E010EE66EFBEC10F0146E060EDE
:1004D000E15E14501200ADEC0FF0030E0F0106198F
:1004E00001E1075142E0020E061901E1075129E03E
:1004F000010E061901E1075114E0065143E10751CD
:1005000041E16A0EE66E440EE66EE66AE66A22ECA9
:1005100012F0E552E552E552E5525B0EE66E440EEE
:100520001FD04B0EE66E440EE66EE66AE66A22ECDB
:1005300012F0E552E552E552E5523C0EE66E440EED
:100540000FD0310EE66E440EE66EE66AE66A22ECE5
:1005500012F0E552E552E552E552240EE66E440EE5
:10056000E66EE66A010EE66E06D0150EE66E440EE5
:10057000E66EE66AE66A22EC12F0E552E552E552D2
:10058000E5521200066B076B1200ADEC0FF0070E80
:100590000F01061901E1075101E199D0060E061974
:1005A00001E1075101E17FD0050E061901E1075174
:1005B0006AE0040E061901E1075155E0030E061921
:1005C00001E1075140E0020E061901E107512BE05D
:1005D000010E061901E1075116E0065101E084D031
:1005E000075101E081D0050EE66E440EE66EE66A24
:1005F000E66A22EC12F0E552E552E552E552F80EB9
:10060000E66E430E5FD0EA0EE66E430EE66EE66AD5
:10061000E66A22EC12F0E552E552E552E552DC0EB4
:10062000E66E430E4FD0CE0EE66E430EE66EE66AE1
:10063000E66A22EC12F0E552E552E552E552C00EB0
:10064000E66E430E3FD0B30EE66E430EE66EE66AEC
:10065000E66A22EC12F0E552E552E552E552A60EAA
:10066000E66E430E2FD0990EE66E430EE66EE66AF6
:10067000E66A22EC12F0E552E552E552E5528C0EA4
:10068000E66E430E1FD07E0EE66E430EE66EE66A01
:10069000E66A22EC12F0E552E552E552E552700EA0
:1006A000E66E430E0FD0620EE66E430EE66EE66A0D
:1006B000E66A22EC12F0E552E552E552E552540E9C
:1006C000E66E430EE66EE66A010EE66E06D0450E55
:1006D000E66E430EE66EE66AE66A22EC12F0E5523A
:1006E000E552E552E5521200066B076B1200ADECC5
:1006F0000FF03D0EE66E430EE66EE66AE66A22EC09
:1007000012F0E552E552E552E55204CF10F005CF64
:1007100011F0126A136A11AE02D01268136810C089
:10072000E6FF11C0E6FF12C0E6FF13C0E6FF070EAA
:10073000E66EE66AFBEC10F0146E060EE15E1450F5
:10074000350EE66E430EE66EE66A010EE66E22ECAC
:1007500012F0E552E552E552E5521200ADEC0FF011
:10076000010106510F014A5D010107510F014B596B
:1007700027E22F0EE66E430EE66EE66AE66A22EC8C
:1007800012F0E552E552E552E55206C110F007C1FC
:1007900011F0126A136A06C1E6FF07C1E6FF12C034
:1007A000E6FF13C0E6FF060EE66EE66A4DEC12F0B9
:1007B000146E060EE15E1450270EE66E430E1FD136
:1007C00001010A510F014C5D01010B510F014D59FF
:1007D00027E2200EE66E430EE66EE66AE66A22EC3B
:1007E00012F0E552E552E552E5520AC110F00BC194
:1007F00011F0126A136A0AC1E6FF0BC1E6FF12C0CC
:10080000E6FF13C0E6FF060EE66EE66A4DEC12F058
:10081000146E060EE15E1450170EE66E430EEFD016
:10082000010108510F014E5D010109510F014F599E
:1008300027E2110EE66E430EE66EE66AE66A22ECE9
:1008400012F0E552E552E552E55208C110F009C137
:1008500011F0126A136A08C1E6FF09C1E6FF12C06F
:10086000E6FF13C0E6FF060EE66EE66A4DEC12F0F8
:10087000146E060EE15E1450090EE66E430EBFD0F4
:1008800001010C510F01505D01010D510F01515932
:1008900027E2020EE66E430EE66EE66AE66A22EC98
:1008A00012F0E552E552E552E5520CC110F00DC1CF
:1008B00011F0126A136A0CC1E6FF0DC1E6FF12C007
:1008C000E6FF13C0E6FF060EE66EE66A4DEC12F098
:1008D000146E060EE15E1450F90EE66E420E8FD0D5
:1008E00001010E510F01525D01010F510F015359CA
:1008F00027E2F20EE66E420EE66EE66AE66A22EC49
:1009000012F0E552E552E552E5520EC110F00FC16A
:1009100011F0126A136A0EC1E6FF0FC1E6FF12C0A2
:10092000E6FF13C0E6FF060EE66EE66A4DEC12F037
:10093000146E060EE15E1450E90EE66E420E5FD0B4
:10094000010110510F01545D010111510F01555961
:1009500027E2E20EE66E420EE66EE66AE66A22ECF8
:1009600012F0E552E552E552E55210C110F011C106
:1009700011F0126A136A10C1E6FF11C1E6FF12C03E
:10098000E6FF13C0E6FF060EE66EE66A4DEC12F0D7
:10099000146E060EE15E1450D90EE66E420E2FD094
:1009A000010112510F01565D010113510F015759F9
:1009B0002BE2110EE66E430EE66EE66AE66A22EC64
:1009C00012F0E552E552E552E55212C110F013C1A2
:1009D00011F0126A136A12C1E6FF13C1E6FF12C0DA
:1009E000E6FF13C0E6FF060EE66EE66A4DEC12F077
:1009F000146E060EE15E1450CF0EE66E420EE66EE9
:100A0000E66A010EE66E06D0C00EE66E420EE66E97
:100A1000E66AE66A22EC12F0E552E552E552E5524A
:100A20001200ADEC0FF00F01010E00191CE1015195
:100A30001AE1BE0EE66E420EE66E040EE66EE66A41
:100A400022EC12F0E552E552E552E552BE0EE66E9A
:100A5000420EE66E050EE66EE66A22EC12F0E552F4
:100A6000E552E552E5520F01050E585D000E595949
:100A700024E358CF10F00001116A010E101610186F
:100A80001CE111501AE10101FA29FA6F170EE76E05
:100A9000FA19E8AE02D0FA3503D0E750D880FA55FB
:100AA00001E2FA6BFAC1E6FF020EE66E47EC23F0B4
:100AB000E552E5520F01586B596B0F010A0E5A5D52
:100AC000000E5B591CE35ACF10F00001116A010EB1
:100AD0001016101814E1115012E10101FA05FA6F15
:100AE000E83402E3170EFA6FFAC1E6FF020EE66E73
:100AF00047EC23F0E552E5520F015A6B5B6B120095
:100B0000ADEC0FF00F01010E00191CE101511AE1CB
:100B1000BE0EE66E420EE66E070EE66EE66A22EC4A
:100B200012F0E552E552E552E552BE0EE66E420E77
:100B3000E66E080EE66EE66A22EC12F0E552E55229
:100B4000E552E5520F010A0E585D000E595924E393
:100B500058CF10F00001116A010E101610181CE198
:100B600011501AE10101F929F96F3B0EE76EF919ED
:100B7000E8AE02D0F93503D0E750D880F95501E24C
:100B8000F96BF9C1E6FF010EE66E47EC23F0E55282
:100B9000E5520F01586B596B0F010A0E5A5D000E9A
:100BA0005B591CE35ACF10F00001116A010E1016B8
:100BB000101814E1115012E10101F905F96FE83440
:100BC00002E33B0EF96FF9C1E6FF010EE66E47EC5A
:100BD00023F0E552E5520F015A6B5B6B1200ADEC4E
:100BE0000FF00F01010E001928E1015126E1BE0EA0
:100BF000E66E420EE66EE66AE66A22EC12F0E55216
:100C0000E552E552E552BE0EE66E420EE66E010E6C
:100C1000E66EE66A22EC12F0E552E552E552E55244
:100C2000BE0EE66E420EE66E020EE66EE66A22EC3E
:100C300012F0E552E552E552E5520F010A0E585DF9
:100C4000000E595925E358CF10F00001116A010E2A
:100C5000101610181DE111501BE10101FB29FB6F5B
:100C6000070EE76EFB19E8AE02D0FB3503D0E75064
:100C7000D880FB5502E2010EFB6FFBC1E6FF030EBD
:100C8000E66E47EC23F0E552E5520F01586B596BC5
:100C90000F010A0E5A5D000E5B5924E35ACF10F083
:100CA0000001116A010E101610181CE111501AE112
:100CB0000101FB05FB6F010EE76EFB19E8AE02D0E8
:100CC000E73402D0E750FB5D02E2070EFB6FFBC189
:100CD000E6FF030EE66E47EC23F0E552E5520F0106
:100CE0005A6B5B6B1200ADEC0FF00F01010E001997
:100CF0001EE101511CE1BE0EE66E420EE66E060ECE
:100D0000E66E010EE66E22EC12F0E552E552E55277
:100D1000E552BE0EE66E420EE66E070EE66E010E60
:100D2000E66E22EC12F0E552E552E552E5520F0173
:100D30000A0E585D000E595925E358CF10F00001F6
:100D4000116A010E101610181DE111501BE101016E
:100D5000FC29FC6F1F0EE76EFC19E8AE02D0FC35D3
:100D600003D0E750D880FC5502E2010EFC6FFCC1B5
:100D7000E6FF040EE66E47EC23F0E552E5520F0164
:100D8000586B596B0F010A0E5A5D000E5B5924E334
:100D90005ACF10F00001116A010E101610181CE154
:100DA00011501AE10101FC05FC6F010EE76EFC1900
:100DB000E8AE02D0E73402D0E750FC5D02E21F0E3D
:100DC000FC6FFCC1E6FF040EE66E47EC23F0E55233
:100DD000E5520F015A6B5B6B1200ADEC0FF00F0187
:100DE000010E00192CE101512AE1BE0EE66E420E01
:100DF000E66E020EE66E010EE66E22EC12F0E55291
:100E0000E552E552E552BE0EE66E420EE66E030E68
:100E1000E66E010EE66E22EC12F0E552E552E55266
:100E2000E552BE0EE66E420EE66E040EE66E010E52
:100E3000E66E22EC12F0E552E552E552E5520F0162
:100E40000A0E585D000E595925E358CF10F00001E5
:100E5000116A010E101610181DE111501BE101015D
:100E6000FD29FD6F0C0EE76EFD19E8AE02D0FD35D1
:100E700003D0E750D880FD5502E2010EFD6FFDC1A1
:100E8000E6FF050EE66E47EC23F0E552E5520F0152
:100E9000586B596B0F010A0E5A5D000E5B5924E323
:100EA0005ACF10F00001116A010E101610181CE143
:100EB00011501AE10101FD05FD6F010EE76EFD19EC
:100EC000E8AE02D0E73402D0E750FD5D02E20C0E3E
:100ED000FD6FFDC1E6FF050EE66E47EC23F0E5521F
:100EE000E5520F015A6B5B6B1200ADEC0FF00F0176
:100EF000010E00191EE101511CE1BE0EE66E420E0C
:100F0000E66E0B0EE66E010EE66E22EC12F0E55276
:100F1000E552E552E552BE0EE66E420EE66E0C0E4E
:100F2000E66E010EE66E22EC12F0E552E552E55255
:100F3000E5520F010A0E585D000E595924E358CFAF
:100F400010F00001116A010E101610181CE111506A
:100F50001AE10101FE29FE6F630EE76EFE19E8AE8D
:100F600002D0FE3503D0E750D880FE5501E2FE6B7B
:100F7000FEC1E6FF060EE66E47EC23F0E552E552B1
:100F80000F01586B596B0F010A0E5A5D000E5B5929
:100F90001CE35ACF10F00001116A010E1016101850
:100FA00014E1115012E10101FE05FE6FE83402E385
:100FB000630EFE6FFEC1E6FF060EE66E47EC23F001
:100FC000E552E5520F015A6B5B6B1200ADEC0FF06E
:100FD00048EC25F0110E0F01081901E1095101E15A
:100FE000BCD0100E081901E1095101E199D00F0E92
:100FF000081901E1095101E176D00D0E081901E14E
:10100000095154E00C0E081901E1095130E00E0EAF
:10101000081901E109510CE0085101E1095101E011
:10102000120040EC00F00E0E0F01086F096B120069
:1010300040EC00F0D4DD0F010A0E5E5D000E5F593A
:1010400001E2A8D05ECF10F05FCF11F00001116A6D
:10105000010E101610180AE1115001E09BD00C0E81
:101060000F01086F096B0F015E6B5F6B120040ECA4
:1010700000F0D7DC0F010A0E5E5D000E5F5901E241
:1010800089D05ECF10F05FCF11F00001116A010E20
:10109000101610180AE1115001E07CD00D0E0F015E
:1010A000086F096B0F015E6B5F6B120040EC00F084
:1010B00027DD0F010A0E5E5D000E5F596BE35ECF08
:1010C00010F05FCF11F00001116A010E1016101818
:1010D00009E111505FE10F0E0F01086F096B0F015D
:1010E0005E6B5F6B1200FFDD40EC00F00F010A0E3B
:1010F0005E5D000E5F594EE35ECF10F05FCF11F0E2
:101100000001116A010E1016101809E1115042E198
:10111000100E0F01086F096B0F015E6B5F6B120001
:101120005CDE40EC00F00F010A0E5E5D000E5F59C0
:1011300031E35ECF10F05FCF11F00001116A010EB4
:101140001016101809E1115025E1110E0F01086F5A
:10115000096B0F015E6B5F6B1200C7DE40EC00F0A5
:101160000F010A0E5E5D000E5F5914E35ECF10F0B2
:101170005FCF11F00001116A010E1016101809E17D
:10118000115008E10E0E0F01086F096B0F015E6B25
:101190005F6B12001200070E0F010A1901E10B51DB
:1011A00001E194D0060E0A1901E10B5101E17ED054
:1011B000050E0A1901E10B5152E0040E0A1901E172
:1011C0000B513DE0030E0A1901E10B5129E0020E1B
:1011D0000A1901E10B5115E0010E0A1901E10B5149
:1011E00001E012000101FA2B170EE76EFA19E8AEC2
:1011F00002D0FA3503D0E750D880FA556AE2FA6B8C
:1012000012000101F92B3B0EE76EF919E8AE02D08E
:10121000F93503D0E750D880F9555BE2F96B12003D
:101220000101F82B3B0EE76EF819E8AE02D0F83555
:1012300003D0E750D880F8554CE2F86B120001015A
:10124000FB2B070EE76EFB19E8AE02D0FB3503D08F
:10125000E750D880FB553DE2010EFB6F1200010103
:10126000FC29FC6F106E116A10BE11680101FD05AA
:10127000E96EEA6AE9BEEA68D890E936EA360E0E07
:10128000E9260F0EEA22EECF12F0EFCF13F0135043
:101290001118E8AE02D0113404D01050125C115075
:1012A000135817E20101010EFC6F12000101FD2B22
:1012B0000C0EE76EFD19E8AE02D0FD3503D0E75005
:1012C000D880FD5506E2010EFD6F12000101FE2BD4
:1012D00012001200070E0F010A1901E10B516FE015
:1012E000060E0A1901E10B515BE0050E0A1901E136
:1012F0000B5139E0040E0A1901E10B5125E0030EF0
:101300000A1901E10B5119E0020E0A1901E10B5112
:101310000DE0010E0A1901E10B5101E0120001017B
:10132000FA07FA3552E3170EFA6F12000101F907B6
:10133000F9354BE33B0EF96F12000101F807F83560
:1013400044E33B0EF86F12000101FB07010EE76E4C
:10135000FB19E8AE02D0E73402D0E750FB5D35E27E
:10136000070EFB6F12000101FC05FC6F010EE76E1A
:10137000FC19E8AE02D0E73402D0E750FC5D25E26C
:101380000101FD05E96EEA6AE9BEEA68D890E9362E
:10139000EA360E0EE9260F0EEA22EFCFFCF112001C
:1013A0000101FD07010EE76EFD19E8AE02D0E7343A
:1013B00002D0E750FD5D09E20C0EFD6F1200010145
:1013C000FE07FE3502E3FE6B12001200ADEC0FF0DB
:1013D0000A0E146E0E6EFAC109F06FEC24F009C00B
:1013E00010F0116A126A136A10AE03D01168126805
:1013F000136810C0E6FF11C0E6FF12C0E6FF13C07D
:10140000E6FF050EE66EE66AFBEC10F0156E060EC2
:10141000E15E1550FAC109F00A0E0E6E6FEC24F071
:1014200005C010F0116A126A136A10AE03D0116879
:101430001268136810C0E6FF11C0E6FF12C0E6FF95
:1014400013C0E6FF060EE66EE66AFBEC10F0146EC3
:10145000060EE15E14500F01010E0A1922E10B5134
:1014600020E10F01010E00191CE101511AE1BE0E2D
:10147000E66E420EE66E050EE66EE66A22EC12F0AD
:10148000E552E552E552E552BE0EE66E420EE66EBC
:10149000060EE66EE66A22EC12F0E552E552E552DF
:1014A000E552AB0EE66E440EE66E070EE66EE66A99
:1014B00022EC12F0E552E552E552E5520A0E146EA6
:1014C0000E6EF9C109F06FEC24F009C010F0116A3A
:1014D000126A136A10AE03D011681268136810C044
:1014E000E6FF11C0E6FF12C0E6FF13C0E6FF080EDC
:1014F000E66EE66AFBEC10F0156E060EE15E155026
:10150000F9C109F00A0E0E6E6FEC24F005C010F060
:10151000116A126A136A10AE03D011681268136858
:1015200010C0E6FF11C0E6FF12C0E6FF13C0E6FFE1
:10153000090EE66EE66AFBEC10F0146E060EE15E34
:1015400014500F01020E0A1922E10B5120E10F0184
:10155000010E00191CE101511AE1BE0EE66E420EA9
:10156000E66E080EE66EE66A22EC12F0E552E552EF
:10157000E552E552BE0EE66E420EE66E090EE66ECE
:10158000E66A22EC12F0E552E552E552E55212000D
:101590000F010A0E585D000E595927E358CF10F07D
:1015A000116A010E1016101820E111501EE1010EF3
:1015B0000F010A250A6F000E0B210B6F080E0D6E2E
:1015C0000E6A0ACF08F00BCF09F089EC24F004C0B2
:1015D0000AFF05C00BFF0F010450051003E10A2BA1
:1015E000000E0B230F01586B596B0A0E645D000E41
:1015F00065590EE364CF10F00001116A010E101658
:10160000101806E1115004E1C6DD0F01646B656B33
:101610000F010A0E605D000E61590EE360CF10F0FD
:101620000001116A010E1016101806E1115004E1B4
:1016300051DE0F01606B616B0F010A0E5A5D000EE7
:101640005B5918E35ACF10F00001116A010E101611
:10165000101810E111500EE1FAC100F1F9C101F1C9
:10166000010E0F01026F036B0F010C6F0D6B0F0169
:0A1670005A6B5B6BABDEDCEF0FF092
:06167A00D9CFE6FFE1CF2D
:10168000D9FF040EE126DE6ADD6ADECF10F0DDCF81
:1016900011F0126A136A11AE02D012681368D950A1
:1016A000FB0FE96EFF0EDA20EA6EEE50105CEE5092
:1016B0001158EE501258EE5013581DE2020EDB6A1C
:1016C000030EDB6A020EDBCF10F0030EDBCF11F04E
:1016D000D890115004E6050E105C000E115806E279
:1016E000020EDB2A030EEEE3DB2AECD7DF2A010E23
:1016F000CCE3DB2ACAD7040EE15C02E2E16AE552E0
:10170000E16EE552E7CFD9FF1200D9CFE6FFE1CF76
:10171000D9FF040EE126DE6ADD6ADECF10F0DDCFF0
:1017200011F0126A136A11AE02D012681368D95010
:10173000FB0FE96EFF0EDA20EA6EEE50105CEE5001
:101740001158EE501258EE5013581DE2020EDB6A8B
:10175000030EDB6A020EDBCF10F0030EDBCF11F0BD
:10176000D890115004E6EE0E105C000E115806E2FF
:10177000020EDB2A030EEEE3DB2AECD7DF2A010E92
:10178000CCE3DB2ACAD7040EE15C02E2E16AE5524F
:10179000E16EE552E7CFD9FF1200D9CFE6FFE1CFE6
:1017A000D9FF0F0E8116FE0EDB50F00B81128186E1
:1017B000010EE66EE66AE66AE66AA7DFE552E552E2
:1017C000E552E5528196010EE66EE66AE66AE66A41
:1017D0009CDFE552E552E552E5520F0E8116FE0EF2
:1017E000DB38F00B81128186010EE66EE66AE66A4E
:1017F000E66A8BDFE552E552E552E5528196010E2D
:10180000E66EE66AE66AE66A80DFE552E552E55290
:10181000E552E552E7CFD9FF1200D9CFE6FFE1CF7D
:10182000D9FFE652190EE66EE66AE66AE66A6DDFF1
:10183000E552E552E552E5520F0E8116F80E81167B
:101840000F0E8116300E81128186010EE66EE66A59
:10185000E66AE66A5ADFE552E552E552E5528196BC
:10186000010EE66EE66AE66AE66A4FDFE552E55289
:10187000E552E5520F0E8116300E81128186010E5F
:10188000E66EE66AE66AE66A40DFE552E552E55250
:10189000E5528196010EE66EE66AE66AE66A35DF93
:1018A000E552E552E552E5520F0E8116300E8112D7
:1018B0008186010EE66EE66AE66AE66A26DFE55292
:1018C000E552E552E5528196010EE66EE66AE66A59
:1018D000E66A1BDFE552E552E552E5520F0E81162E
:1018E000818A8186010EE66EE66AE66AE66A0DDFA7
:1018F000E552E552E552E5528196010EE66EE66A42
:10190000E66AE66A02DFE552E552E552E552280E44
:10191000E66E43DFE5520C0EE66E3FDFE552E55220
:10192000E552E7CFD9FF1200D9CFE6FFE1CFD9FFCB
:10193000020EE126DF6A010EDB6A81940F0EE66E6D
:10194000E66AE66AE66A99DEE552E552E552E55254
:101950000F0E81128186E66EE66AE66AE66A8DDE21
:10196000E552E552E552E5520F0E8114E76E010E85
:10197000E7CFDBFF81960F0EE66EE66AE66AE66A5F
:101980007CDEE552E552E552E5520F0E811281866A
:10199000E66EE66AE66AE66A70DEE552E552E55210
:1019A000E5520F0E8114DF6E010EDB50DF128196BF
:1019B000010EE66EE66AE66AE66A5FDEE552E55229
:1019C000E552E552DF50106E020EE15C02E2E16A80
:1019D000E552E16E1050E552E7CFD9FF1200D9CFA2
:1019E000E6FFE1CFD9FFE652DF6A9EDFDF6EDFBEA2
:1019F000FCD7DF50E552E552E7CFD9FF1200D9CF2F
:101A0000E6FFE1CFD9FF0F0E8116FE0EDB508112EB
:101A10008186050EE66EE66AE66AE66A2EDEE55225
:101A2000E552E552E5528196050EE66EE66AE66AF3
:101A3000E66A23DEE552E552E552E552E552E7CF8C
:101A4000D9FF1200D9CFE6FFE1CFD9FF8194050E6F
:101A5000E66EE66AE66AE66A10DEE552E552E552AF
:101A6000E552FE0EDBCFE6FFCADFE552FE0EDB38A5
:101A7000F00BE66EC4DFE552E552E7CFD9FF120066
:101A8000D9CFE6FFE1CFD9FF8184050EE66EE66A85
:101A9000E66AE66AF2DDE552E552E552E552FE0EEF
:101AA000DBCFE6FFACDFE552FE0EDB38F00BE66E77
:101AB000A6DFE5528194E552E7CFD9FF1200D9CFD6
:101AC000E6FFE1CFD9FFFE0EDBCFE6FFD9DFE5521F
:101AD000E552E7CFD9FF1200D9CFE6FFE1CFD9FF1A
:101AE000FE0EDBCFE6FFCCDFE552E552E7CFD9FFB4
:101AF0001200D9CFE6FFE1CFD9FFFD0EDBCFF6FF15
:101B0000FE0EDBCFF7FF0800F5500FE0FD0EDBCF38
:101B1000F6FFDB2AFE0EDBCFF7FF01E3DB2A08002E
:101B2000F550E66ED9DFE552E8D7E552E7CFD9FFA9
:101B30001200D9CFE6FFE1CFD9FFE652FD0EDB5010
:101B40000F0B106EFE0EDB50010B400DF3501024F6
:101B5000DF6E7F0EDF14800FDF6EDFCFE6FF72DFF8
:101B6000E552E552E552E7CFD9FF1200010EE66ECD
:101B700069DFE552E66AE66ADCDFE552E55212000B
:101B8000D9CFE6FFE1CFD9FF050EE126010EF36EB6
:101B9000DB6E020EDB6A030EDB6A040EDB6ADF6AB1
:101BA000DFCF10F0116A10BE1168FB0EDBCF12F010
:101BB000FC0EDBCF13F011501318E8AE02D0133433
:101BC00004D01250105C135011582DE2FD0EDBCFE3
:101BD00010F0FE0EDBCF11F0126A136A11AE02D0C4
:101BE00012681368D950010FE96EDACFEAFF10C00E
:101BF0000BF011C00CF012C00DF013C00EF0EECFC0
:101C000006F0EECF07F0EECF08F0EFCF09F00EECC4
:101C100026F005C0EDFF04C0EDFF03C0EDFF02C0DC
:101C2000EFFFDF2ABDD7010EDBCF10F0020EDBCFB6
:101C300011F0030EDBCF12F0040EDBCF13F010C057
:101C400006F011C007F012C008F013C009F0050E2D
:101C5000E15C02E2E16AE552E16EE552E7CFD9FFCD
:101C60001200D9CFE6FFE1CFD9FF020EE126DF6AED
:101C7000FB0EDBCF10F0FC0EDBCF11F0FD0EDBCF47
:101C800012F0FE0EDBCF13F01050111012101310D3
:101C900005E1300EE66E20DFE552F4D0D950FB0F9F
:101CA000E96EFF0EDA20EA6ED890030EEB50000AC0
:101CB00008E6000EEE5C000EEE58000EEE58000E28
:101CC000EE5815E22D0EE66E07DFE552D950FB0FF8
:101CD000E96EFF0EDA20EA6E000EEE6CEF1EEE22C9
:101CE000EF1EEE22EF1EEF22ED52ED52ED52DE52CC
:101CF000070EDD6E010EDBCF10F0000EE76E101840
:101D0000E8AE02D0103403D0E750D880105401E37D
:101D1000B9D0010EDB04146E156A14BE156814C028
:101D2000E6FF15C0E6FF0A0EE66EE66A29DFE55219
:101D3000E552E552E55206C010F007C011F008C0A8
:101D400012F009C013F006C00BF007C00CF008C079
:101D50000DF009C00EF0FB0EDBCF06F0FC0EDBCF62
:101D600007F0FD0EDBCF08F0FE0EDBCF09F046ECEE
:101D700026F0065007100810091041E0010EDF6E32
:101D8000DB04186E196A18BE196818C0E6FF19C07E
:101D9000E6FF0A0EE66EE66AF3DEE552E552E5522C
:101DA000E55206C014F007C015F008C016F009C0CF
:101DB00017F006C00BF007C00CF008C00DF009C00A
:101DC0000EF0FB0EDBCF06F0FC0EDBCF07F0FD0EB6
:101DD000DBCF08F0FE0EDBCF09F046EC26F006C0A4
:101DE00010F007C011F008C012F009C013F0300E57
:101DF0001026000E112212221322105003D0DF50A1
:101E000004E0300EE66E68DEE552010EDB04146E6F
:101E1000156A14BE156814C0E6FF15C0E6FF0A0E69
:101E2000E66EE66AADDEE552E552E552E55206C0E1
:101E300010F007C011F008C012F009C013F0D9501B
:101E4000FB0FE96EFF0EDA20EA6E06C00BF007C04A
:101E50000CF008C00DF009C00EF0EECF06F0EECF8A
:101E600007F0EECF08F0EFCF09F046EC26F005C002
:101E7000EDFF04C0EDFF03C0EDFF02C0EFFF010E58
:101E8000DB0638D7020EE15C02E2E16AE552E16E60
:101E9000E552E7CFD9FF1200D9CFE6FFE1CFD9FF56
:101EA000FD0EDBCFE6FFFE0EDBCFE6FF42DEE552A6
:101EB000E552D950F90FE96EFF0EDA20EA6EEECF47
:101EC000E6FFEECFE6FFEECFE6FFEFCFE6FFC9DE9F
:101ED000E552E552E552E552E552E7CFD9FF12004F
:101EE000D9CFE6FFE1CFD9FFFD0EDBCFE6FFFE0E37
:101EF000DBCFE6FF1EDEE552E552FB0EDBCFE6FF51
:101F0000FC0EDBCFE6FFF5DDE552E552E552E7CF0B
:101F1000D9FF1200D9CFE6FFE1CFD9FFFBC010F007
:101F2000FCC011F0040ED89010361136E806FBE123
:101F3000C10E1026000E112210500001FD25E96E81
:101F40001150FE21EA6EFE0EDBCFEFFFFD2B000EDF
:101F5000FE23E552E7CFD9FF1200D9CFE6FFE1CF4C
:101F6000D9FFE652DF6ADFCF10F0100EE76E1018CF
:101F7000E8AE02D0E73402D0E750105C18E2DFCFC1
:101F8000E9FFEA6AE9BEEA68C10EE926000EEA2224
:101F9000200EEF6EDFCFE9FFEA6AE9BEEA68D10EF4
:101FA000E926000EEA22200EEF6EDF2ADCD7E5528A
:101FB000E552E7CFD9FF1200D9CFE6FFE1CFD9FF35
:101FC000E6520001C051030A52E0010A36E0030A5A
:101FD0001AE0010A67E1E66AE66AABDDE552E5521E
:101FE000DF6A080EDF5C0CE2DF50EA6AC10FE96EBF
:101FF000000EEA22EF50E66E6FDDE552DF2AF1D7E0
:102000000001010E32D0080EE66EE66A92DDE5525E
:10201000E552DF6A080EDF5C0DE2080EDF24EA6A93
:10202000C10FE96E000EEA22EF50E66E55DDE55273
:10203000DF2AF0D70001020E18D0E66A010EE66E24
:1020400078DDE552E552DF6A080EDF5C0CE2DF5016
:10205000EA6AD10FE96E000EEA22EF50E66E3CDD2F
:10206000E552DF2AF1D70001030EC06F1CD0080E25
:10207000E66E010EE66E5DDDE552E552DF6A080EA2
:10208000DF5C0DE2080EDF24EA6AD10FE96E000E74
:10209000EA22EF50E66E20DDE552DF2AF0D700019C
:1020A000C06B01D0C06BE552E552E7CFD9FF1200FB
:1020B000D9CFE6FFE1CFD9FFE6520001C051010AB6
:1020C0001BE0010A32E1E66AE66A33DDE552E552D9
:1020D000DF6A100EDF5C0CE2DF50EA6AC10FE96EC6
:1020E000000EEA22EF50E66EF7DCE552DF2AF1D768
:1020F0000001010EC06F1AD0E66A010EE66E19DD0E
:10210000E552E552DF6A100EDF5C0CE2DF50EA6A4E
:10211000D10FE96E000EEA22EF50E66EDDDCE552EB
:10212000DF2AF1D70001C06B01D0C06BE552E55248
:10213000E7CFD9FF1200D9CFE6FFE1CFD9FFE652B2
:10214000E66AE66AF6DCE552E552DF6A100EDF5C0D
:102150000CE2DF50EA6AC10FE96E000EEA22EF508E
:10216000E66EBADCE552DF2AF1D7E66A010EE66ECA
:10217000E0DCE552E552DF6A100EDF5C0CE2DF5076
:10218000EA6AD10FE96E000EEA22EF50E66EA4DC97
:10219000E552DF2AF1D7E552E552E7CFD9FF120029
:1021A000D9CFE6FFE1CFD9FFFE0EDB50010B0001D6
:1021B000FB6FFC6BFD0EDB500F0BFD6FFE6BFBC06E
:1021C00010F0FCC011F0040ED89010361136E8065D
:1021D000FBE1C10E1026000E112210500001FD255A
:1021E000E96E1150FE21EA6EFC0EDBCFEFFFE552E7
:1021F000E7CFD9FF1200D9CFE6FFE1CFD9FF020E1A
:10220000E126DF6AFE0EDB50010B0001FB6FFC6B69
:10221000FD0EDB500F0BFD6FFE6BF90EDBCF10F0E8
:10222000FA0EDBCF11F0FB0EDBCF12F0FC0EDBCF92
:1022300013F0105011101210131005E1300EE66E5D
:1022400069DEE552F5D0D950F90FE96EFF0EDA20BC
:10225000EA6ED890030EEB50000A08E6000EEE5C22
:10226000000EEE58000EEE58000EEE5815E22D0E40
:10227000E66E50DEE552D950F90FE96EFF0EDA2016
:10228000EA6E000EEE6CEF1EEE22EF1EEE22EF1E47
:10229000EF22ED52ED52ED52DE52070EDD6E010ED1
:1022A000DBCF10F0000EE76E1018E8AE02D010344D
:1022B00003D0E750D880105401E3BAD0010EDB04FC
:1022C000146E156A14BE156814C0E6FF15C0E6FF4B
:1022D0000A0EE66EE66A54DCE552E552E552E55236
:1022E00006C010F007C011F008C012F009C013F0CA
:1022F00006C00BF007C00CF008C00DF009C00EF0CE
:10230000F90EDBCF06F0FA0EDBCF07F0FB0EDBCFCA
:1023100008F0FC0EDBCF09F046EC26F00650071063
:102320000810091041E0010EDF6EDB04186E196A17
:1023300018BE196818C0E6FF19C0E6FF0A0EE66E5F
:10234000E66A1EDCE552E552E552E55206C014F09D
:1023500007C015F008C016F009C017F006C00BF052
:1023600007C00CF008C00DF009C00EF0F90EDBCF6D
:1023700006F0FA0EDBCF07F0FB0EDBCF08F0FC0E09
:10238000DBCF09F046EC26F006C010F007C011F0D4
:1023900008C012F009C013F0300E1026000E1122F2
:1023A00012221322105003D0DF5004E0300EE66EEC
:1023B000B1DDE552010EDB04146E156A14BE15681A
:1023C00014C0E6FF15C0E6FF0A0EE66EE66AC0EC32
:1023D0000DF0E552E552E552E55206C010F007C097
:1023E00011F008C012F009C013F0D950F90FE96ECE
:1023F000FF0EDA20EA6E06C00BF007C00CF008C032
:102400000DF009C00EF0EECF06F0EECF07F0EECFE4
:1024100008F0EFCF09F046EC26F005C0EDFF04C050
:10242000EDFF03C0EDFF02C0EFFF010EDB0637D763
:10243000020EE15C02E2E16AE552E16EE552E7CFAD
:10244000D9FF1200D9CFE6FFE1CFD9FFFE0EDB5056
:10245000010B0001FB6FFC6BFD0EDB500F0BFD6FE2
:10246000FE6BFB0EDBCFF6FFFC0EDBCFF7FF0800A9
:10247000F5500FE0FB0EDBCFF6FFDB2AFC0EDBCFC7
:10248000F7FF01E3DB2A0800F550E66E43DDE55275
:10249000E8D7E552E7CFD9FF1200D9CFE6FFE1CF69
:1024A000D9FF050EE126D9CFE9FFDACFEAFFF90E11
:1024B000DBCFEEFFFA0EDBCFEEFFFB0EDBCFEEFF46
:1024C000FC0EDBCFEEFFD9CFE9FFDACFEAFFEECF8C
:1024D00010F0EECF11F0EECF12F0EFCF13F0E80EC8
:1024E0000B6E030E0C6E0D6A0E6A10C006F011C062
:1024F00007F012C008F013C009F0DCEC24F006C0AD
:1025000010F007C011F008C012F009C013F006C0A7
:10251000E6FF07C0E6FF08C0E6FF09C0E6FFFD0EC4
:10252000DBCFE6FFFE0EDBCFE6FF65DE146E060EA8
:10253000E15E1450D9CFE9FFDACFEAFFEECF06F023
:10254000EECF07F0EECF08F0EFCF09F0E80E0B6EFC
:10255000030E0C6E0D6A0E6ADCEC24F002C0DEFF86
:1025600003C0DEFF04C0DEFF05C0DDFFDD52DD522B
:10257000D9CFE9FFDACFEAFFEECF10F0EECF11F0BE
:10258000EECF12F0EFCF13F0640E0B6E0C6A0D6AF3
:102590000E6A10C006F011C007F012C008F013C098
:1025A00009F0DCEC24F006C010F007C011F008C000
:1025B00012F009C013F006C0E6FF07C0E6FF08C02E
:1025C000E6FF09C0E6FFFD0EDB28E66EFE0EDBCF60
:1025D000E6FF11DE146E060EE15E1450D9CFE9FF5E
:1025E000DACFEAFFEECF06F0EECF07F0EECF08F03D
:1025F000EFCF09F0640E0B6E0C6A0D6A0E6ADCEC0C
:1026000024F002C0DEFF03C0DEFF04C0DEFF05C011
:10261000DDFFDD52DD52320EE66E420EE66EFD0E3D
:10262000DB50020FE66EFE0EDBCFE6FF0BDFE5525E
:10263000E552E552E552D9CFE9FFDACFEAFFEECF16
:1026400010F0EECF11F0EECF12F0EFCF13F00A0E34
:102650000B6E0C6A0D6A0E6A10C006F011C007F00E
:1026600012C008F013C009F0DCEC24F006C010F032
:1026700007C011F008C012F009C013F006C0E6FF51
:1026800007C0E6FF08C0E6FF09C0E6FFFD0EDB500D
:10269000030FE66EFE0EDBCFE6FFADDD146E060E19
:1026A000E15E1450D9CFE9FFDACFEAFFEECF06F0B2
:1026B000EECF07F0EECF08F0EFCF09F0E80E0B6E8B
:1026C000030E0C6E0D6A0E6ADCEC24F002C0DEFF15
:1026D00003C0DEFF04C0DEFF05C0DDFFDD52DD52BA
:1026E000D9CFE9FFDACFEAFFEECF10F0EECF11F04D
:1026F000EECF12F0EFCF13F00A0E0B6E0C6A0D6ADC
:102700000E6A10C006F011C007F012C008F013C026
:1027100009F0DCEC24F002C010F003C011F004C09A
:1027200012F005C013F002C0E6FF03C0E6FF04C0CC
:10273000E6FF05C0E6FFFD0EDB50040FE66EFE0E61
:10274000DBCFE6FF58DD146E060EE15E1450050E79
:10275000E15C02E2E16AE552E16EE552E7CFD9FFC2
:02276000120065
:0E276200D9CFE6FFE1CFD9FF020EE126DE6AF5
:10277000DD6A6CD8B1EC22F0B6EC0DF0ADEC0FF0E8
:10278000000EE66EE66AA4D8E552E552E80EE66E63
:10279000030EE66E17D8E552E55210EC25F0010164
:1027A000C951FDE0C96B0F01010ED8800057000E22
:1027B0000157E0EC1EF060EC1CF066D9CED9DCECE1
:1027C0000FF0EDD7D9CFE6FFE1CFD9FF040EE12618
:1027D000DE6ADD6ADECF10F0DDCF11F0FD0EDBCF5B
:1027E00012F0FE0EDBCF13F011501318E8AE02D03A
:1027F000133404D01250105C135011581DE2020E15
:10280000DB6A030EDB6A020EDBCF10F0030EDBCFB8
:1028100011F0D890115004E6EE0E105C000E115825
:1028200006E2020EDB2A030EEEE3DB2AECD7DF2AF8
:10283000010ED0E3DB2ACED7040EE15C02E2E16AAE
:10284000E552E16EE552E7CFD9FF1200936A926A32
:102850000DEC0CF0956A836A87EC23F0E80EE66EC7
:10286000030EE66EAFDFE552E552570EE66E120E2E
:10287000E66ED2EC19F0E552E552AE0EE66E240E8D
:10288000E66E74EC1AF0E552E552660EE66EB70E8F
:10289000E66E35EC1BF0E552E552020EE66EE66A96
:1028A00010EC1CF0E552E5520A0EE66EE66A22ECE8
:1028B0001CF0E552E552320EE66EE66A41EC1CF081
:1028C000E552E552DBEC1EF004EC17F0C8EF25F002
:1028D000D9CFE6FFE1CFD9FFFE0EDBCF11F0800E9E
:1028E00011141AE1FD0EDBCF12F0FE0EDBCF13F058
:1028F000133404E212500708000E13540DE3FD0ECA
:10290000DBCFE9FFFE0EDBCFEAFFDE0EE926010E8C
:10291000EA22EF508310836EE552E7CFD9FF120011
:10292000D9CFE6FFE1CFD9FFFE0EDBCF11F0800E4D
:1029300011141AE1FD0EDBCF12F0FE0EDBCF13F007
:10294000133404E212500708000E13540DE3FD0E79
:10295000DBCFE9FFFE0EDBCFEAFFDE0EE926010E3C
:10296000EA22EF1C8314836EE552E7CFD9FF1200F1
:10297000D9CFE6FFE1CFD9FFFD0EDBCFE9FFFE0E99
:10298000DBCFEAFFE60EE926010EEA22EF0415E1AD
:10299000FD0EDBCFE6FFFE0EDBCFE6FFC1DFE5522B
:1029A000E552FD0EDBCFE9FFFE0EDBCFEAFFE60EC0
:1029B000E926010EEA22EF6A15D0FD0EDBCFE6FF15
:1029C000FE0EDBCFE6FF84DFE552E552FD0EDBCFE6
:1029D000E9FFFE0EDBCFEAFFE60EE926010EEA2252
:1029E000010EEF6EE552E7CFD9FF1200D9CFE6FF17
:1029F000E1CFD9FF020EE126DE6ADD6ADECF10F0FC
:102A0000DDCF11F0113404E210500708000E11540C
:102A100021E3DECFE6FFDDCFE6FF5ADFE552E552E8
:102A2000F40EE66E010EE66ECDDEE552E552DECF27
:102A3000E6FFDDCFE6FF74DFE552E552F40EE66E09
:102A4000010EE66EBFDEE552E552DF2A010ED6E347
:102A5000DB2AD4D7020EE15C02E2E16AE552E16EC4
:102A6000E552E7CFD9FF12000F01010E5A1903E119
:102A70005B5101E1010C000C0F01010E581903E13B
:102A8000595101E1010C000CD9CFE6FFE1CFD9FF8C
:102A9000020EE126DE6ADD6ADECF10F0DDCF11F036
:102AA000D890115004E6070E105C000E11584BE24E
:102AB000DFCFE6FFCFEC25F0E552F3CF10F0F4CFF7
:102AC00011F0126A136A11AE02D012681368DECFD9
:102AD000E9FFDDCFEAFFD890E936EA36D890E9364B
:102AE000EA36940EE926010EEA2210C0EEFF11C06C
:102AF000EEFF12C0EEFF13C0EEFFDECFE9FFDDCF29
:102B0000EAFFD890E936EA36D890E936EA36940EEC
:102B1000E926010EEA22EECF10F0EFCF11F0DECF62
:102B2000E9FFDDCFEAFFD890E936EA36E10EE92683
:102B3000000EEA2210C0EEFF11C0EDFFDF2A010EE9
:102B4000ABE3DB2AA9D7020EE15C02E2E16AE552BF
:102B5000E16EE552E7CFD9FF1200D9CFE6FFE1CF12
:102B6000D9FF040EE126010E01010225026F000EBD
:102B70000321036F280E0D6E0E6A02C108F003C117
:102B800009F087EC26F004C002F105C003F1010151
:102B90000450051001E01FD126CF10F027CF11F00F
:102BA000126A136A0F0126510F013C5D1C6E3D51E4
:102BB0000F0127551D6E1E6A1F6AE1C018F0E2C0A2
:102BC00019F01A6A1B6AE1C006F0E2C007F01AC0E9
:102BD00008F01BC009F01CC00BF00C6E1EC00DF0FD
:102BE0001FC00EF00EEC26F002C014F003C015F06A
:102BF00004C016F005C017F00B68030E0C6E0D6ACA
:102C00000E6A02C006F003C007F004C008F005C059
:102C100009F0DCEC24F006C014F007C015F008C081
:102C200016F009C017F00650102607501122085060
:102C300012220950132210C006F111C007F1840EB0
:102C4000E66E420EE66E85EC17F0E552E55206C1DF
:102C500010F007C111F0126A136A06C1E6FF07C13E
:102C6000E6FF12C0E6FF13C0E6FF37EC19F0E552AD
:102C7000E552E552E5527B0EE66E420EE66E85ECBD
:102C800017F0E552E55208C110F009C111F0126ABF
:102C9000136A08C1E6FF09C1E6FF12C0E6FF13C0D0
:102CA000E6FF37EC19F0E552E552E552E5526F0EBA
:102CB000E66E420EE66E85EC17F0E552E5520AC16B
:102CC00010F00BC111F0126A136A0AC1E6FF0BC1C2
:102CD000E6FF12C0E6FF13C0E6FF37EC19F0E5523D
:102CE000E552E552E552630EE66E420EE66E85EC65
:102CF00017F0E552E55210C110F011C111F0126A3F
:102D0000136A10C1E6FF11C1E6FF12C0E6FF13C04F
:102D1000E6FF37EC19F0E552E552E552E5525A0E5E
:102D2000E66E420EE66E85EC17F0E552E5520CC1F8
:102D300010F00DC111F0126A136A0CC1E6FF0DC14B
:102D4000E6FF12C0E6FF13C0E6FF37EC19F0E552CC
:102D5000E552E552E5524E0EE66E420EE66E85EC09
:102D600017F0E552E5520EC110F00FC111F0126AD2
:102D7000136A0EC1E6FF0FC1E6FF12C0E6FF13C0E3
:102D8000E6FF37EC19F0E552E552E552E552410E07
:102D9000E66E420EE66E85EC17F0E552E55212C182
:102DA00010F013C111F0126A136A12C1E6FF13C1C9
:102DB000E6FF12C0E6FF13C0E6FF37EC19F0E5525C
:102DC000E552E552E552380EE66E420EE66E85ECAF
:102DD00017F0E552E552040EE15C02E2E16AE552C9
:102DE000E16EE552E7CFD9FF12003EDE000904E0B4
:102DF00078C136FF79C137FF3FDE000904E078C1B2
:082E00003AFF79C13BFF12000B
:082E0800B06A810EAF6EAC8AC6
:102E1000AC94B886AC98AB8EAB889E9A9D8A9F9AEC
:102E2000949C948E1200D9CFE6FFE1CFD9FF040E17
:102E3000E126DE6ADD6ADECF10F0DDCF11F0FD0E97
:102E4000DBCF12F0FE0EDBCF13F011501318E8AEFB
:102E500002D0133404D01250105C135011581DE2EC
:102E6000020EDB6A030EDB6A020EDBCF10F0030EEC
:102E7000DBCF11F0D890115004E6EE0E105C000E7E
:102E8000115806E2020EDB2A030EEEE3DB2AECD732
:102E9000DF2A010ED0E3DB2ACED7040EE15C02E28A
:102EA000E16AE552E16EE552E7CFD9FF1200D9CFD2
:102EB000E6FFE1CFD9FF9EA8FED7FE0EDB50AD6E38
:102EC0009E98E552E7CFD9FF1200D9CFE6FFE1CFB8
:102ED000D9FFFD0EDBCFE9FFFE0EDBCFEAFFEF509F
:102EE00010E0FD0EDBCFE9FFFE0EDBCFEAFFEF5077
:102EF000E66EDDDFE552FD0EDB2AFE0EEAE3DB2A9D
:102F0000E8D7E552E7CFD9FF1200D9CFE6FFE1CFEE
:102F1000D9FFFD0EDBCFF6FFFE0EDBCFF7FF08007B
:102F2000F55015E0FD0EDBCFF6FFFE0EDBCFF7FF11
:102F30000800F550E66EBBDFE552FD0EDBCFF6FF75
:102F4000DB2AFE0EDBCFF7FFE4E3DB2AE2D7E55214
:102F5000E7CFD9FF1200D9CFE6FFE1CFD9FF050EA9
:102F6000E126010EF36EDB6E020EDB6A030EDB6AF6
:102F7000040EDB6ADF6ADFCF10F0116A10BE116841
:102F8000FB0EDBCF12F0FC0EDBCF13F01150131849
:102F9000E8AE02D0133404D01250105C1350115814
:102FA0002DE2FD0EDBCF10F0FE0EDBCF11F0126A2A
:102FB000136A11AE02D012681368D950010FE96E7E
:102FC000DACFEAFF10C00BF011C00CF012C00DF008
:102FD00013C00EF0EECF06F0EECF07F0EECF08F004
:102FE000EFCF09F00EEC26F005C0EDFF04C0EDFFB9
:102FF00003C0EDFF02C0EFFFDF2ABDD7010EDBCF1C
:1030000010F0020EDBCF11F0030EDBCF12F0040E36
:10301000DBCF13F010C006F011C007F012C008F0AB
:1030200013C009F0050EE15C02E2E16AE552E16ECF
:10303000E552E7CFD9FF1200D9CFE6FFE1CFD9FFA4
:10304000020EE126DF6AFB0EDBCF10F0FC0EDBCFB9
:1030500011F0FD0EDBCF12F0FE0EDBCF13F010509F
:1030600011101210131005E1300EE66E20DFE5524C
:10307000F4D0D950FB0FE96EFF0EDA20EA6ED8903B
:10308000030EEB50000A08E6000EEE5C000EEE5850
:10309000000EEE58000EEE5815E22D0EE66E07DF1C
:1030A000E552D950FB0FE96EFF0EDA20EA6E000EF2
:1030B000EE6CEF1EEE22EF1EEE22EF1EEF22ED521F
:1030C000ED52ED52DE520A0EDD6E010EDBCF10F036
:1030D000000EE76E1018E8AE02D0103403D0E750AF
:1030E000D880105401E3B9D0010EDB04146E156AC8
:1030F00014BE156814C0E6FF15C0E6FF0A0EE66EA2
:10310000E66A29DFE552E552E552E55206C010F0C5
:1031100007C011F008C012F009C013F006C00BF090
:1031200007C00CF008C00DF009C00EF0FB0EDBCF9D
:1031300006F0FC0EDBCF07F0FD0EDBCF08F0FE0E35
:10314000DBCF09F046EC26F00650071008100910F6
:1031500041E0010EDF6EDB04186E196A18BE1968B3
:1031600018C0E6FF19C0E6FF0A0EE66EE66AF3DE57
:10317000E552E552E552E55206C014F007C015F0DD
:1031800008C016F009C017F006C00BF007C00CF01D
:1031900008C00DF009C00EF0FB0EDBCF06F0FC0EF0
:1031A000DBCF07F0FD0EDBCF08F0FE0EDBCF09F022
:1031B00046EC26F006C010F007C011F008C012F06F
:1031C00009C013F0300E1026000E11221222132215
:1031D000105003D0DF5004E0300EE66E68DEE5529A
:1031E000010EDB04146E156A14BE156814C0E6FFE8
:1031F00015C0E6FF0A0EE66EE66AADDEE552E55260
:10320000E552E55206C010F007C011F008C012F0F8
:1032100009C013F0D950FB0FE96EFF0EDA20EA6EF9
:1032200006C00BF007C00CF008C00DF009C00EF08E
:10323000EECF06F0EECF07F0EECF08F0EFCF09F0BB
:1032400046EC26F005C0EDFF04C0EDFF03C0EDFF26
:1032500002C0EFFF010EDB0638D7020EE15C02E28E
:10326000E16AE552E16EE552E7CFD9FF1200D9CF0E
:10327000E6FFE1CFD9FFFB0EDBCF10F0FC0EDBCF7A
:1032800011F0FD0EDBCF12F0FE0EDBCF13F0640E5B
:103290000B6E0C6A0D6A0E6A10C006F011C007F0C2
:1032A00012C008F013C009F0DCEC24F006C010F0E6
:1032B00007C011F008C012F009C013F006C0E6FF05
:1032C00007C0E6FF08C0E6FF09C0E6FFB5DEE5522D
:1032D000E552E552E5522E0EE66EE9DDE552FB0EB3
:1032E000DBCF10F0FC0EDBCF11F0FD0EDBCF12F0C8
:1032F000FE0EDBCF13F0640E0B6E0C6A0D6A0E6AC5
:1033000010C006F011C007F012C008F013C009F099
:10331000DCEC24F002C010F003C011F004C012F085
:1033200005C013F002C0E6FF03C0E6FF04C0E6FFDD
:1033300005C0E6FF81DEE552E552E552E552E55271
:10334000E7CFD9FF1200D9CFE6FFE1CFD9FFE65290
:10335000AE50DF6E340EE66E420EE66EE66A010E89
:10336000E66E22EC12F0E552E552E552E552DFCF6F
:1033700010F0116A126A136A10C0E6FF11C0E6FF6E
:1033800012C0E6FF13C0E6FFE66A010EE66EFBEC34
:1033900010F0146E060EE15E1450E552E552E7CFD0
:0433A000D9FF12003F
:0C33A400D9CFE6FFE1CFD9FFD59EFD0E8A
:1033B000DBCFBEF1FE0EDBCFBFF1D59C13681468E6
:1033C000156ABEC116F0BFC117F0186A1650135C1B
:1033D000106E17501458116E18501558126E0C6A52
:1033E000010E0D6E0E6A10C007F011C008F012C079
:1033F00009F0AFEC24F00350D66E13681468156A18
:10340000BEC116F0BFC117F0186A1650135C106EDB
:1034100017501458116E18501558126E0C6A010E80
:103420000D6E0E6A10C007F011C008F012C009F04E
:10343000AFEC24F007C010F008C011F009C012F082
:103440000750D76ED59AD586F28AF294F184D58E3C
:10345000E552E7CFD9FF1200D59E12001368146819
:10346000156ABEC116F0BFC117F0186A1650135C7A
:10347000106E17501458116E18501558126E0C6AB1
:10348000010E0D6E0E6A10C007F011C008F012C0D8
:1034900009F0AFEC24F00350D66E13681468156A77
:1034A000BEC116F0BFC117F0186A1650135C106E3B
:1034B00017501458116E18501558126E0C6A010EE0
:1034C0000D6E0E6A10C007F011C008F012C009F0AE
:1034D000AFEC24F007C010F008C011F009C012F0E2
:1034E0000750D76ED58E1200D9CFE6FFE1CFD9FFB6
:1034F000CD90FD0EDBCFC0F1FE0EDBCFC1F1136826
:103500001468156AC0C116F0C1C117F0186A1650C8
:10351000135C106E17501458116E18501558126E17
:103520000C6A010E0D6E0E6A10C007F011C008F093
:1035300012C009F0AFEC24F00750CF6E1368146886
:10354000156AC0C116F0C1C117F0186A1650135C95
:10355000106E17501458116E18501558126E0C6AD0
:10356000010E0D6E0E6A10C007F011C008F012C0F7
:1035700009F0AFEC24F003C010F004C011F005C056
:1035800012F00350CE6E9D809E909F90CD8ECD8C7C
:10359000CD98CD9ACD96CD92CD80E552E7CFD9FF8B
:1035A000120013681468156AC0C116F0C1C117F083
:1035B000186A1650135C106E17501458116E18507C
:1035C0001558126E0C6A010E0D6E0E6A10C007F0CF
:1035D00011C008F012C009F0AFEC24F00750CF6E14
:1035E00013681468156AC0C116F0C1C117F0186AD3
:1035F0001650135C106E17501458116E1850155851
:10360000126E0C6A010E0D6E0E6A10C007F011C02A
:1036100008F012C009F0AFEC24F003C010F004C0B1
:1036200011F005C012F00350CE6ECD801200CD9087
:103630001200D9CFE6FFE1CFD9FFCA94CC6AFE0EC3
:10364000DB500101C26FC36BCB6E9D829E929F9235
:10365000CA90CA92CA84E552E7CFD9FF1200C2C10C
:10366000CBFFCA841200CA941200D9CFE6FFE1CF83
:10367000D9FFB190FD0EDBCFC4F1FE0EDBCFC5F15B
:1036800013681468156AC4C116F0C5C117F0186A2A
:103690001650135C106E17501458116E18501558B0
:1036A000126E0C6A010E0D6E0E6A10C007F011C08A
:1036B00008F012C009F0AFEC24F00750B36E1368A5
:1036C0001468156AC4C116F0C5C117F0186A1650FF
:1036D000135C106E17501458116E18501558126E56
:1036E0000C6A010E0D6E0E6A10C007F011C008F0D2
:1036F00012C009F0AFEC24F003C010F004C011F0C8
:1037000005C012F00350B26EA082A192A292B18EB7
:10371000B198B19AB192B180E552E7CFD9FF1200CA
:1037200013681468156AC4C116F0C5C117F0186A89
:103730001650135C106E17501458116E185015580F
:10374000126E0C6A010E0D6E0E6A10C007F011C0E9
:1037500008F012C009F0AFEC24F00350B26E136809
:103760001468156AC4C116F0C5C117F0186A16505E
:10377000135C106E17501458116E18501558126EB5
:103780000C6A010E0D6E0E6A10C007F011C008F031
:1037900012C009F0AFEC24F007C010F008C011F01F
:1037A00009C012F00750B36EB1801200B190120040
:1037B0000101CE2B000ECF23D651CE5DD751CF596C
:1037C00004E3CE6BCF6B010EC66F12000101D02B4C
:1037D000000ED123D851D05DD951D15904E3D06B1B
:1037E000D16B010EC76F12000101D22B000ED32343
:1037F000DA51D25DDB51D35904E3D26BD36B010EA6
:10380000C86F12000101D42B000ED523DC51D45D0A
:10381000DD51D55904E3D46BD56B010EC96F12008D
:10382000D9CFE6FFE1CFD9FFFD0EDBCFD6F1FE0EFB
:10383000DBCFD7F10101CE6BCF6BC66BE552E7CF83
:10384000D9FF1200D9CFE6FFE1CFD9FFFD0EDBCFC4
:10385000D8F1FE0EDBCFD9F1050E0D6E0E6AD8C180
:1038600008F0D9C109F089EC24F008C0D8F109C0EA
:10387000D9F10101D06BD16BC76BE552E7CFD9FF0E
:103880001200D9CFE6FFE1CFD9FFFD0EDBCFDCF18F
:10389000FE0EDBCFDDF10A0E0D6E0E6ADCC108F004
:1038A000DDC109F089EC24F008C0DCF109C0DDF1CC
:1038B0000101D46BD56BC96BE552E7CFD9FF12007C
:1038C000070E0F01021901E1035101E153D2060E67
:1038D000021901E1035101E130D2050E021901E1A3
:1038E000035101E10DD2040E021901E1035101E17E
:1038F000C3D1030E021901E1035101E15CD1020EB3
:10390000021901E1035101E18AD0010E021901E11E
:1039100003510AE0025101E1035101E01200010EDE
:10392000026F036B48EF25F048EC25F00F010A0EFB
:103930005C5D000E5D5914E35CCF10F00001116A6C
:10394000010E101610180CE111500AE10F01066B60
:10395000076B020E0F01026F036B0F015C6B5D6B57
:103960000F010A0E645D000E655911E364CF10F07B
:103970000001116A010E1016101809E1115007E13B
:10398000060E0F01026F036B0F01646B656B010183
:1039900000510101FA5D40E1010101510101F95DB0
:1039A0003BE1140E0101E76EF819E8AE02D0F835DC
:1039B00003D0E750D880F8552FE30F01010E0C1902
:1039C0002BE10D5129E1ADEC0FF0AD0EE66E420E8C
:1039D000E66E040EE66EE66A22EC12F0E552E5525F
:1039E000E552E5520F01010E00190FE101510DE101
:1039F0009D0EE66E420EE66EE66A010EE66E22EC63
:103A000012F0E552E552E552E5520101F85106E1A6
:103A10000F010C6B0D6B120040EC00F012000F0157
:103A20000A0E5A5D000E5B5914E35ACF10F00001E4
:103A3000116A010E101610180CE111500AE10F0165
:103A4000066B076B010E0F01026F036B0F015A6BC0
:103A50005B6B0F010A0E5E5D000E5F5914E35ECFD3
:103A600010F00001116A010E101610180CE111502F
:103A70000AE10F01066B076B030E0F01026F036B68
:103A80000F015E6B5F6B0F010A0E605D000E6159E6
:103A900014E360CF10F00001116A010E1016101827
:103AA0000CE111500AE10F01066B076B040E0F01C8
:103AB000026F036B0F01606B616B0F010A0E625D99
:103AC000000E635914E362CF10F00001116A010E79
:103AD000101610180CE111500AE10F01066B076B6C
:103AE000050E0F01026F036B0F01626B636B0F0119
:103AF0000A0E645D000E655914E364CF10F00001F6
:103B0000116A010E101610180CE111500AE10F0194
:103B1000066B076B060E0F01026F036B0F01646BE0
:103B2000656B0F010A0E665D000E675914E366CFE0
:103B300010F00001116A010E101610180CE111505E
:103B40000AE10F01066B076B070E0F01026F036B93
:103B50000F01666B676B0F010A0E585D000E595915
:103B600028E358CF10F00001116A010E101610184A
:103B700020E111501EE1010E0F010625066F000E17
:103B80000721076F040E0D6E0E6A06CF08F007CFEF
:103B900009F089EC24F004C006FF05C007FF0F01FF
:103BA0000450051003E1010E066F076B0F01586BFF
:103BB000596B6BEF02F00F010A0E585D000E595958
:103BC00028E358CF10F00001116A010E10161018EA
:103BD00020E111501EE1010E0F010625066F000EB7
:103BE0000721076F080E0D6E0E6A06CF08F007CF8B
:103BF00009F089EC24F004C006FF05C007FF0F019F
:103C00000450051003E1010E066F076B0F01586B9E
:103C1000596B0F010A0E605D000E615911E360CF10
:103C200010F00001116A010E1016101809E1115070
:103C300007E1040E0F01026F036B0F01606B616BF4
:103C40000F010A0E5C5D000E5D5914E35CCF10F0AD
:103C50000001116A010E101610180CE111500AE152
:103C6000020E0F01026F036B0F01066B076B0F0152
:103C70005C6B5D6BC5EF02F077EC03F00F010A0E91
:103C8000585D000E595911E358CF10F00001116A28
:103C9000010E1016101809E1115007E10F01042B55
:103CA000000E05230F01586B596B0F010A0E5E5D64
:103CB000000E5F5901E27AD05ECF10F00001116A68
:103CC000010E101610181BE1115070E106CFE9FF2C
:103CD00007CFEAFFE906000EEA5AD890E936EA363D
:103CE0004A0EE9260F0EEA2204CFEEFF05CFEDFFC4
:103CF000030E0F01026F036B0F015E6B5F6B12000F
:103D0000AEEC03F00F010A0E5C5D000E5D594EE350
:103D10005CCF10F00001116A010E101610180CE1B2
:103D2000115044E1020E0F01026F036B0F01066B8D
:103D3000076B0F015C6B5D6B1200E6EC07F00F0187
:103D40000A0E5C5D000E5D5931E35CCF10F000019E
:103D5000116A010E101610180CE1115027E1020E25
:103D60000F01026F036B0F01066B076B0F015C6B9A
:103D70005D6B1200C8EC0AF00F010A0E5C5D000ECC
:103D80005D5914E35CCF10F00001116A010E1016AA
:103D900010180CE111500AE1020E0F01026F036BC3
:0E3DA0000F01066B076B0F015C6B5D6B120071
:023DAE000F0EF6
:103DB000946E82681200CF0E9414946E8268120082
:103DC000D9CFE6FFE1CFD9FF040EE126DE6ADD6A36
:103DD000DECF10F0DDCF11F0D890115004E6040EC4
:103DE000105C000E115801E390D0DECFE9FFDDCF6B
:103DF000EAFF780EE9260F0EEA22EF1C826E020E11
:103E0000DB6A030EDB6A020EDBCF10F0030EDBCFA2
:103E100011F0D890115004E6040E105C000E1158F9
:103E20006EE2020EDBCFE9FF030EDBCFEAFF7C0E72
:103E3000E9260F0EEA22EF5082143FE1DECF14F0A4
:103E4000DDCF15F0D89014361536D89014361536C7
:103E5000020EDB501424E96E030EDB501520EA6ECF
:103E6000D890E936EA36580EE9260F0EEA22EECF50
:103E700012F0EFCF13F0010E1226000E1322DECF48
:103E800010F0DDCF11F0D89010361136D8901036E2
:103E90001136020EDB501024E96E030EDB501120A8
:103EA000EA6ED890E936EA36580EE9260F0EEA2275
:103EB00012C0EEFF13C0EDFF1BD0DECF10F0DDCF40
:103EC00011F0D89010361136D89010361136020EF7
:103ED000DB501024E96E030EDB501120EA6ED890FF
:103EE000E936EA36580EE9260F0EEA22EE6AED6A46
:103EF000020EDB2A030E01E286D7DB2A84D7DF2AF3
:103F0000010E01E265D7DB2A63D7040EE15C02E211
:103F1000E16AE552E16EE552E7CFD9FF1200D9CF51
:103F2000E6FFE1CFD9FF040EE126DE6ADD6ADECFCF
:103F300010F0DDCF11F0D890115004E6020E105CA5
:103F4000000E115801E394D0DECFE9FFDDCFEAFF88
:103F5000780EE9260F0EEA22EF1C8214826E0F0EF5
:103F60008210826E020EDB6A030EDB6A020EDBCF6A
:103F700010F0030EDBCF11F0D890115004E6040EC0
:103F8000105C000E11586EE2020EDBCFE9FF030E4B
:103F9000DBCFEAFF7C0EE9260F0EEA22EF508214F7
:103FA0003FE1DECF14F0DDCF15F0D8901436153692
:103FB000D89014361536020EDB501424E96E030E29
:103FC000DB501520EA6ED890E936EA36580EE9261D
:103FD0000F0EEA22EECF12F0EFCF13F0010E1226F1
:103FE000000E1322DECF10F0DDCF11F0D890103686
:103FF0001136D89010361136020EDB501024E96EBF
:10400000030EDB501120EA6ED890E936EA36580EDE
:10401000E9260F0EEA2212C0EEFF13C0EDFF1BD0FF
:10402000DECF10F0DDCF11F0D89010361136D890D9
:1040300010361136020EDB501024E96E030EDB50F1
:104040001120EA6ED890E936EA36580EE9260F0EAE
:10405000EA22EE6AED6A020EDB2A030E01E286D73F
:10406000DB2A84D7DF2A010E01E261D7DB2A5FD782
:10407000040EE15C02E2E16AE552E16EE552E7CF4F
:10408000D9FF1200D9CFE6FFE1CFD9FF040EE12618
:10409000DE6ADD6ADECF10F0DDCF11F0FD0EDBCF82
:1040A00012F0FE0EDBCF13F011501318E8AE02D061
:1040B000133404D01250105C135011581DE2020E3C
:1040C000DB6A030EDB6A020EDBCF10F0030EDBCFE0
:1040D00011F0D890115004E6EE0E105C000E11584D
:1040E00006E2020EDB2A030EEEE3DB2AECD7DF2A20
:1040F000010ED0E3DB2ACED7040EE15C02E2E16AD6
:10410000E552E16EE552E7CFD9FF1200D9CFE6FFC5
:10411000E1CFD9FF040EE126DE6ADD6ADECF10F0C2
:10412000DDCF11F0D890115004E6040E105C000EA3
:10413000115875E2DECFE9FFDDCFEAFF780EE92600
:104140000F0EEA22EF1C826E020EDB6A030EDB6AA0
:10415000020EDBCF10F0030EDBCF11F0D890115020
:1041600004E6040E105C000E11584AE2DECF10F097
:10417000DDCF11F0D89010361136D89010361136A8
:10418000020EDB501024E96E030EDB501120EA6EA4
:10419000D890E936EA36580EE9260F0EEA22EE6A82
:1041A000ED6A020EDBCFE9FF030EDBCFEAFF7C0EE8
:1041B000E9260F0EEA22EF5082141CE1DECF10F048
:1041C000DDCF11F0D89010361136D8901036113658
:1041D000020EDB501024E96E030EDB501120EA6E54
:1041E000D890E936EA36580EE9260F0EEA22010E7B
:1041F000EE6EED6A020EDB2A030EAAE3DB2AA8D7D5
:104200008250816EE80EE66E030EE66E3BDFE552ED
:10421000E552DF2A010E01E281D7DB2A7FD7040EA7
:10422000E15C02E2E16AE552E16EE552E7CFD9FFD7
:0242300012007A
:0E4232002E0020202000206D332F68200D0A62
:1042400000206D672F6C20464C4F573D2000206D9D
:10425000672F6C204E4F333D20002043204E4834C2
:104260003D2000206D672F6C20544D503D200020D4
:104270006D672F6C204353423D200020704820532F
:10428000533D200032302E30342E31362030393A32
:1042900031323A3037202070483D2020002A2A2A27
:1042A0002A2A2A2A2A2A2A2A2A2A2A2A0044454E3F
:1042B0002047494F2054554F4920434159005F0042
:1042C0004B484F4E472043414E482042414F004605
:1042D0004C4F572043414F2000544D502043414FF5
:1042E0002000544D503D2020004E4F332043414F7D
:1042F00020004E4F333D2020004E48342043414F94
:1043000020004E48343D20200053532043414F208D
:104310000053533D202000434F442043414F200091
:10432000434F443D20200050482043414F2000503F
:10433000483D202000332E205361766500496E7081
:1043400075743A20002D3E53455420464C4F57205B
:10435000542E48002D3E534554204E4F3320542EAA
:1043600048002020534554204E483420542E480005
:104370002020534554204E4F3320542E48002D3ECC
:10438000534554204E483420542E48002D3E53456A
:104390005420535320542E4800202053455420507D
:1043A0004820542E48002020534554205353205475
:1043B0002E48002D3E53455420504820542E48008E
:1043C0002D3E53455420434F4420542E4800202076
:1043D00053455420544D5020542E4800202053451E
:1043E0005420434F4420542E48002D3E5345542022
:1043F000544D5020542E48002A2A2A2A4D4F444515
:104400002A2A2A2A0020534554205448524553480A
:104410004F4C442000352E2041444A5553542054DB
:10442000494D4500342E2053454520414C41524DC5
:1044300000332E205345542041444300322E205354
:1044400045542054482E484F4C4400312E204449B6
:1044500053504C41592054494D45002A2A2A2A2AB2
:104460002A2A2A2A2A2A2A2A2A002A2A2A2A204DBD
:10447000454E55202A2A2A2A002000444543004E52
:104480004F56004F43540053455000415547004A92
:10449000554C004A554E004D415900415052004D77
:1044A000415200464542004A414E003A00455252B0
:1044B0000053415400465249005448550057454462
:0D44C00000545545004D4F4E0053554E0021
:0144CD0000EE
:0244CE00D9CF44
:1044D000E6FFE1CFD9FF020EE126FE0EDB500F0B07
:1044E000DF6EFE0EDB380F0B0A0D010EF3CFDBFF84
:1044F000DB50DF24106E020EE15C02E2E16AE5525D
:10450000E16E1050E552E7CFD9FF1200D9CFE6FF98
:10451000E1CFD9FF020EE1260A0E106E0E6EFE0EDE
:10452000DBCF09F0BBEC26F00550DF6E0A0E106EF3
:104530000E6EFE0EDBCF09F0BBEC26F00950100D1D
:10454000010EF3CFDBFFDB50DF24106E020EE15CC7
:1045500002E2E16AE552E16E1050E552E7CFD9FF81
:104560001200949694981200D9CFE6FFE1CFD9FFBC
:10457000E652DF6AFE0EDB50DF5C02E2DF2AFAD78A
:10458000E552E552E7CFD9FF120082A8000C010CDA
:104590000101FF5102E08288828682988296010E94
:1045A000FF6F12008298828682880101FF6B1200E1
:1045B000D9CFE6FFE1CFD9FF020EE126DF6ADFCFD8
:1045C00010F0080EE76E1018E8AE02D0E73402D003
:1045D000E750105C0FE2FE0EDBBE02D0829801D0E5
:1045E000828882868296DB50020DFE0EF3CFDBFFBF
:1045F000DF2AE5D794888286C8DFE76E010EE7CF11
:10460000DBFF82969498DB50106E020EE15C02E2B2
:10461000E16AE552E16E1050E552E7CFD9FF120092
:10462000D9CFE6FFE1CFD9FF020EE126DF6A9488F9
:10463000010EDB6ADBCF10F0080EE76E1018E8AE53
:1046400002D0E73402D0E750105C0BE282869DDF97
:10465000106EDF50E8241010DF6E8296010EDB2A08
:10466000E9D79498FE0EDB5002E0828801D0829850
:1046700082868296DF50106E020EE15C02E2E16AF1
:10468000E552E16E1050E552E7CFD9FF1200D9CFC5
:10469000E6FFE1CFD9FF7CDFD00EE66E89DFE55281
:1046A000FE0EDBCFE6FF84DFE552FD0EDBCFE6FF3B
:1046B0002DDFE552E66E7CDFE55274DFE552E7CF91
:1046C000D9FF1200D9CFE6FFE1CFD9FFE65260DF74
:1046D000D00EE66E6DDFE552FE0EDBCFE6FF68DF43
:1046E000E55256DFD10EE66E63DFE552010EE66E4F
:1046F00097DFE552DF6EDFCFE6FFE9DEE552DF6EE2
:0E47000051DFDF50E552E552E7CFD9FF12003E
:02470E00F28E29
:10471000D08EF28C1200F19CF292F2881200D8CF67
:10472000E4FFE0CFE4FFE46EDACFE4FFE2CFDAFFAC
:10473000E9CFE4FFEACFE4FFF6CFE4FFF7CFE4FFF1
:10474000F5CFE4FFF3CFE4FFF4CFE4FFFACFE4FFCB
:1047500000EE00F0100EE80403E3EECFE4FFFBD719
:1047600000EE10F0100EE80403E3EECFE4FFFBD7F9
:10477000E652F2A407D02CEC1AF0F2942EEC1AF0C8
:10478000D8EC1BF09EA007D017EC1BF09E90D1EC4C
:104790001AF0E6EC1BF0A1A207D0D6EC1BF0A19218
:1047A00090EC1BF002EC1CF0F2B2F2929EAA03D045
:1047B0009E9AA3EC19F0E55200EE1FF0100EE804EB
:1047C00003E3E5CFEDFFFBD700EE0FF0100EE8049A
:1047D00003E3E5CFEDFFFBD7E5CFFAFFE5CFF4FF2D
:1047E000E5CFF3FFE5CFF5FFE5CFF7FFE5CFF6FF28
:1047F000E5CFEAFFE5CFE9FFE5CFDAFFE550E5CF0A
:10480000E0FFE5CFD8FF1000DACFE4FFE2CFDAFF18
:10481000E9CFE4FFEACFE4FFF6CFE4FFF7CFE4FF10
:10482000F5CFE4FFF3CFE4FFF4CFE4FFFACFE4FFEA
:1048300000EE00F0100EE80403E3EECFE4FFFBD738
:1048400000EE10F0100EE80403E3EECFE4FFFBD718
:10485000E652F2A407D02CEC1AF0F2942EEC1AF0E7
:10486000D8EC1BF09EA007D017EC1BF09E90D1EC6B
:104870001AF0E6EC1BF0A1A207D0D6EC1BF0A19237
:1048800090EC1BF002EC1CF0F2B2F2929EAA03D064
:104890009E9AA3EC19F0E55200EE1FF0100EE8040A
:1048A00003E3E5CFEDFFFBD700EE0FF0100EE804B9
:1048B00003E3E5CFEDFFFBD7E5CFFAFFE5CFF4FF4C
:1048C000E5CFF3FFE5CFF5FFE5CFF7FFE5CFF6FF47
:0E48D000E5CFEAFFE5CFE9FFE5CFDAFF110003
:0248DE00006A6E
:1048E0000EAE75EF24F00E6C001E09AE7AEF24F0C8
:1048F000096C001EBBEC26F009BE84EF24F000AE6C
:10490000000C096C056C000C00BE81EF24F00188DE
:10491000FF0C006A0EAE92EF24F00D6C0E1EE86ADA
:104920000E22001E09AE9AEF24F0086C091EE86AF8
:104930000922001E87EC26F009BEAAEF24F000AE83
:10494000000C086C091EE86A0922046C051EE86A5E
:104950000522000C00BEA1EF24F00188FF0C006AC4
:104960000EAEBAEF24F00C6C0D1E0E1EE86A0D227E
:104970000E22001E09AEC4EF24F0076C081E091EAB
:10498000E86A08220922001E6AEC26F009BED7EF69
:1049900024F000AE000C076C081E091EE86A08220D
:1049A0000922036C041E051E04220522000C00BE11
:1049B000CBEF24F00188FF0C006AE86A0EAEE9EF45
:1049C00024F00B6C0C1E0D1E0E1E0C220D220E224E
:1049D000001E09AEF4EF24F0066C071E081E091E27
:1049E000072208220922001E46EC26F009BE0BEF22
:1049F00025F000AE000C066C071E081E091EE86AB2
:104A0000072208220922026C031E041E051E03222F
:104A100004220522000C00BEFBEF24F00188FF0CED
:104A2000F8C1E6FFE66A47EC23F0E552E552F9C12A
:104A3000E6FF010EE66E47EC23F0E552E552FAC1BF
:104A4000E6FF020EE66E47EC23F0E552E552FBC1AD
:104A5000E6FF030EE66E47EC23F0E552E552FCC19B
:104A6000E6FF040EE66E47EC23F0E552E552FDC189
:104A7000E6FF050EE66E47EC23F0E552E552FEC177
:104A8000E6FF060EE66E47EC23F0E552E552120013
:104A9000E66A62EC23F0E5520101F86F010EE66E62
:104AA00062EC23F0E5520101F96F020EE66E62EC52
:104AB00023F0E5520101FA6F030EE66E62EC23F07B
:104AC000E5520101FB6F040EE66E62EC23F0E55245
:104AD0000101FC6F050EE66E62EC23F0E552010168
:104AE000FD6F060EE66E62EC23F0E5520101FE6FEB
:024AF0001200B2
:0E4AF2001E0EF66E000EF76E000EF86E01013D
:104B00000900F550F36F0900F550F46F03E1F36706
:104B100001D03DD00900F550EE6F0900F550EF6F60
:104B20000900F550F06F09000900F550E96E090021
:104B3000F550EA6E090009000900F550F16F09000F
:104B4000F550F26F09000900F6CFF5F1F7CFF6F155
:104B5000F8CFF7F1EEC1F6FFEFC1F7FFF0C1F8FFB4
:104B60000101F15302E1F25307E00900F550EE6E46
:104B7000F107F8E2F207F9D7F5C1F6FFF6C1F7FF42
:104B8000F7C1F8FF0101F307000EF45BBFD7120075
:104B90000F0E926E0B0EC16E040EC06E1200D9CFB6
:104BA000E6FFE1CFD9FF020EE126FE0EDB50040D39
:104BB000F350C26EC280C282C2B2FED7C450DE6E53
:104BC000DD6ADECF12F0DDCF13F0D8901236133647
:104BD000D89012361336060EC3CFE7FF070B04E05A
:104BE000E742E79EE806FCE1E7501224106E000E53
:104BF000132010C0DEFFDD6EDECF10F0DDCF11F030
:104C000010C0F3FF11C0F4FF020EE15C02E2E16AA2
:0C4C1000E552E16EE552E7CFD9FF12003B
:044C1C0006500B0231
:104C2000F3CF02F0F4CF03F00C02F3500326000E92
:104C3000F420046E06500D02F3500426000EF420FA
:104C4000056E06500E02F350052607500B02F35076
:104C50000326F4500422000E052207500C02F350E4
:104C60000426F450052207500D02F3500526085083
:104C70000B02F3500426F450052208500C02F350A6
:0C4C8000052609500B02F3500526120017
:044C8C00056A046A47
:104C9000036A026A200EE76ED89006360736083699
:104CA000093602360336043605360B50025C0C50CA
:104CB00003580D5004580E50055809E30B50025E7E
:104CC0000C50035A0D50045A0E50055A062AE72E6E
:044CD000E4D7120013
:0C4CD400056A046A036A180EE76ED890A7
:104CE0000736083609360336043605360C50035CA1
:104CF0000D5004580E50055807E30C50035E0D503C
:0E4D0000045A0E50055A072AE72EEAD7120071
:024D0E00056A34
:104D1000046A100EE76ED890083609360436053658
:104D20000D50045C0E50055805E30D50045E0E5006
:0A4D3000055A082AE72EF0D71200FA
:064D3A00800EF36E00EE96
:104D400000F00F0E01D81200EA6002D0EE6AFCD724
:0A4D5000F350E9601200EE6AFCD790
:064D5A001EEE00F02EEE3B
:104D600000F0F86A019C79EC25F003EC00F0B1EC5E
:064D700013F0FBD7120056
:0A4D7600056A080EE76ED8900936B2
:104D800005360E50055C02E3056E092AE72EF7D7BB
:024D900012000F
:0E4D9200000000000000000000000000000013
:104DA0000000000000000000000001000100010000
:024DB000010000
:0E4DB2000102040810204080000000000000F4
:024DC0000000F1
:0E4DC200000000000000000010101010101083
:104DD000101018181818181818181C1C1C1C1C1C4B
:104DE0001C1C1E1E1E1E1E1E1E1E1F1F1F1F1F1FE1
:104DF0001F1F000000000000000000000000000075
:104E000000000000000000000000000000000000A2
:104E10000000000000000000000000000000000092
:034E20000000008F
:0D4E23000000000000000000000000000082
:104E3000001F001C001F001E001F001E001F001F7F
:104E4000001E001F001E001F009001000000000057
:104E500000E803D0070000C40900008813FF03E83E
:104E600003E8031027204E88131027A08C2003008E
:0B4E7000000000E803D0070000000075
:054E7B001E0211050CF0
:024E80000C160E
:0E4E8200000000000000000000000000000022
:104E90000000000000000000000000000000000012
:0A4EA0000000102040800102040809
:020000040030CA
:0100010002FC
:0100020003FA
:010003001EDE
:010005008179
:010006008178
:010008000FE8
:01000900C036
:01000A000FE6
:01000B00E014
:01000C000FE4
:01000D0040B2
:00000001FF
