:020000040000FA
:0600000051EF3FF0120079
:020006001200E6
:06000800A8EF3CF012001D
:02000E000000F0
:020010000000EE
:020012000000EC
:0600180033EF3CF0120082
:02001E000A00D6
:1000200076800000C8020000280000006F800000F9
:10003000DC030000070000005F800000F002000009
:100040001000000012000000E703000002000000A2
:10005000817F000000010000DE00000079660000E2
:10006000E9030000010000000E000000E3030000AF
:1000700004000000207F0000000F0000610000006D
:100080000C7F0000C803000014000000EC7E00009C
:08009000DE0100002000000069
:080098000301DF51070A24E017
:1000A000010A1EE0030A18E0010A12E0070A0CE048
:1000B000010A06E0030A1CE15B0EE66E660E1BD029
:1000C000570EE66E660E17D0530EE66E660E13D010
:1000D0004F0EE66E660E0FD04B0EE66E660E0BD020
:1000E000470EE66E660E07D0430EE66E660E03D030
:1000F0003F0EE66E660EE66EE66AE66AC8EC27F02C
:10010000E552E552E552E5520A0E046E2A6EDEC350
:1001100025F013EC3DF025C000F0016A026A036A85
:1001200000AE03D001680268036800C0E6FF01C0AA
:10013000E6FF02C0E6FF03C0E6FF040EE66EE66AD5
:10014000A1EC26F0056E060EE15E0550DEC325F03B
:100150000A0E2A6E13EC3DF021C000F0016A026A1B
:10016000036A00AE03D001680268036800C0E6FFBE
:1001700001C0E6FF02C0E6FF03C0E6FF050EE66E23
:10018000E66AA1EC26F0046E060EE15E04503D0E18
:10019000E66E660EE66E060EE66EE66AC8EC27F0C0
:1001A000E552E552E552E5520A0E046E2A6EDDC3B1
:1001B00025F013EC3DF025C000F0016A026A036AE5
:1001C00000AE03D001680268036800C0E6FF01C00A
:1001D000E6FF02C0E6FF03C0E6FF070EE66EE66A32
:1001E000A1EC26F0056E060EE15E0550DDC325F09C
:1001F0000A0E2A6E13EC3DF021C000F0016A026A7B
:10020000036A00AE03D001680268036800C0E6FF1D
:1002100001C0E6FF02C0E6FF03C0E6FF080EE66E7F
:10022000E66AA1EC26F0046E060EE15E04503D0E77
:10023000E66E660EE66E090EE66EE66AC8EC27F01C
:10024000E552E552E552E5520A0E046E2A6EDCC311
:1002500025F013EC3DF025C000F0016A026A036A44
:1002600000AE03D001680268036800C0E6FF01C069
:10027000E6FF02C0E6FF03C0E6FF0A0EE66EE66A8E
:10028000A1EC26F0056E060EE15E0550DCC325F0FC
:100290000A0E2A6E13EC3DF021C000F0016A026ADA
:1002A000036A00AE03D001680268036800C0E6FF7D
:1002B00001C0E6FF02C0E6FF03C0E6FF0B0EE66EDC
:1002C000E66AA1EC26F0046E060EE15E045003011E
:1002D000E1510C0A42E0070A3CE0010A36E0030A59
:1002E00030E0010A2AE00F0A24E0010A1EE0030AB6
:1002F00018E0010A12E0070A0CE0010A06E0030A0E
:1003000030E1390EE66E660E2FD0350EE66E660EC3
:100310002BD0310EE66E660E27D02D0EE66E660EE1
:1003200023D0290EE66E660E1FD0250EE66E660EF1
:100330001BD0210EE66E660E17D01D0EE66E660E01
:1003400013D0190EE66E660E0FD0150EE66E660E11
:100350000BD0110EE66E660E07D00D0EE66E660E21
:1003600003D03F0EE66E660EE66E020EE66E010EDE
:10037000E66EC8EC27F0E552E552E552E5520B0E69
:10038000E66E660EE66E050EE66E010EE66EC8ECD3
:1003900027F0E552E552E552E5520A0E046E2A6E48
:1003A000E0C325F013EC3DF025C000F0016A026ABD
:1003B000036A00AE03D001680268036800C0E6FF6C
:1003C00001C0E6FF02C0E6FF03C0E6FF060EE66ED0
:1003D000010EE66EA1EC26F0056E060EE15E0550FC
:1003E000E0C325F00A0E2A6E13EC3DF021C000F0A8
:1003F000016A026A036A00AE03D0016802680368FA
:1004000000C0E6FF01C0E6FF02C0E6FF03C0E6FF52
:10041000070EE66E010EE66EA1EC26F0046E060EE7
:10042000E15E04500B0EE66E660EE66E080EE66E9A
:10043000010EE66EC8EC27F0E552E552E552E552B2
:10044000140EE66EE66AE66AE66A090EE66E010ECC
:10045000E66EA1EC26F0006E060EE15E00500A0E7C
:10046000046E2A6EE2C325F013EC3DF025C000F0C7
:10047000016A026A036A00AE03D001680268036879
:1004800000C0E6FF01C0E6FF02C0E6FF03C0E6FFD2
:100490000B0EE66E010EE66EA1EC26F0056E060E62
:1004A000E15E0550E2C325F00A0E2A6E13EC3DF022
:1004B00021C000F0016A026A036A00AE03D001683D
:1004C0000268036800C0E6FF01C0E6FF02C0E6FF65
:1004D00003C0E6FF0C0EE66E010EE66EA1EC26F000
:1004E000046E060EE15E0450120053EC25F0070E78
:1004F0000101121901E1135101E199D0060E1219FF
:1005000001E1135101E17FD0050E121901E11351F0
:100510006AE0040E121901E1135155E0030E12199D
:1005200001E1135140E0020E121901E113512BE0D9
:10053000010E121901E1135116E0125101E084D0AD
:10054000135101E081D0FA0EE66E650EE66EE66AA2
:10055000E66AC8EC27F0E552E552E552E552E90EAD
:10056000E66E650E5FD0D80EE66E650EE66EE66A44
:10057000E66AC8EC27F0E552E552E552E552C70EAF
:10058000E66E650E4FD0B60EE66E650EE66EE66A56
:10059000E66AC8EC27F0E552E552E552E552A50EB1
:1005A000E66E650E3FD0940EE66E650EE66EE66A68
:1005B000E66AC8EC27F0E552E552E552E552830EB3
:1005C000E66E650E2FD0720EE66E650EE66EE66A7A
:1005D000E66AC8EC27F0E552E552E552E552610EB5
:1005E000E66E650E1FD0500EE66E650EE66EE66A8C
:1005F000E66AC8EC27F0E552E552E552E5523F0EB7
:10060000E66E650E0FD02E0EE66E650EE66EE66A9D
:10061000E66AC8EC27F0E552E552E552E5521D0EB8
:10062000E66E650EE66EE66A010EE66E06D00C0E0C
:10063000E66E650EE66EE66AE66AC8EC27F0E552FD
:10064000E552E552E5521200126B136B120053ECA7
:1006500025F0070E0101041901E1055101E199D0CE
:10066000060E041901E1055101E17FD0050E0419C0
:1006700001E105516AE0040E041901E1055155E05C
:10068000030E041901E1055140E0020E041901E1D5
:1006900005512BE0010E041901E1055116E004514A
:1006A00001E084D0055101E081D0FB0EE66E640EBE
:1006B000E66EE66AE66AC8EC27F0E552E552E552D6
:1006C000E552EA0EE66E640E5FD0D90EE66E640E59
:1006D000E66EE66AE66AC8EC27F0E552E552E552B6
:1006E000E552C80EE66E640E4FD0B70EE66E640E8D
:1006F000E66EE66AE66AC8EC27F0E552E552E55296
:10070000E552A60EE66E640E3FD0950EE66E640EC0
:10071000E66EE66AE66AC8EC27F0E552E552E55275
:10072000E552840EE66E640E2FD0730EE66E640EF4
:10073000E66EE66AE66AC8EC27F0E552E552E55255
:10074000E552620EE66E640E1FD0510EE66E640E28
:10075000E66EE66AE66AC8EC27F0E552E552E55235
:10076000E552400EE66E640E0FD02F0EE66E640E5C
:10077000E66EE66AE66AC8EC27F0E552E552E55215
:10078000E5521E0EE66E640EE66EE66A010EE66E39
:1007900006D00D0EE66E640EE66EE66AE66AC8ECFA
:1007A00027F0E552E552E552E5521200046B056B65
:1007B000120053EC25F0070E0101041901E1055167
:1007C00001E199D0060E041901E1055101E17FD044
:1007D000050E041901E105516AE0040E041901E156
:1007E000055155E0030E041901E1055140E0020EE8
:1007F000041901E105512BE0010E041901E1055135
:1008000016E0045101E084D0055101E081D0FC0ED6
:10081000E66E630EE66EE66AE66AC8EC27F0E5521D
:10082000E552E552E552EB0EE66E630E5FD0DA0E4E
:10083000E66E630EE66EE66AE66AC8EC27F0E552FD
:10084000E552E552E552C90EE66E630E4FD0B80E82
:10085000E66E630EE66EE66AE66AC8EC27F0E552DD
:10086000E552E552E552A70EE66E630E3FD0960EB6
:10087000E66E630EE66EE66AE66AC8EC27F0E552BD
:10088000E552E552E552850EE66E630E2FD0740EEA
:10089000E66E630EE66EE66AE66AC8EC27F0E5529D
:1008A000E552E552E552630EE66E630E1FD0520E1E
:1008B000E66E630EE66EE66AE66AC8EC27F0E5527D
:1008C000E552E552E552410EE66E630E0FD0300E52
:1008D000E66E630EE66EE66AE66AC8EC27F0E5525D
:1008E000E552E552E5521F0EE66E630EE66EE66ACD
:1008F000010EE66E06D00E0EE66E630EE66EE66A3A
:10090000E66AC8EC27F0E552E552E552E5521200DE
:10091000046B056B1200D9CFE6FFE1CFD9FF53EC92
:1009200025F0010E01013A253A6F000E3B213B6F85
:100930000A0E296E2A6A3AC124F03BC125F02DEC3B
:100940003DF020C03AF121C03BF1D950FD0FE96ED6
:10095000FF0EDA20EA6E010EEE1801E03BD2ED50F8
:1009600001E038D253EC25F0FB0EDBCFE9FFFC0EA3
:10097000DBCFEAFFD890E936EA36F00EE926020E20
:10098000EA22EECFE6FFEFCFE6FFE66AE66AC8ECC2
:1009900027F0E552E552E552E552060EE66E630E8B
:1009A000E66E040EE66EE66AC8EC27F0E552E55204
:1009B000E552E552FB0EDBCFE9FFFC0EDBCFEAFF91
:1009C000D890E936EA36A60EE926010EEA22EECFE5
:1009D00000F0EFCF01F0026A036A00C0E6FF01C039
:1009E000E6FF02C0E6FF03C0E6FF0B0EE66EE66A16
:1009F000A1EC26F0046E060EE15E0450050E010126
:100A00003BAF02D0D89003D03A5D000E3B5927E2AD
:100A10006DEC3FF0000923E0D950F90FE96EFF0EAD
:100A2000DA20EA6EEE50ED101AE1FB0EDBCFE9FFA3
:100A3000FC0EDBCFEAFFD890E936EA36A60EE926AF
:100A4000010EEA22EECF00F0EFCF01F0100E005CB5
:100A5000270E015804E3000EE66E630E92D0050ED9
:100A600001013BAF02D0D89003D03A5D000E3B5954
:100A700027E26DEC3FF0000923E0D950F90FE96E51
:100A8000FF0EDA20EA6EEE50ED101AE1FB0EDBCF1E
:100A9000E9FFFC0EDBCFEAFFD890E936EA36A60E76
:100AA000E926010EEA22EECF00F0EFCF01F0E80ECA
:100AB000005C030E015804E3FB0EE66E620E61D08B
:100AC000050E01013BAF02D0D89003D03A5D000E75
:100AD0003B5927E26DEC3FF0000923E0D950F90FB4
:100AE000E96EFF0EDA20EA6EEE50ED101AE1FB0E11
:100AF000DBCFE9FFFC0EDBCFEAFFD890E936EA3620
:100B0000A60EE926010EEA22EECF00F0EFCF01F0AB
:100B1000640E005C000E015804E3F70EE66E620EF0
:100B200030D0050E01013BAF02D0D89003D03A5D22
:100B3000000E3B5930E26DEC3FF000092CE0D9503B
:100B4000F90FE96EFF0EDA20EA6EEE50ED1023E1A8
:100B5000FB0EDBCFE9FFFC0EDBCFEAFFD890E936D6
:100B6000EA36A60EE926010EEA22EECF00F0EFCF1C
:100B700001F0000E005C000E01580DE3F40EE66E6D
:100B8000620EE66E0B0EE66EE66AC8EC27F0E552E2
:100B9000E552E552E552FB0EDBCFE9FFFC0EDBCF61
:100BA000EAFFD890E936EA36F00EE926020EEA228C
:100BB000EECFE6FFEFCFE6FFE66A010EE66EC8EC89
:100BC00027F0E552E552E552E552EC0EE66E620E74
:100BD000E66E040EE66E010EE66EC8EC27F0E552F6
:100BE000E552E552E552FB0EDBCFE9FFFC0EDBCF11
:100BF000EAFFD890E936EA36B40EE926010EEA2279
:100C0000EECF00F0EFCF01F0026A036A00C0E6FF0A
:100C100001C0E6FF02C0E6FF03C0E6FF0B0EE66E72
:100C2000010EE66EA1EC26F0046E060EE15E0450A5
:100C3000050E01013BAF02D0D89003D03A5D000E03
:100C40003B5929E26DEC3FF0000925E0D950F90F3E
:100C5000E96EFF0EDA20EA6E010EEE181CE1ED508F
:100C60001AE1FB0EDBCFE9FFFC0EDBCFEAFFD890E9
:100C7000E936EA36B40EE926010EEA22EECF00F09C
:100C8000EFCF01F0100E005C270E015804E3000EB8
:100C9000E66E630E94D0050E01013BAF02D0D890F2
:100CA00003D03A5D000E3B5929E26DEC3FF000099C
:100CB00025E0D950F90FE96EFF0EDA20EA6E010E39
:100CC000EE181CE1ED501AE1FB0EDBCFE9FFFC0E44
:100CD000DBCFEAFFD890E936EA36B40EE926010EFA
:100CE000EA22EECF00F0EFCF01F0E80E005C030E39
:100CF000015804E3FB0EE66E620E61D0050E0101A1
:100D00003BAF02D0D89003D03A5D000E3B5925E2AC
:100D10006DEC3FF0000921E0D950F90FE96EFF0EAC
:100D2000DA20EA6E010EEE1818E1ED5016E1FB0E26
:100D3000DBCFE9FFFC0EDBCFEAFFD890E936EA36DD
:100D4000B40EE926010EEA22EECF00F0EFCF01F05B
:100D5000640E005C000E01582FE2050E01013BAF4E
:100D600002D0D89003D03A5D000E3B5933E26DECCF
:100D70003FF000092FE0D950F90FE96EFF0EDA209D
:100D8000EA6E010EEE1826E1ED5024E1FB0EDBCFFA
:100D9000E9FFFC0EDBCFEAFFD890E936EA36B40E65
:100DA000E926010EEA22EECF00F0EFCF01F0000EAF
:100DB000005C000E01580EE3F70EE66E620EE66E62
:100DC0000B0EE66E010EE66EC8EC27F0E552E5521A
:100DD000E552E552D950FD0FE96EFF0EDA20EA6EBA
:100DE000020EEE1801E03FD2ED5001E03CD253EC90
:100DF00025F0FB0EDBCFE9FFFC0EDBCFEAFFD8903E
:100E0000E936EA36F00EE926020EEA22EECFE6FFD8
:100E1000EFCFE6FFE66AE66AC8EC27F0E552E55256
:100E2000E552E552E30EE66E620EE66E040EE66EE5
:100E3000E66AC8EC27F0E552E552E552E552FB0EB2
:100E4000DBCFE9FFFC0EDBCFEAFFD890E936EA36CC
:100E5000C20EE926010EEA22EECF00F0EFCF01F03C
:100E6000026A036A00C0E6FF01C0E6FF02C0E6FFB7
:100E700003C0E6FF0B0EE66EE66AA1EC26F0046EF8
:100E8000060EE15E0450050E01013BAF02D0D89082
:100E900003D03A5D000E3B5927E26DEC3FF00009AC
:100EA00023E0D950F90FE96EFF0EDA20EA6EEE501A
:100EB000ED101AE1FB0EDBCFE9FFFC0EDBCFEAFF02
:100EC000D890E936EA36C20EE926010EEA22EECFC4
:100ED00000F0EFCF01F0100E005C270E015804E384
:100EE000000EE66E630E92D0050E01013BAF02D0FC
:100EF000D89003D03A5D000E3B5927E26DEC3FF0ED
:100F0000000923E0D950F90FE96EFF0EDA20EA6EEE
:100F1000EE50ED101AE1FB0EDBCFE9FFFC0EDBCF4C
:100F2000EAFFD890E936EA36C20EE926010EEA2237
:100F3000EECF00F0EFCF01F0E80E005C030E015899
:100F400004E3FB0EE66E620E61D0050E01013BAFBD
:100F500002D0D89003D03A5D000E3B5927E26DECE9
:100F60003FF0000923E0D950F90FE96EFF0EDA20B7
:100F7000EA6EEE50ED101AE1FB0EDBCFE9FFFC0E3E
:100F8000DBCFEAFFD890E936EA36C20EE926010E39
:100F9000EA22EECF00F0EFCF01F0640E005C000E0D
:100FA000015804E3F70EE66E620E30D0050E010123
:100FB0003BAF02D0D89003D03A5D000E3B5930E2EF
:100FC0006DEC3FF000092CE0D950F90FE96EFF0EEF
:100FD000DA20EA6EEE50ED1023E1FB0EDBCFE9FFE5
:100FE000FC0EDBCFEAFFD890E936EA36C20EE926DE
:100FF000010EEA22EECF00F0EFCF01F0000E005C10
:10100000000E01580DE3F40EE66E620EE66E0B0E56
:10101000E66EE66AC8EC27F0E552E552E552E55285
:10102000FB0EDBCFE9FFFC0EDBCFEAFFD890E93601
:10103000EA36F00EE926020EEA22EECFE6FFEFCF07
:10104000E6FFE66A010EE66EC8EC27F0E552E552CF
:10105000E552E552DA0EE66E620EE66E040EE66EBC
:10106000010EE66EC8EC27F0E552E552E552E55276
:10107000FB0EDBCFE9FFFC0EDBCFEAFFD890E936B1
:10108000EA36D00EE926010EEA22EECF00F0EFCFCD
:1010900001F0026A036A00C0E6FF01C0E6FF02C079
:1010A000E6FF03C0E6FF0B0EE66E010EE66EA1EC56
:1010B00026F0046E060EE15E0450050E01013BAF02
:1010C00002D0D89003D03A5D000E3B5929E26DEC76
:1010D0003FF0000925E0D950F90FE96EFF0EDA2044
:1010E000EA6E010EEE181CE1ED501AE1FB0EDBCFAB
:1010F000E9FFFC0EDBCFEAFFD890E936EA36D00EE6
:10110000E926010EEA22EECF00F0EFCF01F0100E3B
:10111000005C270E015804E3000EE66E630E98D0C3
:10112000050E01013BAF02D0D89003D03A5D000E0E
:101130003B5929E26DEC3FF0000925E0D950F90F49
:10114000E96EFF0EDA20EA6E010EEE181CE1ED509A
:101150001AE1FB0EDBCFE9FFFC0EDBCFEAFFD890F4
:10116000E936EA36D00EE926010EEA22EECF00F08B
:10117000EFCF01F0E80E005C030E015804E3FB0E14
:10118000E66E620E65D0050E01013BAF02D0D8902D
:1011900003D03A5D000E3B5929E26DEC3FF00009A7
:1011A00025E0D950F90FE96EFF0EDA20EA6E010E44
:1011B000EE181CE1ED501AE1FB0EDBCFE9FFFC0E4F
:1011C000DBCFEAFFD890E936EA36D00EE926010EE9
:1011D000EA22EECF00F0EFCF01F0640E005C000ECB
:1011E000015804E3F70EE66E620E32D0050E0101DF
:1011F0003BAF02D0D89003D03A5D000E3B5933E2AA
:101200006DEC3FF000092FE0D950F90FE96EFF0EA9
:10121000DA20EA6E010EEE1826E1ED5024E1FB0E15
:10122000DBCFE9FFFC0EDBCFEAFFD890E936EA36E8
:10123000D00EE926010EEA22EECF00F0EFCF01F04A
:10124000000E005C000E01580EE3F40EE66E620E16
:10125000E66E0B0EE66E010EE66EC8EC27F0E55268
:10126000E552E552E552E552E7CFD9FF120053ECC3
:1012700025F00201FE6BFF6B01011051111101E01D
:10128000B2D0000184510101A65D00018551010128
:10129000A75942E2D40EE66E620EE66EE66AE66A90
:1012A000C8EC27F0E552E552E552E55284C000F063
:1012B00085C001F0026A036A84C0E6FF85C0E6FFCC
:1012C00002C0E6FF03C0E6FF060EE66EE66AF3EC38
:1012D00027F0046E060EE15E0450CC0EE66E620E40
:1012E000E66EE66A010EE66EC8EC27F0E552E552BE
:1012F000E552E552C80EE66E620EE66E0D0EE66E23
:10130000E66AC8EC27F0E552E552E552E552A6C17F
:1013100000F0A7C101F04AD00101B4510001845D81
:101320000101B551000185595AE2D40EE66E620EF4
:10133000E66EE66AE66AC8EC27F0E552E552E55249
:10134000E55284C000F085C001F0026A036A84C0DF
:10135000E6FF85C0E6FF02C0E6FF03C0E6FF060E1B
:10136000E66EE66AF3EC27F0046E060EE15E0450CA
:10137000BF0EE66E620EE66EE66A010EE66EC8EC21
:1013800027F0E552E552E552E552BB0EE66E620EDD
:10139000E66E0D0EE66EE66AC8EC27F0E552E55201
:1013A000E552E552B4C100F0B5C101F0026A036A2A
:1013B00000C0E6FF01C0E6FF02C0E6FF03C0E6FF93
:1013C0000A0EE66E010EE66EF3EC27F0046E060ED2
:1013D000E15E0450010E0201FE6FFF6B04D00101BB
:1013E000102B000E11230101010E101901E0B5D0E0
:1013F000115101E0B2D0000186510101A85D000148
:1014000087510101A95942E2B50EE66E620EE66E01
:10141000E66AE66AC8EC27F0E552E552E552E55285
:1014200086C000F087C001F0026A036A86C0E6FF4A
:1014300087C0E6FF02C0E6FF03C0E6FF060EE66EC9
:10144000E66AF3EC27F0046E060EE15E0450AD0E82
:10145000E66E620EE66EE66A010EE66EC8EC27F0F6
:10146000E552E552E552E552C80EE66E620EE66EB2
:101470000D0EE66EE66AC8EC27F0E552E552E5523D
:10148000E552A8C100F0A9C101F04AD00101B6514E
:101490000001865D0101B751000187595AE2B50E7E
:1014A000E66E620EE66EE66AE66AC8EC27F0E55282
:1014B000E552E552E55286C000F087C001F0026AAD
:1014C000036A86C0E6FF87C0E6FF02C0E6FF03C0EE
:1014D000E6FF060EE66EE66AF3EC27F0046E060EF3
:1014E000E15E0450A40EE66E620EE66EE66A010E40
:1014F000E66EC8EC27F0E552E552E552E552BB0E28
:10150000E66E620EE66E0D0EE66EE66AC8EC27F039
:10151000E552E552E552E552B6C100F0B7C101F01F
:10152000026A036A00C0E6FF01C0E6FF02C0E6FFF0
:1015300003C0E6FF0A0EE66E010EE66EF3EC27F03E
:10154000046E060EE15E0450010E0201FE6FFF6B99
:1015500004D00101102B000E11230101020E1019FD
:1015600001E0B5D0115101E0B2D000018851010174
:10157000AA5D000189510101AB5942E29D0EE66E60
:10158000620EE66EE66AE66AC8EC27F0E552E552BE
:10159000E552E55288C000F089C001F0026A036A92
:1015A00088C0E6FF89C0E6FF02C0E6FF03C0E6FF91
:1015B000060EE66EE66AF3EC27F0046E060EE15EB8
:1015C0000450940EE66E620EE66EE66A010EE66E5A
:1015D000C8EC27F0E552E552E552E552C80EE66E3A
:1015E000620EE66E0D0EE66EE66AC8EC27F0E55276
:1015F000E552E552E552AAC100F0ABC101F04AD074
:101600000101B8510001885D0101B95100018959FA
:101610005AE29D0EE66E620EE66EE66AE66AC8EC77
:1016200027F0E552E552E552E55288C000F089C046
:1016300001F0026A036A88C0E6FF89C0E6FF02C0C3
:10164000E6FF03C0E6FF060EE66EE66AF3EC27F05F
:10165000046E060EE15E04508A0EE66E620EE66EC1
:10166000E66A010EE66EC8EC27F0E552E552E55257
:10167000E552BB0EE66E620EE66E0D0EE66EE66A93
:10168000C8EC27F0E552E552E552E552B8C100F04A
:10169000B9C101F0026A036A00C0E6FF01C0E6FFBB
:1016A00002C0E6FF03C0E6FF0A0EE66E010EE66E1C
:1016B000F3EC27F0046E060EE15E0450010E020109
:1016C000FE6FFF6B04D00101102B000E11230101EE
:1016D000030E101901E0B5D0115101E0B2D00001A4
:1016E0008A510101AC5D00018B510101AD5942E20B
:1016F000830EE66E620EE66EE66AE66AC8EC27F0D6
:10170000E552E552E552E5528AC000F08BC001F087
:10171000026A036A8AC0E6FF8BC0E6FF02C0E6FFEA
:1017200003C0E6FF060EE66EE66AF3EC27F0046EF1
:10173000060EE15E04507A0EE66E620EE66EE66A12
:10174000010EE66EC8EC27F0E552E552E552E5528F
:10175000C80EE66E620EE66E0D0EE66EE66AC8EC28
:1017600027F0E552E552E552E552ACC100F0ADC1BB
:1017700001F04AD00101BA5100018A5D0101BB515B
:1017800000018B595AE2830EE66E620EE66EE66A3F
:10179000E66AC8EC27F0E552E552E552E5528AC008
:1017A00000F08BC001F0026A036A8AC0E6FF8BC0BA
:1017B000E6FF02C0E6FF03C0E6FF060EE66EE66A3D
:1017C000F3EC27F0046E060EE15E0450700EE66E38
:1017D000620EE66EE66A010EE66EC8EC27F0E55290
:1017E000E552E552E552BB0EE66E620EE66E0D0E58
:1017F000E66EE66AC8EC27F0E552E552E552E5529E
:10180000BAC100F0BBC101F0026A036A00C0E6FF82
:1018100001C0E6FF02C0E6FF03C0E6FF0A0EE66E67
:10182000010EE66EF3EC27F0046E060EE15E045046
:10183000010E0201FE6FFF6B04D00101102B000EA0
:1018400011230101040E101901E0B5D0115101E07E
:10185000B2D000018C510101AE5D00018D5101013A
:10186000AF5942E2690EE66E620EE66EE66AE66A1D
:10187000C8EC27F0E552E552E552E5528CC000F085
:101880008DC001F0026A036A8CC0E6FF8DC0E6FFDE
:1018900002C0E6FF03C0E6FF060EE66EE66AF3EC62
:1018A00027F0046E060EE15E0450600EE66E620ED6
:1018B000E66EE66A010EE66EC8EC27F0E552E552E8
:1018C000E552E552C80EE66E620EE66E0D0EE66E4D
:1018D000E66AC8EC27F0E552E552E552E552AEC1A2
:1018E00000F0AFC101F04AD00101BC5100018C5D94
:1018F0000101BD5100018D595AE2690EE66E620E7A
:10190000E66EE66AE66AC8EC27F0E552E552E55273
:10191000E5528CC000F08DC001F0026A036A8CC0F1
:10192000E6FF8DC0E6FF02C0E6FF03C0E6FF060E3D
:10193000E66EE66AF3EC27F0046E060EE15E0450F4
:10194000560EE66E620EE66EE66A010EE66EC8ECB4
:1019500027F0E552E552E552E552BB0EE66E620E07
:10196000E66E0D0EE66EE66AC8EC27F0E552E5522B
:10197000E552E552BCC100F0BDC101F0026A036A44
:1019800000C0E6FF01C0E6FF02C0E6FF03C0E6FFBD
:101990000A0EE66E010EE66EF3EC27F0046E060EFC
:1019A000E15E0450010E0201FE6FFF6B04D00101E5
:1019B000102B000E11230101050E101901E0B5D006
:1019C000115101E0B2D000018E510101B05D000162
:1019D0008F510101B15942E24F0EE66E620EE66E82
:1019E000E66AE66AC8EC27F0E552E552E552E552B0
:1019F0008EC000F08FC001F0026A036A8EC0E6FF5D
:101A00008FC0E6FF02C0E6FF03C0E6FF060EE66EEB
:101A1000E66AF3EC27F0046E060EE15E0450460E13
:101A2000E66E620EE66EE66A010EE66EC8EC27F020
:101A3000E552E552E552E552C80EE66E620EE66EDC
:101A40000D0EE66EE66AC8EC27F0E552E552E55267
:101A5000E552B0C100F0B1C101F04AD00101BE5160
:101A600000018E5D0101BF5100018F595AE24F0EF6
:101A7000E66E620EE66EE66AE66AC8EC27F0E552AC
:101A8000E552E552E5528EC000F08FC001F0026AC7
:101A9000036A8EC0E6FF8FC0E6FF02C0E6FF03C008
:101AA000E6FF060EE66EE66AF3EC27F0046E060E1D
:101AB000E15E04503C0EE66E620EE66EE66A010ED2
:101AC000E66EC8EC27F0E552E552E552E552BB0E52
:101AD000E66E620EE66E0D0EE66EE66AC8EC27F064
:101AE000E552E552E552E552BEC100F0BFC101F03A
:101AF000026A036A00C0E6FF01C0E6FF02C0E6FF1B
:101B000003C0E6FF0A0EE66E010EE66EF3EC27F068
:101B1000046E060EE15E0450010E0201FE6FFF6BC3
:101B200004D00101102B000E11230101060E101923
:101B300001E0B5D0115101E0B2D000019051010196
:101B4000B25D000191510101B35942E2350EE66EDA
:101B5000620EE66EE66AE66AC8EC27F0E552E552E8
:101B6000E552E55290C000F091C001F0026A036AAC
:101B700090C0E6FF91C0E6FF02C0E6FF03C0E6FFAB
:101B8000060EE66EE66AF3EC27F0046E060EE15EE2
:101B900004502A0EE66E620EE66EE66A010EE66EEE
:101BA000C8EC27F0E552E552E552E552C80EE66E64
:101BB000620EE66E0D0EE66EE66AC8EC27F0E552A0
:101BC000E552E552E552B2C100F0B3C101F04AD08E
:101BD0000101C0510001905D0101C1510001915905
:101BE0005AE2350EE66E620EE66EE66AE66AC8EC0A
:101BF00027F0E552E552E552E55290C000F091C061
:101C000001F0026A036A90C0E6FF91C0E6FF02C0DD
:101C1000E6FF03C0E6FF060EE66EE66AF3EC27F089
:101C2000046E060EE15E0450200EE66E620EE66E55
:101C3000E66A010EE66EC8EC27F0E552E552E55281
:101C4000E552BB0EE66E620EE66E0D0EE66EE66ABD
:101C5000C8EC27F0E552E552E552E552C0C100F06C
:101C6000C1C101F0026A036A00C0E6FF01C0E6FFDD
:101C700002C0E6FF03C0E6FF0A0EE66E010EE66E46
:101C8000F3EC27F0046E060EE15E0450010E020133
:101C9000FE6FFF6B04D00101102B000E1123010118
:101CA000070E101914E1115112E10201010EFE1983
:101CB0000EE1FF510CE1110EE66E620EE66EE66A71
:101CC000E66AC8EC27F0E552E552E552E55201011B
:101CD000E7051CE1C40EE66E090EE66E5BEC38F01B
:101CE000E552E552010E01011025106F000E112181
:101CF000116F080E296E2A6A10C124F011C125F057
:101D00002DEC3DF020C010F121C011F112000201B4
:101D1000050ED25D000ED35923E3D2C200F0016A52
:101D2000010E001600181CE101501AE10301DE2922
:101D3000DE6F170EE76EDE19E8AE02D0DE3503D097
:101D4000E750D880DE5501E2DE6BDEC3E6FF020E0F
:101D5000E66EEBEC3BF0E552E5520201D26BD36B41
:101D6000050ED45D000ED5591CE3D4C200F000016D
:101D7000016A010E0016001814E1015012E103017E
:101D8000DE05DE6FE83402E3170EDE6FDEC3E6FF2A
:101D9000020EE66EEBEC3BF0E552E5520201D46B2D
:101DA000D56B12000201050ED25D000ED35923E35C
:101DB000D2C200F0016A010E001600181CE10150A9
:101DC0001AE10301DD29DD6F3B0EE76EDD19E8AE98
:101DD00002D0DD3503D0E750D880DD5501E2DD6B60
:101DE000DDC3E6FF010EE66EEBEC3BF0E552E5529B
:101DF0000201D26BD36B050ED45D000ED5591CE3E6
:101E0000D4C200F00001016A010E0016001814E1AE
:101E1000015012E10301DD05DD6FE83402E33B0E02
:101E2000DD6FDDC3E6FF010EE66EEBEC3BF0E55245
:101E3000E5520201D46BD56B12000201050ED25D92
:101E4000000ED35924E3D2C200F0016A010E00163D
:101E500000181DE101501BE10301DF29DF6F070EB0
:101E6000E76EDF19E8AE02D0DF3503D0E750D88047
:101E7000DF5502E2010EDF6FDFC3E6FF030EE66E01
:101E8000EBEC3BF0E552E5520201D26BD36B050E51
:101E9000D45D000ED55924E3D4C200F00001016ADC
:101EA000010E001600181CE101501AE10301DF05C4
:101EB000DF6F010EE76EDF19E8AE02D0E73402D023
:101EC000E750DF5D02E2070EDF6FDFC3E6FF030EC0
:101ED000E66EEBEC3BF0E552E5520201D46BD56BBC
:101EE00012000201050ED25D000ED35924E3D2C2C6
:101EF00000F0016A010E001600181DE101501BE1FF
:101F00000301E029E06F1F0EE76EE019E8AE02D092
:101F1000E03503D0E750D880E05502E2010EE06FD3
:101F2000E0C3E6FF040EE66EEBEC3BF0E552E55253
:101F30000201D26BD36B050ED45D000ED55924E39C
:101F4000D4C200F00001016A010E001600181CE165
:101F500001501AE10301E005E06F010EE76EE019A0
:101F6000E8AE02D0E73402D0E750E05D02E21F0E97
:101F7000E06FE0C3E6FF040EE66EEBEC3BF0E552EB
:101F8000E5520201D46BD56B12000201050ED25D41
:101F9000000ED35924E3D2C200F0016A010E0016EC
:101FA00000181DE101501BE10301E129E16F0C0E56
:101FB000E76EE119E8AE02D0E13503D0E750D880F2
:101FC000E15502E2010EE16FE1C3E6FF050EE66EA8
:101FD000EBEC3BF0E552E5520201D26BD36B050E00
:101FE000D45D000ED55924E3D4C200F00001016A8B
:101FF000010E001600181CE101501AE10301E10571
:10200000E16F010EE76EE119E8AE02D0E73402D0CD
:10201000E750E15D02E20C0EE16FE1C3E6FF050E61
:10202000E66EEBEC3BF0E552E5520201D46BD56B6A
:1020300012000201050ED25D000ED35923E3D2C275
:1020400000F0016A010E001600181CE101501AE1AF
:102050000301E229E26F630EE76EE219E8AE02D0F7
:10206000E23503D0E750D880E25501E2E26BE2C3EB
:10207000E6FF060EE66EEBEC3BF0E552E5520201A0
:10208000D26BD36B050ED45D000ED5591CE3D4C2C0
:1020900000F00001016A010E0016001814E1015061
:1020A00012E10301E205E26FE83402E3630EE26F3E
:1020B000E2C3E6FF060EE66EEBEC3BF0E552E552BE
:1020C0000201D46BD56B120053EC25F0ECEC3DF023
:1020D000010E01013A253A6F000E3B213B6F0A0EBB
:1020E000296E2A6A3AC124F03BC125F02DEC3DF05F
:1020F00020C03AF121C03BF1110E0101061901E1A6
:10210000075101E149D10F0E061901E1075101E123
:102110000AD1100E061901E1075101E1C9D00D0ED7
:10212000061901E1075101E189D00C0E061901E100
:1021300007514AE00E0E061901E107510CE0065165
:1021400001E1075101E012004CEC00F00E0E01011C
:10215000066F076B120071DE4CEC00F0050E0101FA
:102160003BAF02D0D89003D03A5D000E3B5910E24D
:102170006DEC3FF000090CE0F70EE66E620EE66EC5
:10218000E66AE66AC8EC27F0E552E552E552E55208
:102190000201050ED05D000ED15901E236D1D0C248
:1021A00000F0D1C201F00001016A010E0016001812
:1021B0000AE1015001E029D10C0E0101066F076B05
:1021C0000201D06BD16B1200A2DD4CEC00F0050EC9
:1021D00001013BAF02D0D89003D03A5D000E3B59CD
:1021E00011E26DEC3FF000090DE0F40EE66E620EB8
:1021F000E66E040EE66EE66AC8EC27F0E552E5529C
:10220000E552E5520201050ED05D000ED15901E202
:10221000FCD0D0C200F0D1C201F00001016A010E71
:10222000001600180AE1015001E0EFD00D0E010187
:10223000066F076B0201D06BD16B1200B3DD4CEC63
:1022400000F0050E01013BAF02D0D89003D03A5DFB
:10225000000E3B5911E26DEC3FF000090DE0F40E69
:10226000E66E620EE66E070EE66EE66AC8EC27F0D2
:10227000E552E552E552E5520201050ED05D000E31
:10228000D15901E2C2D0D0C200F0D1C201F00001A8
:10229000016A010E001600180AE1015001E0B5D0F4
:1022A000100E0101066F076B0201D06BD16B12009B
:1022B0006CDE4CEC00F0050E01013BAF02D0D89073
:1022C00003D03A5D000E3B5912E26DEC3FF000097D
:1022D0000EE0F70EE66E620EE66E020EE66E010E80
:1022E000E66EC8EC27F0E552E552E552E5520201F0
:1022F000050ED05D000ED15901E287D0D0C200F0AA
:10230000D1C201F00001016A010E001600180AE1B5
:10231000015001E07AD00F0E0101066F076B020138
:10232000D06BD16B1200DDDD4CEC00F0050E01012D
:102330003BAF02D0D89003D03A5D000E3B5912E279
:102340006DEC3FF000090EE0F40EE66E620EE66EF4
:10235000060EE66E010EE66EC8EC27F0E552E55279
:10236000E552E5520201050ED05D000ED1594DE354
:10237000D0C200F0D1C201F00001016A010E0016C6
:10238000001809E1015041E1110E0101066F076BD0
:102390000201D06BD16B12004CDE4CEC00F0050E4C
:1023A00001013BAF02D0D89003D03A5D000E3B59FB
:1023B00012E26DEC3FF000090EE0F40EE66E620EE4
:1023C000E66E0B0EE66E010EE66EC8EC27F0E552E7
:1023D000E552E552E5520201050ED05D000ED159DD
:1023E00014E3D0C200F0D1C201F00001016A010E75
:1023F0000016001809E1015008E10E0E0101066FF8
:10240000076B0201D06BD16B1200120053EC25F068
:10241000010E01013A253A6F000E3B213B6F0A0E77
:10242000296E2A6A3AC124F03BC125F02DEC3DF01B
:1024300020C03AF121C03BF10A0E046E2A6E36C16B
:1024400025F013EC3DF025C000F0016A026A036A32
:1024500000AE03D001680268036800C0E6FF01C057
:10246000E6FF02C0E6FF03C0E6FF020EE66EE66A84
:10247000A1EC26F0056E060EE15E055036C125F092
:102480000A0E2A6E13EC3DF021C000F0016A026AC8
:10249000036A00AE03D001680268036800C0E6FF6B
:1024A00001C0E6FF02C0E6FF03C0E6FF030EE66ED2
:1024B000E66AA1EC26F0046E060EE15E0450050EFD
:1024C00001013BAF02D0D89003D03A5D000E3B59DA
:1024D00022E26DEC3FF000091EE0010108510911F4
:1024E0001AE10F0EE66E620EE66E020EE66EE66A08
:1024F000C8EC27F0E552E552E552E5520F0EE66EC4
:10250000620EE66E030EE66EE66AC8EC27F0E55250
:10251000E552E552E5523D0EE66E660EE66E040E9D
:10252000E66EE66AC8EC27F0E552E552E552E55260
:102530000A0E046E2A6E37C125F013EC3DF025C05B
:1025400000F0016A026A036A00AE03D00168026803
:10255000036800C0E6FF01C0E6FF02C0E6FF03C05B
:10256000E6FF050EE66EE66AA1EC26F0056E060EA5
:10257000E15E055037C125F00A0E2A6E13EC3DF0DE
:1025800021C000F0016A026A036A00AE03D001684C
:102590000268036800C0E6FF01C0E6FF02C0E6FF74
:1025A00003C0E6FF060EE66EE66AA1EC26F0046EB6
:1025B000060EE15E0450050E01013BAF02D0D8903B
:1025C00003D03A5D000E3B5924E26DEC3FF0000968
:1025D00020E00101010E08191CE109511AE10F0E5A
:1025E000E66E620EE66E050EE66EE66AC8EC27F051
:1025F000E552E552E552E5520F0EE66E620EE66ECA
:10260000060EE66EE66AC8EC27F0E552E552E552A2
:10261000E5520C0EE66E620EE66E070EE66EE66A98
:10262000C8EC27F0E552E552E552E5520A0E046E79
:102630002A6E38C125F013EC3DF025C000F0016A88
:10264000026A036A00AE03D001680268036800C032
:10265000E6FF01C0E6FF02C0E6FF03C0E6FF090E89
:10266000E66EE66AA1EC26F0056E060EE15E055008
:1026700038C125F00A0E2A6E13EC3DF021C000F09F
:10268000016A026A036A00AE03D001680268036847
:1026900000C0E6FF01C0E6FF02C0E6FF03C0E6FFA0
:1026A0000A0EE66EE66AA1EC26F0046E060EE15E06
:1026B0000450050E01013BAF02D0D89003D03A5D23
:1026C000000E3B5924E26DEC3FF0000920E00101CF
:1026D000020E08191CE109511AE10F0EE66E620E96
:1026E000E66E090EE66EE66AC8EC27F0E552E552A2
:1026F000E552E5520F0EE66E620EE66E0A0EE66ECB
:10270000E66AC8EC27F0E552E552E552E5523D0E87
:10271000E66E660EE66E0B0EE66EE66AC8EC27F015
:10272000E552E552E552E5520A0E046E2A6E39C1B1
:1027300025F013EC3DF025C000F0016A026A036A3F
:1027400000AE03D001680268036800C0E6FF01C064
:10275000E6FF02C0E6FF03C0E6FF0C0EE66EE66A87
:10276000A1EC26F0056E060EE15E055039C125F09C
:102770000A0E2A6E13EC3DF021C000F0016A026AD5
:10278000036A00AE03D001680268036800C0E6FF78
:1027900001C0E6FF02C0E6FF03C0E6FF0D0EE66ED5
:1027A000E66AA1EC26F0046E060EE15E0450050E0A
:1027B00001013BAF02D0D89003D03A5D000E3B59E7
:1027C00024E26DEC3FF0000920E00101030E08193E
:1027D0001CE109511AE10F0EE66E620EE66E0C0E58
:1027E000E66EE66AC8EC27F0E552E552E552E5529E
:1027F0000F0EE66E620EE66E0D0EE66EE66AC8EC31
:1028000027F0E552E552E552E552FB0EE66E610E09
:10281000E66EE66A010EE66EC8EC27F0E552E55278
:10282000E552E55212000201050EC85D000EC959BD
:1028300020E3C8C200F0016A010E0016001819E179
:10284000015017E1010E01010825086F000E092152
:10285000096F040E296E2A6A08C124F009C125F007
:102860002DEC3DF020C008F121C009F10201C86B38
:10287000C96B050ED25D000ED3594BE3D2C200F0F6
:102880000001016A010E0016001843E1015041E108
:102890000101085109110AE101013629006E256E76
:1028A000180E2A6E13EC3DF021C036F10101010E25
:1028B00008190CE109510AE101013729006E256E62
:1028C0003C0E2A6E13EC3DF021C037F10101020EDF
:1028D00008190CE109510AE101013829006E256E41
:1028E000180E2A6E13EC3DF021C038F10101030EE1
:1028F00008190CE109510AE101013929006E256E20
:102900003C0E2A6E13EC3DF021C039F10201D26B6E
:10291000D36B0201050ED45D000ED5593FE3D4C23E
:1029200000F00001016A010E0016001837E10150A5
:1029300035E101010851091102E1010136070101E8
:10294000010E081904E1095102E1010137070101F3
:10295000020E081904E1095102E1010138070101E1
:10296000030E081904E1095102E1010139070101CF
:10297000363502E3170E366F0101383502E3170EC4
:10298000386F0101373502E33B0E376F01013935EE
:1029900002E33B0E396F0201D46BD56B0201050EC9
:1029A000D05D000ED15914E3D0C200F00001016ADD
:1029B000010E001600180CE101500AE1010E0101A0
:1029C000006F016B0101186F196B0201D06BD16BA5
:1029D00006EF12F053EC25F001010E510F1148E102
:1029E000F70EE66E610EE66EE66AE66AC8EC27F060
:1029F000E552E552E552E55284C000F085C001F091
:102A0000026A036A84C0E6FF85C0E6FF02C0E6FFF3
:102A100003C0E6FF030EE66EE66AF3EC27F0046EF1
:102A2000060EE15E0450F30EE66E610EE66EE66A97
:102A3000010EE66EC8EC27F0E552E552E552E5528C
:102A400086C000F087C001F0026A036A86C0E6FF14
:102A500087C0E6FF02C0E6FF03C0E6FF030EE66E96
:102A6000010EE66EF3EC27F0046E060EE15E0450F4
:102A70000101010E0E194AE10F5148E1EE0EE66E1A
:102A8000610EE66EE66AE66AC8EC27F0E552E552AA
:102A9000E552E55288C000F089C001F0026A036A7D
:102AA00088C0E6FF89C0E6FF02C0E6FF03C0E6FF7C
:102AB000040EE66EE66AF3EC27F0046E060EE15EA5
:102AC0000450E90EE66E610EE66EE66A010EE66EF1
:102AD000C8EC27F0E552E552E552E5528AC000F015
:102AE0008BC001F0026A036A8AC0E6FF8BC0E6FF72
:102AF00002C0E6FF03C0E6FF040EE66E010EE66EBE
:102B0000F3EC27F0046E060EE15E04500101020EA4
:102B10000E194AE10F5148E1E40EE66E610EE66ED1
:102B2000E66AE66AC8EC27F0E552E552E552E5525E
:102B30008CC000F08DC001F0026A036A8CC0E6FF11
:102B40008DC0E6FF02C0E6FF03C0E6FF040EE66E9E
:102B5000E66AF3EC27F0046E060EE15E0450DF0E29
:102B6000E66E610EE66EE66A010EE66EC8EC27F0D0
:102B7000E552E552E552E5528EC000F08FC001F0FB
:102B8000026A036A8EC0E6FF8FC0E6FF02C0E6FF5E
:102B900003C0E6FF040EE66E010EE66EF3EC27F0CE
:102BA000046E060EE15E04500101030E0E1925E1CC
:102BB0000F5123E1D90EE66E610EE66EE66AE66A13
:102BC000C8EC27F0E552E552E552E55290C000F01E
:102BD00091C001F0026A036A90C0E6FF91C0E6FF6F
:102BE00002C0E6FF03C0E6FF050EE66EE66AF3EC00
:102BF00027F0046E060EE15E04500101E7051CE1BA
:102C0000100EE66E270EE66E5BEC38F0E552E552EC
:102C1000010E01010E250E6F000E0F210F6F040E25
:102C2000296E2A6A0EC124F00FC125F02DEC3DF06B
:102C300020C00EF121C00FF11200D9CFE6FFE1CF85
:102C4000D9FF53EC25F0FD0EDBCFE9FFFE0EDBCF05
:102C5000EAFFD890E936EA36F00EE926020EEA22BB
:102C6000EECFE6FFEFCFE6FFE66AE66AC8EC27F0B4
:102C7000E552E552E552E5523D0EE66E660EE66E11
:102C8000030EE66EE66AC8EC27F0E552E552E5521F
:102C9000E552FB0EDBCF00F0FC0EDBCF01F0026A49
:102CA000036A01AE02D00268036800C0E6FF01C0FB
:102CB000E6FF02C0E6FF03C0E6FF040EE66EE66A2A
:102CC000F3EC27F0046E060EE15E0450D40EE66EBF
:102CD000610EE66E0B0EE66EE66AC8EC27F0E55272
:102CE000E552E552E552D00EE66E610EE66EE66AFA
:102CF000010EE66EC8EC27F0E552E552E552E552CA
:102D0000F90EDBCF00F0FA0EDBCF01F0026A036AA6
:102D100001AE02D00268036800C0E6FF01C0E6FF12
:102D200002C0E6FF03C0E6FF030EE66E010EE66E8C
:102D3000F3EC27F0046E060EE15E0450F70EDBCFD5
:102D400000F0F80EDBCF01F0026A036A01AE02D098
:102D50000268036800C0E6FF01C0E6FF02C0E6FFAC
:102D600003C0E6FF0A0EE66E010EE66EF3EC27F0F6
:102D7000046E060EE15E0450E552E7CFD9FF120063
:102D800053EC25F0070E0101041901E1055101E1A1
:102D900099D0060E041901E1055101E17FD0050E1D
:102DA000041901E105516AE0040E041901E105511D
:102DB00055E0030E041901E1055140E0020E04192B
:102DC00001E105512BE0010E041901E1055116E066
:102DD000045101E084D0055101E081D0BF0EE66EC0
:102DE000610EE66EE66AE66AC8EC27F0E552E55247
:102DF000E552E552AE0EE66E610E5FD09D0EE66EB8
:102E0000610EE66EE66AE66AC8EC27F0E552E55226
:102E1000E552E5528C0EE66E610E4FD07B0EE66EEB
:102E2000610EE66EE66AE66AC8EC27F0E552E55206
:102E3000E552E5526A0EE66E610E3FD0590EE66E1F
:102E4000610EE66EE66AE66AC8EC27F0E552E552E6
:102E5000E552E552480EE66E610E2FD0370EE66E53
:102E6000610EE66EE66AE66AC8EC27F0E552E552C6
:102E7000E552E552260EE66E610E1FD0150EE66E87
:102E8000610EE66EE66AE66AC8EC27F0E552E552A6
:102E9000E552E552040EE66E610E0FD0F30EE66EBB
:102EA000600EE66EE66AE66AC8EC27F0E552E55287
:102EB000E552E552E20EE66E600EE66EE66A010E3F
:102EC000E66E06D0D10EE66E600EE66EE66AE66A43
:102ED000C8EC27F0E552E552E552E5521200046BCA
:042EE000056B12006C
:0C2EE400D9CFE6FFE1CFD9FF020EE126B6
:102EF000DE6ADD6A06D955EC3BF05CEC23F053EC5E
:102F000025F0000EE66EE66A66D9E552E552010E3E
:102F1000E66EE66A60D9E552E5528180E80EE66E1B
:102F2000030EE66EAAD8E552E552B4EC3DF007DA9E
:102F30009ADA2EDBF1EC1BF086EC1CF0BDDB1BEC0F
:102F40001DF0010136510301DE5D11E10101375130
:102F50000301DD5D0CE10101010E181908E11951B1
:102F600006E1000EE66EE66A0ED9E552E552010171
:102F700038510301DE5D0BE1010139510301DD5DD3
:102F800006E1000EE66EE66A26D9E552E552010139
:102F9000E90570E1320EE66EE66A7AEC38F0E55249
:102FA000E552A2EC38F00301010ED8192BE1D951FA
:102FB00029E1DA51DB1126E18190010EE66EE66A25
:102FC000E2D8E552E5520201050ECA5D000ECB596A
:102FD00019E3CAC200F0CBC201F00001016A010E80
:102FE000001600180FE101500DE10101006B016BAB
:102FF0008180010E0301DA6FDB6BD86BD96B0201A4
:10300000CA6BCB6B0301D851D91112E10101060E35
:1030100000190EE101510CE1010EE66EE66ADBD803
:10302000E552E5520301DA6BDB6B0101006B016BCA
:103030000201050ECA5D000ECB5918E3CAC200F0AA
:10304000CBC201F00001016A010E001600180EE16A
:1030500001500CE10301010EDA1905E1DB5103E136
:103060008180DA6BDB6B0201CA6BCB6B57EC29F00A
:10307000B0EC1DF082EC25F05AD7D9CFE6FFE1CFB6
:10308000D9FF040EE126DE6ADD6ADECF00F0DDCF77
:1030900001F0FD0EDBCF02F0FE0EDBCF03F001509E
:1030A0000318E8AE02D0033404D00250005C035091
:1030B00001581DE2020EDB6A030EDB6A020EDBCF53
:1030C00000F0030EDBCF01F0D890015004E6EE0EC5
:1030D000005C000E015806E2020EDB2A030EEEE34E
:1030E000DB2AECD7DF2A010ED0E3DB2ACED7040E91
:1030F000E15C02E2E16AE552E16EE552E7CFD9FF19
:103100001200936A926AB3EC21F0956A836A2BEC01
:103110003CF0E80EE66E030EE66EAFDFE552E552D8
:10312000570EE66E120EE66E0BEC36F0E552E552E7
:10313000AE0EE66E240EE66EADEC36F0E552E552CC
:10314000660EE66EB70EE66E6EEC37F0E552E552AF
:10315000020EE66EE66A49EC38F0E552E5520A0ED8
:10316000E66EE66A5BEC38F0E552E552320EE66E4A
:10317000E66A7AEC38F0E552E5529DEC38F03DEC29
:1031800033F06CEF3EF0D9CFE6FFE1CFD9FFFE0E72
:10319000DBCF01F0800E01141AE1FD0EDBCF02F04F
:1031A000FE0EDBCF03F0033404E202500708000EEA
:1031B00003540DE3FD0EDBCFE9FFFE0EDBCFEAFF8C
:1031C000C80EE926030EEA22EF508310836EE55203
:1031D000E7CFD9FF1200D9CFE6FFE1CFD9FFFE0E2E
:1031E000DBCF01F0800E01141AE1FD0EDBCF02F0FF
:1031F000FE0EDBCF03F0033404E202500708000E9A
:1032000003540DE3FD0EDBCFE9FFFE0EDBCFEAFF3B
:10321000C80EE926030EEA22EF1C8314836EE552E2
:10322000E7CFD9FF1200D9CFE6FFE1CFD9FFFD0EDE
:10323000DBCFE9FFFE0EDBCFEAFFD00EE926030E5F
:10324000EA22EF0415E1FD0EDBCFE6FFFE0EDBCF39
:10325000E6FFC1DFE552E552FD0EDBCFE9FFFE0ED2
:10326000DBCFEAFFD00EE926030EEA22EF6A15D083
:10327000FD0EDBCFE6FFFE0EDBCFE6FF84DFE5527F
:10328000E552FD0EDBCFE9FFFE0EDBCFEAFFD00EED
:10329000E926030EEA22010EEF6EE552E7CFD9FFD1
:1032A0001200D9CFE6FFE1CFD9FF020EE126DE6A98
:1032B000DD6ADECF00F0DDCF01F0013404E2005022
:1032C0000708000E015421E3DECFE6FFDDCFE6FF65
:1032D0005ADFE552E552F40EE66E010EE66ECDDEE3
:1032E000E552E552DECFE6FFDDCFE6FF74DFE552C3
:1032F000E552F40EE66E010EE66EBFDEE552E552D3
:10330000DF2A010ED6E3DB2AD4D7020EE15C02E20B
:10331000E16AE552E16EE552E7CFD9FF1200020102
:10332000010ECA1903E1CB5101E1010C000C0201AD
:10333000010EC81903E1C95101E1010C000CD9CFFC
:10334000E6FFE1CFD9FF020EE126E66A73EC3EF01C
:10335000E552F3CF58F1F4CF59F101015A6B5B6B91
:1033600059AF02D05A695B697BC1E9FFEA6AE9BEDD
:10337000EA68D890E936EA36920EE926000EEA228B
:1033800058C1EEFF59C1EDFF01017B29006E256E8A
:10339000320E2A6E13EC3DF021C07BF121C074F196
:1033A00001013C6B3D6B3E6B3F6BDE6ADD6ADECF3D
:1033B00000F0DDCF01F0D890015004E6320E005C41
:1033C000000E01582FE274C1E9FFEA6AE9BEEA681B
:1033D000D890E936EA36920EE926000EEA22EECFC0
:1033E00000F0EFCF01F0026A036A3C0EE96E010EB5
:1033F000EA6EEE50002401013C6FEE5001203D6F5B
:10340000EE5002203E6FEE5003203F6F01017451D9
:1034100003E1310E746F01D07407DF2A010EC7E398
:10342000DB2AC5D7320E276E286A296A2A6A3CC170
:1034300022F03DC123F03EC124F03FC125F0EAEC6B
:103440003EF022C03CF123C03DF124C03EF125C036
:103450003FF1020EE15C02E2E16AE552E16EE55203
:10346000E7CFD9FF1200D9CFE6FFE1CFD9FF020E97
:10347000E126010EE66E73EC3EF0E552F3CF5CF10F
:10348000F4CF5DF101015E6B5F6B5DAF02D05E69F1
:103490005F697CC1E9FFEA6AE9BEEA68D890E9366B
:1034A000EA36000EE926020EEA225CC1EEFF5DC19B
:1034B000EDFF01017C29006E256E320E2A6E13ECA1
:1034C0003DF021C07CF121C075F10101406B416BE1
:1034D000426B436BDE6ADD6ADECF00F0DDCF01F0C8
:1034E000D890015004E6320E005C000E01582FE225
:1034F00075C1E9FFEA6AE9BEEA68D890E936EA36BA
:10350000000EE926020EEA22EECF00F0EFCF01F026
:10351000026A036A400EE96E010EEA6EEE50002464
:103520000101406FEE500120416FEE500220426FCA
:10353000EE500320436F0101755103E1310E756FA9
:1035400001D07507DF2A010EC7E3DB2AC5D7320E8B
:10355000276E286A296A2A6A40C122F041C123F0F5
:1035600042C124F043C125F0EAEC3EF022C040F114
:1035700023C041F124C042F125C043F1020EE15CB9
:1035800002E2E16AE552E16EE552E7CFD9FF1200AF
:10359000D9CFE6FFE1CFD9FF020EE126E66E73EC4C
:1035A0003EF0E552F3CF60F1F4CF61F10101626BBF
:1035B000636B61AF02D0626963697DC1E9FFEA6A4A
:1035C000E9BEEA68D890E936EA36640EE926020ECA
:1035D000EA2260C1EEFF61C1EDFF01017D29006EAD
:1035E000256E320E2A6E13EC3DF021C07DF121C014
:1035F00076F10101446B456B466B476BDE6ADD6A11
:10360000DECF00F0DDCF01F0D890015004E6320E9D
:10361000005C000E01582FE276C1E9FFEA6AE9BEBC
:10362000EA68D890E936EA36640EE926020EEA2204
:10363000EECF00F0EFCF01F0026A036A440EE96EAC
:10364000010EEA6EEE5000240101446FEE5001209D
:10365000456FEE500220466FEE500320476F010188
:10366000765103E1310E766F01D07607DF2A010E25
:10367000C7E3DB2AC5D7320E276E286A296A2A6A71
:1036800044C122F045C123F046C124F047C125F0D2
:10369000EAEC3EF022C044F123C045F124C046F1DB
:1036A00025C047F1020EE15C02E2E16AE552E16EFB
:1036B000E552E7CFD9FF1200D9CFE6FFE1CFD9FF1E
:1036C000020EE126030EE66E73EC3EF0E552F3CFF8
:1036D00064F1F4CF65F10101666B676B65AF02D0F1
:1036E000666967697EC1E9FFEA6AE9BEEA68D8905F
:1036F000E936EA36000EE926040EEA2264C1EEFF3E
:1037000065C1EDFF01017E29006E256E320E2A6E25
:1037100013EC3DF021C07EF121C077F10101486B2F
:10372000496B4A6B4B6BDE6ADD6ADECF00F0DDCFA2
:1037300001F0D890015004E6320E005C000E0158F2
:103740002FE277C1E9FFEA6AE9BEEA68D890E93674
:10375000EA36000EE926040EEA22EECF00F0EFCFA3
:1037600001F0026A036A480EE96E010EEA6EEE503D
:1037700000240101486FEE500120496FEE500220F5
:103780004A6FEE5003204B6F0101775103E1310E78
:10379000776F01D07707DF2A010EC7E3DB2AC5D791
:1037A000320E276E286A296A2A6A48C122F049C166
:1037B00023F04AC124F04BC125F0EAEC3EF022C0D0
:1037C00048F123C049F124C04AF125C04BF1020E53
:1037D000E15C02E2E16AE552E16EE552E7CFD9FF32
:1037E0001200D9CFE6FFE1CFD9FF020EE126040E89
:1037F000E66E73EC3EF0E552F3CF68F1F4CF69F179
:1038000001016A6B6B6B69AF02D06A696B697FC13A
:10381000E9FFEA6AE9BEEA68D890E936EA36640E5A
:10382000E926040EEA2268C1EEFF69C1EDFF01013D
:103830007F29006E256E320E2A6E13EC3DF021C0FA
:103840007FF121C078F101014C6B4D6B4E6B4F6BDA
:10385000DE6ADD6ADECF00F0DDCF01F0D8900150E6
:1038600004E6320E005C000E01582FE278C1E9FF39
:10387000EA6AE9BEEA68D890E936EA36640EE926D3
:10388000040EEA22EECF00F0EFCF01F0026A036AE5
:103890004C0EE96E010EEA6EEE50002401014C6FF1
:1038A000EE5001204D6FEE5002204E6FEE5003207F
:1038B0004F6F0101785103E1310E786F01D0780725
:1038C000DF2A010EC7E3DB2AC5D7320E276E286A2E
:1038D000296A2A6A4CC122F04DC123F04EC124F05E
:1038E0004FC125F0EAEC3EF022C04CF123C04DF16F
:1038F00024C04EF125C04FF1020EE15C02E2E16A04
:10390000E552E16EE552E7CFD9FF1200D9CFE6FFCD
:10391000E1CFD9FF020EE126050EE66E73EC3EF014
:10392000E552F3CF6CF1F4CF6DF101016E6B6F6B6B
:103930006DAF02D06E696F6980C1E9FFEA6AE9BEC6
:10394000EA68D890E936EA36000EE926030EEA2244
:103950006CC1EEFF6DC1EDFF01018029006E256E87
:10396000320E2A6E13EC3DF021C080F121C079F1B6
:103970000101506B516B526B536BDE6ADD6ADECF17
:1039800000F0DDCF01F0D890015004E6320E005C6B
:10399000000E01582FE279C1E9FFEA6AE9BEEA6840
:1039A000D890E936EA36000EE926030EEA22EECF79
:1039B00000F0EFCF01F0026A036A500EE96E010ECB
:1039C000EA6EEE5000240101506FEE500120516F5D
:1039D000EE500220526FEE500320536F01017951D7
:1039E00003E1310E796F01D07907DF2A010EC7E3B9
:1039F000DB2AC5D7320E276E286A296A2A6A50C187
:103A000022F051C123F052C124F053C125F0EAEC59
:103A10003EF022C050F123C051F124C052F125C024
:103A200053F1020EE15C02E2E16AE552E16EE55219
:103A3000E7CFD9FF1200D9CFE6FFE1CFD9FF020EC1
:103A4000E126060EE66E73EC3EF0E552F3CF70F120
:103A5000F4CF71F10101726B736B71AF02D07269B7
:103A6000736981C1E9FFEA6AE9BEEA68D890E9367C
:103A7000EA36640EE926030EEA2270C1EEFF71C138
:103A8000EDFF01018129006E256E320E2A6E13ECC6
:103A90003DF021C081F121C07AF10101546B556BD9
:103AA000566B576BDE6ADD6ADECF00F0DDCF01F0CA
:103AB000D890015004E6320E005C000E01582FE24F
:103AC0007AC1E9FFEA6AE9BEEA68D890E936EA36DF
:103AD000640EE926030EEA22EECF00F0EFCF01F0EC
:103AE000026A036A540EE96E010EEA6EEE5000247B
:103AF0000101546FEE500120556FEE500220566FB9
:103B0000EE500320576F01017A5103E1310E7A6FB5
:103B100001D07A07DF2A010EC7E3DB2AC5D7320EB0
:103B2000276E286A296A2A6A54C122F055C123F0F7
:103B300056C124F057C125F0EAEC3EF022C054F102
:103B400023C055F124C056F125C057F1020EE15CA7
:103B500002E2E16AE552E16EE552E7CFD9FF1200D9
:103B6000D9CFE6FFE1CFD9FF040EE126010E000117
:103B70008025806F000E8121816F280E296E2A6AB0
:103B800080C024F081C025F02BEC3FF020C080F0F5
:103B900021C081F000012050211001E0F9D282C142
:103BA00000F083C101F0026A036A01018251010140
:103BB000985D086E995101018355096E0A6A0B6A76
:103BC0003CC122F03DC123F03EC124F03FC125F0AD
:103BD00008C027F0286E0AC029F00BC02AF0B2EC0A
:103BE0003EF01EC004F01FC005F020C006F021C04A
:103BF00007F02768030E286E296A2A6A1EC022F081
:103C00001FC023F020C024F021C025F080EC3DF03F
:103C100022C004F023C005F024C006F025C007F040
:103C20002250002623500122245002222550032234
:103C300000C084F001C085F040C122F041C123F0F2
:103C400042C124F043C125F0100E276E270E286EC6
:103C5000296A2A6AB2EC3EF01EC022F01FC023F08F
:103C600020C024F021C025F02768030E286E296AA1
:103C70002A6A80EC3DF022C086F023C087F044C160
:103C800022F045C123F046C124F047C125F0D00EF3
:103C9000276E070E286E296A2A6AB2EC3EF01EC013
:103CA00022F01FC023F020C024F021C025F0276897
:103CB000030E286E296A2A6A80EC3DF022C088F043
:103CC00023C089F090C104F091C105F0066A076A2B
:103CD000010192510101965D186E975101019355B2
:103CE000196E1A6A1B6A010190510101945D146EEC
:103CF000955101019155156E166A176A92C110F01F
:103D000093C111F0126A136A10500101485D0C6EE4
:103D1000115049590D6E12504A590E6E13504B599D
:103D20000F6E0CC022F00DC023F00EC024F0256EE3
:103D300014C027F015C028F016C029F017C02AF0CB
:103D4000B2EC3EF01EC008F01FC009F020C00AF01F
:103D500021C00BF01EC022F01FC023F020C024F0B1
:103D600021C025F018C027F019C028F01AC029F08A
:103D70001BC02AF080EC3DF004502224006E055058
:103D80002320016E06502420026E07502520036E6A
:103D900000C08EF001C08FF04CC100F04DC101F0A9
:103DA0004EC102F04FC103F0A00E276E0F0E286E19
:103DB000296A2A6A4CC122F04DC123F04EC124F079
:103DC0004FC125F0B2EC3EF01EC000F01FC001F064
:103DD00020C002F021C003F02768030E286E296A74
:103DE0002A6A1EC022F01FC023F020C024F021C088
:103DF00025F080EC3DF022C000F023C001F024C08B
:103E000002F025C003F0E80E0026030E0122000E8A
:103E10000222032200C08AF001C08BF050C100F0E2
:103E200051C101F052C102F053C103F0400E276EA0
:103E30001F0E286E296A2A6A50C122F051C123F050
:103E400052C124F053C125F0B2EC3EF01EC000F088
:103E50001FC001F020C002F021C003F02768030E4C
:103E6000286E296A2A6A1EC022F01FC023F020C0D3
:103E700024F021C025F080EC3DF022C000F023C0EA
:103E800001F024C002F025C003F0D00E0026070E7A
:103E90000122000E0222032200C08CF001C08DF02E
:103EA00054C122F055C123F056C124F057C125F06A
:103EB000A00E276E8C0E286E296A2A6AB2EC3EF09C
:103EC0001EC022F01FC023F020C024F021C025F026
:103ED0002768030E286E296A2A6A80EC3DF022C00A
:103EE00090F023C091F0000184510101A65D000112
:103EF00085510101A75975E30101B4510001845DA9
:103F00000101B551000185596CE3000186510101A1
:103F1000A85D000187510101A95963E30101B65170
:103F20000001865D0101B751000187595AE3000184
:103F300088510101AA5D000189510101AB5951E38A
:103F40000101B8510001885D0101B9510001895991
:103F500048E300018A510101AC5D00018B51010170
:103F6000AD593FE30101BA5100018A5D0101BB5126
:103F700000018B5936E300018C510101AE5D000157
:103F80008D510101AF592DE30101BC5100018C5D40
:103F90000101BD5100018D5924E300018E51010141
:103FA000B05D00018F510101B1591BE30101BE5108
:103FB00000018E5D0101BF5100018F5912E3000124
:103FC00090510101B25D000191510101B35909E322
:103FD0000101C0510001905D0101C15100019159E1
:103FE00008E2060E0101006F016B010E0301D86F9C
:103FF00002D00301D86BD96B960EE66E600EE66EAA
:10400000BEEC33F0E552E55284C000F085C001F00B
:10401000026A036A84C0E6FF85C0E6FF02C0E6FFCD
:1040200003C0E6FF70EC35F0E552E552E552E5528B
:104030008D0EE66E600EE66EBEEC33F0E552E55294
:1040400086C000F087C001F0026A036A86C0E6FFFE
:1040500087C0E6FF02C0E6FF03C0E6FF70EC35F064
:10406000E552E552E552E552810EE66E600EE66ECF
:10407000BEEC33F0E552E55288C000F089C001F093
:10408000026A036A88C0E6FF89C0E6FF02C0E6FF55
:1040900003C0E6FF70EC35F0E552E552E552E5521B
:1040A000750EE66E600EE66EBEEC33F0E552E5523C
:1040B0008EC000F08FC001F0026A036A8EC0E6FF76
:1040C0008FC0E6FF02C0E6FF03C0E6FF70EC35F0EC
:1040D000E552E552E552E5526C0EE66E600EE66E74
:1040E000BEEC33F0E552E5528AC000F08BC001F01F
:1040F000026A036A8AC0E6FF8BC0E6FF02C0E6FFE1
:1041000003C0E6FF70EC35F0E552E552E552E552AA
:10411000600EE66E600EE66EBEEC33F0E552E552E0
:104120008CC000F08DC001F0026A036A8CC0E6FF0B
:104130008DC0E6FF02C0E6FF03C0E6FF70EC35F07D
:10414000E552E552E552E552530EE66E600EE66E1C
:10415000BEEC33F0E552E55290C000F091C001F0A2
:10416000026A036A90C0E6FF91C0E6FF02C0E6FF64
:1041700003C0E6FF70EC35F0E552E552E552E5523A
:104180004A0EE66E600EE66EBEEC33F0E552E55286
:10419000040EE15C02E2E16AE552E16EE552E7CF2E
:1041A000D9FF12008FEC19F0000904E03CC192F134
:1041B0003DC193F197EC19F0000904E03CC196F180
:0641C0003DC197F1120061
:0A41C600D9CFE6FFE1CFD9FF040EC8
:1041D000E126DE6ADD6ADECF00F0DDCF01F0026AA3
:1041E000036A01AE02D002680368D950FB0FE96E82
:1041F000FF0EDA20EA6EEE50005CEE500158EE50F1
:104200000258EE5003581DE2020EDB6A030EDB6A11
:10421000020EDBCF00F0030EDBCF01F0D89001508F
:1042200004E6050E005C000E015806E2020EDB2AD1
:10423000030EEEE3DB2AECD7DF2A010ECCE3DB2A08
:10424000CAD7040EE15C02E2E16AE552E16EE55292
:10425000E7CFD9FF1200D9CFE6FFE1CFD9FF040E97
:10426000E126DE6ADD6ADECF00F0DDCF01F0026A12
:10427000036A01AE02D002680368D950FB0FE96EF1
:10428000FF0EDA20EA6EEE50005CEE500158EE5060
:104290000258EE5003581DE2020EDB6A030EDB6A81
:1042A000020EDBCF00F0030EDBCF01F0D8900150FF
:1042B00004E6EE0E005C000E015806E2020EDB2A58
:1042C000030EEEE3DB2AECD7DF2A010ECCE3DB2A78
:1042D000CAD7040EE15C02E2E16AE552E16EE55202
:1042E000E7CFD9FF1200D9CFE6FFE1CFD9FF0F0EFC
:1042F0008116FE0EDB50F00B81128186010EE66EF8
:10430000E66AE66AE66AA7DFE552E552E552E5525B
:104310008196010EE66EE66AE66AE66A9CDFE55281
:10432000E552E552E5520F0E8116FE0EDB38F00B1A
:1043300081128186010EE66EE66AE66AE66A8BDF26
:10434000E552E552E552E5528196010EE66EE66AC7
:10435000E66AE66A80DFE552E552E552E552E5524B
:10436000E7CFD9FF1200D9CFE6FFE1CFD9FFE65260
:10437000190EE66EE66AE66AE66A6DDFE552E55218
:10438000E552E5520F0E8116F80E81160F0E8116BA
:10439000300E81128186010EE66EE66AE66AE66AF2
:1043A0005ADFE552E552E552E5528196010EE66E7E
:1043B000E66AE66AE66A4FDFE552E552E552E55203
:1043C0000F0E8116300E81128186010EE66EE66AAE
:1043D000E66AE66A40DFE552E552E552E55281962B
:1043E000010EE66EE66AE66AE66A35DFE552E552F8
:1043F000E552E5520F0E8116300E81128186010EB4
:10440000E66EE66AE66AE66A26DFE552E552E552BE
:10441000E5528196010EE66EE66AE66AE66A1BDF01
:10442000E552E552E552E5520F0E8116818A8186EA
:10443000010EE66EE66AE66AE66A0DDFE552E552CF
:10444000E552E5528196010EE66EE66AE66AE66A94
:1044500002DFE552E552E552E552280EE66E43DFF3
:10446000E5520C0EE66E3FDFE552E552E552E7CF2E
:10447000D9FF1200D9CFE6FFE1CFD9FF020EE12626
:10448000DF6A010EDB6A81940F0EE66EE66AE66A69
:10449000E66A99DEE552E552E552E5520F0E8112C9
:1044A0008186E66EE66AE66AE66A8DDEE552E552E8
:1044B000E552E5520F0E8114E76E010EE7CFDBFFE8
:1044C00081960F0EE66EE66AE66AE66A7CDEE552E3
:1044D000E552E552E5520F0E81128186E66EE66ADC
:1044E000E66AE66A70DEE552E552E552E5520F0EE5
:1044F0008114DF6E010EDB50DF128196010EE66E35
:10450000E66AE66AE66A5FDEE552E552E552E552A2
:10451000DF50006E020EE15C02E2E16AE552E16EFC
:104520000050E552E7CFD9FF1200D9CFE6FFE1CF27
:10453000D9FFE652DF6A9EDFDF6EDFBEFCD7DF50B9
:10454000E552E552E7CFD9FF1200D9CFE6FFE1CF20
:10455000D9FF0F0E8116FE0EDB5081128186050EEB
:10456000E66EE66AE66AE66A2EDEE552E552E55256
:10457000E5528196050EE66EE66AE66AE66A23DE95
:10458000E552E552E552E552E552E7CFD9FF120078
:10459000D9CFE6FFE1CFD9FF8194050EE66EE66A3A
:1045A000E66AE66A10DEE552E552E552E552FE0E95
:1045B000DBCFE6FFCADFE552FE0EDB38F00BE66E1E
:1045C000C4DFE552E552E7CFD9FF1200D9CFE6FFAD
:1045D000E1CFD9FF8184050EE66EE66AE66AE66AF7
:1045E000F2DDE552E552E552E552FE0EDBCFE6FF85
:1045F000ACDFE552FE0EDB38F00BE66EA6DFE552CF
:104600008194E552E7CFD9FF1200D9CFE6FFE1CF81
:10461000D9FFFE0EDBCFE6FFD9DFE552E552E7CF4B
:10462000D9FF1200D9CFE6FFE1CFD9FFFE0EDBCFD5
:10463000E6FFCCDFE552E552E7CFD9FF1200D9CF34
:10464000E6FFE1CFD9FFFD0EDBCFF6FFFE0EDBCF9D
:10465000F7FF0800F5500FE0FD0EDBCFF6FFDB2A79
:10466000FE0EDBCFF7FF01E3DB2A0800F550E66E14
:10467000D9DFE552E8D7E552E7CFD9FF1200D9CF0D
:10468000E6FFE1CFD9FFE652FD0EDB500F0B006EC7
:10469000FE0EDB50010B400DF3500024DF6E7F0E49
:1046A000DF14800FDF6EDFCFE6FF72DFE552E552E9
:1046B000E552E7CFD9FF1200010EE66E69DFE55241
:1046C000E66AE66ADCDFE552E5521200D9CFE6FF82
:1046D000E1CFD9FF050EE126010EF36EDB6E020E6F
:1046E000DB6A030EDB6A040EDB6ADF6ADFCF00F0F1
:1046F000016A00BE0168FB0EDBCF02F0FC0EDBCFCF
:1047000003F001500318E8AE02D0033404D0025085
:10471000005C035001582DE2FD0EDBCF00F0FE0ED1
:10472000DBCF01F0026A036A01AE02D002680368BF
:10473000D950010FE96EDACFEAFF00C027F001C0BF
:1047400028F002C029F003C02AF0EECF22F0EECF0D
:1047500023F0EECF24F0EFCF25F0B2EC3EF021C0F5
:10476000EDFF20C0EDFF1FC0EDFF1EC0EFFFDF2AF1
:10477000BDD7010EDBCF00F0020EDBCF01F0030E40
:10478000DBCF02F0040EDBCF03F000C022F001C04B
:1047900023F002C024F003C025F0050EE15C02E224
:1047A000E16AE552E16EE552E7CFD9FF1200D9CFB9
:1047B000E6FFE1CFD9FF020EE126DF6AFB0EDBCF79
:1047C00000F0FC0EDBCF01F0FD0EDBCF02F0FE0EA1
:1047D000DBCF03F0005001100210031005E1300E92
:1047E000E66E20DFE552F4D0D950FB0FE96EFF0EE4
:1047F000DA20EA6ED890030EEB50000A08E6000EAD
:10480000EE5C000EEE58000EEE58000EEE5815E26B
:104810002D0EE66E07DFE552D950FB0FE96EFF0E55
:10482000DA20EA6E000EEE6CEF1EEE22EF1EEE2294
:10483000EF1EEF22ED52ED52ED52DE52070EDD6E0D
:10484000010EDBCF00F0000EE76E0018E8AE02D0DC
:10485000003403D0E750D880005401E3B9D0010EF2
:10486000DB04046E056A04BE056804C0E6FF05C0EB
:10487000E6FF0A0EE66EE66A29DFE552E552E552EA
:10488000E55222C000F023C001F024C002F025C090
:1048900003F022C027F023C028F024C029F025C04F
:1048A0002AF0FB0EDBCF22F0FC0EDBCF23F0FD0E57
:1048B000DBCF24F0FE0EDBCF25F0EAEC3EF02250F9
:1048C00023102410251041E0010EDF6EDB04086E7A
:1048D000096A08BE096808C0E6FF09C0E6FF0A0EBB
:1048E000E66EE66AF3DEE552E552E552E55222C095
:1048F00004F023C005F024C006F025C007F022C054
:1049000027F023C028F024C029F025C02AF0FB0E90
:10491000DBCF22F0FC0EDBCF23F0FD0EDBCF24F04B
:10492000FE0EDBCF25F0EAEC3EF022C000F023C003
:1049300001F024C002F025C003F0300E0026000E66
:10494000012202220322005003D0DF5004E0300E87
:10495000E66E68DEE552010EDB04046E056A04BEF5
:10496000056804C0E6FF05C0E6FF0A0EE66EE66ACB
:10497000ADDEE552E552E552E55222C000F023C01B
:1049800001F024C002F025C003F0D950FB0FE96EFE
:10499000FF0EDA20EA6E22C027F023C028F024C0E0
:1049A00029F025C02AF0EECF22F0EECF23F0EECF93
:1049B00024F0EFCF25F0EAEC3EF021C0EDFF20C05F
:1049C000EDFF1FC0EDFF1EC0EFFF010EDB0638D765
:1049D000020EE15C02E2E16AE552E16EE552E7CFE8
:1049E000D9FF1200D9CFE6FFE1CFD9FFFD0EDBCF13
:1049F000E6FFFE0EDBCFE6FF42DEE552E552D95080
:104A0000F90FE96EFF0EDA20EA6EEECFE6FFEECF89
:104A1000E6FFEECFE6FFEFCFE6FFC9DEE552E55257
:104A2000E552E552E552E7CFD9FF1200D9CFE6FFB4
:104A3000E1CFD9FFFD0EDBCFE6FFFE0EDBCFE6FFB9
:104A40001EDEE552E552FB0EDBCFE6FFFC0EDBCFB0
:104A5000E6FFF5DDE552E552E552E7CFD9FF12005A
:104A6000D9CFE6FFE1CFD9FF7BCF00F07CCF01F0BB
:104A7000040ED89000360136E806FBE1410E002610
:104A80000F0E012200500F017D25E96E01507E219D
:104A9000EA6EFE0EDBCFEFFF7D2B000E7E23E5528C
:104AA000E7CFD9FF1200D9CFE6FFE1CFD9FFE65219
:104AB000DF6ADFCF00F0100EE76E0018E8AE02D01C
:104AC000E73402D0E750005C18E2DFCFE9FFEA6A82
:104AD000E9BEEA68410EE9260F0EEA22200EEF6ECB
:104AE000DFCFE9FFEA6AE9BEEA68510EE9260F0E58
:104AF000EA22200EEF6EDF2ADCD7E552E552E7CF3F
:104B0000D9FF1200D9CFE6FFE1CFD9FFE6520F015E
:104B10004051030A52E0010A36E0030A1AE0010A92
:104B200067E1E66AE66AABDDE552E552DF6A080E48
:104B3000DF5C0CE2DF50EA6A410FE96E0F0EEA22F9
:104B4000EF50E66E6FDDE552DF2AF1D70F01010E5F
:104B500032D0080EE66EE66A92DDE552E552DF6A73
:104B6000080EDF5C0DE2080EDF24EA6A410FE96EF1
:104B70000F0EEA22EF50E66E55DDE552DF2AF0D740
:104B80000F01020E18D0E66A010EE66E78DDE552DE
:104B9000E552DF6A080EDF5C0CE2DF50EA6A510F73
:104BA000E96E0F0EEA22EF50E66E3CDDE552DF2A99
:104BB000F1D70F01030E406F1CD0080EE66E010EF8
:104BC000E66E5DDDE552E552DF6A080EDF5C0DE260
:104BD000080EDF24EA6A510FE96E0F0EEA22EF5049
:104BE000E66E20DDE552DF2AF0D70F01406B01D0E1
:104BF000406BE552E552E7CFD9FF1200D9CFE6FF6F
:104C0000E1CFD9FFE6520F014051010A1BE0010A32
:104C100032E1E66AE66A33DDE552E552DF6A100EFC
:104C2000DF5C0CE2DF50EA6A410FE96E0F0EEA2208
:104C3000EF50E66EF7DCE552DF2AF1D70F01010EE7
:104C4000406F1AD0E66A010EE66E19DDE552E552B4
:104C5000DF6A100EDF5C0CE2DF50EA6A510FE96E8A
:104C60000F0EEA22EF50E66EDDDCE552DF2AF1D7C7
:104C70000F01406B01D0406BE552E552E7CFD9FF01
:104C80001200D9CFE6FFE1CFD9FFE652E66AE66A25
:104C9000F6DCE552E552DF6A100EDF5C0CE2DF5015
:104CA000EA6A410FE96E0F0EEA22EF50E66EBADCB7
:104CB000E552DF2AF1D7E66A010EE66EE0DCE55246
:104CC000E552DF6A100EDF5C0CE2DF50EA6A510F3A
:104CD000E96E0F0EEA22EF50E66EA4DCE552DF2A01
:104CE000F1D7E552E552E7CFD9FF1200D9CFE6FF61
:104CF000E1CFD9FFFE0EDB50010B0F017B6F7C6B08
:104D0000FD0EDB500F0B7D6F7E6B7BCF00F07CCFF9
:104D100001F0040ED89000360136E806FBE1410EA2
:104D200000260F0E012200500F017D25E96E015073
:104D30007E21EA6EFC0EDBCFEFFFE552E7CFD9FF15
:104D40001200D9CFE6FFE1CFD9FF020EE126DF6ADC
:104D5000FE0EDB50010B0F017B6F7C6BFD0EDB50F9
:104D60000F0B7D6F7E6BF90EDBCF00F0FA0EDBCF01
:104D700001F0FB0EDBCF02F0FC0EDBCF03F00050A6
:104D800001100210031005E1300EE66E69DEE552F7
:104D9000F5D0D950F90FE96EFF0EDA20EA6ED890FF
:104DA000030EEB50000A08E6000EEE5C000EEE5813
:104DB000000EEE58000EEE5815E22D0EE66E50DE97
:104DC000E552D950F90FE96EFF0EDA20EA6E000EB7
:104DD000EE6CEF1EEE22EF1EEE22EF1EEF22ED52E2
:104DE000ED52ED52DE52070EDD6E010EDBCF00F00C
:104DF000000EE76E0018E8AE02D0003403D0E75092
:104E0000D880005401E3BAD0010EDB04046E056AB9
:104E100004BE056804C0E6FF05C0E6FF0A0EE66EA4
:104E2000E66A54DCE552E552E552E55222C000F054
:104E300023C001F024C002F025C003F022C027F0F7
:104E400023C028F024C029F025C02AF0F90EDBCFBA
:104E500022F0FA0EDBCF23F0FB0EDBCF24F0FC0EAA
:104E6000DBCF25F0EAEC3EF0225023102410251071
:104E700041E0010EDF6EDB04086E096A08BE0968B6
:104E800008C0E6FF09C0E6FF0A0EE66EE66A1EDC11
:104E9000E552E552E552E55222C004F023C005F088
:104EA00024C006F025C007F022C027F023C028F058
:104EB00024C029F025C02AF0F90EDBCF22F0FA0E2B
:104EC000DBCF23F0FB0EDBCF24F0FC0EDBCF25F095
:104ED000EAEC3EF022C000F023C001F024C002F052
:104EE00025C003F0300E0026000E0122022203220C
:104EF000005003D0DF5004E0300EE66EB1DDE55225
:104F0000010EDB04046E056A04BE056804C0E6FFFA
:104F100005C0E6FF0A0EE66EE66A66EC23F0E5528F
:104F2000E552E552E55222C000F023C001F024C052
:104F300002F025C003F0D950F90FE96EFF0EDA2018
:104F4000EA6E22C027F023C028F024C029F025C033
:104F50002AF0EECF22F0EECF23F0EECF24F0EFCF09
:104F600025F0EAEC3EF021C0EDFF20C0EDFF1FC0B0
:104F7000EDFF1EC0EFFF010EDB0637D7020EE15C2E
:104F800002E2E16AE552E16EE552E7CFD9FF120095
:104F9000D9CFE6FFE1CFD9FFFE0EDB50010B0F01A9
:104FA0007B6F7C6BFD0EDB500F0B7D6F7E6BFB0E02
:104FB000DBCFF6FFFC0EDBCFF7FF0800F5500FE06C
:104FC000FB0EDBCFF6FFDB2AFC0EDBCFF7FF01E3A6
:104FD000DB2A0800F550E66E43DDE552E8D7E552DE
:104FE000E7CFD9FF1200D9CFE6FFE1CFD9FF050EF9
:104FF000E126D9CFE9FFDACFEAFFF90EDBCFEEFFEA
:10500000FA0EDBCFEEFFFB0EDBCFEEFFFC0EDBCFAD
:10501000EEFFD9CFE9FFDACFEAFFEECF00F0EECF17
:1050200001F0EECF02F0EFCF03F0E80E276E030E93
:10503000286E296A2A6A00C022F001C023F002C04B
:1050400024F003C025F080EC3DF022C000F023C026
:1050500001F024C002F025C003F022C0E6FF23C007
:10506000E6FF24C0E6FF25C0E6FFFD0EDBCFE6FF2E
:10507000FE0EDBCFE6FF65DE046E060EE15E045039
:10508000D9CFE9FFDACFEAFFEECF22F0EECF23F05F
:10509000EECF24F0EFCF25F0E80E276E030E286E3A
:1050A000296A2A6A80EC3DF01EC0DEFF1FC0DEFFC9
:1050B00020C0DEFF21C0DDFFDD52DD52D9CFE9FF88
:1050C000DACFEAFFEECF00F0EECF01F0EECF02F044
:1050D000EFCF03F0640E276E286A296A2A6A00C09F
:1050E00022F001C023F002C024F003C025F080ECC0
:1050F0003DF022C000F023C001F024C002F025C022
:1051000003F022C0E6FF23C0E6FF24C0E6FF25C06F
:10511000E6FFFD0EDB28E66EFE0EDBCFE6FF11DEBE
:10512000046E060EE15E0450D9CFE9FFDACFEAFF44
:10513000EECF22F0EECF23F0EECF24F0EFCF25F02C
:10514000640E276E286A296A2A6A80EC3DF01EC028
:10515000DEFF1FC0DEFF20C0DEFF21C0DDFFDD520D
:10516000DD52440EE66E600EE66EFD0EDB50020F61
:10517000E66EFE0EDBCFE6FF0BDFE552E552E552B1
:10518000E552D9CFE9FFDACFEAFFEECF00F0EECF5C
:1051900001F0EECF02F0EFCF03F00A0E276E286A7F
:1051A000296A2A6A00C022F001C023F002C024F05C
:1051B00003C025F080EC3DF022C000F023C001F0D8
:1051C00024C002F025C003F022C0E6FF23C0E6FFA2
:1051D00024C0E6FF25C0E6FFFD0EDB50030FE66EA0
:1051E000FE0EDBCFE6FFADDD046E060EE15E045081
:1051F000D9CFE9FFDACFEAFFEECF22F0EECF23F0EE
:10520000EECF24F0EFCF25F0E80E276E030E286EC8
:10521000296A2A6A80EC3DF01EC0DEFF1FC0DEFF57
:1052200020C0DEFF21C0DDFFDD52DD52D9CFE9FF16
:10523000DACFEAFFEECF00F0EECF01F0EECF02F0D2
:10524000EFCF03F00A0E276E286A296A2A6A00C087
:1052500022F001C023F002C024F003C025F080EC4E
:105260003DF01EC000F01FC001F020C002F021C0C0
:1052700003F01EC0E6FF1FC0E6FF20C0E6FF21C00E
:10528000E6FFFD0EDB50040FE66EFE0EDBCFE6FF01
:1052900058DD046E060EE15E0450050EE15C02E28C
:0E52A000E16AE552E16EE552E7CFD9FF120058
:0252AE000A0EE6
:1052B0000101001901E1015102E175EF2FF0090E22
:1052C000001901E1015102E185EF2DF0080E0019EE
:1052D00001E1015101E1EDD3070E001901E1015196
:1052E00001E173D3060E001901E1015101E146D33A
:1052F000050E001901E1015101E119D3040E001955
:1053000001E1015101E18BD2030E001901E10151CC
:1053100001E1FDD1020E001901E1015101E16CD161
:10532000010E001901E1015136E0005102E01FEFCA
:1053300030F0015102E01FEF30F053EC25F0EAECC1
:1053400014F00201050ECC5D000ECD5902E221EFF2
:1053500030F0CCC200F00001016A010E0016001806
:1053600019E1015002E021EF30F0010E0101006F60
:10537000016B200EE66E4E0EE66E5BEC38F0E552E9
:10538000E5520101126B136B0101046B056B020105
:10539000CC6BCD6B120053EC25F00201050ED05DF5
:1053A000000ED1591DE3D0C200F00001016A010EC8
:1053B0000016001815E1015013E10101010E121948
:1053C0000FE113510DE101010E690F690101046B39
:1053D000056B020E0101006F016B0201D06BD16BF6
:1053E0000201050ED05D000ED1591DE3D0C200F0C0
:1053F0000001016A010E0016001815E1015013E1C9
:105400000101020E12190FE113510DE101010C69A6
:105410000D690101046B056B030E0101006F016B47
:105420000201D06BD16B0201050ED05D000ED15987
:105430001DE3D0C200F00001016A010E0016001841
:1054400015E1015013E10101030E12190FE113518F
:105450000DE101010A690B69040E0101006F016B86
:105460000101046B056B0201D06BD16B0201050ECB
:10547000D05D000ED15917E3D0C200F00001016ADF
:10548000010E001600180FE101500DE10101040E9C
:10549000121909E1135107E1050E0101006F016BBB
:1054A0000201D06BD16B0201050ED05D000ED15907
:1054B00021E3D0C200F00001016A010E00160018BD
:1054C00019E1015017E10101050E121913E1135101
:1054D00011E1640EE66EE66A5BEC38F0E552E552E7
:1054E0000101106B116B060E0101006F016B0201CF
:1054F000D06BD16B0201050ED05D000ED15917E3C0
:10550000D0C200F00001016A010E001600180FE180
:1055100001500DE10101060E121909E1135107E1D5
:10552000070E0101006F016B0201D06BD16B02010C
:10553000050ED05D000ED15917E3D0C200F0000176
:10554000016A010E001600180FE101500DE1010182
:10555000070E121909E1135107E1080E0101006F4E
:10556000016B0201D06BD16B0201050EC85D000E0C
:10557000C95930E3C8C200F00001016A010E0016EB
:10558000001828E1015026E1010E01011225126FD9
:10559000000E1321136F080E296E2A6A12C124F01F
:1055A00013C125F02DEC3DF020C012F121C013F104
:1055B00001012050211003E1010E126F136B200E28
:1055C000E66E4E0EE66E5BEC38F0E552E5520201F7
:1055D000C86BC96B0101E7050DE101010E6B0F6B93
:1055E000640EE66EE66A5BEC38F0E552E5520101C6
:1055F000006B016B75EF02F053EC25F0C0EC16F078
:105600000201050EC85D000EC9593CE3C8C200F096
:105610000001016A010E0016001834E1015032E168
:10562000010E01010E250E6F000E0F210F6F070EE8
:10563000296E2A6A0EC124F00FC125F02DEC3DF031
:1056400020C00EF121C00FF1010E01010425046FED
:10565000000E0521056F080E296E2A6A04C124F088
:1056600005C125F02DEC3DF020C004F121C005F16D
:1056700001012050211003E1010E046F056B0201AE
:10568000C86BC96B0201050ED05D000ED15915E340
:10569000D0C200F00001016A010E001600180DE1F1
:1056A00001500BE10101800E0F1507E10A0E010107
:1056B000006F016B0201D06BD16B0201050ECC5D56
:1056C000000ECD5902E221EF30F0CCC200F0000113
:1056D000016A010E0016001819E1015002E021EFE5
:1056E00030F0010E0101006F016B200EE66E4E0ED0
:1056F000E66E5BEC38F0E552E5520101126B136B7C
:105700000101046B056B0201CC6BCD6B1200020131
:10571000050EC85D000EC9593CE3C8C200F0000187
:10572000016A010E0016001834E1015032E1010E49
:1057300001010C250C6F000E0D210D6F080E296E56
:105740002A6A0CC124F00DC125F02DEC3DF020C0DB
:105750000CF121C00DF1010E01010425046F000EB2
:105760000521056F080E296E2A6A04C124F005C1BF
:1057700025F02DEC3DF020C004F121C005F1010120
:105780002050211003E1010E046F056B0201C86B6C
:10579000C96B0201050ED05D000ED15919E3D0C2CC
:1057A00000F00001016A010E0016001811E101501D
:1057B0000FE10101800E0D150BE1010E0101FE6FDD
:1057C000FF6B090E0101006F016B0201D06BD16B01
:1057D0000201050ECC5D000ECD591FE3CCC200F0D6
:1057E0000001016A010E0016001817E1015015E1D1
:1057F000010E0101006F016B200EE66E4E0EE66E8B
:105800005BEC38F0E552E5520101126B136B0101BC
:10581000046B056B0201CC6BCD6B27EF03F002012B
:10582000050EC85D000EC9593CE3C8C200F0000176
:10583000016A010E0016001834E1015032E1010E38
:1058400001010A250A6F000E0B210B6F080E296E4D
:105850002A6A0AC124F00BC125F02DEC3DF020C0CE
:105860000AF121C00BF1010E01010425046F000EA5
:105870000521056F080E296E2A6A04C124F005C1AE
:1058800025F02DEC3DF020C004F121C005F101010F
:105890002050211003E1010E046F056B0201C86B5B
:1058A000C96B0201050ECC5D000ECD591FE3CCC2C1
:1058B00000F00001016A010E0016001817E1015006
:1058C00015E1010E0101006F016B200EE66E4E0E18
:1058D000E66E5BEC38F0E552E5520101126B136B9A
:1058E0000101046B056B0201CC6BCD6B0201050E4F
:1058F000D05D000ED15919E3D0C200F00001016A59
:10590000010E0016001811E101500FE10101800E97
:105910000B150BE1020E0101FE6FFF6B090E010179
:10592000006F016B0201D26BD36BD9EF03F0020160
:10593000050ECC5D000ECD591FE3CCC200F0000176
:10594000016A010E0016001817E1015015E1010E61
:105950000101006F016B200EE66E4E0EE66E5BECF1
:1059600038F0E552E5520101126B136B0101046B33
:10597000056B0201CC6BCD6B13EF14F00201050E29
:10598000CC5D000ECD591FE3CCC200F00001016ACE
:10599000010E0016001817E1015015E1010E01017A
:1059A000006F016B200EE66E4E0EE66E5BEC38F07B
:1059B000E552E5520101126B136B0101046B056B9B
:1059C0000201CC6BCD6B37EF09F053EC25F0ECEC1A
:1059D0003DF00201050ECC5D000ECD591FE3CCC297
:1059E00000F00001016A010E0016001817E10150D5
:1059F00015E1010E0101006F016B200EE66E4E0EE7
:105A0000E66E5BEC38F0E552E5520101126B136B68
:105A10000101046B056B0201CC6BCD6B01013651AA
:105A20000301DE5D43E1010137510301DD5D3EE12C
:105A3000010E01013A253A6F000E3B213B6F0A0E21
:105A4000296E2A6A3AC124F03BC125F02DEC3DF0C5
:105A500020C03AF121C03BF153EC25F0050E0101C5
:105A60003BAF02D0D89003D03A5D000E3B5920E204
:105A70006DEC3FF000091CE0C00EE66E600EE66EB5
:105A8000E66AE66AC8EC27F0E552E552E552E552CF
:105A9000AF0EE66E600EE66EE66A010EE66EC8ECCC
:105AA00027F0E552E552E552E55212004CEC00F0C9
